{
  "_format": "hh-sol-artifact-1",
  "contractName": "predMarket2",
  "sourceName": "contracts/LockV2.sol",
  "abi": [
    {
      "inputs": [
        {
          "internalType": "uint256",
          "name": "_endTime",
          "type": "uint256"
        }
      ],
      "stateMutability": "payable",
      "type": "constructor"
    },
    {
      "inputs": [],
      "name": "ReentrancyGuardReentrantCall",
      "type": "error"
    },
    {
      "anonymous": false,
      "inputs": [
        {
          "indexed": true,
          "internalType": "uint256",
          "name": "positionOfArray",
          "type": "uint256"
        }
      ],
      "name": "BetUnlisted",
      "type": "event"
    },
    {
      "anonymous": false,
      "inputs": [
        {
          "indexed": true,
          "internalType": "address",
          "name": "beneficiary",
          "type": "address"
        },
        {
          "indexed": false,
          "internalType": "uint256",
          "name": "amount",
          "type": "uint256"
        }
      ],
      "name": "FundsRedistributed",
      "type": "event"
    },
    {
      "anonymous": false,
      "inputs": [],
      "name": "PayoutProcessed",
      "type": "event"
    },
    {
      "anonymous": false,
      "inputs": [
        {
          "indexed": false,
          "internalType": "uint256",
          "name": "timeStamp",
          "type": "uint256"
        }
      ],
      "name": "contractDeployed",
      "type": "event"
    },
    {
      "anonymous": false,
      "inputs": [],
      "name": "newBetOffered",
      "type": "event"
    },
    {
      "anonymous": false,
      "inputs": [],
      "name": "shithappened",
      "type": "event"
    },
    {
      "anonymous": false,
      "inputs": [],
      "name": "underReview",
      "type": "event"
    },
    {
      "anonymous": false,
      "inputs": [
        {
          "indexed": true,
          "internalType": "address",
          "name": "sender",
          "type": "address"
        },
        {
          "indexed": false,
          "internalType": "uint256",
          "name": "betPlacedValue",
          "type": "uint256"
        }
      ],
      "name": "userPlacedBet",
      "type": "event"
    },
    {
      "anonymous": false,
      "inputs": [
        {
          "indexed": true,
          "internalType": "address",
          "name": "sender",
          "type": "address"
        },
        {
          "indexed": false,
          "internalType": "uint256",
          "name": "betReduced",
          "type": "uint256"
        }
      ],
      "name": "userReducedBet",
      "type": "event"
    },
    {
      "anonymous": false,
      "inputs": [],
      "name": "userVoted",
      "type": "event"
    },
    {
      "anonymous": false,
      "inputs": [
        {
          "indexed": true,
          "internalType": "address",
          "name": "sender",
          "type": "address"
        },
        {
          "indexed": false,
          "internalType": "string",
          "name": "betAorB",
          "type": "string"
        }
      ],
      "name": "userWithdrewBet",
      "type": "event"
    },
    {
      "anonymous": false,
      "inputs": [
        {
          "indexed": false,
          "internalType": "uint8",
          "name": "winnerIs",
          "type": "uint8"
        },
        {
          "indexed": false,
          "internalType": "uint256",
          "name": "endedAtTime",
          "type": "uint256"
        }
      ],
      "name": "winnerDeclaredVoting",
      "type": "event"
    },
    {
      "anonymous": false,
      "inputs": [
        {
          "indexed": false,
          "internalType": "uint8",
          "name": "winnerIs",
          "type": "uint8"
        }
      ],
      "name": "winnerDeclaredVotingStaff",
      "type": "event"
    },
    {
      "anonymous": false,
      "inputs": [
        {
          "indexed": false,
          "internalType": "uint8",
          "name": "winnerIs",
          "type": "uint8"
        }
      ],
      "name": "winnerFinalized",
      "type": "event"
    },
    {
      "inputs": [],
      "name": "allBets_Balance",
      "outputs": [
        {
          "components": [
            {
              "internalType": "address",
              "name": "deployer",
              "type": "address"
            },
            {
              "internalType": "uint256",
              "name": "amountDeployerLocked",
              "type": "uint256"
            },
            {
              "internalType": "address",
              "name": "owner",
              "type": "address"
            },
            {
              "internalType": "uint256",
              "name": "amountBuyerLocked",
              "type": "uint256"
            },
            {
              "internalType": "uint256",
              "name": "amountToBuyFor",
              "type": "uint256"
            },
            {
              "internalType": "uint8",
              "name": "conditionForBuyerToWin",
              "type": "uint8"
            },
            {
              "internalType": "bool",
              "name": "selling",
              "type": "bool"
            },
            {
              "internalType": "uint256",
              "name": "positionInArray",
              "type": "uint256"
            }
          ],
          "internalType": "struct predMarket2.bet[]",
          "name": "",
          "type": "tuple[]"
        },
        {
          "internalType": "uint256",
          "name": "",
          "type": "uint256"
        },
        {
          "internalType": "uint256",
          "name": "",
          "type": "uint256"
        },
        {
          "internalType": "uint8",
          "name": "",
          "type": "uint8"
        },
        {
          "internalType": "enum predMarket2.RaffleState",
          "name": "",
          "type": "uint8"
        }
      ],
      "stateMutability": "view",
      "type": "function"
    },
    {
      "inputs": [
        {
          "internalType": "uint256",
          "name": "",
          "type": "uint256"
        }
      ],
      "name": "arrayOfBets",
      "outputs": [
        {
          "internalType": "address",
          "name": "deployer",
          "type": "address"
        },
        {
          "internalType": "uint256",
          "name": "amountDeployerLocked",
          "type": "uint256"
        },
        {
          "internalType": "address",
          "name": "owner",
          "type": "address"
        },
        {
          "internalType": "uint256",
          "name": "amountBuyerLocked",
          "type": "uint256"
        },
        {
          "internalType": "uint256",
          "name": "amountToBuyFor",
          "type": "uint256"
        },
        {
          "internalType": "uint8",
          "name": "conditionForBuyerToWin",
          "type": "uint8"
        },
        {
          "internalType": "bool",
          "name": "selling",
          "type": "bool"
        },
        {
          "internalType": "uint256",
          "name": "positionInArray",
          "type": "uint256"
        }
      ],
      "stateMutability": "view",
      "type": "function"
    },
    {
      "inputs": [
        {
          "internalType": "address",
          "name": "",
          "type": "address"
        }
      ],
      "name": "betterBalance",
      "outputs": [
        {
          "internalType": "uint256",
          "name": "",
          "type": "uint256"
        }
      ],
      "stateMutability": "view",
      "type": "function"
    },
    {
      "inputs": [
        {
          "internalType": "uint256",
          "name": "positionOfArray",
          "type": "uint256"
        }
      ],
      "name": "buyABet",
      "outputs": [],
      "stateMutability": "payable",
      "type": "function"
    },
    {
      "inputs": [
        {
          "internalType": "uint8",
          "name": "_winner",
          "type": "uint8"
        }
      ],
      "name": "declareWinner",
      "outputs": [],
      "stateMutability": "nonpayable",
      "type": "function"
    },
    {
      "inputs": [],
      "name": "disagreeWithOwner",
      "outputs": [],
      "stateMutability": "payable",
      "type": "function"
    },
    {
      "inputs": [],
      "name": "endOfVoting",
      "outputs": [
        {
          "internalType": "uint256",
          "name": "",
          "type": "uint256"
        }
      ],
      "stateMutability": "view",
      "type": "function"
    },
    {
      "inputs": [],
      "name": "getBalance",
      "outputs": [
        {
          "internalType": "uint256",
          "name": "",
          "type": "uint256"
        }
      ],
      "stateMutability": "view",
      "type": "function"
    },
    {
      "inputs": [],
      "name": "isOwner",
      "outputs": [
        {
          "internalType": "bool",
          "name": "",
          "type": "bool"
        }
      ],
      "stateMutability": "view",
      "type": "function"
    },
    {
      "inputs": [],
      "name": "payment",
      "outputs": [
        {
          "internalType": "uint64",
          "name": "",
          "type": "uint64"
        }
      ],
      "stateMutability": "view",
      "type": "function"
    },
    {
      "inputs": [],
      "name": "redeemBets",
      "outputs": [],
      "stateMutability": "nonpayable",
      "type": "function"
    },
    {
      "inputs": [
        {
          "internalType": "uint256",
          "name": "amountToBuy",
          "type": "uint256"
        },
        {
          "internalType": "uint8",
          "name": "conditionToWIn",
          "type": "uint8"
        }
      ],
      "name": "sellANewBet",
      "outputs": [],
      "stateMutability": "payable",
      "type": "function"
    },
    {
      "inputs": [
        {
          "internalType": "uint256",
          "name": "positionOfArray",
          "type": "uint256"
        },
        {
          "internalType": "uint256",
          "name": "newAskingPrice",
          "type": "uint256"
        }
      ],
      "name": "sellAnExistingBet",
      "outputs": [],
      "stateMutability": "nonpayable",
      "type": "function"
    },
    {
      "inputs": [
        {
          "internalType": "uint256[]",
          "name": "positionsOfArray",
          "type": "uint256[]"
        }
      ],
      "name": "unlistBets",
      "outputs": [],
      "stateMutability": "nonpayable",
      "type": "function"
    },
    {
      "inputs": [],
      "name": "winner",
      "outputs": [
        {
          "internalType": "uint8",
          "name": "",
          "type": "uint8"
        }
      ],
      "stateMutability": "view",
      "type": "function"
    },
    {
      "inputs": [],
      "name": "withdraw",
      "outputs": [],
      "stateMutability": "nonpayable",
      "type": "function"
    }
  ],
  "bytecode": "0x60c060405273f39fd6e51aad88f6f4ce6ab8827279cfffb9226673ffffffffffffffffffffffffffffffffffffffff1660a09073ffffffffffffffffffffffffffffffffffffffff1681525066b1a2bc2ec50000600360006101000a81548167ffffffffffffffff021916908367ffffffffffffffff16021790555060405162002a1638038062002a168339818101604052810190620000a09190620001a4565b600160008190555066b1a2bc2ec500003414620000f4576040517f08c379a0000000000000000000000000000000000000000000000000000000008152600401620000eb906200025d565b60405180910390fd5b3373ffffffffffffffffffffffffffffffffffffffff1660808173ffffffffffffffffffffffffffffffffffffffff1681525050806002819055506000600360096101000a81548160ff021916908360048111156200015857620001576200027f565b5b021790555050620002ae565b600080fd5b6000819050919050565b6200017e8162000169565b81146200018a57600080fd5b50565b6000815190506200019e8162000173565b92915050565b600060208284031215620001bd57620001bc62000164565b5b6000620001cd848285016200018d565b91505092915050565b600082825260208201905092915050565b7f4465706c6f796d656e742072657175697265732065786163746c7920302e303560008201527f2045746865720000000000000000000000000000000000000000000000000000602082015250565b600062000245602683620001d6565b91506200025282620001e7565b604082019050919050565b60006020820190508181036000830152620002788162000236565b9050919050565b7f4e487b7100000000000000000000000000000000000000000000000000000000600052602160045260246000fd5b60805160a051612718620002fe600039600081816103c901528181610b1c0152610f580152600081816103740152818161045801528181610ac701528181610f030152610fe701526127186000f3fe6080604052600436106100f35760003560e01c8063860273221161008a578063b8cd837411610059578063b8cd8374146102e3578063d38399ec146102fa578063dfbf53ae14610323578063ee9891f11461034e576100f3565b806386027322146102365780638f32d59b146102735780639651b1831461029e578063a6c69ffe146102ba576100f3565b806342f6487a116100c657806342f6487a146101a75780636afedac5146101d25780637672ef7b146102015780637e8873321461020b576100f3565b806312065fe0146100f85780631798b2ae146101235780633658957e1461014c5780633ccfd60b14610190575b600080fd5b34801561010457600080fd5b5061010d61036a565b60405161011a9190611c78565b60405180910390f35b34801561012f57600080fd5b5061014a60048036038101906101459190611ce0565b610372565b005b34801561015857600080fd5b50610173600480360381019061016e9190611d39565b610672565b604051610187989796959493929190611dd1565b60405180910390f35b34801561019c57600080fd5b506101a5610724565b005b3480156101b357600080fd5b506101bc6107bc565b6040516101c99190611e72565b60405180910390f35b3480156101de57600080fd5b506101e76107d6565b6040516101f8959493929190612092565b60405180910390f35b6102096109c0565b005b34801561021757600080fd5b50610220610aa5565b60405161022d9190611c78565b60405180910390f35b34801561024257600080fd5b5061025d60048036038101906102589190612118565b610aab565b60405161026a9190611c78565b60405180910390f35b34801561027f57600080fd5b50610288610ac3565b6040516102959190612145565b60405180910390f35b6102b860048036038101906102b39190612160565b610b80565b005b3480156102c657600080fd5b506102e160048036038101906102dc91906121a0565b610dac565b005b3480156102ef57600080fd5b506102f8610f01565b005b34801561030657600080fd5b50610321600480360381019061031c9190612339565b611794565b005b34801561032f57600080fd5b5061033861196d565b6040516103459190612382565b60405180910390f35b61036860048036038101906103639190611d39565b611980565b005b600047905090565b7f000000000000000000000000000000000000000000000000000000000000000073ffffffffffffffffffffffffffffffffffffffff163373ffffffffffffffffffffffffffffffffffffffff16148061041757507f000000000000000000000000000000000000000000000000000000000000000073ffffffffffffffffffffffffffffffffffffffff163373ffffffffffffffffffffffffffffffffffffffff16145b610456576040517f08c379a000000000000000000000000000000000000000000000000000000000815260040161044d90612420565b60405180910390fd5b7f000000000000000000000000000000000000000000000000000000000000000073ffffffffffffffffffffffffffffffffffffffff163373ffffffffffffffffffffffffffffffffffffffff16036105b257600060048111156104bd576104bc61201b565b5b600360099054906101000a900460ff1660048111156104df576104de61201b565b5b146104e957600080fd5b6000429050611c20816104fc919061246f565b6001819055506001600360096101000a81548160ff021916908360048111156105285761052761201b565b5b021790555081600360086101000a81548160ff021916908360ff1602179055507f929490df01efaa939914f3c800fca2faec5518e6da20283d3f9909fd8cc39c1682826040516105799291906124a3565b60405180910390a16001600360096101000a81548160ff021916908360048111156105a7576105a661201b565b5b02179055505061066f565b600260048111156105c6576105c561201b565b5b600360099054906101000a900460ff1660048111156105e8576105e761201b565b5b146105f257600080fd5b80600360086101000a81548160ff021916908360ff1602179055507fb3f87315f0123ecf2fdec13e9ddeab075e99c82552eef4d8ee0da5b801d852828160405161063c9190612382565b60405180910390a160038060096101000a81548160ff021916908360048111156106695761066861201b565b5b02179055505b50565b6005818154811061068257600080fd5b90600052602060002090600702016000915090508060000160009054906101000a900473ffffffffffffffffffffffffffffffffffffffff16908060010154908060020160009054906101000a900473ffffffffffffffffffffffffffffffffffffffff16908060030154908060040154908060050160009054906101000a900460ff16908060050160019054906101000a900460ff16908060060154905088565b61072c611c0f565b3373ffffffffffffffffffffffffffffffffffffffff166108fc600460003373ffffffffffffffffffffffffffffffffffffffff1673ffffffffffffffffffffffffffffffffffffffff168152602001908152602001600020549081150290604051600060405180830381858888f193505050501580156107b1573d6000803e3d6000fd5b506107ba611c55565b565b600360009054906101000a900467ffffffffffffffff1681565b60606000806000806000600460003373ffffffffffffffffffffffffffffffffffffffff1673ffffffffffffffffffffffffffffffffffffffff168152602001908152602001600020549050600581600254600360089054906101000a900460ff16600360099054906101000a900460ff1684805480602002602001604051908101604052809291908181526020016000905b828210156109a85783829060005260206000209060070201604051806101000160405290816000820160009054906101000a900473ffffffffffffffffffffffffffffffffffffffff1673ffffffffffffffffffffffffffffffffffffffff1673ffffffffffffffffffffffffffffffffffffffff168152602001600182015481526020016002820160009054906101000a900473ffffffffffffffffffffffffffffffffffffffff1673ffffffffffffffffffffffffffffffffffffffff1673ffffffffffffffffffffffffffffffffffffffff16815260200160038201548152602001600482015481526020016005820160009054906101000a900460ff1660ff1660ff1681526020016005820160019054906101000a900460ff1615151515815260200160068201548152505081526020019060010190610869565b50505050945095509550955095509550509091929394565b600160048111156109d4576109d361201b565b5b600360099054906101000a900460ff1660048111156109f6576109f561201b565b5b11158015610a43575060016004811115610a1357610a1261201b565b5b600360099054906101000a900460ff166004811115610a3557610a3461201b565b5b1480610a42575060025442115b5b610a4c57600080fd5b6002600360096101000a81548160ff02191690836004811115610a7257610a7161201b565b5b02179055507f325941a5b65623f14f777a10c4ee68b69cec6214a44a48c1bb1c4991314755c060405160405180910390a1565b60015481565b60046020528060005260406000206000915090505481565b60007f000000000000000000000000000000000000000000000000000000000000000073ffffffffffffffffffffffffffffffffffffffff163373ffffffffffffffffffffffffffffffffffffffff161480610b6a57507f000000000000000000000000000000000000000000000000000000000000000073ffffffffffffffffffffffffffffffffffffffff163373ffffffffffffffffffffffffffffffffffffffff16145b15610b785760019050610b7d565b600090505b90565b60008160ff16118015610b97575060028160ff1611155b610ba057600080fd5b60006004811115610bb457610bb361201b565b5b600360099054906101000a900460ff166004811115610bd657610bd561201b565b5b14610be057600080fd5b60006040518061010001604052803373ffffffffffffffffffffffffffffffffffffffff1681526020013481526020013373ffffffffffffffffffffffffffffffffffffffff168152602001600081526020018481526020018360ff1681526020016001151581526020016005805490508152509050600581908060018154018082558091505060019003906000526020600020906007020160009091909190915060008201518160000160006101000a81548173ffffffffffffffffffffffffffffffffffffffff021916908373ffffffffffffffffffffffffffffffffffffffff1602179055506020820151816001015560408201518160020160006101000a81548173ffffffffffffffffffffffffffffffffffffffff021916908373ffffffffffffffffffffffffffffffffffffffff160217905550606082015181600301556080820151816004015560a08201518160050160006101000a81548160ff021916908360ff16021790555060c08201518160050160016101000a81548160ff02191690831515021790555060e0820151816006015550507f20c3f797b9c7476a4beb5a93f1743a0a793b6c4b04e8f035a97bb644668d534a60405160405180910390a1505050565b60006004811115610dc057610dbf61201b565b5b600360099054906101000a900460ff166004811115610de257610de161201b565b5b14610dec57600080fd5b3373ffffffffffffffffffffffffffffffffffffffff1660058381548110610e1757610e166124cc565b5b906000526020600020906007020160020160009054906101000a900473ffffffffffffffffffffffffffffffffffffffff1673ffffffffffffffffffffffffffffffffffffffff1614610e6957600080fd5b8060058381548110610e7e57610e7d6124cc565b5b906000526020600020906007020160040181905550600160058381548110610ea957610ea86124cc565b5b906000526020600020906007020160050160016101000a81548160ff0219169083151502179055507f20c3f797b9c7476a4beb5a93f1743a0a793b6c4b04e8f035a97bb644668d534a60405160405180910390a15050565b7f000000000000000000000000000000000000000000000000000000000000000073ffffffffffffffffffffffffffffffffffffffff163373ffffffffffffffffffffffffffffffffffffffff161480610fa657507f000000000000000000000000000000000000000000000000000000000000000073ffffffffffffffffffffffffffffffffffffffff163373ffffffffffffffffffffffffffffffffffffffff16145b610fe5576040517f08c379a0000000000000000000000000000000000000000000000000000000008152600401610fdc90612420565b60405180910390fd5b7f000000000000000000000000000000000000000000000000000000000000000073ffffffffffffffffffffffffffffffffffffffff163373ffffffffffffffffffffffffffffffffffffffff16036110bc576001600481111561104c5761104b61201b565b5b600360099054906101000a900460ff16600481111561106e5761106d61201b565b5b14801561107c575060015442115b6110bb576040517f08c379a00000000000000000000000000000000000000000000000000000000081526004016110b29061256d565b60405180910390fd5b5b60005b60058054905081101561173a576000600582815481106110e2576110e16124cc565b5b90600052602060002090600702016003015460058381548110611108576111076124cc565b5b906000526020600020906007020160010154611124919061246f565b9050600360089054906101000a900460ff1660ff166005838154811061114d5761114c6124cc565b5b906000526020600020906007020160050160009054906101000a900460ff1660ff16036112a75780600460006005858154811061118d5761118c6124cc565b5b906000526020600020906007020160020160009054906101000a900473ffffffffffffffffffffffffffffffffffffffff1673ffffffffffffffffffffffffffffffffffffffff1673ffffffffffffffffffffffffffffffffffffffff1681526020019081526020016000206000828254611208919061246f565b9250508190555060058281548110611223576112226124cc565b5b906000526020600020906007020160020160009054906101000a900473ffffffffffffffffffffffffffffffffffffffff1673ffffffffffffffffffffffffffffffffffffffff167f67b3d24295657563da706484ee33c9099bc2aaff80d6a7fe5af32709f4bcea058260405161129a9190611c78565b60405180910390a2611726565b6001600360089054906101000a900460ff166112c3919061258d565b60ff16600583815481106112da576112d96124cc565b5b906000526020600020906007020160050160009054906101000a900460ff1660ff16036114345780600460006005858154811061131a576113196124cc565b5b906000526020600020906007020160000160009054906101000a900473ffffffffffffffffffffffffffffffffffffffff1673ffffffffffffffffffffffffffffffffffffffff1673ffffffffffffffffffffffffffffffffffffffff1681526020019081526020016000206000828254611395919061246f565b92505081905550600582815481106113b0576113af6124cc565b5b906000526020600020906007020160000160009054906101000a900473ffffffffffffffffffffffffffffffffffffffff1673ffffffffffffffffffffffffffffffffffffffff167f67b3d24295657563da706484ee33c9099bc2aaff80d6a7fe5af32709f4bcea05826040516114279190611c78565b60405180910390a2611725565b60058281548110611448576114476124cc565b5b9060005260206000209060070201600101546004600060058581548110611472576114716124cc565b5b906000526020600020906007020160000160009054906101000a900473ffffffffffffffffffffffffffffffffffffffff1673ffffffffffffffffffffffffffffffffffffffff1673ffffffffffffffffffffffffffffffffffffffff16815260200190815260200160002060008282546114ed919061246f565b9250508190555060058281548110611508576115076124cc565b5b9060005260206000209060070201600301546004600060058581548110611532576115316124cc565b5b906000526020600020906007020160020160009054906101000a900473ffffffffffffffffffffffffffffffffffffffff1673ffffffffffffffffffffffffffffffffffffffff1673ffffffffffffffffffffffffffffffffffffffff16815260200190815260200160002060008282546115ad919061246f565b92505081905550600582815481106115c8576115c76124cc565b5b906000526020600020906007020160000160009054906101000a900473ffffffffffffffffffffffffffffffffffffffff1673ffffffffffffffffffffffffffffffffffffffff167f67b3d24295657563da706484ee33c9099bc2aaff80d6a7fe5af32709f4bcea0560058481548110611645576116446124cc565b5b9060005260206000209060070201600101546040516116649190611c78565b60405180910390a2600582815481106116805761167f6124cc565b5b906000526020600020906007020160020160009054906101000a900473ffffffffffffffffffffffffffffffffffffffff1673ffffffffffffffffffffffffffffffffffffffff167f67b3d24295657563da706484ee33c9099bc2aaff80d6a7fe5af32709f4bcea05600584815481106116fd576116fc6124cc565b5b90600052602060002090600702016003015460405161171c9190611c78565b60405180910390a25b5b508080611732906125c2565b9150506110bf565b506004600360096101000a81548160ff021916908360048111156117615761176061201b565b5b02179055507f977cc9372b76a1e9fafbf8d4c4e67963bcd3d54b80c7356f7b950c4312a1f81160405160405180910390a1565b60005b815181101561193d5760008282815181106117b5576117b46124cc565b5b602002602001015190503373ffffffffffffffffffffffffffffffffffffffff16600582815481106117ea576117e96124cc565b5b906000526020600020906007020160020160009054906101000a900473ffffffffffffffffffffffffffffffffffffffff1673ffffffffffffffffffffffffffffffffffffffff1614611872576040517f08c379a000000000000000000000000000000000000000000000000000000000815260040161186990612656565b60405180910390fd5b600115156005828154811061188a576118896124cc565b5b906000526020600020906007020160050160019054906101000a900460ff161515146118eb576040517f08c379a00000000000000000000000000000000000000000000000000000000081526004016118e2906126c2565b60405180910390fd5b600060058281548110611901576119006124cc565b5b906000526020600020906007020160050160016101000a81548160ff021916908315150217905550508080611935906125c2565b915050611797565b507f20c3f797b9c7476a4beb5a93f1743a0a793b6c4b04e8f035a97bb644668d534a60405160405180910390a150565b600360089054906101000a900460ff1681565b600060048111156119945761199361201b565b5b600360099054906101000a900460ff1660048111156119b6576119b561201b565b5b146119c057600080fd5b600581815481106119d4576119d36124cc565b5b90600052602060002090600702016004015434146119f157600080fd5b6001151560058281548110611a0957611a086124cc565b5b906000526020600020906007020160050160019054906101000a900460ff16151514611a3457600080fd5b600060058281548110611a4a57611a496124cc565b5b90600052602060002090600702016003015403611aa2573460058281548110611a7657611a756124cc565b5b90600052602060002090600702016003016000828254611a96919061246f565b92505081905550611b3e565b346004600060058481548110611abb57611aba6124cc565b5b906000526020600020906007020160020160009054906101000a900473ffffffffffffffffffffffffffffffffffffffff1673ffffffffffffffffffffffffffffffffffffffff1673ffffffffffffffffffffffffffffffffffffffff1681526020019081526020016000206000828254611b36919061246f565b925050819055505b3360058281548110611b5357611b526124cc565b5b906000526020600020906007020160020160006101000a81548173ffffffffffffffffffffffffffffffffffffffff021916908373ffffffffffffffffffffffffffffffffffffffff160217905550600060058281548110611bb857611bb76124cc565b5b906000526020600020906007020160050160016101000a81548160ff0219169083151502179055507f20c3f797b9c7476a4beb5a93f1743a0a793b6c4b04e8f035a97bb644668d534a60405160405180910390a150565b600260005403611c4b576040517f3ee5aeb500000000000000000000000000000000000000000000000000000000815260040160405180910390fd5b6002600081905550565b6001600081905550565b6000819050919050565b611c7281611c5f565b82525050565b6000602082019050611c8d6000830184611c69565b92915050565b6000604051905090565b600080fd5b600080fd5b600060ff82169050919050565b611cbd81611ca7565b8114611cc857600080fd5b50565b600081359050611cda81611cb4565b92915050565b600060208284031215611cf657611cf5611c9d565b5b6000611d0484828501611ccb565b91505092915050565b611d1681611c5f565b8114611d2157600080fd5b50565b600081359050611d3381611d0d565b92915050565b600060208284031215611d4f57611d4e611c9d565b5b6000611d5d84828501611d24565b91505092915050565b600073ffffffffffffffffffffffffffffffffffffffff82169050919050565b6000611d9182611d66565b9050919050565b611da181611d86565b82525050565b611db081611ca7565b82525050565b60008115159050919050565b611dcb81611db6565b82525050565b600061010082019050611de7600083018b611d98565b611df4602083018a611c69565b611e016040830189611d98565b611e0e6060830188611c69565b611e1b6080830187611c69565b611e2860a0830186611da7565b611e3560c0830185611dc2565b611e4260e0830184611c69565b9998505050505050505050565b600067ffffffffffffffff82169050919050565b611e6c81611e4f565b82525050565b6000602082019050611e876000830184611e63565b92915050565b600081519050919050565b600082825260208201905092915050565b6000819050602082019050919050565b611ec281611d86565b82525050565b611ed181611c5f565b82525050565b611ee081611ca7565b82525050565b611eef81611db6565b82525050565b61010082016000820151611f0c6000850182611eb9565b506020820151611f1f6020850182611ec8565b506040820151611f326040850182611eb9565b506060820151611f456060850182611ec8565b506080820151611f586080850182611ec8565b5060a0820151611f6b60a0850182611ed7565b5060c0820151611f7e60c0850182611ee6565b5060e0820151611f9160e0850182611ec8565b50505050565b6000611fa38383611ef5565b6101008301905092915050565b6000602082019050919050565b6000611fc882611e8d565b611fd28185611e98565b9350611fdd83611ea9565b8060005b8381101561200e578151611ff58882611f97565b975061200083611fb0565b925050600181019050611fe1565b5085935050505092915050565b7f4e487b7100000000000000000000000000000000000000000000000000000000600052602160045260246000fd5b6005811061205b5761205a61201b565b5b50565b600081905061206c8261204a565b919050565b600061207c8261205e565b9050919050565b61208c81612071565b82525050565b600060a08201905081810360008301526120ac8188611fbd565b90506120bb6020830187611c69565b6120c86040830186611c69565b6120d56060830185611da7565b6120e26080830184612083565b9695505050505050565b6120f581611d86565b811461210057600080fd5b50565b600081359050612112816120ec565b92915050565b60006020828403121561212e5761212d611c9d565b5b600061213c84828501612103565b91505092915050565b600060208201905061215a6000830184611dc2565b92915050565b6000806040838503121561217757612176611c9d565b5b600061218585828601611d24565b925050602061219685828601611ccb565b9150509250929050565b600080604083850312156121b7576121b6611c9d565b5b60006121c585828601611d24565b92505060206121d685828601611d24565b9150509250929050565b600080fd5b6000601f19601f8301169050919050565b7f4e487b7100000000000000000000000000000000000000000000000000000000600052604160045260246000fd5b61222e826121e5565b810181811067ffffffffffffffff8211171561224d5761224c6121f6565b5b80604052505050565b6000612260611c93565b905061226c8282612225565b919050565b600067ffffffffffffffff82111561228c5761228b6121f6565b5b602082029050602081019050919050565b600080fd5b60006122b56122b084612271565b612256565b905080838252602082019050602084028301858111156122d8576122d761229d565b5b835b8181101561230157806122ed8882611d24565b8452602084019350506020810190506122da565b5050509392505050565b600082601f8301126123205761231f6121e0565b5b81356123308482602086016122a2565b91505092915050565b60006020828403121561234f5761234e611c9d565b5b600082013567ffffffffffffffff81111561236d5761236c611ca2565b5b6123798482850161230b565b91505092915050565b60006020820190506123976000830184611da7565b92915050565b600082825260208201905092915050565b7f4f6e6c7920746865206f776e65722063616e2063616c6c20746869732066756e60008201527f6374696f6e2e0000000000000000000000000000000000000000000000000000602082015250565b600061240a60268361239d565b9150612415826123ae565b604082019050919050565b60006020820190508181036000830152612439816123fd565b9050919050565b7f4e487b7100000000000000000000000000000000000000000000000000000000600052601160045260246000fd5b600061247a82611c5f565b915061248583611c5f565b925082820190508082111561249d5761249c612440565b5b92915050565b60006040820190506124b86000830185611da7565b6124c56020830184611c69565b9392505050565b7f4e487b7100000000000000000000000000000000000000000000000000000000600052603260045260246000fd5b7f526564656d7074696f6e206973206e6f7420616c6c6f7765642061742074686960008201527f732074696d652e00000000000000000000000000000000000000000000000000602082015250565b600061255760278361239d565b9150612562826124fb565b604082019050919050565b600060208201905081810360008301526125868161254a565b9050919050565b600061259882611ca7565b91506125a383611ca7565b9250828201905060ff8111156125bc576125bb612440565b5b92915050565b60006125cd82611c5f565b91507fffffffffffffffffffffffffffffffffffffffffffffffffffffffffffffffff82036125ff576125fe612440565b5b600182019050919050565b7f43616c6c6572206973206e6f7420746865206f776e6572000000000000000000600082015250565b600061264060178361239d565b915061264b8261260a565b602082019050919050565b6000602082019050818103600083015261266f81612633565b9050919050565b7f426574206973206e6f7420666f722073616c6500000000000000000000000000600082015250565b60006126ac60138361239d565b91506126b782612676565b602082019050919050565b600060208201905081810360008301526126db8161269f565b905091905056fea2646970667358221220a5b0daa8d15d73c5def24d3e1c77fe68eaa833b63a2433d56d795dafb363204d64736f6c63430008140033",
  "linkReferences": {},
  "deployedLinkReferences": {}
}