{
  "_format": "hh-sol-artifact-1",
  "contractName": "predMarket2",
  "sourceName": "contracts/LockV2.sol",
  "abi": [
    {
      "inputs": [
        {
          "internalType": "uint256",
          "name": "_endTime",
          "type": "uint256"
        }
      ],
      "stateMutability": "payable",
      "type": "constructor"
    },
    {
      "inputs": [],
      "name": "ReentrancyGuardReentrantCall",
      "type": "error"
    },
    {
      "anonymous": false,
      "inputs": [
        {
          "indexed": true,
          "internalType": "uint256",
          "name": "positionOfArray",
          "type": "uint256"
        }
      ],
      "name": "BetUnlisted",
      "type": "event"
    },
    {
      "anonymous": false,
      "inputs": [
        {
          "indexed": true,
          "internalType": "address",
          "name": "beneficiary",
          "type": "address"
        },
        {
          "indexed": false,
          "internalType": "uint256",
          "name": "amount",
          "type": "uint256"
        }
      ],
      "name": "FundsRedistributed",
      "type": "event"
    },
    {
      "anonymous": false,
      "inputs": [],
      "name": "PayoutProcessed",
      "type": "event"
    },
    {
      "anonymous": false,
      "inputs": [
        {
          "indexed": false,
          "internalType": "uint256",
          "name": "timeStamp",
          "type": "uint256"
        }
      ],
      "name": "contractDeployed",
      "type": "event"
    },
    {
      "anonymous": false,
      "inputs": [],
      "name": "newBetOffered",
      "type": "event"
    },
    {
      "anonymous": false,
      "inputs": [],
      "name": "shithappened",
      "type": "event"
    },
    {
      "anonymous": false,
      "inputs": [],
      "name": "underReview",
      "type": "event"
    },
    {
      "anonymous": false,
      "inputs": [
        {
          "indexed": true,
          "internalType": "address",
          "name": "sender",
          "type": "address"
        },
        {
          "indexed": false,
          "internalType": "uint256",
          "name": "betPlacedValue",
          "type": "uint256"
        }
      ],
      "name": "userPlacedBet",
      "type": "event"
    },
    {
      "anonymous": false,
      "inputs": [
        {
          "indexed": true,
          "internalType": "address",
          "name": "sender",
          "type": "address"
        },
        {
          "indexed": false,
          "internalType": "uint256",
          "name": "betReduced",
          "type": "uint256"
        }
      ],
      "name": "userReducedBet",
      "type": "event"
    },
    {
      "anonymous": false,
      "inputs": [
        {
          "indexed": true,
          "internalType": "address",
          "name": "sender",
          "type": "address"
        },
        {
          "indexed": false,
          "internalType": "string",
          "name": "betAorB",
          "type": "string"
        }
      ],
      "name": "userWithdrewBet",
      "type": "event"
    },
    {
      "anonymous": false,
      "inputs": [
        {
          "indexed": false,
          "internalType": "uint8",
          "name": "winnerIs",
          "type": "uint8"
        },
        {
          "indexed": false,
          "internalType": "uint256",
          "name": "endedAtTime",
          "type": "uint256"
        }
      ],
      "name": "winnerDeclaredVoting",
      "type": "event"
    },
    {
      "anonymous": false,
      "inputs": [
        {
          "indexed": false,
          "internalType": "uint8",
          "name": "winnerIs",
          "type": "uint8"
        }
      ],
      "name": "winnerFinalized",
      "type": "event"
    },
    {
      "inputs": [],
      "name": "allBets_Balance",
      "outputs": [
        {
          "components": [
            {
              "internalType": "address",
              "name": "deployer",
              "type": "address"
            },
            {
              "internalType": "uint256",
              "name": "amountDeployerLocked",
              "type": "uint256"
            },
            {
              "internalType": "address",
              "name": "owner",
              "type": "address"
            },
            {
              "internalType": "uint256",
              "name": "amountBuyerLocked",
              "type": "uint256"
            },
            {
              "internalType": "uint256",
              "name": "amountToBuyFor",
              "type": "uint256"
            },
            {
              "internalType": "uint8",
              "name": "conditionForBuyerToWin",
              "type": "uint8"
            },
            {
              "internalType": "bool",
              "name": "selling",
              "type": "bool"
            },
            {
              "internalType": "uint256",
              "name": "positionInArray",
              "type": "uint256"
            }
          ],
          "internalType": "struct predMarket2.bet[]",
          "name": "",
          "type": "tuple[]"
        },
        {
          "internalType": "uint256",
          "name": "",
          "type": "uint256"
        },
        {
          "internalType": "uint256",
          "name": "",
          "type": "uint256"
        },
        {
          "internalType": "uint8",
          "name": "",
          "type": "uint8"
        },
        {
          "internalType": "enum predMarket2.RaffleState",
          "name": "",
          "type": "uint8"
        }
      ],
      "stateMutability": "view",
      "type": "function"
    },
    {
      "inputs": [
        {
          "internalType": "uint256",
          "name": "",
          "type": "uint256"
        }
      ],
      "name": "arrayOfBets",
      "outputs": [
        {
          "internalType": "address",
          "name": "deployer",
          "type": "address"
        },
        {
          "internalType": "uint256",
          "name": "amountDeployerLocked",
          "type": "uint256"
        },
        {
          "internalType": "address",
          "name": "owner",
          "type": "address"
        },
        {
          "internalType": "uint256",
          "name": "amountBuyerLocked",
          "type": "uint256"
        },
        {
          "internalType": "uint256",
          "name": "amountToBuyFor",
          "type": "uint256"
        },
        {
          "internalType": "uint8",
          "name": "conditionForBuyerToWin",
          "type": "uint8"
        },
        {
          "internalType": "bool",
          "name": "selling",
          "type": "bool"
        },
        {
          "internalType": "uint256",
          "name": "positionInArray",
          "type": "uint256"
        }
      ],
      "stateMutability": "view",
      "type": "function"
    },
    {
      "inputs": [
        {
          "internalType": "address",
          "name": "",
          "type": "address"
        }
      ],
      "name": "betterBalance",
      "outputs": [
        {
          "internalType": "uint256",
          "name": "",
          "type": "uint256"
        }
      ],
      "stateMutability": "view",
      "type": "function"
    },
    {
      "inputs": [
        {
          "internalType": "uint256",
          "name": "positionOfArray",
          "type": "uint256"
        }
      ],
      "name": "buyABet",
      "outputs": [],
      "stateMutability": "payable",
      "type": "function"
    },
    {
      "inputs": [
        {
          "internalType": "uint8",
          "name": "_winner",
          "type": "uint8"
        }
      ],
      "name": "declareWinner",
      "outputs": [],
      "stateMutability": "nonpayable",
      "type": "function"
    },
    {
      "inputs": [],
      "name": "disagreeWithOwner",
      "outputs": [],
      "stateMutability": "payable",
      "type": "function"
    },
    {
      "inputs": [],
      "name": "endOfVoting",
      "outputs": [
        {
          "internalType": "uint256",
          "name": "",
          "type": "uint256"
        }
      ],
      "stateMutability": "view",
      "type": "function"
    },
    {
      "inputs": [],
      "name": "getBalance",
      "outputs": [
        {
          "internalType": "uint256",
          "name": "",
          "type": "uint256"
        }
      ],
      "stateMutability": "view",
      "type": "function"
    },
    {
      "inputs": [],
      "name": "isOwner",
      "outputs": [
        {
          "internalType": "bool",
          "name": "",
          "type": "bool"
        }
      ],
      "stateMutability": "view",
      "type": "function"
    },
    {
      "inputs": [],
      "name": "payment",
      "outputs": [
        {
          "internalType": "uint64",
          "name": "",
          "type": "uint64"
        }
      ],
      "stateMutability": "view",
      "type": "function"
    },
    {
      "inputs": [],
      "name": "redeemBets",
      "outputs": [],
      "stateMutability": "nonpayable",
      "type": "function"
    },
    {
      "inputs": [
        {
          "internalType": "uint256",
          "name": "amountToBuy",
          "type": "uint256"
        },
        {
          "internalType": "uint8",
          "name": "conditionToWIn",
          "type": "uint8"
        }
      ],
      "name": "sellANewBet",
      "outputs": [],
      "stateMutability": "payable",
      "type": "function"
    },
    {
      "inputs": [
        {
          "internalType": "uint256",
          "name": "positionOfArray",
          "type": "uint256"
        },
        {
          "internalType": "uint256",
          "name": "newAskingPrice",
          "type": "uint256"
        }
      ],
      "name": "sellAnExistingBet",
      "outputs": [],
      "stateMutability": "nonpayable",
      "type": "function"
    },
    {
      "inputs": [
        {
          "internalType": "uint256[]",
          "name": "positionsOfArray",
          "type": "uint256[]"
        }
      ],
      "name": "unlistBets",
      "outputs": [],
      "stateMutability": "nonpayable",
      "type": "function"
    },
    {
      "inputs": [],
      "name": "winner",
      "outputs": [
        {
          "internalType": "uint8",
          "name": "",
          "type": "uint8"
        }
      ],
      "stateMutability": "view",
      "type": "function"
    },
    {
      "inputs": [],
      "name": "withdraw",
      "outputs": [],
      "stateMutability": "nonpayable",
      "type": "function"
    }
  ],
  "bytecode": "0x60c060405273f39fd6e51aad88f6f4ce6ab8827279cfffb9226673ffffffffffffffffffffffffffffffffffffffff1660a09073ffffffffffffffffffffffffffffffffffffffff1681525066b1a2bc2ec50000600360006101000a81548167ffffffffffffffff021916908367ffffffffffffffff160217905550604051620027ac380380620027ac8339818101604052810190620000a09190620001a4565b600160008190555066b1a2bc2ec500003414620000f4576040517f08c379a0000000000000000000000000000000000000000000000000000000008152600401620000eb906200025d565b60405180910390fd5b3373ffffffffffffffffffffffffffffffffffffffff1660808173ffffffffffffffffffffffffffffffffffffffff1681525050806002819055506000600360096101000a81548160ff021916908360048111156200015857620001576200027f565b5b021790555050620002ae565b600080fd5b6000819050919050565b6200017e8162000169565b81146200018a57600080fd5b50565b6000815190506200019e8162000173565b92915050565b600060208284031215620001bd57620001bc62000164565b5b6000620001cd848285016200018d565b91505092915050565b600082825260208201905092915050565b7f4465706c6f796d656e742072657175697265732065786163746c7920302e303560008201527f2045746865720000000000000000000000000000000000000000000000000000602082015250565b600062000245602683620001d6565b91506200025282620001e7565b604082019050919050565b60006020820190508181036000830152620002788162000236565b9050919050565b7f4e487b7100000000000000000000000000000000000000000000000000000000600052602160045260246000fd5b60805160a0516124ca620002e26000396000610978015260008181610374015281816109230152610d5f01526124ca6000f3fe6080604052600436106100f35760003560e01c8063860273221161008a578063b8cd837411610059578063b8cd8374146102e3578063d38399ec146102fa578063dfbf53ae14610323578063ee9891f11461034e576100f3565b806386027322146102365780638f32d59b146102735780639651b1831461029e578063a6c69ffe146102ba576100f3565b806342f6487a116100c657806342f6487a146101a75780636afedac5146101d25780637672ef7b146102015780637e8873321461020b576100f3565b806312065fe0146100f85780631798b2ae146101235780633658957e1461014c5780633ccfd60b14610190575b600080fd5b34801561010457600080fd5b5061010d61036a565b60405161011a9190611a2a565b60405180910390f35b34801561012f57600080fd5b5061014a60048036038101906101459190611a92565b610372565b005b34801561015857600080fd5b50610173600480360381019061016e9190611aeb565b6104fa565b604051610187989796959493929190611b83565b60405180910390f35b34801561019c57600080fd5b506101a56105ac565b005b3480156101b357600080fd5b506101bc610644565b6040516101c99190611c24565b60405180910390f35b3480156101de57600080fd5b506101e761065e565b6040516101f8959493929190611e44565b60405180910390f35b610209610848565b005b34801561021757600080fd5b50610220610901565b60405161022d9190611a2a565b60405180910390f35b34801561024257600080fd5b5061025d60048036038101906102589190611eca565b610907565b60405161026a9190611a2a565b60405180910390f35b34801561027f57600080fd5b5061028861091f565b6040516102959190611ef7565b60405180910390f35b6102b860048036038101906102b39190611f12565b6109dc565b005b3480156102c657600080fd5b506102e160048036038101906102dc9190611f52565b610c08565b005b3480156102ef57600080fd5b506102f8610d5d565b005b34801561030657600080fd5b50610321600480360381019061031c91906120eb565b611546565b005b34801561032f57600080fd5b5061033861171f565b6040516103459190612134565b60405180910390f35b61036860048036038101906103639190611aeb565b611732565b005b600047905090565b7f000000000000000000000000000000000000000000000000000000000000000073ffffffffffffffffffffffffffffffffffffffff163373ffffffffffffffffffffffffffffffffffffffff1614610400576040517f08c379a00000000000000000000000000000000000000000000000000000000081526004016103f7906121d2565b60405180910390fd5b6000600481111561041457610413611dcd565b5b600360099054906101000a900460ff16600481111561043657610435611dcd565b5b1461044057600080fd5b6000429050806001819055506001600360096101000a81548160ff0219169083600481111561047257610471611dcd565b5b021790555081600360086101000a81548160ff021916908360ff1602179055507f929490df01efaa939914f3c800fca2faec5518e6da20283d3f9909fd8cc39c1682826040516104c39291906121f2565b60405180910390a16001600360096101000a81548160ff021916908360048111156104f1576104f0611dcd565b5b02179055505050565b6005818154811061050a57600080fd5b90600052602060002090600702016000915090508060000160009054906101000a900473ffffffffffffffffffffffffffffffffffffffff16908060010154908060020160009054906101000a900473ffffffffffffffffffffffffffffffffffffffff16908060030154908060040154908060050160009054906101000a900460ff16908060050160019054906101000a900460ff16908060060154905088565b6105b46119c1565b3373ffffffffffffffffffffffffffffffffffffffff166108fc600460003373ffffffffffffffffffffffffffffffffffffffff1673ffffffffffffffffffffffffffffffffffffffff168152602001908152602001600020549081150290604051600060405180830381858888f19350505050158015610639573d6000803e3d6000fd5b50610642611a07565b565b600360009054906101000a900467ffffffffffffffff1681565b60606000806000806000600460003373ffffffffffffffffffffffffffffffffffffffff1673ffffffffffffffffffffffffffffffffffffffff168152602001908152602001600020549050600581600254600360089054906101000a900460ff16600360099054906101000a900460ff1684805480602002602001604051908101604052809291908181526020016000905b828210156108305783829060005260206000209060070201604051806101000160405290816000820160009054906101000a900473ffffffffffffffffffffffffffffffffffffffff1673ffffffffffffffffffffffffffffffffffffffff1673ffffffffffffffffffffffffffffffffffffffff168152602001600182015481526020016002820160009054906101000a900473ffffffffffffffffffffffffffffffffffffffff1673ffffffffffffffffffffffffffffffffffffffff1673ffffffffffffffffffffffffffffffffffffffff16815260200160038201548152602001600482015481526020016005820160009054906101000a900460ff1660ff1660ff1681526020016005820160019054906101000a900460ff16151515158152602001600682015481525050815260200190600101906106f1565b50505050945095509550955095509550509091929394565b6001600481111561085c5761085b611dcd565b5b600360099054906101000a900460ff16600481111561087e5761087d611dcd565b5b111580156108cb57506001600481111561089b5761089a611dcd565b5b600360099054906101000a900460ff1660048111156108bd576108bc611dcd565b5b14806108ca575060025442115b5b6108d457600080fd5b6002600360096101000a81548160ff021916908360048111156108fa576108f9611dcd565b5b0217905550565b60015481565b60046020528060005260406000206000915090505481565b60007f000000000000000000000000000000000000000000000000000000000000000073ffffffffffffffffffffffffffffffffffffffff163373ffffffffffffffffffffffffffffffffffffffff1614806109c657507f000000000000000000000000000000000000000000000000000000000000000073ffffffffffffffffffffffffffffffffffffffff163373ffffffffffffffffffffffffffffffffffffffff16145b156109d457600190506109d9565b600090505b90565b60008160ff161180156109f3575060028160ff1611155b6109fc57600080fd5b60006004811115610a1057610a0f611dcd565b5b600360099054906101000a900460ff166004811115610a3257610a31611dcd565b5b14610a3c57600080fd5b60006040518061010001604052803373ffffffffffffffffffffffffffffffffffffffff1681526020013481526020013373ffffffffffffffffffffffffffffffffffffffff168152602001600081526020018481526020018360ff1681526020016001151581526020016005805490508152509050600581908060018154018082558091505060019003906000526020600020906007020160009091909190915060008201518160000160006101000a81548173ffffffffffffffffffffffffffffffffffffffff021916908373ffffffffffffffffffffffffffffffffffffffff1602179055506020820151816001015560408201518160020160006101000a81548173ffffffffffffffffffffffffffffffffffffffff021916908373ffffffffffffffffffffffffffffffffffffffff160217905550606082015181600301556080820151816004015560a08201518160050160006101000a81548160ff021916908360ff16021790555060c08201518160050160016101000a81548160ff02191690831515021790555060e0820151816006015550507f20c3f797b9c7476a4beb5a93f1743a0a793b6c4b04e8f035a97bb644668d534a60405160405180910390a1505050565b60006004811115610c1c57610c1b611dcd565b5b600360099054906101000a900460ff166004811115610c3e57610c3d611dcd565b5b14610c4857600080fd5b3373ffffffffffffffffffffffffffffffffffffffff1660058381548110610c7357610c7261221b565b5b906000526020600020906007020160020160009054906101000a900473ffffffffffffffffffffffffffffffffffffffff1673ffffffffffffffffffffffffffffffffffffffff1614610cc557600080fd5b8060058381548110610cda57610cd961221b565b5b906000526020600020906007020160040181905550600160058381548110610d0557610d0461221b565b5b906000526020600020906007020160050160016101000a81548160ff0219169083151502179055507f20c3f797b9c7476a4beb5a93f1743a0a793b6c4b04e8f035a97bb644668d534a60405160405180910390a15050565b7f000000000000000000000000000000000000000000000000000000000000000073ffffffffffffffffffffffffffffffffffffffff163373ffffffffffffffffffffffffffffffffffffffff1614610deb576040517f08c379a0000000000000000000000000000000000000000000000000000000008152600401610de2906121d2565b60405180910390fd5b60016004811115610dff57610dfe611dcd565b5b600360099054906101000a900460ff166004811115610e2157610e20611dcd565b5b148015610e2f575060015442115b610e6e576040517f08c379a0000000000000000000000000000000000000000000000000000000008152600401610e65906122bc565b60405180910390fd5b60005b6005805490508110156114ec57600060058281548110610e9457610e9361221b565b5b90600052602060002090600702016003015460058381548110610eba57610eb961221b565b5b906000526020600020906007020160010154610ed6919061230b565b9050600360089054906101000a900460ff1660ff1660058381548110610eff57610efe61221b565b5b906000526020600020906007020160050160009054906101000a900460ff1660ff160361105957806004600060058581548110610f3f57610f3e61221b565b5b906000526020600020906007020160020160009054906101000a900473ffffffffffffffffffffffffffffffffffffffff1673ffffffffffffffffffffffffffffffffffffffff1673ffffffffffffffffffffffffffffffffffffffff1681526020019081526020016000206000828254610fba919061230b565b9250508190555060058281548110610fd557610fd461221b565b5b906000526020600020906007020160020160009054906101000a900473ffffffffffffffffffffffffffffffffffffffff1673ffffffffffffffffffffffffffffffffffffffff167f67b3d24295657563da706484ee33c9099bc2aaff80d6a7fe5af32709f4bcea058260405161104c9190611a2a565b60405180910390a26114d8565b6001600360089054906101000a900460ff16611075919061233f565b60ff166005838154811061108c5761108b61221b565b5b906000526020600020906007020160050160009054906101000a900460ff1660ff16036111e6578060046000600585815481106110cc576110cb61221b565b5b906000526020600020906007020160000160009054906101000a900473ffffffffffffffffffffffffffffffffffffffff1673ffffffffffffffffffffffffffffffffffffffff1673ffffffffffffffffffffffffffffffffffffffff1681526020019081526020016000206000828254611147919061230b565b92505081905550600582815481106111625761116161221b565b5b906000526020600020906007020160000160009054906101000a900473ffffffffffffffffffffffffffffffffffffffff1673ffffffffffffffffffffffffffffffffffffffff167f67b3d24295657563da706484ee33c9099bc2aaff80d6a7fe5af32709f4bcea05826040516111d99190611a2a565b60405180910390a26114d7565b600582815481106111fa576111f961221b565b5b90600052602060002090600702016001015460046000600585815481106112245761122361221b565b5b906000526020600020906007020160000160009054906101000a900473ffffffffffffffffffffffffffffffffffffffff1673ffffffffffffffffffffffffffffffffffffffff1673ffffffffffffffffffffffffffffffffffffffff168152602001908152602001600020600082825461129f919061230b565b92505081905550600582815481106112ba576112b961221b565b5b90600052602060002090600702016003015460046000600585815481106112e4576112e361221b565b5b906000526020600020906007020160020160009054906101000a900473ffffffffffffffffffffffffffffffffffffffff1673ffffffffffffffffffffffffffffffffffffffff1673ffffffffffffffffffffffffffffffffffffffff168152602001908152602001600020600082825461135f919061230b565b925050819055506005828154811061137a5761137961221b565b5b906000526020600020906007020160000160009054906101000a900473ffffffffffffffffffffffffffffffffffffffff1673ffffffffffffffffffffffffffffffffffffffff167f67b3d24295657563da706484ee33c9099bc2aaff80d6a7fe5af32709f4bcea05600584815481106113f7576113f661221b565b5b9060005260206000209060070201600101546040516114169190611a2a565b60405180910390a2600582815481106114325761143161221b565b5b906000526020600020906007020160020160009054906101000a900473ffffffffffffffffffffffffffffffffffffffff1673ffffffffffffffffffffffffffffffffffffffff167f67b3d24295657563da706484ee33c9099bc2aaff80d6a7fe5af32709f4bcea05600584815481106114af576114ae61221b565b5b9060005260206000209060070201600301546040516114ce9190611a2a565b60405180910390a25b5b5080806114e490612374565b915050610e71565b506004600360096101000a81548160ff0219169083600481111561151357611512611dcd565b5b02179055507f977cc9372b76a1e9fafbf8d4c4e67963bcd3d54b80c7356f7b950c4312a1f81160405160405180910390a1565b60005b81518110156116ef5760008282815181106115675761156661221b565b5b602002602001015190503373ffffffffffffffffffffffffffffffffffffffff166005828154811061159c5761159b61221b565b5b906000526020600020906007020160020160009054906101000a900473ffffffffffffffffffffffffffffffffffffffff1673ffffffffffffffffffffffffffffffffffffffff1614611624576040517f08c379a000000000000000000000000000000000000000000000000000000000815260040161161b90612408565b60405180910390fd5b600115156005828154811061163c5761163b61221b565b5b906000526020600020906007020160050160019054906101000a900460ff1615151461169d576040517f08c379a000000000000000000000000000000000000000000000000000000000815260040161169490612474565b60405180910390fd5b6000600582815481106116b3576116b261221b565b5b906000526020600020906007020160050160016101000a81548160ff0219169083151502179055505080806116e790612374565b915050611549565b507f20c3f797b9c7476a4beb5a93f1743a0a793b6c4b04e8f035a97bb644668d534a60405160405180910390a150565b600360089054906101000a900460ff1681565b6000600481111561174657611745611dcd565b5b600360099054906101000a900460ff16600481111561176857611767611dcd565b5b1461177257600080fd5b600581815481106117865761178561221b565b5b90600052602060002090600702016004015434146117a357600080fd5b60011515600582815481106117bb576117ba61221b565b5b906000526020600020906007020160050160019054906101000a900460ff161515146117e657600080fd5b6000600582815481106117fc576117fb61221b565b5b906000526020600020906007020160030154036118545734600582815481106118285761182761221b565b5b90600052602060002090600702016003016000828254611848919061230b565b925050819055506118f0565b34600460006005848154811061186d5761186c61221b565b5b906000526020600020906007020160020160009054906101000a900473ffffffffffffffffffffffffffffffffffffffff1673ffffffffffffffffffffffffffffffffffffffff1673ffffffffffffffffffffffffffffffffffffffff16815260200190815260200160002060008282546118e8919061230b565b925050819055505b33600582815481106119055761190461221b565b5b906000526020600020906007020160020160006101000a81548173ffffffffffffffffffffffffffffffffffffffff021916908373ffffffffffffffffffffffffffffffffffffffff16021790555060006005828154811061196a5761196961221b565b5b906000526020600020906007020160050160016101000a81548160ff0219169083151502179055507f20c3f797b9c7476a4beb5a93f1743a0a793b6c4b04e8f035a97bb644668d534a60405160405180910390a150565b6002600054036119fd576040517f3ee5aeb500000000000000000000000000000000000000000000000000000000815260040160405180910390fd5b6002600081905550565b6001600081905550565b6000819050919050565b611a2481611a11565b82525050565b6000602082019050611a3f6000830184611a1b565b92915050565b6000604051905090565b600080fd5b600080fd5b600060ff82169050919050565b611a6f81611a59565b8114611a7a57600080fd5b50565b600081359050611a8c81611a66565b92915050565b600060208284031215611aa857611aa7611a4f565b5b6000611ab684828501611a7d565b91505092915050565b611ac881611a11565b8114611ad357600080fd5b50565b600081359050611ae581611abf565b92915050565b600060208284031215611b0157611b00611a4f565b5b6000611b0f84828501611ad6565b91505092915050565b600073ffffffffffffffffffffffffffffffffffffffff82169050919050565b6000611b4382611b18565b9050919050565b611b5381611b38565b82525050565b611b6281611a59565b82525050565b60008115159050919050565b611b7d81611b68565b82525050565b600061010082019050611b99600083018b611b4a565b611ba6602083018a611a1b565b611bb36040830189611b4a565b611bc06060830188611a1b565b611bcd6080830187611a1b565b611bda60a0830186611b59565b611be760c0830185611b74565b611bf460e0830184611a1b565b9998505050505050505050565b600067ffffffffffffffff82169050919050565b611c1e81611c01565b82525050565b6000602082019050611c396000830184611c15565b92915050565b600081519050919050565b600082825260208201905092915050565b6000819050602082019050919050565b611c7481611b38565b82525050565b611c8381611a11565b82525050565b611c9281611a59565b82525050565b611ca181611b68565b82525050565b61010082016000820151611cbe6000850182611c6b565b506020820151611cd16020850182611c7a565b506040820151611ce46040850182611c6b565b506060820151611cf76060850182611c7a565b506080820151611d0a6080850182611c7a565b5060a0820151611d1d60a0850182611c89565b5060c0820151611d3060c0850182611c98565b5060e0820151611d4360e0850182611c7a565b50505050565b6000611d558383611ca7565b6101008301905092915050565b6000602082019050919050565b6000611d7a82611c3f565b611d848185611c4a565b9350611d8f83611c5b565b8060005b83811015611dc0578151611da78882611d49565b9750611db283611d62565b925050600181019050611d93565b5085935050505092915050565b7f4e487b7100000000000000000000000000000000000000000000000000000000600052602160045260246000fd5b60058110611e0d57611e0c611dcd565b5b50565b6000819050611e1e82611dfc565b919050565b6000611e2e82611e10565b9050919050565b611e3e81611e23565b82525050565b600060a0820190508181036000830152611e5e8188611d6f565b9050611e6d6020830187611a1b565b611e7a6040830186611a1b565b611e876060830185611b59565b611e946080830184611e35565b9695505050505050565b611ea781611b38565b8114611eb257600080fd5b50565b600081359050611ec481611e9e565b92915050565b600060208284031215611ee057611edf611a4f565b5b6000611eee84828501611eb5565b91505092915050565b6000602082019050611f0c6000830184611b74565b92915050565b60008060408385031215611f2957611f28611a4f565b5b6000611f3785828601611ad6565b9250506020611f4885828601611a7d565b9150509250929050565b60008060408385031215611f6957611f68611a4f565b5b6000611f7785828601611ad6565b9250506020611f8885828601611ad6565b9150509250929050565b600080fd5b6000601f19601f8301169050919050565b7f4e487b7100000000000000000000000000000000000000000000000000000000600052604160045260246000fd5b611fe082611f97565b810181811067ffffffffffffffff82111715611fff57611ffe611fa8565b5b80604052505050565b6000612012611a45565b905061201e8282611fd7565b919050565b600067ffffffffffffffff82111561203e5761203d611fa8565b5b602082029050602081019050919050565b600080fd5b600061206761206284612023565b612008565b9050808382526020820190506020840283018581111561208a5761208961204f565b5b835b818110156120b3578061209f8882611ad6565b84526020840193505060208101905061208c565b5050509392505050565b600082601f8301126120d2576120d1611f92565b5b81356120e2848260208601612054565b91505092915050565b60006020828403121561210157612100611a4f565b5b600082013567ffffffffffffffff81111561211f5761211e611a54565b5b61212b848285016120bd565b91505092915050565b60006020820190506121496000830184611b59565b92915050565b600082825260208201905092915050565b7f4f6e6c7920746865206f776e65722063616e2063616c6c20746869732066756e60008201527f6374696f6e2e0000000000000000000000000000000000000000000000000000602082015250565b60006121bc60268361214f565b91506121c782612160565b604082019050919050565b600060208201905081810360008301526121eb816121af565b9050919050565b60006040820190506122076000830185611b59565b6122146020830184611a1b565b9392505050565b7f4e487b7100000000000000000000000000000000000000000000000000000000600052603260045260246000fd5b7f526564656d7074696f6e206973206e6f7420616c6c6f7765642061742074686960008201527f732074696d652e00000000000000000000000000000000000000000000000000602082015250565b60006122a660278361214f565b91506122b18261224a565b604082019050919050565b600060208201905081810360008301526122d581612299565b9050919050565b7f4e487b7100000000000000000000000000000000000000000000000000000000600052601160045260246000fd5b600061231682611a11565b915061232183611a11565b9250828201905080821115612339576123386122dc565b5b92915050565b600061234a82611a59565b915061235583611a59565b9250828201905060ff81111561236e5761236d6122dc565b5b92915050565b600061237f82611a11565b91507fffffffffffffffffffffffffffffffffffffffffffffffffffffffffffffffff82036123b1576123b06122dc565b5b600182019050919050565b7f43616c6c6572206973206e6f7420746865206f776e6572000000000000000000600082015250565b60006123f260178361214f565b91506123fd826123bc565b602082019050919050565b60006020820190508181036000830152612421816123e5565b9050919050565b7f426574206973206e6f7420666f722073616c6500000000000000000000000000600082015250565b600061245e60138361214f565b915061246982612428565b602082019050919050565b6000602082019050818103600083015261248d81612451565b905091905056fea2646970667358221220e9bb80dc8e0bcd7d52385985dfb3558bdafc09de7120fb0373c0d4de57e5bf5764736f6c63430008140033",
  "linkReferences": {},
  "deployedLinkReferences": {}
}