{
  "_format": "hh-sol-artifact-1",
  "contractName": "predMarket2",
  "sourceName": "contracts/LockV2.sol",
  "abi": [
    {
      "inputs": [
        {
          "internalType": "uint256",
          "name": "_endTime",
          "type": "uint256"
        }
      ],
      "stateMutability": "payable",
      "type": "constructor"
    },
    {
      "inputs": [],
      "name": "ReentrancyGuardReentrantCall",
      "type": "error"
    },
    {
      "anonymous": false,
      "inputs": [
        {
          "indexed": true,
          "internalType": "uint256",
          "name": "positionOfArray",
          "type": "uint256"
        }
      ],
      "name": "BetUnlisted",
      "type": "event"
    },
    {
      "anonymous": false,
      "inputs": [
        {
          "indexed": true,
          "internalType": "address",
          "name": "beneficiary",
          "type": "address"
        },
        {
          "indexed": false,
          "internalType": "uint256",
          "name": "amount",
          "type": "uint256"
        }
      ],
      "name": "FundsRedistributed",
      "type": "event"
    },
    {
      "anonymous": false,
      "inputs": [],
      "name": "PayoutProcessed",
      "type": "event"
    },
    {
      "anonymous": false,
      "inputs": [
        {
          "indexed": false,
          "internalType": "uint256",
          "name": "timeStamp",
          "type": "uint256"
        }
      ],
      "name": "contractDeployed",
      "type": "event"
    },
    {
      "anonymous": false,
      "inputs": [],
      "name": "newBetOffered",
      "type": "event"
    },
    {
      "anonymous": false,
      "inputs": [],
      "name": "shithappened",
      "type": "event"
    },
    {
      "anonymous": false,
      "inputs": [],
      "name": "underReview",
      "type": "event"
    },
    {
      "anonymous": false,
      "inputs": [
        {
          "indexed": true,
          "internalType": "address",
          "name": "sender",
          "type": "address"
        },
        {
          "indexed": false,
          "internalType": "uint256",
          "name": "betPlacedValue",
          "type": "uint256"
        }
      ],
      "name": "userPlacedBet",
      "type": "event"
    },
    {
      "anonymous": false,
      "inputs": [
        {
          "indexed": true,
          "internalType": "address",
          "name": "sender",
          "type": "address"
        },
        {
          "indexed": false,
          "internalType": "uint256",
          "name": "betReduced",
          "type": "uint256"
        }
      ],
      "name": "userReducedBet",
      "type": "event"
    },
    {
      "anonymous": false,
      "inputs": [],
      "name": "userVoted",
      "type": "event"
    },
    {
      "anonymous": false,
      "inputs": [
        {
          "indexed": true,
          "internalType": "address",
          "name": "sender",
          "type": "address"
        },
        {
          "indexed": false,
          "internalType": "string",
          "name": "betAorB",
          "type": "string"
        }
      ],
      "name": "userWithdrewBet",
      "type": "event"
    },
    {
      "anonymous": false,
      "inputs": [
        {
          "indexed": false,
          "internalType": "uint8",
          "name": "winnerIs",
          "type": "uint8"
        },
        {
          "indexed": false,
          "internalType": "uint256",
          "name": "endedAtTime",
          "type": "uint256"
        }
      ],
      "name": "winnerDeclaredVoting",
      "type": "event"
    },
    {
      "anonymous": false,
      "inputs": [
        {
          "indexed": false,
          "internalType": "uint8",
          "name": "winnerIs",
          "type": "uint8"
        }
      ],
      "name": "winnerDeclaredVotingStaff",
      "type": "event"
    },
    {
      "anonymous": false,
      "inputs": [
        {
          "indexed": false,
          "internalType": "uint8",
          "name": "winnerIs",
          "type": "uint8"
        }
      ],
      "name": "winnerFinalized",
      "type": "event"
    },
    {
      "inputs": [],
      "name": "allBets_Balance",
      "outputs": [
        {
          "components": [
            {
              "internalType": "address",
              "name": "deployer",
              "type": "address"
            },
            {
              "internalType": "uint256",
              "name": "amountDeployerLocked",
              "type": "uint256"
            },
            {
              "internalType": "address",
              "name": "owner",
              "type": "address"
            },
            {
              "internalType": "uint256",
              "name": "amountBuyerLocked",
              "type": "uint256"
            },
            {
              "internalType": "uint256",
              "name": "amountToBuyFor",
              "type": "uint256"
            },
            {
              "internalType": "uint8",
              "name": "conditionForBuyerToWin",
              "type": "uint8"
            },
            {
              "internalType": "bool",
              "name": "selling",
              "type": "bool"
            },
            {
              "internalType": "uint256",
              "name": "positionInArray",
              "type": "uint256"
            }
          ],
          "internalType": "struct predMarket2.bet[]",
          "name": "",
          "type": "tuple[]"
        },
        {
          "internalType": "uint256",
          "name": "",
          "type": "uint256"
        },
        {
          "internalType": "uint8",
          "name": "",
          "type": "uint8"
        },
        {
          "internalType": "enum predMarket2.RaffleState",
          "name": "",
          "type": "uint8"
        },
        {
          "internalType": "uint256",
          "name": "",
          "type": "uint256"
        },
        {
          "internalType": "uint256",
          "name": "",
          "type": "uint256"
        }
      ],
      "stateMutability": "view",
      "type": "function"
    },
    {
      "inputs": [
        {
          "internalType": "uint256",
          "name": "",
          "type": "uint256"
        }
      ],
      "name": "arrayOfBets",
      "outputs": [
        {
          "internalType": "address",
          "name": "deployer",
          "type": "address"
        },
        {
          "internalType": "uint256",
          "name": "amountDeployerLocked",
          "type": "uint256"
        },
        {
          "internalType": "address",
          "name": "owner",
          "type": "address"
        },
        {
          "internalType": "uint256",
          "name": "amountBuyerLocked",
          "type": "uint256"
        },
        {
          "internalType": "uint256",
          "name": "amountToBuyFor",
          "type": "uint256"
        },
        {
          "internalType": "uint8",
          "name": "conditionForBuyerToWin",
          "type": "uint8"
        },
        {
          "internalType": "bool",
          "name": "selling",
          "type": "bool"
        },
        {
          "internalType": "uint256",
          "name": "positionInArray",
          "type": "uint256"
        }
      ],
      "stateMutability": "view",
      "type": "function"
    },
    {
      "inputs": [
        {
          "internalType": "address",
          "name": "",
          "type": "address"
        },
        {
          "internalType": "uint256",
          "name": "",
          "type": "uint256"
        }
      ],
      "name": "betsByUser",
      "outputs": [
        {
          "internalType": "uint256",
          "name": "",
          "type": "uint256"
        }
      ],
      "stateMutability": "view",
      "type": "function"
    },
    {
      "inputs": [
        {
          "internalType": "uint256",
          "name": "positionOfArray",
          "type": "uint256"
        }
      ],
      "name": "buyABet",
      "outputs": [],
      "stateMutability": "payable",
      "type": "function"
    },
    {
      "inputs": [],
      "name": "creatorLocked",
      "outputs": [
        {
          "internalType": "uint256",
          "name": "",
          "type": "uint256"
        }
      ],
      "stateMutability": "view",
      "type": "function"
    },
    {
      "inputs": [
        {
          "internalType": "uint8",
          "name": "_winner",
          "type": "uint8"
        },
        {
          "internalType": "uint8",
          "name": "disagreeCorrect",
          "type": "uint8"
        }
      ],
      "name": "declareWinner",
      "outputs": [],
      "stateMutability": "nonpayable",
      "type": "function"
    },
    {
      "inputs": [],
      "name": "disagreeWithOwner",
      "outputs": [],
      "stateMutability": "payable",
      "type": "function"
    },
    {
      "inputs": [],
      "name": "disagreedUser",
      "outputs": [
        {
          "internalType": "address",
          "name": "",
          "type": "address"
        }
      ],
      "stateMutability": "view",
      "type": "function"
    },
    {
      "inputs": [],
      "name": "endOfVoting",
      "outputs": [
        {
          "internalType": "uint256",
          "name": "",
          "type": "uint256"
        }
      ],
      "stateMutability": "view",
      "type": "function"
    },
    {
      "inputs": [],
      "name": "isOwner",
      "outputs": [
        {
          "internalType": "bool",
          "name": "",
          "type": "bool"
        }
      ],
      "stateMutability": "view",
      "type": "function"
    },
    {
      "inputs": [],
      "name": "owner",
      "outputs": [
        {
          "internalType": "address",
          "name": "",
          "type": "address"
        }
      ],
      "stateMutability": "view",
      "type": "function"
    },
    {
      "inputs": [
        {
          "internalType": "uint256",
          "name": "amountToBuy",
          "type": "uint256"
        },
        {
          "internalType": "uint8",
          "name": "conditionToWIn",
          "type": "uint8"
        }
      ],
      "name": "sellANewBet",
      "outputs": [],
      "stateMutability": "payable",
      "type": "function"
    },
    {
      "inputs": [
        {
          "internalType": "uint256",
          "name": "positionOfArray",
          "type": "uint256"
        },
        {
          "internalType": "uint256",
          "name": "newAskingPrice",
          "type": "uint256"
        }
      ],
      "name": "sellAnExistingBet",
      "outputs": [],
      "stateMutability": "nonpayable",
      "type": "function"
    },
    {
      "inputs": [],
      "name": "transferOwnerAmount",
      "outputs": [],
      "stateMutability": "nonpayable",
      "type": "function"
    },
    {
      "inputs": [
        {
          "internalType": "uint256[]",
          "name": "positionsOfArray",
          "type": "uint256[]"
        }
      ],
      "name": "unlistBets",
      "outputs": [],
      "stateMutability": "nonpayable",
      "type": "function"
    },
    {
      "inputs": [],
      "name": "winner",
      "outputs": [
        {
          "internalType": "uint8",
          "name": "",
          "type": "uint8"
        }
      ],
      "stateMutability": "view",
      "type": "function"
    },
    {
      "inputs": [],
      "name": "withdraw",
      "outputs": [],
      "stateMutability": "nonpayable",
      "type": "function"
    }
  ],
  "bytecode": "0x60c060405273f39fd6e51aad88f6f4ce6ab8827279cfffb9226673ffffffffffffffffffffffffffffffffffffffff1660a09073ffffffffffffffffffffffffffffffffffffffff168152506040516200311b3803806200311b83398181016040528101906200007091906200012f565b6001600081905550346003819055503373ffffffffffffffffffffffffffffffffffffffff1660808173ffffffffffffffffffffffffffffffffffffffff1681525050806002819055506000600460156101000a81548160ff02191690836003811115620000e357620000e262000161565b5b02179055505062000190565b600080fd5b6000819050919050565b6200010981620000f4565b81146200011557600080fd5b50565b6000815190506200012981620000fe565b92915050565b600060208284031215620001485762000147620000ef565b5b6000620001588482850162000118565b91505092915050565b7f4e487b7100000000000000000000000000000000000000000000000000000000600052602160045260246000fd5b60805160a051612f34620001e76000396000818161041e015281816117630152611c2a0152600081816103c9015281816104d4015281816116e80152818161170e01528181611bd50152611d440152612f346000f3fe6080604052600436106100fe5760003560e01c80637e88733211610095578063a6c69ffe11610064578063a6c69ffe146102f1578063b4a36fd71461031a578063d38399ec14610331578063dfbf53ae1461035a578063ee9891f114610385576100fe565b80637e887332146102545780638da5cb5b1461027f5780638f32d59b146102aa5780639651b183146102d5576100fe565b80633ccfd60b116100d15780633ccfd60b146101c65780636afedac5146101dd5780637672ef7b1461020d5780637c54bafe14610217576100fe565b80631d4aa3c61461010357806322e5d0b71461012e57806330dda1c2146101575780633658957e14610182575b600080fd5b34801561010f57600080fd5b506101186103a1565b604051610125919061239e565b60405180910390f35b34801561013a57600080fd5b5061015560048036038101906101509190612406565b6103c7565b005b34801561016357600080fd5b5061016c610744565b604051610179919061245f565b60405180910390f35b34801561018e57600080fd5b506101a960048036038101906101a491906124a6565b61074a565b6040516101bd9897969594939291906124fd565b60405180910390f35b3480156101d257600080fd5b506101db6107fc565b005b3480156101e957600080fd5b506101f2610ee7565b60405161020496959493929190612780565b60405180910390f35b610215611510565b005b34801561022357600080fd5b5061023e60048036038101906102399190612814565b6116af565b60405161024b919061245f565b60405180910390f35b34801561026057600080fd5b506102696116e0565b604051610276919061245f565b60405180910390f35b34801561028b57600080fd5b506102946116e6565b6040516102a1919061239e565b60405180910390f35b3480156102b657600080fd5b506102bf61170a565b6040516102cc9190612854565b60405180910390f35b6102ef60048036038101906102ea919061286f565b6117c7565b005b3480156102fd57600080fd5b50610318600480360381019061031391906128af565b611a6e565b005b34801561032657600080fd5b5061032f611bd3565b005b34801561033d57600080fd5b5061035860048036038101906103539190612a48565b611db5565b005b34801561036657600080fd5b5061036f611f9e565b60405161037c9190612a91565b60405180910390f35b61039f600480360381019061039a91906124a6565b611fb1565b005b600460019054906101000a900473ffffffffffffffffffffffffffffffffffffffff1681565b7f000000000000000000000000000000000000000000000000000000000000000073ffffffffffffffffffffffffffffffffffffffff163373ffffffffffffffffffffffffffffffffffffffff16148061046c57507f000000000000000000000000000000000000000000000000000000000000000073ffffffffffffffffffffffffffffffffffffffff163373ffffffffffffffffffffffffffffffffffffffff16145b6104ab576040517f08c379a00000000000000000000000000000000000000000000000000000000081526004016104a290612b2f565b60405180910390fd5b6104b361230d565b60008260ff161180156104c9575060048260ff16105b6104d257600080fd5b7f000000000000000000000000000000000000000000000000000000000000000073ffffffffffffffffffffffffffffffffffffffff163373ffffffffffffffffffffffffffffffffffffffff1603610603576000600381111561053957610538612709565b5b600460159054906101000a900460ff16600381111561055b5761055a612709565b5b1461056557600080fd5b6000429050611c20816105789190612b7e565b6001819055506001600460156101000a81548160ff021916908360038111156105a4576105a3612709565b5b021790555082600460006101000a81548160ff021916908360ff1602179055507f929490df01efaa939914f3c800fca2faec5518e6da20283d3f9909fd8cc39c1683826040516105f5929190612bb2565b60405180910390a150610738565b6002600381111561061757610616612709565b5b600460159054906101000a900460ff16600381111561063957610638612709565b5b1461064357600080fd5b60018160ff16036106ba57600460019054906101000a900473ffffffffffffffffffffffffffffffffffffffff1673ffffffffffffffffffffffffffffffffffffffff166108fc6003549081150290604051600060405180830381858888f193505050501580156106b8573d6000803e3d6000fd5b505b81600460006101000a81548160ff021916908360ff1602179055507fb3f87315f0123ecf2fdec13e9ddeab075e99c82552eef4d8ee0da5b801d85282826040516107049190612a91565b60405180910390a16003600460156101000a81548160ff0219169083600381111561073257610731612709565b5b02179055505b610740612353565b5050565b60035481565b6006818154811061075a57600080fd5b90600052602060002090600702016000915090508060000160009054906101000a900473ffffffffffffffffffffffffffffffffffffffff16908060010154908060020160009054906101000a900473ffffffffffffffffffffffffffffffffffffffff16908060030154908060040154908060050160009054906101000a900460ff16908060050160019054906101000a900460ff16908060060154905088565b61080461230d565b60038081111561081757610816612709565b5b600460159054906101000a900460ff16600381111561083957610838612709565b5b148061088557506001600381111561085457610853612709565b5b600460159054906101000a900460ff16600381111561087657610875612709565b5b148015610884575060015442115b5b61088e57600080fd5b6000600560003373ffffffffffffffffffffffffffffffffffffffff1673ffffffffffffffffffffffffffffffffffffffff168152602001908152602001600020905060008180549050116108e257600080fd5b6000806003600460009054906101000a900460ff1660ff1603610ae35760005b8380549050811015610a5357600084828154811061092357610922612bdb565b5b9060005260206000200154905060006006828154811061094657610945612bdb565b5b906000526020600020906007020190503373ffffffffffffffffffffffffffffffffffffffff168160020160009054906101000a900473ffffffffffffffffffffffffffffffffffffffff1673ffffffffffffffffffffffffffffffffffffffff16036109ca578060030154856109bd9190612b7e565b9450600081600301819055505b3373ffffffffffffffffffffffffffffffffffffffff168160000160009054906101000a900473ffffffffffffffffffffffffffffffffffffffff1673ffffffffffffffffffffffffffffffffffffffff1603610a3e57806001015485610a319190612b7e565b9450600081600101819055505b50508080610a4b90612c0a565b915050610902565b5081471015610a97576040517f08c379a0000000000000000000000000000000000000000000000000000000008152600401610a8e90612cc4565b60405180910390fd5b3373ffffffffffffffffffffffffffffffffffffffff166108fc839081150290604051600060405180830381858888f19350505050158015610add573d6000803e3d6000fd5b50610eda565b60005b8380549050811015610dea576000848281548110610b0757610b06612bdb565b5b90600052602060002001549050600060068281548110610b2a57610b29612bdb565b5b906000526020600020906007020190503373ffffffffffffffffffffffffffffffffffffffff168160020160009054906101000a900473ffffffffffffffffffffffffffffffffffffffff1673ffffffffffffffffffffffffffffffffffffffff16148015610bbe5750600460009054906101000a900460ff1660ff168160050160009054906101000a900460ff1660ff16145b15610c1e5780600101548160030154610bd79190612b7e565b85610be29190612b7e565b945080600101548160030154610bf89190612b7e565b84610c039190612b7e565b93506000816003018190555060008160010181905550610dd5565b3373ffffffffffffffffffffffffffffffffffffffff168160000160009054906101000a900473ffffffffffffffffffffffffffffffffffffffff1673ffffffffffffffffffffffffffffffffffffffff16148015610ca35750600460009054906101000a900460ff1660ff168160050160009054906101000a900460ff1660ff1614155b15610d035780600101548160030154610cbc9190612b7e565b85610cc79190612b7e565b945080600101548160030154610cdd9190612b7e565b84610ce89190612b7e565b93506000816003018190555060008160010181905550610dd4565b3373ffffffffffffffffffffffffffffffffffffffff168160000160009054906101000a900473ffffffffffffffffffffffffffffffffffffffff1673ffffffffffffffffffffffffffffffffffffffff16148015610db157503373ffffffffffffffffffffffffffffffffffffffff168160020160009054906101000a900473ffffffffffffffffffffffffffffffffffffffff1673ffffffffffffffffffffffffffffffffffffffff16145b15610dd357806001015485610dc69190612b7e565b9450600081600101819055505b5b5b50508080610de290612c0a565b915050610ae6565b5060006064600383610dfc9190612ce4565b610e069190612d55565b83610e119190612d86565b90506000821115610e4e576064600383610e2b9190612ce4565b610e359190612d55565b60036000828254610e469190612b7e565b925050819055505b80471015610e91576040517f08c379a0000000000000000000000000000000000000000000000000000000008152600401610e8890612cc4565b60405180910390fd5b3373ffffffffffffffffffffffffffffffffffffffff166108fc829081150290604051600060405180830381858888f19350505050158015610ed7573d6000803e3d6000fd5b50505b505050610ee5612353565b565b6060600080600080600080600090506000806000600560003373ffffffffffffffffffffffffffffffffffffffff1673ffffffffffffffffffffffffffffffffffffffff16815260200190815260200160002090506000600460009054906101000a900460ff1660ff161115611369576003600460009054906101000a900460ff1660ff16036110b75760005b81805490508110156110b1576000828281548110610f9557610f94612bdb565b5b90600052602060002001549050600060068281548110610fb857610fb7612bdb565b5b906000526020600020906007020190503373ffffffffffffffffffffffffffffffffffffffff168160020160009054906101000a900473ffffffffffffffffffffffffffffffffffffffff1673ffffffffffffffffffffffffffffffffffffffff16036110325780600301548761102f9190612b7e565b96505b3373ffffffffffffffffffffffffffffffffffffffff168160000160009054906101000a900473ffffffffffffffffffffffffffffffffffffffff1673ffffffffffffffffffffffffffffffffffffffff160361109c578060010154876110999190612b7e565b96505b505080806110a990612c0a565b915050610f74565b50611368565b60005b81805490508110156113415760008282815481106110db576110da612bdb565b5b906000526020600020015490506000600682815481106110fe576110fd612bdb565b5b906000526020600020906007020190503373ffffffffffffffffffffffffffffffffffffffff168160020160009054906101000a900473ffffffffffffffffffffffffffffffffffffffff1673ffffffffffffffffffffffffffffffffffffffff161480156111925750600460009054906101000a900460ff1660ff168160050160009054906101000a900460ff1660ff16145b156111de57806001015481600301546111ab9190612b7e565b876111b69190612b7e565b9650806001015481600301546111cc9190612b7e565b866111d79190612b7e565b955061132c565b3373ffffffffffffffffffffffffffffffffffffffff168160000160009054906101000a900473ffffffffffffffffffffffffffffffffffffffff1673ffffffffffffffffffffffffffffffffffffffff161480156112635750600460009054906101000a900460ff1660ff168160050160009054906101000a900460ff1660ff1614155b156112af578060010154816003015461127c9190612b7e565b876112879190612b7e565b96508060010154816003015461129d9190612b7e565b866112a89190612b7e565b955061132b565b3373ffffffffffffffffffffffffffffffffffffffff168160000160009054906101000a900473ffffffffffffffffffffffffffffffffffffffff1673ffffffffffffffffffffffffffffffffffffffff16148015611312575060008160040154145b1561132a578060010154876113279190612b7e565b96505b5b5b5050808061133990612c0a565b9150506110ba565b50600083111561136757606460038461135a9190612ce4565b6113649190612d55565b91505b5b5b6006600254600460009054906101000a900460ff16600460159054906101000a900460ff166001548885805480602002602001604051908101604052809291908181526020016000905b828210156114f25783829060005260206000209060070201604051806101000160405290816000820160009054906101000a900473ffffffffffffffffffffffffffffffffffffffff1673ffffffffffffffffffffffffffffffffffffffff1673ffffffffffffffffffffffffffffffffffffffff168152602001600182015481526020016002820160009054906101000a900473ffffffffffffffffffffffffffffffffffffffff1673ffffffffffffffffffffffffffffffffffffffff1673ffffffffffffffffffffffffffffffffffffffff16815260200160038201548152602001600482015481526020016005820160009054906101000a900460ff1660ff1660ff1681526020016005820160019054906101000a900460ff16151515158152602001600682015481525050815260200190600101906113b3565b50505050955099509950995099509950995050505050909192939495565b61151861230d565b6001600381111561152c5761152b612709565b5b600460159054906101000a900460ff16600381111561154e5761154d612709565b5b14801561155c575060015442105b806115a757506000600381111561157657611575612709565b5b600460159054906101000a900460ff16600381111561159857611597612709565b5b1480156115a6575060025442115b5b6115e6576040517f08c379a00000000000000000000000000000000000000000000000000000000081526004016115dd90612e06565b60405180910390fd5b60035434146115f457600080fd5b33600460016101000a81548173ffffffffffffffffffffffffffffffffffffffff021916908373ffffffffffffffffffffffffffffffffffffffff1602179055506002600460156101000a81548160ff0219169083600381111561165b5761165a612709565b5b021790555034600360008282546116729190612b7e565b925050819055507f325941a5b65623f14f777a10c4ee68b69cec6214a44a48c1bb1c4991314755c060405160405180910390a16116ad612353565b565b600560205281600052604060002081815481106116cb57600080fd5b90600052602060002001600091509150505481565b60015481565b7f000000000000000000000000000000000000000000000000000000000000000081565b60007f000000000000000000000000000000000000000000000000000000000000000073ffffffffffffffffffffffffffffffffffffffff163373ffffffffffffffffffffffffffffffffffffffff1614806117b157507f000000000000000000000000000000000000000000000000000000000000000073ffffffffffffffffffffffffffffffffffffffff163373ffffffffffffffffffffffffffffffffffffffff16145b156117bf57600190506117c4565b600090505b90565b6117cf61230d565b60008160ff161180156117e6575060028160ff1611155b6117ef57600080fd5b6000600381111561180357611802612709565b5b600460159054906101000a900460ff16600381111561182557611824612709565b5b1461182f57600080fd5b60006040518061010001604052803373ffffffffffffffffffffffffffffffffffffffff1681526020013481526020013373ffffffffffffffffffffffffffffffffffffffff168152602001600081526020018481526020018360ff1681526020016001151581526020016006805490508152509050600560003373ffffffffffffffffffffffffffffffffffffffff1673ffffffffffffffffffffffffffffffffffffffff1681526020019081526020016000206006805490509080600181540180825580915050600190039060005260206000200160009091909190915055600681908060018154018082558091505060019003906000526020600020906007020160009091909190915060008201518160000160006101000a81548173ffffffffffffffffffffffffffffffffffffffff021916908373ffffffffffffffffffffffffffffffffffffffff1602179055506020820151816001015560408201518160020160006101000a81548173ffffffffffffffffffffffffffffffffffffffff021916908373ffffffffffffffffffffffffffffffffffffffff160217905550606082015181600301556080820151816004015560a08201518160050160006101000a81548160ff021916908360ff16021790555060c08201518160050160016101000a81548160ff02191690831515021790555060e0820151816006015550507f20c3f797b9c7476a4beb5a93f1743a0a793b6c4b04e8f035a97bb644668d534a60405160405180910390a150611a6a612353565b5050565b611a7661230d565b60006003811115611a8a57611a89612709565b5b600460159054906101000a900460ff166003811115611aac57611aab612709565b5b14611ab657600080fd5b3373ffffffffffffffffffffffffffffffffffffffff1660068381548110611ae157611ae0612bdb565b5b906000526020600020906007020160020160009054906101000a900473ffffffffffffffffffffffffffffffffffffffff1673ffffffffffffffffffffffffffffffffffffffff1614611b3357600080fd5b8060068381548110611b4857611b47612bdb565b5b906000526020600020906007020160040181905550600160068381548110611b7357611b72612bdb565b5b906000526020600020906007020160050160016101000a81548160ff0219169083151502179055507f20c3f797b9c7476a4beb5a93f1743a0a793b6c4b04e8f035a97bb644668d534a60405160405180910390a1611bcf612353565b5050565b7f000000000000000000000000000000000000000000000000000000000000000073ffffffffffffffffffffffffffffffffffffffff163373ffffffffffffffffffffffffffffffffffffffff161480611c7857507f000000000000000000000000000000000000000000000000000000000000000073ffffffffffffffffffffffffffffffffffffffff163373ffffffffffffffffffffffffffffffffffffffff16145b611cb7576040517f08c379a0000000000000000000000000000000000000000000000000000000008152600401611cae90612b2f565b60405180910390fd5b611cbf61230d565b60016003811115611cd357611cd2612709565b5b600460159054906101000a900460ff166003811115611cf557611cf4612709565b5b148015611d03575060015442115b611d42576040517f08c379a0000000000000000000000000000000000000000000000000000000008152600401611d3990612e06565b60405180910390fd5b7f000000000000000000000000000000000000000000000000000000000000000073ffffffffffffffffffffffffffffffffffffffff166108fc6003549081150290604051600060405180830381858888f19350505050158015611daa573d6000803e3d6000fd5b50611db3612353565b565b611dbd61230d565b60005b8151811015611f66576000828281518110611dde57611ddd612bdb565b5b602002602001015190503373ffffffffffffffffffffffffffffffffffffffff1660068281548110611e1357611e12612bdb565b5b906000526020600020906007020160020160009054906101000a900473ffffffffffffffffffffffffffffffffffffffff1673ffffffffffffffffffffffffffffffffffffffff1614611e9b576040517f08c379a0000000000000000000000000000000000000000000000000000000008152600401611e9290612e72565b60405180910390fd5b6001151560068281548110611eb357611eb2612bdb565b5b906000526020600020906007020160050160019054906101000a900460ff16151514611f14576040517f08c379a0000000000000000000000000000000000000000000000000000000008152600401611f0b90612ede565b60405180910390fd5b600060068281548110611f2a57611f29612bdb565b5b906000526020600020906007020160050160016101000a81548160ff021916908315150217905550508080611f5e90612c0a565b915050611dc0565b507f20c3f797b9c7476a4beb5a93f1743a0a793b6c4b04e8f035a97bb644668d534a60405160405180910390a1611f9b612353565b50565b600460009054906101000a900460ff1681565b611fb961230d565b60006003811115611fcd57611fcc612709565b5b600460159054906101000a900460ff166003811115611fef57611fee612709565b5b14611ff957600080fd5b6006818154811061200d5761200c612bdb565b5b906000526020600020906007020160040154341461202a57600080fd5b600115156006828154811061204257612041612bdb565b5b906000526020600020906007020160050160019054906101000a900460ff1615151461206d57600080fd5b60006006828154811061208357612082612bdb565b5b906000526020600020906007020160030154036120db5734600682815481106120af576120ae612bdb565b5b906000526020600020906007020160030160008282546120cf9190612b7e565b92505081905550612168565b600681815481106120ef576120ee612bdb565b5b906000526020600020906007020160020160009054906101000a900473ffffffffffffffffffffffffffffffffffffffff1673ffffffffffffffffffffffffffffffffffffffff166108fc349081150290604051600060405180830381858888f19350505050158015612166573d6000803e3d6000fd5b505b600560003373ffffffffffffffffffffffffffffffffffffffff1673ffffffffffffffffffffffffffffffffffffffff16815260200190815260200160002081908060018154018082558091505060019003906000526020600020016000909190919091505533600682815481106121e3576121e2612bdb565b5b906000526020600020906007020160020160006101000a81548173ffffffffffffffffffffffffffffffffffffffff021916908373ffffffffffffffffffffffffffffffffffffffff16021790555060006006828154811061224857612247612bdb565b5b906000526020600020906007020160050160016101000a81548160ff021916908315150217905550600560003373ffffffffffffffffffffffffffffffffffffffff1673ffffffffffffffffffffffffffffffffffffffff1681526020019081526020016000208190806001815401808255809150506001900390600052602060002001600090919091909150557f20c3f797b9c7476a4beb5a93f1743a0a793b6c4b04e8f035a97bb644668d534a60405160405180910390a161230a612353565b50565b600260005403612349576040517f3ee5aeb500000000000000000000000000000000000000000000000000000000815260040160405180910390fd5b6002600081905550565b6001600081905550565b600073ffffffffffffffffffffffffffffffffffffffff82169050919050565b60006123888261235d565b9050919050565b6123988161237d565b82525050565b60006020820190506123b3600083018461238f565b92915050565b6000604051905090565b600080fd5b600080fd5b600060ff82169050919050565b6123e3816123cd565b81146123ee57600080fd5b50565b600081359050612400816123da565b92915050565b6000806040838503121561241d5761241c6123c3565b5b600061242b858286016123f1565b925050602061243c858286016123f1565b9150509250929050565b6000819050919050565b61245981612446565b82525050565b60006020820190506124746000830184612450565b92915050565b61248381612446565b811461248e57600080fd5b50565b6000813590506124a08161247a565b92915050565b6000602082840312156124bc576124bb6123c3565b5b60006124ca84828501612491565b91505092915050565b6124dc816123cd565b82525050565b60008115159050919050565b6124f7816124e2565b82525050565b600061010082019050612513600083018b61238f565b612520602083018a612450565b61252d604083018961238f565b61253a6060830188612450565b6125476080830187612450565b61255460a08301866124d3565b61256160c08301856124ee565b61256e60e0830184612450565b9998505050505050505050565b600081519050919050565b600082825260208201905092915050565b6000819050602082019050919050565b6125b08161237d565b82525050565b6125bf81612446565b82525050565b6125ce816123cd565b82525050565b6125dd816124e2565b82525050565b610100820160008201516125fa60008501826125a7565b50602082015161260d60208501826125b6565b50604082015161262060408501826125a7565b50606082015161263360608501826125b6565b50608082015161264660808501826125b6565b5060a082015161265960a08501826125c5565b5060c082015161266c60c08501826125d4565b5060e082015161267f60e08501826125b6565b50505050565b600061269183836125e3565b6101008301905092915050565b6000602082019050919050565b60006126b68261257b565b6126c08185612586565b93506126cb83612597565b8060005b838110156126fc5781516126e38882612685565b97506126ee8361269e565b9250506001810190506126cf565b5085935050505092915050565b7f4e487b7100000000000000000000000000000000000000000000000000000000600052602160045260246000fd5b6004811061274957612748612709565b5b50565b600081905061275a82612738565b919050565b600061276a8261274c565b9050919050565b61277a8161275f565b82525050565b600060c082019050818103600083015261279a81896126ab565b90506127a96020830188612450565b6127b660408301876124d3565b6127c36060830186612771565b6127d06080830185612450565b6127dd60a0830184612450565b979650505050505050565b6127f18161237d565b81146127fc57600080fd5b50565b60008135905061280e816127e8565b92915050565b6000806040838503121561282b5761282a6123c3565b5b6000612839858286016127ff565b925050602061284a85828601612491565b9150509250929050565b600060208201905061286960008301846124ee565b92915050565b60008060408385031215612886576128856123c3565b5b600061289485828601612491565b92505060206128a5858286016123f1565b9150509250929050565b600080604083850312156128c6576128c56123c3565b5b60006128d485828601612491565b92505060206128e585828601612491565b9150509250929050565b600080fd5b6000601f19601f8301169050919050565b7f4e487b7100000000000000000000000000000000000000000000000000000000600052604160045260246000fd5b61293d826128f4565b810181811067ffffffffffffffff8211171561295c5761295b612905565b5b80604052505050565b600061296f6123b9565b905061297b8282612934565b919050565b600067ffffffffffffffff82111561299b5761299a612905565b5b602082029050602081019050919050565b600080fd5b60006129c46129bf84612980565b612965565b905080838252602082019050602084028301858111156129e7576129e66129ac565b5b835b81811015612a1057806129fc8882612491565b8452602084019350506020810190506129e9565b5050509392505050565b600082601f830112612a2f57612a2e6128ef565b5b8135612a3f8482602086016129b1565b91505092915050565b600060208284031215612a5e57612a5d6123c3565b5b600082013567ffffffffffffffff811115612a7c57612a7b6123c8565b5b612a8884828501612a1a565b91505092915050565b6000602082019050612aa660008301846124d3565b92915050565b600082825260208201905092915050565b7f4f6e6c7920746865206f776e65722063616e2063616c6c20746869732066756e60008201527f6374696f6e2e0000000000000000000000000000000000000000000000000000602082015250565b6000612b19602683612aac565b9150612b2482612abd565b604082019050919050565b60006020820190508181036000830152612b4881612b0c565b9050919050565b7f4e487b7100000000000000000000000000000000000000000000000000000000600052601160045260246000fd5b6000612b8982612446565b9150612b9483612446565b9250828201905080821115612bac57612bab612b4f565b5b92915050565b6000604082019050612bc760008301856124d3565b612bd46020830184612450565b9392505050565b7f4e487b7100000000000000000000000000000000000000000000000000000000600052603260045260246000fd5b6000612c1582612446565b91507fffffffffffffffffffffffffffffffffffffffffffffffffffffffffffffffff8203612c4757612c46612b4f565b5b600182019050919050565b7f436f6e747261637420646f6573206e6f74206861766520656e6f75676820667560008201527f6e64730000000000000000000000000000000000000000000000000000000000602082015250565b6000612cae602383612aac565b9150612cb982612c52565b604082019050919050565b60006020820190508181036000830152612cdd81612ca1565b9050919050565b6000612cef82612446565b9150612cfa83612446565b9250828202612d0881612446565b91508282048414831517612d1f57612d1e612b4f565b5b5092915050565b7f4e487b7100000000000000000000000000000000000000000000000000000000600052601260045260246000fd5b6000612d6082612446565b9150612d6b83612446565b925082612d7b57612d7a612d26565b5b828204905092915050565b6000612d9182612446565b9150612d9c83612446565b9250828203905081811115612db457612db3612b4f565b5b92915050565b7f496e76616c6964207374617465206f722074696d650000000000000000000000600082015250565b6000612df0601583612aac565b9150612dfb82612dba565b602082019050919050565b60006020820190508181036000830152612e1f81612de3565b9050919050565b7f43616c6c6572206973206e6f7420746865206f776e6572000000000000000000600082015250565b6000612e5c601783612aac565b9150612e6782612e26565b602082019050919050565b60006020820190508181036000830152612e8b81612e4f565b9050919050565b7f426574206973206e6f7420666f722073616c6500000000000000000000000000600082015250565b6000612ec8601383612aac565b9150612ed382612e92565b602082019050919050565b60006020820190508181036000830152612ef781612ebb565b905091905056fea2646970667358221220e9cd61147ae88fc4ca5d616bf38720d0bfa47b3a08531e4c12809996b63863ce64736f6c63430008140033",
  "linkReferences": {},
  "deployedLinkReferences": {}
}