{
  "_format": "hh-sol-artifact-1",
  "contractName": "predMarket2",
  "sourceName": "contracts/LockV2.sol",
  "abi": [
    {
      "inputs": [
        {
          "internalType": "uint256",
          "name": "_endTime",
          "type": "uint256"
        }
      ],
      "stateMutability": "nonpayable",
      "type": "constructor"
    },
    {
      "inputs": [],
      "name": "ReentrancyGuardReentrantCall",
      "type": "error"
    },
    {
      "anonymous": false,
      "inputs": [],
      "name": "BetCancelled",
      "type": "event"
    },
    {
      "anonymous": false,
      "inputs": [],
      "name": "BetEdited",
      "type": "event"
    },
    {
      "anonymous": false,
      "inputs": [],
      "name": "BetUnlisted",
      "type": "event"
    },
    {
      "anonymous": false,
      "inputs": [
        {
          "indexed": true,
          "internalType": "address",
          "name": "beneficiary",
          "type": "address"
        },
        {
          "indexed": false,
          "internalType": "uint256",
          "name": "amount",
          "type": "uint256"
        }
      ],
      "name": "FundsRedistributed",
      "type": "event"
    },
    {
      "anonymous": false,
      "inputs": [],
      "name": "PayoutProcessed",
      "type": "event"
    },
    {
      "anonymous": false,
      "inputs": [
        {
          "indexed": false,
          "internalType": "uint32",
          "name": "position",
          "type": "uint32"
        },
        {
          "indexed": false,
          "internalType": "address",
          "name": "buyer",
          "type": "address"
        },
        {
          "indexed": false,
          "internalType": "uint96",
          "name": "amount",
          "type": "uint96"
        }
      ],
      "name": "userBoughtBet",
      "type": "event"
    },
    {
      "anonymous": false,
      "inputs": [
        {
          "indexed": false,
          "internalType": "uint32",
          "name": "positionInArray",
          "type": "uint32"
        }
      ],
      "name": "userCreatedABet",
      "type": "event"
    },
    {
      "anonymous": false,
      "inputs": [],
      "name": "userReListedBet",
      "type": "event"
    },
    {
      "anonymous": false,
      "inputs": [],
      "name": "userVoted",
      "type": "event"
    },
    {
      "anonymous": false,
      "inputs": [
        {
          "indexed": false,
          "internalType": "address",
          "name": "user",
          "type": "address"
        },
        {
          "indexed": false,
          "internalType": "uint96",
          "name": "amount",
          "type": "uint96"
        }
      ],
      "name": "userWithdrew",
      "type": "event"
    },
    {
      "anonymous": false,
      "inputs": [],
      "name": "winnerDeclaredVoting",
      "type": "event"
    },
    {
      "inputs": [],
      "name": "allBets_Balance",
      "outputs": [
        {
          "components": [
            {
              "internalType": "address",
              "name": "deployer",
              "type": "address"
            },
            {
              "internalType": "address",
              "name": "owner",
              "type": "address"
            },
            {
              "internalType": "uint96",
              "name": "amountDeployerLocked",
              "type": "uint96"
            },
            {
              "internalType": "uint96",
              "name": "amountBuyerLocked",
              "type": "uint96"
            },
            {
              "internalType": "uint96",
              "name": "amountToBuyFor",
              "type": "uint96"
            },
            {
              "internalType": "uint8",
              "name": "conditionForBuyerToWin",
              "type": "uint8"
            },
            {
              "internalType": "bool",
              "name": "selling",
              "type": "bool"
            },
            {
              "internalType": "bool",
              "name": "isActive",
              "type": "bool"
            },
            {
              "internalType": "uint32",
              "name": "positionInArray",
              "type": "uint32"
            }
          ],
          "internalType": "struct predMarket2.bet[]",
          "name": "activeBets",
          "type": "tuple[]"
        },
        {
          "internalType": "uint256",
          "name": "endTimeValue",
          "type": "uint256"
        },
        {
          "internalType": "uint8",
          "name": "winnerValue",
          "type": "uint8"
        },
        {
          "internalType": "enum predMarket2.RaffleState",
          "name": "state",
          "type": "uint8"
        },
        {
          "internalType": "uint256",
          "name": "votingEnd",
          "type": "uint256"
        },
        {
          "internalType": "uint96",
          "name": "balance",
          "type": "uint96"
        }
      ],
      "stateMutability": "view",
      "type": "function"
    },
    {
      "inputs": [
        {
          "internalType": "address",
          "name": "",
          "type": "address"
        }
      ],
      "name": "amountMadeFromSoldBets",
      "outputs": [
        {
          "internalType": "uint96",
          "name": "",
          "type": "uint96"
        }
      ],
      "stateMutability": "view",
      "type": "function"
    },
    {
      "inputs": [
        {
          "internalType": "uint256",
          "name": "",
          "type": "uint256"
        }
      ],
      "name": "arrayOfBets",
      "outputs": [
        {
          "internalType": "address",
          "name": "deployer",
          "type": "address"
        },
        {
          "internalType": "address",
          "name": "owner",
          "type": "address"
        },
        {
          "internalType": "uint96",
          "name": "amountDeployerLocked",
          "type": "uint96"
        },
        {
          "internalType": "uint96",
          "name": "amountBuyerLocked",
          "type": "uint96"
        },
        {
          "internalType": "uint96",
          "name": "amountToBuyFor",
          "type": "uint96"
        },
        {
          "internalType": "uint8",
          "name": "conditionForBuyerToWin",
          "type": "uint8"
        },
        {
          "internalType": "bool",
          "name": "selling",
          "type": "bool"
        },
        {
          "internalType": "bool",
          "name": "isActive",
          "type": "bool"
        },
        {
          "internalType": "uint32",
          "name": "positionInArray",
          "type": "uint32"
        }
      ],
      "stateMutability": "view",
      "type": "function"
    },
    {
      "inputs": [
        {
          "internalType": "address",
          "name": "",
          "type": "address"
        },
        {
          "internalType": "uint256",
          "name": "",
          "type": "uint256"
        }
      ],
      "name": "betsByUser",
      "outputs": [
        {
          "internalType": "uint32",
          "name": "",
          "type": "uint32"
        }
      ],
      "stateMutability": "view",
      "type": "function"
    },
    {
      "inputs": [
        {
          "internalType": "uint32",
          "name": "positionOfArray",
          "type": "uint32"
        }
      ],
      "name": "buyABet",
      "outputs": [],
      "stateMutability": "payable",
      "type": "function"
    },
    {
      "inputs": [
        {
          "internalType": "uint32",
          "name": "positionOfArray",
          "type": "uint32"
        }
      ],
      "name": "cancelOwnedBet",
      "outputs": [],
      "stateMutability": "nonpayable",
      "type": "function"
    },
    {
      "inputs": [
        {
          "internalType": "uint8",
          "name": "state",
          "type": "uint8"
        }
      ],
      "name": "changeState",
      "outputs": [],
      "stateMutability": "nonpayable",
      "type": "function"
    },
    {
      "inputs": [],
      "name": "creatorLocked",
      "outputs": [
        {
          "internalType": "uint96",
          "name": "",
          "type": "uint96"
        }
      ],
      "stateMutability": "view",
      "type": "function"
    },
    {
      "inputs": [
        {
          "internalType": "uint8",
          "name": "_winner",
          "type": "uint8"
        }
      ],
      "name": "declareWinner",
      "outputs": [],
      "stateMutability": "nonpayable",
      "type": "function"
    },
    {
      "inputs": [],
      "name": "disagreeWithOwner",
      "outputs": [],
      "stateMutability": "nonpayable",
      "type": "function"
    },
    {
      "inputs": [
        {
          "internalType": "uint32",
          "name": "positionOfArray",
          "type": "uint32"
        },
        {
          "internalType": "uint96",
          "name": "newDeployPrice",
          "type": "uint96"
        },
        {
          "internalType": "uint96",
          "name": "newAskingPrice",
          "type": "uint96"
        }
      ],
      "name": "editADeployedBet",
      "outputs": [],
      "stateMutability": "payable",
      "type": "function"
    },
    {
      "inputs": [],
      "name": "endOfVoting",
      "outputs": [
        {
          "internalType": "uint256",
          "name": "",
          "type": "uint256"
        }
      ],
      "stateMutability": "view",
      "type": "function"
    },
    {
      "inputs": [],
      "name": "owner",
      "outputs": [
        {
          "internalType": "address",
          "name": "",
          "type": "address"
        }
      ],
      "stateMutability": "view",
      "type": "function"
    },
    {
      "inputs": [],
      "name": "s_raffleState",
      "outputs": [
        {
          "internalType": "enum predMarket2.RaffleState",
          "name": "",
          "type": "uint8"
        }
      ],
      "stateMutability": "view",
      "type": "function"
    },
    {
      "inputs": [
        {
          "internalType": "uint96",
          "name": "amountToBuy",
          "type": "uint96"
        },
        {
          "internalType": "uint8",
          "name": "conditionToWIn",
          "type": "uint8"
        }
      ],
      "name": "sellANewBet",
      "outputs": [],
      "stateMutability": "payable",
      "type": "function"
    },
    {
      "inputs": [
        {
          "internalType": "uint32",
          "name": "positionOfArray",
          "type": "uint32"
        },
        {
          "internalType": "uint96",
          "name": "newAskingPrice",
          "type": "uint96"
        }
      ],
      "name": "sellAnExistingBet",
      "outputs": [],
      "stateMutability": "nonpayable",
      "type": "function"
    },
    {
      "inputs": [
        {
          "internalType": "uint32",
          "name": "",
          "type": "uint32"
        },
        {
          "internalType": "uint256",
          "name": "",
          "type": "uint256"
        }
      ],
      "name": "soldBetHistory",
      "outputs": [
        {
          "internalType": "address",
          "name": "buyer",
          "type": "address"
        },
        {
          "internalType": "address",
          "name": "previousOwner",
          "type": "address"
        },
        {
          "internalType": "uint96",
          "name": "amountPaid",
          "type": "uint96"
        }
      ],
      "stateMutability": "view",
      "type": "function"
    },
    {
      "inputs": [],
      "name": "staffPay",
      "outputs": [
        {
          "internalType": "uint96",
          "name": "",
          "type": "uint96"
        }
      ],
      "stateMutability": "view",
      "type": "function"
    },
    {
      "inputs": [
        {
          "internalType": "address",
          "name": "",
          "type": "address"
        }
      ],
      "name": "staffWalletMap",
      "outputs": [
        {
          "internalType": "bool",
          "name": "",
          "type": "bool"
        }
      ],
      "stateMutability": "view",
      "type": "function"
    },
    {
      "inputs": [],
      "name": "transferOwnerAmount",
      "outputs": [],
      "stateMutability": "nonpayable",
      "type": "function"
    },
    {
      "inputs": [],
      "name": "transferStaffAmount",
      "outputs": [],
      "stateMutability": "nonpayable",
      "type": "function"
    },
    {
      "inputs": [
        {
          "internalType": "uint32[]",
          "name": "positionsOfArray",
          "type": "uint32[]"
        }
      ],
      "name": "unlistBets",
      "outputs": [],
      "stateMutability": "nonpayable",
      "type": "function"
    },
    {
      "inputs": [],
      "name": "winner",
      "outputs": [
        {
          "internalType": "uint8",
          "name": "",
          "type": "uint8"
        }
      ],
      "stateMutability": "view",
      "type": "function"
    },
    {
      "inputs": [],
      "name": "withdraw",
      "outputs": [],
      "stateMutability": "nonpayable",
      "type": "function"
    }
  ],
  "bytecode": "0x60a06040523480156200001157600080fd5b5060405162005ba538038062005ba5833981810160405281019062000037919062000212565b6001600081905550600073ffffffffffffffffffffffffffffffffffffffff163373ffffffffffffffffffffffffffffffffffffffff1603620000b1576040517f08c379a0000000000000000000000000000000000000000000000000000000008152600401620000a890620002a5565b60405180910390fd5b428111620000f6576040517f08c379a0000000000000000000000000000000000000000000000000000000008152600401620000ed9062000317565b60405180910390fd5b60016002600073f39fd6e51aad88f6f4ce6ab8827279cfffb9226673ffffffffffffffffffffffffffffffffffffffff1673ffffffffffffffffffffffffffffffffffffffff16815260200190815260200160002060006101000a81548160ff0219169083151502179055503373ffffffffffffffffffffffffffffffffffffffff1660808173ffffffffffffffffffffffffffffffffffffffff1681525050806005819055506000600660016101000a81548160ff02191690836003811115620001c657620001c562000339565b5b02179055505062000368565b600080fd5b6000819050919050565b620001ec81620001d7565b8114620001f857600080fd5b50565b6000815190506200020c81620001e1565b92915050565b6000602082840312156200022b576200022a620001d2565b5b60006200023b84828501620001fb565b91505092915050565b600082825260208201905092915050565b7f496e76616c6964206f776e657220616464726573730000000000000000000000600082015250565b60006200028d60158362000244565b91506200029a8262000255565b602082019050919050565b60006020820190508181036000830152620002c0816200027e565b9050919050565b7f496e76616c696420656e642074696d6500000000000000000000000000000000600082015250565b6000620002ff60108362000244565b91506200030c82620002c7565b602082019050919050565b600060208201905081810360008301526200033281620002f0565b9050919050565b7f4e487b7100000000000000000000000000000000000000000000000000000000600052602160045260246000fd5b608051615813620003926000396000818161220c01528181612a650152612c6101526158136000f3fe60806040526004361061014b5760003560e01c80637c54bafe116100b6578063a69fabbe1161006f578063a69fabbe14610452578063b4a36fd71461047b578063cc45483f14610492578063dad2245e146104bd578063dfbf53ae146104e6578063e694b1f9146105115761014b565b80637c54bafe146103275780637e88733214610364578063865f80c41461038f5780638da5cb5b146103ce5780639e1bffe9146103f95780639f4e2b95146104365761014b565b80633ccfd60b116101085780633ccfd60b1461026b5780634e33024a146102825780635d9261481461029e578063607c9cea146102b55780636afedac5146102e05780637672ef7b146103105761014b565b806308abb88f1461015057806316ad4d371461016c5780631798b2ae146101a9578063268f1153146101d257806330dda1c2146101fb5780633658957e14610226575b600080fd5b61016a600480360381019061016591906146ba565b61053a565b005b34801561017857600080fd5b50610193600480360381019061018e9190614758565b610a33565b6040516101a091906147a0565b60405180910390f35b3480156101b557600080fd5b506101d060048036038101906101cb91906147bb565b610a53565b005b3480156101de57600080fd5b506101f960048036038101906101f491906147bb565b610d58565b005b34801561020757600080fd5b50610210610e81565b60405161021d91906147f7565b60405180910390f35b34801561023257600080fd5b5061024d60048036038101906102489190614848565b610e9f565b604051610262999897969594939291906148b2565b60405180910390f35b34801561027757600080fd5b50610280610fbc565b005b61029c6004803603810190610297919061496b565b6116fe565b005b3480156102aa57600080fd5b506102b3611c2c565b005b3480156102c157600080fd5b506102ca611e96565b6040516102d791906147f7565b60405180910390f35b3480156102ec57600080fd5b506102f5611eb4565b60405161030796959493929190614bd0565b60405180910390f35b34801561031c57600080fd5b5061032561201b565b005b34801561033357600080fd5b5061034e60048036038101906103499190614c38565b61211c565b60405161035b9190614c78565b60405180910390f35b34801561037057600080fd5b50610379612165565b6040516103869190614c93565b60405180910390f35b34801561039b57600080fd5b506103b660048036038101906103b19190614cae565b61216b565b6040516103c593929190614cee565b60405180910390f35b3480156103da57600080fd5b506103e361220a565b6040516103f09190614d25565b60405180910390f35b34801561040557600080fd5b50610420600480360381019061041b9190614758565b61222e565b60405161042d91906147f7565b60405180910390f35b610450600480360381019061044b9190614d40565b612259565b005b34801561045e57600080fd5b506104796004803603810190610474919061496b565b6126d1565b005b34801561048757600080fd5b50610490612a63565b005b34801561049e57600080fd5b506104a7612d43565b6040516104b49190614d93565b60405180910390f35b3480156104c957600080fd5b506104e460048036038101906104df9190614dae565b612d56565b005b3480156104f257600080fd5b506104fb612efa565b6040516105089190614dee565b60405180910390f35b34801561051d57600080fd5b5061053860048036038101906105339190614f62565b612f0d565b005b6105426131f7565b60008160ff16118015610559575060028160ff1611155b801561059857506000600381111561057457610573614b59565b5b600660019054906101000a900460ff16600381111561059657610595614b59565b5b145b80156105aa575061012c600c80549050105b80156105c457506000826bffffffffffffffffffffffff16115b801561061257506032600760003373ffffffffffffffffffffffffffffffffffffffff1673ffffffffffffffffffffffffffffffffffffffff16815260200190815260200160002080549050105b61061b57600080fd5b6bffffffffffffffffffffffff801634111561066c576040517f08c379a000000000000000000000000000000000000000000000000000000000815260040161066390615008565b60405180910390fd5b6bffffffffffffffffffffffff8016826bffffffffffffffffffffffff1611156106cb576040517f08c379a00000000000000000000000000000000000000000000000000000000081526004016106c290615074565b60405180910390fd5b6000600c805490509050600760003373ffffffffffffffffffffffffffffffffffffffff1673ffffffffffffffffffffffffffffffffffffffff1681526020019081526020016000208190806001815401808255809150506001900390600052602060002090600891828204019190066004029091909190916101000a81548163ffffffff021916908363ffffffff160217905550600c6040518061012001604052803373ffffffffffffffffffffffffffffffffffffffff1681526020013373ffffffffffffffffffffffffffffffffffffffff168152602001346bffffffffffffffffffffffff16815260200160006bffffffffffffffffffffffff168152602001856bffffffffffffffffffffffff1681526020018460ff1681526020016001151581526020016001151581526020018363ffffffff16815250908060018154018082558091505060019003906000526020600020906003020160009091909190915060008201518160000160006101000a81548173ffffffffffffffffffffffffffffffffffffffff021916908373ffffffffffffffffffffffffffffffffffffffff16021790555060208201518160010160006101000a81548173ffffffffffffffffffffffffffffffffffffffff021916908373ffffffffffffffffffffffffffffffffffffffff16021790555060408201518160010160146101000a8154816bffffffffffffffffffffffff02191690836bffffffffffffffffffffffff16021790555060608201518160020160006101000a8154816bffffffffffffffffffffffff02191690836bffffffffffffffffffffffff160217905550608082015181600201600c6101000a8154816bffffffffffffffffffffffff02191690836bffffffffffffffffffffffff16021790555060a08201518160020160186101000a81548160ff021916908360ff16021790555060c08201518160020160196101000a81548160ff02191690831515021790555060e082015181600201601a6101000a81548160ff02191690831515021790555061010082015181600201601b6101000a81548163ffffffff021916908363ffffffff16021790555050507f0b4b5e3131d1a6216d8e3e183f564765b644accafead7bd164772dfca51172d781604051610a1e9190614c78565b60405180910390a150610a2f61323d565b5050565b60026020528060005260406000206000915054906101000a900460ff1681565b600260003373ffffffffffffffffffffffffffffffffffffffff1673ffffffffffffffffffffffffffffffffffffffff16815260200190815260200160002060009054906101000a900460ff16610adf576040517f08c379a0000000000000000000000000000000000000000000000000000000008152600401610ad6906150e0565b60405180910390fd5b610ae76131f7565b60008160ff16118015610afd575060048160ff16105b610b0657600080fd5b60038160ff1603610b9157610b19613247565b6003600660016101000a81548160ff02191690836003811115610b3f57610b3e614b59565b5b02179055506003600660006101000a81548160ff021916908360ff1602179055507fbbfddbd2a33e1c8d143e1f8b564451965d01678a70438b79b4900cd033c12a2760405160405180910390a1610d4d565b60006003811115610ba557610ba4614b59565b5b600660019054906101000a900460ff166003811115610bc757610bc6614b59565b5b03610c4e5761012c42016003819055506001600660016101000a81548160ff02191690836003811115610bfd57610bfc614b59565b5b021790555080600660006101000a81548160ff021916908360ff1602179055507fbbfddbd2a33e1c8d143e1f8b564451965d01678a70438b79b4900cd033c12a2760405160405180910390a1610d4c565b60016003811115610c6257610c61614b59565b5b600660019054906101000a900460ff166003811115610c8457610c83614b59565b5b148015610c92575060035442115b80610cd0575060026003811115610cac57610cab614b59565b5b600660019054906101000a900460ff166003811115610cce57610ccd614b59565b5b145b610cd957600080fd5b80600660006101000a81548160ff021916908360ff1602179055506003600660016101000a81548160ff02191690836003811115610d1a57610d19614b59565b5b02179055507fbbfddbd2a33e1c8d143e1f8b564451965d01678a70438b79b4900cd033c12a2760405160405180910390a15b5b610d5561323d565b50565b600260003373ffffffffffffffffffffffffffffffffffffffff1673ffffffffffffffffffffffffffffffffffffffff16815260200190815260200160002060009054906101000a900460ff16610de4576040517f08c379a0000000000000000000000000000000000000000000000000000000008152600401610ddb906150e0565b60405180910390fd5b600380811115610df757610df6614b59565b5b60ff168160ff161115610e3f576040517f08c379a0000000000000000000000000000000000000000000000000000000008152600401610e369061514c565b60405180910390fd5b8060ff166003811115610e5557610e54614b59565b5b600660016101000a81548160ff02191690836003811115610e7957610e78614b59565b5b021790555050565b600460009054906101000a90046bffffffffffffffffffffffff1681565b600c8181548110610eaf57600080fd5b90600052602060002090600302016000915090508060000160009054906101000a900473ffffffffffffffffffffffffffffffffffffffff16908060010160009054906101000a900473ffffffffffffffffffffffffffffffffffffffff16908060010160149054906101000a90046bffffffffffffffffffffffff16908060020160009054906101000a90046bffffffffffffffffffffffff169080600201600c9054906101000a90046bffffffffffffffffffffffff16908060020160189054906101000a900460ff16908060020160199054906101000a900460ff169080600201601a9054906101000a900460ff169080600201601b9054906101000a900463ffffffff16905089565b610fc46131f7565b600380811115610fd757610fd6614b59565b5b600660019054906101000a900460ff166003811115610ff957610ff8614b59565b5b148061104557506001600381111561101457611013614b59565b5b600660019054906101000a900460ff16600381111561103657611035614b59565b5b148015611044575060035442115b5b61104e57600080fd5b6000600760003373ffffffffffffffffffffffffffffffffffffffff1673ffffffffffffffffffffffffffffffffffffffff168152602001908152602001600020905060008180549050116110a257600080fd5b60008060006003600660009054906101000a900460ff1660ff1614905060008480549050905060005b8163ffffffff168163ffffffff1610156112d7576000600c878363ffffffff16815481106110fc576110fb61516c565b5b90600052602060002090600891828204019190066004029054906101000a900463ffffffff1663ffffffff16815481106111395761113861516c565b5b9060005260206000209060030201905083156112ae573373ffffffffffffffffffffffffffffffffffffffff168160010160009054906101000a900473ffffffffffffffffffffffffffffffffffffffff1673ffffffffffffffffffffffffffffffffffffffff16036111fc578060020160009054906101000a90046bffffffffffffffffffffffff168601955060008160020160006101000a8154816bffffffffffffffffffffffff02191690836bffffffffffffffffffffffff1602179055505b3373ffffffffffffffffffffffffffffffffffffffff168160000160009054906101000a900473ffffffffffffffffffffffffffffffffffffffff1673ffffffffffffffffffffffffffffffffffffffff16036112a9578060010160149054906101000a90046bffffffffffffffffffffffff168601955060008160010160146101000a8154816bffffffffffffffffffffffff02191690836bffffffffffffffffffffffff1602179055505b6112cb565b6000806112ba8361377d565b915091508188019750808701965050505b816001019150506110cb565b508161144c5760006127106101f485026bffffffffffffffffffffffff16816113035761130261519b565b5b049050806bffffffffffffffffffffffff16856bffffffffffffffffffffffff161015611365576040517f08c379a000000000000000000000000000000000000000000000000000000000815260040161135c90615216565b60405180910390fd5b80850394506005600382026bffffffffffffffffffffffff168161138c5761138b61519b565b5b04600160008282829054906101000a90046bffffffffffffffffffffffff160192506101000a8154816bffffffffffffffffffffffff02191690836bffffffffffffffffffffffff1602179055506005600282026bffffffffffffffffffffffff16816113fc576113fb61519b565b5b04600460008282829054906101000a90046bffffffffffffffffffffffff160192506101000a8154816bffffffffffffffffffffffff02191690836bffffffffffffffffffffffff160217905550505b6000600860003373ffffffffffffffffffffffffffffffffffffffff1673ffffffffffffffffffffffffffffffffffffffff16815260200190815260200160002060009054906101000a90046bffffffffffffffffffffffff166bffffffffffffffffffffffff161180156114bf575081155b1561159057600860003373ffffffffffffffffffffffffffffffffffffffff1673ffffffffffffffffffffffffffffffffffffffff16815260200190815260200160002060009054906101000a90046bffffffffffffffffffffffff16840193506000600860003373ffffffffffffffffffffffffffffffffffffffff1673ffffffffffffffffffffffffffffffffffffffff16815260200190815260200160002060006101000a8154816bffffffffffffffffffffffff02191690836bffffffffffffffffffffffff1602179055505b6000846bffffffffffffffffffffffff161180156115bc5750836bffffffffffffffffffffffff164710155b6115fb576040517f08c379a00000000000000000000000000000000000000000000000000000000081526004016115f290615282565b60405180910390fd5b60003373ffffffffffffffffffffffffffffffffffffffff16856bffffffffffffffffffffffff1660405161162f906152d3565b60006040518083038185875af1925050503d806000811461166c576040519150601f19603f3d011682016040523d82523d6000602084013e611671565b606091505b50509050806116b5576040517f08c379a00000000000000000000000000000000000000000000000000000000081526004016116ac90615334565b60405180910390fd5b7f7c56f75f0792323f7b3e088b27db18b54add5b49e6a66c8471fa0ad872ba45ec33866040516116e6929190615354565b60405180910390a15050505050506116fc61323d565b565b6117066131f7565b6000600381111561171a57611719614b59565b5b600660019054906101000a900460ff16600381111561173c5761173b614b59565b5b1461174657600080fd5b6000600c8263ffffffff16815481106117625761176161516c565b5b9060005260206000209060030201905080600201601a9054906101000a900460ff1680156117c7575080600201600c9054906101000a90046bffffffffffffffffffffffff166bffffffffffffffffffffffff16346bffffffffffffffffffffffff16145b80156117e157506bffffffffffffffffffffffff80163411155b80156117fb57508060020160199054906101000a900460ff165b801561185757503373ffffffffffffffffffffffffffffffffffffffff168160010160009054906101000a900473ffffffffffffffffffffffffffffffffffffffff1673ffffffffffffffffffffffffffffffffffffffff1614155b801561186d5750600c805490508263ffffffff16105b61187657600080fd5b60008160010160009054906101000a900473ffffffffffffffffffffffffffffffffffffffff16905060008260020160009054906101000a90046bffffffffffffffffffffffff166bffffffffffffffffffffffff160361190957348260020160006101000a8154816bffffffffffffffffffffffff02191690836bffffffffffffffffffffffff160217905550611af9565b34600860008373ffffffffffffffffffffffffffffffffffffffff1673ffffffffffffffffffffffffffffffffffffffff16815260200190815260200160002060008282829054906101000a90046bffffffffffffffffffffffff160192506101000a8154816bffffffffffffffffffffffff02191690836bffffffffffffffffffffffff160217905550600960008463ffffffff1663ffffffff16815260200190815260200160002060405180606001604052803373ffffffffffffffffffffffffffffffffffffffff1681526020018373ffffffffffffffffffffffffffffffffffffffff168152602001346bffffffffffffffffffffffff16815250908060018154018082558091505060019003906000526020600020906002020160009091909190915060008201518160000160006101000a81548173ffffffffffffffffffffffffffffffffffffffff021916908373ffffffffffffffffffffffffffffffffffffffff16021790555060208201518160010160006101000a81548173ffffffffffffffffffffffffffffffffffffffff021916908373ffffffffffffffffffffffffffffffffffffffff16021790555060408201518160010160146101000a8154816bffffffffffffffffffffffff02191690836bffffffffffffffffffffffff16021790555050505b600760003373ffffffffffffffffffffffffffffffffffffffff1673ffffffffffffffffffffffffffffffffffffffff1681526020019081526020016000208390806001815401808255809150506001900390600052602060002090600891828204019190066004029091909190916101000a81548163ffffffff021916908363ffffffff160217905550338260010160006101000a81548173ffffffffffffffffffffffffffffffffffffffff021916908373ffffffffffffffffffffffffffffffffffffffff16021790555060008260020160196101000a81548160ff0219169083151502179055507fec6e7aa0c7c1fc30924d4ee935d53e6ea3d6eae81deea67a8f25021b0c8d15f1833334604051611c179392919061537d565b60405180910390a15050611c2961323d565b50565b600260003373ffffffffffffffffffffffffffffffffffffffff1673ffffffffffffffffffffffffffffffffffffffff16815260200190815260200160002060009054906101000a900460ff16611cb8576040517f08c379a0000000000000000000000000000000000000000000000000000000008152600401611caf906150e0565b60405180910390fd5b611cc06131f7565b60016003811115611cd457611cd3614b59565b5b600660019054906101000a900460ff166003811115611cf657611cf5614b59565b5b148015611d04575060035442115b80611d415750600380811115611d1d57611d1c614b59565b5b600660019054906101000a900460ff166003811115611d3f57611d3e614b59565b5b145b611d4a57600080fd5b6000600160009054906101000a90046bffffffffffffffffffffffff166bffffffffffffffffffffffff1611611d7f57600080fd5b6000600160009054906101000a90046bffffffffffffffffffffffff1690506000600160006101000a8154816bffffffffffffffffffffffff02191690836bffffffffffffffffffffffff16021790555060003373ffffffffffffffffffffffffffffffffffffffff16826bffffffffffffffffffffffff16604051611e04906152d3565b60006040518083038185875af1925050503d8060008114611e41576040519150601f19603f3d011682016040523d82523d6000602084013e611e46565b606091505b5050905080611e8a576040517f08c379a0000000000000000000000000000000000000000000000000000000008152600401611e8190615334565b60405180910390fd5b5050611e9461323d565b565b600160009054906101000a90046bffffffffffffffffffffffff1681565b6060600080600080600080600760003373ffffffffffffffffffffffffffffffffffffffff1673ffffffffffffffffffffffffffffffffffffffff1681526020019081526020016000209050600081805490509050600080611f168484613b49565b915091506003600660009054906101000a900460ff1660ff1614611fbf5760006064600583026bffffffffffffffffffffffff1681611f5857611f5761519b565b5b049050600860003373ffffffffffffffffffffffffffffffffffffffff1673ffffffffffffffffffffffffffffffffffffffff16815260200190815260200160002060009054906101000a90046bffffffffffffffffffffffff1681840301925050611fd1565b6003600660009054906101000a905050505b611fd9613cb0565b995089600554600660009054906101000a900460ff16600660019054906101000a900460ff166003548699509950995099509950995050505050909192939495565b6120236131f7565b6001600381111561203757612036614b59565b5b600660019054906101000a900460ff16600381111561205957612058614b59565b5b148015612067575060035442105b806120b257506000600381111561208157612080614b59565b5b600660019054906101000a900460ff1660038111156120a3576120a2614b59565b5b1480156120b1575060055442115b5b6120bb57600080fd5b6002600660016101000a81548160ff021916908360038111156120e1576120e0614b59565b5b02179055507f325941a5b65623f14f777a10c4ee68b69cec6214a44a48c1bb1c4991314755c060405160405180910390a161211a61323d565b565b6007602052816000526040600020818154811061213857600080fd5b9060005260206000209060089182820401919006600402915091509054906101000a900463ffffffff1681565b60035481565b6009602052816000526040600020818154811061218757600080fd5b9060005260206000209060020201600091509150508060000160009054906101000a900473ffffffffffffffffffffffffffffffffffffffff16908060010160009054906101000a900473ffffffffffffffffffffffffffffffffffffffff16908060010160149054906101000a90046bffffffffffffffffffffffff16905083565b7f000000000000000000000000000000000000000000000000000000000000000081565b60086020528060005260406000206000915054906101000a90046bffffffffffffffffffffffff1681565b6122616131f7565b600c805490508363ffffffff16106122ae576040517f08c379a00000000000000000000000000000000000000000000000000000000081526004016122a590615400565b60405180910390fd5b6000600c8463ffffffff16815481106122ca576122c961516c565b5b906000526020600020906003020190503373ffffffffffffffffffffffffffffffffffffffff168160010160009054906101000a900473ffffffffffffffffffffffffffffffffffffffff1673ffffffffffffffffffffffffffffffffffffffff1614801561238857503373ffffffffffffffffffffffffffffffffffffffff168160000160009054906101000a900473ffffffffffffffffffffffffffffffffffffffff1673ffffffffffffffffffffffffffffffffffffffff16145b80156123a357506000836bffffffffffffffffffffffff1610155b80156123be57506000826bffffffffffffffffffffffff1610155b80156123d8575080600201601a9054906101000a900460ff165b80156124175750600060038111156123f3576123f2614b59565b5b600660019054906101000a900460ff16600381111561241557612414614b59565b5b145b612456576040517f08c379a000000000000000000000000000000000000000000000000000000000815260040161244d9061546c565b60405180910390fd5b60008160010160149054906101000a90046bffffffffffffffffffffffff169050806bffffffffffffffffffffffff16846bffffffffffffffffffffffff161461264657806bffffffffffffffffffffffff16846bffffffffffffffffffffffff1610156125b95760008482039050848360010160146101000a8154816bffffffffffffffffffffffff02191690836bffffffffffffffffffffffff16021790555060003373ffffffffffffffffffffffffffffffffffffffff16826bffffffffffffffffffffffff1660405161252c906152d3565b60006040518083038185875af1925050503d8060008114612569576040519150601f19603f3d011682016040523d82523d6000602084013e61256e565b606091505b50509050806125b2576040517f08c379a00000000000000000000000000000000000000000000000000000000081526004016125a9906154d8565b60405180910390fd5b5050612645565b60008185039050806bffffffffffffffffffffffff163414612610576040517f08c379a000000000000000000000000000000000000000000000000000000000815260040161260790615544565b60405180910390fd5b848360010160146101000a8154816bffffffffffffffffffffffff02191690836bffffffffffffffffffffffff160217905550505b5b8282600201600c6101000a8154816bffffffffffffffffffffffff02191690836bffffffffffffffffffffffff16021790555060018260020160196101000a81548160ff0219169083151502179055507ff75e56f787976a19558bde97657a643e88c61a76b39e41f3a06a120defa30d6160405160405180910390a150506126cc61323d565b505050565b6126d96131f7565b600c805490508163ffffffff16106126f057600080fd5b6000600c8263ffffffff168154811061270c5761270b61516c565b5b906000526020600020906003020190503373ffffffffffffffffffffffffffffffffffffffff168160010160009054906101000a900473ffffffffffffffffffffffffffffffffffffffff1673ffffffffffffffffffffffffffffffffffffffff161480156127ca57503373ffffffffffffffffffffffffffffffffffffffff168160000160009054906101000a900473ffffffffffffffffffffffffffffffffffffffff1673ffffffffffffffffffffffffffffffffffffffff16145b80156127e4575080600201601a9054906101000a900460ff165b612823576040517f08c379a000000000000000000000000000000000000000000000000000000000815260040161281a9061546c565b60405180910390fd5b60008160010160149054906101000a90046bffffffffffffffffffffffff168260020160009054906101000a90046bffffffffffffffffffffffff1601905060008260010160006101000a81548173ffffffffffffffffffffffffffffffffffffffff021916908373ffffffffffffffffffffffffffffffffffffffff16021790555060008260000160006101000a81548173ffffffffffffffffffffffffffffffffffffffff021916908373ffffffffffffffffffffffffffffffffffffffff16021790555060008260020160006101000a8154816bffffffffffffffffffffffff02191690836bffffffffffffffffffffffff16021790555060008260010160146101000a8154816bffffffffffffffffffffffff02191690836bffffffffffffffffffffffff160217905550600082600201601a6101000a81548160ff02191690831515021790555060003373ffffffffffffffffffffffffffffffffffffffff16826bffffffffffffffffffffffff166040516129a3906152d3565b60006040518083038185875af1925050503d80600081146129e0576040519150601f19603f3d011682016040523d82523d6000602084013e6129e5565b606091505b5050905080612a29576040517f08c379a0000000000000000000000000000000000000000000000000000000008152600401612a2090615334565b60405180910390fd5b7fa9c660d43fdb14d4f7f7226623a556967689f58ee0e7c1a3397257bb909454c960405160405180910390a1505050612a6061323d565b50565b7f000000000000000000000000000000000000000000000000000000000000000073ffffffffffffffffffffffffffffffffffffffff163373ffffffffffffffffffffffffffffffffffffffff161480612b065750600260003373ffffffffffffffffffffffffffffffffffffffff1673ffffffffffffffffffffffffffffffffffffffff16815260200190815260200160002060009054906101000a900460ff165b612b45576040517f08c379a0000000000000000000000000000000000000000000000000000000008152600401612b3c906155d6565b60405180910390fd5b612b4d6131f7565b60016003811115612b6157612b60614b59565b5b600660019054906101000a900460ff166003811115612b8357612b82614b59565b5b148015612b91575060035442115b80612bce5750600380811115612baa57612ba9614b59565b5b600660019054906101000a900460ff166003811115612bcc57612bcb614b59565b5b145b612bd757600080fd5b6000600460009054906101000a90046bffffffffffffffffffffffff166bffffffffffffffffffffffff1611612c0c57600080fd5b6000600460009054906101000a90046bffffffffffffffffffffffff1690506000600460006101000a8154816bffffffffffffffffffffffff02191690836bffffffffffffffffffffffff16021790555060007f000000000000000000000000000000000000000000000000000000000000000073ffffffffffffffffffffffffffffffffffffffff16826bffffffffffffffffffffffff16604051612cb1906152d3565b60006040518083038185875af1925050503d8060008114612cee576040519150601f19603f3d011682016040523d82523d6000602084013e612cf3565b606091505b5050905080612d37576040517f08c379a0000000000000000000000000000000000000000000000000000000008152600401612d2e90615334565b60405180910390fd5b5050612d4161323d565b565b600660019054906101000a900460ff1681565b612d5e6131f7565b60006003811115612d7257612d71614b59565b5b600660019054906101000a900460ff166003811115612d9457612d93614b59565b5b14612d9e57600080fd5b600c805490508263ffffffff1610612db557600080fd5b6000600c8363ffffffff1681548110612dd157612dd061516c565b5b906000526020600020906003020190503373ffffffffffffffffffffffffffffffffffffffff168160010160009054906101000a900473ffffffffffffffffffffffffffffffffffffffff1673ffffffffffffffffffffffffffffffffffffffff16148015612e4e575080600201601a9054906101000a900460ff165b8015612e6857506000826bffffffffffffffffffffffff16115b612e7157600080fd5b8181600201600c6101000a8154816bffffffffffffffffffffffff02191690836bffffffffffffffffffffffff16021790555060018160020160196101000a81548160ff0219169083151502179055507f50c7c110b9cabc516cf0aef475d15558b239d0490f0389129f4e6b4c378dfa3d60405160405180910390a150612ef661323d565b5050565b600660009054906101000a900460ff1681565b612f156131f7565b6005600760003373ffffffffffffffffffffffffffffffffffffffff1673ffffffffffffffffffffffffffffffffffffffff16815260200190815260200160002080549050612f649190615625565b81511115612f7157600080fd5b60005b81518163ffffffff1610156131bf576000828263ffffffff1681518110612f9e57612f9d61516c565b5b602002602001015190503373ffffffffffffffffffffffffffffffffffffffff16600c8263ffffffff1681548110612fd957612fd861516c565b5b906000526020600020906003020160010160009054906101000a900473ffffffffffffffffffffffffffffffffffffffff1673ffffffffffffffffffffffffffffffffffffffff1614613061576040517f08c379a0000000000000000000000000000000000000000000000000000000008152600401613058906156a5565b60405180910390fd5b60011515600c8263ffffffff168154811061307f5761307e61516c565b5b906000526020600020906003020160020160199054906101000a900460ff161515146130e0576040517f08c379a00000000000000000000000000000000000000000000000000000000081526004016130d790615711565b60405180910390fd5b600c8163ffffffff16815481106130fa576130f961516c565b5b9060005260206000209060030201600201601a9054906101000a900460ff1661312257600080fd5b600c805490508163ffffffff161061316f576040517f08c379a00000000000000000000000000000000000000000000000000000000081526004016131669061577d565b60405180910390fd5b6000600c8263ffffffff168154811061318b5761318a61516c565b5b906000526020600020906003020160020160196101000a81548160ff02191690831515021790555081600101915050612f74565b507f1e5a109a2c5190a6567f1b2386d95213f70c40047a7d1f2fb64e5974c9a0043a60405160405180910390a16131f461323d565b50565b600260005403613233576040517f3ee5aeb500000000000000000000000000000000000000000000000000000000815260040160405180910390fd5b6002600081905550565b6001600081905550565b600b6000613255919061453c565b6000600c80549050905060005b8163ffffffff168163ffffffff161015613574576000600960008363ffffffff1663ffffffff168152602001908152602001600020905060008180549050905060008111156135675760005b818110156134b65760008382815481106132cb576132ca61516c565b5b906000526020600020906002020160000160009054906101000a900473ffffffffffffffffffffffffffffffffffffffff1690508382815481106133125761331161516c565b5b906000526020600020906002020160010160149054906101000a90046bffffffffffffffffffffffff16600a60008373ffffffffffffffffffffffffffffffffffffffff1673ffffffffffffffffffffffffffffffffffffffff16815260200190815260200160002060008282829054906101000a90046bffffffffffffffffffffffff160192506101000a8154816bffffffffffffffffffffffff02191690836bffffffffffffffffffffffff1602179055506000600a60008373ffffffffffffffffffffffffffffffffffffffff1673ffffffffffffffffffffffffffffffffffffffff16815260200190815260200160002060009054906101000a90046bffffffffffffffffffffffff166bffffffffffffffffffffffff16118015613441575061343f81614048565b155b156134aa57600b819080600181540180825580915050600190039060005260206000200160009091909190916101000a81548173ffffffffffffffffffffffffffffffffffffffff021916908373ffffffffffffffffffffffffffffffffffffffff1602179055505b816001019150506132ae565b50816000815481106134cb576134ca61516c565b5b906000526020600020906002020160010160009054906101000a900473ffffffffffffffffffffffffffffffffffffffff16600c8463ffffffff16815481106135175761351661516c565b5b906000526020600020906003020160010160006101000a81548173ffffffffffffffffffffffffffffffffffffffff021916908373ffffffffffffffffffffffffffffffffffffffff1602179055505b8260010192505050613262565b506000600b80549050905060005b81811015613778576000600b82815481106135a05761359f61516c565b5b9060005260206000200160009054906101000a900473ffffffffffffffffffffffffffffffffffffffff1690506000600a60008373ffffffffffffffffffffffffffffffffffffffff1673ffffffffffffffffffffffffffffffffffffffff16815260200190815260200160002060009054906101000a90046bffffffffffffffffffffffff1690506000816bffffffffffffffffffffffff16111561376b576000600a60008473ffffffffffffffffffffffffffffffffffffffff1673ffffffffffffffffffffffffffffffffffffffff16815260200190815260200160002060006101000a8154816bffffffffffffffffffffffff02191690836bffffffffffffffffffffffff16021790555060008273ffffffffffffffffffffffffffffffffffffffff16826bffffffffffffffffffffffff166040516136e3906152d3565b60006040518083038185875af1925050503d8060008114613720576040519150601f19603f3d011682016040523d82523d6000602084013e613725565b606091505b5050905080613769576040517f08c379a0000000000000000000000000000000000000000000000000000000008152600401613760906154d8565b60405180910390fd5b505b8260010192505050613582565b505050565b6000803373ffffffffffffffffffffffffffffffffffffffff168360000160009054906101000a900473ffffffffffffffffffffffffffffffffffffffff1673ffffffffffffffffffffffffffffffffffffffff1614801561382e57503373ffffffffffffffffffffffffffffffffffffffff168360010160009054906101000a900473ffffffffffffffffffffffffffffffffffffffff1673ffffffffffffffffffffffffffffffffffffffff16145b156138e6578260020160009054906101000a90046bffffffffffffffffffffffff168360010160149054906101000a90046bffffffffffffffffffffffff16613877919061579d565b915060008360010160146101000a8154816bffffffffffffffffffffffff02191690836bffffffffffffffffffffffff16021790555060008360020160006101000a8154816bffffffffffffffffffffffff02191690836bffffffffffffffffffffffff160217905550613b44565b3373ffffffffffffffffffffffffffffffffffffffff168360010160009054906101000a900473ffffffffffffffffffffffffffffffffffffffff1673ffffffffffffffffffffffffffffffffffffffff1614801561396a5750600660009054906101000a900460ff1660ff168360020160189054906101000a900460ff1660ff16145b806139f657503373ffffffffffffffffffffffffffffffffffffffff168360000160009054906101000a900473ffffffffffffffffffffffffffffffffffffffff1673ffffffffffffffffffffffffffffffffffffffff161480156139f55750600660009054906101000a900460ff1660ff168360020160189054906101000a900460ff1660ff1614155b5b15613b43578260010160149054906101000a90046bffffffffffffffffffffffff168360020160009054906101000a90046bffffffffffffffffffffffff16613a3f919061579d565b91503373ffffffffffffffffffffffffffffffffffffffff168360010160009054906101000a900473ffffffffffffffffffffffffffffffffffffffff1673ffffffffffffffffffffffffffffffffffffffff1614613aba578260020160009054906101000a90046bffffffffffffffffffffffff16613ad8565b8260010160149054906101000a90046bffffffffffffffffffffffff165b905060008360020160006101000a8154816bffffffffffffffffffffffff02191690836bffffffffffffffffffffffff16021790555060008360010160146101000a8154816bffffffffffffffffffffffff02191690836bffffffffffffffffffffffff1602179055505b5b915091565b60008060008367ffffffffffffffff811115613b6857613b67614e1f565b5b604051908082528060200260200182016040528015613b965781602001602082028036833780820191505090505b5090506000805b85811015613ca6576000878281548110613bba57613bb961516c565b5b90600052602060002090600891828204019190066004029054906101000a900463ffffffff1663ffffffff1690506000805b84811015613c295782868281518110613c0857613c0761516c565b5b602002602001015103613c1e5760019150613c29565b806001019050613bec565b5080613c995781858581518110613c4357613c4261516c565b5b6020026020010181815250508360010193506000600c8381548110613c6b57613c6a61516c565b5b90600052602060002090600302019050600080613c87836140f1565b91509150818a01995080890198505050505b8260010192505050613b9d565b5050509250929050565b60606000600c8054905090506000808267ffffffffffffffff811115613cd957613cd8614e1f565b5b604051908082528060200260200182016040528015613d1257816020015b613cff61455d565b815260200190600190039081613cf75790505b50905060005b83811015613f9557600c8181548110613d3457613d3361516c565b5b9060005260206000209060030201600201601a9054906101000a900460ff1615613f8a57600c8181548110613d6c57613d6b61516c565b5b9060005260206000209060030201604051806101200160405290816000820160009054906101000a900473ffffffffffffffffffffffffffffffffffffffff1673ffffffffffffffffffffffffffffffffffffffff1673ffffffffffffffffffffffffffffffffffffffff1681526020016001820160009054906101000a900473ffffffffffffffffffffffffffffffffffffffff1673ffffffffffffffffffffffffffffffffffffffff1673ffffffffffffffffffffffffffffffffffffffff1681526020016001820160149054906101000a90046bffffffffffffffffffffffff166bffffffffffffffffffffffff166bffffffffffffffffffffffff1681526020016002820160009054906101000a90046bffffffffffffffffffffffff166bffffffffffffffffffffffff166bffffffffffffffffffffffff16815260200160028201600c9054906101000a90046bffffffffffffffffffffffff166bffffffffffffffffffffffff166bffffffffffffffffffffffff1681526020016002820160189054906101000a900460ff1660ff1660ff1681526020016002820160199054906101000a900460ff1615151515815260200160028201601a9054906101000a900460ff1615151515815260200160028201601b9054906101000a900463ffffffff1663ffffffff1663ffffffff1681525050828481518110613f7857613f7761516c565b5b60200260200101819052508260010192505b806001019050613d18565b5060008267ffffffffffffffff811115613fb257613fb1614e1f565b5b604051908082528060200260200182016040528015613feb57816020015b613fd861455d565b815260200190600190039081613fd05790505b50905060005b8381101561403d5782818151811061400c5761400b61516c565b5b60200260200101518282815181106140275761402661516c565b5b6020026020010181905250806001019050613ff1565b508094505050505090565b600080600b80549050905060005b818110156140e5578373ffffffffffffffffffffffffffffffffffffffff16600b82815481106140895761408861516c565b5b9060005260206000200160009054906101000a900473ffffffffffffffffffffffffffffffffffffffff1673ffffffffffffffffffffffffffffffffffffffff16036140da576001925050506140ec565b806001019050614056565b5060009150505b919050565b6000806000600660009054906101000a900460ff1660ff160361411a5760008091509150614537565b6003600660009054906101000a900460ff1660ff1603614239573373ffffffffffffffffffffffffffffffffffffffff168360010160009054906101000a900473ffffffffffffffffffffffffffffffffffffffff1673ffffffffffffffffffffffffffffffffffffffff16036141ab578260020160009054906101000a90046bffffffffffffffffffffffff1691505b3373ffffffffffffffffffffffffffffffffffffffff168360000160009054906101000a900473ffffffffffffffffffffffffffffffffffffffff1673ffffffffffffffffffffffffffffffffffffffff160361422d578260010160149054906101000a90046bffffffffffffffffffffffff168261422a919061579d565b91505b81600091509150614537565b3373ffffffffffffffffffffffffffffffffffffffff168360000160009054906101000a900473ffffffffffffffffffffffffffffffffffffffff1673ffffffffffffffffffffffffffffffffffffffff161480156142e757503373ffffffffffffffffffffffffffffffffffffffff168360010160009054906101000a900473ffffffffffffffffffffffffffffffffffffffff1673ffffffffffffffffffffffffffffffffffffffff16145b1561433b578260020160009054906101000a90046bffffffffffffffffffffffff168360010160149054906101000a90046bffffffffffffffffffffffff16614330919061579d565b600091509150614537565b60003373ffffffffffffffffffffffffffffffffffffffff168460010160009054906101000a900473ffffffffffffffffffffffffffffffffffffffff1673ffffffffffffffffffffffffffffffffffffffff161480156143c15750600660009054906101000a900460ff1660ff168460020160189054906101000a900460ff1660ff16145b8061444d57503373ffffffffffffffffffffffffffffffffffffffff168460000160009054906101000a900473ffffffffffffffffffffffffffffffffffffffff1673ffffffffffffffffffffffffffffffffffffffff1614801561444c5750600660009054906101000a900460ff1660ff168460020160189054906101000a900460ff1660ff1614155b5b90508015614535578360010160149054906101000a90046bffffffffffffffffffffffff168460020160009054906101000a90046bffffffffffffffffffffffff16614499919061579d565b92503373ffffffffffffffffffffffffffffffffffffffff168460010160009054906101000a900473ffffffffffffffffffffffffffffffffffffffff1673ffffffffffffffffffffffffffffffffffffffff1614614514578360020160009054906101000a90046bffffffffffffffffffffffff16614532565b8360010160149054906101000a90046bffffffffffffffffffffffff165b91505b505b915091565b508054600082559060005260206000209081019061455a919061460c565b50565b604051806101200160405280600073ffffffffffffffffffffffffffffffffffffffff168152602001600073ffffffffffffffffffffffffffffffffffffffff16815260200160006bffffffffffffffffffffffff16815260200160006bffffffffffffffffffffffff16815260200160006bffffffffffffffffffffffff168152602001600060ff168152602001600015158152602001600015158152602001600063ffffffff1681525090565b5b8082111561462557600081600090555060010161460d565b5090565b6000604051905090565b600080fd5b600080fd5b60006bffffffffffffffffffffffff82169050919050565b61465e8161463d565b811461466957600080fd5b50565b60008135905061467b81614655565b92915050565b600060ff82169050919050565b61469781614681565b81146146a257600080fd5b50565b6000813590506146b48161468e565b92915050565b600080604083850312156146d1576146d0614633565b5b60006146df8582860161466c565b92505060206146f0858286016146a5565b9150509250929050565b600073ffffffffffffffffffffffffffffffffffffffff82169050919050565b6000614725826146fa565b9050919050565b6147358161471a565b811461474057600080fd5b50565b6000813590506147528161472c565b92915050565b60006020828403121561476e5761476d614633565b5b600061477c84828501614743565b91505092915050565b60008115159050919050565b61479a81614785565b82525050565b60006020820190506147b56000830184614791565b92915050565b6000602082840312156147d1576147d0614633565b5b60006147df848285016146a5565b91505092915050565b6147f18161463d565b82525050565b600060208201905061480c60008301846147e8565b92915050565b6000819050919050565b61482581614812565b811461483057600080fd5b50565b6000813590506148428161481c565b92915050565b60006020828403121561485e5761485d614633565b5b600061486c84828501614833565b91505092915050565b61487e8161471a565b82525050565b61488d81614681565b82525050565b600063ffffffff82169050919050565b6148ac81614893565b82525050565b6000610120820190506148c8600083018c614875565b6148d5602083018b614875565b6148e2604083018a6147e8565b6148ef60608301896147e8565b6148fc60808301886147e8565b61490960a0830187614884565b61491660c0830186614791565b61492360e0830185614791565b6149316101008301846148a3565b9a9950505050505050505050565b61494881614893565b811461495357600080fd5b50565b6000813590506149658161493f565b92915050565b60006020828403121561498157614980614633565b5b600061498f84828501614956565b91505092915050565b600081519050919050565b600082825260208201905092915050565b6000819050602082019050919050565b6149cd8161471a565b82525050565b6149dc8161463d565b82525050565b6149eb81614681565b82525050565b6149fa81614785565b82525050565b614a0981614893565b82525050565b61012082016000820151614a2660008501826149c4565b506020820151614a3960208501826149c4565b506040820151614a4c60408501826149d3565b506060820151614a5f60608501826149d3565b506080820151614a7260808501826149d3565b5060a0820151614a8560a08501826149e2565b5060c0820151614a9860c08501826149f1565b5060e0820151614aab60e08501826149f1565b50610100820151614ac0610100850182614a00565b50505050565b6000614ad28383614a0f565b6101208301905092915050565b6000602082019050919050565b6000614af782614998565b614b0181856149a3565b9350614b0c836149b4565b8060005b83811015614b3d578151614b248882614ac6565b9750614b2f83614adf565b925050600181019050614b10565b5085935050505092915050565b614b5381614812565b82525050565b7f4e487b7100000000000000000000000000000000000000000000000000000000600052602160045260246000fd5b60048110614b9957614b98614b59565b5b50565b6000819050614baa82614b88565b919050565b6000614bba82614b9c565b9050919050565b614bca81614baf565b82525050565b600060c0820190508181036000830152614bea8189614aec565b9050614bf96020830188614b4a565b614c066040830187614884565b614c136060830186614bc1565b614c206080830185614b4a565b614c2d60a08301846147e8565b979650505050505050565b60008060408385031215614c4f57614c4e614633565b5b6000614c5d85828601614743565b9250506020614c6e85828601614833565b9150509250929050565b6000602082019050614c8d60008301846148a3565b92915050565b6000602082019050614ca86000830184614b4a565b92915050565b60008060408385031215614cc557614cc4614633565b5b6000614cd385828601614956565b9250506020614ce485828601614833565b9150509250929050565b6000606082019050614d036000830186614875565b614d106020830185614875565b614d1d60408301846147e8565b949350505050565b6000602082019050614d3a6000830184614875565b92915050565b600080600060608486031215614d5957614d58614633565b5b6000614d6786828701614956565b9350506020614d788682870161466c565b9250506040614d898682870161466c565b9150509250925092565b6000602082019050614da86000830184614bc1565b92915050565b60008060408385031215614dc557614dc4614633565b5b6000614dd385828601614956565b9250506020614de48582860161466c565b9150509250929050565b6000602082019050614e036000830184614884565b92915050565b600080fd5b6000601f19601f8301169050919050565b7f4e487b7100000000000000000000000000000000000000000000000000000000600052604160045260246000fd5b614e5782614e0e565b810181811067ffffffffffffffff82111715614e7657614e75614e1f565b5b80604052505050565b6000614e89614629565b9050614e958282614e4e565b919050565b600067ffffffffffffffff821115614eb557614eb4614e1f565b5b602082029050602081019050919050565b600080fd5b6000614ede614ed984614e9a565b614e7f565b90508083825260208201905060208402830185811115614f0157614f00614ec6565b5b835b81811015614f2a5780614f168882614956565b845260208401935050602081019050614f03565b5050509392505050565b600082601f830112614f4957614f48614e09565b5b8135614f59848260208601614ecb565b91505092915050565b600060208284031215614f7857614f77614633565b5b600082013567ffffffffffffffff811115614f9657614f95614638565b5b614fa284828501614f34565b91505092915050565b600082825260208201905092915050565b7f416d6f756e7420746f6f206c6172676500000000000000000000000000000000600082015250565b6000614ff2601083614fab565b9150614ffd82614fbc565b602082019050919050565b6000602082019050818103600083015261502181614fe5565b9050919050565b7f42757920616d6f756e7420746f6f206c61726765000000000000000000000000600082015250565b600061505e601483614fab565b915061506982615028565b602082019050919050565b6000602082019050818103600083015261508d81615051565b9050919050565b7f43616c6c6572206973206e6f742061207374616666206d656d62657200000000600082015250565b60006150ca601c83614fab565b91506150d582615094565b602082019050919050565b600060208201905081810360008301526150f9816150bd565b9050919050565b7f496e76616c69642073746174652076616c756500000000000000000000000000600082015250565b6000615136601383614fab565b915061514182615100565b602082019050919050565b6000602082019050818103600083015261516581615129565b9050919050565b7f4e487b7100000000000000000000000000000000000000000000000000000000600052603260045260246000fd5b7f4e487b7100000000000000000000000000000000000000000000000000000000600052601260045260246000fd5b7f496e73756666696369656e742062616c616e636520666f722066656573000000600082015250565b6000615200601d83614fab565b915061520b826151ca565b602082019050919050565b6000602082019050818103600083015261522f816151f3565b9050919050565b7f4e6f7420656e6f7567682053686d65636b6c657320696e20436f6e7472616374600082015250565b600061526c602083614fab565b915061527782615236565b602082019050919050565b6000602082019050818103600083015261529b8161525f565b9050919050565b600081905092915050565b50565b60006152bd6000836152a2565b91506152c8826152ad565b600082019050919050565b60006152de826152b0565b9150819050919050565b7f5472616e73666572206661696c65640000000000000000000000000000000000600082015250565b600061531e600f83614fab565b9150615329826152e8565b602082019050919050565b6000602082019050818103600083015261534d81615311565b9050919050565b60006040820190506153696000830185614875565b61537660208301846147e8565b9392505050565b600060608201905061539260008301866148a3565b61539f6020830185614875565b6153ac60408301846147e8565b949350505050565b7f496e76616c696420706f736974696f6e00000000000000000000000000000000600082015250565b60006153ea601083614fab565b91506153f5826153b4565b602082019050919050565b60006020820190508181036000830152615419816153dd565b9050919050565b7f4e6f7420617574686f72697a6564206f722062657420696e6163746976650000600082015250565b6000615456601e83614fab565b915061546182615420565b602082019050919050565b6000602082019050818103600083015261548581615449565b9050919050565b7f526566756e64206661696c656400000000000000000000000000000000000000600082015250565b60006154c2600d83614fab565b91506154cd8261548c565b602082019050919050565b600060208201905081810360008301526154f1816154b5565b9050919050565b7f496e636f72726563742076616c75652073656e74000000000000000000000000600082015250565b600061552e601483614fab565b9150615539826154f8565b602082019050919050565b6000602082019050818103600083015261555d81615521565b9050919050565b7f43616c6c6572206973206e6f7420746865206f776e6572206f7220612073746160008201527f6666206d656d6265720000000000000000000000000000000000000000000000602082015250565b60006155c0602983614fab565b91506155cb82615564565b604082019050919050565b600060208201905081810360008301526155ef816155b3565b9050919050565b7f4e487b7100000000000000000000000000000000000000000000000000000000600052601160045260246000fd5b600061563082614812565b915061563b83614812565b9250828201905080821115615653576156526155f6565b5b92915050565b7f43616c6c6572206973206e6f7420746865206f776e6572000000000000000000600082015250565b600061568f601783614fab565b915061569a82615659565b602082019050919050565b600060208201905081810360008301526156be81615682565b9050919050565b7f426574206973206e6f7420666f722073616c6500000000000000000000000000600082015250565b60006156fb601383614fab565b9150615706826156c5565b602082019050919050565b6000602082019050818103600083015261572a816156ee565b9050919050565b7f496e76616c696420506f736974696f6e00000000000000000000000000000000600082015250565b6000615767601083614fab565b915061577282615731565b602082019050919050565b600060208201905081810360008301526157968161575a565b9050919050565b60006157a88261463d565b91506157b38361463d565b925082820190506bffffffffffffffffffffffff8111156157d7576157d66155f6565b5b9291505056fea26469706673582212201bcdbc3276ee7c8463619a0e1b844cbc5714facb06846a26257800622c54305564736f6c63430008140033",
  "linkReferences": {},
  "deployedLinkReferences": {}
}