{
  "_format": "hh-sol-artifact-1",
  "contractName": "predMarket",
  "sourceName": "contracts/Lock.sol",
  "abi": [
    {
      "inputs": [
        {
          "internalType": "uint256",
          "name": "timeToEnd",
          "type": "uint256"
        },
        {
          "internalType": "uint256",
          "name": "_odds1",
          "type": "uint256"
        },
        {
          "internalType": "uint256",
          "name": "_odds2",
          "type": "uint256"
        },
        {
          "internalType": "uint256",
          "name": "_buyIn",
          "type": "uint256"
        }
      ],
      "stateMutability": "payable",
      "type": "constructor"
    },
    {
      "inputs": [],
      "name": "ReentrancyGuardReentrantCall",
      "type": "error"
    },
    {
      "inputs": [
        {
          "internalType": "string",
          "name": "betAorB",
          "type": "string"
        }
      ],
      "name": "didNotBet",
      "type": "error"
    },
    {
      "anonymous": false,
      "inputs": [
        {
          "indexed": false,
          "internalType": "uint256",
          "name": "timeStamp",
          "type": "uint256"
        }
      ],
      "name": "contractDeployed",
      "type": "event"
    },
    {
      "anonymous": false,
      "inputs": [],
      "name": "underReview",
      "type": "event"
    },
    {
      "anonymous": false,
      "inputs": [
        {
          "indexed": true,
          "internalType": "address",
          "name": "sender",
          "type": "address"
        }
      ],
      "name": "userBoughtIn",
      "type": "event"
    },
    {
      "anonymous": false,
      "inputs": [
        {
          "indexed": true,
          "internalType": "address",
          "name": "sender",
          "type": "address"
        },
        {
          "indexed": false,
          "internalType": "uint256",
          "name": "betPlacedValue",
          "type": "uint256"
        }
      ],
      "name": "userPlacedBet",
      "type": "event"
    },
    {
      "anonymous": false,
      "inputs": [
        {
          "indexed": true,
          "internalType": "address",
          "name": "sender",
          "type": "address"
        },
        {
          "indexed": false,
          "internalType": "uint256",
          "name": "betReduced",
          "type": "uint256"
        }
      ],
      "name": "userReducedBet",
      "type": "event"
    },
    {
      "anonymous": false,
      "inputs": [
        {
          "indexed": true,
          "internalType": "address",
          "name": "sender",
          "type": "address"
        },
        {
          "indexed": false,
          "internalType": "string",
          "name": "betAorB",
          "type": "string"
        }
      ],
      "name": "userWithdrewBet",
      "type": "event"
    },
    {
      "anonymous": false,
      "inputs": [
        {
          "indexed": false,
          "internalType": "uint8",
          "name": "winnerIs",
          "type": "uint8"
        },
        {
          "indexed": false,
          "internalType": "uint256",
          "name": "votingTime",
          "type": "uint256"
        }
      ],
      "name": "winnerDeclaredVoting",
      "type": "event"
    },
    {
      "anonymous": false,
      "inputs": [
        {
          "indexed": false,
          "internalType": "uint8",
          "name": "winnerIs",
          "type": "uint8"
        }
      ],
      "name": "winnerFinalized",
      "type": "event"
    },
    {
      "inputs": [],
      "name": "BetA",
      "outputs": [
        {
          "internalType": "uint256",
          "name": "",
          "type": "uint256"
        }
      ],
      "stateMutability": "view",
      "type": "function"
    },
    {
      "inputs": [],
      "name": "BetB",
      "outputs": [
        {
          "internalType": "uint256",
          "name": "",
          "type": "uint256"
        }
      ],
      "stateMutability": "view",
      "type": "function"
    },
    {
      "inputs": [
        {
          "internalType": "uint256",
          "name": "",
          "type": "uint256"
        }
      ],
      "name": "arrayOfBettersA",
      "outputs": [
        {
          "internalType": "address payable",
          "name": "bettor",
          "type": "address"
        },
        {
          "internalType": "uint256",
          "name": "amount",
          "type": "uint256"
        }
      ],
      "stateMutability": "view",
      "type": "function"
    },
    {
      "inputs": [
        {
          "internalType": "uint256",
          "name": "",
          "type": "uint256"
        }
      ],
      "name": "arrayOfBettersB",
      "outputs": [
        {
          "internalType": "address payable",
          "name": "bettor",
          "type": "address"
        },
        {
          "internalType": "uint256",
          "name": "amount",
          "type": "uint256"
        }
      ],
      "stateMutability": "view",
      "type": "function"
    },
    {
      "inputs": [],
      "name": "assignEveryoneAmount",
      "outputs": [],
      "stateMutability": "nonpayable",
      "type": "function"
    },
    {
      "inputs": [],
      "name": "betOnBetA",
      "outputs": [
        {
          "internalType": "uint256",
          "name": "",
          "type": "uint256"
        }
      ],
      "stateMutability": "payable",
      "type": "function"
    },
    {
      "inputs": [],
      "name": "betOnBetB",
      "outputs": [
        {
          "internalType": "uint256",
          "name": "",
          "type": "uint256"
        }
      ],
      "stateMutability": "payable",
      "type": "function"
    },
    {
      "inputs": [],
      "name": "betterInfo",
      "outputs": [
        {
          "components": [
            {
              "internalType": "address payable",
              "name": "bettor",
              "type": "address"
            },
            {
              "internalType": "uint256",
              "name": "amount",
              "type": "uint256"
            },
            {
              "internalType": "uint256[2]",
              "name": "odds",
              "type": "uint256[2]"
            }
          ],
          "internalType": "struct predMarket.better",
          "name": "",
          "type": "tuple"
        },
        {
          "components": [
            {
              "internalType": "address payable",
              "name": "bettor",
              "type": "address"
            },
            {
              "internalType": "uint256",
              "name": "amount",
              "type": "uint256"
            },
            {
              "internalType": "uint256[2]",
              "name": "odds",
              "type": "uint256[2]"
            }
          ],
          "internalType": "struct predMarket.better",
          "name": "",
          "type": "tuple"
        }
      ],
      "stateMutability": "view",
      "type": "function"
    },
    {
      "inputs": [
        {
          "internalType": "address",
          "name": "",
          "type": "address"
        }
      ],
      "name": "boughtIn",
      "outputs": [
        {
          "internalType": "bool",
          "name": "",
          "type": "bool"
        }
      ],
      "stateMutability": "view",
      "type": "function"
    },
    {
      "inputs": [],
      "name": "disagree",
      "outputs": [
        {
          "internalType": "uint8",
          "name": "",
          "type": "uint8"
        }
      ],
      "stateMutability": "view",
      "type": "function"
    },
    {
      "inputs": [],
      "name": "disagreeUser",
      "outputs": [
        {
          "internalType": "address",
          "name": "",
          "type": "address"
        }
      ],
      "stateMutability": "view",
      "type": "function"
    },
    {
      "inputs": [
        {
          "internalType": "uint8",
          "name": "wlc",
          "type": "uint8"
        }
      ],
      "name": "endBetOwner",
      "outputs": [],
      "stateMutability": "nonpayable",
      "type": "function"
    },
    {
      "inputs": [
        {
          "internalType": "uint8",
          "name": "wlc",
          "type": "uint8"
        },
        {
          "internalType": "bool",
          "name": "disagreedUserCorrect",
          "type": "bool"
        },
        {
          "internalType": "bool",
          "name": "ownerCorrect",
          "type": "bool"
        }
      ],
      "name": "endBetStaff",
      "outputs": [],
      "stateMutability": "nonpayable",
      "type": "function"
    },
    {
      "inputs": [],
      "name": "endTime",
      "outputs": [
        {
          "internalType": "uint256",
          "name": "",
          "type": "uint256"
        }
      ],
      "stateMutability": "view",
      "type": "function"
    },
    {
      "inputs": [],
      "name": "getBalance",
      "outputs": [
        {
          "internalType": "uint256",
          "name": "",
          "type": "uint256"
        }
      ],
      "stateMutability": "view",
      "type": "function"
    },
    {
      "inputs": [],
      "name": "getRaffleState",
      "outputs": [
        {
          "internalType": "enum predMarket.RaffleState",
          "name": "",
          "type": "uint8"
        }
      ],
      "stateMutability": "view",
      "type": "function"
    },
    {
      "inputs": [],
      "name": "getUserAmount",
      "outputs": [
        {
          "internalType": "uint256",
          "name": "",
          "type": "uint256"
        }
      ],
      "stateMutability": "view",
      "type": "function"
    },
    {
      "inputs": [],
      "name": "isOwner",
      "outputs": [
        {
          "internalType": "bool",
          "name": "",
          "type": "bool"
        }
      ],
      "stateMutability": "view",
      "type": "function"
    },
    {
      "inputs": [],
      "name": "locked",
      "outputs": [
        {
          "internalType": "uint256",
          "name": "",
          "type": "uint256"
        }
      ],
      "stateMutability": "view",
      "type": "function"
    },
    {
      "inputs": [
        {
          "internalType": "uint256",
          "name": "",
          "type": "uint256"
        }
      ],
      "name": "oddsBetA",
      "outputs": [
        {
          "internalType": "uint256",
          "name": "",
          "type": "uint256"
        }
      ],
      "stateMutability": "view",
      "type": "function"
    },
    {
      "inputs": [
        {
          "internalType": "uint256",
          "name": "",
          "type": "uint256"
        }
      ],
      "name": "oddsBetB",
      "outputs": [
        {
          "internalType": "uint256",
          "name": "",
          "type": "uint256"
        }
      ],
      "stateMutability": "view",
      "type": "function"
    },
    {
      "inputs": [],
      "name": "payBuyIn",
      "outputs": [],
      "stateMutability": "payable",
      "type": "function"
    },
    {
      "inputs": [
        {
          "internalType": "uint256",
          "name": "reduction",
          "type": "uint256"
        }
      ],
      "name": "reduceBetA",
      "outputs": [],
      "stateMutability": "nonpayable",
      "type": "function"
    },
    {
      "inputs": [
        {
          "internalType": "uint256",
          "name": "reduction",
          "type": "uint256"
        }
      ],
      "name": "reduceBetB",
      "outputs": [],
      "stateMutability": "nonpayable",
      "type": "function"
    },
    {
      "inputs": [],
      "name": "startTime",
      "outputs": [
        {
          "internalType": "uint256",
          "name": "",
          "type": "uint256"
        }
      ],
      "stateMutability": "view",
      "type": "function"
    },
    {
      "inputs": [],
      "name": "viewPots",
      "outputs": [
        {
          "internalType": "uint256",
          "name": "",
          "type": "uint256"
        },
        {
          "internalType": "uint256",
          "name": "",
          "type": "uint256"
        }
      ],
      "stateMutability": "view",
      "type": "function"
    },
    {
      "inputs": [],
      "name": "voteDisagree",
      "outputs": [],
      "stateMutability": "payable",
      "type": "function"
    },
    {
      "inputs": [],
      "name": "voteTime",
      "outputs": [
        {
          "internalType": "uint256",
          "name": "",
          "type": "uint256"
        }
      ],
      "stateMutability": "view",
      "type": "function"
    },
    {
      "inputs": [
        {
          "internalType": "uint256",
          "name": "potentialBet",
          "type": "uint256"
        },
        {
          "internalType": "bool",
          "name": "addition",
          "type": "bool"
        }
      ],
      "name": "winLossBetA",
      "outputs": [
        {
          "internalType": "uint256",
          "name": "",
          "type": "uint256"
        },
        {
          "internalType": "uint256",
          "name": "",
          "type": "uint256"
        },
        {
          "internalType": "uint256",
          "name": "",
          "type": "uint256"
        },
        {
          "internalType": "uint256",
          "name": "",
          "type": "uint256"
        },
        {
          "internalType": "uint256",
          "name": "",
          "type": "uint256"
        },
        {
          "internalType": "uint256",
          "name": "",
          "type": "uint256"
        }
      ],
      "stateMutability": "view",
      "type": "function"
    },
    {
      "inputs": [
        {
          "internalType": "uint256",
          "name": "potentialBet",
          "type": "uint256"
        },
        {
          "internalType": "bool",
          "name": "addition",
          "type": "bool"
        }
      ],
      "name": "winLossBetB",
      "outputs": [
        {
          "internalType": "uint256",
          "name": "",
          "type": "uint256"
        },
        {
          "internalType": "uint256",
          "name": "",
          "type": "uint256"
        },
        {
          "internalType": "uint256",
          "name": "",
          "type": "uint256"
        },
        {
          "internalType": "uint256",
          "name": "",
          "type": "uint256"
        },
        {
          "internalType": "uint256",
          "name": "",
          "type": "uint256"
        },
        {
          "internalType": "uint256",
          "name": "",
          "type": "uint256"
        }
      ],
      "stateMutability": "view",
      "type": "function"
    },
    {
      "inputs": [],
      "name": "winner",
      "outputs": [
        {
          "internalType": "uint8",
          "name": "",
          "type": "uint8"
        }
      ],
      "stateMutability": "view",
      "type": "function"
    },
    {
      "inputs": [],
      "name": "withdraw",
      "outputs": [],
      "stateMutability": "nonpayable",
      "type": "function"
    }
  ],
  "bytecode": "0x60c060405273f39fd6e51aad88f6f4ce6ab8827279cfffb9226673ffffffffffffffffffffffffffffffffffffffff1660a09073ffffffffffffffffffffffffffffffffffffffff16815250600060015560006002556000600355604051620052863803806200528683398181016040528101906200007f919062000271565b600160008190555066b1a2bc2ec500003414620000d3576040517f08c379a0000000000000000000000000000000000000000000000000000000008152600401620000ca906200036a565b60405180910390fd5b3460016000828254620000e79190620003bb565b925050819055506000600460006101000a81548160ff02191690836004811115620001175762000116620003f6565b5b02179055504260068190555083600654620001339190620003bb565b6005819055503373ffffffffffffffffffffffffffffffffffffffff1660808173ffffffffffffffffffffffffffffffffffffffff168152505082600b60006002811062000186576200018562000425565b5b018190555081600b600160028110620001a457620001a362000425565b5b018190555081600d600060028110620001c257620001c162000425565b5b018190555082600d600160028110620001e057620001df62000425565b5b0181905550806009819055507f195c74847a887a9120567c59793a2b7de69ebd684fab50652dba98471128b0856006546040516200021f919062000465565b60405180910390a15050505062000482565b600080fd5b6000819050919050565b6200024b8162000236565b81146200025757600080fd5b50565b6000815190506200026b8162000240565b92915050565b600080600080608085870312156200028e576200028d62000231565b5b60006200029e878288016200025a565b9450506020620002b1878288016200025a565b9350506040620002c4878288016200025a565b9250506060620002d7878288016200025a565b91505092959194509250565b600082825260208201905092915050565b7f4465706c6f796d656e742072657175697265732065786163746c7920302e303560008201527f2045746865720000000000000000000000000000000000000000000000000000602082015250565b600062000352602683620002e3565b91506200035f82620002f4565b604082019050919050565b60006020820190508181036000830152620003858162000343565b9050919050565b7f4e487b7100000000000000000000000000000000000000000000000000000000600052601160045260246000fd5b6000620003c88262000236565b9150620003d58362000236565b9250828201905080821115620003f057620003ef6200038c565b5b92915050565b7f4e487b7100000000000000000000000000000000000000000000000000000000600052602160045260246000fd5b7f4e487b7100000000000000000000000000000000000000000000000000000000600052603260045260246000fd5b6200045f8162000236565b82525050565b60006020820190506200047c600083018462000454565b92915050565b60805160a051614da6620004e060003960008181612796015281816128b601528181612b6f015261394101526000818161191501528181612741015281816129e501528181612a3801528181612b1a0152613bff0152614da66000f3fe6080604052600436106101e35760003560e01c80636d3d0a8f116101025780639c43196711610095578063cf30901211610064578063cf3090121461069e578063cf8fc31d146106c9578063dfbf53ae146106f4578063e6e7ef611461071f576101e3565b80639c431967146105cb578063ae925caf14610608578063bcf93dd61461064a578063c2b4646814610675576101e3565b806385885d48116100d157806385885d48146104fc57806385b4ae43146105395780638f32d59b14610577578063969ef62f146105a2576101e3565b80636d3d0a8f14610464578063772b5f081461048f57806378e97925146104ba57806380687017146104e5576101e3565b8063312d42bf1161017a5780634f600698116101495780634f600698146103b0578063553e5d13146103d957806365a63b471461041b57806368e0b9f114610446576101e3565b8063312d42bf146103385780633197cbb6146103645780633ccfd60b1461038f5780633e937961146103a6576101e3565b8063115cbaf5116101b6578063115cbaf51461028757806312065fe0146102b25780631628f2ea146102dd5780632b1bd36d146102fb576101e3565b8063073f106a146101e8578063095d0c94146102145780630eaa23ae1461023f57806310282b2b1461027d575b600080fd5b3480156101f457600080fd5b506101fd610748565b60405161020b92919061431f565b60405180910390f35b34801561022057600080fd5b50610229610a90565b6040516102369190614358565b60405180910390f35b34801561024b57600080fd5b50610266600480360381019061026191906143a4565b610ca6565b6040516102749291906143e0565b60405180910390f35b610285610cfa565b005b34801561029357600080fd5b5061029c610e1c565b6040516102a99190614480565b60405180910390f35b3480156102be57600080fd5b506102c7610e33565b6040516102d49190614358565b60405180910390f35b6102e5610e3b565b6040516102f29190614358565b60405180910390f35b34801561030757600080fd5b50610322600480360381019061031d91906143a4565b61118a565b60405161032f9190614358565b60405180910390f35b34801561034457600080fd5b5061034d6111a5565b60405161035b92919061449b565b60405180910390f35b34801561037057600080fd5b506103796111b6565b6040516103869190614358565b60405180910390f35b34801561039b57600080fd5b506103a46111bc565b005b6103ae61177e565b005b3480156103bc57600080fd5b506103d760048036038101906103d291906144fd565b611913565b005b3480156103e557600080fd5b5061040060048036038101906103fb9190614562565b611b45565b604051610412969594939291906145a2565b60405180910390f35b34801561042757600080fd5b506104306123ab565b60405161043d9190614624565b60405180910390f35b61044e6123d1565b60405161045b9190614358565b60405180910390f35b34801561047057600080fd5b50610479612720565b604051610486919061464e565b60405180910390f35b34801561049b57600080fd5b506104a4612733565b6040516104b19190614358565b60405180910390f35b3480156104c657600080fd5b506104cf612739565b6040516104dc9190614358565b60405180910390f35b3480156104f157600080fd5b506104fa61273f565b005b34801561050857600080fd5b50610523600480360381019061051e9190614695565b612aa2565b60405161053091906146d1565b60405180910390f35b34801561054557600080fd5b50610560600480360381019061055b91906143a4565b612ac2565b60405161056e9291906143e0565b60405180910390f35b34801561058357600080fd5b5061058c612b16565b60405161059991906146d1565b60405180910390f35b3480156105ae57600080fd5b506105c960048036038101906105c491906143a4565b612bd3565b005b3480156105d757600080fd5b506105f260048036038101906105ed91906143a4565b612e36565b6040516105ff9190614358565b60405180910390f35b34801561061457600080fd5b5061062f600480360381019061062a9190614562565b612e51565b604051610641969594939291906145a2565b60405180910390f35b34801561065657600080fd5b5061065f6136b7565b60405161066c9190614358565b60405180910390f35b34801561068157600080fd5b5061069c600480360381019061069791906143a4565b6136bd565b005b3480156106aa57600080fd5b506106b3613920565b6040516106c09190614358565b60405180910390f35b3480156106d557600080fd5b506106de613926565b6040516106eb9190614358565b60405180910390f35b34801561070057600080fd5b5061070961392c565b604051610716919061464e565b60405180910390f35b34801561072b57600080fd5b50610746600480360381019061074191906146ec565b61393f565b005b61075061412b565b61075861412b565b61076061412b565b6000806000839050600084905060005b6010805490508110156108e557601081815481106107915761079061473f565b5b906000526020600020906004020160000160009054906101000a900473ffffffffffffffffffffffffffffffffffffffff1673ffffffffffffffffffffffffffffffffffffffff163373ffffffffffffffffffffffffffffffffffffffff16036108d257601081815481106108095761080861473f565b5b90600052602060002090600402016040518060600160405290816000820160009054906101000a900473ffffffffffffffffffffffffffffffffffffffff1673ffffffffffffffffffffffffffffffffffffffff1673ffffffffffffffffffffffffffffffffffffffff16815260200160018201548152602001600282016002806020026040519081016040528092919082600280156108be576020028201915b8154815260200190600101908083116108aa575b5050505050815250509250600194506108e5565b80806108dd9061479d565b915050610770565b5060005b601180549050811015610a5e576011818154811061090a5761090961473f565b5b906000526020600020906004020160000160009054906101000a900473ffffffffffffffffffffffffffffffffffffffff1673ffffffffffffffffffffffffffffffffffffffff163373ffffffffffffffffffffffffffffffffffffffff1603610a4b57601181815481106109825761098161473f565b5b90600052602060002090600402016040518060600160405290816000820160009054906101000a900473ffffffffffffffffffffffffffffffffffffffff1673ffffffffffffffffffffffffffffffffffffffff1673ffffffffffffffffffffffffffffffffffffffff1681526020016001820154815260200160028201600280602002604051908101604052809291908260028015610a37576020028201915b815481526020019060010190808311610a23575b505050505081525050915060019350610a5e565b8080610a569061479d565b9150506108e9565b5083158015610a6b575082155b15610a80578485965096505050505050610a8c565b81819650965050505050505b9091565b60008060005b601080549050811015610b98573373ffffffffffffffffffffffffffffffffffffffff1660108281548110610ace57610acd61473f565b5b906000526020600020906004020160000160009054906101000a900473ffffffffffffffffffffffffffffffffffffffff1673ffffffffffffffffffffffffffffffffffffffff16148015610b485750600060108281548110610b3457610b3361473f565b5b906000526020600020906004020160010154115b15610b855760108181548110610b6157610b6061473f565b5b90600052602060002090600402016001015482610b7e91906147e5565b9150610b98565b8080610b909061479d565b915050610a96565b5060005b601180549050811015610c9e573373ffffffffffffffffffffffffffffffffffffffff1660118281548110610bd457610bd361473f565b5b906000526020600020906004020160000160009054906101000a900473ffffffffffffffffffffffffffffffffffffffff1673ffffffffffffffffffffffffffffffffffffffff16148015610c4e5750600060118281548110610c3a57610c3961473f565b5b906000526020600020906004020160010154115b15610c8b5760118181548110610c6757610c6661473f565b5b90600052602060002090600402016001015482610c8491906147e5565b9150610c9e565b8080610c969061479d565b915050610b9c565b508091505090565b60118181548110610cb657600080fd5b90600052602060002090600402016000915090508060000160009054906101000a900473ffffffffffffffffffffffffffffffffffffffff16908060010154905082565b60055461012c42610d0b91906147e5565b10158015610d4d575060026004811115610d2857610d27614409565b5b600460009054906101000a900460ff166004811115610d4a57610d49614409565b5b14155b610d5657600080fd5b66b1a2bc2ec500003414610d6957600080fd5b3460016000828254610d7b91906147e5565b925050819055506002600460006101000a81548160ff02191690836004811115610da857610da7614409565b5b021790555033600f60006101000a81548173ffffffffffffffffffffffffffffffffffffffff021916908373ffffffffffffffffffffffffffffffffffffffff1602179055507f5f0bff752d51aa957c3be14864ffed5700e5b6f5d6695930ecec71d61ffdf05e60405160405180910390a1565b6000600460009054906101000a900460ff16905090565b600047905090565b6000806004811115610e5057610e4f614409565b5b600460009054906101000a900460ff166004811115610e7257610e71614409565b5b14610e7c57600080fd5b600a60003373ffffffffffffffffffffffffffffffffffffffff1673ffffffffffffffffffffffffffffffffffffffff16815260200190815260200160002060009054906101000a900460ff16610f08576040517f08c379a0000000000000000000000000000000000000000000000000000000008152600401610eff90614876565b60405180910390fd5b6005544210610f1657600080fd5b60005b601080549050811015611010573373ffffffffffffffffffffffffffffffffffffffff1660108281548110610f5157610f5061473f565b5b906000526020600020906004020160000160009054906101000a900473ffffffffffffffffffffffffffffffffffffffff1673ffffffffffffffffffffffffffffffffffffffff1603610ffd573460108281548110610fb357610fb261473f565b5b90600052602060002090600402016001016000828254610fd391906147e5565b925050819055503460026000828254610fec91906147e5565b925050819055506000915050611187565b80806110089061479d565b915050610f19565b600060405180606001604052803373ffffffffffffffffffffffffffffffffffffffff168152602001348152602001600b600280602002604051908101604052809291908260028015611078576020028201915b815481526020019060010190808311611064575b50505050508152509050346002600082825461109491906147e5565b92505081905550601081908060018154018082558091505060019003906000526020600020906004020160009091909190915060008201518160000160006101000a81548173ffffffffffffffffffffffffffffffffffffffff021916908373ffffffffffffffffffffffffffffffffffffffff1602179055506020820151816001015560408201518160020190600261112f929190614168565b5050503373ffffffffffffffffffffffffffffffffffffffff167f81ef55975e05e41e702c9c89f8cac507369ad0e7a34bc402286e37d53a476015346040516111789190614358565b60405180910390a26000925050505b90565b600b816002811061119a57600080fd5b016000915090505481565b600080600254600354915091509091565b60055481565b6111c4613db9565b6004808111156111d7576111d6614409565b5b600460009054906101000a900460ff1660048111156111f9576111f8614409565b5b14611239576040517f08c379a000000000000000000000000000000000000000000000000000000000815260040161123090614908565b60405180910390fd5b60008060005b6010805490508110156114b2573373ffffffffffffffffffffffffffffffffffffffff16601082815481106112775761127661473f565b5b906000526020600020906004020160000160009054906101000a900473ffffffffffffffffffffffffffffffffffffffff1673ffffffffffffffffffffffffffffffffffffffff161480156112f157506000601082815481106112dd576112dc61473f565b5b906000526020600020906004020160010154115b1561149f576010818154811061130a5761130961473f565b5b9060005260206000209060040201600101546002600082825461132d9190614928565b9250508190555060006010828154811061134a5761134961473f565b5b906000526020600020906004020160000160006101000a81548173ffffffffffffffffffffffffffffffffffffffff021916908373ffffffffffffffffffffffffffffffffffffffff1602179055503373ffffffffffffffffffffffffffffffffffffffff167f4b52799834d23bfea948619aa7c160a5a96acf9b64f454cd503b21f2165261386040516113dd906149a8565b60405180910390a260019250601081815481106113fd576113fc61473f565b5b906000526020600020906004020160000160009054906101000a900473ffffffffffffffffffffffffffffffffffffffff1673ffffffffffffffffffffffffffffffffffffffff166108fc6010838154811061145c5761145b61473f565b5b9060005260206000209060040201600101549081150290604051600060405180830381858888f19350505050158015611499573d6000803e3d6000fd5b506114b2565b80806114aa9061479d565b91505061123f565b5060005b601180549050811015611729573373ffffffffffffffffffffffffffffffffffffffff16601182815481106114ee576114ed61473f565b5b906000526020600020906004020160000160009054906101000a900473ffffffffffffffffffffffffffffffffffffffff1673ffffffffffffffffffffffffffffffffffffffff1614801561156857506000601182815481106115545761155361473f565b5b906000526020600020906004020160010154115b1561171657601181815481106115815761158061473f565b5b906000526020600020906004020160010154600360008282546115a49190614928565b925050819055506000601182815481106115c1576115c061473f565b5b906000526020600020906004020160000160006101000a81548173ffffffffffffffffffffffffffffffffffffffff021916908373ffffffffffffffffffffffffffffffffffffffff1602179055503373ffffffffffffffffffffffffffffffffffffffff167f4b52799834d23bfea948619aa7c160a5a96acf9b64f454cd503b21f21652613860405161165490614a14565b60405180910390a260019150601181815481106116745761167361473f565b5b906000526020600020906004020160000160009054906101000a900473ffffffffffffffffffffffffffffffffffffffff1673ffffffffffffffffffffffffffffffffffffffff166108fc601183815481106116d3576116d261473f565b5b9060005260206000209060040201600101549081150290604051600060405180830381858888f19350505050158015611710573d6000803e3d6000fd5b50611729565b80806117219061479d565b9150506114b6565b5081806117335750805b611772576040517f08c379a000000000000000000000000000000000000000000000000000000000815260040161176990614a80565b60405180910390fd5b505061177c613dff565b565b600a60003373ffffffffffffffffffffffffffffffffffffffff1673ffffffffffffffffffffffffffffffffffffffff16815260200190815260200160002060009054906101000a900460ff161561180b576040517f08c379a000000000000000000000000000000000000000000000000000000000815260040161180290614aec565b60405180910390fd5b600554421061181957600080fd5b600954341461185d576040517f08c379a000000000000000000000000000000000000000000000000000000000815260040161185490614b58565b60405180910390fd5b6001600a60003373ffffffffffffffffffffffffffffffffffffffff1673ffffffffffffffffffffffffffffffffffffffff16815260200190815260200160002060006101000a81548160ff02191690831515021790555034600160008282546118c791906147e5565b925050819055503373ffffffffffffffffffffffffffffffffffffffff167fcb021ae5d95ed890e772a211c93615593a2c86b8fab9d11353cfd9a34f67111060405160405180910390a2565b7f000000000000000000000000000000000000000000000000000000000000000073ffffffffffffffffffffffffffffffffffffffff163373ffffffffffffffffffffffffffffffffffffffff16146119a1576040517f08c379a000000000000000000000000000000000000000000000000000000000815260040161199890614bea565b60405180910390fd5b6005544210156119b057600080fd5b600060048111156119c4576119c3614409565b5b600460009054906101000a900460ff1660048111156119e6576119e5614409565b5b146119f057600080fd5b60008160ff161480611a05575060018160ff16145b80611a13575060028160ff16145b611a52576040517f08c379a0000000000000000000000000000000000000000000000000000000008152600401611a4990614c56565b60405180910390fd5b60008160ff1603611a7e576000600860006101000a81548160ff021916908360ff160217905550611ac8565b60018160ff1603611aaa576001600860006101000a81548160ff021916908360ff160217905550611ac7565b6002600860006101000a81548160ff021916908360ff1602179055505b5b61012c42611ad691906147e5565b6007819055506001600460006101000a81548160ff02191690836004811115611b0257611b01614409565b5b02179055507f929490df01efaa939914f3c800fca2faec5518e6da20283d3f9909fd8cc39c1681600754604051611b3a929190614c76565b60405180910390a150565b6000806000806000806000806003549050600060035490506000606060005b601080549050811015611c085760108181548110611b8557611b8461473f565b5b906000526020600020906004020160000160009054906101000a900473ffffffffffffffffffffffffffffffffffffffff1673ffffffffffffffffffffffffffffffffffffffff163373ffffffffffffffffffffffffffffffffffffffff1603611bf55760019550809250611c08565b8080611c009061479d565b915050611b64565b5084611e55578b15611e2d576001601080549050611c2691906147e5565b67ffffffffffffffff811115611c3f57611c3e614c9f565b5b604051908082528060200260200182016040528015611c7857816020015b611c6561412b565b815260200190600190039081611c5d5790505b50905060005b601080549050811015611d8e5760108181548110611c9f57611c9e61473f565b5b90600052602060002090600402016040518060600160405290816000820160009054906101000a900473ffffffffffffffffffffffffffffffffffffffff1673ffffffffffffffffffffffffffffffffffffffff1673ffffffffffffffffffffffffffffffffffffffff1681526020016001820154815260200160028201600280602002604051908101604052809291908260028015611d54576020028201915b815481526020019060010190808311611d40575b505050505081525050828281518110611d7057611d6f61473f565b5b60200260200101819052508080611d869061479d565b915050611c7e565b5060405180606001604052803373ffffffffffffffffffffffffffffffffffffffff1681526020018e8152602001600b600280602002604051908101604052809291908260028015611df5576020028201915b815481526020019060010190808311611de1575b50505050508152508160108054905081518110611e1557611e1461473f565b5b60200260200101819052506010805490509150611e50565b600080600080866010805490509a509a509a509a509a509a5050505050506123a1565b61211a565b8b15611f92576010805480602002602001604051908101604052809291908181526020016000905b82821015611f5457838290600052602060002090600402016040518060600160405290816000820160009054906101000a900473ffffffffffffffffffffffffffffffffffffffff1673ffffffffffffffffffffffffffffffffffffffff1673ffffffffffffffffffffffffffffffffffffffff1681526020016001820154815260200160028201600280602002604051908101604052809291908260028015611f3c576020028201915b815481526020019060010190808311611f28575b50505050508152505081526020019060010190611e7d565b5050505090508c818381518110611f6e57611f6d61473f565b5b6020026020010151602001818151611f8691906147e5565b91508181525050612119565b8c60108381548110611fa757611fa661473f565b5b906000526020600020906004020160010154106120f5576010805480602002602001604051908101604052809291908181526020016000905b828210156120b757838290600052602060002090600402016040518060600160405290816000820160009054906101000a900473ffffffffffffffffffffffffffffffffffffffff1673ffffffffffffffffffffffffffffffffffffffff1673ffffffffffffffffffffffffffffffffffffffff168152602001600182015481526020016002820160028060200260405190810160405280929190826002801561209f576020028201915b81548152602001906001019080831161208b575b50505050508152505081526020019060010190611fe0565b5050505090508c8183815181106120d1576120d061473f565b5b60200260200101516020018181516120e99190614928565b91508181525050612118565b600080600080866010805490509a509a509a509a509a509a5050505050506123a1565b5b5b600080600080600090505b845181101561236157600073ffffffffffffffffffffffffffffffffffffffff168582815181106121595761215861473f565b5b60200260200101516000015173ffffffffffffffffffffffffffffffffffffffff160361218f57808061218b9061479d565b9150505b600b6001600281106121a4576121a361473f565b5b0154600b6000600281106121bb576121ba61473f565b5b01548683815181106121d0576121cf61473f565b5b6020026020010151602001516121e69190614cce565b6121f09190614d3f565b935083915085810361232f5783881015612289578188600b60006002811061221b5761221a61473f565b5b0154600b6001600281106122325761223161473f565b5b01548b61223f9190614cce565b6122499190614d3f565b87848151811061225c5761225b61473f565b5b6020026020010151602001518a6010805490509e509e509e509e509e509e505050505050505050506123a1565b600b60006002811061229e5761229d61473f565b5b0154600b6001600281106122b5576122b461473f565b5b0154856122c29190614cce565b6122cc9190614d3f565b925081848683815181106122e3576122e261473f565b5b6020026020010151602001518784815181106123025761230161473f565b5b6020026020010151602001518a6010805490509e509e509e509e509e509e505050505050505050506123a1565b8388106123495783886123429190614928565b975061234e565b600097505b80806123599061479d565b915050612125565b50806000808688815181106123795761237861473f565b5b602002602001015160200151896010805490509d509d509d509d509d509d5050505050505050505b9295509295509295565b600f60009054906101000a900473ffffffffffffffffffffffffffffffffffffffff1681565b60008060048111156123e6576123e5614409565b5b600460009054906101000a900460ff16600481111561240857612407614409565b5b1461241257600080fd5b600554421061242057600080fd5b600a60003373ffffffffffffffffffffffffffffffffffffffff1673ffffffffffffffffffffffffffffffffffffffff16815260200190815260200160002060009054906101000a900460ff166124ac576040517f08c379a00000000000000000000000000000000000000000000000000000000081526004016124a390614876565b60405180910390fd5b60005b6011805490508110156125a6573373ffffffffffffffffffffffffffffffffffffffff16601182815481106124e7576124e661473f565b5b906000526020600020906004020160000160009054906101000a900473ffffffffffffffffffffffffffffffffffffffff1673ffffffffffffffffffffffffffffffffffffffff16036125935734601182815481106125495761254861473f565b5b9060005260206000209060040201600101600082825461256991906147e5565b92505081905550346003600082825461258291906147e5565b92505081905550600091505061271d565b808061259e9061479d565b9150506124af565b600060405180606001604052803373ffffffffffffffffffffffffffffffffffffffff168152602001348152602001600d60028060200260405190810160405280929190826002801561260e576020028201915b8154815260200190600101908083116125fa575b50505050508152509050346003600082825461262a91906147e5565b92505081905550601181908060018154018082558091505060019003906000526020600020906004020160009091909190915060008201518160000160006101000a81548173ffffffffffffffffffffffffffffffffffffffff021916908373ffffffffffffffffffffffffffffffffffffffff160217905550602082015181600101556040820151816002019060026126c5929190614168565b5050503373ffffffffffffffffffffffffffffffffffffffff167f81ef55975e05e41e702c9c89f8cac507369ad0e7a34bc402286e37d53a4760153460405161270e9190614358565b60405180910390a26000925050505b90565b600860019054906101000a900460ff1681565b60035481565b60065481565b7f000000000000000000000000000000000000000000000000000000000000000073ffffffffffffffffffffffffffffffffffffffff163373ffffffffffffffffffffffffffffffffffffffff1614806127e457507f000000000000000000000000000000000000000000000000000000000000000073ffffffffffffffffffffffffffffffffffffffff163373ffffffffffffffffffffffffffffffffffffffff16145b6127ed57600080fd5b6001600481111561280157612800614409565b5b600460009054906101000a900460ff16600481111561282357612822614409565b5b14801561283257506007544210155b8061287057506003600481111561284c5761284b614409565b5b600460009054906101000a900460ff16600481111561286e5761286d614409565b5b145b61287957600080fd5b6003600481111561288d5761288c614409565b5b600460009054906101000a900460ff1660048111156128af576128ae614409565b5b0361290d577f000000000000000000000000000000000000000000000000000000000000000073ffffffffffffffffffffffffffffffffffffffff163373ffffffffffffffffffffffffffffffffffffffff161461290c57600080fd5b5b6000600860009054906101000a900460ff1660ff16036129625761293360106011613e09565b60048060006101000a81548160ff0219169083600481111561295857612957614409565b5b02179055506129e3565b6001600860009054906101000a900460ff1660ff16036129b75761298860116010613e09565b60048060006101000a81548160ff021916908360048111156129ad576129ac614409565b5b02179055506129e2565b60048060006101000a81548160ff021916908360048111156129dc576129db614409565b5b02179055505b5b7f000000000000000000000000000000000000000000000000000000000000000073ffffffffffffffffffffffffffffffffffffffff163373ffffffffffffffffffffffffffffffffffffffff1603612aa0577f000000000000000000000000000000000000000000000000000000000000000073ffffffffffffffffffffffffffffffffffffffff166108fc6001549081150290604051600060405180830381858888f19350505050158015612a9e573d6000803e3d6000fd5b505b565b600a6020528060005260406000206000915054906101000a900460ff1681565b60108181548110612ad257600080fd5b90600052602060002090600402016000915090508060000160009054906101000a900473ffffffffffffffffffffffffffffffffffffffff16908060010154905082565b60007f000000000000000000000000000000000000000000000000000000000000000073ffffffffffffffffffffffffffffffffffffffff163373ffffffffffffffffffffffffffffffffffffffff161480612bbd57507f000000000000000000000000000000000000000000000000000000000000000073ffffffffffffffffffffffffffffffffffffffff163373ffffffffffffffffffffffffffffffffffffffff16145b15612bcb5760019050612bd0565b600090505b90565b612bdb613db9565b60006004811115612bef57612bee614409565b5b600460009054906101000a900460ff166004811115612c1157612c10614409565b5b14612c1b57600080fd5b6005544210612c2957600080fd5b60005b601080549050811015612e2a573373ffffffffffffffffffffffffffffffffffffffff1660108281548110612c6457612c6361473f565b5b906000526020600020906004020160000160009054906101000a900473ffffffffffffffffffffffffffffffffffffffff1673ffffffffffffffffffffffffffffffffffffffff1603612e16578160108281548110612cc657612cc561473f565b5b90600052602060002090600402016001015410612e11578160108281548110612cf257612cf161473f565b5b90600052602060002090600402016001016000828254612d129190614928565b925050819055508160026000828254612d2b9190614928565b9250508190555060108181548110612d4657612d4561473f565b5b906000526020600020906004020160000160009054906101000a900473ffffffffffffffffffffffffffffffffffffffff1673ffffffffffffffffffffffffffffffffffffffff166108fc839081150290604051600060405180830381858888f19350505050158015612dbd573d6000803e3d6000fd5b503373ffffffffffffffffffffffffffffffffffffffff167f4080eeaf9b5a3d774a9c60b04abf1f0855ae8c24cf827b7eed43fb5ea62de73283604051612e049190614358565b60405180910390a2612e2a565b612e25565b8080612e219061479d565b9150505b612c2c565b50612e33613dff565b50565b600d8160028110612e4657600080fd5b016000915090505481565b6000806000806000806000806002549050600060025490506000606060005b601180549050811015612f145760118181548110612e9157612e9061473f565b5b906000526020600020906004020160000160009054906101000a900473ffffffffffffffffffffffffffffffffffffffff1673ffffffffffffffffffffffffffffffffffffffff163373ffffffffffffffffffffffffffffffffffffffff1603612f015760019550809250612f14565b8080612f0c9061479d565b915050612e70565b5084613161578b15613139576001601180549050612f3291906147e5565b67ffffffffffffffff811115612f4b57612f4a614c9f565b5b604051908082528060200260200182016040528015612f8457816020015b612f7161412b565b815260200190600190039081612f695790505b50905060005b60118054905081101561309a5760118181548110612fab57612faa61473f565b5b90600052602060002090600402016040518060600160405290816000820160009054906101000a900473ffffffffffffffffffffffffffffffffffffffff1673ffffffffffffffffffffffffffffffffffffffff1673ffffffffffffffffffffffffffffffffffffffff1681526020016001820154815260200160028201600280602002604051908101604052809291908260028015613060576020028201915b81548152602001906001019080831161304c575b50505050508152505082828151811061307c5761307b61473f565b5b602002602001018190525080806130929061479d565b915050612f8a565b5060405180606001604052803373ffffffffffffffffffffffffffffffffffffffff1681526020018e8152602001600d600280602002604051908101604052809291908260028015613101576020028201915b8154815260200190600101908083116130ed575b505050505081525081601180549050815181106131215761312061473f565b5b6020026020010181905250601180549050915061315c565b600080600080866011805490509a509a509a509a509a509a5050505050506136ad565b613426565b8b1561329e576011805480602002602001604051908101604052809291908181526020016000905b8282101561326057838290600052602060002090600402016040518060600160405290816000820160009054906101000a900473ffffffffffffffffffffffffffffffffffffffff1673ffffffffffffffffffffffffffffffffffffffff1673ffffffffffffffffffffffffffffffffffffffff1681526020016001820154815260200160028201600280602002604051908101604052809291908260028015613248576020028201915b815481526020019060010190808311613234575b50505050508152505081526020019060010190613189565b5050505090508c81838151811061327a5761327961473f565b5b602002602001015160200181815161329291906147e5565b91508181525050613425565b8c601183815481106132b3576132b261473f565b5b90600052602060002090600402016001015410613401576011805480602002602001604051908101604052809291908181526020016000905b828210156133c357838290600052602060002090600402016040518060600160405290816000820160009054906101000a900473ffffffffffffffffffffffffffffffffffffffff1673ffffffffffffffffffffffffffffffffffffffff1673ffffffffffffffffffffffffffffffffffffffff16815260200160018201548152602001600282016002806020026040519081016040528092919082600280156133ab576020028201915b815481526020019060010190808311613397575b505050505081525050815260200190600101906132ec565b5050505090508c8183815181106133dd576133dc61473f565b5b60200260200101516020018181516133f59190614928565b91508181525050613424565b600080600080866011805490509a509a509a509a509a509a5050505050506136ad565b5b5b600080600080600090505b845181101561366d57600073ffffffffffffffffffffffffffffffffffffffff168582815181106134655761346461473f565b5b60200260200101516000015173ffffffffffffffffffffffffffffffffffffffff160361349b5780806134979061479d565b9150505b600d6001600281106134b0576134af61473f565b5b0154600d6000600281106134c7576134c661473f565b5b01548683815181106134dc576134db61473f565b5b6020026020010151602001516134f29190614cce565b6134fc9190614d3f565b935083915085810361363b5783881015613595578188600d6000600281106135275761352661473f565b5b0154600d60016002811061353e5761353d61473f565b5b01548b61354b9190614cce565b6135559190614d3f565b8789815181106135685761356761473f565b5b6020026020010151602001518a6011805490509e509e509e509e509e509e505050505050505050506136ad565b600d6000600281106135aa576135a961473f565b5b0154600d6001600281106135c1576135c061473f565b5b0154856135ce9190614cce565b6135d89190614d3f565b925081848683815181106135ef576135ee61473f565b5b60200260200101516020015187898151811061360e5761360d61473f565b5b6020026020010151602001518a6011805490509e509e509e509e509e509e505050505050505050506136ad565b83881061365557838861364e9190614928565b975061365a565b600097505b80806136659061479d565b915050613431565b50806000808688815181106136855761368461473f565b5b602002602001015160200151896011805490509d509d509d509d509d509d5050505050505050505b9295509295509295565b60075481565b6136c5613db9565b600060048111156136d9576136d8614409565b5b600460009054906101000a900460ff1660048111156136fb576136fa614409565b5b1461370557600080fd5b600554421061371357600080fd5b60005b601180549050811015613914573373ffffffffffffffffffffffffffffffffffffffff166011828154811061374e5761374d61473f565b5b906000526020600020906004020160000160009054906101000a900473ffffffffffffffffffffffffffffffffffffffff1673ffffffffffffffffffffffffffffffffffffffff16036139005781601182815481106137b0576137af61473f565b5b906000526020600020906004020160010154106138fb5781601182815481106137dc576137db61473f565b5b906000526020600020906004020160010160008282546137fc9190614928565b9250508190555081600360008282546138159190614928565b92505081905550601181815481106138305761382f61473f565b5b906000526020600020906004020160000160009054906101000a900473ffffffffffffffffffffffffffffffffffffffff1673ffffffffffffffffffffffffffffffffffffffff166108fc839081150290604051600060405180830381858888f193505050501580156138a7573d6000803e3d6000fd5b503373ffffffffffffffffffffffffffffffffffffffff167f4080eeaf9b5a3d774a9c60b04abf1f0855ae8c24cf827b7eed43fb5ea62de732836040516138ee9190614358565b60405180910390a2613914565b61390f565b808061390b9061479d565b9150505b613716565b5061391d613dff565b50565b60015481565b60025481565b600860009054906101000a900460ff1681565b7f000000000000000000000000000000000000000000000000000000000000000073ffffffffffffffffffffffffffffffffffffffff163373ffffffffffffffffffffffffffffffffffffffff161461399757600080fd5b61399f613db9565b6005544210156139ae57600080fd5b600260048111156139c2576139c1614409565b5b600460009054906101000a900460ff1660048111156139e4576139e3614409565b5b146139ee57600080fd5b60008360ff161480613a03575060018360ff16145b80613a11575060028360ff16145b613a50576040517f08c379a0000000000000000000000000000000000000000000000000000000008152600401613a4790614c56565b60405180910390fd5b60008360ff1603613a7c576000600860006101000a81548160ff021916908360ff160217905550613ac6565b60018360ff1603613aa8576001600860006101000a81548160ff021916908360ff160217905550613ac5565b6002600860006101000a81548160ff021916908360ff1602179055505b5b60011515821515148015613ade575060001515811515145b15613bb5576003600460006101000a81548160ff02191690836004811115613b0957613b08614409565b5b0217905550600f60009054906101000a900473ffffffffffffffffffffffffffffffffffffffff1673ffffffffffffffffffffffffffffffffffffffff166108fc6001549081150290604051600060405180830381858888f19350505050158015613b78573d6000803e3d6000fd5b507fa56c8e7c9a66a87039f1db52f66badcd44e5924c527f0e69f363c4bb95188cee83604051613ba8919061464e565b60405180910390a1613dac565b60001515821515148015613bcd575060011515811515145b15613ca2576003600460006101000a81548160ff02191690836004811115613bf857613bf7614409565b5b02179055507f000000000000000000000000000000000000000000000000000000000000000073ffffffffffffffffffffffffffffffffffffffff166108fc6001549081150290604051600060405180830381858888f19350505050158015613c65573d6000803e3d6000fd5b507fa56c8e7c9a66a87039f1db52f66badcd44e5924c527f0e69f363c4bb95188cee83604051613c95919061464e565b60405180910390a1613dab565b6003600460006101000a81548160ff02191690836004811115613cc857613cc7614409565b5b021790555060008360ff1603613cf85760015460026000828254613cec91906147e5565b92505081905550613d73565b60018360ff1603613d235760015460036000828254613d1791906147e5565b92505081905550613d72565b6002600154613d329190614d3f565b60026000828254613d4391906147e5565b925050819055506002600154613d599190614d3f565b60036000828254613d6a91906147e5565b925050819055505b5b7fa56c8e7c9a66a87039f1db52f66badcd44e5924c527f0e69f363c4bb95188cee83604051613da2919061464e565b60405180910390a15b5b613db4613dff565b505050565b600260005403613df5576040517f3ee5aeb500000000000000000000000000000000000000000000000000000000815260040160405180910390fd5b6002600081905550565b6001600081905550565b60005b818054905081101561412657600073ffffffffffffffffffffffffffffffffffffffff16828281548110613e4357613e4261473f565b5b906000526020600020906004020160000160009054906101000a900473ffffffffffffffffffffffffffffffffffffffff1673ffffffffffffffffffffffffffffffffffffffff1603613e9f578080613e9b9061479d565b9150505b600080838381548110613eb557613eb461473f565b5b9060005260206000209060040201600201600160028110613ed957613ed861473f565b5b0154848481548110613eee57613eed61473f565b5b9060005260206000209060040201600201600060028110613f1257613f1161473f565b5b0154858581548110613f2757613f2661473f565b5b906000526020600020906004020160010154613f439190614cce565b613f4d9190614d3f565b90505b8480549050821015614111576000858381548110613f7157613f7061473f565b5b90600052602060002090600402016001015411613f9b578180613f939061479d565b92505061410c565b80858381548110613faf57613fae61473f565b5b90600052602060002090600402016001015411156140425780858381548110613fdb57613fda61473f565b5b90600052602060002090600402016001016000828254613ffb9190614928565b92505081905550808484815481106140165761401561473f565b5b9060005260206000209060040201600101600082825461403691906147e5565b92505081905550614111565b8482815481106140555761405461473f565b5b906000526020600020906004020160010154816140729190614928565b90508482815481106140875761408661473f565b5b9060005260206000209060040201600101548484815481106140ac576140ab61473f565b5b906000526020600020906004020160010160008282546140cc91906147e5565b9250508190555060008583815481106140e8576140e761473f565b5b90600052602060002090600402016001018190555081806141089061479d565b9250505b613f50565b828061411c9061479d565b9350505050613e0c565b505050565b6040518060600160405280600073ffffffffffffffffffffffffffffffffffffffff168152602001600081526020016141626141a8565b81525090565b8260028101928215614197579160200282015b8281111561419657825182559160200191906001019061417b565b5b5090506141a491906141ca565b5090565b6040518060400160405280600290602082028036833780820191505090505090565b5b808211156141e35760008160009055506001016141cb565b5090565b600073ffffffffffffffffffffffffffffffffffffffff82169050919050565b6000614212826141e7565b9050919050565b61422281614207565b82525050565b6000819050919050565b61423b81614228565b82525050565b600060029050919050565b600081905092915050565b6000819050919050565b600061426d8383614232565b60208301905092915050565b6000602082019050919050565b61428f81614241565b614299818461424c565b92506142a482614257565b8060005b838110156142d55781516142bc8782614261565b96506142c783614279565b9250506001810190506142a8565b505050505050565b6080820160008201516142f36000850182614219565b5060208201516143066020850182614232565b5060408201516143196040850182614286565b50505050565b60006101008201905061433560008301856142dd565b61434260808301846142dd565b9392505050565b61435281614228565b82525050565b600060208201905061436d6000830184614349565b92915050565b600080fd5b61438181614228565b811461438c57600080fd5b50565b60008135905061439e81614378565b92915050565b6000602082840312156143ba576143b9614373565b5b60006143c88482850161438f565b91505092915050565b6143da81614207565b82525050565b60006040820190506143f560008301856143d1565b6144026020830184614349565b9392505050565b7f4e487b7100000000000000000000000000000000000000000000000000000000600052602160045260246000fd5b6005811061444957614448614409565b5b50565b600081905061445a82614438565b919050565b600061446a8261444c565b9050919050565b61447a8161445f565b82525050565b60006020820190506144956000830184614471565b92915050565b60006040820190506144b06000830185614349565b6144bd6020830184614349565b9392505050565b600060ff82169050919050565b6144da816144c4565b81146144e557600080fd5b50565b6000813590506144f7816144d1565b92915050565b60006020828403121561451357614512614373565b5b6000614521848285016144e8565b91505092915050565b60008115159050919050565b61453f8161452a565b811461454a57600080fd5b50565b60008135905061455c81614536565b92915050565b6000806040838503121561457957614578614373565b5b60006145878582860161438f565b92505060206145988582860161454d565b9150509250929050565b600060c0820190506145b76000830189614349565b6145c46020830188614349565b6145d16040830187614349565b6145de6060830186614349565b6145eb6080830185614349565b6145f860a0830184614349565b979650505050505050565b600061460e826141e7565b9050919050565b61461e81614603565b82525050565b60006020820190506146396000830184614615565b92915050565b614648816144c4565b82525050565b6000602082019050614663600083018461463f565b92915050565b61467281614603565b811461467d57600080fd5b50565b60008135905061468f81614669565b92915050565b6000602082840312156146ab576146aa614373565b5b60006146b984828501614680565b91505092915050565b6146cb8161452a565b82525050565b60006020820190506146e660008301846146c2565b92915050565b60008060006060848603121561470557614704614373565b5b6000614713868287016144e8565b93505060206147248682870161454d565b92505060406147358682870161454d565b9150509250925092565b7f4e487b7100000000000000000000000000000000000000000000000000000000600052603260045260246000fd5b7f4e487b7100000000000000000000000000000000000000000000000000000000600052601160045260246000fd5b60006147a882614228565b91507fffffffffffffffffffffffffffffffffffffffffffffffffffffffffffffffff82036147da576147d961476e565b5b600182019050919050565b60006147f082614228565b91506147fb83614228565b92508282019050808211156148135761481261476e565b5b92915050565b600082825260208201905092915050565b7f4d7573742062757920696e206265666f72652062657474696e67000000000000600082015250565b6000614860601a83614819565b915061486b8261482a565b602082019050919050565b6000602082019050818103600083015261488f81614853565b9050919050565b7f526166666c65206e6f7420696e20636f727265637420737461746520666f722060008201527f7769746864726177616c00000000000000000000000000000000000000000000602082015250565b60006148f2602a83614819565b91506148fd82614896565b604082019050919050565b60006020820190508181036000830152614921816148e5565b9050919050565b600061493382614228565b915061493e83614228565b92508282039050818111156149565761495561476e565b5b92915050565b7f4100000000000000000000000000000000000000000000000000000000000000600082015250565b6000614992600183614819565b915061499d8261495c565b602082019050919050565b600060208201905081810360008301526149c181614985565b9050919050565b7f4200000000000000000000000000000000000000000000000000000000000000600082015250565b60006149fe600183614819565b9150614a09826149c8565b602082019050919050565b60006020820190508181036000830152614a2d816149f1565b9050919050565b7f4e6f206265747320666f756e6420746f20776974686472617700000000000000600082015250565b6000614a6a601983614819565b9150614a7582614a34565b602082019050919050565b60006020820190508181036000830152614a9981614a5d565b9050919050565b7f5573657220616c726561647920626f7567687420696e00000000000000000000600082015250565b6000614ad6601683614819565b9150614ae182614aa0565b602082019050919050565b60006020820190508181036000830152614b0581614ac9565b9050919050565b7f496e636f7272656374206275792d696e20616d6f756e74000000000000000000600082015250565b6000614b42601783614819565b9150614b4d82614b0c565b602082019050919050565b60006020820190508181036000830152614b7181614b35565b9050919050565b7f4f6e6c7920746865206f776e65722063616e2063616c6c20746869732066756e60008201527f6374696f6e2e0000000000000000000000000000000000000000000000000000602082015250565b6000614bd4602683614819565b9150614bdf82614b78565b604082019050919050565b60006020820190508181036000830152614c0381614bc7565b9050919050565b7f696e76616c696420696e70757400000000000000000000000000000000000000600082015250565b6000614c40600d83614819565b9150614c4b82614c0a565b602082019050919050565b60006020820190508181036000830152614c6f81614c33565b9050919050565b6000604082019050614c8b600083018561463f565b614c986020830184614349565b9392505050565b7f4e487b7100000000000000000000000000000000000000000000000000000000600052604160045260246000fd5b6000614cd982614228565b9150614ce483614228565b9250828202614cf281614228565b91508282048414831517614d0957614d0861476e565b5b5092915050565b7f4e487b7100000000000000000000000000000000000000000000000000000000600052601260045260246000fd5b6000614d4a82614228565b9150614d5583614228565b925082614d6557614d64614d10565b5b82820490509291505056fea264697066735822122015c2e4c127372511e09157e53889987f51ffa84eaebd92c503e10098c72f65cf64736f6c63430008140033",
  "linkReferences": {},
  "deployedLinkReferences": {}
}