{
  "_format": "hh-sol-artifact-1",
  "contractName": "predMarket",
  "sourceName": "contracts/Lock.sol",
  "abi": [
    {
      "inputs": [
        {
          "internalType": "uint256",
          "name": "timeToEnd",
          "type": "uint256"
        },
        {
          "internalType": "uint256",
          "name": "_odds1",
          "type": "uint256"
        },
        {
          "internalType": "uint256",
          "name": "_odds2",
          "type": "uint256"
        }
      ],
      "stateMutability": "nonpayable",
      "type": "constructor"
    },
    {
      "inputs": [
        {
          "internalType": "string",
          "name": "betAorB",
          "type": "string"
        }
      ],
      "name": "didNotBet",
      "type": "error"
    },
    {
      "inputs": [],
      "name": "BetA",
      "outputs": [
        {
          "internalType": "uint256",
          "name": "",
          "type": "uint256"
        }
      ],
      "stateMutability": "view",
      "type": "function"
    },
    {
      "inputs": [],
      "name": "BetB",
      "outputs": [
        {
          "internalType": "uint256",
          "name": "",
          "type": "uint256"
        }
      ],
      "stateMutability": "view",
      "type": "function"
    },
    {
      "inputs": [
        {
          "internalType": "uint256",
          "name": "",
          "type": "uint256"
        }
      ],
      "name": "arrayOfBettersA",
      "outputs": [
        {
          "internalType": "address payable",
          "name": "bettor",
          "type": "address"
        },
        {
          "internalType": "uint256",
          "name": "amount",
          "type": "uint256"
        }
      ],
      "stateMutability": "view",
      "type": "function"
    },
    {
      "inputs": [
        {
          "internalType": "uint256",
          "name": "",
          "type": "uint256"
        }
      ],
      "name": "arrayOfBettersB",
      "outputs": [
        {
          "internalType": "address payable",
          "name": "bettor",
          "type": "address"
        },
        {
          "internalType": "uint256",
          "name": "amount",
          "type": "uint256"
        }
      ],
      "stateMutability": "view",
      "type": "function"
    },
    {
      "inputs": [],
      "name": "assignEveryoneAmount",
      "outputs": [],
      "stateMutability": "nonpayable",
      "type": "function"
    },
    {
      "inputs": [],
      "name": "betOnBetA",
      "outputs": [
        {
          "internalType": "uint256",
          "name": "",
          "type": "uint256"
        }
      ],
      "stateMutability": "payable",
      "type": "function"
    },
    {
      "inputs": [],
      "name": "betOnBetB",
      "outputs": [
        {
          "internalType": "uint256",
          "name": "",
          "type": "uint256"
        }
      ],
      "stateMutability": "payable",
      "type": "function"
    },
    {
      "inputs": [],
      "name": "betterInfo",
      "outputs": [
        {
          "components": [
            {
              "internalType": "address payable",
              "name": "bettor",
              "type": "address"
            },
            {
              "internalType": "uint256",
              "name": "amount",
              "type": "uint256"
            },
            {
              "internalType": "uint256[2]",
              "name": "odds",
              "type": "uint256[2]"
            }
          ],
          "internalType": "struct predMarket.better",
          "name": "",
          "type": "tuple"
        },
        {
          "components": [
            {
              "internalType": "address payable",
              "name": "bettor",
              "type": "address"
            },
            {
              "internalType": "uint256",
              "name": "amount",
              "type": "uint256"
            },
            {
              "internalType": "uint256[2]",
              "name": "odds",
              "type": "uint256[2]"
            }
          ],
          "internalType": "struct predMarket.better",
          "name": "",
          "type": "tuple"
        }
      ],
      "stateMutability": "view",
      "type": "function"
    },
    {
      "inputs": [],
      "name": "disagree",
      "outputs": [
        {
          "internalType": "uint8",
          "name": "",
          "type": "uint8"
        }
      ],
      "stateMutability": "view",
      "type": "function"
    },
    {
      "inputs": [
        {
          "internalType": "uint8",
          "name": "wlc",
          "type": "uint8"
        }
      ],
      "name": "endBet",
      "outputs": [],
      "stateMutability": "nonpayable",
      "type": "function"
    },
    {
      "inputs": [],
      "name": "endTime",
      "outputs": [
        {
          "internalType": "uint256",
          "name": "",
          "type": "uint256"
        }
      ],
      "stateMutability": "view",
      "type": "function"
    },
    {
      "inputs": [],
      "name": "getBalance",
      "outputs": [
        {
          "internalType": "uint256",
          "name": "",
          "type": "uint256"
        }
      ],
      "stateMutability": "view",
      "type": "function"
    },
    {
      "inputs": [],
      "name": "getRaffleState",
      "outputs": [
        {
          "internalType": "enum predMarket.RaffleState",
          "name": "",
          "type": "uint8"
        }
      ],
      "stateMutability": "view",
      "type": "function"
    },
    {
      "inputs": [],
      "name": "isOwner",
      "outputs": [
        {
          "internalType": "bool",
          "name": "",
          "type": "bool"
        }
      ],
      "stateMutability": "view",
      "type": "function"
    },
    {
      "inputs": [
        {
          "internalType": "uint256",
          "name": "",
          "type": "uint256"
        }
      ],
      "name": "oddsBetA",
      "outputs": [
        {
          "internalType": "uint256",
          "name": "",
          "type": "uint256"
        }
      ],
      "stateMutability": "view",
      "type": "function"
    },
    {
      "inputs": [
        {
          "internalType": "uint256",
          "name": "",
          "type": "uint256"
        }
      ],
      "name": "oddsBetB",
      "outputs": [
        {
          "internalType": "uint256",
          "name": "",
          "type": "uint256"
        }
      ],
      "stateMutability": "view",
      "type": "function"
    },
    {
      "inputs": [
        {
          "internalType": "uint256",
          "name": "reduction",
          "type": "uint256"
        }
      ],
      "name": "reduceBetA",
      "outputs": [],
      "stateMutability": "nonpayable",
      "type": "function"
    },
    {
      "inputs": [
        {
          "internalType": "uint256",
          "name": "reduction",
          "type": "uint256"
        }
      ],
      "name": "reduceBetB",
      "outputs": [],
      "stateMutability": "nonpayable",
      "type": "function"
    },
    {
      "inputs": [],
      "name": "startTime",
      "outputs": [
        {
          "internalType": "uint256",
          "name": "",
          "type": "uint256"
        }
      ],
      "stateMutability": "view",
      "type": "function"
    },
    {
      "inputs": [],
      "name": "viewPots",
      "outputs": [
        {
          "internalType": "uint256",
          "name": "",
          "type": "uint256"
        },
        {
          "internalType": "uint256",
          "name": "",
          "type": "uint256"
        }
      ],
      "stateMutability": "view",
      "type": "function"
    },
    {
      "inputs": [],
      "name": "voteDisagree",
      "outputs": [],
      "stateMutability": "nonpayable",
      "type": "function"
    },
    {
      "inputs": [],
      "name": "voteTime",
      "outputs": [
        {
          "internalType": "uint256",
          "name": "",
          "type": "uint256"
        }
      ],
      "stateMutability": "view",
      "type": "function"
    },
    {
      "inputs": [
        {
          "internalType": "uint256",
          "name": "potentialBet",
          "type": "uint256"
        },
        {
          "internalType": "bool",
          "name": "addition",
          "type": "bool"
        }
      ],
      "name": "winLossBetA",
      "outputs": [
        {
          "internalType": "uint256",
          "name": "",
          "type": "uint256"
        },
        {
          "internalType": "uint256",
          "name": "",
          "type": "uint256"
        },
        {
          "internalType": "uint256",
          "name": "",
          "type": "uint256"
        },
        {
          "internalType": "uint256",
          "name": "",
          "type": "uint256"
        }
      ],
      "stateMutability": "view",
      "type": "function"
    },
    {
      "inputs": [
        {
          "internalType": "uint256",
          "name": "potentialBet",
          "type": "uint256"
        },
        {
          "internalType": "bool",
          "name": "addition",
          "type": "bool"
        }
      ],
      "name": "winLossBetB",
      "outputs": [
        {
          "internalType": "uint256",
          "name": "",
          "type": "uint256"
        },
        {
          "internalType": "uint256",
          "name": "",
          "type": "uint256"
        },
        {
          "internalType": "uint256",
          "name": "",
          "type": "uint256"
        },
        {
          "internalType": "uint256",
          "name": "",
          "type": "uint256"
        }
      ],
      "stateMutability": "view",
      "type": "function"
    },
    {
      "inputs": [],
      "name": "winner",
      "outputs": [
        {
          "internalType": "uint8",
          "name": "",
          "type": "uint8"
        }
      ],
      "stateMutability": "view",
      "type": "function"
    },
    {
      "inputs": [],
      "name": "withdrawA",
      "outputs": [],
      "stateMutability": "nonpayable",
      "type": "function"
    },
    {
      "inputs": [],
      "name": "withdrawB",
      "outputs": [],
      "stateMutability": "nonpayable",
      "type": "function"
    }
  ],
  "bytecode": "0x60a06040526000805560006001553480156200001a57600080fd5b506040516200402d3803806200402d833981810160405281019062000040919062000180565b6000600260006101000a81548160ff02191690836003811115620000695762000068620001dc565b5b021790555042600481905550826004546200008591906200023a565b6003819055503373ffffffffffffffffffffffffffffffffffffffff1660808173ffffffffffffffffffffffffffffffffffffffff1681525050816007600060028110620000d857620000d762000275565b5b0181905550806007600160028110620000f657620000f562000275565b5b018190555080600960006002811062000114576200011362000275565b5b018190555081600960016002811062000132576200013162000275565b5b0181905550505050620002a4565b600080fd5b6000819050919050565b6200015a8162000145565b81146200016657600080fd5b50565b6000815190506200017a816200014f565b92915050565b6000806000606084860312156200019c576200019b62000140565b5b6000620001ac8682870162000169565b9350506020620001bf8682870162000169565b9250506040620001d28682870162000169565b9150509250925092565b7f4e487b7100000000000000000000000000000000000000000000000000000000600052602160045260246000fd5b7f4e487b7100000000000000000000000000000000000000000000000000000000600052601160045260246000fd5b6000620002478262000145565b9150620002548362000145565b92508282019050808211156200026f576200026e6200020b565b5b92915050565b7f4e487b7100000000000000000000000000000000000000000000000000000000600052603260045260246000fd5b608051613d5f620002ce60003960008181611b3001528181611d3e0152612ea30152613d5f6000f3fe60806040526004361061019c5760003560e01c8063772b5f08116100ec578063ae925caf1161008a578063cd3c6c2611610064578063cd3c6c261461059a578063cf8fc31d146105b1578063dfbf53ae146105dc578063ec7690bf146106075761019c565b8063ae925caf14610506578063bcf93dd614610546578063c2b46468146105715761019c565b806385b4ae43116100c657806385b4ae43146104375780638f32d59b14610475578063969ef62f146104a05780639c431967146104c95761019c565b8063772b5f08146103ca57806378e97925146103f557806380687017146104205761019c565b80632b1bd36d11610159578063553e5d1311610133578063553e5d131461032a57806368e0b9f11461036a5780636d3d0a8f146103885780637549487c146103b35761019c565b80632b1bd36d14610296578063312d42bf146102d35780633197cbb6146102ff5761019c565b8063073f106a146101a15780630eaa23ae146101cd57806310282b2b1461020b578063115cbaf51461022257806312065fe01461024d5780631628f2ea14610278575b600080fd5b3480156101ad57600080fd5b506101b6610630565b6040516101c4929190613560565b60405180910390f35b3480156101d957600080fd5b506101f460048036038101906101ef91906135bb565b610978565b604051610202929190613606565b60405180910390f35b34801561021757600080fd5b506102206109cc565b005b34801561022e57600080fd5b50610237610a8a565b60405161024491906136a6565b60405180910390f35b34801561025957600080fd5b50610262610aa1565b60405161026f91906136c1565b60405180910390f35b610280610aa9565b60405161028d91906136c1565b60405180910390f35b3480156102a257600080fd5b506102bd60048036038101906102b891906135bb565b610d0e565b6040516102ca91906136c1565b60405180910390f35b3480156102df57600080fd5b506102e8610d29565b6040516102f69291906136dc565b60405180910390f35b34801561030b57600080fd5b50610314610d3a565b60405161032191906136c1565b60405180910390f35b34801561033657600080fd5b50610351600480360381019061034c919061373d565b610d40565b604051610361949392919061377d565b60405180910390f35b61037261155f565b60405161037f91906136c1565b60405180910390f35b34801561039457600080fd5b5061039d6117c6565b6040516103aa91906137de565b60405180910390f35b3480156103bf57600080fd5b506103c86117d9565b005b3480156103d657600080fd5b506103df611b22565b6040516103ec91906136c1565b60405180910390f35b34801561040157600080fd5b5061040a611b28565b60405161041791906136c1565b60405180910390f35b34801561042c57600080fd5b50610435611b2e565b005b34801561044357600080fd5b5061045e600480360381019061045991906135bb565b611ce6565b60405161046c929190613606565b60405180910390f35b34801561048157600080fd5b5061048a611d3a565b6040516104979190613808565b60405180910390f35b3480156104ac57600080fd5b506104c760048036038101906104c291906135bb565b611da0565b005b3480156104d557600080fd5b506104f060048036038101906104eb91906135bb565b61204f565b6040516104fd91906136c1565b60405180910390f35b34801561051257600080fd5b5061052d6004803603810190610528919061373d565b61206a565b60405161053d949392919061377d565b60405180910390f35b34801561055257600080fd5b5061055b612888565b60405161056891906136c1565b60405180910390f35b34801561057d57600080fd5b50610598600480360381019061059391906135bb565b61288e565b005b3480156105a657600080fd5b506105af612b3e565b005b3480156105bd57600080fd5b506105c6612e88565b6040516105d391906136c1565b60405180910390f35b3480156105e857600080fd5b506105f1612e8e565b6040516105fe91906137de565b60405180910390f35b34801561061357600080fd5b5061062e6004803603810190610629919061384f565b612ea1565b005b61063861336c565b61064061336c565b61064861336c565b6000806000839050600084905060005b600b805490508110156107cd57600b81815481106106795761067861387c565b5b906000526020600020906004020160000160009054906101000a900473ffffffffffffffffffffffffffffffffffffffff1673ffffffffffffffffffffffffffffffffffffffff163373ffffffffffffffffffffffffffffffffffffffff16036107ba57600b81815481106106f1576106f061387c565b5b90600052602060002090600402016040518060600160405290816000820160009054906101000a900473ffffffffffffffffffffffffffffffffffffffff1673ffffffffffffffffffffffffffffffffffffffff1673ffffffffffffffffffffffffffffffffffffffff16815260200160018201548152602001600282016002806020026040519081016040528092919082600280156107a6576020028201915b815481526020019060010190808311610792575b5050505050815250509250600194506107cd565b80806107c5906138da565b915050610658565b5060005b600c8054905081101561094657600c81815481106107f2576107f161387c565b5b906000526020600020906004020160000160009054906101000a900473ffffffffffffffffffffffffffffffffffffffff1673ffffffffffffffffffffffffffffffffffffffff163373ffffffffffffffffffffffffffffffffffffffff160361093357600c818154811061086a5761086961387c565b5b90600052602060002090600402016040518060600160405290816000820160009054906101000a900473ffffffffffffffffffffffffffffffffffffffff1673ffffffffffffffffffffffffffffffffffffffff1673ffffffffffffffffffffffffffffffffffffffff168152602001600182015481526020016002820160028060200260405190810160405280929190826002801561091f576020028201915b81548152602001906001019080831161090b575b505050505081525050915060019350610946565b808061093e906138da565b9150506107d1565b5083158015610953575082155b15610968578485965096505050505050610974565b81819650965050505050505b9091565b600c818154811061098857600080fd5b90600052602060002090600402016000915090508060000160009054906101000a900473ffffffffffffffffffffffffffffffffffffffff16908060010154905082565b600160038111156109e0576109df61362f565b5b600260009054906101000a900460ff166003811115610a0257610a0161362f565b5b14610a0c57600080fd5b6001600660018282829054906101000a900460ff16610a2b9190613922565b92506101000a81548160ff021916908360ff1602179055506005600660019054906101000a900460ff1660ff1610610a885760028060006101000a81548160ff02191690836003811115610a8257610a8161362f565b5b02179055505b565b6000600260009054906101000a900460ff16905090565b600047905090565b6000806003811115610abe57610abd61362f565b5b600260009054906101000a900460ff166003811115610ae057610adf61362f565b5b14610aea57600080fd5b60005b600b80549050811015610be3573373ffffffffffffffffffffffffffffffffffffffff16600b8281548110610b2557610b2461387c565b5b906000526020600020906004020160000160009054906101000a900473ffffffffffffffffffffffffffffffffffffffff1673ffffffffffffffffffffffffffffffffffffffff1603610bd05734600b8281548110610b8757610b8661387c565b5b90600052602060002090600402016001016000828254610ba79190613957565b9250508190555034600080828254610bbf9190613957565b925050819055506000915050610d0b565b8080610bdb906138da565b915050610aed565b600060405180606001604052803373ffffffffffffffffffffffffffffffffffffffff1681526020013481526020016007600280602002604051908101604052809291908260028015610c4b576020028201915b815481526020019060010190808311610c37575b5050505050815250905034600080828254610c669190613957565b92505081905550600b81908060018154018082558091505060019003906000526020600020906004020160009091909190915060008201518160000160006101000a81548173ffffffffffffffffffffffffffffffffffffffff021916908373ffffffffffffffffffffffffffffffffffffffff16021790555060208201518160010155604082015181600201906002610d019291906133a9565b5050506000925050505b90565b60078160028110610d1e57600080fd5b016000915090505481565b600080600054600154915091509091565b60035481565b60008060008060008060015490506000606060005b600b80549050811015610df957600b8181548110610d7657610d7561387c565b5b906000526020600020906004020160000160009054906101000a900473ffffffffffffffffffffffffffffffffffffffff1673ffffffffffffffffffffffffffffffffffffffff163373ffffffffffffffffffffffffffffffffffffffff1603610de65760019450809250610df9565b8080610df1906138da565b915050610d55565b508361103a57881561101e576001600b80549050610e179190613957565b67ffffffffffffffff811115610e3057610e2f61398b565b5b604051908082528060200260200182016040528015610e6957816020015b610e5661336c565b815260200190600190039081610e4e5790505b50905060005b600b80549050811015610f7f57600b8181548110610e9057610e8f61387c565b5b90600052602060002090600402016040518060600160405290816000820160009054906101000a900473ffffffffffffffffffffffffffffffffffffffff1673ffffffffffffffffffffffffffffffffffffffff1673ffffffffffffffffffffffffffffffffffffffff1681526020016001820154815260200160028201600280602002604051908101604052809291908260028015610f45576020028201915b815481526020019060010190808311610f31575b505050505081525050828281518110610f6157610f6061387c565b5b60200260200101819052508080610f77906138da565b915050610e6f565b5060405180606001604052803373ffffffffffffffffffffffffffffffffffffffff1681526020018b81526020016007600280602002604051908101604052809291908260028015610fe6576020028201915b815481526020019060010190808311610fd2575b505050505081525081600b80549050815181106110065761100561387c565b5b6020026020010181905250600b805490509150611035565b600080600080975097509750975050505050611556565b6112f3565b881561117757600b805480602002602001604051908101604052809291908181526020016000905b8282101561113957838290600052602060002090600402016040518060600160405290816000820160009054906101000a900473ffffffffffffffffffffffffffffffffffffffff1673ffffffffffffffffffffffffffffffffffffffff1673ffffffffffffffffffffffffffffffffffffffff1681526020016001820154815260200160028201600280602002604051908101604052809291908260028015611121576020028201915b81548152602001906001019080831161110d575b50505050508152505081526020019060010190611062565b505050509050898183815181106111535761115261387c565b5b602002602001015160200181815161116b9190613957565b915081815250506112f2565b89600b838154811061118c5761118b61387c565b5b906000526020600020906004020160010154106112da57600b805480602002602001604051908101604052809291908181526020016000905b8282101561129c57838290600052602060002090600402016040518060600160405290816000820160009054906101000a900473ffffffffffffffffffffffffffffffffffffffff1673ffffffffffffffffffffffffffffffffffffffff1673ffffffffffffffffffffffffffffffffffffffff1681526020016001820154815260200160028201600280602002604051908101604052809291908260028015611284576020028201915b815481526020019060010190808311611270575b505050505081525050815260200190600101906111c5565b505050509050898183815181106112b6576112b561387c565b5b60200260200101516020018181516112ce91906139ba565b915081815250506112f1565b600080600080975097509750975050505050611556565b5b5b600080600080600090505b845181101561152257600073ffffffffffffffffffffffffffffffffffffffff168582815181106113325761133161387c565b5b60200260200101516000015173ffffffffffffffffffffffffffffffffffffffff1603611368578080611364906138da565b9150505b600760016002811061137d5761137c61387c565b5b015460076000600281106113945761139361387c565b5b01548683815181106113a9576113a861387c565b5b6020026020010151602001516113bf91906139ee565b6113c99190613a5f565b93508391508581036114f0578387101561145657818760076000600281106113f4576113f361387c565b5b0154600760016002811061140b5761140a61387c565b5b01548a61141891906139ee565b6114229190613a5f565b8784815181106114355761143461387c565b5b6020026020010151602001519b509b509b509b505050505050505050611556565b600760006002811061146b5761146a61387c565b5b015460076001600281106114825761148161387c565b5b01548561148f91906139ee565b6114999190613a5f565b925081848683815181106114b0576114af61387c565b5b6020026020010151602001518784815181106114cf576114ce61387c565b5b6020026020010151602001519b509b509b509b505050505050505050611556565b83871061150a57838761150391906139ba565b965061150f565b600096505b808061151a906138da565b9150506112fe565b508060008086888151811061153a5761153961387c565b5b6020026020010151602001519a509a509a509a50505050505050505b92959194509250565b60008060038111156115745761157361362f565b5b600260009054906101000a900460ff1660038111156115965761159561362f565b5b146115a057600080fd5b60005b600c8054905081101561169a573373ffffffffffffffffffffffffffffffffffffffff16600c82815481106115db576115da61387c565b5b906000526020600020906004020160000160009054906101000a900473ffffffffffffffffffffffffffffffffffffffff1673ffffffffffffffffffffffffffffffffffffffff16036116875734600c828154811061163d5761163c61387c565b5b9060005260206000209060040201600101600082825461165d9190613957565b9250508190555034600160008282546116769190613957565b9250508190555060009150506117c3565b8080611692906138da565b9150506115a3565b600060405180606001604052803373ffffffffffffffffffffffffffffffffffffffff1681526020013481526020016009600280602002604051908101604052809291908260028015611702576020028201915b8154815260200190600101908083116116ee575b50505050508152509050346001600082825461171e9190613957565b92505081905550600c81908060018154018082558091505060019003906000526020600020906004020160009091909190915060008201518160000160006101000a81548173ffffffffffffffffffffffffffffffffffffffff021916908373ffffffffffffffffffffffffffffffffffffffff160217905550602082015181600101556040820151816002019060026117b99291906133a9565b5050506000925050505b90565b600660019054906101000a900460ff1681565b600060038111156117ed576117ec61362f565b5b600260009054906101000a900460ff16600381111561180f5761180e61362f565b5b148061184d57506003808111156118295761182861362f565b5b600260009054906101000a900460ff16600381111561184b5761184a61362f565b5b145b61185657600080fd5b60005b600b80549050811015611b1f573373ffffffffffffffffffffffffffffffffffffffff16600b82815481106118915761189061387c565b5b906000526020600020906004020160000160009054906101000a900473ffffffffffffffffffffffffffffffffffffffff1673ffffffffffffffffffffffffffffffffffffffff1603611b0b576000600b82815481106118f4576118f361387c565b5b9060005260206000209060040201600101541115611b0657600060038111156119205761191f61362f565b5b600260009054906101000a900460ff1660038111156119425761194161362f565b5b0361198557600b818154811061195b5761195a61387c565b5b90600052602060002090600402016001015460008082825461197d91906139ba565b925050819055505b6000600b828154811061199b5761199a61387c565b5b906000526020600020906004020160000160009054906101000a900473ffffffffffffffffffffffffffffffffffffffff1673ffffffffffffffffffffffffffffffffffffffff16600b83815481106119f7576119f661387c565b5b906000526020600020906004020160010154604051611a1590613ac1565b60006040518083038185875af1925050503d8060008114611a52576040519150601f19603f3d011682016040523d82523d6000602084013e611a57565b606091505b5050905080611a9b576040517f08c379a0000000000000000000000000000000000000000000000000000000008152600401611a9290613b33565b60405180910390fd5b6000600b8381548110611ab157611ab061387c565b5b906000526020600020906004020160000160006101000a81548173ffffffffffffffffffffffffffffffffffffffff021916908373ffffffffffffffffffffffffffffffffffffffff16021790555050611b1f565b611b1a565b8080611b16906138da565b9150505b611859565b50565b60015481565b60045481565b7f000000000000000000000000000000000000000000000000000000000000000073ffffffffffffffffffffffffffffffffffffffff163373ffffffffffffffffffffffffffffffffffffffff1614611bbc576040517f08c379a0000000000000000000000000000000000000000000000000000000008152600401611bb390613bc5565b60405180910390fd5b60016003811115611bd057611bcf61362f565b5b600260009054906101000a900460ff166003811115611bf257611bf161362f565b5b14611bfc57600080fd5b600554421015611c0b57600080fd5b6000600660009054906101000a900460ff1660ff1603611c6157611c31600b600c61304a565b6003600260006101000a81548160ff02191690836003811115611c5757611c5661362f565b5b0217905550611ce4565b6001600660009054906101000a900460ff1660ff1603611cb757611c87600c600b61304a565b6003600260006101000a81548160ff02191690836003811115611cad57611cac61362f565b5b0217905550611ce3565b6003600260006101000a81548160ff02191690836003811115611cdd57611cdc61362f565b5b02179055505b5b565b600b8181548110611cf657600080fd5b90600052602060002090600402016000915090508060000160009054906101000a900473ffffffffffffffffffffffffffffffffffffffff16908060010154905082565b60007f000000000000000000000000000000000000000000000000000000000000000073ffffffffffffffffffffffffffffffffffffffff163373ffffffffffffffffffffffffffffffffffffffff1603611d985760019050611d9d565b600090505b90565b60006003811115611db457611db361362f565b5b600260009054906101000a900460ff166003811115611dd657611dd561362f565b5b14611de057600080fd5b60005b600b8054905081101561204b573373ffffffffffffffffffffffffffffffffffffffff16600b8281548110611e1b57611e1a61387c565b5b906000526020600020906004020160000160009054906101000a900473ffffffffffffffffffffffffffffffffffffffff1673ffffffffffffffffffffffffffffffffffffffff16036120375781600b8281548110611e7d57611e7c61387c565b5b90600052602060002090600402016001015410611fdf576000600b8281548110611eaa57611ea961387c565b5b906000526020600020906004020160000160009054906101000a900473ffffffffffffffffffffffffffffffffffffffff1673ffffffffffffffffffffffffffffffffffffffff1683604051611eff90613ac1565b60006040518083038185875af1925050503d8060008114611f3c576040519150601f19603f3d011682016040523d82523d6000602084013e611f41565b606091505b5050905080611f85576040517f08c379a0000000000000000000000000000000000000000000000000000000008152600401611f7c90613b33565b60405180910390fd5b82600b8381548110611f9a57611f9961387c565b5b90600052602060002090600402016001016000828254611fba91906139ba565b9250508190555082600080828254611fd291906139ba565b925050819055505061204b565b6001600b80549050611ff191906139ba565b8103612032576040517f3a0ef94800000000000000000000000000000000000000000000000000000000815260040161202990613c31565b60405180910390fd5b612046565b8080612042906138da565b9150505b611de3565b5050565b6009816002811061205f57600080fd5b016000915090505481565b600080600080600080805490506000606060005b600c8054905081101561212257600c818154811061209f5761209e61387c565b5b906000526020600020906004020160000160009054906101000a900473ffffffffffffffffffffffffffffffffffffffff1673ffffffffffffffffffffffffffffffffffffffff163373ffffffffffffffffffffffffffffffffffffffff160361210f5760019450809250612122565b808061211a906138da565b91505061207e565b5083612363578815612347576001600c805490506121409190613957565b67ffffffffffffffff8111156121595761215861398b565b5b60405190808252806020026020018201604052801561219257816020015b61217f61336c565b8152602001906001900390816121775790505b50905060005b600c805490508110156122a857600c81815481106121b9576121b861387c565b5b90600052602060002090600402016040518060600160405290816000820160009054906101000a900473ffffffffffffffffffffffffffffffffffffffff1673ffffffffffffffffffffffffffffffffffffffff1673ffffffffffffffffffffffffffffffffffffffff168152602001600182015481526020016002820160028060200260405190810160405280929190826002801561226e576020028201915b81548152602001906001019080831161225a575b50505050508152505082828151811061228a5761228961387c565b5b602002602001018190525080806122a0906138da565b915050612198565b5060405180606001604052803373ffffffffffffffffffffffffffffffffffffffff1681526020018b8152602001600960028060200260405190810160405280929190826002801561230f576020028201915b8154815260200190600101908083116122fb575b505050505081525081600c805490508151811061232f5761232e61387c565b5b6020026020010181905250600c80549050915061235e565b60008060008097509750975097505050505061287f565b61261c565b88156124a057600c805480602002602001604051908101604052809291908181526020016000905b8282101561246257838290600052602060002090600402016040518060600160405290816000820160009054906101000a900473ffffffffffffffffffffffffffffffffffffffff1673ffffffffffffffffffffffffffffffffffffffff1673ffffffffffffffffffffffffffffffffffffffff168152602001600182015481526020016002820160028060200260405190810160405280929190826002801561244a576020028201915b815481526020019060010190808311612436575b5050505050815250508152602001906001019061238b565b5050505090508981838151811061247c5761247b61387c565b5b60200260200101516020018181516124949190613957565b9150818152505061261b565b89600c83815481106124b5576124b461387c565b5b9060005260206000209060040201600101541061260357600c805480602002602001604051908101604052809291908181526020016000905b828210156125c557838290600052602060002090600402016040518060600160405290816000820160009054906101000a900473ffffffffffffffffffffffffffffffffffffffff1673ffffffffffffffffffffffffffffffffffffffff1673ffffffffffffffffffffffffffffffffffffffff16815260200160018201548152602001600282016002806020026040519081016040528092919082600280156125ad576020028201915b815481526020019060010190808311612599575b505050505081525050815260200190600101906124ee565b505050509050898183815181106125df576125de61387c565b5b60200260200101516020018181516125f791906139ba565b9150818152505061261a565b60008060008097509750975097505050505061287f565b5b5b600080600080600090505b845181101561284b57600073ffffffffffffffffffffffffffffffffffffffff1685828151811061265b5761265a61387c565b5b60200260200101516000015173ffffffffffffffffffffffffffffffffffffffff160361269157808061268d906138da565b9150505b60096001600281106126a6576126a561387c565b5b015460096000600281106126bd576126bc61387c565b5b01548683815181106126d2576126d161387c565b5b6020026020010151602001516126e891906139ee565b6126f29190613a5f565b9350839150858103612819578387101561277f578187600960006002811061271d5761271c61387c565b5b015460096001600281106127345761273361387c565b5b01548a61274191906139ee565b61274b9190613a5f565b87898151811061275e5761275d61387c565b5b6020026020010151602001519b509b509b509b50505050505050505061287f565b60096000600281106127945761279361387c565b5b015460096001600281106127ab576127aa61387c565b5b0154856127b891906139ee565b6127c29190613a5f565b925081848683815181106127d9576127d861387c565b5b6020026020010151602001518789815181106127f8576127f761387c565b5b6020026020010151602001519b509b509b509b50505050505050505061287f565b83871061283357838761282c91906139ba565b9650612838565b600096505b8080612843906138da565b915050612627565b50806000808688815181106128635761286261387c565b5b6020026020010151602001519a509a509a509a50505050505050505b92959194509250565b60055481565b600060038111156128a2576128a161362f565b5b600260009054906101000a900460ff1660038111156128c4576128c361362f565b5b146128ce57600080fd5b60005b600c80549050811015612b3a573373ffffffffffffffffffffffffffffffffffffffff16600c82815481106129095761290861387c565b5b906000526020600020906004020160000160009054906101000a900473ffffffffffffffffffffffffffffffffffffffff1673ffffffffffffffffffffffffffffffffffffffff1603612b265781600c828154811061296b5761296a61387c565b5b90600052602060002090600402016001015410612ace576000600c82815481106129985761299761387c565b5b906000526020600020906004020160000160009054906101000a900473ffffffffffffffffffffffffffffffffffffffff1673ffffffffffffffffffffffffffffffffffffffff16836040516129ed90613ac1565b60006040518083038185875af1925050503d8060008114612a2a576040519150601f19603f3d011682016040523d82523d6000602084013e612a2f565b606091505b5050905080612a73576040517f08c379a0000000000000000000000000000000000000000000000000000000008152600401612a6a90613b33565b60405180910390fd5b82600c8381548110612a8857612a8761387c565b5b90600052602060002090600402016001016000828254612aa891906139ba565b925050819055508260016000828254612ac191906139ba565b9250508190555050612b3a565b6001600c80549050612ae091906139ba565b8103612b21576040517f3a0ef948000000000000000000000000000000000000000000000000000000008152600401612b1890613c9d565b60405180910390fd5b612b35565b8080612b31906138da565b9150505b6128d1565b5050565b60006003811115612b5257612b5161362f565b5b600260009054906101000a900460ff166003811115612b7457612b7361362f565b5b1480612bb25750600380811115612b8e57612b8d61362f565b5b600260009054906101000a900460ff166003811115612bb057612baf61362f565b5b145b612bbb57600080fd5b60005b600c80549050811015612e85573373ffffffffffffffffffffffffffffffffffffffff16600c8281548110612bf657612bf561387c565b5b906000526020600020906004020160000160009054906101000a900473ffffffffffffffffffffffffffffffffffffffff1673ffffffffffffffffffffffffffffffffffffffff1603612e71576000600c8281548110612c5957612c5861387c565b5b9060005260206000209060040201600101541115612e6c5760006003811115612c8557612c8461362f565b5b600260009054906101000a900460ff166003811115612ca757612ca661362f565b5b03612ceb57600c8181548110612cc057612cbf61387c565b5b90600052602060002090600402016001015460016000828254612ce391906139ba565b925050819055505b6000600c8281548110612d0157612d0061387c565b5b906000526020600020906004020160000160009054906101000a900473ffffffffffffffffffffffffffffffffffffffff1673ffffffffffffffffffffffffffffffffffffffff16600c8381548110612d5d57612d5c61387c565b5b906000526020600020906004020160010154604051612d7b90613ac1565b60006040518083038185875af1925050503d8060008114612db8576040519150601f19603f3d011682016040523d82523d6000602084013e612dbd565b606091505b5050905080612e01576040517f08c379a0000000000000000000000000000000000000000000000000000000008152600401612df890613b33565b60405180910390fd5b6000600c8381548110612e1757612e1661387c565b5b906000526020600020906004020160000160006101000a81548173ffffffffffffffffffffffffffffffffffffffff021916908373ffffffffffffffffffffffffffffffffffffffff16021790555050612e85565b612e80565b8080612e7c906138da565b9150505b612bbe565b50565b60005481565b600660009054906101000a900460ff1681565b7f000000000000000000000000000000000000000000000000000000000000000073ffffffffffffffffffffffffffffffffffffffff163373ffffffffffffffffffffffffffffffffffffffff1614612f2f576040517f08c379a0000000000000000000000000000000000000000000000000000000008152600401612f2690613bc5565b60405180910390fd5b60008160ff161480612f44575060018160ff16145b80612f52575060028160ff16145b612f91576040517f08c379a0000000000000000000000000000000000000000000000000000000008152600401612f8890613d09565b60405180910390fd5b60008160ff1603612fbd576000600660006101000a81548160ff021916908360ff160217905550613007565b60018160ff1603612fe9576001600660006101000a81548160ff021916908360ff160217905550613006565b6002600660006101000a81548160ff021916908360ff1602179055505b5b6001600260006101000a81548160ff0219169083600381111561302d5761302c61362f565b5b021790555062015180426130419190613957565b60058190555050565b60005b818054905081101561336757600073ffffffffffffffffffffffffffffffffffffffff168282815481106130845761308361387c565b5b906000526020600020906004020160000160009054906101000a900473ffffffffffffffffffffffffffffffffffffffff1673ffffffffffffffffffffffffffffffffffffffff16036130e05780806130dc906138da565b9150505b6000808383815481106130f6576130f561387c565b5b906000526020600020906004020160020160016002811061311a5761311961387c565b5b015484848154811061312f5761312e61387c565b5b90600052602060002090600402016002016000600281106131535761315261387c565b5b01548585815481106131685761316761387c565b5b90600052602060002090600402016001015461318491906139ee565b61318e9190613a5f565b90505b84805490508210156133525760008583815481106131b2576131b161387c565b5b906000526020600020906004020160010154116131dc5781806131d4906138da565b92505061334d565b808583815481106131f0576131ef61387c565b5b9060005260206000209060040201600101541115613283578085838154811061321c5761321b61387c565b5b9060005260206000209060040201600101600082825461323c91906139ba565b92505081905550808484815481106132575761325661387c565b5b906000526020600020906004020160010160008282546132779190613957565b92505081905550613352565b8482815481106132965761329561387c565b5b906000526020600020906004020160010154816132b391906139ba565b90508482815481106132c8576132c761387c565b5b9060005260206000209060040201600101548484815481106132ed576132ec61387c565b5b9060005260206000209060040201600101600082825461330d9190613957565b9250508190555060008583815481106133295761332861387c565b5b9060005260206000209060040201600101819055508180613349906138da565b9250505b613191565b828061335d906138da565b935050505061304d565b505050565b6040518060600160405280600073ffffffffffffffffffffffffffffffffffffffff168152602001600081526020016133a36133e9565b81525090565b82600281019282156133d8579160200282015b828111156133d75782518255916020019190600101906133bc565b5b5090506133e5919061340b565b5090565b6040518060400160405280600290602082028036833780820191505090505090565b5b8082111561342457600081600090555060010161340c565b5090565b600073ffffffffffffffffffffffffffffffffffffffff82169050919050565b600061345382613428565b9050919050565b61346381613448565b82525050565b6000819050919050565b61347c81613469565b82525050565b600060029050919050565b600081905092915050565b6000819050919050565b60006134ae8383613473565b60208301905092915050565b6000602082019050919050565b6134d081613482565b6134da818461348d565b92506134e582613498565b8060005b838110156135165781516134fd87826134a2565b9650613508836134ba565b9250506001810190506134e9565b505050505050565b608082016000820151613534600085018261345a565b5060208201516135476020850182613473565b50604082015161355a60408501826134c7565b50505050565b600061010082019050613576600083018561351e565b613583608083018461351e565b9392505050565b600080fd5b61359881613469565b81146135a357600080fd5b50565b6000813590506135b58161358f565b92915050565b6000602082840312156135d1576135d061358a565b5b60006135df848285016135a6565b91505092915050565b6135f181613448565b82525050565b61360081613469565b82525050565b600060408201905061361b60008301856135e8565b61362860208301846135f7565b9392505050565b7f4e487b7100000000000000000000000000000000000000000000000000000000600052602160045260246000fd5b6004811061366f5761366e61362f565b5b50565b60008190506136808261365e565b919050565b600061369082613672565b9050919050565b6136a081613685565b82525050565b60006020820190506136bb6000830184613697565b92915050565b60006020820190506136d660008301846135f7565b92915050565b60006040820190506136f160008301856135f7565b6136fe60208301846135f7565b9392505050565b60008115159050919050565b61371a81613705565b811461372557600080fd5b50565b60008135905061373781613711565b92915050565b600080604083850312156137545761375361358a565b5b6000613762858286016135a6565b925050602061377385828601613728565b9150509250929050565b600060808201905061379260008301876135f7565b61379f60208301866135f7565b6137ac60408301856135f7565b6137b960608301846135f7565b95945050505050565b600060ff82169050919050565b6137d8816137c2565b82525050565b60006020820190506137f360008301846137cf565b92915050565b61380281613705565b82525050565b600060208201905061381d60008301846137f9565b92915050565b61382c816137c2565b811461383757600080fd5b50565b60008135905061384981613823565b92915050565b6000602082840312156138655761386461358a565b5b60006138738482850161383a565b91505092915050565b7f4e487b7100000000000000000000000000000000000000000000000000000000600052603260045260246000fd5b7f4e487b7100000000000000000000000000000000000000000000000000000000600052601160045260246000fd5b60006138e582613469565b91507fffffffffffffffffffffffffffffffffffffffffffffffffffffffffffffffff8203613917576139166138ab565b5b600182019050919050565b600061392d826137c2565b9150613938836137c2565b9250828201905060ff811115613951576139506138ab565b5b92915050565b600061396282613469565b915061396d83613469565b9250828201905080821115613985576139846138ab565b5b92915050565b7f4e487b7100000000000000000000000000000000000000000000000000000000600052604160045260246000fd5b60006139c582613469565b91506139d083613469565b92508282039050818111156139e8576139e76138ab565b5b92915050565b60006139f982613469565b9150613a0483613469565b9250828202613a1281613469565b91508282048414831517613a2957613a286138ab565b5b5092915050565b7f4e487b7100000000000000000000000000000000000000000000000000000000600052601260045260246000fd5b6000613a6a82613469565b9150613a7583613469565b925082613a8557613a84613a30565b5b828204905092915050565b600081905092915050565b50565b6000613aab600083613a90565b9150613ab682613a9b565b600082019050919050565b6000613acc82613a9e565b9150819050919050565b600082825260208201905092915050565b7f5472616e73666572206661696c65640000000000000000000000000000000000600082015250565b6000613b1d600f83613ad6565b9150613b2882613ae7565b602082019050919050565b60006020820190508181036000830152613b4c81613b10565b9050919050565b7f4f6e6c7920746865206f776e65722063616e2063616c6c20746869732066756e60008201527f6374696f6e2e0000000000000000000000000000000000000000000000000000602082015250565b6000613baf602683613ad6565b9150613bba82613b53565b604082019050919050565b60006020820190508181036000830152613bde81613ba2565b9050919050565b7f4e6f74204f6e2042657420410000000000000000000000000000000000000000600082015250565b6000613c1b600c83613ad6565b9150613c2682613be5565b602082019050919050565b60006020820190508181036000830152613c4a81613c0e565b9050919050565b7f4e6f74204f6e2042657420420000000000000000000000000000000000000000600082015250565b6000613c87600c83613ad6565b9150613c9282613c51565b602082019050919050565b60006020820190508181036000830152613cb681613c7a565b9050919050565b7f696e76616c696420696e70757400000000000000000000000000000000000000600082015250565b6000613cf3600d83613ad6565b9150613cfe82613cbd565b602082019050919050565b60006020820190508181036000830152613d2281613ce6565b905091905056fea26469706673582212200796debefbb6e0164de3ee3d8f276f322b5b17689501e4f0709a05135179794e64736f6c63430008130033",
  "linkReferences": {},
  "deployedLinkReferences": {}
}