{
  "_format": "hh-sol-artifact-1",
  "contractName": "predMarket2",
  "sourceName": "contracts/LockV2.sol",
  "abi": [
    {
      "inputs": [
        {
          "internalType": "uint256",
          "name": "_endTime",
          "type": "uint256"
        }
      ],
      "stateMutability": "payable",
      "type": "constructor"
    },
    {
      "inputs": [],
      "name": "ReentrancyGuardReentrantCall",
      "type": "error"
    },
    {
      "anonymous": false,
      "inputs": [],
      "name": "BetUnlisted",
      "type": "event"
    },
    {
      "anonymous": false,
      "inputs": [
        {
          "indexed": true,
          "internalType": "address",
          "name": "beneficiary",
          "type": "address"
        },
        {
          "indexed": false,
          "internalType": "uint256",
          "name": "amount",
          "type": "uint256"
        }
      ],
      "name": "FundsRedistributed",
      "type": "event"
    },
    {
      "anonymous": false,
      "inputs": [],
      "name": "PayoutProcessed",
      "type": "event"
    },
    {
      "anonymous": false,
      "inputs": [],
      "name": "userBoughtBet",
      "type": "event"
    },
    {
      "anonymous": false,
      "inputs": [],
      "name": "userCreatedABet",
      "type": "event"
    },
    {
      "anonymous": false,
      "inputs": [],
      "name": "userReListedBet",
      "type": "event"
    },
    {
      "anonymous": false,
      "inputs": [],
      "name": "userVoted",
      "type": "event"
    },
    {
      "anonymous": false,
      "inputs": [],
      "name": "userWithdrew",
      "type": "event"
    },
    {
      "anonymous": false,
      "inputs": [],
      "name": "winnerDeclaredVoting",
      "type": "event"
    },
    {
      "inputs": [],
      "name": "allBets_Balance",
      "outputs": [
        {
          "components": [
            {
              "internalType": "address",
              "name": "deployer",
              "type": "address"
            },
            {
              "internalType": "uint256",
              "name": "amountDeployerLocked",
              "type": "uint256"
            },
            {
              "internalType": "address",
              "name": "owner",
              "type": "address"
            },
            {
              "internalType": "uint256",
              "name": "amountBuyerLocked",
              "type": "uint256"
            },
            {
              "internalType": "uint256",
              "name": "amountToBuyFor",
              "type": "uint256"
            },
            {
              "internalType": "uint8",
              "name": "conditionForBuyerToWin",
              "type": "uint8"
            },
            {
              "internalType": "bool",
              "name": "selling",
              "type": "bool"
            },
            {
              "internalType": "uint256",
              "name": "positionInArray",
              "type": "uint256"
            }
          ],
          "internalType": "struct predMarket2.bet[]",
          "name": "",
          "type": "tuple[]"
        },
        {
          "internalType": "uint256",
          "name": "",
          "type": "uint256"
        },
        {
          "internalType": "uint8",
          "name": "",
          "type": "uint8"
        },
        {
          "internalType": "enum predMarket2.RaffleState",
          "name": "",
          "type": "uint8"
        },
        {
          "internalType": "uint256",
          "name": "",
          "type": "uint256"
        },
        {
          "internalType": "uint256",
          "name": "",
          "type": "uint256"
        },
        {
          "internalType": "uint256",
          "name": "",
          "type": "uint256"
        },
        {
          "internalType": "uint256",
          "name": "",
          "type": "uint256"
        }
      ],
      "stateMutability": "view",
      "type": "function"
    },
    {
      "inputs": [
        {
          "internalType": "uint256",
          "name": "",
          "type": "uint256"
        }
      ],
      "name": "arrayOfBets",
      "outputs": [
        {
          "internalType": "address",
          "name": "deployer",
          "type": "address"
        },
        {
          "internalType": "uint256",
          "name": "amountDeployerLocked",
          "type": "uint256"
        },
        {
          "internalType": "address",
          "name": "owner",
          "type": "address"
        },
        {
          "internalType": "uint256",
          "name": "amountBuyerLocked",
          "type": "uint256"
        },
        {
          "internalType": "uint256",
          "name": "amountToBuyFor",
          "type": "uint256"
        },
        {
          "internalType": "uint8",
          "name": "conditionForBuyerToWin",
          "type": "uint8"
        },
        {
          "internalType": "bool",
          "name": "selling",
          "type": "bool"
        },
        {
          "internalType": "uint256",
          "name": "positionInArray",
          "type": "uint256"
        }
      ],
      "stateMutability": "view",
      "type": "function"
    },
    {
      "inputs": [
        {
          "internalType": "address",
          "name": "",
          "type": "address"
        },
        {
          "internalType": "uint256",
          "name": "",
          "type": "uint256"
        }
      ],
      "name": "betsByUser",
      "outputs": [
        {
          "internalType": "uint256",
          "name": "",
          "type": "uint256"
        }
      ],
      "stateMutability": "view",
      "type": "function"
    },
    {
      "inputs": [
        {
          "internalType": "uint256",
          "name": "positionOfArray",
          "type": "uint256"
        }
      ],
      "name": "buyABet",
      "outputs": [],
      "stateMutability": "payable",
      "type": "function"
    },
    {
      "inputs": [],
      "name": "creatorLocked",
      "outputs": [
        {
          "internalType": "uint256",
          "name": "",
          "type": "uint256"
        }
      ],
      "stateMutability": "view",
      "type": "function"
    },
    {
      "inputs": [
        {
          "internalType": "uint8",
          "name": "_winner",
          "type": "uint8"
        },
        {
          "internalType": "uint8",
          "name": "_disagreeCorrect",
          "type": "uint8"
        }
      ],
      "name": "declareWinner",
      "outputs": [],
      "stateMutability": "nonpayable",
      "type": "function"
    },
    {
      "inputs": [],
      "name": "disagreeCorrect",
      "outputs": [
        {
          "internalType": "uint8",
          "name": "",
          "type": "uint8"
        }
      ],
      "stateMutability": "view",
      "type": "function"
    },
    {
      "inputs": [],
      "name": "disagreeWithOwner",
      "outputs": [],
      "stateMutability": "payable",
      "type": "function"
    },
    {
      "inputs": [],
      "name": "disagreedUser",
      "outputs": [
        {
          "internalType": "address",
          "name": "",
          "type": "address"
        }
      ],
      "stateMutability": "view",
      "type": "function"
    },
    {
      "inputs": [
        {
          "internalType": "uint256",
          "name": "positionOfArray",
          "type": "uint256"
        },
        {
          "internalType": "uint256",
          "name": "newDeployPrice",
          "type": "uint256"
        },
        {
          "internalType": "uint256",
          "name": "newAskingPrice",
          "type": "uint256"
        }
      ],
      "name": "editADeployedBet",
      "outputs": [],
      "stateMutability": "payable",
      "type": "function"
    },
    {
      "inputs": [],
      "name": "endOfVoting",
      "outputs": [
        {
          "internalType": "uint256",
          "name": "",
          "type": "uint256"
        }
      ],
      "stateMutability": "view",
      "type": "function"
    },
    {
      "inputs": [],
      "name": "owner",
      "outputs": [
        {
          "internalType": "address",
          "name": "",
          "type": "address"
        }
      ],
      "stateMutability": "view",
      "type": "function"
    },
    {
      "inputs": [
        {
          "internalType": "uint256",
          "name": "amountToBuy",
          "type": "uint256"
        },
        {
          "internalType": "uint8",
          "name": "conditionToWIn",
          "type": "uint8"
        }
      ],
      "name": "sellANewBet",
      "outputs": [],
      "stateMutability": "payable",
      "type": "function"
    },
    {
      "inputs": [
        {
          "internalType": "uint256",
          "name": "positionOfArray",
          "type": "uint256"
        },
        {
          "internalType": "uint256",
          "name": "newAskingPrice",
          "type": "uint256"
        }
      ],
      "name": "sellAnExistingBet",
      "outputs": [],
      "stateMutability": "nonpayable",
      "type": "function"
    },
    {
      "inputs": [],
      "name": "staffPay",
      "outputs": [
        {
          "internalType": "uint256",
          "name": "",
          "type": "uint256"
        }
      ],
      "stateMutability": "view",
      "type": "function"
    },
    {
      "inputs": [],
      "name": "transferOwnerAmount",
      "outputs": [],
      "stateMutability": "nonpayable",
      "type": "function"
    },
    {
      "inputs": [],
      "name": "transferStaffAmount",
      "outputs": [],
      "stateMutability": "nonpayable",
      "type": "function"
    },
    {
      "inputs": [
        {
          "internalType": "uint256[]",
          "name": "positionsOfArray",
          "type": "uint256[]"
        }
      ],
      "name": "unlistBets",
      "outputs": [],
      "stateMutability": "nonpayable",
      "type": "function"
    },
    {
      "inputs": [],
      "name": "winner",
      "outputs": [
        {
          "internalType": "uint8",
          "name": "",
          "type": "uint8"
        }
      ],
      "stateMutability": "view",
      "type": "function"
    },
    {
      "inputs": [],
      "name": "withdraw",
      "outputs": [],
      "stateMutability": "nonpayable",
      "type": "function"
    }
  ],
  "bytecode": "0x60a0604052604051806020016040528073f39fd6e51aad88f6f4ce6ab8827279cfffb9226673ffffffffffffffffffffffffffffffffffffffff1673ffffffffffffffffffffffffffffffffffffffff168152506001906001620000659291906200010a565b506040516200387d3803806200387d83398181016040528101906200008b9190620001f8565b6001600081905550346005819055503373ffffffffffffffffffffffffffffffffffffffff1660808173ffffffffffffffffffffffffffffffffffffffff1681525050806004819055506000600660166101000a81548160ff02191690836003811115620000fe57620000fd6200022a565b5b02179055505062000259565b82805482825590600052602060002090810192821562000186579160200282015b82811115620001855782518260006101000a81548173ffffffffffffffffffffffffffffffffffffffff021916908373ffffffffffffffffffffffffffffffffffffffff160217905550916020019190600101906200012b565b5b50905062000195919062000199565b5090565b5b80821115620001b45760008160009055506001016200019a565b5090565b600080fd5b6000819050919050565b620001d281620001bd565b8114620001de57600080fd5b50565b600081519050620001f281620001c7565b92915050565b600060208284031215620002115762000210620001b8565b5b60006200022184828501620001e1565b91505092915050565b7f4e487b7100000000000000000000000000000000000000000000000000000000600052602160045260246000fd5b6080516135ec62000291600039600081816104e9015281816105a6015281816119060152818161209d01526121ea01526135ec6000f3fe60806040526004361061011f5760003560e01c80637e887332116100a0578063b4a36fd711610064578063b4a36fd714610370578063c16c344b14610387578063d38399ec146103b2578063dfbf53ae146103db578063ee9891f1146104065761011f565b80637e887332146102b95780638da5cb5b146102e45780639651b1831461030f57806397ecf9001461032b578063a6c69ffe146103475761011f565b80635d926148116100e75780635d926148146101fe578063607c9cea146102155780636afedac5146102405780637672ef7b146102725780637c54bafe1461027c5761011f565b80631d4aa3c61461012457806322e5d0b71461014f57806330dda1c2146101785780633658957e146101a35780633ccfd60b146101e7575b600080fd5b34801561013057600080fd5b50610139610422565b60405161014691906127e8565b60405180910390f35b34801561015b57600080fd5b5061017660048036038101906101719190612850565b610448565b005b34801561018457600080fd5b5061018d61081f565b60405161019a91906128a9565b60405180910390f35b3480156101af57600080fd5b506101ca60048036038101906101c591906128f0565b610825565b6040516101de989796959493929190612947565b60405180910390f35b3480156101f357600080fd5b506101fc6108d7565b005b34801561020a57600080fd5b50610213610f33565b005b34801561022157600080fd5b5061022a611125565b60405161023791906128a9565b60405180910390f35b34801561024c57600080fd5b5061025561112b565b604051610269989796959493929190612bca565b60405180910390f35b61027a61172e565b005b34801561028857600080fd5b506102a3600480360381019061029e9190612c7b565b6118cd565b6040516102b091906128a9565b60405180910390f35b3480156102c557600080fd5b506102ce6118fe565b6040516102db91906128a9565b60405180910390f35b3480156102f057600080fd5b506102f9611904565b60405161030691906127e8565b60405180910390f35b61032960048036038101906103249190612cbb565b611928565b005b61034560048036038101906103409190612cfb565b611bcf565b005b34801561035357600080fd5b5061036e60048036038101906103699190612d4e565b611e97565b005b34801561037c57600080fd5b50610385611ffc565b005b34801561039357600080fd5b5061039c612264565b6040516103a99190612d8e565b60405180910390f35b3480156103be57600080fd5b506103d960048036038101906103d49190612f02565b612277565b005b3480156103e757600080fd5b506103f0612460565b6040516103fd9190612d8e565b60405180910390f35b610420600480360381019061041b91906128f0565b612473565b005b600660029054906101000a900473ffffffffffffffffffffffffffffffffffffffff1681565b6000805b6001805490508110156104e6573373ffffffffffffffffffffffffffffffffffffffff166001828154811061048457610483612f4b565b5b9060005260206000200160009054906101000a900473ffffffffffffffffffffffffffffffffffffffff1673ffffffffffffffffffffffffffffffffffffffff16036104d357600191506104e6565b80806104de90612fa9565b91505061044c565b507f000000000000000000000000000000000000000000000000000000000000000073ffffffffffffffffffffffffffffffffffffffff163373ffffffffffffffffffffffffffffffffffffffff16148061053e5750805b61057d576040517f08c379a000000000000000000000000000000000000000000000000000000000815260040161057490613074565b60405180910390fd5b610585612757565b60008360ff1611801561059b575060048360ff16105b6105a457600080fd5b7f000000000000000000000000000000000000000000000000000000000000000073ffffffffffffffffffffffffffffffffffffffff163373ffffffffffffffffffffffffffffffffffffffff16036106c8576000600381111561060b5761060a612b53565b5b600660169054906101000a900460ff16600381111561062d5761062c612b53565b5b1461063757600080fd5b6000429050611c208161064a9190613094565b6003819055506001600660166101000a81548160ff0219169083600381111561067657610675612b53565b5b021790555083600660006101000a81548160ff021916908360ff1602179055507fbbfddbd2a33e1c8d143e1f8b564451965d01678a70438b79b4900cd033c12a2760405160405180910390a150610812565b600260038111156106dc576106db612b53565b5b600660169054906101000a900460ff1660038111156106fe576106fd612b53565b5b1461070857600080fd5b81600660016101000a81548160ff021916908360ff16021790555060018260ff160361079e57600660029054906101000a900473ffffffffffffffffffffffffffffffffffffffff1673ffffffffffffffffffffffffffffffffffffffff166108fc6005549081150290604051600060405180830381858888f19350505050158015610798573d6000803e3d6000fd5b5061079f565b5b82600660006101000a81548160ff021916908360ff1602179055507fbbfddbd2a33e1c8d143e1f8b564451965d01678a70438b79b4900cd033c12a2760405160405180910390a16003600660166101000a81548160ff0219169083600381111561080c5761080b612b53565b5b02179055505b61081a61279d565b505050565b60055481565b6008818154811061083557600080fd5b90600052602060002090600702016000915090508060000160009054906101000a900473ffffffffffffffffffffffffffffffffffffffff16908060010154908060020160009054906101000a900473ffffffffffffffffffffffffffffffffffffffff16908060030154908060040154908060050160009054906101000a900460ff16908060050160019054906101000a900460ff16908060060154905088565b6108df612757565b6003808111156108f2576108f1612b53565b5b600660169054906101000a900460ff16600381111561091457610913612b53565b5b148061096057506001600381111561092f5761092e612b53565b5b600660169054906101000a900460ff16600381111561095157610950612b53565b5b14801561095f575060035442115b5b61096957600080fd5b6000600760003373ffffffffffffffffffffffffffffffffffffffff1673ffffffffffffffffffffffffffffffffffffffff168152602001908152602001600020905060008180549050116109bd57600080fd5b60008060006003600660009054906101000a900460ff1660ff1614905060005b8480549050811015610d8d5760008582815481106109fe576109fd612f4b565b5b90600052602060002001549050600060088281548110610a2157610a20612f4b565b5b906000526020600020906007020190508315610b24573373ffffffffffffffffffffffffffffffffffffffff168160020160009054906101000a900473ffffffffffffffffffffffffffffffffffffffff1673ffffffffffffffffffffffffffffffffffffffff1603610aab57806003015486610a9e9190613094565b9550600081600301819055505b3373ffffffffffffffffffffffffffffffffffffffff168160000160009054906101000a900473ffffffffffffffffffffffffffffffffffffffff1673ffffffffffffffffffffffffffffffffffffffff1603610b1f57806001015486610b129190613094565b9550600081600101819055505b610d78565b60003373ffffffffffffffffffffffffffffffffffffffff168260000160009054906101000a900473ffffffffffffffffffffffffffffffffffffffff1673ffffffffffffffffffffffffffffffffffffffff16148015610bd457503373ffffffffffffffffffffffffffffffffffffffff168260020160009054906101000a900473ffffffffffffffffffffffffffffffffffffffff1673ffffffffffffffffffffffffffffffffffffffff16145b90508015610c165781600301548260010154610bf09190613094565b87610bfb9190613094565b96506000826001018190555060008260030181905550610d76565b3373ffffffffffffffffffffffffffffffffffffffff168260020160009054906101000a900473ffffffffffffffffffffffffffffffffffffffff1673ffffffffffffffffffffffffffffffffffffffff16148015610c9a5750600660009054906101000a900460ff1660ff168260050160009054906101000a900460ff1660ff16145b80610d2657503373ffffffffffffffffffffffffffffffffffffffff168260000160009054906101000a900473ffffffffffffffffffffffffffffffffffffffff1673ffffffffffffffffffffffffffffffffffffffff16148015610d255750600660009054906101000a900460ff1660ff168260050160009054906101000a900460ff1660ff1614155b5b15610d7557600082600101548360030154610d419190613094565b90508088610d4f9190613094565b97508087610d5d9190613094565b96506000836003018190555060008360010181905550505b5b505b50508080610d8590612fa9565b9150506109dd565b5080158015610d9c5750600082115b15610e2c57600061271061012c84610db491906130c8565b610dbe9190613139565b9050600061271060c885610dd291906130c8565b610ddc9190613139565b90508060026000828254610df09190613094565b925050819055508160056000828254610e099190613094565b925050819055508082610e1c9190613094565b85610e27919061316a565b945050505b60008311610e6f576040517f08c379a0000000000000000000000000000000000000000000000000000000008152600401610e66906131ea565b60405180910390fd5b82471015610eb2576040517f08c379a0000000000000000000000000000000000000000000000000000000008152600401610ea990613256565b60405180910390fd5b3373ffffffffffffffffffffffffffffffffffffffff166108fc849081150290604051600060405180830381858888f19350505050158015610ef8573d6000803e3d6000fd5b507fc3038e585f1bbb89a9a4ed41eb9b8f65d3589d382434df15a354153177e39bbd60405160405180910390a150505050610f3161279d565b565b6000805b600180549050811015610fd1573373ffffffffffffffffffffffffffffffffffffffff1660018281548110610f6f57610f6e612f4b565b5b9060005260206000200160009054906101000a900473ffffffffffffffffffffffffffffffffffffffff1673ffffffffffffffffffffffffffffffffffffffff1603610fbe5760019150610fd1565b8080610fc990612fa9565b915050610f37565b5080611012576040517f08c379a0000000000000000000000000000000000000000000000000000000008152600401611009906132c2565b60405180910390fd5b61101a612757565b6001600381111561102e5761102d612b53565b5b600660169054906101000a900460ff1660038111156110505761104f612b53565b5b14801561105e575060035442115b8061107b57506002600660019054906101000a900460ff1660ff16145b6110ba576040517f08c379a00000000000000000000000000000000000000000000000000000000081526004016110b19061332e565b60405180910390fd5b6000600254116110c957600080fd5b3373ffffffffffffffffffffffffffffffffffffffff166108fc6002549081150290604051600060405180830381858888f19350505050158015611111573d6000803e3d6000fd5b50600060058190555061112261279d565b50565b60025481565b6060600080600080600080600080600090506000806000600760003373ffffffffffffffffffffffffffffffffffffffff1673ffffffffffffffffffffffffffffffffffffffff16815260200190815260200160002090506000806003600660009054906101000a900460ff1660ff16149050600080600660009054906101000a900460ff1660ff1614905060005b848054905081101561153b5760008582815481106111db576111da612f4b565b5b906000526020600020015490506000600882815481106111fe576111fd612f4b565b5b90600052602060002090600702019050836115265784156112f2573373ffffffffffffffffffffffffffffffffffffffff168160020160009054906101000a900473ffffffffffffffffffffffffffffffffffffffff1673ffffffffffffffffffffffffffffffffffffffff16036112835780600301548a6112809190613094565b99505b3373ffffffffffffffffffffffffffffffffffffffff168160000160009054906101000a900473ffffffffffffffffffffffffffffffffffffffff1673ffffffffffffffffffffffffffffffffffffffff16036112ed5780600101548a6112ea9190613094565b99505b611525565b3373ffffffffffffffffffffffffffffffffffffffff168160000160009054906101000a900473ffffffffffffffffffffffffffffffffffffffff1673ffffffffffffffffffffffffffffffffffffffff161480156113a057503373ffffffffffffffffffffffffffffffffffffffff168160020160009054906101000a900473ffffffffffffffffffffffffffffffffffffffff1673ffffffffffffffffffffffffffffffffffffffff16145b156113cb57806003015481600101546113b99190613094565b8a6113c49190613094565b9950611524565b3373ffffffffffffffffffffffffffffffffffffffff168160020160009054906101000a900473ffffffffffffffffffffffffffffffffffffffff1673ffffffffffffffffffffffffffffffffffffffff1614801561144f5750600660009054906101000a900460ff1660ff168160050160009054906101000a900460ff1660ff16145b806114db57503373ffffffffffffffffffffffffffffffffffffffff168160000160009054906101000a900473ffffffffffffffffffffffffffffffffffffffff1673ffffffffffffffffffffffffffffffffffffffff161480156114da5750600660009054906101000a900460ff1660ff168160050160009054906101000a900460ff1660ff1614155b5b1561152357806001015481600301546114f49190613094565b8a6114ff9190613094565b9950806001015481600301546115159190613094565b866115209190613094565b95505b5b5b5b5050808061153390612fa9565b9150506111ba565b508115801561154a5750600083115b1561157c576000606460058561156091906130c8565b61156a9190613139565b90508088611578919061316a565b9750505b6008600454600660009054906101000a900460ff16600660169054906101000a900460ff166003548b8b8b87805480602002602001604051908101604052809291908181526020016000905b828210156117075783829060005260206000209060070201604051806101000160405290816000820160009054906101000a900473ffffffffffffffffffffffffffffffffffffffff1673ffffffffffffffffffffffffffffffffffffffff1673ffffffffffffffffffffffffffffffffffffffff168152602001600182015481526020016002820160009054906101000a900473ffffffffffffffffffffffffffffffffffffffff1673ffffffffffffffffffffffffffffffffffffffff1673ffffffffffffffffffffffffffffffffffffffff16815260200160038201548152602001600482015481526020016005820160009054906101000a900460ff1660ff1660ff1681526020016005820160019054906101000a900460ff16151515158152602001600682015481525050815260200190600101906115c8565b5050505097509e509e509e509e509e509e509e509e50505050505050509091929394959697565b611736612757565b6001600381111561174a57611749612b53565b5b600660169054906101000a900460ff16600381111561176c5761176b612b53565b5b14801561177a575060035442105b806117c557506000600381111561179457611793612b53565b5b600660169054906101000a900460ff1660038111156117b6576117b5612b53565b5b1480156117c4575060045442115b5b611804576040517f08c379a00000000000000000000000000000000000000000000000000000000081526004016117fb9061332e565b60405180910390fd5b600554341461181257600080fd5b33600660026101000a81548173ffffffffffffffffffffffffffffffffffffffff021916908373ffffffffffffffffffffffffffffffffffffffff1602179055506002600660166101000a81548160ff0219169083600381111561187957611878612b53565b5b021790555034600560008282546118909190613094565b925050819055507f325941a5b65623f14f777a10c4ee68b69cec6214a44a48c1bb1c4991314755c060405160405180910390a16118cb61279d565b565b600760205281600052604060002081815481106118e957600080fd5b90600052602060002001600091509150505481565b60035481565b7f000000000000000000000000000000000000000000000000000000000000000081565b611930612757565b60008160ff16118015611947575060028160ff1611155b61195057600080fd5b6000600381111561196457611963612b53565b5b600660169054906101000a900460ff16600381111561198657611985612b53565b5b1461199057600080fd5b60006040518061010001604052803373ffffffffffffffffffffffffffffffffffffffff1681526020013481526020013373ffffffffffffffffffffffffffffffffffffffff168152602001600081526020018481526020018360ff1681526020016001151581526020016008805490508152509050600760003373ffffffffffffffffffffffffffffffffffffffff1673ffffffffffffffffffffffffffffffffffffffff1681526020019081526020016000206008805490509080600181540180825580915050600190039060005260206000200160009091909190915055600881908060018154018082558091505060019003906000526020600020906007020160009091909190915060008201518160000160006101000a81548173ffffffffffffffffffffffffffffffffffffffff021916908373ffffffffffffffffffffffffffffffffffffffff1602179055506020820151816001015560408201518160020160006101000a81548173ffffffffffffffffffffffffffffffffffffffff021916908373ffffffffffffffffffffffffffffffffffffffff160217905550606082015181600301556080820151816004015560a08201518160050160006101000a81548160ff021916908360ff16021790555060c08201518160050160016101000a81548160ff02191690831515021790555060e0820151816006015550507f9f9060b2035b3d98df4f62b3bbd9de8d98a49465ddcdd11c92f63c956df0442b60405160405180910390a150611bcb61279d565b5050565b611bd7612757565b3373ffffffffffffffffffffffffffffffffffffffff1660088481548110611c0257611c01612f4b565b5b906000526020600020906007020160020160009054906101000a900473ffffffffffffffffffffffffffffffffffffffff1673ffffffffffffffffffffffffffffffffffffffff16148015611cc757503373ffffffffffffffffffffffffffffffffffffffff1660088481548110611c7d57611c7c612f4b565b5b906000526020600020906007020160000160009054906101000a900473ffffffffffffffffffffffffffffffffffffffff1673ffffffffffffffffffffffffffffffffffffffff16145b611d06576040517f08c379a0000000000000000000000000000000000000000000000000000000008152600401611cfd906133c0565b60405180910390fd5b600060088481548110611d1c57611d1b612f4b565b5b90600052602060002090600702019050600081600101549050808414611e4b5780841015611ded5760008482611d52919061316a565b905080471015611d97576040517f08c379a0000000000000000000000000000000000000000000000000000000008152600401611d8e90613452565b60405180910390fd5b8483600101819055503373ffffffffffffffffffffffffffffffffffffffff166108fc829081150290604051600060405180830381858888f19350505050158015611de6573d6000803e3d6000fd5b5050611e4a565b60008185611dfb919061316a565b9050803414611e3f576040517f08c379a0000000000000000000000000000000000000000000000000000000008152600401611e36906134be565b60405180910390fd5b848360010181905550505b5b8282600401819055508160050160019054906101000a900460ff16611e885760018260050160016101000a81548160ff0219169083151502179055505b5050611e9261279d565b505050565b611e9f612757565b60006003811115611eb357611eb2612b53565b5b600660169054906101000a900460ff166003811115611ed557611ed4612b53565b5b14611edf57600080fd5b3373ffffffffffffffffffffffffffffffffffffffff1660088381548110611f0a57611f09612f4b565b5b906000526020600020906007020160020160009054906101000a900473ffffffffffffffffffffffffffffffffffffffff1673ffffffffffffffffffffffffffffffffffffffff1614611f5c57600080fd5b8060088381548110611f7157611f70612f4b565b5b906000526020600020906007020160040181905550600160088381548110611f9c57611f9b612f4b565b5b906000526020600020906007020160050160016101000a81548160ff0219169083151502179055507f50c7c110b9cabc516cf0aef475d15558b239d0490f0389129f4e6b4c378dfa3d60405160405180910390a1611ff861279d565b5050565b6000805b60018054905081101561209a573373ffffffffffffffffffffffffffffffffffffffff166001828154811061203857612037612f4b565b5b9060005260206000200160009054906101000a900473ffffffffffffffffffffffffffffffffffffffff1673ffffffffffffffffffffffffffffffffffffffff1603612087576001915061209a565b808061209290612fa9565b915050612000565b507f000000000000000000000000000000000000000000000000000000000000000073ffffffffffffffffffffffffffffffffffffffff163373ffffffffffffffffffffffffffffffffffffffff1614806120f25750805b612131576040517f08c379a000000000000000000000000000000000000000000000000000000000815260040161212890613074565b60405180910390fd5b612139612757565b6001600381111561214d5761214c612b53565b5b600660169054906101000a900460ff16600381111561216f5761216e612b53565b5b14801561217d575060035442115b8061219a57506002600660019054906101000a900460ff1660ff16145b6121d9576040517f08c379a00000000000000000000000000000000000000000000000000000000081526004016121d09061332e565b60405180910390fd5b6000600554116121e857600080fd5b7f000000000000000000000000000000000000000000000000000000000000000073ffffffffffffffffffffffffffffffffffffffff166108fc6005549081150290604051600060405180830381858888f19350505050158015612250573d6000803e3d6000fd5b50600060058190555061226161279d565b50565b600660019054906101000a900460ff1681565b61227f612757565b60005b81518110156124285760008282815181106122a05761229f612f4b565b5b602002602001015190503373ffffffffffffffffffffffffffffffffffffffff16600882815481106122d5576122d4612f4b565b5b906000526020600020906007020160020160009054906101000a900473ffffffffffffffffffffffffffffffffffffffff1673ffffffffffffffffffffffffffffffffffffffff161461235d576040517f08c379a00000000000000000000000000000000000000000000000000000000081526004016123549061352a565b60405180910390fd5b600115156008828154811061237557612374612f4b565b5b906000526020600020906007020160050160019054906101000a900460ff161515146123d6576040517f08c379a00000000000000000000000000000000000000000000000000000000081526004016123cd90613596565b60405180910390fd5b6000600882815481106123ec576123eb612f4b565b5b906000526020600020906007020160050160016101000a81548160ff02191690831515021790555050808061242090612fa9565b915050612282565b507f1e5a109a2c5190a6567f1b2386d95213f70c40047a7d1f2fb64e5974c9a0043a60405160405180910390a161245d61279d565b50565b600660009054906101000a900460ff1681565b61247b612757565b6000600381111561248f5761248e612b53565b5b600660169054906101000a900460ff1660038111156124b1576124b0612b53565b5b146124bb57600080fd5b600881815481106124cf576124ce612f4b565b5b90600052602060002090600702016004015434146124ec57600080fd5b600115156008828154811061250457612503612f4b565b5b906000526020600020906007020160050160019054906101000a900460ff1615151461252f57600080fd5b60006008828154811061254557612544612f4b565b5b9060005260206000209060070201600301540361258b57346008828154811061257157612570612f4b565b5b906000526020600020906007020160030181905550612618565b6008818154811061259f5761259e612f4b565b5b906000526020600020906007020160020160009054906101000a900473ffffffffffffffffffffffffffffffffffffffff1673ffffffffffffffffffffffffffffffffffffffff166108fc349081150290604051600060405180830381858888f19350505050158015612616573d6000803e3d6000fd5b505b600760003373ffffffffffffffffffffffffffffffffffffffff1673ffffffffffffffffffffffffffffffffffffffff168152602001908152602001600020819080600181540180825580915050600190039060005260206000200160009091909190915055336008828154811061269357612692612f4b565b5b906000526020600020906007020160020160006101000a81548173ffffffffffffffffffffffffffffffffffffffff021916908373ffffffffffffffffffffffffffffffffffffffff1602179055506000600882815481106126f8576126f7612f4b565b5b906000526020600020906007020160050160016101000a81548160ff0219169083151502179055507f34825dc172bd596324998d16543dc86015d6a6dd51a29758081d1f535c18b59d60405160405180910390a161275461279d565b50565b600260005403612793576040517f3ee5aeb500000000000000000000000000000000000000000000000000000000815260040160405180910390fd5b6002600081905550565b6001600081905550565b600073ffffffffffffffffffffffffffffffffffffffff82169050919050565b60006127d2826127a7565b9050919050565b6127e2816127c7565b82525050565b60006020820190506127fd60008301846127d9565b92915050565b6000604051905090565b600080fd5b600080fd5b600060ff82169050919050565b61282d81612817565b811461283857600080fd5b50565b60008135905061284a81612824565b92915050565b600080604083850312156128675761286661280d565b5b60006128758582860161283b565b92505060206128868582860161283b565b9150509250929050565b6000819050919050565b6128a381612890565b82525050565b60006020820190506128be600083018461289a565b92915050565b6128cd81612890565b81146128d857600080fd5b50565b6000813590506128ea816128c4565b92915050565b6000602082840312156129065761290561280d565b5b6000612914848285016128db565b91505092915050565b61292681612817565b82525050565b60008115159050919050565b6129418161292c565b82525050565b60006101008201905061295d600083018b6127d9565b61296a602083018a61289a565b61297760408301896127d9565b612984606083018861289a565b612991608083018761289a565b61299e60a083018661291d565b6129ab60c0830185612938565b6129b860e083018461289a565b9998505050505050505050565b600081519050919050565b600082825260208201905092915050565b6000819050602082019050919050565b6129fa816127c7565b82525050565b612a0981612890565b82525050565b612a1881612817565b82525050565b612a278161292c565b82525050565b61010082016000820151612a4460008501826129f1565b506020820151612a576020850182612a00565b506040820151612a6a60408501826129f1565b506060820151612a7d6060850182612a00565b506080820151612a906080850182612a00565b5060a0820151612aa360a0850182612a0f565b5060c0820151612ab660c0850182612a1e565b5060e0820151612ac960e0850182612a00565b50505050565b6000612adb8383612a2d565b6101008301905092915050565b6000602082019050919050565b6000612b00826129c5565b612b0a81856129d0565b9350612b15836129e1565b8060005b83811015612b46578151612b2d8882612acf565b9750612b3883612ae8565b925050600181019050612b19565b5085935050505092915050565b7f4e487b7100000000000000000000000000000000000000000000000000000000600052602160045260246000fd5b60048110612b9357612b92612b53565b5b50565b6000819050612ba482612b82565b919050565b6000612bb482612b96565b9050919050565b612bc481612ba9565b82525050565b6000610100820190508181036000830152612be5818b612af5565b9050612bf4602083018a61289a565b612c01604083018961291d565b612c0e6060830188612bbb565b612c1b608083018761289a565b612c2860a083018661289a565b612c3560c083018561289a565b612c4260e083018461289a565b9998505050505050505050565b612c58816127c7565b8114612c6357600080fd5b50565b600081359050612c7581612c4f565b92915050565b60008060408385031215612c9257612c9161280d565b5b6000612ca085828601612c66565b9250506020612cb1858286016128db565b9150509250929050565b60008060408385031215612cd257612cd161280d565b5b6000612ce0858286016128db565b9250506020612cf18582860161283b565b9150509250929050565b600080600060608486031215612d1457612d1361280d565b5b6000612d22868287016128db565b9350506020612d33868287016128db565b9250506040612d44868287016128db565b9150509250925092565b60008060408385031215612d6557612d6461280d565b5b6000612d73858286016128db565b9250506020612d84858286016128db565b9150509250929050565b6000602082019050612da3600083018461291d565b92915050565b600080fd5b6000601f19601f8301169050919050565b7f4e487b7100000000000000000000000000000000000000000000000000000000600052604160045260246000fd5b612df782612dae565b810181811067ffffffffffffffff82111715612e1657612e15612dbf565b5b80604052505050565b6000612e29612803565b9050612e358282612dee565b919050565b600067ffffffffffffffff821115612e5557612e54612dbf565b5b602082029050602081019050919050565b600080fd5b6000612e7e612e7984612e3a565b612e1f565b90508083825260208201905060208402830185811115612ea157612ea0612e66565b5b835b81811015612eca5780612eb688826128db565b845260208401935050602081019050612ea3565b5050509392505050565b600082601f830112612ee957612ee8612da9565b5b8135612ef9848260208601612e6b565b91505092915050565b600060208284031215612f1857612f1761280d565b5b600082013567ffffffffffffffff811115612f3657612f35612812565b5b612f4284828501612ed4565b91505092915050565b7f4e487b7100000000000000000000000000000000000000000000000000000000600052603260045260246000fd5b7f4e487b7100000000000000000000000000000000000000000000000000000000600052601160045260246000fd5b6000612fb482612890565b91507fffffffffffffffffffffffffffffffffffffffffffffffffffffffffffffffff8203612fe657612fe5612f7a565b5b600182019050919050565b600082825260208201905092915050565b7f43616c6c6572206973206e6f7420746865206f776e6572206f7220612073746160008201527f6666206d656d6265720000000000000000000000000000000000000000000000602082015250565b600061305e602983612ff1565b915061306982613002565b604082019050919050565b6000602082019050818103600083015261308d81613051565b9050919050565b600061309f82612890565b91506130aa83612890565b92508282019050808211156130c2576130c1612f7a565b5b92915050565b60006130d382612890565b91506130de83612890565b92508282026130ec81612890565b9150828204841483151761310357613102612f7a565b5b5092915050565b7f4e487b7100000000000000000000000000000000000000000000000000000000600052601260045260246000fd5b600061314482612890565b915061314f83612890565b92508261315f5761315e61310a565b5b828204905092915050565b600061317582612890565b915061318083612890565b925082820390508181111561319857613197612f7a565b5b92915050565b7f4e6f2062616c616e636520746f20776974686472617700000000000000000000600082015250565b60006131d4601683612ff1565b91506131df8261319e565b602082019050919050565b60006020820190508181036000830152613203816131c7565b9050919050565b7f496e73756666696369656e7420636f6e74726163742062616c616e6365000000600082015250565b6000613240601d83612ff1565b915061324b8261320a565b602082019050919050565b6000602082019050818103600083015261326f81613233565b9050919050565b7f43616c6c6572206973206e6f742061207374616666206d656d62657200000000600082015250565b60006132ac601c83612ff1565b91506132b782613276565b602082019050919050565b600060208201905081810360008301526132db8161329f565b9050919050565b7f496e76616c6964207374617465206f722074696d650000000000000000000000600082015250565b6000613318601583612ff1565b9150613323826132e2565b602082019050919050565b600060208201905081810360008301526133478161330b565b9050919050565b7f4f6e6c7920746865206465706c6f7965722063616e206564697420746869732060008201527f6265740000000000000000000000000000000000000000000000000000000000602082015250565b60006133aa602383612ff1565b91506133b58261334e565b604082019050919050565b600060208201905081810360008301526133d98161339d565b9050919050565b7f436f6e747261637420646f6573206e6f74206861766520656e6f75676820667560008201527f6e64730000000000000000000000000000000000000000000000000000000000602082015250565b600061343c602383612ff1565b9150613447826133e0565b604082019050919050565b6000602082019050818103600083015261346b8161342f565b9050919050565b7f496e636f7272656374206164646974696f6e616c2066756e64732073656e7400600082015250565b60006134a8601f83612ff1565b91506134b382613472565b602082019050919050565b600060208201905081810360008301526134d78161349b565b9050919050565b7f43616c6c6572206973206e6f7420746865206f776e6572000000000000000000600082015250565b6000613514601783612ff1565b915061351f826134de565b602082019050919050565b6000602082019050818103600083015261354381613507565b9050919050565b7f426574206973206e6f7420666f722073616c6500000000000000000000000000600082015250565b6000613580601383612ff1565b915061358b8261354a565b602082019050919050565b600060208201905081810360008301526135af81613573565b905091905056fea2646970667358221220192ea92e05abe95c04af3228e34243c4d2a8a59237aa3b69eb2f699976e634a464736f6c63430008140033",
  "linkReferences": {},
  "deployedLinkReferences": {}
}