{
  "_format": "hh-sol-artifact-1",
  "contractName": "predMarket2",
  "sourceName": "contracts/LockV2.sol",
  "abi": [
    {
      "inputs": [
        {
          "internalType": "uint256",
          "name": "_endTime",
          "type": "uint256"
        }
      ],
      "stateMutability": "nonpayable",
      "type": "constructor"
    },
    {
      "inputs": [],
      "name": "ReentrancyGuardReentrantCall",
      "type": "error"
    },
    {
      "anonymous": false,
      "inputs": [],
      "name": "BetCancelled",
      "type": "event"
    },
    {
      "anonymous": false,
      "inputs": [],
      "name": "BetEdited",
      "type": "event"
    },
    {
      "anonymous": false,
      "inputs": [],
      "name": "BetUnlisted",
      "type": "event"
    },
    {
      "anonymous": false,
      "inputs": [
        {
          "indexed": true,
          "internalType": "address",
          "name": "beneficiary",
          "type": "address"
        },
        {
          "indexed": false,
          "internalType": "uint256",
          "name": "amount",
          "type": "uint256"
        }
      ],
      "name": "FundsRedistributed",
      "type": "event"
    },
    {
      "anonymous": false,
      "inputs": [],
      "name": "PayoutProcessed",
      "type": "event"
    },
    {
      "anonymous": false,
      "inputs": [],
      "name": "userBoughtBet",
      "type": "event"
    },
    {
      "anonymous": false,
      "inputs": [
        {
          "indexed": false,
          "internalType": "uint256",
          "name": "positionInArray",
          "type": "uint256"
        }
      ],
      "name": "userCreatedABet",
      "type": "event"
    },
    {
      "anonymous": false,
      "inputs": [],
      "name": "userReListedBet",
      "type": "event"
    },
    {
      "anonymous": false,
      "inputs": [],
      "name": "userVoted",
      "type": "event"
    },
    {
      "anonymous": false,
      "inputs": [],
      "name": "userWithdrew",
      "type": "event"
    },
    {
      "anonymous": false,
      "inputs": [],
      "name": "winnerDeclaredVoting",
      "type": "event"
    },
    {
      "inputs": [],
      "name": "allBets_Balance",
      "outputs": [
        {
          "components": [
            {
              "internalType": "address",
              "name": "deployer",
              "type": "address"
            },
            {
              "internalType": "address",
              "name": "owner",
              "type": "address"
            },
            {
              "internalType": "uint96",
              "name": "amountDeployerLocked",
              "type": "uint96"
            },
            {
              "internalType": "uint96",
              "name": "amountBuyerLocked",
              "type": "uint96"
            },
            {
              "internalType": "uint96",
              "name": "amountToBuyFor",
              "type": "uint96"
            },
            {
              "internalType": "uint8",
              "name": "conditionForBuyerToWin",
              "type": "uint8"
            },
            {
              "internalType": "bool",
              "name": "selling",
              "type": "bool"
            },
            {
              "internalType": "bool",
              "name": "isActive",
              "type": "bool"
            },
            {
              "internalType": "uint32",
              "name": "positionInArray",
              "type": "uint32"
            }
          ],
          "internalType": "struct predMarket2.bet[]",
          "name": "activeBets",
          "type": "tuple[]"
        },
        {
          "internalType": "uint256",
          "name": "endTimeValue",
          "type": "uint256"
        },
        {
          "internalType": "uint8",
          "name": "winnerValue",
          "type": "uint8"
        },
        {
          "internalType": "enum predMarket2.RaffleState",
          "name": "state",
          "type": "uint8"
        },
        {
          "internalType": "uint256",
          "name": "votingEnd",
          "type": "uint256"
        },
        {
          "internalType": "uint256",
          "name": "balance",
          "type": "uint256"
        }
      ],
      "stateMutability": "view",
      "type": "function"
    },
    {
      "inputs": [
        {
          "internalType": "address",
          "name": "",
          "type": "address"
        }
      ],
      "name": "amountMadeFromSoldBets",
      "outputs": [
        {
          "internalType": "uint256",
          "name": "",
          "type": "uint256"
        }
      ],
      "stateMutability": "view",
      "type": "function"
    },
    {
      "inputs": [
        {
          "internalType": "uint256",
          "name": "",
          "type": "uint256"
        }
      ],
      "name": "arrayOfBets",
      "outputs": [
        {
          "internalType": "address",
          "name": "deployer",
          "type": "address"
        },
        {
          "internalType": "address",
          "name": "owner",
          "type": "address"
        },
        {
          "internalType": "uint96",
          "name": "amountDeployerLocked",
          "type": "uint96"
        },
        {
          "internalType": "uint96",
          "name": "amountBuyerLocked",
          "type": "uint96"
        },
        {
          "internalType": "uint96",
          "name": "amountToBuyFor",
          "type": "uint96"
        },
        {
          "internalType": "uint8",
          "name": "conditionForBuyerToWin",
          "type": "uint8"
        },
        {
          "internalType": "bool",
          "name": "selling",
          "type": "bool"
        },
        {
          "internalType": "bool",
          "name": "isActive",
          "type": "bool"
        },
        {
          "internalType": "uint32",
          "name": "positionInArray",
          "type": "uint32"
        }
      ],
      "stateMutability": "view",
      "type": "function"
    },
    {
      "inputs": [
        {
          "internalType": "address",
          "name": "",
          "type": "address"
        },
        {
          "internalType": "uint256",
          "name": "",
          "type": "uint256"
        }
      ],
      "name": "betsByUser",
      "outputs": [
        {
          "internalType": "uint256",
          "name": "",
          "type": "uint256"
        }
      ],
      "stateMutability": "view",
      "type": "function"
    },
    {
      "inputs": [
        {
          "internalType": "uint256",
          "name": "positionOfArray",
          "type": "uint256"
        }
      ],
      "name": "buyABet",
      "outputs": [],
      "stateMutability": "payable",
      "type": "function"
    },
    {
      "inputs": [
        {
          "internalType": "uint256",
          "name": "positionOfArray",
          "type": "uint256"
        }
      ],
      "name": "cancelOwnedBet",
      "outputs": [],
      "stateMutability": "nonpayable",
      "type": "function"
    },
    {
      "inputs": [
        {
          "internalType": "uint8",
          "name": "state",
          "type": "uint8"
        }
      ],
      "name": "changeState",
      "outputs": [],
      "stateMutability": "nonpayable",
      "type": "function"
    },
    {
      "inputs": [],
      "name": "creatorLocked",
      "outputs": [
        {
          "internalType": "uint256",
          "name": "",
          "type": "uint256"
        }
      ],
      "stateMutability": "view",
      "type": "function"
    },
    {
      "inputs": [
        {
          "internalType": "uint8",
          "name": "_winner",
          "type": "uint8"
        }
      ],
      "name": "declareWinner",
      "outputs": [],
      "stateMutability": "nonpayable",
      "type": "function"
    },
    {
      "inputs": [],
      "name": "disagreeWithOwner",
      "outputs": [],
      "stateMutability": "nonpayable",
      "type": "function"
    },
    {
      "inputs": [
        {
          "internalType": "uint256",
          "name": "positionOfArray",
          "type": "uint256"
        },
        {
          "internalType": "uint96",
          "name": "newDeployPrice",
          "type": "uint96"
        },
        {
          "internalType": "uint96",
          "name": "newAskingPrice",
          "type": "uint96"
        }
      ],
      "name": "editADeployedBet",
      "outputs": [],
      "stateMutability": "payable",
      "type": "function"
    },
    {
      "inputs": [],
      "name": "endOfVoting",
      "outputs": [
        {
          "internalType": "uint256",
          "name": "",
          "type": "uint256"
        }
      ],
      "stateMutability": "view",
      "type": "function"
    },
    {
      "inputs": [],
      "name": "owner",
      "outputs": [
        {
          "internalType": "address",
          "name": "",
          "type": "address"
        }
      ],
      "stateMutability": "view",
      "type": "function"
    },
    {
      "inputs": [],
      "name": "s_raffleState",
      "outputs": [
        {
          "internalType": "enum predMarket2.RaffleState",
          "name": "",
          "type": "uint8"
        }
      ],
      "stateMutability": "view",
      "type": "function"
    },
    {
      "inputs": [
        {
          "internalType": "uint256",
          "name": "amountToBuy",
          "type": "uint256"
        },
        {
          "internalType": "uint8",
          "name": "conditionToWIn",
          "type": "uint8"
        }
      ],
      "name": "sellANewBet",
      "outputs": [],
      "stateMutability": "payable",
      "type": "function"
    },
    {
      "inputs": [
        {
          "internalType": "uint256",
          "name": "positionOfArray",
          "type": "uint256"
        },
        {
          "internalType": "uint96",
          "name": "newAskingPrice",
          "type": "uint96"
        }
      ],
      "name": "sellAnExistingBet",
      "outputs": [],
      "stateMutability": "nonpayable",
      "type": "function"
    },
    {
      "inputs": [
        {
          "internalType": "uint256",
          "name": "",
          "type": "uint256"
        },
        {
          "internalType": "uint256",
          "name": "",
          "type": "uint256"
        }
      ],
      "name": "soldBetHistory",
      "outputs": [
        {
          "internalType": "address",
          "name": "buyer",
          "type": "address"
        },
        {
          "internalType": "address",
          "name": "previousOwner",
          "type": "address"
        },
        {
          "internalType": "uint256",
          "name": "amountPaid",
          "type": "uint256"
        }
      ],
      "stateMutability": "view",
      "type": "function"
    },
    {
      "inputs": [],
      "name": "staffPay",
      "outputs": [
        {
          "internalType": "uint256",
          "name": "",
          "type": "uint256"
        }
      ],
      "stateMutability": "view",
      "type": "function"
    },
    {
      "inputs": [],
      "name": "transferOwnerAmount",
      "outputs": [],
      "stateMutability": "nonpayable",
      "type": "function"
    },
    {
      "inputs": [],
      "name": "transferStaffAmount",
      "outputs": [],
      "stateMutability": "nonpayable",
      "type": "function"
    },
    {
      "inputs": [
        {
          "internalType": "uint256[]",
          "name": "positionsOfArray",
          "type": "uint256[]"
        }
      ],
      "name": "unlistBets",
      "outputs": [],
      "stateMutability": "nonpayable",
      "type": "function"
    },
    {
      "inputs": [],
      "name": "winner",
      "outputs": [
        {
          "internalType": "uint8",
          "name": "",
          "type": "uint8"
        }
      ],
      "stateMutability": "view",
      "type": "function"
    },
    {
      "inputs": [],
      "name": "withdraw",
      "outputs": [],
      "stateMutability": "nonpayable",
      "type": "function"
    }
  ],
  "bytecode": "0x60a0604052604051806020016040528073f39fd6e51aad88f6f4ce6ab8827279cfffb9226673ffffffffffffffffffffffffffffffffffffffff1673ffffffffffffffffffffffffffffffffffffffff1681525060019060016200006592919062000111565b503480156200007357600080fd5b50604051620052fd380380620052fd8339818101604052810190620000999190620001ff565b60016000819055503373ffffffffffffffffffffffffffffffffffffffff1660808173ffffffffffffffffffffffffffffffffffffffff1681525050806005819055506000600660016101000a81548160ff0219169083600381111562000105576200010462000231565b5b02179055505062000260565b8280548282559060005260206000209081019282156200018d579160200282015b828111156200018c5782518260006101000a81548173ffffffffffffffffffffffffffffffffffffffff021916908373ffffffffffffffffffffffffffffffffffffffff1602179055509160200191906001019062000132565b5b5090506200019c9190620001a0565b5090565b5b80821115620001bb576000816000905550600101620001a1565b5090565b600080fd5b6000819050919050565b620001d981620001c4565b8114620001e557600080fd5b50565b600081519050620001f981620001ce565b92915050565b600060208284031215620002185762000217620001bf565b5b60006200022884828501620001e8565b91505092915050565b7f4e487b7100000000000000000000000000000000000000000000000000000000600052602160045260246000fd5b6080516150736200028a600039600081816114c8015281816122e6015261242e01526150736000f3fe6080604052600436106101405760003560e01c80638da5cb5b116100b6578063b4a36fd71161006f578063b4a36fd714610401578063cc45483f14610418578063d38399ec14610443578063dfbf53ae1461046c578063ee9891f114610497578063f0d93377146104b357610140565b80638da5cb5b1461030f5780639651b1831461033a5780639e1bffe914610356578063a635715814610393578063a773d4c0146103bc578063acdaa6ed146103e557610140565b80635d926148116101085780635d9261481461021e578063607c9cea146102355780636afedac5146102605780637672ef7b146102905780637c54bafe146102a75780637e887332146102e457610140565b80631798b2ae14610145578063268f11531461016e57806330dda1c2146101975780633658957e146101c25780633ccfd60b14610207575b600080fd5b34801561015157600080fd5b5061016c600480360381019061016791906140a8565b6104f2565b005b34801561017a57600080fd5b50610195600480360381019061019091906140a8565b61084b565b005b3480156101a357600080fd5b506101ac6109c8565b6040516101b991906140ee565b60405180910390f35b3480156101ce57600080fd5b506101e960048036038101906101e49190614135565b6109ce565b6040516101fe99989796959493929190614213565b60405180910390f35b34801561021357600080fd5b5061021c610aeb565b005b34801561022a57600080fd5b50610233611007565b005b34801561024157600080fd5b5061024a61124f565b60405161025791906140ee565b60405180910390f35b34801561026c57600080fd5b50610275611255565b604051610287969594939291906144c9565b60405180910390f35b34801561029c57600080fd5b506102a561138e565b005b3480156102b357600080fd5b506102ce60048036038101906102c9919061455d565b61148f565b6040516102db91906140ee565b60405180910390f35b3480156102f057600080fd5b506102f96114c0565b60405161030691906140ee565b60405180910390f35b34801561031b57600080fd5b506103246114c6565b604051610331919061459d565b60405180910390f35b610354600480360381019061034f91906145b8565b6114ea565b005b34801561036257600080fd5b5061037d600480360381019061037891906145f8565b611965565b60405161038a91906140ee565b60405180910390f35b34801561039f57600080fd5b506103ba60048036038101906103b59190614651565b61197d565b005b3480156103c857600080fd5b506103e360048036038101906103de9190614135565b611aea565b005b6103ff60048036038101906103fa9190614691565b611e5f565b005b34801561040d57600080fd5b50610416612245565b005b34801561042457600080fd5b5061042d612503565b60405161043a91906146e4565b60405180910390f35b34801561044f57600080fd5b5061046a60048036038101906104659190614858565b612516565b005b34801561047857600080fd5b506104816127d6565b60405161048e91906148a1565b60405180910390f35b6104b160048036038101906104ac9190614135565b6127e9565b005b3480156104bf57600080fd5b506104da60048036038101906104d591906148bc565b612c34565b6040516104e9939291906148fc565b60405180910390f35b6000805b600180549050811015610590573373ffffffffffffffffffffffffffffffffffffffff166001828154811061052e5761052d614933565b5b9060005260206000200160009054906101000a900473ffffffffffffffffffffffffffffffffffffffff1673ffffffffffffffffffffffffffffffffffffffff160361057d5760019150610590565b808061058890614991565b9150506104f6565b50806105d1576040517f08c379a00000000000000000000000000000000000000000000000000000000081526004016105c890614a36565b60405180910390fd5b6105d9612cbb565b60008260ff161180156105ef575060048260ff16105b6105f857600080fd5b60038260ff16036106835761060b612d01565b6003600660016101000a81548160ff0219169083600381111561063157610630614452565b5b02179055506003600660006101000a81548160ff021916908360ff1602179055507fbbfddbd2a33e1c8d143e1f8b564451965d01678a70438b79b4900cd033c12a2760405160405180910390a161083f565b6000600381111561069757610696614452565b5b600660019054906101000a900460ff1660038111156106b9576106b8614452565b5b036107405761012c42016003819055506001600660016101000a81548160ff021916908360038111156106ef576106ee614452565b5b021790555081600660006101000a81548160ff021916908360ff1602179055507fbbfddbd2a33e1c8d143e1f8b564451965d01678a70438b79b4900cd033c12a2760405160405180910390a161083e565b6001600381111561075457610753614452565b5b600660019054906101000a900460ff16600381111561077657610775614452565b5b148015610784575060035442115b806107c257506002600381111561079e5761079d614452565b5b600660019054906101000a900460ff1660038111156107c0576107bf614452565b5b145b6107cb57600080fd5b81600660006101000a81548160ff021916908360ff1602179055506003600660016101000a81548160ff0219169083600381111561080c5761080b614452565b5b02179055507fbbfddbd2a33e1c8d143e1f8b564451965d01678a70438b79b4900cd033c12a2760405160405180910390a15b5b610847613153565b5050565b6000805b6001805490508110156108e9573373ffffffffffffffffffffffffffffffffffffffff166001828154811061088757610886614933565b5b9060005260206000200160009054906101000a900473ffffffffffffffffffffffffffffffffffffffff1673ffffffffffffffffffffffffffffffffffffffff16036108d657600191506108e9565b80806108e190614991565b91505061084f565b508061092a576040517f08c379a000000000000000000000000000000000000000000000000000000000815260040161092190614a36565b60405180910390fd5b60038081111561093d5761093c614452565b5b60ff168260ff161115610985576040517f08c379a000000000000000000000000000000000000000000000000000000000815260040161097c90614aa2565b60405180910390fd5b8160ff16600381111561099b5761099a614452565b5b600660016101000a81548160ff021916908360038111156109bf576109be614452565b5b02179055505050565b60045481565b600c81815481106109de57600080fd5b90600052602060002090600302016000915090508060000160009054906101000a900473ffffffffffffffffffffffffffffffffffffffff16908060010160009054906101000a900473ffffffffffffffffffffffffffffffffffffffff16908060010160149054906101000a90046bffffffffffffffffffffffff16908060020160009054906101000a90046bffffffffffffffffffffffff169080600201600c9054906101000a90046bffffffffffffffffffffffff16908060020160189054906101000a900460ff16908060020160199054906101000a900460ff169080600201601a9054906101000a900460ff169080600201601b9054906101000a900463ffffffff16905089565b610af3612cbb565b600380811115610b0657610b05614452565b5b600660019054906101000a900460ff166003811115610b2857610b27614452565b5b1480610b74575060016003811115610b4357610b42614452565b5b600660019054906101000a900460ff166003811115610b6557610b64614452565b5b148015610b73575060035442115b5b610b7d57600080fd5b6000600760003373ffffffffffffffffffffffffffffffffffffffff1673ffffffffffffffffffffffffffffffffffffffff16815260200190815260200160002090506000818054905011610bd157600080fd5b60008060006003600660009054906101000a900460ff1660ff1614905060008480549050905060005b81811015610def576000600c878381548110610c1957610c18614933565b5b906000526020600020015481548110610c3557610c34614933565b5b906000526020600020906003020190508315610dc6573373ffffffffffffffffffffffffffffffffffffffff168160010160009054906101000a900473ffffffffffffffffffffffffffffffffffffffff1673ffffffffffffffffffffffffffffffffffffffff1603610d06578060020160009054906101000a90046bffffffffffffffffffffffff166bffffffffffffffffffffffff168601955060008160020160006101000a8154816bffffffffffffffffffffffff02191690836bffffffffffffffffffffffff1602179055505b3373ffffffffffffffffffffffffffffffffffffffff168160000160009054906101000a900473ffffffffffffffffffffffffffffffffffffffff1673ffffffffffffffffffffffffffffffffffffffff1603610dc1578060010160149054906101000a90046bffffffffffffffffffffffff166bffffffffffffffffffffffff168601955060008160010160146101000a8154816bffffffffffffffffffffffff02191690836bffffffffffffffffffffffff1602179055505b610de3565b600080610dd28361315d565b915091508188019750808701965050505b81600101915050610bfa565b5081158015610dfe5750600083115b15610e6d5760006127106101f4850281610e1b57610e1a614ac2565b5b049050808503945060056003820281610e3757610e36614ac2565b5b0460026000828254019250508190555060056002820281610e5b57610e5a614ac2565b5b04600460008282540192505081905550505b6000600860003373ffffffffffffffffffffffffffffffffffffffff1673ffffffffffffffffffffffffffffffffffffffff1681526020019081526020016000205490506000811115610f055780850194506000600860003373ffffffffffffffffffffffffffffffffffffffff1673ffffffffffffffffffffffffffffffffffffffff168152602001908152602001600020819055505b600085118015610f155750844710155b610f1e57600080fd5b60003373ffffffffffffffffffffffffffffffffffffffff1686604051610f4490614b22565b60006040518083038185875af1925050503d8060008114610f81576040519150601f19603f3d011682016040523d82523d6000602084013e610f86565b606091505b5050905080610fca576040517f08c379a0000000000000000000000000000000000000000000000000000000008152600401610fc190614b83565b60405180910390fd5b7fc3038e585f1bbb89a9a4ed41eb9b8f65d3589d382434df15a354153177e39bbd60405160405180910390a150505050505050611005613153565b565b6000805b6001805490508110156110a5573373ffffffffffffffffffffffffffffffffffffffff166001828154811061104357611042614933565b5b9060005260206000200160009054906101000a900473ffffffffffffffffffffffffffffffffffffffff1673ffffffffffffffffffffffffffffffffffffffff160361109257600191506110a5565b808061109d90614991565b91505061100b565b50806110e6576040517f08c379a00000000000000000000000000000000000000000000000000000000081526004016110dd90614a36565b60405180910390fd5b6110ee612cbb565b6001600381111561110257611101614452565b5b600660019054906101000a900460ff16600381111561112457611123614452565b5b148015611132575060035442115b8061116f575060038081111561114b5761114a614452565b5b600660019054906101000a900460ff16600381111561116d5761116c614452565b5b145b61117857600080fd5b60006002541161118757600080fd5b60006002549050600060028190555060003373ffffffffffffffffffffffffffffffffffffffff16826040516111bc90614b22565b60006040518083038185875af1925050503d80600081146111f9576040519150601f19603f3d011682016040523d82523d6000602084013e6111fe565b606091505b5050905080611242576040517f08c379a000000000000000000000000000000000000000000000000000000000815260040161123990614b83565b60405180910390fd5b505061124c613153565b50565b60025481565b6060600080600080600080600760003373ffffffffffffffffffffffffffffffffffffffff1673ffffffffffffffffffffffffffffffffffffffff16815260200190815260200160002090506000818054905090506000806112b78484613553565b915091506003600660009054906101000a900460ff1660ff16141580156112de5750600081115b15611344576000606460058302816112f9576112f8614ac2565b5b049050600860003373ffffffffffffffffffffffffffffffffffffffff1673ffffffffffffffffffffffffffffffffffffffff16815260200190815260200160002054818403019250505b61134c613699565b995089600554600660009054906101000a900460ff16600660019054906101000a900460ff166003548699509950995099509950995050505050909192939495565b611396612cbb565b600160038111156113aa576113a9614452565b5b600660019054906101000a900460ff1660038111156113cc576113cb614452565b5b1480156113da575060035442105b806114255750600060038111156113f4576113f3614452565b5b600660019054906101000a900460ff16600381111561141657611415614452565b5b148015611424575060055442115b5b61142e57600080fd5b6002600660016101000a81548160ff0219169083600381111561145457611453614452565b5b02179055507f325941a5b65623f14f777a10c4ee68b69cec6214a44a48c1bb1c4991314755c060405160405180910390a161148d613153565b565b600760205281600052604060002081815481106114ab57600080fd5b90600052602060002001600091509150505481565b60035481565b7f000000000000000000000000000000000000000000000000000000000000000081565b6114f2612cbb565b60008160ff16118015611509575060028160ff1611155b801561154857506000600381111561152457611523614452565b5b600660019054906101000a900460ff16600381111561154657611545614452565b5b145b801561155a575061012c600c80549050105b80156115a857506032600760003373ffffffffffffffffffffffffffffffffffffffff1673ffffffffffffffffffffffffffffffffffffffff16815260200190815260200160002080549050105b6115b157600080fd5b6bffffffffffffffffffffffff8016341115611602576040517f08c379a00000000000000000000000000000000000000000000000000000000081526004016115f990614bef565b60405180910390fd5b6bffffffffffffffffffffffff8016821115611653576040517f08c379a000000000000000000000000000000000000000000000000000000000815260040161164a90614c5b565b60405180910390fd5b6000600c805490509050600760003373ffffffffffffffffffffffffffffffffffffffff1673ffffffffffffffffffffffffffffffffffffffff16815260200190815260200160002081908060018154018082558091505060019003906000526020600020016000909163ffffffff16909190915055600c6040518061012001604052803373ffffffffffffffffffffffffffffffffffffffff1681526020013373ffffffffffffffffffffffffffffffffffffffff168152602001346bffffffffffffffffffffffff16815260200160006bffffffffffffffffffffffff168152602001856bffffffffffffffffffffffff1681526020018460ff1681526020016001151581526020016001151581526020018363ffffffff16815250908060018154018082558091505060019003906000526020600020906003020160009091909190915060008201518160000160006101000a81548173ffffffffffffffffffffffffffffffffffffffff021916908373ffffffffffffffffffffffffffffffffffffffff16021790555060208201518160010160006101000a81548173ffffffffffffffffffffffffffffffffffffffff021916908373ffffffffffffffffffffffffffffffffffffffff16021790555060408201518160010160146101000a8154816bffffffffffffffffffffffff02191690836bffffffffffffffffffffffff16021790555060608201518160020160006101000a8154816bffffffffffffffffffffffff02191690836bffffffffffffffffffffffff160217905550608082015181600201600c6101000a8154816bffffffffffffffffffffffff02191690836bffffffffffffffffffffffff16021790555060a08201518160020160186101000a81548160ff021916908360ff16021790555060c08201518160020160196101000a81548160ff02191690831515021790555060e082015181600201601a6101000a81548160ff02191690831515021790555061010082015181600201601b6101000a81548163ffffffff021916908363ffffffff160217905550505050611961613153565b5050565b60086020528060005260406000206000915090505481565b611985612cbb565b6000600381111561199957611998614452565b5b600660019054906101000a900460ff1660038111156119bb576119ba614452565b5b146119c557600080fd5b6000600c83815481106119db576119da614933565b5b906000526020600020906003020190503373ffffffffffffffffffffffffffffffffffffffff168160010160009054906101000a900473ffffffffffffffffffffffffffffffffffffffff1673ffffffffffffffffffffffffffffffffffffffff16148015611a58575080600201601a9054906101000a900460ff165b611a6157600080fd5b8181600201600c6101000a8154816bffffffffffffffffffffffff02191690836bffffffffffffffffffffffff16021790555060018160020160196101000a81548160ff0219169083151502179055507f50c7c110b9cabc516cf0aef475d15558b239d0490f0389129f4e6b4c378dfa3d60405160405180910390a150611ae6613153565b5050565b611af2612cbb565b6000600c8281548110611b0857611b07614933565b5b906000526020600020906003020190503373ffffffffffffffffffffffffffffffffffffffff168160010160009054906101000a900473ffffffffffffffffffffffffffffffffffffffff1673ffffffffffffffffffffffffffffffffffffffff16148015611bc657503373ffffffffffffffffffffffffffffffffffffffff168160000160009054906101000a900473ffffffffffffffffffffffffffffffffffffffff1673ffffffffffffffffffffffffffffffffffffffff16145b8015611be0575080600201601a9054906101000a900460ff165b611c1f576040517f08c379a0000000000000000000000000000000000000000000000000000000008152600401611c1690614cc7565b60405180910390fd5b60008160010160149054906101000a90046bffffffffffffffffffffffff168260020160009054906101000a90046bffffffffffffffffffffffff16016bffffffffffffffffffffffff16905060008260010160006101000a81548173ffffffffffffffffffffffffffffffffffffffff021916908373ffffffffffffffffffffffffffffffffffffffff16021790555060008260000160006101000a81548173ffffffffffffffffffffffffffffffffffffffff021916908373ffffffffffffffffffffffffffffffffffffffff16021790555060008260020160006101000a8154816bffffffffffffffffffffffff02191690836bffffffffffffffffffffffff16021790555060008260010160146101000a8154816bffffffffffffffffffffffff02191690836bffffffffffffffffffffffff160217905550600082600201601a6101000a81548160ff02191690831515021790555060003373ffffffffffffffffffffffffffffffffffffffff1682604051611d9f90614b22565b60006040518083038185875af1925050503d8060008114611ddc576040519150601f19603f3d011682016040523d82523d6000602084013e611de1565b606091505b5050905080611e25576040517f08c379a0000000000000000000000000000000000000000000000000000000008152600401611e1c90614b83565b60405180910390fd5b7fa9c660d43fdb14d4f7f7226623a556967689f58ee0e7c1a3397257bb909454c960405160405180910390a1505050611e5c613153565b50565b611e67612cbb565b6000600c8481548110611e7d57611e7c614933565b5b906000526020600020906003020190503373ffffffffffffffffffffffffffffffffffffffff168160010160009054906101000a900473ffffffffffffffffffffffffffffffffffffffff1673ffffffffffffffffffffffffffffffffffffffff16148015611f3b57503373ffffffffffffffffffffffffffffffffffffffff168160000160009054906101000a900473ffffffffffffffffffffffffffffffffffffffff1673ffffffffffffffffffffffffffffffffffffffff16145b8015611f5657506000836bffffffffffffffffffffffff1610155b8015611f7157506000826bffffffffffffffffffffffff1610155b8015611f8b575080600201601a9054906101000a900460ff165b611fca576040517f08c379a0000000000000000000000000000000000000000000000000000000008152600401611fc190614cc7565b60405180910390fd5b60008160010160149054906101000a90046bffffffffffffffffffffffff169050806bffffffffffffffffffffffff16846bffffffffffffffffffffffff16146121ba57806bffffffffffffffffffffffff16846bffffffffffffffffffffffff16101561212d5760008482039050848360010160146101000a8154816bffffffffffffffffffffffff02191690836bffffffffffffffffffffffff16021790555060003373ffffffffffffffffffffffffffffffffffffffff16826bffffffffffffffffffffffff166040516120a090614b22565b60006040518083038185875af1925050503d80600081146120dd576040519150601f19603f3d011682016040523d82523d6000602084013e6120e2565b606091505b5050905080612126576040517f08c379a000000000000000000000000000000000000000000000000000000000815260040161211d90614d33565b60405180910390fd5b50506121b9565b60008185039050806bffffffffffffffffffffffff163414612184576040517f08c379a000000000000000000000000000000000000000000000000000000000815260040161217b90614d9f565b60405180910390fd5b848360010160146101000a8154816bffffffffffffffffffffffff02191690836bffffffffffffffffffffffff160217905550505b5b8282600201600c6101000a8154816bffffffffffffffffffffffff02191690836bffffffffffffffffffffffff16021790555060018260020160196101000a81548160ff0219169083151502179055507ff75e56f787976a19558bde97657a643e88c61a76b39e41f3a06a120defa30d6160405160405180910390a15050612240613153565b505050565b6000805b6001805490508110156122e3573373ffffffffffffffffffffffffffffffffffffffff166001828154811061228157612280614933565b5b9060005260206000200160009054906101000a900473ffffffffffffffffffffffffffffffffffffffff1673ffffffffffffffffffffffffffffffffffffffff16036122d057600191506122e3565b80806122db90614991565b915050612249565b507f000000000000000000000000000000000000000000000000000000000000000073ffffffffffffffffffffffffffffffffffffffff163373ffffffffffffffffffffffffffffffffffffffff16148061233b5750805b61237a576040517f08c379a000000000000000000000000000000000000000000000000000000000815260040161237190614e31565b60405180910390fd5b612382612cbb565b6001600381111561239657612395614452565b5b600660019054906101000a900460ff1660038111156123b8576123b7614452565b5b1480156123c6575060035442115b8061240357506003808111156123df576123de614452565b5b600660019054906101000a900460ff16600381111561240157612400614452565b5b145b61240c57600080fd5b60006004541161241b57600080fd5b60006004549050600060048190555060007f000000000000000000000000000000000000000000000000000000000000000073ffffffffffffffffffffffffffffffffffffffff168260405161247090614b22565b60006040518083038185875af1925050503d80600081146124ad576040519150601f19603f3d011682016040523d82523d6000602084013e6124b2565b606091505b50509050806124f6576040517f08c379a00000000000000000000000000000000000000000000000000000000081526004016124ed90614b83565b60405180910390fd5b5050612500613153565b50565b600660019054906101000a900460ff1681565b61251e612cbb565b6005600760003373ffffffffffffffffffffffffffffffffffffffff1673ffffffffffffffffffffffffffffffffffffffff1681526020019081526020016000208054905061256d9190614e51565b8151111561257a57600080fd5b60005b815181101561279e57600082828151811061259b5761259a614933565b5b602002602001015190503373ffffffffffffffffffffffffffffffffffffffff16600c82815481106125d0576125cf614933565b5b906000526020600020906003020160010160009054906101000a900473ffffffffffffffffffffffffffffffffffffffff1673ffffffffffffffffffffffffffffffffffffffff1614612658576040517f08c379a000000000000000000000000000000000000000000000000000000000815260040161264f90614ed1565b60405180910390fd5b60011515600c82815481106126705761266f614933565b5b906000526020600020906003020160020160199054906101000a900460ff161515146126d1576040517f08c379a00000000000000000000000000000000000000000000000000000000081526004016126c890614f3d565b60405180910390fd5b600c81815481106126e5576126e4614933565b5b9060005260206000209060030201600201601a9054906101000a900460ff1661270d57600080fd5b600c805490508110612754576040517f08c379a000000000000000000000000000000000000000000000000000000000815260040161274b90614fa9565b60405180910390fd5b6000600c828154811061276a57612769614933565b5b906000526020600020906003020160020160196101000a81548160ff0219169083151502179055508160010191505061257d565b507f1e5a109a2c5190a6567f1b2386d95213f70c40047a7d1f2fb64e5974c9a0043a60405160405180910390a16127d3613153565b50565b600660009054906101000a900460ff1681565b6127f1612cbb565b6000600381111561280557612804614452565b5b600660019054906101000a900460ff16600381111561282757612826614452565b5b1461283157600080fd5b6000600c828154811061284757612846614933565b5b9060005260206000209060030201905080600201601a9054906101000a900460ff16801561289e575080600201600c9054906101000a90046bffffffffffffffffffffffff166bffffffffffffffffffffffff1634145b80156128b857506bffffffffffffffffffffffff80163411155b80156128d257508060020160199054906101000a900460ff165b801561292e57503373ffffffffffffffffffffffffffffffffffffffff168160010160009054906101000a900473ffffffffffffffffffffffffffffffffffffffff1673ffffffffffffffffffffffffffffffffffffffff1614155b61293757600080fd5b60008160010160009054906101000a900473ffffffffffffffffffffffffffffffffffffffff16905060008260020160009054906101000a90046bffffffffffffffffffffffff166bffffffffffffffffffffffff16036129ca57348260020160006101000a8154816bffffffffffffffffffffffff02191690836bffffffffffffffffffffffff160217905550612b35565b34600860008373ffffffffffffffffffffffffffffffffffffffff1673ffffffffffffffffffffffffffffffffffffffff168152602001908152602001600020600082825401925050819055506009600084815260200190815260200160002060405180606001604052803373ffffffffffffffffffffffffffffffffffffffff1681526020018373ffffffffffffffffffffffffffffffffffffffff16815260200134815250908060018154018082558091505060019003906000526020600020906003020160009091909190915060008201518160000160006101000a81548173ffffffffffffffffffffffffffffffffffffffff021916908373ffffffffffffffffffffffffffffffffffffffff16021790555060208201518160010160006101000a81548173ffffffffffffffffffffffffffffffffffffffff021916908373ffffffffffffffffffffffffffffffffffffffff1602179055506040820151816002015550505b600760003373ffffffffffffffffffffffffffffffffffffffff1673ffffffffffffffffffffffffffffffffffffffff168152602001908152602001600020839080600181540180825580915050600190039060005260206000200160009091909190915055338260010160006101000a81548173ffffffffffffffffffffffffffffffffffffffff021916908373ffffffffffffffffffffffffffffffffffffffff16021790555060008260020160196101000a81548160ff0219169083151502179055507f34825dc172bd596324998d16543dc86015d6a6dd51a29758081d1f535c18b59d60405160405180910390a15050612c31613153565b50565b60096020528160005260406000208181548110612c5057600080fd5b9060005260206000209060030201600091509150508060000160009054906101000a900473ffffffffffffffffffffffffffffffffffffffff16908060010160009054906101000a900473ffffffffffffffffffffffffffffffffffffffff16908060020154905083565b600260005403612cf7576040517f3ee5aeb500000000000000000000000000000000000000000000000000000000815260040160405180910390fd5b6002600081905550565b600b6000612d0f9190613f6e565b6000600c80549050905060005b81811015612fa85760006009600083815260200190815260200160002090506000818054905090506000811115612f9b5760005b81811015612f99576000838281548110612d6d57612d6c614933565b5b906000526020600020906003020160000160009054906101000a900473ffffffffffffffffffffffffffffffffffffffff169050838281548110612db457612db3614933565b5b906000526020600020906003020160020154600a60008373ffffffffffffffffffffffffffffffffffffffff1673ffffffffffffffffffffffffffffffffffffffff168152602001908152602001600020600082825401925050819055506000600a60008373ffffffffffffffffffffffffffffffffffffffff1673ffffffffffffffffffffffffffffffffffffffff16815260200190815260200160002054118015612e675750612e6581613a31565b155b15612ed057600b819080600181540180825580915050600190039060005260206000200160009091909190916101000a81548173ffffffffffffffffffffffffffffffffffffffff021916908373ffffffffffffffffffffffffffffffffffffffff1602179055505b600183612edd9190614fc9565b8203612f8d5783600081548110612ef757612ef6614933565b5b906000526020600020906003020160010160009054906101000a900473ffffffffffffffffffffffffffffffffffffffff16600c8681548110612f3d57612f3c614933565b5b906000526020600020906003020160010160006101000a81548173ffffffffffffffffffffffffffffffffffffffff021916908373ffffffffffffffffffffffffffffffffffffffff1602179055505b81600101915050612d50565b505b8260010192505050612d1c565b506000600b80549050905060005b8181101561314e576000600b8281548110612fd457612fd3614933565b5b9060005260206000200160009054906101000a900473ffffffffffffffffffffffffffffffffffffffff1690506000600a60008373ffffffffffffffffffffffffffffffffffffffff1673ffffffffffffffffffffffffffffffffffffffff1681526020019081526020016000205490506000811115613141576000600a60008473ffffffffffffffffffffffffffffffffffffffff1673ffffffffffffffffffffffffffffffffffffffff1681526020019081526020016000208190555060008273ffffffffffffffffffffffffffffffffffffffff16826040516130b990614b22565b60006040518083038185875af1925050503d80600081146130f6576040519150601f19603f3d011682016040523d82523d6000602084013e6130fb565b606091505b505090508061313f576040517f08c379a000000000000000000000000000000000000000000000000000000000815260040161313690614d33565b60405180910390fd5b505b8260010192505050612fb6565b505050565b6001600081905550565b6000803373ffffffffffffffffffffffffffffffffffffffff168360000160009054906101000a900473ffffffffffffffffffffffffffffffffffffffff1673ffffffffffffffffffffffffffffffffffffffff1614801561320e57503373ffffffffffffffffffffffffffffffffffffffff168360010160009054906101000a900473ffffffffffffffffffffffffffffffffffffffff1673ffffffffffffffffffffffffffffffffffffffff16145b156132d4578260020160009054906101000a90046bffffffffffffffffffffffff168360010160149054906101000a90046bffffffffffffffffffffffff166132579190614ffd565b6bffffffffffffffffffffffff16915060008360010160146101000a8154816bffffffffffffffffffffffff02191690836bffffffffffffffffffffffff16021790555060008360020160006101000a8154816bffffffffffffffffffffffff02191690836bffffffffffffffffffffffff16021790555061354e565b3373ffffffffffffffffffffffffffffffffffffffff168360010160009054906101000a900473ffffffffffffffffffffffffffffffffffffffff1673ffffffffffffffffffffffffffffffffffffffff161480156133585750600660009054906101000a900460ff1660ff168360020160189054906101000a900460ff1660ff16145b806133e457503373ffffffffffffffffffffffffffffffffffffffff168360000160009054906101000a900473ffffffffffffffffffffffffffffffffffffffff1673ffffffffffffffffffffffffffffffffffffffff161480156133e35750600660009054906101000a900460ff1660ff168360020160189054906101000a900460ff1660ff1614155b5b1561354d578260010160149054906101000a90046bffffffffffffffffffffffff168360020160009054906101000a90046bffffffffffffffffffffffff1661342d9190614ffd565b6bffffffffffffffffffffffff1691503373ffffffffffffffffffffffffffffffffffffffff168360010160009054906101000a900473ffffffffffffffffffffffffffffffffffffffff1673ffffffffffffffffffffffffffffffffffffffff16146134b6578260020160009054906101000a90046bffffffffffffffffffffffff166134d4565b8260010160149054906101000a90046bffffffffffffffffffffffff165b6bffffffffffffffffffffffff16905060008360020160006101000a8154816bffffffffffffffffffffffff02191690836bffffffffffffffffffffffff16021790555060008360010160146101000a8154816bffffffffffffffffffffffff02191690836bffffffffffffffffffffffff1602179055505b5b915091565b60008060008367ffffffffffffffff81111561357257613571614715565b5b6040519080825280602002602001820160405280156135a05781602001602082028036833780820191505090505b5090506000805b8581101561368f5760008782815481106135c4576135c3614933565b5b906000526020600020015490506000805b8481101561361257828682815181106135f1576135f0614933565b5b6020026020010151036136075760019150613612565b8060010190506135d5565b5080613682578185858151811061362c5761362b614933565b5b6020026020010181815250508360010193506000600c838154811061365457613653614933565b5b9060005260206000209060030201905060008061367083613ada565b91509150818a01995080890198505050505b82600101925050506135a7565b5050509250929050565b60606000600c8054905090506000808267ffffffffffffffff8111156136c2576136c1614715565b5b6040519080825280602002602001820160405280156136fb57816020015b6136e8613f8f565b8152602001906001900390816136e05790505b50905060005b8381101561397e57600c818154811061371d5761371c614933565b5b9060005260206000209060030201600201601a9054906101000a900460ff161561397357600c818154811061375557613754614933565b5b9060005260206000209060030201604051806101200160405290816000820160009054906101000a900473ffffffffffffffffffffffffffffffffffffffff1673ffffffffffffffffffffffffffffffffffffffff1673ffffffffffffffffffffffffffffffffffffffff1681526020016001820160009054906101000a900473ffffffffffffffffffffffffffffffffffffffff1673ffffffffffffffffffffffffffffffffffffffff1673ffffffffffffffffffffffffffffffffffffffff1681526020016001820160149054906101000a90046bffffffffffffffffffffffff166bffffffffffffffffffffffff166bffffffffffffffffffffffff1681526020016002820160009054906101000a90046bffffffffffffffffffffffff166bffffffffffffffffffffffff166bffffffffffffffffffffffff16815260200160028201600c9054906101000a90046bffffffffffffffffffffffff166bffffffffffffffffffffffff166bffffffffffffffffffffffff1681526020016002820160189054906101000a900460ff1660ff1660ff1681526020016002820160199054906101000a900460ff1615151515815260200160028201601a9054906101000a900460ff1615151515815260200160028201601b9054906101000a900463ffffffff1663ffffffff1663ffffffff168152505082848151811061396157613960614933565b5b60200260200101819052508260010192505b806001019050613701565b5060008267ffffffffffffffff81111561399b5761399a614715565b5b6040519080825280602002602001820160405280156139d457816020015b6139c1613f8f565b8152602001906001900390816139b95790505b50905060005b83811015613a26578281815181106139f5576139f4614933565b5b6020026020010151828281518110613a1057613a0f614933565b5b60200260200101819052508060010190506139da565b508094505050505090565b600080600b80549050905060005b81811015613ace578373ffffffffffffffffffffffffffffffffffffffff16600b8281548110613a7257613a71614933565b5b9060005260206000200160009054906101000a900473ffffffffffffffffffffffffffffffffffffffff1673ffffffffffffffffffffffffffffffffffffffff1603613ac357600192505050613ad5565b806001019050613a3f565b5060009150505b919050565b6000806000600660009054906101000a900460ff1660ff1603613b035760008091509150613f69565b6003600660009054906101000a900460ff1660ff1603613c3e573373ffffffffffffffffffffffffffffffffffffffff168360010160009054906101000a900473ffffffffffffffffffffffffffffffffffffffff1673ffffffffffffffffffffffffffffffffffffffff1603613ba2578260020160009054906101000a90046bffffffffffffffffffffffff166bffffffffffffffffffffffff1691505b3373ffffffffffffffffffffffffffffffffffffffff168360000160009054906101000a900473ffffffffffffffffffffffffffffffffffffffff1673ffffffffffffffffffffffffffffffffffffffff1603613c32578260010160149054906101000a90046bffffffffffffffffffffffff166bffffffffffffffffffffffff1682613c2f9190614e51565b91505b81600091509150613f69565b3373ffffffffffffffffffffffffffffffffffffffff168360000160009054906101000a900473ffffffffffffffffffffffffffffffffffffffff1673ffffffffffffffffffffffffffffffffffffffff16148015613cec57503373ffffffffffffffffffffffffffffffffffffffff168360010160009054906101000a900473ffffffffffffffffffffffffffffffffffffffff1673ffffffffffffffffffffffffffffffffffffffff16145b15613d51578260020160009054906101000a90046bffffffffffffffffffffffff168360010160149054906101000a90046bffffffffffffffffffffffff16613d359190614ffd565b6000816bffffffffffffffffffffffff16915091509150613f69565b60003373ffffffffffffffffffffffffffffffffffffffff168460010160009054906101000a900473ffffffffffffffffffffffffffffffffffffffff1673ffffffffffffffffffffffffffffffffffffffff16148015613dd75750600660009054906101000a900460ff1660ff168460020160189054906101000a900460ff1660ff16145b80613e6357503373ffffffffffffffffffffffffffffffffffffffff168460000160009054906101000a900473ffffffffffffffffffffffffffffffffffffffff1673ffffffffffffffffffffffffffffffffffffffff16148015613e625750600660009054906101000a900460ff1660ff168460020160189054906101000a900460ff1660ff1614155b5b90508015613f67578360010160149054906101000a90046bffffffffffffffffffffffff168460020160009054906101000a90046bffffffffffffffffffffffff16613eaf9190614ffd565b6bffffffffffffffffffffffff1692503373ffffffffffffffffffffffffffffffffffffffff168460010160009054906101000a900473ffffffffffffffffffffffffffffffffffffffff1673ffffffffffffffffffffffffffffffffffffffff1614613f38578360020160009054906101000a90046bffffffffffffffffffffffff16613f56565b8360010160149054906101000a90046bffffffffffffffffffffffff165b6bffffffffffffffffffffffff1691505b505b915091565b5080546000825590600052602060002090810190613f8c919061403e565b50565b604051806101200160405280600073ffffffffffffffffffffffffffffffffffffffff168152602001600073ffffffffffffffffffffffffffffffffffffffff16815260200160006bffffffffffffffffffffffff16815260200160006bffffffffffffffffffffffff16815260200160006bffffffffffffffffffffffff168152602001600060ff168152602001600015158152602001600015158152602001600063ffffffff1681525090565b5b8082111561405757600081600090555060010161403f565b5090565b6000604051905090565b600080fd5b600080fd5b600060ff82169050919050565b6140858161406f565b811461409057600080fd5b50565b6000813590506140a28161407c565b92915050565b6000602082840312156140be576140bd614065565b5b60006140cc84828501614093565b91505092915050565b6000819050919050565b6140e8816140d5565b82525050565b600060208201905061410360008301846140df565b92915050565b614112816140d5565b811461411d57600080fd5b50565b60008135905061412f81614109565b92915050565b60006020828403121561414b5761414a614065565b5b600061415984828501614120565b91505092915050565b600073ffffffffffffffffffffffffffffffffffffffff82169050919050565b600061418d82614162565b9050919050565b61419d81614182565b82525050565b60006bffffffffffffffffffffffff82169050919050565b6141c4816141a3565b82525050565b6141d38161406f565b82525050565b60008115159050919050565b6141ee816141d9565b82525050565b600063ffffffff82169050919050565b61420d816141f4565b82525050565b600061012082019050614229600083018c614194565b614236602083018b614194565b614243604083018a6141bb565b61425060608301896141bb565b61425d60808301886141bb565b61426a60a08301876141ca565b61427760c08301866141e5565b61428460e08301856141e5565b614292610100830184614204565b9a9950505050505050505050565b600081519050919050565b600082825260208201905092915050565b6000819050602082019050919050565b6142d581614182565b82525050565b6142e4816141a3565b82525050565b6142f38161406f565b82525050565b614302816141d9565b82525050565b614311816141f4565b82525050565b6101208201600082015161432e60008501826142cc565b50602082015161434160208501826142cc565b50604082015161435460408501826142db565b50606082015161436760608501826142db565b50608082015161437a60808501826142db565b5060a082015161438d60a08501826142ea565b5060c08201516143a060c08501826142f9565b5060e08201516143b360e08501826142f9565b506101008201516143c8610100850182614308565b50505050565b60006143da8383614317565b6101208301905092915050565b6000602082019050919050565b60006143ff826142a0565b61440981856142ab565b9350614414836142bc565b8060005b8381101561444557815161442c88826143ce565b9750614437836143e7565b925050600181019050614418565b5085935050505092915050565b7f4e487b7100000000000000000000000000000000000000000000000000000000600052602160045260246000fd5b6004811061449257614491614452565b5b50565b60008190506144a382614481565b919050565b60006144b382614495565b9050919050565b6144c3816144a8565b82525050565b600060c08201905081810360008301526144e381896143f4565b90506144f260208301886140df565b6144ff60408301876141ca565b61450c60608301866144ba565b61451960808301856140df565b61452660a08301846140df565b979650505050505050565b61453a81614182565b811461454557600080fd5b50565b60008135905061455781614531565b92915050565b6000806040838503121561457457614573614065565b5b600061458285828601614548565b925050602061459385828601614120565b9150509250929050565b60006020820190506145b26000830184614194565b92915050565b600080604083850312156145cf576145ce614065565b5b60006145dd85828601614120565b92505060206145ee85828601614093565b9150509250929050565b60006020828403121561460e5761460d614065565b5b600061461c84828501614548565b91505092915050565b61462e816141a3565b811461463957600080fd5b50565b60008135905061464b81614625565b92915050565b6000806040838503121561466857614667614065565b5b600061467685828601614120565b92505060206146878582860161463c565b9150509250929050565b6000806000606084860312156146aa576146a9614065565b5b60006146b886828701614120565b93505060206146c98682870161463c565b92505060406146da8682870161463c565b9150509250925092565b60006020820190506146f960008301846144ba565b92915050565b600080fd5b6000601f19601f8301169050919050565b7f4e487b7100000000000000000000000000000000000000000000000000000000600052604160045260246000fd5b61474d82614704565b810181811067ffffffffffffffff8211171561476c5761476b614715565b5b80604052505050565b600061477f61405b565b905061478b8282614744565b919050565b600067ffffffffffffffff8211156147ab576147aa614715565b5b602082029050602081019050919050565b600080fd5b60006147d46147cf84614790565b614775565b905080838252602082019050602084028301858111156147f7576147f66147bc565b5b835b81811015614820578061480c8882614120565b8452602084019350506020810190506147f9565b5050509392505050565b600082601f83011261483f5761483e6146ff565b5b813561484f8482602086016147c1565b91505092915050565b60006020828403121561486e5761486d614065565b5b600082013567ffffffffffffffff81111561488c5761488b61406a565b5b6148988482850161482a565b91505092915050565b60006020820190506148b660008301846141ca565b92915050565b600080604083850312156148d3576148d2614065565b5b60006148e185828601614120565b92505060206148f285828601614120565b9150509250929050565b60006060820190506149116000830186614194565b61491e6020830185614194565b61492b60408301846140df565b949350505050565b7f4e487b7100000000000000000000000000000000000000000000000000000000600052603260045260246000fd5b7f4e487b7100000000000000000000000000000000000000000000000000000000600052601160045260246000fd5b600061499c826140d5565b91507fffffffffffffffffffffffffffffffffffffffffffffffffffffffffffffffff82036149ce576149cd614962565b5b600182019050919050565b600082825260208201905092915050565b7f43616c6c6572206973206e6f742061207374616666206d656d62657200000000600082015250565b6000614a20601c836149d9565b9150614a2b826149ea565b602082019050919050565b60006020820190508181036000830152614a4f81614a13565b9050919050565b7f496e76616c69642073746174652076616c756500000000000000000000000000600082015250565b6000614a8c6013836149d9565b9150614a9782614a56565b602082019050919050565b60006020820190508181036000830152614abb81614a7f565b9050919050565b7f4e487b7100000000000000000000000000000000000000000000000000000000600052601260045260246000fd5b600081905092915050565b50565b6000614b0c600083614af1565b9150614b1782614afc565b600082019050919050565b6000614b2d82614aff565b9150819050919050565b7f5472616e73666572206661696c65640000000000000000000000000000000000600082015250565b6000614b6d600f836149d9565b9150614b7882614b37565b602082019050919050565b60006020820190508181036000830152614b9c81614b60565b9050919050565b7f416d6f756e7420746f6f206c6172676500000000000000000000000000000000600082015250565b6000614bd96010836149d9565b9150614be482614ba3565b602082019050919050565b60006020820190508181036000830152614c0881614bcc565b9050919050565b7f42757920616d6f756e7420746f6f206c61726765000000000000000000000000600082015250565b6000614c456014836149d9565b9150614c5082614c0f565b602082019050919050565b60006020820190508181036000830152614c7481614c38565b9050919050565b7f4e6f7420617574686f72697a6564206f722062657420696e6163746976650000600082015250565b6000614cb1601e836149d9565b9150614cbc82614c7b565b602082019050919050565b60006020820190508181036000830152614ce081614ca4565b9050919050565b7f526566756e64206661696c656400000000000000000000000000000000000000600082015250565b6000614d1d600d836149d9565b9150614d2882614ce7565b602082019050919050565b60006020820190508181036000830152614d4c81614d10565b9050919050565b7f496e636f72726563742076616c75652073656e74000000000000000000000000600082015250565b6000614d896014836149d9565b9150614d9482614d53565b602082019050919050565b60006020820190508181036000830152614db881614d7c565b9050919050565b7f43616c6c6572206973206e6f7420746865206f776e6572206f7220612073746160008201527f6666206d656d6265720000000000000000000000000000000000000000000000602082015250565b6000614e1b6029836149d9565b9150614e2682614dbf565b604082019050919050565b60006020820190508181036000830152614e4a81614e0e565b9050919050565b6000614e5c826140d5565b9150614e67836140d5565b9250828201905080821115614e7f57614e7e614962565b5b92915050565b7f43616c6c6572206973206e6f7420746865206f776e6572000000000000000000600082015250565b6000614ebb6017836149d9565b9150614ec682614e85565b602082019050919050565b60006020820190508181036000830152614eea81614eae565b9050919050565b7f426574206973206e6f7420666f722073616c6500000000000000000000000000600082015250565b6000614f276013836149d9565b9150614f3282614ef1565b602082019050919050565b60006020820190508181036000830152614f5681614f1a565b9050919050565b7f496e76616c696420506f736974696f6e00000000000000000000000000000000600082015250565b6000614f936010836149d9565b9150614f9e82614f5d565b602082019050919050565b60006020820190508181036000830152614fc281614f86565b9050919050565b6000614fd4826140d5565b9150614fdf836140d5565b9250828203905081811115614ff757614ff6614962565b5b92915050565b6000615008826141a3565b9150615013836141a3565b925082820190506bffffffffffffffffffffffff81111561503757615036614962565b5b9291505056fea264697066735822122069c3b871af07c493b04bbe7c6cdafc4e62c9ded7bf30fbb9a6844578bc0dd4cc64736f6c63430008140033",
  "linkReferences": {},
  "deployedLinkReferences": {}
}