{
  "_format": "hh-sol-artifact-1",
  "contractName": "predMarket2",
  "sourceName": "contracts/LockV2.sol",
  "abi": [
    {
      "inputs": [
        {
          "internalType": "uint256",
          "name": "_endTime",
          "type": "uint256"
        }
      ],
      "stateMutability": "nonpayable",
      "type": "constructor"
    },
    {
      "inputs": [],
      "name": "ReentrancyGuardReentrantCall",
      "type": "error"
    },
    {
      "anonymous": false,
      "inputs": [],
      "name": "BetEdited",
      "type": "event"
    },
    {
      "anonymous": false,
      "inputs": [],
      "name": "BetUnlisted",
      "type": "event"
    },
    {
      "anonymous": false,
      "inputs": [
        {
          "indexed": true,
          "internalType": "address",
          "name": "beneficiary",
          "type": "address"
        },
        {
          "indexed": false,
          "internalType": "uint256",
          "name": "amount",
          "type": "uint256"
        }
      ],
      "name": "FundsRedistributed",
      "type": "event"
    },
    {
      "anonymous": false,
      "inputs": [],
      "name": "PayoutProcessed",
      "type": "event"
    },
    {
      "anonymous": false,
      "inputs": [],
      "name": "userBoughtBet",
      "type": "event"
    },
    {
      "anonymous": false,
      "inputs": [
        {
          "indexed": false,
          "internalType": "uint256",
          "name": "positionInArray",
          "type": "uint256"
        }
      ],
      "name": "userCreatedABet",
      "type": "event"
    },
    {
      "anonymous": false,
      "inputs": [],
      "name": "userReListedBet",
      "type": "event"
    },
    {
      "anonymous": false,
      "inputs": [],
      "name": "userVoted",
      "type": "event"
    },
    {
      "anonymous": false,
      "inputs": [],
      "name": "userWithdrew",
      "type": "event"
    },
    {
      "anonymous": false,
      "inputs": [],
      "name": "winnerDeclaredVoting",
      "type": "event"
    },
    {
      "inputs": [],
      "name": "allBets_Balance",
      "outputs": [
        {
          "components": [
            {
              "internalType": "address",
              "name": "deployer",
              "type": "address"
            },
            {
              "internalType": "uint256",
              "name": "amountDeployerLocked",
              "type": "uint256"
            },
            {
              "internalType": "address",
              "name": "owner",
              "type": "address"
            },
            {
              "internalType": "uint256",
              "name": "amountBuyerLocked",
              "type": "uint256"
            },
            {
              "internalType": "uint256",
              "name": "amountToBuyFor",
              "type": "uint256"
            },
            {
              "internalType": "uint8",
              "name": "conditionForBuyerToWin",
              "type": "uint8"
            },
            {
              "internalType": "bool",
              "name": "selling",
              "type": "bool"
            },
            {
              "internalType": "uint256",
              "name": "positionInArray",
              "type": "uint256"
            }
          ],
          "internalType": "struct predMarket2.bet[]",
          "name": "",
          "type": "tuple[]"
        },
        {
          "internalType": "uint256",
          "name": "",
          "type": "uint256"
        },
        {
          "internalType": "uint8",
          "name": "",
          "type": "uint8"
        },
        {
          "internalType": "enum predMarket2.RaffleState",
          "name": "",
          "type": "uint8"
        },
        {
          "internalType": "uint256",
          "name": "",
          "type": "uint256"
        },
        {
          "internalType": "uint256",
          "name": "",
          "type": "uint256"
        }
      ],
      "stateMutability": "view",
      "type": "function"
    },
    {
      "inputs": [
        {
          "internalType": "address",
          "name": "",
          "type": "address"
        }
      ],
      "name": "amountMadeFromSoldBets",
      "outputs": [
        {
          "internalType": "uint256",
          "name": "",
          "type": "uint256"
        }
      ],
      "stateMutability": "view",
      "type": "function"
    },
    {
      "inputs": [
        {
          "internalType": "uint256",
          "name": "",
          "type": "uint256"
        }
      ],
      "name": "arrayOfBets",
      "outputs": [
        {
          "internalType": "address",
          "name": "deployer",
          "type": "address"
        },
        {
          "internalType": "uint256",
          "name": "amountDeployerLocked",
          "type": "uint256"
        },
        {
          "internalType": "address",
          "name": "owner",
          "type": "address"
        },
        {
          "internalType": "uint256",
          "name": "amountBuyerLocked",
          "type": "uint256"
        },
        {
          "internalType": "uint256",
          "name": "amountToBuyFor",
          "type": "uint256"
        },
        {
          "internalType": "uint8",
          "name": "conditionForBuyerToWin",
          "type": "uint8"
        },
        {
          "internalType": "bool",
          "name": "selling",
          "type": "bool"
        },
        {
          "internalType": "uint256",
          "name": "positionInArray",
          "type": "uint256"
        }
      ],
      "stateMutability": "view",
      "type": "function"
    },
    {
      "inputs": [
        {
          "internalType": "address",
          "name": "",
          "type": "address"
        },
        {
          "internalType": "uint256",
          "name": "",
          "type": "uint256"
        }
      ],
      "name": "betsByUser",
      "outputs": [
        {
          "internalType": "uint256",
          "name": "",
          "type": "uint256"
        }
      ],
      "stateMutability": "view",
      "type": "function"
    },
    {
      "inputs": [
        {
          "internalType": "uint256",
          "name": "positionOfArray",
          "type": "uint256"
        }
      ],
      "name": "buyABet",
      "outputs": [],
      "stateMutability": "payable",
      "type": "function"
    },
    {
      "inputs": [
        {
          "internalType": "uint8",
          "name": "state",
          "type": "uint8"
        }
      ],
      "name": "changeState",
      "outputs": [],
      "stateMutability": "nonpayable",
      "type": "function"
    },
    {
      "inputs": [],
      "name": "creatorLocked",
      "outputs": [
        {
          "internalType": "uint256",
          "name": "",
          "type": "uint256"
        }
      ],
      "stateMutability": "view",
      "type": "function"
    },
    {
      "inputs": [
        {
          "internalType": "uint8",
          "name": "_winner",
          "type": "uint8"
        }
      ],
      "name": "declareWinner",
      "outputs": [],
      "stateMutability": "nonpayable",
      "type": "function"
    },
    {
      "inputs": [],
      "name": "disagreeWithOwner",
      "outputs": [],
      "stateMutability": "nonpayable",
      "type": "function"
    },
    {
      "inputs": [
        {
          "internalType": "uint256",
          "name": "positionOfArray",
          "type": "uint256"
        },
        {
          "internalType": "uint256",
          "name": "newDeployPrice",
          "type": "uint256"
        },
        {
          "internalType": "uint256",
          "name": "newAskingPrice",
          "type": "uint256"
        }
      ],
      "name": "editADeployedBet",
      "outputs": [],
      "stateMutability": "payable",
      "type": "function"
    },
    {
      "inputs": [],
      "name": "endOfVoting",
      "outputs": [
        {
          "internalType": "uint256",
          "name": "",
          "type": "uint256"
        }
      ],
      "stateMutability": "view",
      "type": "function"
    },
    {
      "inputs": [],
      "name": "owner",
      "outputs": [
        {
          "internalType": "address",
          "name": "",
          "type": "address"
        }
      ],
      "stateMutability": "view",
      "type": "function"
    },
    {
      "inputs": [],
      "name": "s_raffleState",
      "outputs": [
        {
          "internalType": "enum predMarket2.RaffleState",
          "name": "",
          "type": "uint8"
        }
      ],
      "stateMutability": "view",
      "type": "function"
    },
    {
      "inputs": [
        {
          "internalType": "uint256",
          "name": "amountToBuy",
          "type": "uint256"
        },
        {
          "internalType": "uint8",
          "name": "conditionToWIn",
          "type": "uint8"
        }
      ],
      "name": "sellANewBet",
      "outputs": [],
      "stateMutability": "payable",
      "type": "function"
    },
    {
      "inputs": [
        {
          "internalType": "uint256",
          "name": "positionOfArray",
          "type": "uint256"
        },
        {
          "internalType": "uint256",
          "name": "newAskingPrice",
          "type": "uint256"
        }
      ],
      "name": "sellAnExistingBet",
      "outputs": [],
      "stateMutability": "nonpayable",
      "type": "function"
    },
    {
      "inputs": [
        {
          "internalType": "uint256",
          "name": "",
          "type": "uint256"
        },
        {
          "internalType": "uint256",
          "name": "",
          "type": "uint256"
        }
      ],
      "name": "soldBetHistory",
      "outputs": [
        {
          "internalType": "address",
          "name": "buyer",
          "type": "address"
        },
        {
          "internalType": "address",
          "name": "previousOwner",
          "type": "address"
        },
        {
          "internalType": "uint256",
          "name": "amountPaid",
          "type": "uint256"
        }
      ],
      "stateMutability": "view",
      "type": "function"
    },
    {
      "inputs": [],
      "name": "staffPay",
      "outputs": [
        {
          "internalType": "uint256",
          "name": "",
          "type": "uint256"
        }
      ],
      "stateMutability": "view",
      "type": "function"
    },
    {
      "inputs": [],
      "name": "transferOwnerAmount",
      "outputs": [],
      "stateMutability": "nonpayable",
      "type": "function"
    },
    {
      "inputs": [],
      "name": "transferStaffAmount",
      "outputs": [],
      "stateMutability": "nonpayable",
      "type": "function"
    },
    {
      "inputs": [
        {
          "internalType": "uint256[]",
          "name": "positionsOfArray",
          "type": "uint256[]"
        }
      ],
      "name": "unlistBets",
      "outputs": [],
      "stateMutability": "nonpayable",
      "type": "function"
    },
    {
      "inputs": [],
      "name": "winner",
      "outputs": [
        {
          "internalType": "uint8",
          "name": "",
          "type": "uint8"
        }
      ],
      "stateMutability": "view",
      "type": "function"
    },
    {
      "inputs": [],
      "name": "withdraw",
      "outputs": [],
      "stateMutability": "nonpayable",
      "type": "function"
    }
  ],
  "bytecode": "0x60a0604052604051806020016040528073f39fd6e51aad88f6f4ce6ab8827279cfffb9226673ffffffffffffffffffffffffffffffffffffffff1673ffffffffffffffffffffffffffffffffffffffff1681525060019060016200006592919062000111565b503480156200007357600080fd5b5060405162004861380380620048618339818101604052810190620000999190620001ff565b60016000819055503373ffffffffffffffffffffffffffffffffffffffff1660808173ffffffffffffffffffffffffffffffffffffffff1681525050806005819055506000600660016101000a81548160ff0219169083600381111562000105576200010462000231565b5b02179055505062000260565b8280548282559060005260206000209081019282156200018d579160200282015b828111156200018c5782518260006101000a81548173ffffffffffffffffffffffffffffffffffffffff021916908373ffffffffffffffffffffffffffffffffffffffff1602179055509160200191906001019062000132565b5b5090506200019c9190620001a0565b5090565b5b80821115620001bb576000816000905550600101620001a1565b5090565b600080fd5b6000819050919050565b620001d981620001c4565b8114620001e557600080fd5b50565b600081519050620001f981620001ce565b92915050565b600060208284031215620002185762000217620001bf565b5b60006200022884828501620001e8565b91505092915050565b7f4e487b7100000000000000000000000000000000000000000000000000000000600052602160045260246000fd5b6080516145d76200028a60003960008181611dc30152818161257f01526126ec01526145d76000f3fe6080604052600436106101355760003560e01c80638da5cb5b116100ab578063b4a36fd71161006f578063b4a36fd7146103cc578063cc45483f146103e3578063d38399ec1461040e578063dfbf53ae14610437578063ee9891f114610462578063f0d933771461047e57610135565b80638da5cb5b146103035780639651b1831461032e57806397ecf9001461034a5780639e1bffe914610366578063a6c69ffe146103a357610135565b80635d926148116100fd5780635d92614814610212578063607c9cea146102295780636afedac5146102545780637672ef7b146102845780637c54bafe1461029b5780637e887332146102d857610135565b80631798b2ae1461013a578063268f11531461016357806330dda1c21461018c5780633658957e146101b75780633ccfd60b146101fb575b600080fd5b34801561014657600080fd5b50610161600480360381019061015c9190613528565b6104bd565b005b34801561016f57600080fd5b5061018a60048036038101906101859190613528565b61085b565b005b34801561019857600080fd5b506101a16109d8565b6040516101ae919061356e565b60405180910390f35b3480156101c357600080fd5b506101de60048036038101906101d991906135b5565b6109de565b6040516101f298979695949392919061364d565b60405180910390f35b34801561020757600080fd5b50610210610a90565b005b34801561021e57600080fd5b5061022761128b565b005b34801561023557600080fd5b5061023e61149d565b60405161024b919061356e565b60405180910390f35b34801561026057600080fd5b506102696114a3565b60405161027b969594939291906138d0565b60405180910390f35b34801561029057600080fd5b50610299611c53565b005b3480156102a757600080fd5b506102c260048036038101906102bd9190613964565b611d8a565b6040516102cf919061356e565b60405180910390f35b3480156102e457600080fd5b506102ed611dbb565b6040516102fa919061356e565b60405180910390f35b34801561030f57600080fd5b50610318611dc1565b60405161032591906139a4565b60405180910390f35b610348600480360381019061034391906139bf565b611de5565b005b610364600480360381019061035f91906139ff565b6120af565b005b34801561037257600080fd5b5061038d60048036038101906103889190613a52565b612361565b60405161039a919061356e565b60405180910390f35b3480156103af57600080fd5b506103ca60048036038101906103c59190613a7f565b612379565b005b3480156103d857600080fd5b506103e16124de565b005b3480156103ef57600080fd5b506103f8612766565b6040516104059190613abf565b60405180910390f35b34801561041a57600080fd5b5061043560048036038101906104309190613c33565b612779565b005b34801561044357600080fd5b5061044c612962565b6040516104599190613c7c565b60405180910390f35b61047c600480360381019061047791906135b5565b612975565b005b34801561048a57600080fd5b506104a560048036038101906104a09190613a7f565b612e3e565b6040516104b493929190613c97565b60405180910390f35b6000805b60018054905081101561055b573373ffffffffffffffffffffffffffffffffffffffff16600182815481106104f9576104f8613cce565b5b9060005260206000200160009054906101000a900473ffffffffffffffffffffffffffffffffffffffff1673ffffffffffffffffffffffffffffffffffffffff1603610548576001915061055b565b808061055390613d2c565b9150506104c1565b508061059c576040517f08c379a000000000000000000000000000000000000000000000000000000000815260040161059390613dd1565b60405180910390fd5b6105a4612ec5565b60008260ff161180156105ba575060048260ff16105b6105c357600080fd5b60038260ff160361064e576105d6612f0b565b6003600660016101000a81548160ff021916908360038111156105fc576105fb613859565b5b02179055506003600660006101000a81548160ff021916908360ff1602179055507fbbfddbd2a33e1c8d143e1f8b564451965d01678a70438b79b4900cd033c12a2760405160405180910390a161084f565b6000600381111561066257610661613859565b5b600660019054906101000a900460ff16600381111561068457610683613859565b5b0361071a57600042905061012c8161069c9190613df1565b6003819055506001600660016101000a81548160ff021916908360038111156106c8576106c7613859565b5b021790555082600660006101000a81548160ff021916908360ff1602179055507fbbfddbd2a33e1c8d143e1f8b564451965d01678a70438b79b4900cd033c12a2760405160405180910390a15061084e565b6001600381111561072e5761072d613859565b5b600660019054906101000a900460ff1660038111156107505761074f613859565b5b14801561075e575060035442115b8061079c57506002600381111561077857610777613859565b5b600660019054906101000a900460ff16600381111561079a57610799613859565b5b145b6107db576040517f08c379a00000000000000000000000000000000000000000000000000000000081526004016107d290613ebd565b60405180910390fd5b81600660006101000a81548160ff021916908360ff1602179055507fbbfddbd2a33e1c8d143e1f8b564451965d01678a70438b79b4900cd033c12a2760405160405180910390a16003600660016101000a81548160ff0219169083600381111561084857610847613859565b5b02179055505b5b610857613493565b5050565b6000805b6001805490508110156108f9573373ffffffffffffffffffffffffffffffffffffffff166001828154811061089757610896613cce565b5b9060005260206000200160009054906101000a900473ffffffffffffffffffffffffffffffffffffffff1673ffffffffffffffffffffffffffffffffffffffff16036108e657600191506108f9565b80806108f190613d2c565b91505061085f565b508061093a576040517f08c379a000000000000000000000000000000000000000000000000000000000815260040161093190613dd1565b60405180910390fd5b60038081111561094d5761094c613859565b5b60ff168260ff161115610995576040517f08c379a000000000000000000000000000000000000000000000000000000000815260040161098c90613f29565b60405180910390fd5b8160ff1660038111156109ab576109aa613859565b5b600660016101000a81548160ff021916908360038111156109cf576109ce613859565b5b02179055505050565b60045481565b600a81815481106109ee57600080fd5b90600052602060002090600702016000915090508060000160009054906101000a900473ffffffffffffffffffffffffffffffffffffffff16908060010154908060020160009054906101000a900473ffffffffffffffffffffffffffffffffffffffff16908060030154908060040154908060050160009054906101000a900460ff16908060050160019054906101000a900460ff16908060060154905088565b610a98612ec5565b600380811115610aab57610aaa613859565b5b600660019054906101000a900460ff166003811115610acd57610acc613859565b5b1480610b19575060016003811115610ae857610ae7613859565b5b600660019054906101000a900460ff166003811115610b0a57610b09613859565b5b148015610b18575060035442115b5b610b58576040517f08c379a0000000000000000000000000000000000000000000000000000000008152600401610b4f90613f95565b60405180910390fd5b6000600760003373ffffffffffffffffffffffffffffffffffffffff1673ffffffffffffffffffffffffffffffffffffffff16815260200190815260200160002090506000818054905011610be2576040517f08c379a0000000000000000000000000000000000000000000000000000000008152600401610bd990614001565b60405180910390fd5b60008060006003600660009054906101000a900460ff1660ff1614905060005b8480549050811015611057576000858281548110610c2357610c22613cce565b5b906000526020600020015490506000600a8281548110610c4657610c45613cce565b5b906000526020600020906007020190508315610d49573373ffffffffffffffffffffffffffffffffffffffff168160020160009054906101000a900473ffffffffffffffffffffffffffffffffffffffff1673ffffffffffffffffffffffffffffffffffffffff1603610cd057806003015486610cc39190613df1565b9550600081600301819055505b3373ffffffffffffffffffffffffffffffffffffffff168160000160009054906101000a900473ffffffffffffffffffffffffffffffffffffffff1673ffffffffffffffffffffffffffffffffffffffff1603610d4457806001015486610d379190613df1565b9550600081600101819055505b611042565b60003373ffffffffffffffffffffffffffffffffffffffff168260000160009054906101000a900473ffffffffffffffffffffffffffffffffffffffff1673ffffffffffffffffffffffffffffffffffffffff16148015610df957503373ffffffffffffffffffffffffffffffffffffffff168260020160009054906101000a900473ffffffffffffffffffffffffffffffffffffffff1673ffffffffffffffffffffffffffffffffffffffff16145b90508015610e3b5781600301548260010154610e159190613df1565b87610e209190613df1565b96506000826001018190555060008260030181905550611040565b3373ffffffffffffffffffffffffffffffffffffffff168260020160009054906101000a900473ffffffffffffffffffffffffffffffffffffffff1673ffffffffffffffffffffffffffffffffffffffff16148015610ebf5750600660009054906101000a900460ff1660ff168260050160009054906101000a900460ff1660ff16145b80610f4b57503373ffffffffffffffffffffffffffffffffffffffff168260000160009054906101000a900473ffffffffffffffffffffffffffffffffffffffff1673ffffffffffffffffffffffffffffffffffffffff16148015610f4a5750600660009054906101000a900460ff1660ff168260050160009054906101000a900460ff1660ff1614155b5b1561103f57600082600101548360030154610f669190613df1565b90508088610f749190613df1565b97503373ffffffffffffffffffffffffffffffffffffffff168360020160009054906101000a900473ffffffffffffffffffffffffffffffffffffffff1673ffffffffffffffffffffffffffffffffffffffff16148015610ffa5750600660009054906101000a900460ff1660ff168360050160009054906101000a900460ff1660ff16145b156110165782600101548761100f9190613df1565b9650611029565b8260030154876110269190613df1565b96505b6000836003018190555060008360010181905550505b5b505b5050808061104f90613d2c565b915050610c02565b50806111845760008211156110f157600061271061012c846110799190614021565b6110839190614092565b9050600061271060c8856110979190614021565b6110a19190614092565b905081600260008282546110b59190613df1565b9250508190555080600460008282546110ce9190613df1565b9250508190555081816110e19190613df1565b856110ec91906140c3565b945050505b600860003373ffffffffffffffffffffffffffffffffffffffff1673ffffffffffffffffffffffffffffffffffffffff168152602001908152602001600020548361113c9190613df1565b92506000600860003373ffffffffffffffffffffffffffffffffffffffff1673ffffffffffffffffffffffffffffffffffffffff168152602001908152602001600020819055505b600083116111c7576040517f08c379a00000000000000000000000000000000000000000000000000000000081526004016111be90614143565b60405180910390fd5b8247101561120a576040517f08c379a0000000000000000000000000000000000000000000000000000000008152600401611201906141af565b60405180910390fd5b3373ffffffffffffffffffffffffffffffffffffffff166108fc849081150290604051600060405180830381858888f19350505050158015611250573d6000803e3d6000fd5b507fc3038e585f1bbb89a9a4ed41eb9b8f65d3589d382434df15a354153177e39bbd60405160405180910390a150505050611289613493565b565b6000805b600180549050811015611329573373ffffffffffffffffffffffffffffffffffffffff16600182815481106112c7576112c6613cce565b5b9060005260206000200160009054906101000a900473ffffffffffffffffffffffffffffffffffffffff1673ffffffffffffffffffffffffffffffffffffffff16036113165760019150611329565b808061132190613d2c565b91505061128f565b508061136a576040517f08c379a000000000000000000000000000000000000000000000000000000000815260040161136190613dd1565b60405180910390fd5b611372612ec5565b6001600381111561138657611385613859565b5b600660019054906101000a900460ff1660038111156113a8576113a7613859565b5b1480156113b6575060035442115b806113f357506003808111156113cf576113ce613859565b5b600660019054906101000a900460ff1660038111156113f1576113f0613859565b5b145b611432576040517f08c379a00000000000000000000000000000000000000000000000000000000081526004016114299061421b565b60405180910390fd5b60006002541161144157600080fd5b3373ffffffffffffffffffffffffffffffffffffffff166108fc6002549081150290604051600060405180830381858888f19350505050158015611489573d6000803e3d6000fd5b50600060028190555061149a613493565b50565b60025481565b6060600080600080600080600090506000806003600660009054906101000a900460ff1660ff16149050600080600660009054906101000a900460ff1660ff161490506000600760003373ffffffffffffffffffffffffffffffffffffffff1673ffffffffffffffffffffffffffffffffffffffff168152602001908152602001600020905060008180549050905060008167ffffffffffffffff81111561154e5761154d613af0565b5b60405190808252806020026020018201604052801561157c5781602001602082028036833780820191505090505b5090506000805b838110156116405760008582815481106115a05761159f613cce565b5b906000526020600020015490506000805b848110156115f657828682815181106115cd576115cc613cce565b5b6020026020010151036115e357600191506115f6565b80806115ee90613d2c565b9150506115b1565b508061162b57818585815181106116105761160f613cce565b5b602002602001018181525050838061162790613d2c565b9450505b5050808061163890613d2c565b915050611583565b5060005b81811015611a1e57600083828151811061166157611660613cce565b5b602002602001015190506000600a828154811061168157611680613cce565b5b9060005260206000209060070201905087611a09578815611775573373ffffffffffffffffffffffffffffffffffffffff168160020160009054906101000a900473ffffffffffffffffffffffffffffffffffffffff1673ffffffffffffffffffffffffffffffffffffffff16036117065780600301548b6117039190613df1565b9a505b3373ffffffffffffffffffffffffffffffffffffffff168160000160009054906101000a900473ffffffffffffffffffffffffffffffffffffffff1673ffffffffffffffffffffffffffffffffffffffff16036117705780600101548b61176d9190613df1565b9a505b611a08565b3373ffffffffffffffffffffffffffffffffffffffff168160000160009054906101000a900473ffffffffffffffffffffffffffffffffffffffff1673ffffffffffffffffffffffffffffffffffffffff1614801561182357503373ffffffffffffffffffffffffffffffffffffffff168160020160009054906101000a900473ffffffffffffffffffffffffffffffffffffffff1673ffffffffffffffffffffffffffffffffffffffff16145b1561184e578060030154816001015461183c9190613df1565b8b6118479190613df1565b9a50611a07565b3373ffffffffffffffffffffffffffffffffffffffff168160020160009054906101000a900473ffffffffffffffffffffffffffffffffffffffff1673ffffffffffffffffffffffffffffffffffffffff161480156118d25750600660009054906101000a900460ff1660ff168160050160009054906101000a900460ff1660ff16145b8061195e57503373ffffffffffffffffffffffffffffffffffffffff168160000160009054906101000a900473ffffffffffffffffffffffffffffffffffffffff1673ffffffffffffffffffffffffffffffffffffffff1614801561195d5750600660009054906101000a900460ff1660ff168160050160009054906101000a900460ff1660ff1614155b5b15611a0657806001015481600301546119779190613df1565b8b6119829190613df1565b9a503373ffffffffffffffffffffffffffffffffffffffff168160020160009054906101000a900473ffffffffffffffffffffffffffffffffffffffff1673ffffffffffffffffffffffffffffffffffffffff16036119f25780600101548a6119eb9190613df1565b9950611a05565b80600301548a611a029190613df1565b99505b5b5b5b5b50508080611a1690613d2c565b915050611644565b5085611aa8576000871115611a5a5760006064600589611a3e9190614021565b611a489190614092565b90508089611a5691906140c3565b9850505b600860003373ffffffffffffffffffffffffffffffffffffffff1673ffffffffffffffffffffffffffffffffffffffff1681526020019081526020016000205488611aa59190613df1565b97505b600a600554600660009054906101000a900460ff16600660019054906101000a900460ff166003548c85805480602002602001604051908101604052809291908181526020016000905b82821015611c315783829060005260206000209060070201604051806101000160405290816000820160009054906101000a900473ffffffffffffffffffffffffffffffffffffffff1673ffffffffffffffffffffffffffffffffffffffff1673ffffffffffffffffffffffffffffffffffffffff168152602001600182015481526020016002820160009054906101000a900473ffffffffffffffffffffffffffffffffffffffff1673ffffffffffffffffffffffffffffffffffffffff1673ffffffffffffffffffffffffffffffffffffffff16815260200160038201548152602001600482015481526020016005820160009054906101000a900460ff1660ff1660ff1681526020016005820160019054906101000a900460ff1615151515815260200160068201548152505081526020019060010190611af2565b5050505095509d509d509d509d509d509d505050505050505050909192939495565b611c5b612ec5565b60016003811115611c6f57611c6e613859565b5b600660019054906101000a900460ff166003811115611c9157611c90613859565b5b148015611c9f575060035442105b80611cea575060006003811115611cb957611cb8613859565b5b600660019054906101000a900460ff166003811115611cdb57611cda613859565b5b148015611ce9575060055442115b5b611d29576040517f08c379a0000000000000000000000000000000000000000000000000000000008152600401611d209061421b565b60405180910390fd5b6002600660016101000a81548160ff02191690836003811115611d4f57611d4e613859565b5b02179055507f325941a5b65623f14f777a10c4ee68b69cec6214a44a48c1bb1c4991314755c060405160405180910390a1611d88613493565b565b60076020528160005260406000208181548110611da657600080fd5b90600052602060002001600091509150505481565b60035481565b7f000000000000000000000000000000000000000000000000000000000000000081565b611ded612ec5565b60008160ff16118015611e04575060028160ff1611155b611e0d57600080fd5b60003411611e1a57600080fd5b60006003811115611e2e57611e2d613859565b5b600660019054906101000a900460ff166003811115611e5057611e4f613859565b5b14611e5a57600080fd5b6000600a80549050905060006040518061010001604052803373ffffffffffffffffffffffffffffffffffffffff1681526020013481526020013373ffffffffffffffffffffffffffffffffffffffff168152602001600081526020018581526020018460ff168152602001600115158152602001600a805490508152509050600760003373ffffffffffffffffffffffffffffffffffffffff1673ffffffffffffffffffffffffffffffffffffffff168152602001908152602001600020600a805490509080600181540180825580915050600190039060005260206000200160009091909190915055600a81908060018154018082558091505060019003906000526020600020906007020160009091909190915060008201518160000160006101000a81548173ffffffffffffffffffffffffffffffffffffffff021916908373ffffffffffffffffffffffffffffffffffffffff1602179055506020820151816001015560408201518160020160006101000a81548173ffffffffffffffffffffffffffffffffffffffff021916908373ffffffffffffffffffffffffffffffffffffffff160217905550606082015181600301556080820151816004015560a08201518160050160006101000a81548160ff021916908360ff16021790555060c08201518160050160016101000a81548160ff02191690831515021790555060e0820151816006015550507f6c22380a813deedec8365cd79ff359c6da0e59cabe96339962cb1669b9d4e3bd82604051612099919061356e565b60405180910390a150506120ab613493565b5050565b6120b7612ec5565b6000600a84815481106120cd576120cc613cce565b5b906000526020600020906007020190503373ffffffffffffffffffffffffffffffffffffffff168160020160009054906101000a900473ffffffffffffffffffffffffffffffffffffffff1673ffffffffffffffffffffffffffffffffffffffff1614801561218b57503373ffffffffffffffffffffffffffffffffffffffff168160000160009054906101000a900473ffffffffffffffffffffffffffffffffffffffff1673ffffffffffffffffffffffffffffffffffffffff16145b6121ca576040517f08c379a00000000000000000000000000000000000000000000000000000000081526004016121c1906142ad565b60405180910390fd5b6000816001015490508084146122e9578084101561228b57600084826121f091906140c3565b905080471015612235576040517f08c379a000000000000000000000000000000000000000000000000000000000815260040161222c9061433f565b60405180910390fd5b8483600101819055503373ffffffffffffffffffffffffffffffffffffffff166108fc829081150290604051600060405180830381858888f19350505050158015612284573d6000803e3d6000fd5b50506122e8565b6000818561229991906140c3565b90508034146122dd576040517f08c379a00000000000000000000000000000000000000000000000000000000081526004016122d4906143ab565b60405180910390fd5b848360010181905550505b5b8282600401819055508160050160019054906101000a900460ff166123265760018260050160016101000a81548160ff0219169083151502179055505b7ff75e56f787976a19558bde97657a643e88c61a76b39e41f3a06a120defa30d6160405160405180910390a1505061235c613493565b505050565b60086020528060005260406000206000915090505481565b612381612ec5565b6000600381111561239557612394613859565b5b600660019054906101000a900460ff1660038111156123b7576123b6613859565b5b146123c157600080fd5b3373ffffffffffffffffffffffffffffffffffffffff16600a83815481106123ec576123eb613cce565b5b906000526020600020906007020160020160009054906101000a900473ffffffffffffffffffffffffffffffffffffffff1673ffffffffffffffffffffffffffffffffffffffff161461243e57600080fd5b80600a838154811061245357612452613cce565b5b9060005260206000209060070201600401819055506001600a838154811061247e5761247d613cce565b5b906000526020600020906007020160050160016101000a81548160ff0219169083151502179055507f50c7c110b9cabc516cf0aef475d15558b239d0490f0389129f4e6b4c378dfa3d60405160405180910390a16124da613493565b5050565b6000805b60018054905081101561257c573373ffffffffffffffffffffffffffffffffffffffff166001828154811061251a57612519613cce565b5b9060005260206000200160009054906101000a900473ffffffffffffffffffffffffffffffffffffffff1673ffffffffffffffffffffffffffffffffffffffff1603612569576001915061257c565b808061257490613d2c565b9150506124e2565b507f000000000000000000000000000000000000000000000000000000000000000073ffffffffffffffffffffffffffffffffffffffff163373ffffffffffffffffffffffffffffffffffffffff1614806125d45750805b612613576040517f08c379a000000000000000000000000000000000000000000000000000000000815260040161260a9061443d565b60405180910390fd5b61261b612ec5565b6001600381111561262f5761262e613859565b5b600660019054906101000a900460ff16600381111561265157612650613859565b5b14801561265f575060035442115b8061269c575060038081111561267857612677613859565b5b600660019054906101000a900460ff16600381111561269a57612699613859565b5b145b6126db576040517f08c379a00000000000000000000000000000000000000000000000000000000081526004016126d29061421b565b60405180910390fd5b6000600454116126ea57600080fd5b7f000000000000000000000000000000000000000000000000000000000000000073ffffffffffffffffffffffffffffffffffffffff166108fc6004549081150290604051600060405180830381858888f19350505050158015612752573d6000803e3d6000fd5b506000600481905550612763613493565b50565b600660019054906101000a900460ff1681565b612781612ec5565b60005b815181101561292a5760008282815181106127a2576127a1613cce565b5b602002602001015190503373ffffffffffffffffffffffffffffffffffffffff16600a82815481106127d7576127d6613cce565b5b906000526020600020906007020160020160009054906101000a900473ffffffffffffffffffffffffffffffffffffffff1673ffffffffffffffffffffffffffffffffffffffff161461285f576040517f08c379a0000000000000000000000000000000000000000000000000000000008152600401612856906144a9565b60405180910390fd5b60011515600a828154811061287757612876613cce565b5b906000526020600020906007020160050160019054906101000a900460ff161515146128d8576040517f08c379a00000000000000000000000000000000000000000000000000000000081526004016128cf90614515565b60405180910390fd5b6000600a82815481106128ee576128ed613cce565b5b906000526020600020906007020160050160016101000a81548160ff02191690831515021790555050808061292290613d2c565b915050612784565b507f1e5a109a2c5190a6567f1b2386d95213f70c40047a7d1f2fb64e5974c9a0043a60405160405180910390a161295f613493565b50565b600660009054906101000a900460ff1681565b61297d612ec5565b6000600381111561299157612990613859565b5b600660019054906101000a900460ff1660038111156129b3576129b2613859565b5b146129bd57600080fd5b600a81815481106129d1576129d0613cce565b5b90600052602060002090600702016004015434146129ee57600080fd5b60011515600a8281548110612a0657612a05613cce565b5b906000526020600020906007020160050160019054906101000a900460ff16151514612a3157600080fd5b3373ffffffffffffffffffffffffffffffffffffffff16600a8281548110612a5c57612a5b613cce565b5b906000526020600020906007020160020160009054906101000a900473ffffffffffffffffffffffffffffffffffffffff1673ffffffffffffffffffffffffffffffffffffffff1603612ae4576040517f08c379a0000000000000000000000000000000000000000000000000000000008152600401612adb90614581565b60405180910390fd5b6000600a8281548110612afa57612af9613cce565b5b906000526020600020906007020160020160009054906101000a900473ffffffffffffffffffffffffffffffffffffffff1690506000600a8381548110612b4457612b43613cce565b5b90600052602060002090600702016003015403612b8a5734600a8381548110612b7057612b6f613cce565b5b906000526020600020906007020160030181905550612cfe565b6009600083815260200190815260200160002060405180606001604052803373ffffffffffffffffffffffffffffffffffffffff1681526020018373ffffffffffffffffffffffffffffffffffffffff16815260200134815250908060018154018082558091505060019003906000526020600020906003020160009091909190915060008201518160000160006101000a81548173ffffffffffffffffffffffffffffffffffffffff021916908373ffffffffffffffffffffffffffffffffffffffff16021790555060208201518160010160006101000a81548173ffffffffffffffffffffffffffffffffffffffff021916908373ffffffffffffffffffffffffffffffffffffffff16021790555060408201518160020155505034600860008373ffffffffffffffffffffffffffffffffffffffff1673ffffffffffffffffffffffffffffffffffffffff1681526020019081526020016000206000828254612cf69190613df1565b925050819055505b600760003373ffffffffffffffffffffffffffffffffffffffff1673ffffffffffffffffffffffffffffffffffffffff16815260200190815260200160002082908060018154018082558091505060019003906000526020600020016000909190919091505533600a8381548110612d7957612d78613cce565b5b906000526020600020906007020160020160006101000a81548173ffffffffffffffffffffffffffffffffffffffff021916908373ffffffffffffffffffffffffffffffffffffffff1602179055506000600a8381548110612dde57612ddd613cce565b5b906000526020600020906007020160050160016101000a81548160ff0219169083151502179055507f34825dc172bd596324998d16543dc86015d6a6dd51a29758081d1f535c18b59d60405160405180910390a150612e3b613493565b50565b60096020528160005260406000208181548110612e5a57600080fd5b9060005260206000209060030201600091509150508060000160009054906101000a900473ffffffffffffffffffffffffffffffffffffffff16908060010160009054906101000a900473ffffffffffffffffffffffffffffffffffffffff16908060020154905083565b600260005403612f01576040517f3ee5aeb500000000000000000000000000000000000000000000000000000000815260040160405180910390fd5b6002600081905550565b6000805b600180549050811015612fa9573373ffffffffffffffffffffffffffffffffffffffff1660018281548110612f4757612f46613cce565b5b9060005260206000200160009054906101000a900473ffffffffffffffffffffffffffffffffffffffff1673ffffffffffffffffffffffffffffffffffffffff1603612f965760019150612fa9565b8080612fa190613d2c565b915050612f0f565b5080612fea576040517f08c379a0000000000000000000000000000000000000000000000000000000008152600401612fe190613dd1565b60405180910390fd5b600c6000612ff8919061349d565b60005b600a8054905081101561334c576000600960008381526020019081526020016000208054905011156133395760005b600960008381526020019081526020016000208054905081101561333757600060096000848152602001908152602001600020828154811061306f5761306e613cce565b5b906000526020600020906003020160000160009054906101000a900473ffffffffffffffffffffffffffffffffffffffff16905060006009600085815260200190815260200160002083815481106130ca576130c9613cce565b5b90600052602060002090600302016002015490506000805b600c8054905081101561317c578373ffffffffffffffffffffffffffffffffffffffff16600c828154811061311a57613119613cce565b5b9060005260206000200160009054906101000a900473ffffffffffffffffffffffffffffffffffffffff1673ffffffffffffffffffffffffffffffffffffffff1603613169576001915061317c565b808061317490613d2c565b9150506130e2565b50806131e657600c839080600181540180825580915050600190039060005260206000200160009091909190916101000a81548173ffffffffffffffffffffffffffffffffffffffff021916908373ffffffffffffffffffffffffffffffffffffffff1602179055505b81600b60008573ffffffffffffffffffffffffffffffffffffffff1673ffffffffffffffffffffffffffffffffffffffff16815260200190815260200160002060008282546132359190613df1565b925050819055506001600960008781526020019081526020016000208054905061325f91906140c3565b8403613321576009600086815260200190815260200160002060008154811061328b5761328a613cce565b5b906000526020600020906003020160010160009054906101000a900473ffffffffffffffffffffffffffffffffffffffff16600a86815481106132d1576132d0613cce565b5b906000526020600020906007020160020160006101000a81548173ffffffffffffffffffffffffffffffffffffffff021916908373ffffffffffffffffffffffffffffffffffffffff1602179055505b505050808061332f90613d2c565b91505061302a565b505b808061334490613d2c565b915050612ffb565b5060005b600c8054905081101561348f576000600c828154811061337357613372613cce565b5b9060005260206000200160009054906101000a900473ffffffffffffffffffffffffffffffffffffffff1690506000600b60008373ffffffffffffffffffffffffffffffffffffffff1673ffffffffffffffffffffffffffffffffffffffff168152602001908152602001600020549050600081111561347a578173ffffffffffffffffffffffffffffffffffffffff166108fc829081150290604051600060405180830381858888f19350505050158015613433573d6000803e3d6000fd5b506000600b60008473ffffffffffffffffffffffffffffffffffffffff1673ffffffffffffffffffffffffffffffffffffffff168152602001908152602001600020819055505b5050808061348790613d2c565b915050613350565b5050565b6001600081905550565b50805460008255906000526020600020908101906134bb91906134be565b50565b5b808211156134d75760008160009055506001016134bf565b5090565b6000604051905090565b600080fd5b600080fd5b600060ff82169050919050565b613505816134ef565b811461351057600080fd5b50565b600081359050613522816134fc565b92915050565b60006020828403121561353e5761353d6134e5565b5b600061354c84828501613513565b91505092915050565b6000819050919050565b61356881613555565b82525050565b6000602082019050613583600083018461355f565b92915050565b61359281613555565b811461359d57600080fd5b50565b6000813590506135af81613589565b92915050565b6000602082840312156135cb576135ca6134e5565b5b60006135d9848285016135a0565b91505092915050565b600073ffffffffffffffffffffffffffffffffffffffff82169050919050565b600061360d826135e2565b9050919050565b61361d81613602565b82525050565b61362c816134ef565b82525050565b60008115159050919050565b61364781613632565b82525050565b600061010082019050613663600083018b613614565b613670602083018a61355f565b61367d6040830189613614565b61368a606083018861355f565b613697608083018761355f565b6136a460a0830186613623565b6136b160c083018561363e565b6136be60e083018461355f565b9998505050505050505050565b600081519050919050565b600082825260208201905092915050565b6000819050602082019050919050565b61370081613602565b82525050565b61370f81613555565b82525050565b61371e816134ef565b82525050565b61372d81613632565b82525050565b6101008201600082015161374a60008501826136f7565b50602082015161375d6020850182613706565b50604082015161377060408501826136f7565b5060608201516137836060850182613706565b5060808201516137966080850182613706565b5060a08201516137a960a0850182613715565b5060c08201516137bc60c0850182613724565b5060e08201516137cf60e0850182613706565b50505050565b60006137e18383613733565b6101008301905092915050565b6000602082019050919050565b6000613806826136cb565b61381081856136d6565b935061381b836136e7565b8060005b8381101561384c57815161383388826137d5565b975061383e836137ee565b92505060018101905061381f565b5085935050505092915050565b7f4e487b7100000000000000000000000000000000000000000000000000000000600052602160045260246000fd5b6004811061389957613898613859565b5b50565b60008190506138aa82613888565b919050565b60006138ba8261389c565b9050919050565b6138ca816138af565b82525050565b600060c08201905081810360008301526138ea81896137fb565b90506138f9602083018861355f565b6139066040830187613623565b61391360608301866138c1565b613920608083018561355f565b61392d60a083018461355f565b979650505050505050565b61394181613602565b811461394c57600080fd5b50565b60008135905061395e81613938565b92915050565b6000806040838503121561397b5761397a6134e5565b5b60006139898582860161394f565b925050602061399a858286016135a0565b9150509250929050565b60006020820190506139b96000830184613614565b92915050565b600080604083850312156139d6576139d56134e5565b5b60006139e4858286016135a0565b92505060206139f585828601613513565b9150509250929050565b600080600060608486031215613a1857613a176134e5565b5b6000613a26868287016135a0565b9350506020613a37868287016135a0565b9250506040613a48868287016135a0565b9150509250925092565b600060208284031215613a6857613a676134e5565b5b6000613a768482850161394f565b91505092915050565b60008060408385031215613a9657613a956134e5565b5b6000613aa4858286016135a0565b9250506020613ab5858286016135a0565b9150509250929050565b6000602082019050613ad460008301846138c1565b92915050565b600080fd5b6000601f19601f8301169050919050565b7f4e487b7100000000000000000000000000000000000000000000000000000000600052604160045260246000fd5b613b2882613adf565b810181811067ffffffffffffffff82111715613b4757613b46613af0565b5b80604052505050565b6000613b5a6134db565b9050613b668282613b1f565b919050565b600067ffffffffffffffff821115613b8657613b85613af0565b5b602082029050602081019050919050565b600080fd5b6000613baf613baa84613b6b565b613b50565b90508083825260208201905060208402830185811115613bd257613bd1613b97565b5b835b81811015613bfb5780613be788826135a0565b845260208401935050602081019050613bd4565b5050509392505050565b600082601f830112613c1a57613c19613ada565b5b8135613c2a848260208601613b9c565b91505092915050565b600060208284031215613c4957613c486134e5565b5b600082013567ffffffffffffffff811115613c6757613c666134ea565b5b613c7384828501613c05565b91505092915050565b6000602082019050613c916000830184613623565b92915050565b6000606082019050613cac6000830186613614565b613cb96020830185613614565b613cc6604083018461355f565b949350505050565b7f4e487b7100000000000000000000000000000000000000000000000000000000600052603260045260246000fd5b7f4e487b7100000000000000000000000000000000000000000000000000000000600052601160045260246000fd5b6000613d3782613555565b91507fffffffffffffffffffffffffffffffffffffffffffffffffffffffffffffffff8203613d6957613d68613cfd565b5b600182019050919050565b600082825260208201905092915050565b7f43616c6c6572206973206e6f742061207374616666206d656d62657200000000600082015250565b6000613dbb601c83613d74565b9150613dc682613d85565b602082019050919050565b60006020820190508181036000830152613dea81613dae565b9050919050565b6000613dfc82613555565b9150613e0783613555565b9250828201905080821115613e1f57613e1e613cfd565b5b92915050565b7f526166666c65207374617465206d75737420626520696e20564f54494e47206160008201527f6e64207061737420656e64206f6620766f74696e672c206f7220696e20554e4460208201527f45525245564945572073746174652e0000000000000000000000000000000000604082015250565b6000613ea7604f83613d74565b9150613eb282613e25565b606082019050919050565b60006020820190508181036000830152613ed681613e9a565b9050919050565b7f496e76616c69642073746174652076616c756500000000000000000000000000600082015250565b6000613f13601383613d74565b9150613f1e82613edd565b602082019050919050565b60006020820190508181036000830152613f4281613f06565b9050919050565b7f43616e6e6f7420776974686472617720617420746869732074696d6500000000600082015250565b6000613f7f601c83613d74565b9150613f8a82613f49565b602082019050919050565b60006020820190508181036000830152613fae81613f72565b9050919050565b7f4e6f206265747320666f756e6420666f72207573657200000000000000000000600082015250565b6000613feb601683613d74565b9150613ff682613fb5565b602082019050919050565b6000602082019050818103600083015261401a81613fde565b9050919050565b600061402c82613555565b915061403783613555565b925082820261404581613555565b9150828204841483151761405c5761405b613cfd565b5b5092915050565b7f4e487b7100000000000000000000000000000000000000000000000000000000600052601260045260246000fd5b600061409d82613555565b91506140a883613555565b9250826140b8576140b7614063565b5b828204905092915050565b60006140ce82613555565b91506140d983613555565b92508282039050818111156140f1576140f0613cfd565b5b92915050565b7f4e6f2062616c616e636520746f20776974686472617700000000000000000000600082015250565b600061412d601683613d74565b9150614138826140f7565b602082019050919050565b6000602082019050818103600083015261415c81614120565b9050919050565b7f496e73756666696369656e7420636f6e74726163742062616c616e6365000000600082015250565b6000614199601d83613d74565b91506141a482614163565b602082019050919050565b600060208201905081810360008301526141c88161418c565b9050919050565b7f496e76616c6964207374617465206f722074696d650000000000000000000000600082015250565b6000614205601583613d74565b9150614210826141cf565b602082019050919050565b60006020820190508181036000830152614234816141f8565b9050919050565b7f4f6e6c7920746865206465706c6f7965722077686f20697320616c736f20746860008201527f65206f776e65722063616e206564697420746869732062657400000000000000602082015250565b6000614297603983613d74565b91506142a28261423b565b604082019050919050565b600060208201905081810360008301526142c68161428a565b9050919050565b7f496e73756666696369656e7420636f6e74726163742066756e647320666f722060008201527f726566756e640000000000000000000000000000000000000000000000000000602082015250565b6000614329602683613d74565b9150614334826142cd565b604082019050919050565b600060208201905081810360008301526143588161431c565b9050919050565b7f496e636f7272656374206164646974696f6e616c2066756e64732073656e7400600082015250565b6000614395601f83613d74565b91506143a08261435f565b602082019050919050565b600060208201905081810360008301526143c481614388565b9050919050565b7f43616c6c6572206973206e6f7420746865206f776e6572206f7220612073746160008201527f6666206d656d6265720000000000000000000000000000000000000000000000602082015250565b6000614427602983613d74565b9150614432826143cb565b604082019050919050565b600060208201905081810360008301526144568161441a565b9050919050565b7f43616c6c6572206973206e6f7420746865206f776e6572000000000000000000600082015250565b6000614493601783613d74565b915061449e8261445d565b602082019050919050565b600060208201905081810360008301526144c281614486565b9050919050565b7f426574206973206e6f7420666f722073616c6500000000000000000000000000600082015250565b60006144ff601383613d74565b915061450a826144c9565b602082019050919050565b6000602082019050818103600083015261452e816144f2565b9050919050565b7f596f7520616c7265616479206f776e2074686973206265740000000000000000600082015250565b600061456b601883613d74565b915061457682614535565b602082019050919050565b6000602082019050818103600083015261459a8161455e565b905091905056fea2646970667358221220a1cff22cc42d7ff087a8d8634280d557c21a35368efc543201981346398ee77664736f6c63430008140033",
  "linkReferences": {},
  "deployedLinkReferences": {}
}