{
  "_format": "hh-sol-artifact-1",
  "contractName": "predMarket",
  "sourceName": "contracts/Lock.sol",
  "abi": [
    {
      "inputs": [
        {
          "internalType": "uint256",
          "name": "timeToEnd",
          "type": "uint256"
        },
        {
          "internalType": "uint256",
          "name": "_odds1",
          "type": "uint256"
        },
        {
          "internalType": "uint256",
          "name": "_odds2",
          "type": "uint256"
        },
        {
          "internalType": "uint256",
          "name": "_buyIn",
          "type": "uint256"
        }
      ],
      "stateMutability": "nonpayable",
      "type": "constructor"
    },
    {
      "inputs": [
        {
          "internalType": "string",
          "name": "betAorB",
          "type": "string"
        }
      ],
      "name": "didNotBet",
      "type": "error"
    },
    {
      "anonymous": false,
      "inputs": [
        {
          "indexed": true,
          "internalType": "address",
          "name": "sender",
          "type": "address"
        }
      ],
      "name": "userBoughtIn",
      "type": "event"
    },
    {
      "anonymous": false,
      "inputs": [
        {
          "indexed": true,
          "internalType": "address",
          "name": "sender",
          "type": "address"
        },
        {
          "indexed": false,
          "internalType": "uint256",
          "name": "betPlacedValue",
          "type": "uint256"
        }
      ],
      "name": "userPlacedBet",
      "type": "event"
    },
    {
      "anonymous": false,
      "inputs": [
        {
          "indexed": true,
          "internalType": "address",
          "name": "sender",
          "type": "address"
        },
        {
          "indexed": false,
          "internalType": "uint256",
          "name": "betReduced",
          "type": "uint256"
        }
      ],
      "name": "userReducedBet",
      "type": "event"
    },
    {
      "anonymous": false,
      "inputs": [
        {
          "indexed": true,
          "internalType": "address",
          "name": "sender",
          "type": "address"
        },
        {
          "indexed": false,
          "internalType": "string",
          "name": "betAorB",
          "type": "string"
        }
      ],
      "name": "userWithdrewBet",
      "type": "event"
    },
    {
      "inputs": [],
      "name": "BetA",
      "outputs": [
        {
          "internalType": "uint256",
          "name": "",
          "type": "uint256"
        }
      ],
      "stateMutability": "view",
      "type": "function"
    },
    {
      "inputs": [],
      "name": "BetB",
      "outputs": [
        {
          "internalType": "uint256",
          "name": "",
          "type": "uint256"
        }
      ],
      "stateMutability": "view",
      "type": "function"
    },
    {
      "inputs": [
        {
          "internalType": "uint256",
          "name": "",
          "type": "uint256"
        }
      ],
      "name": "arrayOfBettersA",
      "outputs": [
        {
          "internalType": "address payable",
          "name": "bettor",
          "type": "address"
        },
        {
          "internalType": "uint256",
          "name": "amount",
          "type": "uint256"
        }
      ],
      "stateMutability": "view",
      "type": "function"
    },
    {
      "inputs": [
        {
          "internalType": "uint256",
          "name": "",
          "type": "uint256"
        }
      ],
      "name": "arrayOfBettersB",
      "outputs": [
        {
          "internalType": "address payable",
          "name": "bettor",
          "type": "address"
        },
        {
          "internalType": "uint256",
          "name": "amount",
          "type": "uint256"
        }
      ],
      "stateMutability": "view",
      "type": "function"
    },
    {
      "inputs": [],
      "name": "assignEveryoneAmount",
      "outputs": [],
      "stateMutability": "nonpayable",
      "type": "function"
    },
    {
      "inputs": [],
      "name": "betOnBetA",
      "outputs": [
        {
          "internalType": "uint256",
          "name": "",
          "type": "uint256"
        }
      ],
      "stateMutability": "payable",
      "type": "function"
    },
    {
      "inputs": [],
      "name": "betOnBetB",
      "outputs": [
        {
          "internalType": "uint256",
          "name": "",
          "type": "uint256"
        }
      ],
      "stateMutability": "payable",
      "type": "function"
    },
    {
      "inputs": [],
      "name": "betterInfo",
      "outputs": [
        {
          "components": [
            {
              "internalType": "address payable",
              "name": "bettor",
              "type": "address"
            },
            {
              "internalType": "uint256",
              "name": "amount",
              "type": "uint256"
            },
            {
              "internalType": "uint256[2]",
              "name": "odds",
              "type": "uint256[2]"
            }
          ],
          "internalType": "struct predMarket.better",
          "name": "",
          "type": "tuple"
        },
        {
          "components": [
            {
              "internalType": "address payable",
              "name": "bettor",
              "type": "address"
            },
            {
              "internalType": "uint256",
              "name": "amount",
              "type": "uint256"
            },
            {
              "internalType": "uint256[2]",
              "name": "odds",
              "type": "uint256[2]"
            }
          ],
          "internalType": "struct predMarket.better",
          "name": "",
          "type": "tuple"
        }
      ],
      "stateMutability": "view",
      "type": "function"
    },
    {
      "inputs": [
        {
          "internalType": "address",
          "name": "",
          "type": "address"
        }
      ],
      "name": "boughtIn",
      "outputs": [
        {
          "internalType": "bool",
          "name": "",
          "type": "bool"
        }
      ],
      "stateMutability": "view",
      "type": "function"
    },
    {
      "inputs": [],
      "name": "disagree",
      "outputs": [
        {
          "internalType": "uint8",
          "name": "",
          "type": "uint8"
        }
      ],
      "stateMutability": "view",
      "type": "function"
    },
    {
      "inputs": [
        {
          "internalType": "uint8",
          "name": "wlc",
          "type": "uint8"
        }
      ],
      "name": "endBet",
      "outputs": [],
      "stateMutability": "nonpayable",
      "type": "function"
    },
    {
      "inputs": [],
      "name": "endTime",
      "outputs": [
        {
          "internalType": "uint256",
          "name": "",
          "type": "uint256"
        }
      ],
      "stateMutability": "view",
      "type": "function"
    },
    {
      "inputs": [],
      "name": "getBalance",
      "outputs": [
        {
          "internalType": "uint256",
          "name": "",
          "type": "uint256"
        }
      ],
      "stateMutability": "view",
      "type": "function"
    },
    {
      "inputs": [],
      "name": "getRaffleState",
      "outputs": [
        {
          "internalType": "enum predMarket.RaffleState",
          "name": "",
          "type": "uint8"
        }
      ],
      "stateMutability": "view",
      "type": "function"
    },
    {
      "inputs": [],
      "name": "isOwner",
      "outputs": [
        {
          "internalType": "bool",
          "name": "",
          "type": "bool"
        }
      ],
      "stateMutability": "view",
      "type": "function"
    },
    {
      "inputs": [
        {
          "internalType": "uint256",
          "name": "",
          "type": "uint256"
        }
      ],
      "name": "oddsBetA",
      "outputs": [
        {
          "internalType": "uint256",
          "name": "",
          "type": "uint256"
        }
      ],
      "stateMutability": "view",
      "type": "function"
    },
    {
      "inputs": [
        {
          "internalType": "uint256",
          "name": "",
          "type": "uint256"
        }
      ],
      "name": "oddsBetB",
      "outputs": [
        {
          "internalType": "uint256",
          "name": "",
          "type": "uint256"
        }
      ],
      "stateMutability": "view",
      "type": "function"
    },
    {
      "inputs": [],
      "name": "payBuyIn",
      "outputs": [],
      "stateMutability": "payable",
      "type": "function"
    },
    {
      "inputs": [
        {
          "internalType": "uint256",
          "name": "reduction",
          "type": "uint256"
        }
      ],
      "name": "reduceBetA",
      "outputs": [],
      "stateMutability": "nonpayable",
      "type": "function"
    },
    {
      "inputs": [
        {
          "internalType": "uint256",
          "name": "reduction",
          "type": "uint256"
        }
      ],
      "name": "reduceBetB",
      "outputs": [],
      "stateMutability": "nonpayable",
      "type": "function"
    },
    {
      "inputs": [],
      "name": "startTime",
      "outputs": [
        {
          "internalType": "uint256",
          "name": "",
          "type": "uint256"
        }
      ],
      "stateMutability": "view",
      "type": "function"
    },
    {
      "inputs": [],
      "name": "viewPots",
      "outputs": [
        {
          "internalType": "uint256",
          "name": "",
          "type": "uint256"
        },
        {
          "internalType": "uint256",
          "name": "",
          "type": "uint256"
        }
      ],
      "stateMutability": "view",
      "type": "function"
    },
    {
      "inputs": [],
      "name": "voteDisagree",
      "outputs": [],
      "stateMutability": "nonpayable",
      "type": "function"
    },
    {
      "inputs": [],
      "name": "voteTime",
      "outputs": [
        {
          "internalType": "uint256",
          "name": "",
          "type": "uint256"
        }
      ],
      "stateMutability": "view",
      "type": "function"
    },
    {
      "inputs": [
        {
          "internalType": "uint256",
          "name": "potentialBet",
          "type": "uint256"
        },
        {
          "internalType": "bool",
          "name": "addition",
          "type": "bool"
        }
      ],
      "name": "winLossBetA",
      "outputs": [
        {
          "internalType": "uint256",
          "name": "",
          "type": "uint256"
        },
        {
          "internalType": "uint256",
          "name": "",
          "type": "uint256"
        },
        {
          "internalType": "uint256",
          "name": "",
          "type": "uint256"
        },
        {
          "internalType": "uint256",
          "name": "",
          "type": "uint256"
        },
        {
          "internalType": "uint256",
          "name": "",
          "type": "uint256"
        }
      ],
      "stateMutability": "view",
      "type": "function"
    },
    {
      "inputs": [
        {
          "internalType": "uint256",
          "name": "potentialBet",
          "type": "uint256"
        },
        {
          "internalType": "bool",
          "name": "addition",
          "type": "bool"
        }
      ],
      "name": "winLossBetB",
      "outputs": [
        {
          "internalType": "uint256",
          "name": "",
          "type": "uint256"
        },
        {
          "internalType": "uint256",
          "name": "",
          "type": "uint256"
        },
        {
          "internalType": "uint256",
          "name": "",
          "type": "uint256"
        },
        {
          "internalType": "uint256",
          "name": "",
          "type": "uint256"
        },
        {
          "internalType": "uint256",
          "name": "",
          "type": "uint256"
        }
      ],
      "stateMutability": "view",
      "type": "function"
    },
    {
      "inputs": [],
      "name": "winner",
      "outputs": [
        {
          "internalType": "uint8",
          "name": "",
          "type": "uint8"
        }
      ],
      "stateMutability": "view",
      "type": "function"
    },
    {
      "inputs": [],
      "name": "withdraw",
      "outputs": [],
      "stateMutability": "nonpayable",
      "type": "function"
    }
  ],
  "bytecode": "0x60a06040526000805560006001553480156200001a57600080fd5b50604051620049ba380380620049ba833981810160405281019062000040919062000188565b6000600260006101000a81548160ff02191690836003811115620000695762000068620001fa565b5b0217905550426004819055508360045462000085919062000258565b6003819055503373ffffffffffffffffffffffffffffffffffffffff1660808173ffffffffffffffffffffffffffffffffffffffff1681525050826009600060028110620000d857620000d762000293565b5b0181905550816009600160028110620000f657620000f562000293565b5b018190555081600b60006002811062000114576200011362000293565b5b018190555082600b60016002811062000132576200013162000293565b5b01819055508060078190555050505050620002c2565b600080fd5b6000819050919050565b62000162816200014d565b81146200016e57600080fd5b50565b600081519050620001828162000157565b92915050565b60008060008060808587031215620001a557620001a462000148565b5b6000620001b58782880162000171565b9450506020620001c88782880162000171565b9350506040620001db8782880162000171565b9250506060620001ee8782880162000171565b91505092959194509250565b7f4e487b7100000000000000000000000000000000000000000000000000000000600052602160045260246000fd5b7f4e487b7100000000000000000000000000000000000000000000000000000000600052601160045260246000fd5b600062000265826200014d565b915062000272836200014d565b92508282019050808211156200028d576200028c62000229565b5b92915050565b7f4e487b7100000000000000000000000000000000000000000000000000000000600052603260045260246000fd5b6080516146c7620002f36000396000818161164d0152818161229a015281816124c801526133a001526146c76000f3fe6080604052600436106101b75760003560e01c8063772b5f08116100ec5780639c4319671161008a578063c2b4646811610064578063c2b46468146105d5578063cf8fc31d146105fe578063dfbf53ae14610629578063ec7690bf14610654576101b7565b80639c4319671461052c578063ae925caf14610569578063bcf93dd6146105aa576101b7565b806385885d48116100c657806385885d481461045d57806385b4ae431461049a5780638f32d59b146104d8578063969ef62f14610503576101b7565b8063772b5f08146103f057806378e979251461041b5780638068701714610446576101b7565b8063312d42bf116101595780633e937961116101335780633e9379611461035c578063553e5d131461036657806368e0b9f1146103a75780636d3d0a8f146103c5576101b7565b8063312d42bf146102ee5780633197cbb61461031a5780633ccfd60b14610345576101b7565b8063115cbaf511610195578063115cbaf51461023d57806312065fe0146102685780631628f2ea146102935780632b1bd36d146102b1576101b7565b8063073f106a146101bc5780630eaa23ae146101e857806310282b2b14610226575b600080fd5b3480156101c857600080fd5b506101d161067d565b6040516101df929190613a5d565b60405180910390f35b3480156101f457600080fd5b5061020f600480360381019061020a9190613ab8565b6109c5565b60405161021d929190613b03565b60405180910390f35b34801561023257600080fd5b5061023b610a19565b005b34801561024957600080fd5b50610252610ad7565b60405161025f9190613ba3565b60405180910390f35b34801561027457600080fd5b5061027d610aee565b60405161028a9190613bbe565b60405180910390f35b61029b610af6565b6040516102a89190613bbe565b60405180910390f35b3480156102bd57600080fd5b506102d860048036038101906102d39190613ab8565b610e35565b6040516102e59190613bbe565b60405180910390f35b3480156102fa57600080fd5b50610303610e50565b604051610311929190613bd9565b60405180910390f35b34801561032657600080fd5b5061032f610e61565b60405161033c9190613bbe565b60405180910390f35b34801561035157600080fd5b5061035a610e67565b005b610364611522565b005b34801561037257600080fd5b5061038d60048036038101906103889190613c3a565b6116f7565b60405161039e959493929190613c7a565b60405180910390f35b6103af611f38565b6040516103bc9190613bbe565b60405180910390f35b3480156103d157600080fd5b506103da612279565b6040516103e79190613ce9565b60405180910390f35b3480156103fc57600080fd5b5061040561228c565b6040516104129190613bbe565b60405180910390f35b34801561042757600080fd5b50610430612292565b60405161043d9190613bbe565b60405180910390f35b34801561045257600080fd5b5061045b612298565b005b34801561046957600080fd5b50610484600480360381019061047f9190613d42565b612450565b6040516104919190613d7e565b60405180910390f35b3480156104a657600080fd5b506104c160048036038101906104bc9190613ab8565b612470565b6040516104cf929190613b03565b60405180910390f35b3480156104e457600080fd5b506104ed6124c4565b6040516104fa9190613d7e565b60405180910390f35b34801561050f57600080fd5b5061052a60048036038101906105259190613ab8565b61252a565b005b34801561053857600080fd5b50610553600480360381019061054e9190613ab8565b612827565b6040516105609190613bbe565b60405180910390f35b34801561057557600080fd5b50610590600480360381019061058b9190613c3a565b612842565b6040516105a1959493929190613c7a565b60405180910390f35b3480156105b657600080fd5b506105bf613081565b6040516105cc9190613bbe565b60405180910390f35b3480156105e157600080fd5b506105fc60048036038101906105f79190613ab8565b613087565b005b34801561060a57600080fd5b50610613613385565b6040516106209190613bbe565b60405180910390f35b34801561063557600080fd5b5061063e61338b565b60405161064b9190613ce9565b60405180910390f35b34801561066057600080fd5b5061067b60048036038101906106769190613dc5565b61339e565b005b610685613869565b61068d613869565b610695613869565b6000806000839050600084905060005b600d8054905081101561081a57600d81815481106106c6576106c5613df2565b5b906000526020600020906004020160000160009054906101000a900473ffffffffffffffffffffffffffffffffffffffff1673ffffffffffffffffffffffffffffffffffffffff163373ffffffffffffffffffffffffffffffffffffffff160361080757600d818154811061073e5761073d613df2565b5b90600052602060002090600402016040518060600160405290816000820160009054906101000a900473ffffffffffffffffffffffffffffffffffffffff1673ffffffffffffffffffffffffffffffffffffffff1673ffffffffffffffffffffffffffffffffffffffff16815260200160018201548152602001600282016002806020026040519081016040528092919082600280156107f3576020028201915b8154815260200190600101908083116107df575b50505050508152505092506001945061081a565b808061081290613e50565b9150506106a5565b5060005b600e8054905081101561099357600e818154811061083f5761083e613df2565b5b906000526020600020906004020160000160009054906101000a900473ffffffffffffffffffffffffffffffffffffffff1673ffffffffffffffffffffffffffffffffffffffff163373ffffffffffffffffffffffffffffffffffffffff160361098057600e81815481106108b7576108b6613df2565b5b90600052602060002090600402016040518060600160405290816000820160009054906101000a900473ffffffffffffffffffffffffffffffffffffffff1673ffffffffffffffffffffffffffffffffffffffff1673ffffffffffffffffffffffffffffffffffffffff168152602001600182015481526020016002820160028060200260405190810160405280929190826002801561096c576020028201915b815481526020019060010190808311610958575b505050505081525050915060019350610993565b808061098b90613e50565b91505061081e565b50831580156109a0575082155b156109b55784859650965050505050506109c1565b81819650965050505050505b9091565b600e81815481106109d557600080fd5b90600052602060002090600402016000915090508060000160009054906101000a900473ffffffffffffffffffffffffffffffffffffffff16908060010154905082565b60016003811115610a2d57610a2c613b2c565b5b600260009054906101000a900460ff166003811115610a4f57610a4e613b2c565b5b14610a5957600080fd5b6001600660018282829054906101000a900460ff16610a789190613e98565b92506101000a81548160ff021916908360ff1602179055506005600660019054906101000a900460ff1660ff1610610ad55760028060006101000a81548160ff02191690836003811115610acf57610ace613b2c565b5b02179055505b565b6000600260009054906101000a900460ff16905090565b600047905090565b6000806003811115610b0b57610b0a613b2c565b5b600260009054906101000a900460ff166003811115610b2d57610b2c613b2c565b5b14610b3757600080fd5b600860003373ffffffffffffffffffffffffffffffffffffffff1673ffffffffffffffffffffffffffffffffffffffff16815260200190815260200160002060009054906101000a900460ff16610bc3576040517f08c379a0000000000000000000000000000000000000000000000000000000008152600401610bba90613f2a565b60405180910390fd5b60005b600d80549050811015610cbc573373ffffffffffffffffffffffffffffffffffffffff16600d8281548110610bfe57610bfd613df2565b5b906000526020600020906004020160000160009054906101000a900473ffffffffffffffffffffffffffffffffffffffff1673ffffffffffffffffffffffffffffffffffffffff1603610ca95734600d8281548110610c6057610c5f613df2565b5b90600052602060002090600402016001016000828254610c809190613f4a565b9250508190555034600080828254610c989190613f4a565b925050819055506000915050610e32565b8080610cb490613e50565b915050610bc6565b600060405180606001604052803373ffffffffffffffffffffffffffffffffffffffff1681526020013481526020016009600280602002604051908101604052809291908260028015610d24576020028201915b815481526020019060010190808311610d10575b5050505050815250905034600080828254610d3f9190613f4a565b92505081905550600d81908060018154018082558091505060019003906000526020600020906004020160009091909190915060008201518160000160006101000a81548173ffffffffffffffffffffffffffffffffffffffff021916908373ffffffffffffffffffffffffffffffffffffffff16021790555060208201518160010155604082015181600201906002610dda9291906138a6565b5050503373ffffffffffffffffffffffffffffffffffffffff167f81ef55975e05e41e702c9c89f8cac507369ad0e7a34bc402286e37d53a47601534604051610e239190613bbe565b60405180910390a26000925050505b90565b60098160028110610e4557600080fd5b016000915090505481565b600080600054600154915091509091565b60035481565b60006003811115610e7b57610e7a613b2c565b5b600260009054906101000a900460ff166003811115610e9d57610e9c613b2c565b5b1480610edb5750600380811115610eb757610eb6613b2c565b5b600260009054906101000a900460ff166003811115610ed957610ed8613b2c565b5b145b610f1a576040517f08c379a0000000000000000000000000000000000000000000000000000000008152600401610f1190613ff0565b60405180910390fd5b60008060005b600d805490508110156111f8573373ffffffffffffffffffffffffffffffffffffffff16600d8281548110610f5857610f57613df2565b5b906000526020600020906004020160000160009054906101000a900473ffffffffffffffffffffffffffffffffffffffff1673ffffffffffffffffffffffffffffffffffffffff16148015610fd257506000600d8281548110610fbe57610fbd613df2565b5b906000526020600020906004020160010154115b156111e557600d8181548110610feb57610fea613df2565b5b90600052602060002090600402016001015460008082825461100d9190614010565b925050819055506000600d828154811061102a57611029613df2565b5b906000526020600020906004020160000160009054906101000a900473ffffffffffffffffffffffffffffffffffffffff1673ffffffffffffffffffffffffffffffffffffffff16600d838154811061108657611085613df2565b5b9060005260206000209060040201600101546040516110a490614075565b60006040518083038185875af1925050503d80600081146110e1576040519150601f19603f3d011682016040523d82523d6000602084013e6110e6565b606091505b505090508061112a576040517f08c379a0000000000000000000000000000000000000000000000000000000008152600401611121906140d6565b60405180910390fd5b6000600d83815481106111405761113f613df2565b5b906000526020600020906004020160000160006101000a81548173ffffffffffffffffffffffffffffffffffffffff021916908373ffffffffffffffffffffffffffffffffffffffff1602179055503373ffffffffffffffffffffffffffffffffffffffff167f4b52799834d23bfea948619aa7c160a5a96acf9b64f454cd503b21f2165261386040516111d390614142565b60405180910390a260019350506111f8565b80806111f090613e50565b915050610f20565b5060005b600e805490508110156114d5573373ffffffffffffffffffffffffffffffffffffffff16600e828154811061123457611233613df2565b5b906000526020600020906004020160000160009054906101000a900473ffffffffffffffffffffffffffffffffffffffff1673ffffffffffffffffffffffffffffffffffffffff161480156112ae57506000600e828154811061129a57611299613df2565b5b906000526020600020906004020160010154115b156114c257600e81815481106112c7576112c6613df2565b5b906000526020600020906004020160010154600160008282546112ea9190614010565b925050819055506000600e828154811061130757611306613df2565b5b906000526020600020906004020160000160009054906101000a900473ffffffffffffffffffffffffffffffffffffffff1673ffffffffffffffffffffffffffffffffffffffff16600e838154811061136357611362613df2565b5b90600052602060002090600402016001015460405161138190614075565b60006040518083038185875af1925050503d80600081146113be576040519150601f19603f3d011682016040523d82523d6000602084013e6113c3565b606091505b5050905080611407576040517f08c379a00000000000000000000000000000000000000000000000000000000081526004016113fe906141ae565b60405180910390fd5b6000600e838154811061141d5761141c613df2565b5b906000526020600020906004020160000160006101000a81548173ffffffffffffffffffffffffffffffffffffffff021916908373ffffffffffffffffffffffffffffffffffffffff1602179055503373ffffffffffffffffffffffffffffffffffffffff167f4b52799834d23bfea948619aa7c160a5a96acf9b64f454cd503b21f2165261386040516114b09061421a565b60405180910390a260019250506114d5565b80806114cd90613e50565b9150506111fc565b5081806114df5750805b61151e576040517f08c379a000000000000000000000000000000000000000000000000000000000815260040161151590614286565b60405180910390fd5b5050565b600860003373ffffffffffffffffffffffffffffffffffffffff1673ffffffffffffffffffffffffffffffffffffffff16815260200190815260200160002060009054906101000a900460ff16156115af576040517f08c379a00000000000000000000000000000000000000000000000000000000081526004016115a6906142f2565b60405180910390fd5b60075434146115f3576040517f08c379a00000000000000000000000000000000000000000000000000000000081526004016115ea9061435e565b60405180910390fd5b6001600860003373ffffffffffffffffffffffffffffffffffffffff1673ffffffffffffffffffffffffffffffffffffffff16815260200190815260200160002060006101000a81548160ff0219169083151502179055507f000000000000000000000000000000000000000000000000000000000000000073ffffffffffffffffffffffffffffffffffffffff166108fc349081150290604051600060405180830381858888f193505050501580156116b1573d6000803e3d6000fd5b503373ffffffffffffffffffffffffffffffffffffffff167fcb021ae5d95ed890e772a211c93615593a2c86b8fab9d11353cfd9a34f67111060405160405180910390a2565b6000806000806000806000905060006001549050600060015490506000606060005b600d805490508110156117bd57600d818154811061173a57611739613df2565b5b906000526020600020906004020160000160009054906101000a900473ffffffffffffffffffffffffffffffffffffffff1673ffffffffffffffffffffffffffffffffffffffff163373ffffffffffffffffffffffffffffffffffffffff16036117aa57600195508092506117bd565b80806117b590613e50565b915050611719565b5084611a02578a156119e2576001600d805490506117db9190613f4a565b67ffffffffffffffff8111156117f4576117f361437e565b5b60405190808252806020026020018201604052801561182d57816020015b61181a613869565b8152602001906001900390816118125790505b50905060005b600d8054905081101561194357600d818154811061185457611853613df2565b5b90600052602060002090600402016040518060600160405290816000820160009054906101000a900473ffffffffffffffffffffffffffffffffffffffff1673ffffffffffffffffffffffffffffffffffffffff1673ffffffffffffffffffffffffffffffffffffffff1681526020016001820154815260200160028201600280602002604051908101604052809291908260028015611909576020028201915b8154815260200190600101908083116118f5575b50505050508152505082828151811061192557611924613df2565b5b6020026020010181905250808061193b90613e50565b915050611833565b5060405180606001604052803373ffffffffffffffffffffffffffffffffffffffff1681526020018d815260200160096002806020026040519081016040528092919082600280156119aa576020028201915b815481526020019060010190808311611996575b505050505081525081600d80549050815181106119ca576119c9613df2565b5b6020026020010181905250600d8054905091506119fd565b60008060008086995099509950995099505050505050611f2e565b611cbf565b8a15611b3f57600d805480602002602001604051908101604052809291908181526020016000905b82821015611b0157838290600052602060002090600402016040518060600160405290816000820160009054906101000a900473ffffffffffffffffffffffffffffffffffffffff1673ffffffffffffffffffffffffffffffffffffffff1673ffffffffffffffffffffffffffffffffffffffff1681526020016001820154815260200160028201600280602002604051908101604052809291908260028015611ae9576020028201915b815481526020019060010190808311611ad5575b50505050508152505081526020019060010190611a2a565b5050505090508b818381518110611b1b57611b1a613df2565b5b6020026020010151602001818151611b339190613f4a565b91508181525050611cbe565b8b600d8381548110611b5457611b53613df2565b5b90600052602060002090600402016001015410611ca257600d805480602002602001604051908101604052809291908181526020016000905b82821015611c6457838290600052602060002090600402016040518060600160405290816000820160009054906101000a900473ffffffffffffffffffffffffffffffffffffffff1673ffffffffffffffffffffffffffffffffffffffff1673ffffffffffffffffffffffffffffffffffffffff1681526020016001820154815260200160028201600280602002604051908101604052809291908260028015611c4c576020028201915b815481526020019060010190808311611c38575b50505050508152505081526020019060010190611b8d565b5050505090508b818381518110611c7e57611c7d613df2565b5b6020026020010151602001818151611c969190614010565b91508181525050611cbd565b60008060008086995099509950995099505050505050611f2e565b5b5b600080600080600090505b8451811015611ef657600073ffffffffffffffffffffffffffffffffffffffff16858281518110611cfe57611cfd613df2565b5b60200260200101516000015173ffffffffffffffffffffffffffffffffffffffff1603611d34578080611d3090613e50565b9150505b6009600160028110611d4957611d48613df2565b5b01546009600060028110611d6057611d5f613df2565b5b0154868381518110611d7557611d74613df2565b5b602002602001015160200151611d8b91906143ad565b611d95919061441e565b9350839150858103611ec45783881015611e265781886009600060028110611dc057611dbf613df2565b5b01546009600160028110611dd757611dd6613df2565b5b01548b611de491906143ad565b611dee919061441e565b878481518110611e0157611e00613df2565b5b6020026020010151602001518a9d509d509d509d509d50505050505050505050611f2e565b6009600060028110611e3b57611e3a613df2565b5b01546009600160028110611e5257611e51613df2565b5b015485611e5f91906143ad565b611e69919061441e565b92508184868381518110611e8057611e7f613df2565b5b602002602001015160200151878481518110611e9f57611e9e613df2565b5b6020026020010151602001518a9d509d509d509d509d50505050505050505050611f2e565b838810611ede578388611ed79190614010565b9750611ee3565b600097505b8080611eee90613e50565b915050611cca565b5080600080868881518110611f0e57611f0d613df2565b5b602002602001015160200151899c509c509c509c509c5050505050505050505b9295509295909350565b6000806003811115611f4d57611f4c613b2c565b5b600260009054906101000a900460ff166003811115611f6f57611f6e613b2c565b5b14611f7957600080fd5b600860003373ffffffffffffffffffffffffffffffffffffffff1673ffffffffffffffffffffffffffffffffffffffff16815260200190815260200160002060009054906101000a900460ff16612005576040517f08c379a0000000000000000000000000000000000000000000000000000000008152600401611ffc90613f2a565b60405180910390fd5b60005b600e805490508110156120ff573373ffffffffffffffffffffffffffffffffffffffff16600e82815481106120405761203f613df2565b5b906000526020600020906004020160000160009054906101000a900473ffffffffffffffffffffffffffffffffffffffff1673ffffffffffffffffffffffffffffffffffffffff16036120ec5734600e82815481106120a2576120a1613df2565b5b906000526020600020906004020160010160008282546120c29190613f4a565b9250508190555034600160008282546120db9190613f4a565b925050819055506000915050612276565b80806120f790613e50565b915050612008565b600060405180606001604052803373ffffffffffffffffffffffffffffffffffffffff168152602001348152602001600b600280602002604051908101604052809291908260028015612167576020028201915b815481526020019060010190808311612153575b5050505050815250905034600160008282546121839190613f4a565b92505081905550600e81908060018154018082558091505060019003906000526020600020906004020160009091909190915060008201518160000160006101000a81548173ffffffffffffffffffffffffffffffffffffffff021916908373ffffffffffffffffffffffffffffffffffffffff1602179055506020820151816001015560408201518160020190600261221e9291906138a6565b5050503373ffffffffffffffffffffffffffffffffffffffff167f81ef55975e05e41e702c9c89f8cac507369ad0e7a34bc402286e37d53a476015346040516122679190613bbe565b60405180910390a26000925050505b90565b600660019054906101000a900460ff1681565b60015481565b60045481565b7f000000000000000000000000000000000000000000000000000000000000000073ffffffffffffffffffffffffffffffffffffffff163373ffffffffffffffffffffffffffffffffffffffff1614612326576040517f08c379a000000000000000000000000000000000000000000000000000000000815260040161231d906144c1565b60405180910390fd5b6001600381111561233a57612339613b2c565b5b600260009054906101000a900460ff16600381111561235c5761235b613b2c565b5b1461236657600080fd5b60055442101561237557600080fd5b6000600660009054906101000a900460ff1660ff16036123cb5761239b600d600e613547565b6003600260006101000a81548160ff021916908360038111156123c1576123c0613b2c565b5b021790555061244e565b6001600660009054906101000a900460ff1660ff1603612421576123f1600e600d613547565b6003600260006101000a81548160ff0219169083600381111561241757612416613b2c565b5b021790555061244d565b6003600260006101000a81548160ff0219169083600381111561244757612446613b2c565b5b02179055505b5b565b60086020528060005260406000206000915054906101000a900460ff1681565b600d818154811061248057600080fd5b90600052602060002090600402016000915090508060000160009054906101000a900473ffffffffffffffffffffffffffffffffffffffff16908060010154905082565b60007f000000000000000000000000000000000000000000000000000000000000000073ffffffffffffffffffffffffffffffffffffffff163373ffffffffffffffffffffffffffffffffffffffff16036125225760019050612527565b600090505b90565b6000600381111561253e5761253d613b2c565b5b600260009054906101000a900460ff1660038111156125605761255f613b2c565b5b1461256a57600080fd5b60005b600d80549050811015612823573373ffffffffffffffffffffffffffffffffffffffff16600d82815481106125a5576125a4613df2565b5b906000526020600020906004020160000160009054906101000a900473ffffffffffffffffffffffffffffffffffffffff1673ffffffffffffffffffffffffffffffffffffffff160361280f5781600d828154811061260757612606613df2565b5b906000526020600020906004020160010154106127b7576000600d828154811061263457612633613df2565b5b906000526020600020906004020160000160009054906101000a900473ffffffffffffffffffffffffffffffffffffffff1673ffffffffffffffffffffffffffffffffffffffff168360405161268990614075565b60006040518083038185875af1925050503d80600081146126c6576040519150601f19603f3d011682016040523d82523d6000602084013e6126cb565b606091505b505090508061270f576040517f08c379a00000000000000000000000000000000000000000000000000000000081526004016127069061452d565b60405180910390fd5b82600d838154811061272457612723613df2565b5b906000526020600020906004020160010160008282546127449190614010565b925050819055508260008082825461275c9190614010565b925050819055503373ffffffffffffffffffffffffffffffffffffffff167f4080eeaf9b5a3d774a9c60b04abf1f0855ae8c24cf827b7eed43fb5ea62de732846040516127a99190613bbe565b60405180910390a250612823565b6001600d805490506127c99190614010565b810361280a576040517f3a0ef94800000000000000000000000000000000000000000000000000000000815260040161280190614599565b60405180910390fd5b61281e565b808061281a90613e50565b9150505b61256d565b5050565b600b816002811061283757600080fd5b016000915090505481565b600080600080600080600090506000805490506000805490506000606060005b600e8054905081101561290657600e818154811061288357612882613df2565b5b906000526020600020906004020160000160009054906101000a900473ffffffffffffffffffffffffffffffffffffffff1673ffffffffffffffffffffffffffffffffffffffff163373ffffffffffffffffffffffffffffffffffffffff16036128f35760019550809250612906565b80806128fe90613e50565b915050612862565b5084612b4b578a15612b2b576001600e805490506129249190613f4a565b67ffffffffffffffff81111561293d5761293c61437e565b5b60405190808252806020026020018201604052801561297657816020015b612963613869565b81526020019060019003908161295b5790505b50905060005b600e80549050811015612a8c57600e818154811061299d5761299c613df2565b5b90600052602060002090600402016040518060600160405290816000820160009054906101000a900473ffffffffffffffffffffffffffffffffffffffff1673ffffffffffffffffffffffffffffffffffffffff1673ffffffffffffffffffffffffffffffffffffffff1681526020016001820154815260200160028201600280602002604051908101604052809291908260028015612a52576020028201915b815481526020019060010190808311612a3e575b505050505081525050828281518110612a6e57612a6d613df2565b5b60200260200101819052508080612a8490613e50565b91505061297c565b5060405180606001604052803373ffffffffffffffffffffffffffffffffffffffff1681526020018d8152602001600b600280602002604051908101604052809291908260028015612af3576020028201915b815481526020019060010190808311612adf575b505050505081525081600e8054905081518110612b1357612b12613df2565b5b6020026020010181905250600e805490509150612b46565b60008060008086995099509950995099505050505050613077565b612e08565b8a15612c8857600e805480602002602001604051908101604052809291908181526020016000905b82821015612c4a57838290600052602060002090600402016040518060600160405290816000820160009054906101000a900473ffffffffffffffffffffffffffffffffffffffff1673ffffffffffffffffffffffffffffffffffffffff1673ffffffffffffffffffffffffffffffffffffffff1681526020016001820154815260200160028201600280602002604051908101604052809291908260028015612c32576020028201915b815481526020019060010190808311612c1e575b50505050508152505081526020019060010190612b73565b5050505090508b818381518110612c6457612c63613df2565b5b6020026020010151602001818151612c7c9190613f4a565b91508181525050612e07565b8b600e8381548110612c9d57612c9c613df2565b5b90600052602060002090600402016001015410612deb57600e805480602002602001604051908101604052809291908181526020016000905b82821015612dad57838290600052602060002090600402016040518060600160405290816000820160009054906101000a900473ffffffffffffffffffffffffffffffffffffffff1673ffffffffffffffffffffffffffffffffffffffff1673ffffffffffffffffffffffffffffffffffffffff1681526020016001820154815260200160028201600280602002604051908101604052809291908260028015612d95576020028201915b815481526020019060010190808311612d81575b50505050508152505081526020019060010190612cd6565b5050505090508b818381518110612dc757612dc6613df2565b5b6020026020010151602001818151612ddf9190614010565b91508181525050612e06565b60008060008086995099509950995099505050505050613077565b5b5b600080600080600090505b845181101561303f57600073ffffffffffffffffffffffffffffffffffffffff16858281518110612e4757612e46613df2565b5b60200260200101516000015173ffffffffffffffffffffffffffffffffffffffff1603612e7d578080612e7990613e50565b9150505b600b600160028110612e9257612e91613df2565b5b0154600b600060028110612ea957612ea8613df2565b5b0154868381518110612ebe57612ebd613df2565b5b602002602001015160200151612ed491906143ad565b612ede919061441e565b935083915085810361300d5783881015612f6f578188600b600060028110612f0957612f08613df2565b5b0154600b600160028110612f2057612f1f613df2565b5b01548b612f2d91906143ad565b612f37919061441e565b878981518110612f4a57612f49613df2565b5b6020026020010151602001518a9d509d509d509d509d50505050505050505050613077565b600b600060028110612f8457612f83613df2565b5b0154600b600160028110612f9b57612f9a613df2565b5b015485612fa891906143ad565b612fb2919061441e565b92508184868381518110612fc957612fc8613df2565b5b602002602001015160200151878981518110612fe857612fe7613df2565b5b6020026020010151602001518a9d509d509d509d509d50505050505050505050613077565b8388106130275783886130209190614010565b975061302c565b600097505b808061303790613e50565b915050612e13565b508060008086888151811061305757613056613df2565b5b602002602001015160200151899c509c509c509c509c5050505050505050505b9295509295909350565b60055481565b6000600381111561309b5761309a613b2c565b5b600260009054906101000a900460ff1660038111156130bd576130bc613b2c565b5b146130c757600080fd5b60005b600e80549050811015613381573373ffffffffffffffffffffffffffffffffffffffff16600e828154811061310257613101613df2565b5b906000526020600020906004020160000160009054906101000a900473ffffffffffffffffffffffffffffffffffffffff1673ffffffffffffffffffffffffffffffffffffffff160361336d5781600e828154811061316457613163613df2565b5b90600052602060002090600402016001015410613315576000600e828154811061319157613190613df2565b5b906000526020600020906004020160000160009054906101000a900473ffffffffffffffffffffffffffffffffffffffff1673ffffffffffffffffffffffffffffffffffffffff16836040516131e690614075565b60006040518083038185875af1925050503d8060008114613223576040519150601f19603f3d011682016040523d82523d6000602084013e613228565b606091505b505090508061326c576040517f08c379a00000000000000000000000000000000000000000000000000000000081526004016132639061452d565b60405180910390fd5b82600e838154811061328157613280613df2565b5b906000526020600020906004020160010160008282546132a19190614010565b9250508190555082600160008282546132ba9190614010565b925050819055503373ffffffffffffffffffffffffffffffffffffffff167f4080eeaf9b5a3d774a9c60b04abf1f0855ae8c24cf827b7eed43fb5ea62de732846040516133079190613bbe565b60405180910390a250613381565b6001600e805490506133279190614010565b8103613368576040517f3a0ef94800000000000000000000000000000000000000000000000000000000815260040161335f90614605565b60405180910390fd5b61337c565b808061337890613e50565b9150505b6130ca565b5050565b60005481565b600660009054906101000a900460ff1681565b7f000000000000000000000000000000000000000000000000000000000000000073ffffffffffffffffffffffffffffffffffffffff163373ffffffffffffffffffffffffffffffffffffffff161461342c576040517f08c379a0000000000000000000000000000000000000000000000000000000008152600401613423906144c1565b60405180910390fd5b60008160ff161480613441575060018160ff16145b8061344f575060028160ff16145b61348e576040517f08c379a000000000000000000000000000000000000000000000000000000000815260040161348590614671565b60405180910390fd5b60008160ff16036134ba576000600660006101000a81548160ff021916908360ff160217905550613504565b60018160ff16036134e6576001600660006101000a81548160ff021916908360ff160217905550613503565b6002600660006101000a81548160ff021916908360ff1602179055505b5b6001600260006101000a81548160ff0219169083600381111561352a57613529613b2c565b5b0217905550620151804261353e9190613f4a565b60058190555050565b60005b818054905081101561386457600073ffffffffffffffffffffffffffffffffffffffff1682828154811061358157613580613df2565b5b906000526020600020906004020160000160009054906101000a900473ffffffffffffffffffffffffffffffffffffffff1673ffffffffffffffffffffffffffffffffffffffff16036135dd5780806135d990613e50565b9150505b6000808383815481106135f3576135f2613df2565b5b906000526020600020906004020160020160016002811061361757613616613df2565b5b015484848154811061362c5761362b613df2565b5b90600052602060002090600402016002016000600281106136505761364f613df2565b5b015485858154811061366557613664613df2565b5b90600052602060002090600402016001015461368191906143ad565b61368b919061441e565b90505b848054905082101561384f5760008583815481106136af576136ae613df2565b5b906000526020600020906004020160010154116136d95781806136d190613e50565b92505061384a565b808583815481106136ed576136ec613df2565b5b9060005260206000209060040201600101541115613780578085838154811061371957613718613df2565b5b906000526020600020906004020160010160008282546137399190614010565b925050819055508084848154811061375457613753613df2565b5b906000526020600020906004020160010160008282546137749190613f4a565b9250508190555061384f565b84828154811061379357613792613df2565b5b906000526020600020906004020160010154816137b09190614010565b90508482815481106137c5576137c4613df2565b5b9060005260206000209060040201600101548484815481106137ea576137e9613df2565b5b9060005260206000209060040201600101600082825461380a9190613f4a565b92505081905550600085838154811061382657613825613df2565b5b906000526020600020906004020160010181905550818061384690613e50565b9250505b61368e565b828061385a90613e50565b935050505061354a565b505050565b6040518060600160405280600073ffffffffffffffffffffffffffffffffffffffff168152602001600081526020016138a06138e6565b81525090565b82600281019282156138d5579160200282015b828111156138d45782518255916020019190600101906138b9565b5b5090506138e29190613908565b5090565b6040518060400160405280600290602082028036833780820191505090505090565b5b80821115613921576000816000905550600101613909565b5090565b600073ffffffffffffffffffffffffffffffffffffffff82169050919050565b600061395082613925565b9050919050565b61396081613945565b82525050565b6000819050919050565b61397981613966565b82525050565b600060029050919050565b600081905092915050565b6000819050919050565b60006139ab8383613970565b60208301905092915050565b6000602082019050919050565b6139cd8161397f565b6139d7818461398a565b92506139e282613995565b8060005b83811015613a135781516139fa878261399f565b9650613a05836139b7565b9250506001810190506139e6565b505050505050565b608082016000820151613a316000850182613957565b506020820151613a446020850182613970565b506040820151613a5760408501826139c4565b50505050565b600061010082019050613a736000830185613a1b565b613a806080830184613a1b565b9392505050565b600080fd5b613a9581613966565b8114613aa057600080fd5b50565b600081359050613ab281613a8c565b92915050565b600060208284031215613ace57613acd613a87565b5b6000613adc84828501613aa3565b91505092915050565b613aee81613945565b82525050565b613afd81613966565b82525050565b6000604082019050613b186000830185613ae5565b613b256020830184613af4565b9392505050565b7f4e487b7100000000000000000000000000000000000000000000000000000000600052602160045260246000fd5b60048110613b6c57613b6b613b2c565b5b50565b6000819050613b7d82613b5b565b919050565b6000613b8d82613b6f565b9050919050565b613b9d81613b82565b82525050565b6000602082019050613bb86000830184613b94565b92915050565b6000602082019050613bd36000830184613af4565b92915050565b6000604082019050613bee6000830185613af4565b613bfb6020830184613af4565b9392505050565b60008115159050919050565b613c1781613c02565b8114613c2257600080fd5b50565b600081359050613c3481613c0e565b92915050565b60008060408385031215613c5157613c50613a87565b5b6000613c5f85828601613aa3565b9250506020613c7085828601613c25565b9150509250929050565b600060a082019050613c8f6000830188613af4565b613c9c6020830187613af4565b613ca96040830186613af4565b613cb66060830185613af4565b613cc36080830184613af4565b9695505050505050565b600060ff82169050919050565b613ce381613ccd565b82525050565b6000602082019050613cfe6000830184613cda565b92915050565b6000613d0f82613925565b9050919050565b613d1f81613d04565b8114613d2a57600080fd5b50565b600081359050613d3c81613d16565b92915050565b600060208284031215613d5857613d57613a87565b5b6000613d6684828501613d2d565b91505092915050565b613d7881613c02565b82525050565b6000602082019050613d936000830184613d6f565b92915050565b613da281613ccd565b8114613dad57600080fd5b50565b600081359050613dbf81613d99565b92915050565b600060208284031215613ddb57613dda613a87565b5b6000613de984828501613db0565b91505092915050565b7f4e487b7100000000000000000000000000000000000000000000000000000000600052603260045260246000fd5b7f4e487b7100000000000000000000000000000000000000000000000000000000600052601160045260246000fd5b6000613e5b82613966565b91507fffffffffffffffffffffffffffffffffffffffffffffffffffffffffffffffff8203613e8d57613e8c613e21565b5b600182019050919050565b6000613ea382613ccd565b9150613eae83613ccd565b9250828201905060ff811115613ec757613ec6613e21565b5b92915050565b600082825260208201905092915050565b7f4d7573742062757920696e206265666f72652062657474696e67000000000000600082015250565b6000613f14601a83613ecd565b9150613f1f82613ede565b602082019050919050565b60006020820190508181036000830152613f4381613f07565b9050919050565b6000613f5582613966565b9150613f6083613966565b9250828201905080821115613f7857613f77613e21565b5b92915050565b7f526166666c65206e6f7420696e20636f727265637420737461746520666f722060008201527f7769746864726177616c00000000000000000000000000000000000000000000602082015250565b6000613fda602a83613ecd565b9150613fe582613f7e565b604082019050919050565b6000602082019050818103600083015261400981613fcd565b9050919050565b600061401b82613966565b915061402683613966565b925082820390508181111561403e5761403d613e21565b5b92915050565b600081905092915050565b50565b600061405f600083614044565b915061406a8261404f565b600082019050919050565b600061408082614052565b9150819050919050565b7f5472616e736665722066726f6d2041206661696c656400000000000000000000600082015250565b60006140c0601683613ecd565b91506140cb8261408a565b602082019050919050565b600060208201905081810360008301526140ef816140b3565b9050919050565b7f4100000000000000000000000000000000000000000000000000000000000000600082015250565b600061412c600183613ecd565b9150614137826140f6565b602082019050919050565b6000602082019050818103600083015261415b8161411f565b9050919050565b7f5472616e736665722066726f6d2042206661696c656400000000000000000000600082015250565b6000614198601683613ecd565b91506141a382614162565b602082019050919050565b600060208201905081810360008301526141c78161418b565b9050919050565b7f4200000000000000000000000000000000000000000000000000000000000000600082015250565b6000614204600183613ecd565b915061420f826141ce565b602082019050919050565b60006020820190508181036000830152614233816141f7565b9050919050565b7f4e6f206265747320666f756e6420746f20776974686472617700000000000000600082015250565b6000614270601983613ecd565b915061427b8261423a565b602082019050919050565b6000602082019050818103600083015261429f81614263565b9050919050565b7f5573657220616c726561647920626f7567687420696e00000000000000000000600082015250565b60006142dc601683613ecd565b91506142e7826142a6565b602082019050919050565b6000602082019050818103600083015261430b816142cf565b9050919050565b7f496e636f7272656374206275792d696e20616d6f756e74000000000000000000600082015250565b6000614348601783613ecd565b915061435382614312565b602082019050919050565b600060208201905081810360008301526143778161433b565b9050919050565b7f4e487b7100000000000000000000000000000000000000000000000000000000600052604160045260246000fd5b60006143b882613966565b91506143c383613966565b92508282026143d181613966565b915082820484148315176143e8576143e7613e21565b5b5092915050565b7f4e487b7100000000000000000000000000000000000000000000000000000000600052601260045260246000fd5b600061442982613966565b915061443483613966565b925082614444576144436143ef565b5b828204905092915050565b7f4f6e6c7920746865206f776e65722063616e2063616c6c20746869732066756e60008201527f6374696f6e2e0000000000000000000000000000000000000000000000000000602082015250565b60006144ab602683613ecd565b91506144b68261444f565b604082019050919050565b600060208201905081810360008301526144da8161449e565b9050919050565b7f5472616e73666572206661696c65640000000000000000000000000000000000600082015250565b6000614517600f83613ecd565b9150614522826144e1565b602082019050919050565b600060208201905081810360008301526145468161450a565b9050919050565b7f4e6f74204f6e2042657420410000000000000000000000000000000000000000600082015250565b6000614583600c83613ecd565b915061458e8261454d565b602082019050919050565b600060208201905081810360008301526145b281614576565b9050919050565b7f4e6f74204f6e2042657420420000000000000000000000000000000000000000600082015250565b60006145ef600c83613ecd565b91506145fa826145b9565b602082019050919050565b6000602082019050818103600083015261461e816145e2565b9050919050565b7f696e76616c696420696e70757400000000000000000000000000000000000000600082015250565b600061465b600d83613ecd565b915061466682614625565b602082019050919050565b6000602082019050818103600083015261468a8161464e565b905091905056fea2646970667358221220620c2fdd6697a857cd09bd1ffbec9f31a34277cdf1d895dcb888c817e63a4fe864736f6c63430008130033",
  "linkReferences": {},
  "deployedLinkReferences": {}
}