{
  "_format": "hh-sol-artifact-1",
  "contractName": "predMarket",
  "sourceName": "contracts/Lock.sol",
  "abi": [
    {
      "inputs": [
        {
          "internalType": "uint256",
          "name": "timeToEnd",
          "type": "uint256"
        },
        {
          "internalType": "uint256",
          "name": "_odds1",
          "type": "uint256"
        },
        {
          "internalType": "uint256",
          "name": "_odds2",
          "type": "uint256"
        }
      ],
      "stateMutability": "nonpayable",
      "type": "constructor"
    },
    {
      "inputs": [
        {
          "internalType": "string",
          "name": "betAorB",
          "type": "string"
        }
      ],
      "name": "didNotBet",
      "type": "error"
    },
    {
      "inputs": [],
      "name": "BetA",
      "outputs": [
        {
          "internalType": "uint256",
          "name": "",
          "type": "uint256"
        }
      ],
      "stateMutability": "view",
      "type": "function"
    },
    {
      "inputs": [],
      "name": "BetB",
      "outputs": [
        {
          "internalType": "uint256",
          "name": "",
          "type": "uint256"
        }
      ],
      "stateMutability": "view",
      "type": "function"
    },
    {
      "inputs": [
        {
          "internalType": "uint256",
          "name": "",
          "type": "uint256"
        }
      ],
      "name": "arrayOfBettersA",
      "outputs": [
        {
          "internalType": "address payable",
          "name": "bettor",
          "type": "address"
        },
        {
          "internalType": "uint256",
          "name": "amount",
          "type": "uint256"
        }
      ],
      "stateMutability": "view",
      "type": "function"
    },
    {
      "inputs": [
        {
          "internalType": "uint256",
          "name": "",
          "type": "uint256"
        }
      ],
      "name": "arrayOfBettersB",
      "outputs": [
        {
          "internalType": "address payable",
          "name": "bettor",
          "type": "address"
        },
        {
          "internalType": "uint256",
          "name": "amount",
          "type": "uint256"
        }
      ],
      "stateMutability": "view",
      "type": "function"
    },
    {
      "inputs": [],
      "name": "assignEveryoneAmount",
      "outputs": [],
      "stateMutability": "nonpayable",
      "type": "function"
    },
    {
      "inputs": [],
      "name": "betOnBetA",
      "outputs": [
        {
          "internalType": "uint256",
          "name": "",
          "type": "uint256"
        }
      ],
      "stateMutability": "payable",
      "type": "function"
    },
    {
      "inputs": [],
      "name": "betOnBetB",
      "outputs": [
        {
          "internalType": "uint256",
          "name": "",
          "type": "uint256"
        }
      ],
      "stateMutability": "payable",
      "type": "function"
    },
    {
      "inputs": [],
      "name": "betterInfo",
      "outputs": [
        {
          "components": [
            {
              "internalType": "address payable",
              "name": "bettor",
              "type": "address"
            },
            {
              "internalType": "uint256",
              "name": "amount",
              "type": "uint256"
            },
            {
              "internalType": "uint256[2]",
              "name": "odds",
              "type": "uint256[2]"
            }
          ],
          "internalType": "struct predMarket.better",
          "name": "",
          "type": "tuple"
        },
        {
          "components": [
            {
              "internalType": "address payable",
              "name": "bettor",
              "type": "address"
            },
            {
              "internalType": "uint256",
              "name": "amount",
              "type": "uint256"
            },
            {
              "internalType": "uint256[2]",
              "name": "odds",
              "type": "uint256[2]"
            }
          ],
          "internalType": "struct predMarket.better",
          "name": "",
          "type": "tuple"
        }
      ],
      "stateMutability": "view",
      "type": "function"
    },
    {
      "inputs": [],
      "name": "disagree",
      "outputs": [
        {
          "internalType": "uint8",
          "name": "",
          "type": "uint8"
        }
      ],
      "stateMutability": "view",
      "type": "function"
    },
    {
      "inputs": [
        {
          "internalType": "uint8",
          "name": "wlc",
          "type": "uint8"
        }
      ],
      "name": "endBet",
      "outputs": [],
      "stateMutability": "nonpayable",
      "type": "function"
    },
    {
      "inputs": [],
      "name": "endTime",
      "outputs": [
        {
          "internalType": "uint256",
          "name": "",
          "type": "uint256"
        }
      ],
      "stateMutability": "view",
      "type": "function"
    },
    {
      "inputs": [],
      "name": "isOwner",
      "outputs": [
        {
          "internalType": "bool",
          "name": "",
          "type": "bool"
        }
      ],
      "stateMutability": "view",
      "type": "function"
    },
    {
      "inputs": [
        {
          "internalType": "uint256",
          "name": "",
          "type": "uint256"
        }
      ],
      "name": "oddsBetA",
      "outputs": [
        {
          "internalType": "uint256",
          "name": "",
          "type": "uint256"
        }
      ],
      "stateMutability": "view",
      "type": "function"
    },
    {
      "inputs": [
        {
          "internalType": "uint256",
          "name": "",
          "type": "uint256"
        }
      ],
      "name": "oddsBetB",
      "outputs": [
        {
          "internalType": "uint256",
          "name": "",
          "type": "uint256"
        }
      ],
      "stateMutability": "view",
      "type": "function"
    },
    {
      "inputs": [
        {
          "internalType": "uint256",
          "name": "reduction",
          "type": "uint256"
        }
      ],
      "name": "reduceBetA",
      "outputs": [],
      "stateMutability": "nonpayable",
      "type": "function"
    },
    {
      "inputs": [
        {
          "internalType": "uint256",
          "name": "reduction",
          "type": "uint256"
        }
      ],
      "name": "reduceBetB",
      "outputs": [],
      "stateMutability": "nonpayable",
      "type": "function"
    },
    {
      "inputs": [],
      "name": "startTime",
      "outputs": [
        {
          "internalType": "uint256",
          "name": "",
          "type": "uint256"
        }
      ],
      "stateMutability": "view",
      "type": "function"
    },
    {
      "inputs": [],
      "name": "voteDisagree",
      "outputs": [],
      "stateMutability": "nonpayable",
      "type": "function"
    },
    {
      "inputs": [],
      "name": "voteTime",
      "outputs": [
        {
          "internalType": "uint256",
          "name": "",
          "type": "uint256"
        }
      ],
      "stateMutability": "view",
      "type": "function"
    },
    {
      "inputs": [],
      "name": "winner",
      "outputs": [
        {
          "internalType": "uint8",
          "name": "",
          "type": "uint8"
        }
      ],
      "stateMutability": "view",
      "type": "function"
    },
    {
      "inputs": [],
      "name": "withdrawA",
      "outputs": [],
      "stateMutability": "nonpayable",
      "type": "function"
    },
    {
      "inputs": [],
      "name": "withdrawB",
      "outputs": [],
      "stateMutability": "nonpayable",
      "type": "function"
    }
  ],
  "bytecode": "0x60a06040523480156200001157600080fd5b50604051620029d1380380620029d1833981810160405281019062000037919062000177565b6000600260006101000a81548160ff0219169083600481111562000060576200005f620001d3565b5b021790555042600481905550826004546200007c919062000231565b6003819055503373ffffffffffffffffffffffffffffffffffffffff1660808173ffffffffffffffffffffffffffffffffffffffff1681525050816007600060028110620000cf57620000ce6200026c565b5b0181905550806007600160028110620000ed57620000ec6200026c565b5b01819055508060096000600281106200010b576200010a6200026c565b5b01819055508160096001600281106200012957620001286200026c565b5b01819055505050506200029b565b600080fd5b6000819050919050565b62000151816200013c565b81146200015d57600080fd5b50565b600081519050620001718162000146565b92915050565b60008060006060848603121562000193576200019262000137565b5b6000620001a38682870162000160565b9350506020620001b68682870162000160565b9250506040620001c98682870162000160565b9150509250925092565b7f4e487b7100000000000000000000000000000000000000000000000000000000600052602160045260246000fd5b7f4e487b7100000000000000000000000000000000000000000000000000000000600052601160045260246000fd5b60006200023e826200013c565b91506200024b836200013c565b925082820190508082111562000266576200026562000202565b5b92915050565b7f4e487b7100000000000000000000000000000000000000000000000000000000600052603260045260246000fd5b60805161270c620002c560003960008181610fec015281816111fa01526119f4015261270c6000f3fe6080604052600436106101355760003560e01c806380687017116100ab578063bcf93dd61161006f578063bcf93dd6146103dd578063c2b4646814610408578063cd3c6c2614610431578063cf8fc31d14610448578063dfbf53ae14610473578063ec7690bf1461049e57610135565b806380687017146102f757806385b4ae431461030e5780638f32d59b1461034c578063969ef62f146103775780639c431967146103a057610135565b80633197cbb6116100fd5780633197cbb61461021657806368e0b9f1146102415780636d3d0a8f1461025f5780637549487c1461028a578063772b5f08146102a157806378e97925146102cc57610135565b8063073f106a1461013a5780630eaa23ae1461016657806310282b2b146101a45780631628f2ea146101bb5780632b1bd36d146101d9575b600080fd5b34801561014657600080fd5b5061014f6104c7565b60405161015d929190612079565b60405180910390f35b34801561017257600080fd5b5061018d600480360381019061018891906120d4565b61080f565b60405161019b92919061211f565b60405180910390f35b3480156101b057600080fd5b506101b9610863565b005b6101c3610921565b6040516101d09190612148565b60405180910390f35b3480156101e557600080fd5b5061020060048036038101906101fb91906120d4565b610b6e565b60405161020d9190612148565b60405180910390f35b34801561022257600080fd5b5061022b610b89565b6040516102389190612148565b60405180910390f35b610249610b8f565b6040516102569190612148565b60405180910390f35b34801561026b57600080fd5b50610274610ddd565b604051610281919061217f565b60405180910390f35b34801561029657600080fd5b5061029f610df0565b005b3480156102ad57600080fd5b506102b6610fde565b6040516102c39190612148565b60405180910390f35b3480156102d857600080fd5b506102e1610fe4565b6040516102ee9190612148565b60405180910390f35b34801561030357600080fd5b5061030c610fea565b005b34801561031a57600080fd5b50610335600480360381019061033091906120d4565b6111a2565b60405161034392919061211f565b60405180910390f35b34801561035857600080fd5b506103616111f6565b60405161036e91906121b5565b60405180910390f35b34801561038357600080fd5b5061039e600480360381019061039991906120d4565b61125c565b005b3480156103ac57600080fd5b506103c760048036038101906103c291906120d4565b6114f3565b6040516103d49190612148565b60405180910390f35b3480156103e957600080fd5b506103f261150e565b6040516103ff9190612148565b60405180910390f35b34801561041457600080fd5b5061042f600480360381019061042a91906120d4565b611514565b005b34801561043d57600080fd5b506104466117ab565b005b34801561045457600080fd5b5061045d6119d9565b60405161046a9190612148565b60405180910390f35b34801561047f57600080fd5b506104886119df565b604051610495919061217f565b60405180910390f35b3480156104aa57600080fd5b506104c560048036038101906104c091906121fc565b6119f2565b005b6104cf611e85565b6104d7611e85565b6104df611e85565b6000806000839050600084905060005b600b8054905081101561066457600b81815481106105105761050f612229565b5b906000526020600020906004020160000160009054906101000a900473ffffffffffffffffffffffffffffffffffffffff1673ffffffffffffffffffffffffffffffffffffffff163373ffffffffffffffffffffffffffffffffffffffff160361065157600b818154811061058857610587612229565b5b90600052602060002090600402016040518060600160405290816000820160009054906101000a900473ffffffffffffffffffffffffffffffffffffffff1673ffffffffffffffffffffffffffffffffffffffff1673ffffffffffffffffffffffffffffffffffffffff168152602001600182015481526020016002820160028060200260405190810160405280929190826002801561063d576020028201915b815481526020019060010190808311610629575b505050505081525050925060019450610664565b808061065c90612287565b9150506104ef565b5060005b600c805490508110156107dd57600c818154811061068957610688612229565b5b906000526020600020906004020160000160009054906101000a900473ffffffffffffffffffffffffffffffffffffffff1673ffffffffffffffffffffffffffffffffffffffff163373ffffffffffffffffffffffffffffffffffffffff16036107ca57600c818154811061070157610700612229565b5b90600052602060002090600402016040518060600160405290816000820160009054906101000a900473ffffffffffffffffffffffffffffffffffffffff1673ffffffffffffffffffffffffffffffffffffffff1673ffffffffffffffffffffffffffffffffffffffff16815260200160018201548152602001600282016002806020026040519081016040528092919082600280156107b6576020028201915b8154815260200190600101908083116107a2575b5050505050815250509150600193506107dd565b80806107d590612287565b915050610668565b50831580156107ea575082155b156107ff57848596509650505050505061080b565b81819650965050505050505b9091565b600c818154811061081f57600080fd5b90600052602060002090600402016000915090508060000160009054906101000a900473ffffffffffffffffffffffffffffffffffffffff16908060010154905082565b60016004811115610877576108766122cf565b5b600260009054906101000a900460ff166004811115610899576108986122cf565b5b146108a357600080fd5b6001600660018282829054906101000a900460ff166108c291906122fe565b92506101000a81548160ff021916908360ff1602179055506005600660019054906101000a900460ff1660ff161061091f5760028060006101000a81548160ff02191690836004811115610919576109186122cf565b5b02179055505b565b6000806004811115610936576109356122cf565b5b600260009054906101000a900460ff166004811115610958576109576122cf565b5b1461096257600080fd5b60005b600b80549050811015610a43573373ffffffffffffffffffffffffffffffffffffffff16600b828154811061099d5761099c612229565b5b906000526020600020906004020160000160009054906101000a900473ffffffffffffffffffffffffffffffffffffffff1673ffffffffffffffffffffffffffffffffffffffff1603610a305734600b82815481106109ff576109fe612229565b5b90600052602060002090600402016001016000828254610a1f9190612333565b925050819055506000915050610b6b565b8080610a3b90612287565b915050610965565b600060405180606001604052803373ffffffffffffffffffffffffffffffffffffffff1681526020013481526020016007600280602002604051908101604052809291908260028015610aab576020028201915b815481526020019060010190808311610a97575b5050505050815250905034600080828254610ac69190612333565b92505081905550600b81908060018154018082558091505060019003906000526020600020906004020160009091909190915060008201518160000160006101000a81548173ffffffffffffffffffffffffffffffffffffffff021916908373ffffffffffffffffffffffffffffffffffffffff16021790555060208201518160010155604082015181600201906002610b61929190611ec2565b5050506000925050505b90565b60078160028110610b7e57600080fd5b016000915090505481565b60035481565b6000806004811115610ba457610ba36122cf565b5b600260009054906101000a900460ff166004811115610bc657610bc56122cf565b5b14610bd057600080fd5b60005b600c80549050811015610cb1573373ffffffffffffffffffffffffffffffffffffffff16600c8281548110610c0b57610c0a612229565b5b906000526020600020906004020160000160009054906101000a900473ffffffffffffffffffffffffffffffffffffffff1673ffffffffffffffffffffffffffffffffffffffff1603610c9e5734600c8281548110610c6d57610c6c612229565b5b90600052602060002090600402016001016000828254610c8d9190612333565b925050819055506000915050610dda565b8080610ca990612287565b915050610bd3565b600060405180606001604052803373ffffffffffffffffffffffffffffffffffffffff1681526020013481526020016009600280602002604051908101604052809291908260028015610d19576020028201915b815481526020019060010190808311610d05575b505050505081525090503460016000828254610d359190612333565b92505081905550600c81908060018154018082558091505060019003906000526020600020906004020160009091909190915060008201518160000160006101000a81548173ffffffffffffffffffffffffffffffffffffffff021916908373ffffffffffffffffffffffffffffffffffffffff16021790555060208201518160010155604082015181600201906002610dd0929190611ec2565b5050506000925050505b90565b600660019054906101000a900460ff1681565b60005b600b80549050811015610fdb573373ffffffffffffffffffffffffffffffffffffffff16600b8281548110610e2b57610e2a612229565b5b906000526020600020906004020160000160009054906101000a900473ffffffffffffffffffffffffffffffffffffffff1673ffffffffffffffffffffffffffffffffffffffff1603610fc7576000600b8281548110610e8e57610e8d612229565b5b9060005260206000209060040201600101541115610fc2576000600b8281548110610ebc57610ebb612229565b5b906000526020600020906004020160000160009054906101000a900473ffffffffffffffffffffffffffffffffffffffff1673ffffffffffffffffffffffffffffffffffffffff16600b8381548110610f1857610f17612229565b5b906000526020600020906004020160010154604051610f3690612398565b60006040518083038185875af1925050503d8060008114610f73576040519150601f19603f3d011682016040523d82523d6000602084013e610f78565b606091505b5050905080610fbc576040517f08c379a0000000000000000000000000000000000000000000000000000000008152600401610fb39061240a565b60405180910390fd5b50610fdb565b610fd6565b8080610fd290612287565b9150505b610df3565b50565b60015481565b60045481565b7f000000000000000000000000000000000000000000000000000000000000000073ffffffffffffffffffffffffffffffffffffffff163373ffffffffffffffffffffffffffffffffffffffff1614611078576040517f08c379a000000000000000000000000000000000000000000000000000000000815260040161106f9061249c565b60405180910390fd5b6001600481111561108c5761108b6122cf565b5b600260009054906101000a900460ff1660048111156110ae576110ad6122cf565b5b146110b857600080fd5b6005544210156110c757600080fd5b6000600660009054906101000a900460ff1660ff160361111d576110ed600b600c611bea565b6003600260006101000a81548160ff02191690836004811115611113576111126122cf565b5b02179055506111a0565b6001600660009054906101000a900460ff1660ff160361117357611143600c600b611bea565b6003600260006101000a81548160ff02191690836004811115611169576111686122cf565b5b021790555061119f565b6003600260006101000a81548160ff02191690836004811115611199576111986122cf565b5b02179055505b5b565b600b81815481106111b257600080fd5b90600052602060002090600402016000915090508060000160009054906101000a900473ffffffffffffffffffffffffffffffffffffffff16908060010154905082565b60007f000000000000000000000000000000000000000000000000000000000000000073ffffffffffffffffffffffffffffffffffffffff163373ffffffffffffffffffffffffffffffffffffffff16036112545760019050611259565b600090505b90565b600060048111156112705761126f6122cf565b5b600260009054906101000a900460ff166004811115611292576112916122cf565b5b1461129c57600080fd5b60005b600b805490508110156114ef573373ffffffffffffffffffffffffffffffffffffffff16600b82815481106112d7576112d6612229565b5b906000526020600020906004020160000160009054906101000a900473ffffffffffffffffffffffffffffffffffffffff1673ffffffffffffffffffffffffffffffffffffffff16036114db5781600b828154811061133957611338612229565b5b906000526020600020906004020160010154106114835781600b828154811061136557611364612229565b5b9060005260206000209060040201600101600082825461138591906124bc565b925050819055506000600b82815481106113a2576113a1612229565b5b906000526020600020906004020160000160009054906101000a900473ffffffffffffffffffffffffffffffffffffffff1673ffffffffffffffffffffffffffffffffffffffff16836040516113f790612398565b60006040518083038185875af1925050503d8060008114611434576040519150601f19603f3d011682016040523d82523d6000602084013e611439565b606091505b505090508061147d576040517f08c379a00000000000000000000000000000000000000000000000000000000081526004016114749061240a565b60405180910390fd5b506114ef565b6001600b8054905061149591906124bc565b81036114d6576040517f3a0ef9480000000000000000000000000000000000000000000000000000000081526004016114cd9061253c565b60405180910390fd5b6114ea565b80806114e690612287565b9150505b61129f565b5050565b6009816002811061150357600080fd5b016000915090505481565b60055481565b60006004811115611528576115276122cf565b5b600260009054906101000a900460ff16600481111561154a576115496122cf565b5b1461155457600080fd5b60005b600c805490508110156117a7573373ffffffffffffffffffffffffffffffffffffffff16600c828154811061158f5761158e612229565b5b906000526020600020906004020160000160009054906101000a900473ffffffffffffffffffffffffffffffffffffffff1673ffffffffffffffffffffffffffffffffffffffff16036117935781600c82815481106115f1576115f0612229565b5b9060005260206000209060040201600101541061173b5781600c828154811061161d5761161c612229565b5b9060005260206000209060040201600101600082825461163d91906124bc565b925050819055506000600c828154811061165a57611659612229565b5b906000526020600020906004020160000160009054906101000a900473ffffffffffffffffffffffffffffffffffffffff1673ffffffffffffffffffffffffffffffffffffffff16836040516116af90612398565b60006040518083038185875af1925050503d80600081146116ec576040519150601f19603f3d011682016040523d82523d6000602084013e6116f1565b606091505b5050905080611735576040517f08c379a000000000000000000000000000000000000000000000000000000000815260040161172c9061240a565b60405180910390fd5b506117a7565b6001600c8054905061174d91906124bc565b810361178e576040517f3a0ef948000000000000000000000000000000000000000000000000000000008152600401611785906125a8565b60405180910390fd5b6117a2565b808061179e90612287565b9150505b611557565b5050565b600360048111156117bf576117be6122cf565b5b600260009054906101000a900460ff1660048111156117e1576117e06122cf565b5b146117eb57600080fd5b60005b600c805490508110156119d6573373ffffffffffffffffffffffffffffffffffffffff16600c828154811061182657611825612229565b5b906000526020600020906004020160000160009054906101000a900473ffffffffffffffffffffffffffffffffffffffff1673ffffffffffffffffffffffffffffffffffffffff16036119c2576000600c828154811061188957611888612229565b5b90600052602060002090600402016001015411156119bd576000600c82815481106118b7576118b6612229565b5b906000526020600020906004020160000160009054906101000a900473ffffffffffffffffffffffffffffffffffffffff1673ffffffffffffffffffffffffffffffffffffffff16600c838154811061191357611912612229565b5b90600052602060002090600402016001015460405161193190612398565b60006040518083038185875af1925050503d806000811461196e576040519150601f19603f3d011682016040523d82523d6000602084013e611973565b606091505b50509050806119b7576040517f08c379a00000000000000000000000000000000000000000000000000000000081526004016119ae9061240a565b60405180910390fd5b506119d6565b6119d1565b80806119cd90612287565b9150505b6117ee565b50565b60005481565b600660009054906101000a900460ff1681565b7f000000000000000000000000000000000000000000000000000000000000000073ffffffffffffffffffffffffffffffffffffffff163373ffffffffffffffffffffffffffffffffffffffff1614611a80576040517f08c379a0000000000000000000000000000000000000000000000000000000008152600401611a779061249c565b60405180910390fd5b60006004811115611a9457611a936122cf565b5b600260009054906101000a900460ff166004811115611ab657611ab56122cf565b5b14611ac057600080fd5b600354421015611acf57600080fd5b60008160ff161480611ae4575060018160ff16145b80611af2575060028160ff16145b611b31576040517f08c379a0000000000000000000000000000000000000000000000000000000008152600401611b2890612614565b60405180910390fd5b60008160ff1603611b5d576000600660006101000a81548160ff021916908360ff160217905550611ba7565b60018160ff1603611b89576001600660006101000a81548160ff021916908360ff160217905550611ba6565b6002600660006101000a81548160ff021916908360ff1602179055505b5b6001600260006101000a81548160ff02191690836004811115611bcd57611bcc6122cf565b5b02179055506201518042611be19190612333565b60058190555050565b60005b8180549050811015611e8057600080838381548110611c0f57611c0e612229565b5b9060005260206000209060040201600201600160028110611c3357611c32612229565b5b0154848481548110611c4857611c47612229565b5b9060005260206000209060040201600201600060028110611c6c57611c6b612229565b5b0154858581548110611c8157611c80612229565b5b906000526020600020906004020160010154611c9d9190612634565b611ca791906126a5565b90505b8480549050821015611e6b576000858381548110611ccb57611cca612229565b5b90600052602060002090600402016001015411611cf5578180611ced90612287565b925050611e66565b80858381548110611d0957611d08612229565b5b9060005260206000209060040201600101541115611d9c5780858381548110611d3557611d34612229565b5b90600052602060002090600402016001016000828254611d5591906124bc565b9250508190555080848481548110611d7057611d6f612229565b5b90600052602060002090600402016001016000828254611d909190612333565b92505081905550611e6b565b848281548110611daf57611dae612229565b5b90600052602060002090600402016001015481611dcc91906124bc565b9050848281548110611de157611de0612229565b5b906000526020600020906004020160010154848481548110611e0657611e05612229565b5b90600052602060002090600402016001016000828254611e269190612333565b925050819055506000858381548110611e4257611e41612229565b5b9060005260206000209060040201600101819055508180611e6290612287565b9250505b611caa565b8280611e7690612287565b9350505050611bed565b505050565b6040518060600160405280600073ffffffffffffffffffffffffffffffffffffffff16815260200160008152602001611ebc611f02565b81525090565b8260028101928215611ef1579160200282015b82811115611ef0578251825591602001919060010190611ed5565b5b509050611efe9190611f24565b5090565b6040518060400160405280600290602082028036833780820191505090505090565b5b80821115611f3d576000816000905550600101611f25565b5090565b600073ffffffffffffffffffffffffffffffffffffffff82169050919050565b6000611f6c82611f41565b9050919050565b611f7c81611f61565b82525050565b6000819050919050565b611f9581611f82565b82525050565b600060029050919050565b600081905092915050565b6000819050919050565b6000611fc78383611f8c565b60208301905092915050565b6000602082019050919050565b611fe981611f9b565b611ff38184611fa6565b9250611ffe82611fb1565b8060005b8381101561202f5781516120168782611fbb565b965061202183611fd3565b925050600181019050612002565b505050505050565b60808201600082015161204d6000850182611f73565b5060208201516120606020850182611f8c565b5060408201516120736040850182611fe0565b50505050565b60006101008201905061208f6000830185612037565b61209c6080830184612037565b9392505050565b600080fd5b6120b181611f82565b81146120bc57600080fd5b50565b6000813590506120ce816120a8565b92915050565b6000602082840312156120ea576120e96120a3565b5b60006120f8848285016120bf565b91505092915050565b61210a81611f61565b82525050565b61211981611f82565b82525050565b60006040820190506121346000830185612101565b6121416020830184612110565b9392505050565b600060208201905061215d6000830184612110565b92915050565b600060ff82169050919050565b61217981612163565b82525050565b60006020820190506121946000830184612170565b92915050565b60008115159050919050565b6121af8161219a565b82525050565b60006020820190506121ca60008301846121a6565b92915050565b6121d981612163565b81146121e457600080fd5b50565b6000813590506121f6816121d0565b92915050565b600060208284031215612212576122116120a3565b5b6000612220848285016121e7565b91505092915050565b7f4e487b7100000000000000000000000000000000000000000000000000000000600052603260045260246000fd5b7f4e487b7100000000000000000000000000000000000000000000000000000000600052601160045260246000fd5b600061229282611f82565b91507fffffffffffffffffffffffffffffffffffffffffffffffffffffffffffffffff82036122c4576122c3612258565b5b600182019050919050565b7f4e487b7100000000000000000000000000000000000000000000000000000000600052602160045260246000fd5b600061230982612163565b915061231483612163565b9250828201905060ff81111561232d5761232c612258565b5b92915050565b600061233e82611f82565b915061234983611f82565b925082820190508082111561236157612360612258565b5b92915050565b600081905092915050565b50565b6000612382600083612367565b915061238d82612372565b600082019050919050565b60006123a382612375565b9150819050919050565b600082825260208201905092915050565b7f5472616e73666572206661696c65640000000000000000000000000000000000600082015250565b60006123f4600f836123ad565b91506123ff826123be565b602082019050919050565b60006020820190508181036000830152612423816123e7565b9050919050565b7f4f6e6c7920746865206f776e65722063616e2063616c6c20746869732066756e60008201527f6374696f6e2e0000000000000000000000000000000000000000000000000000602082015250565b60006124866026836123ad565b91506124918261242a565b604082019050919050565b600060208201905081810360008301526124b581612479565b9050919050565b60006124c782611f82565b91506124d283611f82565b92508282039050818111156124ea576124e9612258565b5b92915050565b7f4e6f74204f6e2042657420410000000000000000000000000000000000000000600082015250565b6000612526600c836123ad565b9150612531826124f0565b602082019050919050565b6000602082019050818103600083015261255581612519565b9050919050565b7f4e6f74204f6e2042657420420000000000000000000000000000000000000000600082015250565b6000612592600c836123ad565b915061259d8261255c565b602082019050919050565b600060208201905081810360008301526125c181612585565b9050919050565b7f696e76616c696420696e70757400000000000000000000000000000000000000600082015250565b60006125fe600d836123ad565b9150612609826125c8565b602082019050919050565b6000602082019050818103600083015261262d816125f1565b9050919050565b600061263f82611f82565b915061264a83611f82565b925082820261265881611f82565b9150828204841483151761266f5761266e612258565b5b5092915050565b7f4e487b7100000000000000000000000000000000000000000000000000000000600052601260045260246000fd5b60006126b082611f82565b91506126bb83611f82565b9250826126cb576126ca612676565b5b82820490509291505056fea2646970667358221220d9f31ffe7bd869e6c9f38d8258bf046cfe63a1dfd711664252d27a38d8b9708464736f6c63430008130033",
  "linkReferences": {},
  "deployedLinkReferences": {}
}