{
  "_format": "hh-sol-artifact-1",
  "contractName": "predMarket2",
  "sourceName": "contracts/LockV2.sol",
  "abi": [
    {
      "inputs": [
        {
          "internalType": "uint256",
          "name": "_endTime",
          "type": "uint256"
        }
      ],
      "stateMutability": "payable",
      "type": "constructor"
    },
    {
      "inputs": [],
      "name": "ReentrancyGuardReentrantCall",
      "type": "error"
    },
    {
      "anonymous": false,
      "inputs": [],
      "name": "BetEdited",
      "type": "event"
    },
    {
      "anonymous": false,
      "inputs": [],
      "name": "BetUnlisted",
      "type": "event"
    },
    {
      "anonymous": false,
      "inputs": [
        {
          "indexed": true,
          "internalType": "address",
          "name": "beneficiary",
          "type": "address"
        },
        {
          "indexed": false,
          "internalType": "uint256",
          "name": "amount",
          "type": "uint256"
        }
      ],
      "name": "FundsRedistributed",
      "type": "event"
    },
    {
      "anonymous": false,
      "inputs": [],
      "name": "PayoutProcessed",
      "type": "event"
    },
    {
      "anonymous": false,
      "inputs": [],
      "name": "userBoughtBet",
      "type": "event"
    },
    {
      "anonymous": false,
      "inputs": [],
      "name": "userCreatedABet",
      "type": "event"
    },
    {
      "anonymous": false,
      "inputs": [],
      "name": "userReListedBet",
      "type": "event"
    },
    {
      "anonymous": false,
      "inputs": [],
      "name": "userVoted",
      "type": "event"
    },
    {
      "anonymous": false,
      "inputs": [],
      "name": "userWithdrew",
      "type": "event"
    },
    {
      "anonymous": false,
      "inputs": [],
      "name": "winnerDeclaredVoting",
      "type": "event"
    },
    {
      "inputs": [],
      "name": "allBets_Balance",
      "outputs": [
        {
          "components": [
            {
              "internalType": "address",
              "name": "deployer",
              "type": "address"
            },
            {
              "internalType": "uint256",
              "name": "amountDeployerLocked",
              "type": "uint256"
            },
            {
              "internalType": "address",
              "name": "owner",
              "type": "address"
            },
            {
              "internalType": "uint256",
              "name": "amountBuyerLocked",
              "type": "uint256"
            },
            {
              "internalType": "uint256",
              "name": "amountToBuyFor",
              "type": "uint256"
            },
            {
              "internalType": "uint8",
              "name": "conditionForBuyerToWin",
              "type": "uint8"
            },
            {
              "internalType": "bool",
              "name": "selling",
              "type": "bool"
            },
            {
              "internalType": "uint256",
              "name": "positionInArray",
              "type": "uint256"
            }
          ],
          "internalType": "struct predMarket2.bet[]",
          "name": "",
          "type": "tuple[]"
        },
        {
          "internalType": "uint256",
          "name": "",
          "type": "uint256"
        },
        {
          "internalType": "uint8",
          "name": "",
          "type": "uint8"
        },
        {
          "internalType": "enum predMarket2.RaffleState",
          "name": "",
          "type": "uint8"
        },
        {
          "internalType": "uint256",
          "name": "",
          "type": "uint256"
        },
        {
          "internalType": "uint256",
          "name": "",
          "type": "uint256"
        },
        {
          "internalType": "uint256",
          "name": "",
          "type": "uint256"
        },
        {
          "internalType": "uint256",
          "name": "",
          "type": "uint256"
        }
      ],
      "stateMutability": "view",
      "type": "function"
    },
    {
      "inputs": [
        {
          "internalType": "uint256",
          "name": "",
          "type": "uint256"
        }
      ],
      "name": "arrayOfBets",
      "outputs": [
        {
          "internalType": "address",
          "name": "deployer",
          "type": "address"
        },
        {
          "internalType": "uint256",
          "name": "amountDeployerLocked",
          "type": "uint256"
        },
        {
          "internalType": "address",
          "name": "owner",
          "type": "address"
        },
        {
          "internalType": "uint256",
          "name": "amountBuyerLocked",
          "type": "uint256"
        },
        {
          "internalType": "uint256",
          "name": "amountToBuyFor",
          "type": "uint256"
        },
        {
          "internalType": "uint8",
          "name": "conditionForBuyerToWin",
          "type": "uint8"
        },
        {
          "internalType": "bool",
          "name": "selling",
          "type": "bool"
        },
        {
          "internalType": "uint256",
          "name": "positionInArray",
          "type": "uint256"
        }
      ],
      "stateMutability": "view",
      "type": "function"
    },
    {
      "inputs": [
        {
          "internalType": "address",
          "name": "",
          "type": "address"
        },
        {
          "internalType": "uint256",
          "name": "",
          "type": "uint256"
        }
      ],
      "name": "betsByUser",
      "outputs": [
        {
          "internalType": "uint256",
          "name": "",
          "type": "uint256"
        }
      ],
      "stateMutability": "view",
      "type": "function"
    },
    {
      "inputs": [
        {
          "internalType": "uint256",
          "name": "positionOfArray",
          "type": "uint256"
        }
      ],
      "name": "buyABet",
      "outputs": [],
      "stateMutability": "payable",
      "type": "function"
    },
    {
      "inputs": [],
      "name": "creatorLocked",
      "outputs": [
        {
          "internalType": "uint256",
          "name": "",
          "type": "uint256"
        }
      ],
      "stateMutability": "view",
      "type": "function"
    },
    {
      "inputs": [
        {
          "internalType": "uint8",
          "name": "_winner",
          "type": "uint8"
        }
      ],
      "name": "declareWinner",
      "outputs": [],
      "stateMutability": "nonpayable",
      "type": "function"
    },
    {
      "inputs": [],
      "name": "disagreeWithOwner",
      "outputs": [],
      "stateMutability": "nonpayable",
      "type": "function"
    },
    {
      "inputs": [
        {
          "internalType": "uint256",
          "name": "positionOfArray",
          "type": "uint256"
        },
        {
          "internalType": "uint256",
          "name": "newDeployPrice",
          "type": "uint256"
        },
        {
          "internalType": "uint256",
          "name": "newAskingPrice",
          "type": "uint256"
        }
      ],
      "name": "editADeployedBet",
      "outputs": [],
      "stateMutability": "payable",
      "type": "function"
    },
    {
      "inputs": [],
      "name": "endOfVoting",
      "outputs": [
        {
          "internalType": "uint256",
          "name": "",
          "type": "uint256"
        }
      ],
      "stateMutability": "view",
      "type": "function"
    },
    {
      "inputs": [],
      "name": "owner",
      "outputs": [
        {
          "internalType": "address",
          "name": "",
          "type": "address"
        }
      ],
      "stateMutability": "view",
      "type": "function"
    },
    {
      "inputs": [],
      "name": "s_raffleState",
      "outputs": [
        {
          "internalType": "enum predMarket2.RaffleState",
          "name": "",
          "type": "uint8"
        }
      ],
      "stateMutability": "view",
      "type": "function"
    },
    {
      "inputs": [
        {
          "internalType": "uint256",
          "name": "amountToBuy",
          "type": "uint256"
        },
        {
          "internalType": "uint8",
          "name": "conditionToWIn",
          "type": "uint8"
        }
      ],
      "name": "sellANewBet",
      "outputs": [],
      "stateMutability": "payable",
      "type": "function"
    },
    {
      "inputs": [
        {
          "internalType": "uint256",
          "name": "positionOfArray",
          "type": "uint256"
        },
        {
          "internalType": "uint256",
          "name": "newAskingPrice",
          "type": "uint256"
        }
      ],
      "name": "sellAnExistingBet",
      "outputs": [],
      "stateMutability": "nonpayable",
      "type": "function"
    },
    {
      "inputs": [],
      "name": "staffPay",
      "outputs": [
        {
          "internalType": "uint256",
          "name": "",
          "type": "uint256"
        }
      ],
      "stateMutability": "view",
      "type": "function"
    },
    {
      "inputs": [],
      "name": "transferOwnerAmount",
      "outputs": [],
      "stateMutability": "nonpayable",
      "type": "function"
    },
    {
      "inputs": [],
      "name": "transferStaffAmount",
      "outputs": [],
      "stateMutability": "nonpayable",
      "type": "function"
    },
    {
      "inputs": [
        {
          "internalType": "uint256[]",
          "name": "positionsOfArray",
          "type": "uint256[]"
        }
      ],
      "name": "unlistBets",
      "outputs": [],
      "stateMutability": "nonpayable",
      "type": "function"
    },
    {
      "inputs": [],
      "name": "winner",
      "outputs": [
        {
          "internalType": "uint8",
          "name": "",
          "type": "uint8"
        }
      ],
      "stateMutability": "view",
      "type": "function"
    },
    {
      "inputs": [],
      "name": "withdraw",
      "outputs": [],
      "stateMutability": "nonpayable",
      "type": "function"
    }
  ],
  "bytecode": "0x60a0604052604051806020016040528073f39fd6e51aad88f6f4ce6ab8827279cfffb9226673ffffffffffffffffffffffffffffffffffffffff1673ffffffffffffffffffffffffffffffffffffffff1681525060019060016200006592919062000103565b5060405162003a1f38038062003a1f83398181016040528101906200008b9190620001f1565b60016000819055503373ffffffffffffffffffffffffffffffffffffffff1660808173ffffffffffffffffffffffffffffffffffffffff1681525050806005819055506000600660016101000a81548160ff02191690836003811115620000f757620000f662000223565b5b02179055505062000252565b8280548282559060005260206000209081019282156200017f579160200282015b828111156200017e5782518260006101000a81548173ffffffffffffffffffffffffffffffffffffffff021916908373ffffffffffffffffffffffffffffffffffffffff1602179055509160200191906001019062000124565b5b5090506200018e919062000192565b5090565b5b80821115620001ad57600081600090555060010162000193565b5090565b600080fd5b6000819050919050565b620001cb81620001b6565b8114620001d757600080fd5b50565b600081519050620001eb81620001c0565b92915050565b6000602082840312156200020a5762000209620001b1565b5b60006200021a84828501620001da565b91505092915050565b7f4e487b7100000000000000000000000000000000000000000000000000000000600052602160045260246000fd5b6080516137a36200027c6000396000818161191b0152818161209c015261220901526137a36000f3fe6080604052600436106101145760003560e01c80637e887332116100a0578063b4a36fd711610064578063b4a36fd714610347578063cc45483f1461035e578063d38399ec14610389578063dfbf53ae146103b2578063ee9891f1146103dd57610114565b80637e887332146102905780638da5cb5b146102bb5780639651b183146102e657806397ecf90014610302578063a6c69ffe1461031e57610114565b80635d926148116100e75780635d926148146101c8578063607c9cea146101df5780636afedac51461020a5780637672ef7b1461023c5780637c54bafe1461025357610114565b80631798b2ae1461011957806330dda1c2146101425780633658957e1461016d5780633ccfd60b146101b1575b600080fd5b34801561012557600080fd5b50610140600480360381019061013b9190612813565b6103f9565b005b34801561014e57600080fd5b5061015761070b565b6040516101649190612859565b60405180910390f35b34801561017957600080fd5b50610194600480360381019061018f91906128a0565b610711565b6040516101a8989796959493929190612938565b60405180910390f35b3480156101bd57600080fd5b506101c66107c3565b005b3480156101d457600080fd5b506101dd610f30565b005b3480156101eb57600080fd5b506101f4611142565b6040516102019190612859565b60405180910390f35b34801561021657600080fd5b5061021f611148565b604051610233989796959493929190612bbb565b60405180910390f35b34801561024857600080fd5b506102516117ab565b005b34801561025f57600080fd5b5061027a60048036038101906102759190612c6c565b6118e2565b6040516102879190612859565b60405180910390f35b34801561029c57600080fd5b506102a5611913565b6040516102b29190612859565b60405180910390f35b3480156102c757600080fd5b506102d0611919565b6040516102dd9190612cac565b60405180910390f35b61030060048036038101906102fb9190612cc7565b61193d565b005b61031c60048036038101906103179190612d07565b611be4565b005b34801561032a57600080fd5b5061034560048036038101906103409190612d5a565b611e96565b005b34801561035357600080fd5b5061035c611ffb565b005b34801561036a57600080fd5b50610373612283565b6040516103809190612d9a565b60405180910390f35b34801561039557600080fd5b506103b060048036038101906103ab9190612f0e565b612296565b005b3480156103be57600080fd5b506103c761247f565b6040516103d49190612f57565b60405180910390f35b6103f760048036038101906103f291906128a0565b612492565b005b6000805b600180549050811015610497573373ffffffffffffffffffffffffffffffffffffffff166001828154811061043557610434612f72565b5b9060005260206000200160009054906101000a900473ffffffffffffffffffffffffffffffffffffffff1673ffffffffffffffffffffffffffffffffffffffff16036104845760019150610497565b808061048f90612fd0565b9150506103fd565b50806104d8576040517f08c379a00000000000000000000000000000000000000000000000000000000081526004016104cf90613075565b60405180910390fd5b6104e0612776565b60008260ff161180156104f6575060048260ff16105b6104ff57600080fd5b6000600381111561051357610512612b44565b5b600660019054906101000a900460ff16600381111561053557610534612b44565b5b036105cb57600042905061012c8161054d9190613095565b6003819055506001600660016101000a81548160ff0219169083600381111561057957610578612b44565b5b021790555082600660006101000a81548160ff021916908360ff1602179055507fbbfddbd2a33e1c8d143e1f8b564451965d01678a70438b79b4900cd033c12a2760405160405180910390a1506106ff565b600160038111156105df576105de612b44565b5b600660019054906101000a900460ff16600381111561060157610600612b44565b5b14801561060f575060035442115b8061064d57506002600381111561062957610628612b44565b5b600660019054906101000a900460ff16600381111561064b5761064a612b44565b5b145b61068c576040517f08c379a000000000000000000000000000000000000000000000000000000000815260040161068390613161565b60405180910390fd5b81600660006101000a81548160ff021916908360ff1602179055507fbbfddbd2a33e1c8d143e1f8b564451965d01678a70438b79b4900cd033c12a2760405160405180910390a16003600660016101000a81548160ff021916908360038111156106f9576106f8612b44565b5b02179055505b6107076127bc565b5050565b60045481565b6008818154811061072157600080fd5b90600052602060002090600702016000915090508060000160009054906101000a900473ffffffffffffffffffffffffffffffffffffffff16908060010154908060020160009054906101000a900473ffffffffffffffffffffffffffffffffffffffff16908060030154908060040154908060050160009054906101000a900460ff16908060050160019054906101000a900460ff16908060060154905088565b6107cb612776565b6003808111156107de576107dd612b44565b5b600660019054906101000a900460ff166003811115610800576107ff612b44565b5b148061084c57506001600381111561081b5761081a612b44565b5b600660019054906101000a900460ff16600381111561083d5761083c612b44565b5b14801561084b575060035442115b5b61088b576040517f08c379a0000000000000000000000000000000000000000000000000000000008152600401610882906131cd565b60405180910390fd5b6000600760003373ffffffffffffffffffffffffffffffffffffffff1673ffffffffffffffffffffffffffffffffffffffff16815260200190815260200160002090506000818054905011610915576040517f08c379a000000000000000000000000000000000000000000000000000000000815260040161090c90613239565b60405180910390fd5b60008060006003600660009054906101000a900460ff1660ff1614905060005b8480549050811015610d8a57600085828154811061095657610955612f72565b5b9060005260206000200154905060006008828154811061097957610978612f72565b5b906000526020600020906007020190508315610a7c573373ffffffffffffffffffffffffffffffffffffffff168160020160009054906101000a900473ffffffffffffffffffffffffffffffffffffffff1673ffffffffffffffffffffffffffffffffffffffff1603610a03578060030154866109f69190613095565b9550600081600301819055505b3373ffffffffffffffffffffffffffffffffffffffff168160000160009054906101000a900473ffffffffffffffffffffffffffffffffffffffff1673ffffffffffffffffffffffffffffffffffffffff1603610a7757806001015486610a6a9190613095565b9550600081600101819055505b610d75565b60003373ffffffffffffffffffffffffffffffffffffffff168260000160009054906101000a900473ffffffffffffffffffffffffffffffffffffffff1673ffffffffffffffffffffffffffffffffffffffff16148015610b2c57503373ffffffffffffffffffffffffffffffffffffffff168260020160009054906101000a900473ffffffffffffffffffffffffffffffffffffffff1673ffffffffffffffffffffffffffffffffffffffff16145b90508015610b6e5781600301548260010154610b489190613095565b87610b539190613095565b96506000826001018190555060008260030181905550610d73565b3373ffffffffffffffffffffffffffffffffffffffff168260020160009054906101000a900473ffffffffffffffffffffffffffffffffffffffff1673ffffffffffffffffffffffffffffffffffffffff16148015610bf25750600660009054906101000a900460ff1660ff168260050160009054906101000a900460ff1660ff16145b80610c7e57503373ffffffffffffffffffffffffffffffffffffffff168260000160009054906101000a900473ffffffffffffffffffffffffffffffffffffffff1673ffffffffffffffffffffffffffffffffffffffff16148015610c7d5750600660009054906101000a900460ff1660ff168260050160009054906101000a900460ff1660ff1614155b5b15610d7257600082600101548360030154610c999190613095565b90508088610ca79190613095565b97503373ffffffffffffffffffffffffffffffffffffffff168360020160009054906101000a900473ffffffffffffffffffffffffffffffffffffffff1673ffffffffffffffffffffffffffffffffffffffff16148015610d2d5750600660009054906101000a900460ff1660ff168360050160009054906101000a900460ff1660ff16145b15610d4957826001015487610d429190613095565b9650610d5c565b826003015487610d599190613095565b96505b6000836003018190555060008360010181905550505b5b505b50508080610d8290612fd0565b915050610935565b5080158015610d995750600082115b15610e2957600061271061012c84610db19190613259565b610dbb91906132ca565b9050600061271060c885610dcf9190613259565b610dd991906132ca565b90508160026000828254610ded9190613095565b925050819055508060046000828254610e069190613095565b925050819055508181610e199190613095565b85610e2491906132fb565b945050505b60008311610e6c576040517f08c379a0000000000000000000000000000000000000000000000000000000008152600401610e639061337b565b60405180910390fd5b82471015610eaf576040517f08c379a0000000000000000000000000000000000000000000000000000000008152600401610ea6906133e7565b60405180910390fd5b3373ffffffffffffffffffffffffffffffffffffffff166108fc849081150290604051600060405180830381858888f19350505050158015610ef5573d6000803e3d6000fd5b507fc3038e585f1bbb89a9a4ed41eb9b8f65d3589d382434df15a354153177e39bbd60405160405180910390a150505050610f2e6127bc565b565b6000805b600180549050811015610fce573373ffffffffffffffffffffffffffffffffffffffff1660018281548110610f6c57610f6b612f72565b5b9060005260206000200160009054906101000a900473ffffffffffffffffffffffffffffffffffffffff1673ffffffffffffffffffffffffffffffffffffffff1603610fbb5760019150610fce565b8080610fc690612fd0565b915050610f34565b508061100f576040517f08c379a000000000000000000000000000000000000000000000000000000000815260040161100690613075565b60405180910390fd5b611017612776565b6001600381111561102b5761102a612b44565b5b600660019054906101000a900460ff16600381111561104d5761104c612b44565b5b14801561105b575060035442115b80611098575060038081111561107457611073612b44565b5b600660019054906101000a900460ff16600381111561109657611095612b44565b5b145b6110d7576040517f08c379a00000000000000000000000000000000000000000000000000000000081526004016110ce90613453565b60405180910390fd5b6000600254116110e657600080fd5b3373ffffffffffffffffffffffffffffffffffffffff166108fc6002549081150290604051600060405180830381858888f1935050505015801561112e573d6000803e3d6000fd5b50600060028190555061113f6127bc565b50565b60025481565b6060600080600080600080600080600090506000806000600760003373ffffffffffffffffffffffffffffffffffffffff1673ffffffffffffffffffffffffffffffffffffffff16815260200190815260200160002090506000806003600660009054906101000a900460ff1660ff16149050600080600660009054906101000a900460ff1660ff1614905060005b84805490508110156115b85760008582815481106111f8576111f7612f72565b5b9060005260206000200154905060006008828154811061121b5761121a612f72565b5b90600052602060002090600702019050836115a357841561130f573373ffffffffffffffffffffffffffffffffffffffff168160020160009054906101000a900473ffffffffffffffffffffffffffffffffffffffff1673ffffffffffffffffffffffffffffffffffffffff16036112a05780600301548a61129d9190613095565b99505b3373ffffffffffffffffffffffffffffffffffffffff168160000160009054906101000a900473ffffffffffffffffffffffffffffffffffffffff1673ffffffffffffffffffffffffffffffffffffffff160361130a5780600101548a6113079190613095565b99505b6115a2565b3373ffffffffffffffffffffffffffffffffffffffff168160000160009054906101000a900473ffffffffffffffffffffffffffffffffffffffff1673ffffffffffffffffffffffffffffffffffffffff161480156113bd57503373ffffffffffffffffffffffffffffffffffffffff168160020160009054906101000a900473ffffffffffffffffffffffffffffffffffffffff1673ffffffffffffffffffffffffffffffffffffffff16145b156113e857806003015481600101546113d69190613095565b8a6113e19190613095565b99506115a1565b3373ffffffffffffffffffffffffffffffffffffffff168160020160009054906101000a900473ffffffffffffffffffffffffffffffffffffffff1673ffffffffffffffffffffffffffffffffffffffff1614801561146c5750600660009054906101000a900460ff1660ff168160050160009054906101000a900460ff1660ff16145b806114f857503373ffffffffffffffffffffffffffffffffffffffff168160000160009054906101000a900473ffffffffffffffffffffffffffffffffffffffff1673ffffffffffffffffffffffffffffffffffffffff161480156114f75750600660009054906101000a900460ff1660ff168160050160009054906101000a900460ff1660ff1614155b5b156115a057806001015481600301546115119190613095565b8a61151c9190613095565b99503373ffffffffffffffffffffffffffffffffffffffff168160020160009054906101000a900473ffffffffffffffffffffffffffffffffffffffff1673ffffffffffffffffffffffffffffffffffffffff160361158c578060010154866115859190613095565b955061159f565b80600301548661159c9190613095565b95505b5b5b5b5b505080806115b090612fd0565b9150506111d7565b50811580156115c75750600083115b156115f957600060646005856115dd9190613259565b6115e791906132ca565b905080886115f591906132fb565b9750505b6008600554600660009054906101000a900460ff16600660019054906101000a900460ff166003548b8b8b87805480602002602001604051908101604052809291908181526020016000905b828210156117845783829060005260206000209060070201604051806101000160405290816000820160009054906101000a900473ffffffffffffffffffffffffffffffffffffffff1673ffffffffffffffffffffffffffffffffffffffff1673ffffffffffffffffffffffffffffffffffffffff168152602001600182015481526020016002820160009054906101000a900473ffffffffffffffffffffffffffffffffffffffff1673ffffffffffffffffffffffffffffffffffffffff1673ffffffffffffffffffffffffffffffffffffffff16815260200160038201548152602001600482015481526020016005820160009054906101000a900460ff1660ff1660ff1681526020016005820160019054906101000a900460ff1615151515815260200160068201548152505081526020019060010190611645565b5050505097509e509e509e509e509e509e509e509e50505050505050509091929394959697565b6117b3612776565b600160038111156117c7576117c6612b44565b5b600660019054906101000a900460ff1660038111156117e9576117e8612b44565b5b1480156117f7575060035442105b8061184257506000600381111561181157611810612b44565b5b600660019054906101000a900460ff16600381111561183357611832612b44565b5b148015611841575060055442115b5b611881576040517f08c379a000000000000000000000000000000000000000000000000000000000815260040161187890613453565b60405180910390fd5b6002600660016101000a81548160ff021916908360038111156118a7576118a6612b44565b5b02179055507f325941a5b65623f14f777a10c4ee68b69cec6214a44a48c1bb1c4991314755c060405160405180910390a16118e06127bc565b565b600760205281600052604060002081815481106118fe57600080fd5b90600052602060002001600091509150505481565b60035481565b7f000000000000000000000000000000000000000000000000000000000000000081565b611945612776565b60008160ff1611801561195c575060028160ff1611155b61196557600080fd5b6000600381111561197957611978612b44565b5b600660019054906101000a900460ff16600381111561199b5761199a612b44565b5b146119a557600080fd5b60006040518061010001604052803373ffffffffffffffffffffffffffffffffffffffff1681526020013481526020013373ffffffffffffffffffffffffffffffffffffffff168152602001600081526020018481526020018360ff1681526020016001151581526020016008805490508152509050600760003373ffffffffffffffffffffffffffffffffffffffff1673ffffffffffffffffffffffffffffffffffffffff1681526020019081526020016000206008805490509080600181540180825580915050600190039060005260206000200160009091909190915055600881908060018154018082558091505060019003906000526020600020906007020160009091909190915060008201518160000160006101000a81548173ffffffffffffffffffffffffffffffffffffffff021916908373ffffffffffffffffffffffffffffffffffffffff1602179055506020820151816001015560408201518160020160006101000a81548173ffffffffffffffffffffffffffffffffffffffff021916908373ffffffffffffffffffffffffffffffffffffffff160217905550606082015181600301556080820151816004015560a08201518160050160006101000a81548160ff021916908360ff16021790555060c08201518160050160016101000a81548160ff02191690831515021790555060e0820151816006015550507f9f9060b2035b3d98df4f62b3bbd9de8d98a49465ddcdd11c92f63c956df0442b60405160405180910390a150611be06127bc565b5050565b611bec612776565b600060088481548110611c0257611c01612f72565b5b906000526020600020906007020190503373ffffffffffffffffffffffffffffffffffffffff168160020160009054906101000a900473ffffffffffffffffffffffffffffffffffffffff1673ffffffffffffffffffffffffffffffffffffffff16148015611cc057503373ffffffffffffffffffffffffffffffffffffffff168160000160009054906101000a900473ffffffffffffffffffffffffffffffffffffffff1673ffffffffffffffffffffffffffffffffffffffff16145b611cff576040517f08c379a0000000000000000000000000000000000000000000000000000000008152600401611cf6906134e5565b60405180910390fd5b600081600101549050808414611e1e5780841015611dc05760008482611d2591906132fb565b905080471015611d6a576040517f08c379a0000000000000000000000000000000000000000000000000000000008152600401611d6190613577565b60405180910390fd5b8483600101819055503373ffffffffffffffffffffffffffffffffffffffff166108fc829081150290604051600060405180830381858888f19350505050158015611db9573d6000803e3d6000fd5b5050611e1d565b60008185611dce91906132fb565b9050803414611e12576040517f08c379a0000000000000000000000000000000000000000000000000000000008152600401611e09906135e3565b60405180910390fd5b848360010181905550505b5b8282600401819055508160050160019054906101000a900460ff16611e5b5760018260050160016101000a81548160ff0219169083151502179055505b7ff75e56f787976a19558bde97657a643e88c61a76b39e41f3a06a120defa30d6160405160405180910390a15050611e916127bc565b505050565b611e9e612776565b60006003811115611eb257611eb1612b44565b5b600660019054906101000a900460ff166003811115611ed457611ed3612b44565b5b14611ede57600080fd5b3373ffffffffffffffffffffffffffffffffffffffff1660088381548110611f0957611f08612f72565b5b906000526020600020906007020160020160009054906101000a900473ffffffffffffffffffffffffffffffffffffffff1673ffffffffffffffffffffffffffffffffffffffff1614611f5b57600080fd5b8060088381548110611f7057611f6f612f72565b5b906000526020600020906007020160040181905550600160088381548110611f9b57611f9a612f72565b5b906000526020600020906007020160050160016101000a81548160ff0219169083151502179055507f50c7c110b9cabc516cf0aef475d15558b239d0490f0389129f4e6b4c378dfa3d60405160405180910390a1611ff76127bc565b5050565b6000805b600180549050811015612099573373ffffffffffffffffffffffffffffffffffffffff166001828154811061203757612036612f72565b5b9060005260206000200160009054906101000a900473ffffffffffffffffffffffffffffffffffffffff1673ffffffffffffffffffffffffffffffffffffffff16036120865760019150612099565b808061209190612fd0565b915050611fff565b507f000000000000000000000000000000000000000000000000000000000000000073ffffffffffffffffffffffffffffffffffffffff163373ffffffffffffffffffffffffffffffffffffffff1614806120f15750805b612130576040517f08c379a000000000000000000000000000000000000000000000000000000000815260040161212790613675565b60405180910390fd5b612138612776565b6001600381111561214c5761214b612b44565b5b600660019054906101000a900460ff16600381111561216e5761216d612b44565b5b14801561217c575060035442115b806121b9575060038081111561219557612194612b44565b5b600660019054906101000a900460ff1660038111156121b7576121b6612b44565b5b145b6121f8576040517f08c379a00000000000000000000000000000000000000000000000000000000081526004016121ef90613453565b60405180910390fd5b60006004541161220757600080fd5b7f000000000000000000000000000000000000000000000000000000000000000073ffffffffffffffffffffffffffffffffffffffff166108fc6004549081150290604051600060405180830381858888f1935050505015801561226f573d6000803e3d6000fd5b5060006004819055506122806127bc565b50565b600660019054906101000a900460ff1681565b61229e612776565b60005b81518110156124475760008282815181106122bf576122be612f72565b5b602002602001015190503373ffffffffffffffffffffffffffffffffffffffff16600882815481106122f4576122f3612f72565b5b906000526020600020906007020160020160009054906101000a900473ffffffffffffffffffffffffffffffffffffffff1673ffffffffffffffffffffffffffffffffffffffff161461237c576040517f08c379a0000000000000000000000000000000000000000000000000000000008152600401612373906136e1565b60405180910390fd5b600115156008828154811061239457612393612f72565b5b906000526020600020906007020160050160019054906101000a900460ff161515146123f5576040517f08c379a00000000000000000000000000000000000000000000000000000000081526004016123ec9061374d565b60405180910390fd5b60006008828154811061240b5761240a612f72565b5b906000526020600020906007020160050160016101000a81548160ff02191690831515021790555050808061243f90612fd0565b9150506122a1565b507f1e5a109a2c5190a6567f1b2386d95213f70c40047a7d1f2fb64e5974c9a0043a60405160405180910390a161247c6127bc565b50565b600660009054906101000a900460ff1681565b61249a612776565b600060038111156124ae576124ad612b44565b5b600660019054906101000a900460ff1660038111156124d0576124cf612b44565b5b146124da57600080fd5b600881815481106124ee576124ed612f72565b5b906000526020600020906007020160040154341461250b57600080fd5b600115156008828154811061252357612522612f72565b5b906000526020600020906007020160050160019054906101000a900460ff1615151461254e57600080fd5b60006008828154811061256457612563612f72565b5b906000526020600020906007020160030154036125aa5734600882815481106125905761258f612f72565b5b906000526020600020906007020160030181905550612637565b600881815481106125be576125bd612f72565b5b906000526020600020906007020160020160009054906101000a900473ffffffffffffffffffffffffffffffffffffffff1673ffffffffffffffffffffffffffffffffffffffff166108fc349081150290604051600060405180830381858888f19350505050158015612635573d6000803e3d6000fd5b505b600760003373ffffffffffffffffffffffffffffffffffffffff1673ffffffffffffffffffffffffffffffffffffffff16815260200190815260200160002081908060018154018082558091505060019003906000526020600020016000909190919091505533600882815481106126b2576126b1612f72565b5b906000526020600020906007020160020160006101000a81548173ffffffffffffffffffffffffffffffffffffffff021916908373ffffffffffffffffffffffffffffffffffffffff16021790555060006008828154811061271757612716612f72565b5b906000526020600020906007020160050160016101000a81548160ff0219169083151502179055507f34825dc172bd596324998d16543dc86015d6a6dd51a29758081d1f535c18b59d60405160405180910390a16127736127bc565b50565b6002600054036127b2576040517f3ee5aeb500000000000000000000000000000000000000000000000000000000815260040160405180910390fd5b6002600081905550565b6001600081905550565b6000604051905090565b600080fd5b600080fd5b600060ff82169050919050565b6127f0816127da565b81146127fb57600080fd5b50565b60008135905061280d816127e7565b92915050565b600060208284031215612829576128286127d0565b5b6000612837848285016127fe565b91505092915050565b6000819050919050565b61285381612840565b82525050565b600060208201905061286e600083018461284a565b92915050565b61287d81612840565b811461288857600080fd5b50565b60008135905061289a81612874565b92915050565b6000602082840312156128b6576128b56127d0565b5b60006128c48482850161288b565b91505092915050565b600073ffffffffffffffffffffffffffffffffffffffff82169050919050565b60006128f8826128cd565b9050919050565b612908816128ed565b82525050565b612917816127da565b82525050565b60008115159050919050565b6129328161291d565b82525050565b60006101008201905061294e600083018b6128ff565b61295b602083018a61284a565b61296860408301896128ff565b612975606083018861284a565b612982608083018761284a565b61298f60a083018661290e565b61299c60c0830185612929565b6129a960e083018461284a565b9998505050505050505050565b600081519050919050565b600082825260208201905092915050565b6000819050602082019050919050565b6129eb816128ed565b82525050565b6129fa81612840565b82525050565b612a09816127da565b82525050565b612a188161291d565b82525050565b61010082016000820151612a3560008501826129e2565b506020820151612a4860208501826129f1565b506040820151612a5b60408501826129e2565b506060820151612a6e60608501826129f1565b506080820151612a8160808501826129f1565b5060a0820151612a9460a0850182612a00565b5060c0820151612aa760c0850182612a0f565b5060e0820151612aba60e08501826129f1565b50505050565b6000612acc8383612a1e565b6101008301905092915050565b6000602082019050919050565b6000612af1826129b6565b612afb81856129c1565b9350612b06836129d2565b8060005b83811015612b37578151612b1e8882612ac0565b9750612b2983612ad9565b925050600181019050612b0a565b5085935050505092915050565b7f4e487b7100000000000000000000000000000000000000000000000000000000600052602160045260246000fd5b60048110612b8457612b83612b44565b5b50565b6000819050612b9582612b73565b919050565b6000612ba582612b87565b9050919050565b612bb581612b9a565b82525050565b6000610100820190508181036000830152612bd6818b612ae6565b9050612be5602083018a61284a565b612bf2604083018961290e565b612bff6060830188612bac565b612c0c608083018761284a565b612c1960a083018661284a565b612c2660c083018561284a565b612c3360e083018461284a565b9998505050505050505050565b612c49816128ed565b8114612c5457600080fd5b50565b600081359050612c6681612c40565b92915050565b60008060408385031215612c8357612c826127d0565b5b6000612c9185828601612c57565b9250506020612ca28582860161288b565b9150509250929050565b6000602082019050612cc160008301846128ff565b92915050565b60008060408385031215612cde57612cdd6127d0565b5b6000612cec8582860161288b565b9250506020612cfd858286016127fe565b9150509250929050565b600080600060608486031215612d2057612d1f6127d0565b5b6000612d2e8682870161288b565b9350506020612d3f8682870161288b565b9250506040612d508682870161288b565b9150509250925092565b60008060408385031215612d7157612d706127d0565b5b6000612d7f8582860161288b565b9250506020612d908582860161288b565b9150509250929050565b6000602082019050612daf6000830184612bac565b92915050565b600080fd5b6000601f19601f8301169050919050565b7f4e487b7100000000000000000000000000000000000000000000000000000000600052604160045260246000fd5b612e0382612dba565b810181811067ffffffffffffffff82111715612e2257612e21612dcb565b5b80604052505050565b6000612e356127c6565b9050612e418282612dfa565b919050565b600067ffffffffffffffff821115612e6157612e60612dcb565b5b602082029050602081019050919050565b600080fd5b6000612e8a612e8584612e46565b612e2b565b90508083825260208201905060208402830185811115612ead57612eac612e72565b5b835b81811015612ed65780612ec2888261288b565b845260208401935050602081019050612eaf565b5050509392505050565b600082601f830112612ef557612ef4612db5565b5b8135612f05848260208601612e77565b91505092915050565b600060208284031215612f2457612f236127d0565b5b600082013567ffffffffffffffff811115612f4257612f416127d5565b5b612f4e84828501612ee0565b91505092915050565b6000602082019050612f6c600083018461290e565b92915050565b7f4e487b7100000000000000000000000000000000000000000000000000000000600052603260045260246000fd5b7f4e487b7100000000000000000000000000000000000000000000000000000000600052601160045260246000fd5b6000612fdb82612840565b91507fffffffffffffffffffffffffffffffffffffffffffffffffffffffffffffffff820361300d5761300c612fa1565b5b600182019050919050565b600082825260208201905092915050565b7f43616c6c6572206973206e6f742061207374616666206d656d62657200000000600082015250565b600061305f601c83613018565b915061306a82613029565b602082019050919050565b6000602082019050818103600083015261308e81613052565b9050919050565b60006130a082612840565b91506130ab83612840565b92508282019050808211156130c3576130c2612fa1565b5b92915050565b7f526166666c65207374617465206d75737420626520696e20564f54494e47206160008201527f6e64207061737420656e64206f6620766f74696e672c206f7220696e20554e4460208201527f45525245564945572073746174652e0000000000000000000000000000000000604082015250565b600061314b604f83613018565b9150613156826130c9565b606082019050919050565b6000602082019050818103600083015261317a8161313e565b9050919050565b7f43616e6e6f7420776974686472617720617420746869732074696d6500000000600082015250565b60006131b7601c83613018565b91506131c282613181565b602082019050919050565b600060208201905081810360008301526131e6816131aa565b9050919050565b7f4e6f206265747320666f756e6420666f72207573657200000000000000000000600082015250565b6000613223601683613018565b915061322e826131ed565b602082019050919050565b6000602082019050818103600083015261325281613216565b9050919050565b600061326482612840565b915061326f83612840565b925082820261327d81612840565b9150828204841483151761329457613293612fa1565b5b5092915050565b7f4e487b7100000000000000000000000000000000000000000000000000000000600052601260045260246000fd5b60006132d582612840565b91506132e083612840565b9250826132f0576132ef61329b565b5b828204905092915050565b600061330682612840565b915061331183612840565b925082820390508181111561332957613328612fa1565b5b92915050565b7f4e6f2062616c616e636520746f20776974686472617700000000000000000000600082015250565b6000613365601683613018565b91506133708261332f565b602082019050919050565b6000602082019050818103600083015261339481613358565b9050919050565b7f496e73756666696369656e7420636f6e74726163742062616c616e6365000000600082015250565b60006133d1601d83613018565b91506133dc8261339b565b602082019050919050565b60006020820190508181036000830152613400816133c4565b9050919050565b7f496e76616c6964207374617465206f722074696d650000000000000000000000600082015250565b600061343d601583613018565b915061344882613407565b602082019050919050565b6000602082019050818103600083015261346c81613430565b9050919050565b7f4f6e6c7920746865206465706c6f7965722077686f20697320616c736f20746860008201527f65206f776e65722063616e206564697420746869732062657400000000000000602082015250565b60006134cf603983613018565b91506134da82613473565b604082019050919050565b600060208201905081810360008301526134fe816134c2565b9050919050565b7f496e73756666696369656e7420636f6e74726163742066756e647320666f722060008201527f726566756e640000000000000000000000000000000000000000000000000000602082015250565b6000613561602683613018565b915061356c82613505565b604082019050919050565b6000602082019050818103600083015261359081613554565b9050919050565b7f496e636f7272656374206164646974696f6e616c2066756e64732073656e7400600082015250565b60006135cd601f83613018565b91506135d882613597565b602082019050919050565b600060208201905081810360008301526135fc816135c0565b9050919050565b7f43616c6c6572206973206e6f7420746865206f776e6572206f7220612073746160008201527f6666206d656d6265720000000000000000000000000000000000000000000000602082015250565b600061365f602983613018565b915061366a82613603565b604082019050919050565b6000602082019050818103600083015261368e81613652565b9050919050565b7f43616c6c6572206973206e6f7420746865206f776e6572000000000000000000600082015250565b60006136cb601783613018565b91506136d682613695565b602082019050919050565b600060208201905081810360008301526136fa816136be565b9050919050565b7f426574206973206e6f7420666f722073616c6500000000000000000000000000600082015250565b6000613737601383613018565b915061374282613701565b602082019050919050565b600060208201905081810360008301526137668161372a565b905091905056fea264697066735822122026354c01ee1448fafdfef29919cb0f41dabec3b77cc20d6d23d39d0c0e06587964736f6c63430008140033",
  "linkReferences": {},
  "deployedLinkReferences": {}
}