{
  "_format": "hh-sol-artifact-1",
  "contractName": "predMarket2",
  "sourceName": "contracts/LockV2.sol",
  "abi": [
    {
      "inputs": [
        {
          "internalType": "uint256",
          "name": "_endTime",
          "type": "uint256"
        }
      ],
      "stateMutability": "payable",
      "type": "constructor"
    },
    {
      "inputs": [],
      "name": "ReentrancyGuardReentrantCall",
      "type": "error"
    },
    {
      "anonymous": false,
      "inputs": [
        {
          "indexed": true,
          "internalType": "uint256",
          "name": "positionOfArray",
          "type": "uint256"
        }
      ],
      "name": "BetUnlisted",
      "type": "event"
    },
    {
      "anonymous": false,
      "inputs": [
        {
          "indexed": true,
          "internalType": "address",
          "name": "beneficiary",
          "type": "address"
        },
        {
          "indexed": false,
          "internalType": "uint256",
          "name": "amount",
          "type": "uint256"
        }
      ],
      "name": "FundsRedistributed",
      "type": "event"
    },
    {
      "anonymous": false,
      "inputs": [],
      "name": "PayoutProcessed",
      "type": "event"
    },
    {
      "anonymous": false,
      "inputs": [
        {
          "indexed": false,
          "internalType": "uint256",
          "name": "timeStamp",
          "type": "uint256"
        }
      ],
      "name": "contractDeployed",
      "type": "event"
    },
    {
      "anonymous": false,
      "inputs": [],
      "name": "newBetOffered",
      "type": "event"
    },
    {
      "anonymous": false,
      "inputs": [],
      "name": "shithappened",
      "type": "event"
    },
    {
      "anonymous": false,
      "inputs": [],
      "name": "underReview",
      "type": "event"
    },
    {
      "anonymous": false,
      "inputs": [
        {
          "indexed": true,
          "internalType": "address",
          "name": "sender",
          "type": "address"
        },
        {
          "indexed": false,
          "internalType": "uint256",
          "name": "betPlacedValue",
          "type": "uint256"
        }
      ],
      "name": "userPlacedBet",
      "type": "event"
    },
    {
      "anonymous": false,
      "inputs": [
        {
          "indexed": true,
          "internalType": "address",
          "name": "sender",
          "type": "address"
        },
        {
          "indexed": false,
          "internalType": "uint256",
          "name": "betReduced",
          "type": "uint256"
        }
      ],
      "name": "userReducedBet",
      "type": "event"
    },
    {
      "anonymous": false,
      "inputs": [
        {
          "indexed": true,
          "internalType": "address",
          "name": "sender",
          "type": "address"
        },
        {
          "indexed": false,
          "internalType": "string",
          "name": "betAorB",
          "type": "string"
        }
      ],
      "name": "userWithdrewBet",
      "type": "event"
    },
    {
      "anonymous": false,
      "inputs": [
        {
          "indexed": false,
          "internalType": "uint8",
          "name": "winnerIs",
          "type": "uint8"
        }
      ],
      "name": "winnerDeclaredVoting",
      "type": "event"
    },
    {
      "anonymous": false,
      "inputs": [
        {
          "indexed": false,
          "internalType": "uint8",
          "name": "winnerIs",
          "type": "uint8"
        }
      ],
      "name": "winnerFinalized",
      "type": "event"
    },
    {
      "inputs": [],
      "name": "allBets_Balance",
      "outputs": [
        {
          "components": [
            {
              "internalType": "address",
              "name": "deployer",
              "type": "address"
            },
            {
              "internalType": "uint256",
              "name": "amountDeployerLocked",
              "type": "uint256"
            },
            {
              "internalType": "address",
              "name": "owner",
              "type": "address"
            },
            {
              "internalType": "uint256",
              "name": "amountBuyerLocked",
              "type": "uint256"
            },
            {
              "internalType": "uint256",
              "name": "amountToBuyFor",
              "type": "uint256"
            },
            {
              "internalType": "uint8",
              "name": "conditionForBuyerToWin",
              "type": "uint8"
            },
            {
              "internalType": "bool",
              "name": "selling",
              "type": "bool"
            },
            {
              "internalType": "uint256",
              "name": "positionInArray",
              "type": "uint256"
            }
          ],
          "internalType": "struct predMarket2.bet[]",
          "name": "",
          "type": "tuple[]"
        },
        {
          "internalType": "uint256",
          "name": "",
          "type": "uint256"
        },
        {
          "internalType": "uint256",
          "name": "",
          "type": "uint256"
        },
        {
          "internalType": "uint8",
          "name": "",
          "type": "uint8"
        }
      ],
      "stateMutability": "view",
      "type": "function"
    },
    {
      "inputs": [
        {
          "internalType": "uint256",
          "name": "",
          "type": "uint256"
        }
      ],
      "name": "arrayOfBets",
      "outputs": [
        {
          "internalType": "address",
          "name": "deployer",
          "type": "address"
        },
        {
          "internalType": "uint256",
          "name": "amountDeployerLocked",
          "type": "uint256"
        },
        {
          "internalType": "address",
          "name": "owner",
          "type": "address"
        },
        {
          "internalType": "uint256",
          "name": "amountBuyerLocked",
          "type": "uint256"
        },
        {
          "internalType": "uint256",
          "name": "amountToBuyFor",
          "type": "uint256"
        },
        {
          "internalType": "uint8",
          "name": "conditionForBuyerToWin",
          "type": "uint8"
        },
        {
          "internalType": "bool",
          "name": "selling",
          "type": "bool"
        },
        {
          "internalType": "uint256",
          "name": "positionInArray",
          "type": "uint256"
        }
      ],
      "stateMutability": "view",
      "type": "function"
    },
    {
      "inputs": [
        {
          "internalType": "address",
          "name": "",
          "type": "address"
        }
      ],
      "name": "betterBalance",
      "outputs": [
        {
          "internalType": "uint256",
          "name": "",
          "type": "uint256"
        }
      ],
      "stateMutability": "view",
      "type": "function"
    },
    {
      "inputs": [
        {
          "internalType": "uint256",
          "name": "positionOfArray",
          "type": "uint256"
        }
      ],
      "name": "buyABet",
      "outputs": [],
      "stateMutability": "payable",
      "type": "function"
    },
    {
      "inputs": [
        {
          "internalType": "uint8",
          "name": "_winner",
          "type": "uint8"
        }
      ],
      "name": "declareWinner",
      "outputs": [],
      "stateMutability": "nonpayable",
      "type": "function"
    },
    {
      "inputs": [],
      "name": "disagreeWithOwner",
      "outputs": [],
      "stateMutability": "payable",
      "type": "function"
    },
    {
      "inputs": [],
      "name": "endOfVoting",
      "outputs": [
        {
          "internalType": "uint256",
          "name": "",
          "type": "uint256"
        }
      ],
      "stateMutability": "view",
      "type": "function"
    },
    {
      "inputs": [],
      "name": "getBalance",
      "outputs": [
        {
          "internalType": "uint256",
          "name": "",
          "type": "uint256"
        }
      ],
      "stateMutability": "view",
      "type": "function"
    },
    {
      "inputs": [],
      "name": "isOwner",
      "outputs": [
        {
          "internalType": "bool",
          "name": "",
          "type": "bool"
        }
      ],
      "stateMutability": "view",
      "type": "function"
    },
    {
      "inputs": [],
      "name": "redeemBets",
      "outputs": [],
      "stateMutability": "nonpayable",
      "type": "function"
    },
    {
      "inputs": [
        {
          "internalType": "uint256",
          "name": "amountToBuy",
          "type": "uint256"
        },
        {
          "internalType": "uint8",
          "name": "conditionToWIn",
          "type": "uint8"
        }
      ],
      "name": "sellANewBet",
      "outputs": [],
      "stateMutability": "payable",
      "type": "function"
    },
    {
      "inputs": [
        {
          "internalType": "uint256",
          "name": "positionOfArray",
          "type": "uint256"
        },
        {
          "internalType": "uint256",
          "name": "newAskingPrice",
          "type": "uint256"
        }
      ],
      "name": "sellAnExistingBet",
      "outputs": [],
      "stateMutability": "nonpayable",
      "type": "function"
    },
    {
      "inputs": [
        {
          "internalType": "uint256[]",
          "name": "positionsOfArray",
          "type": "uint256[]"
        }
      ],
      "name": "unlistBets",
      "outputs": [],
      "stateMutability": "nonpayable",
      "type": "function"
    },
    {
      "inputs": [],
      "name": "winner",
      "outputs": [
        {
          "internalType": "uint8",
          "name": "",
          "type": "uint8"
        }
      ],
      "stateMutability": "view",
      "type": "function"
    },
    {
      "inputs": [],
      "name": "withdraw",
      "outputs": [],
      "stateMutability": "nonpayable",
      "type": "function"
    }
  ],
  "bytecode": "0x60c060405273f39fd6e51aad88f6f4ce6ab8827279cfffb9226673ffffffffffffffffffffffffffffffffffffffff1660a09073ffffffffffffffffffffffffffffffffffffffff168152506040516200261d3803806200261d833981810160405281019062000070919062000174565b600160008190555066b1a2bc2ec500003414620000c4576040517f08c379a0000000000000000000000000000000000000000000000000000000008152600401620000bb906200022d565b60405180910390fd5b3373ffffffffffffffffffffffffffffffffffffffff1660808173ffffffffffffffffffffffffffffffffffffffff1681525050806003819055506000600260016101000a81548160ff021916908360048111156200012857620001276200024f565b5b0217905550506200027e565b600080fd5b6000819050919050565b6200014e8162000139565b81146200015a57600080fd5b50565b6000815190506200016e8162000143565b92915050565b6000602082840312156200018d576200018c62000134565b5b60006200019d848285016200015d565b91505092915050565b600082825260208201905092915050565b7f4465706c6f796d656e742072657175697265732065786163746c7920302e303560008201527f2045746865720000000000000000000000000000000000000000000000000000602082015250565b600062000215602683620001a6565b91506200022282620001b7565b604082019050919050565b60006020820190508181036000830152620002488162000206565b9050919050565b7f4e487b7100000000000000000000000000000000000000000000000000000000600052602160045260246000fd5b60805160a05161236b620002b260003960006108d601526000818161033d015281816108810152610cbd015261236b6000f3fe6080604052600436106100e85760003560e01c8063860273221161008a578063b8cd837411610059578063b8cd8374146102ac578063d38399ec146102c3578063dfbf53ae146102ec578063ee9891f114610317576100e8565b806386027322146101ff5780638f32d59b1461023c5780639651b18314610267578063a6c69ffe14610283576100e8565b80633ccfd60b116100c65780633ccfd60b146101855780636afedac51461019c5780637672ef7b146101ca5780637e887332146101d4576100e8565b806312065fe0146100ed5780631798b2ae146101185780633658957e14610141575b600080fd5b3480156100f957600080fd5b50610102610333565b60405161010f9190611988565b60405180910390f35b34801561012457600080fd5b5061013f600480360381019061013a91906119f0565b61033b565b005b34801561014d57600080fd5b5061016860048036038101906101639190611a49565b6104c8565b60405161017c989796959493929190611ae1565b60405180910390f35b34801561019157600080fd5b5061019a61057a565b005b3480156101a857600080fd5b506101b1610612565b6040516101c19493929190611ced565b60405180910390f35b6101d26107e7565b005b3480156101e057600080fd5b506101e961085f565b6040516101f69190611988565b60405180910390f35b34801561020b57600080fd5b5061022660048036038101906102219190611d65565b610865565b6040516102339190611988565b60405180910390f35b34801561024857600080fd5b5061025161087d565b60405161025e9190611d92565b60405180910390f35b610281600480360381019061027c9190611dad565b61093a565b005b34801561028f57600080fd5b506102aa60048036038101906102a59190611ded565b610b66565b005b3480156102b857600080fd5b506102c1610cbb565b005b3480156102cf57600080fd5b506102ea60048036038101906102e59190611f86565b6114a4565b005b3480156102f857600080fd5b5061030161167d565b60405161030e9190611fcf565b60405180910390f35b610331600480360381019061032c9190611a49565b611690565b005b600047905090565b7f000000000000000000000000000000000000000000000000000000000000000073ffffffffffffffffffffffffffffffffffffffff163373ffffffffffffffffffffffffffffffffffffffff16146103c9576040517f08c379a00000000000000000000000000000000000000000000000000000000081526004016103c09061206d565b60405180910390fd5b600060048111156103dd576103dc61208d565b5b600260019054906101000a900460ff1660048111156103ff576103fe61208d565b5b1461040957600080fd5b611c204261041791906120eb565b6001819055506001600260016101000a81548160ff021916908360048111156104435761044261208d565b5b021790555080600260006101000a81548160ff021916908360ff1602179055507fce0878c42651e9fd4550445f75987947d74715fdcef08b0dffcb757965ab4a1f816040516104929190611fcf565b60405180910390a16001600260016101000a81548160ff021916908360048111156104c0576104bf61208d565b5b021790555050565b600581815481106104d857600080fd5b90600052602060002090600702016000915090508060000160009054906101000a900473ffffffffffffffffffffffffffffffffffffffff16908060010154908060020160009054906101000a900473ffffffffffffffffffffffffffffffffffffffff16908060030154908060040154908060050160009054906101000a900460ff16908060050160019054906101000a900460ff16908060060154905088565b61058261191f565b3373ffffffffffffffffffffffffffffffffffffffff166108fc600460003373ffffffffffffffffffffffffffffffffffffffff1673ffffffffffffffffffffffffffffffffffffffff168152602001908152602001600020549081150290604051600060405180830381858888f19350505050158015610607573d6000803e3d6000fd5b50610610611965565b565b6060600080600080600460003373ffffffffffffffffffffffffffffffffffffffff1673ffffffffffffffffffffffffffffffffffffffff168152602001908152602001600020549050600581600354600260009054906101000a900460ff1683805480602002602001604051908101604052809291908181526020016000905b828210156107d25783829060005260206000209060070201604051806101000160405290816000820160009054906101000a900473ffffffffffffffffffffffffffffffffffffffff1673ffffffffffffffffffffffffffffffffffffffff1673ffffffffffffffffffffffffffffffffffffffff168152602001600182015481526020016002820160009054906101000a900473ffffffffffffffffffffffffffffffffffffffff1673ffffffffffffffffffffffffffffffffffffffff1673ffffffffffffffffffffffffffffffffffffffff16815260200160038201548152602001600482015481526020016005820160009054906101000a900460ff1660ff1660ff1681526020016005820160019054906101000a900460ff1615151515815260200160068201548152505081526020019060010190610693565b50505050935094509450945094505090919293565b600160048111156107fb576107fa61208d565b5b600260019054906101000a900460ff16600481111561081d5761081c61208d565b5b148061082a575060035442115b61083357600080fd5b60028060016101000a81548160ff021916908360048111156108585761085761208d565b5b0217905550565b60015481565b60046020528060005260406000206000915090505481565b60007f000000000000000000000000000000000000000000000000000000000000000073ffffffffffffffffffffffffffffffffffffffff163373ffffffffffffffffffffffffffffffffffffffff16148061092457507f000000000000000000000000000000000000000000000000000000000000000073ffffffffffffffffffffffffffffffffffffffff163373ffffffffffffffffffffffffffffffffffffffff16145b156109325760019050610937565b600090505b90565b60008160ff16118015610951575060028160ff1611155b61095a57600080fd5b6000600481111561096e5761096d61208d565b5b600260019054906101000a900460ff1660048111156109905761098f61208d565b5b1461099a57600080fd5b60006040518061010001604052803373ffffffffffffffffffffffffffffffffffffffff1681526020013481526020013373ffffffffffffffffffffffffffffffffffffffff168152602001600081526020018481526020018360ff1681526020016001151581526020016005805490508152509050600581908060018154018082558091505060019003906000526020600020906007020160009091909190915060008201518160000160006101000a81548173ffffffffffffffffffffffffffffffffffffffff021916908373ffffffffffffffffffffffffffffffffffffffff1602179055506020820151816001015560408201518160020160006101000a81548173ffffffffffffffffffffffffffffffffffffffff021916908373ffffffffffffffffffffffffffffffffffffffff160217905550606082015181600301556080820151816004015560a08201518160050160006101000a81548160ff021916908360ff16021790555060c08201518160050160016101000a81548160ff02191690831515021790555060e0820151816006015550507f20c3f797b9c7476a4beb5a93f1743a0a793b6c4b04e8f035a97bb644668d534a60405160405180910390a1505050565b60006004811115610b7a57610b7961208d565b5b600260019054906101000a900460ff166004811115610b9c57610b9b61208d565b5b14610ba657600080fd5b3373ffffffffffffffffffffffffffffffffffffffff1660058381548110610bd157610bd061211f565b5b906000526020600020906007020160020160009054906101000a900473ffffffffffffffffffffffffffffffffffffffff1673ffffffffffffffffffffffffffffffffffffffff1614610c2357600080fd5b8060058381548110610c3857610c3761211f565b5b906000526020600020906007020160040181905550600160058381548110610c6357610c6261211f565b5b906000526020600020906007020160050160016101000a81548160ff0219169083151502179055507f20c3f797b9c7476a4beb5a93f1743a0a793b6c4b04e8f035a97bb644668d534a60405160405180910390a15050565b7f000000000000000000000000000000000000000000000000000000000000000073ffffffffffffffffffffffffffffffffffffffff163373ffffffffffffffffffffffffffffffffffffffff1614610d49576040517f08c379a0000000000000000000000000000000000000000000000000000000008152600401610d409061206d565b60405180910390fd5b60016004811115610d5d57610d5c61208d565b5b600260019054906101000a900460ff166004811115610d7f57610d7e61208d565b5b148015610d8d575060015442115b610dcc576040517f08c379a0000000000000000000000000000000000000000000000000000000008152600401610dc3906121c0565b60405180910390fd5b60005b60058054905081101561144a57600060058281548110610df257610df161211f565b5b90600052602060002090600702016003015460058381548110610e1857610e1761211f565b5b906000526020600020906007020160010154610e3491906120eb565b9050600260009054906101000a900460ff1660ff1660058381548110610e5d57610e5c61211f565b5b906000526020600020906007020160050160009054906101000a900460ff1660ff1603610fb757806004600060058581548110610e9d57610e9c61211f565b5b906000526020600020906007020160020160009054906101000a900473ffffffffffffffffffffffffffffffffffffffff1673ffffffffffffffffffffffffffffffffffffffff1673ffffffffffffffffffffffffffffffffffffffff1681526020019081526020016000206000828254610f1891906120eb565b9250508190555060058281548110610f3357610f3261211f565b5b906000526020600020906007020160020160009054906101000a900473ffffffffffffffffffffffffffffffffffffffff1673ffffffffffffffffffffffffffffffffffffffff167f67b3d24295657563da706484ee33c9099bc2aaff80d6a7fe5af32709f4bcea0582604051610faa9190611988565b60405180910390a2611436565b6001600260009054906101000a900460ff16610fd391906121e0565b60ff1660058381548110610fea57610fe961211f565b5b906000526020600020906007020160050160009054906101000a900460ff1660ff16036111445780600460006005858154811061102a5761102961211f565b5b906000526020600020906007020160000160009054906101000a900473ffffffffffffffffffffffffffffffffffffffff1673ffffffffffffffffffffffffffffffffffffffff1673ffffffffffffffffffffffffffffffffffffffff16815260200190815260200160002060008282546110a591906120eb565b92505081905550600582815481106110c0576110bf61211f565b5b906000526020600020906007020160000160009054906101000a900473ffffffffffffffffffffffffffffffffffffffff1673ffffffffffffffffffffffffffffffffffffffff167f67b3d24295657563da706484ee33c9099bc2aaff80d6a7fe5af32709f4bcea05826040516111379190611988565b60405180910390a2611435565b600582815481106111585761115761211f565b5b90600052602060002090600702016001015460046000600585815481106111825761118161211f565b5b906000526020600020906007020160000160009054906101000a900473ffffffffffffffffffffffffffffffffffffffff1673ffffffffffffffffffffffffffffffffffffffff1673ffffffffffffffffffffffffffffffffffffffff16815260200190815260200160002060008282546111fd91906120eb565b92505081905550600582815481106112185761121761211f565b5b90600052602060002090600702016003015460046000600585815481106112425761124161211f565b5b906000526020600020906007020160020160009054906101000a900473ffffffffffffffffffffffffffffffffffffffff1673ffffffffffffffffffffffffffffffffffffffff1673ffffffffffffffffffffffffffffffffffffffff16815260200190815260200160002060008282546112bd91906120eb565b92505081905550600582815481106112d8576112d761211f565b5b906000526020600020906007020160000160009054906101000a900473ffffffffffffffffffffffffffffffffffffffff1673ffffffffffffffffffffffffffffffffffffffff167f67b3d24295657563da706484ee33c9099bc2aaff80d6a7fe5af32709f4bcea05600584815481106113555761135461211f565b5b9060005260206000209060070201600101546040516113749190611988565b60405180910390a2600582815481106113905761138f61211f565b5b906000526020600020906007020160020160009054906101000a900473ffffffffffffffffffffffffffffffffffffffff1673ffffffffffffffffffffffffffffffffffffffff167f67b3d24295657563da706484ee33c9099bc2aaff80d6a7fe5af32709f4bcea056005848154811061140d5761140c61211f565b5b90600052602060002090600702016003015460405161142c9190611988565b60405180910390a25b5b50808061144290612215565b915050610dcf565b506004600260016101000a81548160ff021916908360048111156114715761147061208d565b5b02179055507f977cc9372b76a1e9fafbf8d4c4e67963bcd3d54b80c7356f7b950c4312a1f81160405160405180910390a1565b60005b815181101561164d5760008282815181106114c5576114c461211f565b5b602002602001015190503373ffffffffffffffffffffffffffffffffffffffff16600582815481106114fa576114f961211f565b5b906000526020600020906007020160020160009054906101000a900473ffffffffffffffffffffffffffffffffffffffff1673ffffffffffffffffffffffffffffffffffffffff1614611582576040517f08c379a0000000000000000000000000000000000000000000000000000000008152600401611579906122a9565b60405180910390fd5b600115156005828154811061159a5761159961211f565b5b906000526020600020906007020160050160019054906101000a900460ff161515146115fb576040517f08c379a00000000000000000000000000000000000000000000000000000000081526004016115f290612315565b60405180910390fd5b6000600582815481106116115761161061211f565b5b906000526020600020906007020160050160016101000a81548160ff02191690831515021790555050808061164590612215565b9150506114a7565b507f20c3f797b9c7476a4beb5a93f1743a0a793b6c4b04e8f035a97bb644668d534a60405160405180910390a150565b600260009054906101000a900460ff1681565b600060048111156116a4576116a361208d565b5b600260019054906101000a900460ff1660048111156116c6576116c561208d565b5b146116d057600080fd5b600581815481106116e4576116e361211f565b5b906000526020600020906007020160040154341461170157600080fd5b60011515600582815481106117195761171861211f565b5b906000526020600020906007020160050160019054906101000a900460ff1615151461174457600080fd5b60006005828154811061175a5761175961211f565b5b906000526020600020906007020160030154036117b25734600582815481106117865761178561211f565b5b906000526020600020906007020160030160008282546117a691906120eb565b9250508190555061184e565b3460046000600584815481106117cb576117ca61211f565b5b906000526020600020906007020160020160009054906101000a900473ffffffffffffffffffffffffffffffffffffffff1673ffffffffffffffffffffffffffffffffffffffff1673ffffffffffffffffffffffffffffffffffffffff168152602001908152602001600020600082825461184691906120eb565b925050819055505b33600582815481106118635761186261211f565b5b906000526020600020906007020160020160006101000a81548173ffffffffffffffffffffffffffffffffffffffff021916908373ffffffffffffffffffffffffffffffffffffffff1602179055506000600582815481106118c8576118c761211f565b5b906000526020600020906007020160050160016101000a81548160ff0219169083151502179055507f20c3f797b9c7476a4beb5a93f1743a0a793b6c4b04e8f035a97bb644668d534a60405160405180910390a150565b60026000540361195b576040517f3ee5aeb500000000000000000000000000000000000000000000000000000000815260040160405180910390fd5b6002600081905550565b6001600081905550565b6000819050919050565b6119828161196f565b82525050565b600060208201905061199d6000830184611979565b92915050565b6000604051905090565b600080fd5b600080fd5b600060ff82169050919050565b6119cd816119b7565b81146119d857600080fd5b50565b6000813590506119ea816119c4565b92915050565b600060208284031215611a0657611a056119ad565b5b6000611a14848285016119db565b91505092915050565b611a268161196f565b8114611a3157600080fd5b50565b600081359050611a4381611a1d565b92915050565b600060208284031215611a5f57611a5e6119ad565b5b6000611a6d84828501611a34565b91505092915050565b600073ffffffffffffffffffffffffffffffffffffffff82169050919050565b6000611aa182611a76565b9050919050565b611ab181611a96565b82525050565b611ac0816119b7565b82525050565b60008115159050919050565b611adb81611ac6565b82525050565b600061010082019050611af7600083018b611aa8565b611b04602083018a611979565b611b116040830189611aa8565b611b1e6060830188611979565b611b2b6080830187611979565b611b3860a0830186611ab7565b611b4560c0830185611ad2565b611b5260e0830184611979565b9998505050505050505050565b600081519050919050565b600082825260208201905092915050565b6000819050602082019050919050565b611b9481611a96565b82525050565b611ba38161196f565b82525050565b611bb2816119b7565b82525050565b611bc181611ac6565b82525050565b61010082016000820151611bde6000850182611b8b565b506020820151611bf16020850182611b9a565b506040820151611c046040850182611b8b565b506060820151611c176060850182611b9a565b506080820151611c2a6080850182611b9a565b5060a0820151611c3d60a0850182611ba9565b5060c0820151611c5060c0850182611bb8565b5060e0820151611c6360e0850182611b9a565b50505050565b6000611c758383611bc7565b6101008301905092915050565b6000602082019050919050565b6000611c9a82611b5f565b611ca48185611b6a565b9350611caf83611b7b565b8060005b83811015611ce0578151611cc78882611c69565b9750611cd283611c82565b925050600181019050611cb3565b5085935050505092915050565b60006080820190508181036000830152611d078187611c8f565b9050611d166020830186611979565b611d236040830185611979565b611d306060830184611ab7565b95945050505050565b611d4281611a96565b8114611d4d57600080fd5b50565b600081359050611d5f81611d39565b92915050565b600060208284031215611d7b57611d7a6119ad565b5b6000611d8984828501611d50565b91505092915050565b6000602082019050611da76000830184611ad2565b92915050565b60008060408385031215611dc457611dc36119ad565b5b6000611dd285828601611a34565b9250506020611de3858286016119db565b9150509250929050565b60008060408385031215611e0457611e036119ad565b5b6000611e1285828601611a34565b9250506020611e2385828601611a34565b9150509250929050565b600080fd5b6000601f19601f8301169050919050565b7f4e487b7100000000000000000000000000000000000000000000000000000000600052604160045260246000fd5b611e7b82611e32565b810181811067ffffffffffffffff82111715611e9a57611e99611e43565b5b80604052505050565b6000611ead6119a3565b9050611eb98282611e72565b919050565b600067ffffffffffffffff821115611ed957611ed8611e43565b5b602082029050602081019050919050565b600080fd5b6000611f02611efd84611ebe565b611ea3565b90508083825260208201905060208402830185811115611f2557611f24611eea565b5b835b81811015611f4e5780611f3a8882611a34565b845260208401935050602081019050611f27565b5050509392505050565b600082601f830112611f6d57611f6c611e2d565b5b8135611f7d848260208601611eef565b91505092915050565b600060208284031215611f9c57611f9b6119ad565b5b600082013567ffffffffffffffff811115611fba57611fb96119b2565b5b611fc684828501611f58565b91505092915050565b6000602082019050611fe46000830184611ab7565b92915050565b600082825260208201905092915050565b7f4f6e6c7920746865206f776e65722063616e2063616c6c20746869732066756e60008201527f6374696f6e2e0000000000000000000000000000000000000000000000000000602082015250565b6000612057602683611fea565b915061206282611ffb565b604082019050919050565b600060208201905081810360008301526120868161204a565b9050919050565b7f4e487b7100000000000000000000000000000000000000000000000000000000600052602160045260246000fd5b7f4e487b7100000000000000000000000000000000000000000000000000000000600052601160045260246000fd5b60006120f68261196f565b91506121018361196f565b9250828201905080821115612119576121186120bc565b5b92915050565b7f4e487b7100000000000000000000000000000000000000000000000000000000600052603260045260246000fd5b7f526564656d7074696f6e206973206e6f7420616c6c6f7765642061742074686960008201527f732074696d652e00000000000000000000000000000000000000000000000000602082015250565b60006121aa602783611fea565b91506121b58261214e565b604082019050919050565b600060208201905081810360008301526121d98161219d565b9050919050565b60006121eb826119b7565b91506121f6836119b7565b9250828201905060ff81111561220f5761220e6120bc565b5b92915050565b60006122208261196f565b91507fffffffffffffffffffffffffffffffffffffffffffffffffffffffffffffffff8203612252576122516120bc565b5b600182019050919050565b7f43616c6c6572206973206e6f7420746865206f776e6572000000000000000000600082015250565b6000612293601783611fea565b915061229e8261225d565b602082019050919050565b600060208201905081810360008301526122c281612286565b9050919050565b7f426574206973206e6f7420666f722073616c6500000000000000000000000000600082015250565b60006122ff601383611fea565b915061230a826122c9565b602082019050919050565b6000602082019050818103600083015261232e816122f2565b905091905056fea2646970667358221220ef3f3f7578430b21cffd3ffb9cf87810f06865e017c8f486646a18b3d16d9de964736f6c63430008140033",
  "linkReferences": {},
  "deployedLinkReferences": {}
}