{
  "_format": "hh-sol-artifact-1",
  "contractName": "predMarket2",
  "sourceName": "contracts/LockV2.sol",
  "abi": [
    {
      "inputs": [
        {
          "internalType": "uint256",
          "name": "_endTime",
          "type": "uint256"
        }
      ],
      "stateMutability": "payable",
      "type": "constructor"
    },
    {
      "inputs": [],
      "name": "ReentrancyGuardReentrantCall",
      "type": "error"
    },
    {
      "anonymous": false,
      "inputs": [],
      "name": "BetEdited",
      "type": "event"
    },
    {
      "anonymous": false,
      "inputs": [],
      "name": "BetUnlisted",
      "type": "event"
    },
    {
      "anonymous": false,
      "inputs": [
        {
          "indexed": true,
          "internalType": "address",
          "name": "beneficiary",
          "type": "address"
        },
        {
          "indexed": false,
          "internalType": "uint256",
          "name": "amount",
          "type": "uint256"
        }
      ],
      "name": "FundsRedistributed",
      "type": "event"
    },
    {
      "anonymous": false,
      "inputs": [],
      "name": "PayoutProcessed",
      "type": "event"
    },
    {
      "anonymous": false,
      "inputs": [],
      "name": "userBoughtBet",
      "type": "event"
    },
    {
      "anonymous": false,
      "inputs": [],
      "name": "userCreatedABet",
      "type": "event"
    },
    {
      "anonymous": false,
      "inputs": [],
      "name": "userReListedBet",
      "type": "event"
    },
    {
      "anonymous": false,
      "inputs": [],
      "name": "userVoted",
      "type": "event"
    },
    {
      "anonymous": false,
      "inputs": [],
      "name": "userWithdrew",
      "type": "event"
    },
    {
      "anonymous": false,
      "inputs": [],
      "name": "winnerDeclaredVoting",
      "type": "event"
    },
    {
      "inputs": [],
      "name": "allBets_Balance",
      "outputs": [
        {
          "components": [
            {
              "internalType": "address",
              "name": "deployer",
              "type": "address"
            },
            {
              "internalType": "uint256",
              "name": "amountDeployerLocked",
              "type": "uint256"
            },
            {
              "internalType": "address",
              "name": "owner",
              "type": "address"
            },
            {
              "internalType": "uint256",
              "name": "amountBuyerLocked",
              "type": "uint256"
            },
            {
              "internalType": "uint256",
              "name": "amountToBuyFor",
              "type": "uint256"
            },
            {
              "internalType": "uint8",
              "name": "conditionForBuyerToWin",
              "type": "uint8"
            },
            {
              "internalType": "bool",
              "name": "selling",
              "type": "bool"
            },
            {
              "internalType": "uint256",
              "name": "positionInArray",
              "type": "uint256"
            }
          ],
          "internalType": "struct predMarket2.bet[]",
          "name": "",
          "type": "tuple[]"
        },
        {
          "internalType": "uint256",
          "name": "",
          "type": "uint256"
        },
        {
          "internalType": "uint8",
          "name": "",
          "type": "uint8"
        },
        {
          "internalType": "enum predMarket2.RaffleState",
          "name": "",
          "type": "uint8"
        },
        {
          "internalType": "uint256",
          "name": "",
          "type": "uint256"
        },
        {
          "internalType": "uint256",
          "name": "",
          "type": "uint256"
        },
        {
          "internalType": "uint256",
          "name": "",
          "type": "uint256"
        },
        {
          "internalType": "uint256",
          "name": "",
          "type": "uint256"
        }
      ],
      "stateMutability": "view",
      "type": "function"
    },
    {
      "inputs": [
        {
          "internalType": "uint256",
          "name": "",
          "type": "uint256"
        }
      ],
      "name": "arrayOfBets",
      "outputs": [
        {
          "internalType": "address",
          "name": "deployer",
          "type": "address"
        },
        {
          "internalType": "uint256",
          "name": "amountDeployerLocked",
          "type": "uint256"
        },
        {
          "internalType": "address",
          "name": "owner",
          "type": "address"
        },
        {
          "internalType": "uint256",
          "name": "amountBuyerLocked",
          "type": "uint256"
        },
        {
          "internalType": "uint256",
          "name": "amountToBuyFor",
          "type": "uint256"
        },
        {
          "internalType": "uint8",
          "name": "conditionForBuyerToWin",
          "type": "uint8"
        },
        {
          "internalType": "bool",
          "name": "selling",
          "type": "bool"
        },
        {
          "internalType": "uint256",
          "name": "positionInArray",
          "type": "uint256"
        }
      ],
      "stateMutability": "view",
      "type": "function"
    },
    {
      "inputs": [
        {
          "internalType": "address",
          "name": "",
          "type": "address"
        },
        {
          "internalType": "uint256",
          "name": "",
          "type": "uint256"
        }
      ],
      "name": "betsByUser",
      "outputs": [
        {
          "internalType": "uint256",
          "name": "",
          "type": "uint256"
        }
      ],
      "stateMutability": "view",
      "type": "function"
    },
    {
      "inputs": [
        {
          "internalType": "uint256",
          "name": "positionOfArray",
          "type": "uint256"
        }
      ],
      "name": "buyABet",
      "outputs": [],
      "stateMutability": "payable",
      "type": "function"
    },
    {
      "inputs": [],
      "name": "creatorLocked",
      "outputs": [
        {
          "internalType": "uint256",
          "name": "",
          "type": "uint256"
        }
      ],
      "stateMutability": "view",
      "type": "function"
    },
    {
      "inputs": [
        {
          "internalType": "uint8",
          "name": "_winner",
          "type": "uint8"
        }
      ],
      "name": "declareWinner",
      "outputs": [],
      "stateMutability": "nonpayable",
      "type": "function"
    },
    {
      "inputs": [],
      "name": "disagreeWithOwner",
      "outputs": [],
      "stateMutability": "nonpayable",
      "type": "function"
    },
    {
      "inputs": [
        {
          "internalType": "uint256",
          "name": "positionOfArray",
          "type": "uint256"
        },
        {
          "internalType": "uint256",
          "name": "newDeployPrice",
          "type": "uint256"
        },
        {
          "internalType": "uint256",
          "name": "newAskingPrice",
          "type": "uint256"
        }
      ],
      "name": "editADeployedBet",
      "outputs": [],
      "stateMutability": "payable",
      "type": "function"
    },
    {
      "inputs": [],
      "name": "endOfVoting",
      "outputs": [
        {
          "internalType": "uint256",
          "name": "",
          "type": "uint256"
        }
      ],
      "stateMutability": "view",
      "type": "function"
    },
    {
      "inputs": [],
      "name": "owner",
      "outputs": [
        {
          "internalType": "address",
          "name": "",
          "type": "address"
        }
      ],
      "stateMutability": "view",
      "type": "function"
    },
    {
      "inputs": [],
      "name": "s_raffleState",
      "outputs": [
        {
          "internalType": "enum predMarket2.RaffleState",
          "name": "",
          "type": "uint8"
        }
      ],
      "stateMutability": "view",
      "type": "function"
    },
    {
      "inputs": [
        {
          "internalType": "uint256",
          "name": "amountToBuy",
          "type": "uint256"
        },
        {
          "internalType": "uint8",
          "name": "conditionToWIn",
          "type": "uint8"
        }
      ],
      "name": "sellANewBet",
      "outputs": [],
      "stateMutability": "payable",
      "type": "function"
    },
    {
      "inputs": [
        {
          "internalType": "uint256",
          "name": "positionOfArray",
          "type": "uint256"
        },
        {
          "internalType": "uint256",
          "name": "newAskingPrice",
          "type": "uint256"
        }
      ],
      "name": "sellAnExistingBet",
      "outputs": [],
      "stateMutability": "nonpayable",
      "type": "function"
    },
    {
      "inputs": [],
      "name": "staffPay",
      "outputs": [
        {
          "internalType": "uint256",
          "name": "",
          "type": "uint256"
        }
      ],
      "stateMutability": "view",
      "type": "function"
    },
    {
      "inputs": [],
      "name": "transferOwnerAmount",
      "outputs": [],
      "stateMutability": "nonpayable",
      "type": "function"
    },
    {
      "inputs": [],
      "name": "transferStaffAmount",
      "outputs": [],
      "stateMutability": "nonpayable",
      "type": "function"
    },
    {
      "inputs": [
        {
          "internalType": "uint256[]",
          "name": "positionsOfArray",
          "type": "uint256[]"
        }
      ],
      "name": "unlistBets",
      "outputs": [],
      "stateMutability": "nonpayable",
      "type": "function"
    },
    {
      "inputs": [],
      "name": "winner",
      "outputs": [
        {
          "internalType": "uint8",
          "name": "",
          "type": "uint8"
        }
      ],
      "stateMutability": "view",
      "type": "function"
    },
    {
      "inputs": [],
      "name": "withdraw",
      "outputs": [],
      "stateMutability": "nonpayable",
      "type": "function"
    }
  ],
  "bytecode": "0x60a0604052604051806020016040528073f39fd6e51aad88f6f4ce6ab8827279cfffb9226673ffffffffffffffffffffffffffffffffffffffff1673ffffffffffffffffffffffffffffffffffffffff1681525060019060016200006592919062000103565b50604051620038f3380380620038f383398181016040528101906200008b9190620001f1565b60016000819055503373ffffffffffffffffffffffffffffffffffffffff1660808173ffffffffffffffffffffffffffffffffffffffff1681525050806005819055506000600660016101000a81548160ff02191690836003811115620000f757620000f662000223565b5b02179055505062000252565b8280548282559060005260206000209081019282156200017f579160200282015b828111156200017e5782518260006101000a81548173ffffffffffffffffffffffffffffffffffffffff021916908373ffffffffffffffffffffffffffffffffffffffff1602179055509160200191906001019062000124565b5b5090506200018e919062000192565b5090565b5b80821115620001ad57600081600090555060010162000193565b5090565b600080fd5b6000819050919050565b620001cb81620001b6565b8114620001d757600080fd5b50565b600081519050620001eb81620001c0565b92915050565b6000602082840312156200020a5762000209620001b1565b5b60006200021a84828501620001da565b91505092915050565b7f4e487b7100000000000000000000000000000000000000000000000000000000600052602160045260246000fd5b6080516136776200027c600039600081816118a701528181612028015261219501526136776000f3fe6080604052600436106101145760003560e01c80637e887332116100a0578063b4a36fd711610064578063b4a36fd714610347578063cc45483f1461035e578063d38399ec14610389578063dfbf53ae146103b2578063ee9891f1146103dd57610114565b80637e887332146102905780638da5cb5b146102bb5780639651b183146102e657806397ecf90014610302578063a6c69ffe1461031e57610114565b80635d926148116100e75780635d926148146101c8578063607c9cea146101df5780636afedac51461020a5780637672ef7b1461023c5780637c54bafe1461025357610114565b80631798b2ae1461011957806330dda1c2146101425780633658957e1461016d5780633ccfd60b146101b1575b600080fd5b34801561012557600080fd5b50610140600480360381019061013b919061279f565b6103f9565b005b34801561014e57600080fd5b50610157610697565b60405161016491906127e5565b60405180910390f35b34801561017957600080fd5b50610194600480360381019061018f919061282c565b61069d565b6040516101a89897969594939291906128c4565b60405180910390f35b3480156101bd57600080fd5b506101c661074f565b005b3480156101d457600080fd5b506101dd610ebc565b005b3480156101eb57600080fd5b506101f46110ce565b60405161020191906127e5565b60405180910390f35b34801561021657600080fd5b5061021f6110d4565b604051610233989796959493929190612b47565b60405180910390f35b34801561024857600080fd5b50610251611737565b005b34801561025f57600080fd5b5061027a60048036038101906102759190612bf8565b61186e565b60405161028791906127e5565b60405180910390f35b34801561029c57600080fd5b506102a561189f565b6040516102b291906127e5565b60405180910390f35b3480156102c757600080fd5b506102d06118a5565b6040516102dd9190612c38565b60405180910390f35b61030060048036038101906102fb9190612c53565b6118c9565b005b61031c60048036038101906103179190612c93565b611b70565b005b34801561032a57600080fd5b5061034560048036038101906103409190612ce6565b611e22565b005b34801561035357600080fd5b5061035c611f87565b005b34801561036a57600080fd5b5061037361220f565b6040516103809190612d26565b60405180910390f35b34801561039557600080fd5b506103b060048036038101906103ab9190612e9a565b612222565b005b3480156103be57600080fd5b506103c761240b565b6040516103d49190612ee3565b60405180910390f35b6103f760048036038101906103f2919061282c565b61241e565b005b6000805b600180549050811015610497573373ffffffffffffffffffffffffffffffffffffffff166001828154811061043557610434612efe565b5b9060005260206000200160009054906101000a900473ffffffffffffffffffffffffffffffffffffffff1673ffffffffffffffffffffffffffffffffffffffff16036104845760019150610497565b808061048f90612f5c565b9150506103fd565b50806104d8576040517f08c379a00000000000000000000000000000000000000000000000000000000081526004016104cf90613001565b60405180910390fd5b6104e0612702565b60008260ff161180156104f6575060048260ff16105b6104ff57600080fd5b6000600381111561051357610512612ad0565b5b600660019054906101000a900460ff16600381111561053557610534612ad0565b5b036105cb57600042905061012c8161054d9190613021565b6003819055506001600660016101000a81548160ff0219169083600381111561057957610578612ad0565b5b021790555082600660006101000a81548160ff021916908360ff1602179055507fbbfddbd2a33e1c8d143e1f8b564451965d01678a70438b79b4900cd033c12a2760405160405180910390a15061068b565b600160038111156105df576105de612ad0565b5b600660019054906101000a900460ff16600381111561060157610600612ad0565b5b14801561060f575060035442115b61061857600080fd5b81600660006101000a81548160ff021916908360ff1602179055507fbbfddbd2a33e1c8d143e1f8b564451965d01678a70438b79b4900cd033c12a2760405160405180910390a16003600660016101000a81548160ff0219169083600381111561068557610684612ad0565b5b02179055505b610693612748565b5050565b60045481565b600881815481106106ad57600080fd5b90600052602060002090600702016000915090508060000160009054906101000a900473ffffffffffffffffffffffffffffffffffffffff16908060010154908060020160009054906101000a900473ffffffffffffffffffffffffffffffffffffffff16908060030154908060040154908060050160009054906101000a900460ff16908060050160019054906101000a900460ff16908060060154905088565b610757612702565b60038081111561076a57610769612ad0565b5b600660019054906101000a900460ff16600381111561078c5761078b612ad0565b5b14806107d85750600160038111156107a7576107a6612ad0565b5b600660019054906101000a900460ff1660038111156107c9576107c8612ad0565b5b1480156107d7575060035442115b5b610817576040517f08c379a000000000000000000000000000000000000000000000000000000000815260040161080e906130a1565b60405180910390fd5b6000600760003373ffffffffffffffffffffffffffffffffffffffff1673ffffffffffffffffffffffffffffffffffffffff168152602001908152602001600020905060008180549050116108a1576040517f08c379a00000000000000000000000000000000000000000000000000000000081526004016108989061310d565b60405180910390fd5b60008060006003600660009054906101000a900460ff1660ff1614905060005b8480549050811015610d165760008582815481106108e2576108e1612efe565b5b9060005260206000200154905060006008828154811061090557610904612efe565b5b906000526020600020906007020190508315610a08573373ffffffffffffffffffffffffffffffffffffffff168160020160009054906101000a900473ffffffffffffffffffffffffffffffffffffffff1673ffffffffffffffffffffffffffffffffffffffff160361098f578060030154866109829190613021565b9550600081600301819055505b3373ffffffffffffffffffffffffffffffffffffffff168160000160009054906101000a900473ffffffffffffffffffffffffffffffffffffffff1673ffffffffffffffffffffffffffffffffffffffff1603610a03578060010154866109f69190613021565b9550600081600101819055505b610d01565b60003373ffffffffffffffffffffffffffffffffffffffff168260000160009054906101000a900473ffffffffffffffffffffffffffffffffffffffff1673ffffffffffffffffffffffffffffffffffffffff16148015610ab857503373ffffffffffffffffffffffffffffffffffffffff168260020160009054906101000a900473ffffffffffffffffffffffffffffffffffffffff1673ffffffffffffffffffffffffffffffffffffffff16145b90508015610afa5781600301548260010154610ad49190613021565b87610adf9190613021565b96506000826001018190555060008260030181905550610cff565b3373ffffffffffffffffffffffffffffffffffffffff168260020160009054906101000a900473ffffffffffffffffffffffffffffffffffffffff1673ffffffffffffffffffffffffffffffffffffffff16148015610b7e5750600660009054906101000a900460ff1660ff168260050160009054906101000a900460ff1660ff16145b80610c0a57503373ffffffffffffffffffffffffffffffffffffffff168260000160009054906101000a900473ffffffffffffffffffffffffffffffffffffffff1673ffffffffffffffffffffffffffffffffffffffff16148015610c095750600660009054906101000a900460ff1660ff168260050160009054906101000a900460ff1660ff1614155b5b15610cfe57600082600101548360030154610c259190613021565b90508088610c339190613021565b97503373ffffffffffffffffffffffffffffffffffffffff168360020160009054906101000a900473ffffffffffffffffffffffffffffffffffffffff1673ffffffffffffffffffffffffffffffffffffffff16148015610cb95750600660009054906101000a900460ff1660ff168360050160009054906101000a900460ff1660ff16145b15610cd557826001015487610cce9190613021565b9650610ce8565b826003015487610ce59190613021565b96505b6000836003018190555060008360010181905550505b5b505b50508080610d0e90612f5c565b9150506108c1565b5080158015610d255750600082115b15610db557600061271061012c84610d3d919061312d565b610d47919061319e565b9050600061271060c885610d5b919061312d565b610d65919061319e565b90508160026000828254610d799190613021565b925050819055508060046000828254610d929190613021565b925050819055508181610da59190613021565b85610db091906131cf565b945050505b60008311610df8576040517f08c379a0000000000000000000000000000000000000000000000000000000008152600401610def9061324f565b60405180910390fd5b82471015610e3b576040517f08c379a0000000000000000000000000000000000000000000000000000000008152600401610e32906132bb565b60405180910390fd5b3373ffffffffffffffffffffffffffffffffffffffff166108fc849081150290604051600060405180830381858888f19350505050158015610e81573d6000803e3d6000fd5b507fc3038e585f1bbb89a9a4ed41eb9b8f65d3589d382434df15a354153177e39bbd60405160405180910390a150505050610eba612748565b565b6000805b600180549050811015610f5a573373ffffffffffffffffffffffffffffffffffffffff1660018281548110610ef857610ef7612efe565b5b9060005260206000200160009054906101000a900473ffffffffffffffffffffffffffffffffffffffff1673ffffffffffffffffffffffffffffffffffffffff1603610f475760019150610f5a565b8080610f5290612f5c565b915050610ec0565b5080610f9b576040517f08c379a0000000000000000000000000000000000000000000000000000000008152600401610f9290613001565b60405180910390fd5b610fa3612702565b60016003811115610fb757610fb6612ad0565b5b600660019054906101000a900460ff166003811115610fd957610fd8612ad0565b5b148015610fe7575060035442115b80611024575060038081111561100057610fff612ad0565b5b600660019054906101000a900460ff16600381111561102257611021612ad0565b5b145b611063576040517f08c379a000000000000000000000000000000000000000000000000000000000815260040161105a90613327565b60405180910390fd5b60006002541161107257600080fd5b3373ffffffffffffffffffffffffffffffffffffffff166108fc6002549081150290604051600060405180830381858888f193505050501580156110ba573d6000803e3d6000fd5b5060006002819055506110cb612748565b50565b60025481565b6060600080600080600080600080600090506000806000600760003373ffffffffffffffffffffffffffffffffffffffff1673ffffffffffffffffffffffffffffffffffffffff16815260200190815260200160002090506000806003600660009054906101000a900460ff1660ff16149050600080600660009054906101000a900460ff1660ff1614905060005b848054905081101561154457600085828154811061118457611183612efe565b5b906000526020600020015490506000600882815481106111a7576111a6612efe565b5b906000526020600020906007020190508361152f57841561129b573373ffffffffffffffffffffffffffffffffffffffff168160020160009054906101000a900473ffffffffffffffffffffffffffffffffffffffff1673ffffffffffffffffffffffffffffffffffffffff160361122c5780600301548a6112299190613021565b99505b3373ffffffffffffffffffffffffffffffffffffffff168160000160009054906101000a900473ffffffffffffffffffffffffffffffffffffffff1673ffffffffffffffffffffffffffffffffffffffff16036112965780600101548a6112939190613021565b99505b61152e565b3373ffffffffffffffffffffffffffffffffffffffff168160000160009054906101000a900473ffffffffffffffffffffffffffffffffffffffff1673ffffffffffffffffffffffffffffffffffffffff1614801561134957503373ffffffffffffffffffffffffffffffffffffffff168160020160009054906101000a900473ffffffffffffffffffffffffffffffffffffffff1673ffffffffffffffffffffffffffffffffffffffff16145b1561137457806003015481600101546113629190613021565b8a61136d9190613021565b995061152d565b3373ffffffffffffffffffffffffffffffffffffffff168160020160009054906101000a900473ffffffffffffffffffffffffffffffffffffffff1673ffffffffffffffffffffffffffffffffffffffff161480156113f85750600660009054906101000a900460ff1660ff168160050160009054906101000a900460ff1660ff16145b8061148457503373ffffffffffffffffffffffffffffffffffffffff168160000160009054906101000a900473ffffffffffffffffffffffffffffffffffffffff1673ffffffffffffffffffffffffffffffffffffffff161480156114835750600660009054906101000a900460ff1660ff168160050160009054906101000a900460ff1660ff1614155b5b1561152c578060010154816003015461149d9190613021565b8a6114a89190613021565b99503373ffffffffffffffffffffffffffffffffffffffff168160020160009054906101000a900473ffffffffffffffffffffffffffffffffffffffff1673ffffffffffffffffffffffffffffffffffffffff1603611518578060010154866115119190613021565b955061152b565b8060030154866115289190613021565b95505b5b5b5b5b5050808061153c90612f5c565b915050611163565b50811580156115535750600083115b156115855760006064600585611569919061312d565b611573919061319e565b9050808861158191906131cf565b9750505b6008600554600660009054906101000a900460ff16600660019054906101000a900460ff166003548b8b8b87805480602002602001604051908101604052809291908181526020016000905b828210156117105783829060005260206000209060070201604051806101000160405290816000820160009054906101000a900473ffffffffffffffffffffffffffffffffffffffff1673ffffffffffffffffffffffffffffffffffffffff1673ffffffffffffffffffffffffffffffffffffffff168152602001600182015481526020016002820160009054906101000a900473ffffffffffffffffffffffffffffffffffffffff1673ffffffffffffffffffffffffffffffffffffffff1673ffffffffffffffffffffffffffffffffffffffff16815260200160038201548152602001600482015481526020016005820160009054906101000a900460ff1660ff1660ff1681526020016005820160019054906101000a900460ff16151515158152602001600682015481525050815260200190600101906115d1565b5050505097509e509e509e509e509e509e509e509e50505050505050509091929394959697565b61173f612702565b6001600381111561175357611752612ad0565b5b600660019054906101000a900460ff16600381111561177557611774612ad0565b5b148015611783575060035442105b806117ce57506000600381111561179d5761179c612ad0565b5b600660019054906101000a900460ff1660038111156117bf576117be612ad0565b5b1480156117cd575060055442115b5b61180d576040517f08c379a000000000000000000000000000000000000000000000000000000000815260040161180490613327565b60405180910390fd5b6002600660016101000a81548160ff0219169083600381111561183357611832612ad0565b5b02179055507f325941a5b65623f14f777a10c4ee68b69cec6214a44a48c1bb1c4991314755c060405160405180910390a161186c612748565b565b6007602052816000526040600020818154811061188a57600080fd5b90600052602060002001600091509150505481565b60035481565b7f000000000000000000000000000000000000000000000000000000000000000081565b6118d1612702565b60008160ff161180156118e8575060028160ff1611155b6118f157600080fd5b6000600381111561190557611904612ad0565b5b600660019054906101000a900460ff16600381111561192757611926612ad0565b5b1461193157600080fd5b60006040518061010001604052803373ffffffffffffffffffffffffffffffffffffffff1681526020013481526020013373ffffffffffffffffffffffffffffffffffffffff168152602001600081526020018481526020018360ff1681526020016001151581526020016008805490508152509050600760003373ffffffffffffffffffffffffffffffffffffffff1673ffffffffffffffffffffffffffffffffffffffff1681526020019081526020016000206008805490509080600181540180825580915050600190039060005260206000200160009091909190915055600881908060018154018082558091505060019003906000526020600020906007020160009091909190915060008201518160000160006101000a81548173ffffffffffffffffffffffffffffffffffffffff021916908373ffffffffffffffffffffffffffffffffffffffff1602179055506020820151816001015560408201518160020160006101000a81548173ffffffffffffffffffffffffffffffffffffffff021916908373ffffffffffffffffffffffffffffffffffffffff160217905550606082015181600301556080820151816004015560a08201518160050160006101000a81548160ff021916908360ff16021790555060c08201518160050160016101000a81548160ff02191690831515021790555060e0820151816006015550507f9f9060b2035b3d98df4f62b3bbd9de8d98a49465ddcdd11c92f63c956df0442b60405160405180910390a150611b6c612748565b5050565b611b78612702565b600060088481548110611b8e57611b8d612efe565b5b906000526020600020906007020190503373ffffffffffffffffffffffffffffffffffffffff168160020160009054906101000a900473ffffffffffffffffffffffffffffffffffffffff1673ffffffffffffffffffffffffffffffffffffffff16148015611c4c57503373ffffffffffffffffffffffffffffffffffffffff168160000160009054906101000a900473ffffffffffffffffffffffffffffffffffffffff1673ffffffffffffffffffffffffffffffffffffffff16145b611c8b576040517f08c379a0000000000000000000000000000000000000000000000000000000008152600401611c82906133b9565b60405180910390fd5b600081600101549050808414611daa5780841015611d4c5760008482611cb191906131cf565b905080471015611cf6576040517f08c379a0000000000000000000000000000000000000000000000000000000008152600401611ced9061344b565b60405180910390fd5b8483600101819055503373ffffffffffffffffffffffffffffffffffffffff166108fc829081150290604051600060405180830381858888f19350505050158015611d45573d6000803e3d6000fd5b5050611da9565b60008185611d5a91906131cf565b9050803414611d9e576040517f08c379a0000000000000000000000000000000000000000000000000000000008152600401611d95906134b7565b60405180910390fd5b848360010181905550505b5b8282600401819055508160050160019054906101000a900460ff16611de75760018260050160016101000a81548160ff0219169083151502179055505b7ff75e56f787976a19558bde97657a643e88c61a76b39e41f3a06a120defa30d6160405160405180910390a15050611e1d612748565b505050565b611e2a612702565b60006003811115611e3e57611e3d612ad0565b5b600660019054906101000a900460ff166003811115611e6057611e5f612ad0565b5b14611e6a57600080fd5b3373ffffffffffffffffffffffffffffffffffffffff1660088381548110611e9557611e94612efe565b5b906000526020600020906007020160020160009054906101000a900473ffffffffffffffffffffffffffffffffffffffff1673ffffffffffffffffffffffffffffffffffffffff1614611ee757600080fd5b8060088381548110611efc57611efb612efe565b5b906000526020600020906007020160040181905550600160088381548110611f2757611f26612efe565b5b906000526020600020906007020160050160016101000a81548160ff0219169083151502179055507f50c7c110b9cabc516cf0aef475d15558b239d0490f0389129f4e6b4c378dfa3d60405160405180910390a1611f83612748565b5050565b6000805b600180549050811015612025573373ffffffffffffffffffffffffffffffffffffffff1660018281548110611fc357611fc2612efe565b5b9060005260206000200160009054906101000a900473ffffffffffffffffffffffffffffffffffffffff1673ffffffffffffffffffffffffffffffffffffffff16036120125760019150612025565b808061201d90612f5c565b915050611f8b565b507f000000000000000000000000000000000000000000000000000000000000000073ffffffffffffffffffffffffffffffffffffffff163373ffffffffffffffffffffffffffffffffffffffff16148061207d5750805b6120bc576040517f08c379a00000000000000000000000000000000000000000000000000000000081526004016120b390613549565b60405180910390fd5b6120c4612702565b600160038111156120d8576120d7612ad0565b5b600660019054906101000a900460ff1660038111156120fa576120f9612ad0565b5b148015612108575060035442115b80612145575060038081111561212157612120612ad0565b5b600660019054906101000a900460ff16600381111561214357612142612ad0565b5b145b612184576040517f08c379a000000000000000000000000000000000000000000000000000000000815260040161217b90613327565b60405180910390fd5b60006004541161219357600080fd5b7f000000000000000000000000000000000000000000000000000000000000000073ffffffffffffffffffffffffffffffffffffffff166108fc6004549081150290604051600060405180830381858888f193505050501580156121fb573d6000803e3d6000fd5b50600060048190555061220c612748565b50565b600660019054906101000a900460ff1681565b61222a612702565b60005b81518110156123d357600082828151811061224b5761224a612efe565b5b602002602001015190503373ffffffffffffffffffffffffffffffffffffffff16600882815481106122805761227f612efe565b5b906000526020600020906007020160020160009054906101000a900473ffffffffffffffffffffffffffffffffffffffff1673ffffffffffffffffffffffffffffffffffffffff1614612308576040517f08c379a00000000000000000000000000000000000000000000000000000000081526004016122ff906135b5565b60405180910390fd5b60011515600882815481106123205761231f612efe565b5b906000526020600020906007020160050160019054906101000a900460ff16151514612381576040517f08c379a000000000000000000000000000000000000000000000000000000000815260040161237890613621565b60405180910390fd5b60006008828154811061239757612396612efe565b5b906000526020600020906007020160050160016101000a81548160ff0219169083151502179055505080806123cb90612f5c565b91505061222d565b507f1e5a109a2c5190a6567f1b2386d95213f70c40047a7d1f2fb64e5974c9a0043a60405160405180910390a1612408612748565b50565b600660009054906101000a900460ff1681565b612426612702565b6000600381111561243a57612439612ad0565b5b600660019054906101000a900460ff16600381111561245c5761245b612ad0565b5b1461246657600080fd5b6008818154811061247a57612479612efe565b5b906000526020600020906007020160040154341461249757600080fd5b60011515600882815481106124af576124ae612efe565b5b906000526020600020906007020160050160019054906101000a900460ff161515146124da57600080fd5b6000600882815481106124f0576124ef612efe565b5b9060005260206000209060070201600301540361253657346008828154811061251c5761251b612efe565b5b9060005260206000209060070201600301819055506125c3565b6008818154811061254a57612549612efe565b5b906000526020600020906007020160020160009054906101000a900473ffffffffffffffffffffffffffffffffffffffff1673ffffffffffffffffffffffffffffffffffffffff166108fc349081150290604051600060405180830381858888f193505050501580156125c1573d6000803e3d6000fd5b505b600760003373ffffffffffffffffffffffffffffffffffffffff1673ffffffffffffffffffffffffffffffffffffffff168152602001908152602001600020819080600181540180825580915050600190039060005260206000200160009091909190915055336008828154811061263e5761263d612efe565b5b906000526020600020906007020160020160006101000a81548173ffffffffffffffffffffffffffffffffffffffff021916908373ffffffffffffffffffffffffffffffffffffffff1602179055506000600882815481106126a3576126a2612efe565b5b906000526020600020906007020160050160016101000a81548160ff0219169083151502179055507f34825dc172bd596324998d16543dc86015d6a6dd51a29758081d1f535c18b59d60405160405180910390a16126ff612748565b50565b60026000540361273e576040517f3ee5aeb500000000000000000000000000000000000000000000000000000000815260040160405180910390fd5b6002600081905550565b6001600081905550565b6000604051905090565b600080fd5b600080fd5b600060ff82169050919050565b61277c81612766565b811461278757600080fd5b50565b60008135905061279981612773565b92915050565b6000602082840312156127b5576127b461275c565b5b60006127c38482850161278a565b91505092915050565b6000819050919050565b6127df816127cc565b82525050565b60006020820190506127fa60008301846127d6565b92915050565b612809816127cc565b811461281457600080fd5b50565b60008135905061282681612800565b92915050565b6000602082840312156128425761284161275c565b5b600061285084828501612817565b91505092915050565b600073ffffffffffffffffffffffffffffffffffffffff82169050919050565b600061288482612859565b9050919050565b61289481612879565b82525050565b6128a381612766565b82525050565b60008115159050919050565b6128be816128a9565b82525050565b6000610100820190506128da600083018b61288b565b6128e7602083018a6127d6565b6128f4604083018961288b565b61290160608301886127d6565b61290e60808301876127d6565b61291b60a083018661289a565b61292860c08301856128b5565b61293560e08301846127d6565b9998505050505050505050565b600081519050919050565b600082825260208201905092915050565b6000819050602082019050919050565b61297781612879565b82525050565b612986816127cc565b82525050565b61299581612766565b82525050565b6129a4816128a9565b82525050565b610100820160008201516129c1600085018261296e565b5060208201516129d4602085018261297d565b5060408201516129e7604085018261296e565b5060608201516129fa606085018261297d565b506080820151612a0d608085018261297d565b5060a0820151612a2060a085018261298c565b5060c0820151612a3360c085018261299b565b5060e0820151612a4660e085018261297d565b50505050565b6000612a5883836129aa565b6101008301905092915050565b6000602082019050919050565b6000612a7d82612942565b612a87818561294d565b9350612a928361295e565b8060005b83811015612ac3578151612aaa8882612a4c565b9750612ab583612a65565b925050600181019050612a96565b5085935050505092915050565b7f4e487b7100000000000000000000000000000000000000000000000000000000600052602160045260246000fd5b60048110612b1057612b0f612ad0565b5b50565b6000819050612b2182612aff565b919050565b6000612b3182612b13565b9050919050565b612b4181612b26565b82525050565b6000610100820190508181036000830152612b62818b612a72565b9050612b71602083018a6127d6565b612b7e604083018961289a565b612b8b6060830188612b38565b612b9860808301876127d6565b612ba560a08301866127d6565b612bb260c08301856127d6565b612bbf60e08301846127d6565b9998505050505050505050565b612bd581612879565b8114612be057600080fd5b50565b600081359050612bf281612bcc565b92915050565b60008060408385031215612c0f57612c0e61275c565b5b6000612c1d85828601612be3565b9250506020612c2e85828601612817565b9150509250929050565b6000602082019050612c4d600083018461288b565b92915050565b60008060408385031215612c6a57612c6961275c565b5b6000612c7885828601612817565b9250506020612c898582860161278a565b9150509250929050565b600080600060608486031215612cac57612cab61275c565b5b6000612cba86828701612817565b9350506020612ccb86828701612817565b9250506040612cdc86828701612817565b9150509250925092565b60008060408385031215612cfd57612cfc61275c565b5b6000612d0b85828601612817565b9250506020612d1c85828601612817565b9150509250929050565b6000602082019050612d3b6000830184612b38565b92915050565b600080fd5b6000601f19601f8301169050919050565b7f4e487b7100000000000000000000000000000000000000000000000000000000600052604160045260246000fd5b612d8f82612d46565b810181811067ffffffffffffffff82111715612dae57612dad612d57565b5b80604052505050565b6000612dc1612752565b9050612dcd8282612d86565b919050565b600067ffffffffffffffff821115612ded57612dec612d57565b5b602082029050602081019050919050565b600080fd5b6000612e16612e1184612dd2565b612db7565b90508083825260208201905060208402830185811115612e3957612e38612dfe565b5b835b81811015612e625780612e4e8882612817565b845260208401935050602081019050612e3b565b5050509392505050565b600082601f830112612e8157612e80612d41565b5b8135612e91848260208601612e03565b91505092915050565b600060208284031215612eb057612eaf61275c565b5b600082013567ffffffffffffffff811115612ece57612ecd612761565b5b612eda84828501612e6c565b91505092915050565b6000602082019050612ef8600083018461289a565b92915050565b7f4e487b7100000000000000000000000000000000000000000000000000000000600052603260045260246000fd5b7f4e487b7100000000000000000000000000000000000000000000000000000000600052601160045260246000fd5b6000612f67826127cc565b91507fffffffffffffffffffffffffffffffffffffffffffffffffffffffffffffffff8203612f9957612f98612f2d565b5b600182019050919050565b600082825260208201905092915050565b7f43616c6c6572206973206e6f742061207374616666206d656d62657200000000600082015250565b6000612feb601c83612fa4565b9150612ff682612fb5565b602082019050919050565b6000602082019050818103600083015261301a81612fde565b9050919050565b600061302c826127cc565b9150613037836127cc565b925082820190508082111561304f5761304e612f2d565b5b92915050565b7f43616e6e6f7420776974686472617720617420746869732074696d6500000000600082015250565b600061308b601c83612fa4565b915061309682613055565b602082019050919050565b600060208201905081810360008301526130ba8161307e565b9050919050565b7f4e6f206265747320666f756e6420666f72207573657200000000000000000000600082015250565b60006130f7601683612fa4565b9150613102826130c1565b602082019050919050565b60006020820190508181036000830152613126816130ea565b9050919050565b6000613138826127cc565b9150613143836127cc565b9250828202613151816127cc565b9150828204841483151761316857613167612f2d565b5b5092915050565b7f4e487b7100000000000000000000000000000000000000000000000000000000600052601260045260246000fd5b60006131a9826127cc565b91506131b4836127cc565b9250826131c4576131c361316f565b5b828204905092915050565b60006131da826127cc565b91506131e5836127cc565b92508282039050818111156131fd576131fc612f2d565b5b92915050565b7f4e6f2062616c616e636520746f20776974686472617700000000000000000000600082015250565b6000613239601683612fa4565b915061324482613203565b602082019050919050565b600060208201905081810360008301526132688161322c565b9050919050565b7f496e73756666696369656e7420636f6e74726163742062616c616e6365000000600082015250565b60006132a5601d83612fa4565b91506132b08261326f565b602082019050919050565b600060208201905081810360008301526132d481613298565b9050919050565b7f496e76616c6964207374617465206f722074696d650000000000000000000000600082015250565b6000613311601583612fa4565b915061331c826132db565b602082019050919050565b6000602082019050818103600083015261334081613304565b9050919050565b7f4f6e6c7920746865206465706c6f7965722077686f20697320616c736f20746860008201527f65206f776e65722063616e206564697420746869732062657400000000000000602082015250565b60006133a3603983612fa4565b91506133ae82613347565b604082019050919050565b600060208201905081810360008301526133d281613396565b9050919050565b7f496e73756666696369656e7420636f6e74726163742066756e647320666f722060008201527f726566756e640000000000000000000000000000000000000000000000000000602082015250565b6000613435602683612fa4565b9150613440826133d9565b604082019050919050565b6000602082019050818103600083015261346481613428565b9050919050565b7f496e636f7272656374206164646974696f6e616c2066756e64732073656e7400600082015250565b60006134a1601f83612fa4565b91506134ac8261346b565b602082019050919050565b600060208201905081810360008301526134d081613494565b9050919050565b7f43616c6c6572206973206e6f7420746865206f776e6572206f7220612073746160008201527f6666206d656d6265720000000000000000000000000000000000000000000000602082015250565b6000613533602983612fa4565b915061353e826134d7565b604082019050919050565b6000602082019050818103600083015261356281613526565b9050919050565b7f43616c6c6572206973206e6f7420746865206f776e6572000000000000000000600082015250565b600061359f601783612fa4565b91506135aa82613569565b602082019050919050565b600060208201905081810360008301526135ce81613592565b9050919050565b7f426574206973206e6f7420666f722073616c6500000000000000000000000000600082015250565b600061360b601383612fa4565b9150613616826135d5565b602082019050919050565b6000602082019050818103600083015261363a816135fe565b905091905056fea2646970667358221220eb75a5e1501f2a11bcf5a70aad5b401bf020d50e6ec705810e6cd8abc7c48cfd64736f6c63430008140033",
  "linkReferences": {},
  "deployedLinkReferences": {}
}