{
  "_format": "hh-sol-artifact-1",
  "contractName": "predMarket",
  "sourceName": "contracts/Lock.sol",
  "abi": [
    {
      "inputs": [
        {
          "internalType": "uint256",
          "name": "timeToEnd",
          "type": "uint256"
        },
        {
          "internalType": "uint256",
          "name": "_odds1",
          "type": "uint256"
        },
        {
          "internalType": "uint256",
          "name": "_odds2",
          "type": "uint256"
        }
      ],
      "stateMutability": "nonpayable",
      "type": "constructor"
    },
    {
      "inputs": [
        {
          "internalType": "string",
          "name": "betAorB",
          "type": "string"
        }
      ],
      "name": "didNotBet",
      "type": "error"
    },
    {
      "inputs": [],
      "name": "BetA",
      "outputs": [
        {
          "internalType": "uint256",
          "name": "",
          "type": "uint256"
        }
      ],
      "stateMutability": "view",
      "type": "function"
    },
    {
      "inputs": [],
      "name": "BetB",
      "outputs": [
        {
          "internalType": "uint256",
          "name": "",
          "type": "uint256"
        }
      ],
      "stateMutability": "view",
      "type": "function"
    },
    {
      "inputs": [
        {
          "internalType": "uint256",
          "name": "",
          "type": "uint256"
        }
      ],
      "name": "arrayOfBettersA",
      "outputs": [
        {
          "internalType": "address payable",
          "name": "bettor",
          "type": "address"
        },
        {
          "internalType": "uint256",
          "name": "amount",
          "type": "uint256"
        }
      ],
      "stateMutability": "view",
      "type": "function"
    },
    {
      "inputs": [
        {
          "internalType": "uint256",
          "name": "",
          "type": "uint256"
        }
      ],
      "name": "arrayOfBettersB",
      "outputs": [
        {
          "internalType": "address payable",
          "name": "bettor",
          "type": "address"
        },
        {
          "internalType": "uint256",
          "name": "amount",
          "type": "uint256"
        }
      ],
      "stateMutability": "view",
      "type": "function"
    },
    {
      "inputs": [],
      "name": "assignEveryoneAmount",
      "outputs": [],
      "stateMutability": "nonpayable",
      "type": "function"
    },
    {
      "inputs": [],
      "name": "betOnBetA",
      "outputs": [
        {
          "internalType": "uint256",
          "name": "",
          "type": "uint256"
        }
      ],
      "stateMutability": "payable",
      "type": "function"
    },
    {
      "inputs": [],
      "name": "betOnBetB",
      "outputs": [
        {
          "internalType": "uint256",
          "name": "",
          "type": "uint256"
        }
      ],
      "stateMutability": "payable",
      "type": "function"
    },
    {
      "inputs": [],
      "name": "betterInfo",
      "outputs": [
        {
          "components": [
            {
              "internalType": "address payable",
              "name": "bettor",
              "type": "address"
            },
            {
              "internalType": "uint256",
              "name": "amount",
              "type": "uint256"
            },
            {
              "internalType": "uint256[2]",
              "name": "odds",
              "type": "uint256[2]"
            }
          ],
          "internalType": "struct predMarket.better",
          "name": "",
          "type": "tuple"
        },
        {
          "components": [
            {
              "internalType": "address payable",
              "name": "bettor",
              "type": "address"
            },
            {
              "internalType": "uint256",
              "name": "amount",
              "type": "uint256"
            },
            {
              "internalType": "uint256[2]",
              "name": "odds",
              "type": "uint256[2]"
            }
          ],
          "internalType": "struct predMarket.better",
          "name": "",
          "type": "tuple"
        }
      ],
      "stateMutability": "view",
      "type": "function"
    },
    {
      "inputs": [],
      "name": "disagree",
      "outputs": [
        {
          "internalType": "uint8",
          "name": "",
          "type": "uint8"
        }
      ],
      "stateMutability": "view",
      "type": "function"
    },
    {
      "inputs": [
        {
          "internalType": "uint8",
          "name": "wlc",
          "type": "uint8"
        }
      ],
      "name": "endBet",
      "outputs": [],
      "stateMutability": "nonpayable",
      "type": "function"
    },
    {
      "inputs": [],
      "name": "endTime",
      "outputs": [
        {
          "internalType": "uint256",
          "name": "",
          "type": "uint256"
        }
      ],
      "stateMutability": "view",
      "type": "function"
    },
    {
      "inputs": [],
      "name": "getBalance",
      "outputs": [
        {
          "internalType": "uint256",
          "name": "",
          "type": "uint256"
        }
      ],
      "stateMutability": "view",
      "type": "function"
    },
    {
      "inputs": [],
      "name": "getRaffleState",
      "outputs": [
        {
          "internalType": "enum predMarket.RaffleState",
          "name": "",
          "type": "uint8"
        }
      ],
      "stateMutability": "view",
      "type": "function"
    },
    {
      "inputs": [],
      "name": "isOwner",
      "outputs": [
        {
          "internalType": "bool",
          "name": "",
          "type": "bool"
        }
      ],
      "stateMutability": "view",
      "type": "function"
    },
    {
      "inputs": [
        {
          "internalType": "uint256",
          "name": "",
          "type": "uint256"
        }
      ],
      "name": "oddsBetA",
      "outputs": [
        {
          "internalType": "uint256",
          "name": "",
          "type": "uint256"
        }
      ],
      "stateMutability": "view",
      "type": "function"
    },
    {
      "inputs": [
        {
          "internalType": "uint256",
          "name": "",
          "type": "uint256"
        }
      ],
      "name": "oddsBetB",
      "outputs": [
        {
          "internalType": "uint256",
          "name": "",
          "type": "uint256"
        }
      ],
      "stateMutability": "view",
      "type": "function"
    },
    {
      "inputs": [
        {
          "internalType": "uint256",
          "name": "reduction",
          "type": "uint256"
        }
      ],
      "name": "reduceBetA",
      "outputs": [],
      "stateMutability": "nonpayable",
      "type": "function"
    },
    {
      "inputs": [
        {
          "internalType": "uint256",
          "name": "reduction",
          "type": "uint256"
        }
      ],
      "name": "reduceBetB",
      "outputs": [],
      "stateMutability": "nonpayable",
      "type": "function"
    },
    {
      "inputs": [],
      "name": "startTime",
      "outputs": [
        {
          "internalType": "uint256",
          "name": "",
          "type": "uint256"
        }
      ],
      "stateMutability": "view",
      "type": "function"
    },
    {
      "inputs": [],
      "name": "viewPots",
      "outputs": [
        {
          "internalType": "uint256",
          "name": "",
          "type": "uint256"
        },
        {
          "internalType": "uint256",
          "name": "",
          "type": "uint256"
        }
      ],
      "stateMutability": "view",
      "type": "function"
    },
    {
      "inputs": [],
      "name": "voteDisagree",
      "outputs": [],
      "stateMutability": "nonpayable",
      "type": "function"
    },
    {
      "inputs": [],
      "name": "voteTime",
      "outputs": [
        {
          "internalType": "uint256",
          "name": "",
          "type": "uint256"
        }
      ],
      "stateMutability": "view",
      "type": "function"
    },
    {
      "inputs": [
        {
          "internalType": "uint256",
          "name": "potentialBet",
          "type": "uint256"
        }
      ],
      "name": "winLossBetA",
      "outputs": [
        {
          "internalType": "uint256",
          "name": "",
          "type": "uint256"
        },
        {
          "internalType": "uint256",
          "name": "",
          "type": "uint256"
        },
        {
          "internalType": "uint256",
          "name": "",
          "type": "uint256"
        }
      ],
      "stateMutability": "view",
      "type": "function"
    },
    {
      "inputs": [
        {
          "internalType": "uint256",
          "name": "potentialBet",
          "type": "uint256"
        }
      ],
      "name": "winLossBetB",
      "outputs": [
        {
          "internalType": "uint256",
          "name": "",
          "type": "uint256"
        },
        {
          "internalType": "uint256",
          "name": "",
          "type": "uint256"
        },
        {
          "internalType": "uint256",
          "name": "",
          "type": "uint256"
        }
      ],
      "stateMutability": "view",
      "type": "function"
    },
    {
      "inputs": [],
      "name": "winner",
      "outputs": [
        {
          "internalType": "uint8",
          "name": "",
          "type": "uint8"
        }
      ],
      "stateMutability": "view",
      "type": "function"
    },
    {
      "inputs": [],
      "name": "withdrawA",
      "outputs": [],
      "stateMutability": "nonpayable",
      "type": "function"
    },
    {
      "inputs": [],
      "name": "withdrawB",
      "outputs": [],
      "stateMutability": "nonpayable",
      "type": "function"
    }
  ],
  "bytecode": "0x60a06040526000805560006001553480156200001a57600080fd5b50604051620037cb380380620037cb833981810160405281019062000040919062000180565b6000600260006101000a81548160ff02191690836004811115620000695762000068620001dc565b5b021790555042600481905550826004546200008591906200023a565b6003819055503373ffffffffffffffffffffffffffffffffffffffff1660808173ffffffffffffffffffffffffffffffffffffffff1681525050816007600060028110620000d857620000d762000275565b5b0181905550806007600160028110620000f657620000f562000275565b5b018190555080600960006002811062000114576200011362000275565b5b018190555081600960016002811062000132576200013162000275565b5b0181905550505050620002a4565b600080fd5b6000819050919050565b6200015a8162000145565b81146200016657600080fd5b50565b6000815190506200017a816200014f565b92915050565b6000806000606084860312156200019c576200019b62000140565b5b6000620001ac8682870162000169565b9350506020620001bf8682870162000169565b9250506040620001d28682870162000169565b9150509250925092565b7f4e487b7100000000000000000000000000000000000000000000000000000000600052602160045260246000fd5b7f4e487b7100000000000000000000000000000000000000000000000000000000600052601160045260246000fd5b6000620002478262000145565b9150620002548362000145565b92508282019050808211156200026f576200026e6200020b565b5b92915050565b7f4e487b7100000000000000000000000000000000000000000000000000000000600052603260045260246000fd5b6080516134fd620002ce600039600081816111b4015281816113c2015261274201526134fd6000f3fe60806040526004361061019c5760003560e01c806378e97925116100ec578063c2b464681161008a578063d885bf1011610064578063d885bf101461055c578063dfbf53ae1461059b578063e405c6c7146105c6578063ec7690bf146106055761019c565b8063c2b46468146104f1578063cd3c6c261461051a578063cf8fc31d146105315761019c565b80638f32d59b116100c65780638f32d59b14610435578063969ef62f146104605780639c43196714610489578063bcf93dd6146104c65761019c565b806378e97925146103b557806380687017146103e057806385b4ae43146103f75761019c565b80632b1bd36d1161015957806368e0b9f11161013357806368e0b9f11461032a5780636d3d0a8f146103485780637549487c14610373578063772b5f081461038a5761019c565b80632b1bd36d14610296578063312d42bf146102d35780633197cbb6146102ff5761019c565b8063073f106a146101a15780630eaa23ae146101cd57806310282b2b1461020b578063115cbaf51461022257806312065fe01461024d5780631628f2ea14610278575b600080fd5b3480156101ad57600080fd5b506101b661062e565b6040516101c4929190612d78565b60405180910390f35b3480156101d957600080fd5b506101f460048036038101906101ef9190612dd3565b610976565b604051610202929190612e1e565b60405180910390f35b34801561021757600080fd5b506102206109ca565b005b34801561022e57600080fd5b50610237610a88565b6040516102449190612ebe565b60405180910390f35b34801561025957600080fd5b50610262610a9f565b60405161026f9190612ed9565b60405180910390f35b610280610aa7565b60405161028d9190612ed9565b60405180910390f35b3480156102a257600080fd5b506102bd60048036038101906102b89190612dd3565b610d0c565b6040516102ca9190612ed9565b60405180910390f35b3480156102df57600080fd5b506102e8610d27565b6040516102f6929190612ef4565b60405180910390f35b34801561030b57600080fd5b50610314610d38565b6040516103219190612ed9565b60405180910390f35b610332610d3e565b60405161033f9190612ed9565b60405180910390f35b34801561035457600080fd5b5061035d610fa5565b60405161036a9190612f39565b60405180910390f35b34801561037f57600080fd5b50610388610fb8565b005b34801561039657600080fd5b5061039f6111a6565b6040516103ac9190612ed9565b60405180910390f35b3480156103c157600080fd5b506103ca6111ac565b6040516103d79190612ed9565b60405180910390f35b3480156103ec57600080fd5b506103f56111b2565b005b34801561040357600080fd5b5061041e60048036038101906104199190612dd3565b61136a565b60405161042c929190612e1e565b60405180910390f35b34801561044157600080fd5b5061044a6113be565b6040516104579190612f6f565b60405180910390f35b34801561046c57600080fd5b5061048760048036038101906104829190612dd3565b611424565b005b34801561049557600080fd5b506104b060048036038101906104ab9190612dd3565b6116d3565b6040516104bd9190612ed9565b60405180910390f35b3480156104d257600080fd5b506104db6116ee565b6040516104e89190612ed9565b60405180910390f35b3480156104fd57600080fd5b5061051860048036038101906105139190612dd3565b6116f4565b005b34801561052657600080fd5b5061052f6119a4565b005b34801561053d57600080fd5b50610546611bd2565b6040516105539190612ed9565b60405180910390f35b34801561056857600080fd5b50610583600480360381019061057e9190612dd3565b611bd8565b60405161059293929190612f8a565b60405180910390f35b3480156105a757600080fd5b506105b0612182565b6040516105bd9190612f39565b60405180910390f35b3480156105d257600080fd5b506105ed60048036038101906105e89190612dd3565b612195565b6040516105fc93929190612f8a565b60405180910390f35b34801561061157600080fd5b5061062c60048036038101906106279190612fed565b612740565b005b610636612b84565b61063e612b84565b610646612b84565b6000806000839050600084905060005b600b805490508110156107cb57600b81815481106106775761067661301a565b5b906000526020600020906004020160000160009054906101000a900473ffffffffffffffffffffffffffffffffffffffff1673ffffffffffffffffffffffffffffffffffffffff163373ffffffffffffffffffffffffffffffffffffffff16036107b857600b81815481106106ef576106ee61301a565b5b90600052602060002090600402016040518060600160405290816000820160009054906101000a900473ffffffffffffffffffffffffffffffffffffffff1673ffffffffffffffffffffffffffffffffffffffff1673ffffffffffffffffffffffffffffffffffffffff16815260200160018201548152602001600282016002806020026040519081016040528092919082600280156107a4576020028201915b815481526020019060010190808311610790575b5050505050815250509250600194506107cb565b80806107c390613078565b915050610656565b5060005b600c8054905081101561094457600c81815481106107f0576107ef61301a565b5b906000526020600020906004020160000160009054906101000a900473ffffffffffffffffffffffffffffffffffffffff1673ffffffffffffffffffffffffffffffffffffffff163373ffffffffffffffffffffffffffffffffffffffff160361093157600c81815481106108685761086761301a565b5b90600052602060002090600402016040518060600160405290816000820160009054906101000a900473ffffffffffffffffffffffffffffffffffffffff1673ffffffffffffffffffffffffffffffffffffffff1673ffffffffffffffffffffffffffffffffffffffff168152602001600182015481526020016002820160028060200260405190810160405280929190826002801561091d576020028201915b815481526020019060010190808311610909575b505050505081525050915060019350610944565b808061093c90613078565b9150506107cf565b5083158015610951575082155b15610966578485965096505050505050610972565b81819650965050505050505b9091565b600c818154811061098657600080fd5b90600052602060002090600402016000915090508060000160009054906101000a900473ffffffffffffffffffffffffffffffffffffffff16908060010154905082565b600160048111156109de576109dd612e47565b5b600260009054906101000a900460ff166004811115610a00576109ff612e47565b5b14610a0a57600080fd5b6001600660018282829054906101000a900460ff16610a2991906130c0565b92506101000a81548160ff021916908360ff1602179055506005600660019054906101000a900460ff1660ff1610610a865760028060006101000a81548160ff02191690836004811115610a8057610a7f612e47565b5b02179055505b565b6000600260009054906101000a900460ff16905090565b600047905090565b6000806004811115610abc57610abb612e47565b5b600260009054906101000a900460ff166004811115610ade57610add612e47565b5b14610ae857600080fd5b60005b600b80549050811015610be1573373ffffffffffffffffffffffffffffffffffffffff16600b8281548110610b2357610b2261301a565b5b906000526020600020906004020160000160009054906101000a900473ffffffffffffffffffffffffffffffffffffffff1673ffffffffffffffffffffffffffffffffffffffff1603610bce5734600b8281548110610b8557610b8461301a565b5b90600052602060002090600402016001016000828254610ba591906130f5565b9250508190555034600080828254610bbd91906130f5565b925050819055506000915050610d09565b8080610bd990613078565b915050610aeb565b600060405180606001604052803373ffffffffffffffffffffffffffffffffffffffff1681526020013481526020016007600280602002604051908101604052809291908260028015610c49576020028201915b815481526020019060010190808311610c35575b5050505050815250905034600080828254610c6491906130f5565b92505081905550600b81908060018154018082558091505060019003906000526020600020906004020160009091909190915060008201518160000160006101000a81548173ffffffffffffffffffffffffffffffffffffffff021916908373ffffffffffffffffffffffffffffffffffffffff16021790555060208201518160010155604082015181600201906002610cff929190612bc1565b5050506000925050505b90565b60078160028110610d1c57600080fd5b016000915090505481565b600080600054600154915091509091565b60035481565b6000806004811115610d5357610d52612e47565b5b600260009054906101000a900460ff166004811115610d7557610d74612e47565b5b14610d7f57600080fd5b60005b600c80549050811015610e79573373ffffffffffffffffffffffffffffffffffffffff16600c8281548110610dba57610db961301a565b5b906000526020600020906004020160000160009054906101000a900473ffffffffffffffffffffffffffffffffffffffff1673ffffffffffffffffffffffffffffffffffffffff1603610e665734600c8281548110610e1c57610e1b61301a565b5b90600052602060002090600402016001016000828254610e3c91906130f5565b925050819055503460016000828254610e5591906130f5565b925050819055506000915050610fa2565b8080610e7190613078565b915050610d82565b600060405180606001604052803373ffffffffffffffffffffffffffffffffffffffff1681526020013481526020016009600280602002604051908101604052809291908260028015610ee1576020028201915b815481526020019060010190808311610ecd575b505050505081525090503460016000828254610efd91906130f5565b92505081905550600c81908060018154018082558091505060019003906000526020600020906004020160009091909190915060008201518160000160006101000a81548173ffffffffffffffffffffffffffffffffffffffff021916908373ffffffffffffffffffffffffffffffffffffffff16021790555060208201518160010155604082015181600201906002610f98929190612bc1565b5050506000925050505b90565b600660019054906101000a900460ff1681565b60005b600b805490508110156111a3573373ffffffffffffffffffffffffffffffffffffffff16600b8281548110610ff357610ff261301a565b5b906000526020600020906004020160000160009054906101000a900473ffffffffffffffffffffffffffffffffffffffff1673ffffffffffffffffffffffffffffffffffffffff160361118f576000600b82815481106110565761105561301a565b5b906000526020600020906004020160010154111561118a576000600b82815481106110845761108361301a565b5b906000526020600020906004020160000160009054906101000a900473ffffffffffffffffffffffffffffffffffffffff1673ffffffffffffffffffffffffffffffffffffffff16600b83815481106110e0576110df61301a565b5b9060005260206000209060040201600101546040516110fe9061315a565b60006040518083038185875af1925050503d806000811461113b576040519150601f19603f3d011682016040523d82523d6000602084013e611140565b606091505b5050905080611184576040517f08c379a000000000000000000000000000000000000000000000000000000000815260040161117b906131cc565b60405180910390fd5b506111a3565b61119e565b808061119a90613078565b9150505b610fbb565b50565b60015481565b60045481565b7f000000000000000000000000000000000000000000000000000000000000000073ffffffffffffffffffffffffffffffffffffffff163373ffffffffffffffffffffffffffffffffffffffff1614611240576040517f08c379a00000000000000000000000000000000000000000000000000000000081526004016112379061325e565b60405180910390fd5b6001600481111561125457611253612e47565b5b600260009054906101000a900460ff16600481111561127657611275612e47565b5b1461128057600080fd5b60055442101561128f57600080fd5b6000600660009054906101000a900460ff1660ff16036112e5576112b5600b600c6128e9565b6003600260006101000a81548160ff021916908360048111156112db576112da612e47565b5b0217905550611368565b6001600660009054906101000a900460ff1660ff160361133b5761130b600c600b6128e9565b6003600260006101000a81548160ff0219169083600481111561133157611330612e47565b5b0217905550611367565b6003600260006101000a81548160ff0219169083600481111561136157611360612e47565b5b02179055505b5b565b600b818154811061137a57600080fd5b90600052602060002090600402016000915090508060000160009054906101000a900473ffffffffffffffffffffffffffffffffffffffff16908060010154905082565b60007f000000000000000000000000000000000000000000000000000000000000000073ffffffffffffffffffffffffffffffffffffffff163373ffffffffffffffffffffffffffffffffffffffff160361141c5760019050611421565b600090505b90565b6000600481111561143857611437612e47565b5b600260009054906101000a900460ff16600481111561145a57611459612e47565b5b1461146457600080fd5b60005b600b805490508110156116cf573373ffffffffffffffffffffffffffffffffffffffff16600b828154811061149f5761149e61301a565b5b906000526020600020906004020160000160009054906101000a900473ffffffffffffffffffffffffffffffffffffffff1673ffffffffffffffffffffffffffffffffffffffff16036116bb5781600b82815481106115015761150061301a565b5b90600052602060002090600402016001015410611663576000600b828154811061152e5761152d61301a565b5b906000526020600020906004020160000160009054906101000a900473ffffffffffffffffffffffffffffffffffffffff1673ffffffffffffffffffffffffffffffffffffffff16836040516115839061315a565b60006040518083038185875af1925050503d80600081146115c0576040519150601f19603f3d011682016040523d82523d6000602084013e6115c5565b606091505b5050905080611609576040517f08c379a0000000000000000000000000000000000000000000000000000000008152600401611600906131cc565b60405180910390fd5b82600b838154811061161e5761161d61301a565b5b9060005260206000209060040201600101600082825461163e919061327e565b9250508190555082600080828254611656919061327e565b92505081905550506116cf565b6001600b80549050611675919061327e565b81036116b6576040517f3a0ef9480000000000000000000000000000000000000000000000000000000081526004016116ad906132fe565b60405180910390fd5b6116ca565b80806116c690613078565b9150505b611467565b5050565b600981600281106116e357600080fd5b016000915090505481565b60055481565b6000600481111561170857611707612e47565b5b600260009054906101000a900460ff16600481111561172a57611729612e47565b5b1461173457600080fd5b60005b600c805490508110156119a0573373ffffffffffffffffffffffffffffffffffffffff16600c828154811061176f5761176e61301a565b5b906000526020600020906004020160000160009054906101000a900473ffffffffffffffffffffffffffffffffffffffff1673ffffffffffffffffffffffffffffffffffffffff160361198c5781600c82815481106117d1576117d061301a565b5b90600052602060002090600402016001015410611934576000600c82815481106117fe576117fd61301a565b5b906000526020600020906004020160000160009054906101000a900473ffffffffffffffffffffffffffffffffffffffff1673ffffffffffffffffffffffffffffffffffffffff16836040516118539061315a565b60006040518083038185875af1925050503d8060008114611890576040519150601f19603f3d011682016040523d82523d6000602084013e611895565b606091505b50509050806118d9576040517f08c379a00000000000000000000000000000000000000000000000000000000081526004016118d0906131cc565b60405180910390fd5b82600c83815481106118ee576118ed61301a565b5b9060005260206000209060040201600101600082825461190e919061327e565b925050819055508260016000828254611927919061327e565b92505081905550506119a0565b6001600c80549050611946919061327e565b8103611987576040517f3a0ef94800000000000000000000000000000000000000000000000000000000815260040161197e9061336a565b60405180910390fd5b61199b565b808061199790613078565b9150505b611737565b5050565b600360048111156119b8576119b7612e47565b5b600260009054906101000a900460ff1660048111156119da576119d9612e47565b5b146119e457600080fd5b60005b600c80549050811015611bcf573373ffffffffffffffffffffffffffffffffffffffff16600c8281548110611a1f57611a1e61301a565b5b906000526020600020906004020160000160009054906101000a900473ffffffffffffffffffffffffffffffffffffffff1673ffffffffffffffffffffffffffffffffffffffff1603611bbb576000600c8281548110611a8257611a8161301a565b5b9060005260206000209060040201600101541115611bb6576000600c8281548110611ab057611aaf61301a565b5b906000526020600020906004020160000160009054906101000a900473ffffffffffffffffffffffffffffffffffffffff1673ffffffffffffffffffffffffffffffffffffffff16600c8381548110611b0c57611b0b61301a565b5b906000526020600020906004020160010154604051611b2a9061315a565b60006040518083038185875af1925050503d8060008114611b67576040519150601f19603f3d011682016040523d82523d6000602084013e611b6c565b606091505b5050905080611bb0576040517f08c379a0000000000000000000000000000000000000000000000000000000008152600401611ba7906131cc565b60405180910390fd5b50611bcf565b611bca565b8080611bc690613078565b9150505b6119e7565b50565b60005481565b600080600080600090506000805490506000606060005b600c80549050811015611c9357600c8181548110611c1057611c0f61301a565b5b906000526020600020906004020160000160009054906101000a900473ffffffffffffffffffffffffffffffffffffffff1673ffffffffffffffffffffffffffffffffffffffff163373ffffffffffffffffffffffffffffffffffffffff1603611c805760019450809250611c93565b8080611c8b90613078565b915050611bef565b5083611eb2576001600c80549050611cab91906130f5565b67ffffffffffffffff811115611cc457611cc361338a565b5b604051908082528060200260200182016040528015611cfd57816020015b611cea612b84565b815260200190600190039081611ce25790505b50905060005b600c80549050811015611e1357600c8181548110611d2457611d2361301a565b5b90600052602060002090600402016040518060600160405290816000820160009054906101000a900473ffffffffffffffffffffffffffffffffffffffff1673ffffffffffffffffffffffffffffffffffffffff1673ffffffffffffffffffffffffffffffffffffffff1681526020016001820154815260200160028201600280602002604051908101604052809291908260028015611dd9576020028201915b815481526020019060010190808311611dc5575b505050505081525050828281518110611df557611df461301a565b5b60200260200101819052508080611e0b90613078565b915050611d03565b5060405180606001604052803373ffffffffffffffffffffffffffffffffffffffff1681526020018981526020016009600280602002604051908101604052809291908260028015611e7a576020028201915b815481526020019060010190808311611e66575b505050505081525081600c8054905081518110611e9a57611e9961301a565b5b6020026020010181905250600c805490509150611fe5565b600c805480602002602001604051908101604052809291908181526020016000905b82821015611fab57838290600052602060002090600402016040518060600160405290816000820160009054906101000a900473ffffffffffffffffffffffffffffffffffffffff1673ffffffffffffffffffffffffffffffffffffffff1673ffffffffffffffffffffffffffffffffffffffff1681526020016001820154815260200160028201600280602002604051908101604052809291908260028015611f93576020028201915b815481526020019060010190808311611f7f575b50505050508152505081526020019060010190611ed4565b50505050905087818381518110611fc557611fc461301a565b5b6020026020010151602001818151611fdd91906130f5565b915081815250505b600080600080600090505b845181101561216857600960016002811061200e5761200d61301a565b5b015460096000600281106120255761202461301a565b5b015486838151811061203a5761203961301a565b5b60200260200101516020015161205091906133b9565b61205a919061342a565b935083915085810361213f57838710156120c657818760096000600281106120855761208461301a565b5b0154600960016002811061209c5761209b61301a565b5b01548a6120a991906133b9565b6120b3919061342a565b9a509a509a50505050505050505061217b565b60096000600281106120db576120da61301a565b5b015460096001600281106120f2576120f161301a565b5b0154856120ff91906133b9565b612109919061342a565b925081848683815181106121205761211f61301a565b5b6020026020010151602001519a509a509a50505050505050505061217b565b838710612155578387612152919061327e565b96505b808061216090613078565b915050611ff0565b5080600080995099509950505050505050505b9193909250565b600660009054906101000a900460ff1681565b60008060008060009050600060015490506000606060005b600b8054905081101561225157600b81815481106121ce576121cd61301a565b5b906000526020600020906004020160000160009054906101000a900473ffffffffffffffffffffffffffffffffffffffff1673ffffffffffffffffffffffffffffffffffffffff163373ffffffffffffffffffffffffffffffffffffffff160361223e5760019450809250612251565b808061224990613078565b9150506121ad565b5083612470576001600b8054905061226991906130f5565b67ffffffffffffffff8111156122825761228161338a565b5b6040519080825280602002602001820160405280156122bb57816020015b6122a8612b84565b8152602001906001900390816122a05790505b50905060005b600b805490508110156123d157600b81815481106122e2576122e161301a565b5b90600052602060002090600402016040518060600160405290816000820160009054906101000a900473ffffffffffffffffffffffffffffffffffffffff1673ffffffffffffffffffffffffffffffffffffffff1673ffffffffffffffffffffffffffffffffffffffff1681526020016001820154815260200160028201600280602002604051908101604052809291908260028015612397576020028201915b815481526020019060010190808311612383575b5050505050815250508282815181106123b3576123b261301a565b5b602002602001018190525080806123c990613078565b9150506122c1565b5060405180606001604052803373ffffffffffffffffffffffffffffffffffffffff1681526020018981526020016007600280602002604051908101604052809291908260028015612438576020028201915b815481526020019060010190808311612424575b505050505081525081600b80549050815181106124585761245761301a565b5b6020026020010181905250600b8054905091506125a3565b600b805480602002602001604051908101604052809291908181526020016000905b8282101561256957838290600052602060002090600402016040518060600160405290816000820160009054906101000a900473ffffffffffffffffffffffffffffffffffffffff1673ffffffffffffffffffffffffffffffffffffffff1673ffffffffffffffffffffffffffffffffffffffff1681526020016001820154815260200160028201600280602002604051908101604052809291908260028015612551576020028201915b81548152602001906001019080831161253d575b50505050508152505081526020019060010190612492565b505050509050878183815181106125835761258261301a565b5b602002602001015160200181815161259b91906130f5565b915081815250505b600080600080600090505b84518110156127265760076001600281106125cc576125cb61301a565b5b015460076000600281106125e3576125e261301a565b5b01548683815181106125f8576125f761301a565b5b60200260200101516020015161260e91906133b9565b612618919061342a565b93508391508581036126fd578387101561268457818760076000600281106126435761264261301a565b5b0154600760016002811061265a5761265961301a565b5b01548a61266791906133b9565b612671919061342a565b9a509a509a505050505050505050612739565b60076000600281106126995761269861301a565b5b015460076001600281106126b0576126af61301a565b5b0154856126bd91906133b9565b6126c7919061342a565b925081848683815181106126de576126dd61301a565b5b6020026020010151602001519a509a509a505050505050505050612739565b838710612713578387612710919061327e565b96505b808061271e90613078565b9150506125ae565b5080600080995099509950505050505050505b9193909250565b7f000000000000000000000000000000000000000000000000000000000000000073ffffffffffffffffffffffffffffffffffffffff163373ffffffffffffffffffffffffffffffffffffffff16146127ce576040517f08c379a00000000000000000000000000000000000000000000000000000000081526004016127c59061325e565b60405180910390fd5b60008160ff1614806127e3575060018160ff16145b806127f1575060028160ff16145b612830576040517f08c379a0000000000000000000000000000000000000000000000000000000008152600401612827906134a7565b60405180910390fd5b60008160ff160361285c576000600660006101000a81548160ff021916908360ff1602179055506128a6565b60018160ff1603612888576001600660006101000a81548160ff021916908360ff1602179055506128a5565b6002600660006101000a81548160ff021916908360ff1602179055505b5b6001600260006101000a81548160ff021916908360048111156128cc576128cb612e47565b5b021790555062015180426128e091906130f5565b60058190555050565b60005b8180549050811015612b7f5760008083838154811061290e5761290d61301a565b5b90600052602060002090600402016002016001600281106129325761293161301a565b5b01548484815481106129475761294661301a565b5b906000526020600020906004020160020160006002811061296b5761296a61301a565b5b01548585815481106129805761297f61301a565b5b90600052602060002090600402016001015461299c91906133b9565b6129a6919061342a565b90505b8480549050821015612b6a5760008583815481106129ca576129c961301a565b5b906000526020600020906004020160010154116129f45781806129ec90613078565b925050612b65565b80858381548110612a0857612a0761301a565b5b9060005260206000209060040201600101541115612a9b5780858381548110612a3457612a3361301a565b5b90600052602060002090600402016001016000828254612a54919061327e565b9250508190555080848481548110612a6f57612a6e61301a565b5b90600052602060002090600402016001016000828254612a8f91906130f5565b92505081905550612b6a565b848281548110612aae57612aad61301a565b5b90600052602060002090600402016001015481612acb919061327e565b9050848281548110612ae057612adf61301a565b5b906000526020600020906004020160010154848481548110612b0557612b0461301a565b5b90600052602060002090600402016001016000828254612b2591906130f5565b925050819055506000858381548110612b4157612b4061301a565b5b9060005260206000209060040201600101819055508180612b6190613078565b9250505b6129a9565b8280612b7590613078565b93505050506128ec565b505050565b6040518060600160405280600073ffffffffffffffffffffffffffffffffffffffff16815260200160008152602001612bbb612c01565b81525090565b8260028101928215612bf0579160200282015b82811115612bef578251825591602001919060010190612bd4565b5b509050612bfd9190612c23565b5090565b6040518060400160405280600290602082028036833780820191505090505090565b5b80821115612c3c576000816000905550600101612c24565b5090565b600073ffffffffffffffffffffffffffffffffffffffff82169050919050565b6000612c6b82612c40565b9050919050565b612c7b81612c60565b82525050565b6000819050919050565b612c9481612c81565b82525050565b600060029050919050565b600081905092915050565b6000819050919050565b6000612cc68383612c8b565b60208301905092915050565b6000602082019050919050565b612ce881612c9a565b612cf28184612ca5565b9250612cfd82612cb0565b8060005b83811015612d2e578151612d158782612cba565b9650612d2083612cd2565b925050600181019050612d01565b505050505050565b608082016000820151612d4c6000850182612c72565b506020820151612d5f6020850182612c8b565b506040820151612d726040850182612cdf565b50505050565b600061010082019050612d8e6000830185612d36565b612d9b6080830184612d36565b9392505050565b600080fd5b612db081612c81565b8114612dbb57600080fd5b50565b600081359050612dcd81612da7565b92915050565b600060208284031215612de957612de8612da2565b5b6000612df784828501612dbe565b91505092915050565b612e0981612c60565b82525050565b612e1881612c81565b82525050565b6000604082019050612e336000830185612e00565b612e406020830184612e0f565b9392505050565b7f4e487b7100000000000000000000000000000000000000000000000000000000600052602160045260246000fd5b60058110612e8757612e86612e47565b5b50565b6000819050612e9882612e76565b919050565b6000612ea882612e8a565b9050919050565b612eb881612e9d565b82525050565b6000602082019050612ed36000830184612eaf565b92915050565b6000602082019050612eee6000830184612e0f565b92915050565b6000604082019050612f096000830185612e0f565b612f166020830184612e0f565b9392505050565b600060ff82169050919050565b612f3381612f1d565b82525050565b6000602082019050612f4e6000830184612f2a565b92915050565b60008115159050919050565b612f6981612f54565b82525050565b6000602082019050612f846000830184612f60565b92915050565b6000606082019050612f9f6000830186612e0f565b612fac6020830185612e0f565b612fb96040830184612e0f565b949350505050565b612fca81612f1d565b8114612fd557600080fd5b50565b600081359050612fe781612fc1565b92915050565b60006020828403121561300357613002612da2565b5b600061301184828501612fd8565b91505092915050565b7f4e487b7100000000000000000000000000000000000000000000000000000000600052603260045260246000fd5b7f4e487b7100000000000000000000000000000000000000000000000000000000600052601160045260246000fd5b600061308382612c81565b91507fffffffffffffffffffffffffffffffffffffffffffffffffffffffffffffffff82036130b5576130b4613049565b5b600182019050919050565b60006130cb82612f1d565b91506130d683612f1d565b9250828201905060ff8111156130ef576130ee613049565b5b92915050565b600061310082612c81565b915061310b83612c81565b925082820190508082111561312357613122613049565b5b92915050565b600081905092915050565b50565b6000613144600083613129565b915061314f82613134565b600082019050919050565b600061316582613137565b9150819050919050565b600082825260208201905092915050565b7f5472616e73666572206661696c65640000000000000000000000000000000000600082015250565b60006131b6600f8361316f565b91506131c182613180565b602082019050919050565b600060208201905081810360008301526131e5816131a9565b9050919050565b7f4f6e6c7920746865206f776e65722063616e2063616c6c20746869732066756e60008201527f6374696f6e2e0000000000000000000000000000000000000000000000000000602082015250565b600061324860268361316f565b9150613253826131ec565b604082019050919050565b600060208201905081810360008301526132778161323b565b9050919050565b600061328982612c81565b915061329483612c81565b92508282039050818111156132ac576132ab613049565b5b92915050565b7f4e6f74204f6e2042657420410000000000000000000000000000000000000000600082015250565b60006132e8600c8361316f565b91506132f3826132b2565b602082019050919050565b60006020820190508181036000830152613317816132db565b9050919050565b7f4e6f74204f6e2042657420420000000000000000000000000000000000000000600082015250565b6000613354600c8361316f565b915061335f8261331e565b602082019050919050565b6000602082019050818103600083015261338381613347565b9050919050565b7f4e487b7100000000000000000000000000000000000000000000000000000000600052604160045260246000fd5b60006133c482612c81565b91506133cf83612c81565b92508282026133dd81612c81565b915082820484148315176133f4576133f3613049565b5b5092915050565b7f4e487b7100000000000000000000000000000000000000000000000000000000600052601260045260246000fd5b600061343582612c81565b915061344083612c81565b9250826134505761344f6133fb565b5b828204905092915050565b7f696e76616c696420696e70757400000000000000000000000000000000000000600082015250565b6000613491600d8361316f565b915061349c8261345b565b602082019050919050565b600060208201905081810360008301526134c081613484565b905091905056fea26469706673582212204f7d7bab7cb1dc2ce47bde61c781facee115a382c2607c784b8ef02f34892ad564736f6c63430008130033",
  "linkReferences": {},
  "deployedLinkReferences": {}
}