{
  "_format": "hh-sol-artifact-1",
  "contractName": "predMarket2",
  "sourceName": "contracts/LockV2.sol",
  "abi": [
    {
      "inputs": [
        {
          "internalType": "uint256",
          "name": "_endTime",
          "type": "uint256"
        }
      ],
      "stateMutability": "payable",
      "type": "constructor"
    },
    {
      "inputs": [],
      "name": "ReentrancyGuardReentrantCall",
      "type": "error"
    },
    {
      "anonymous": false,
      "inputs": [
        {
          "indexed": true,
          "internalType": "uint256",
          "name": "positionOfArray",
          "type": "uint256"
        }
      ],
      "name": "BetUnlisted",
      "type": "event"
    },
    {
      "anonymous": false,
      "inputs": [
        {
          "indexed": true,
          "internalType": "address",
          "name": "beneficiary",
          "type": "address"
        },
        {
          "indexed": false,
          "internalType": "uint256",
          "name": "amount",
          "type": "uint256"
        }
      ],
      "name": "FundsRedistributed",
      "type": "event"
    },
    {
      "anonymous": false,
      "inputs": [],
      "name": "PayoutProcessed",
      "type": "event"
    },
    {
      "anonymous": false,
      "inputs": [
        {
          "indexed": false,
          "internalType": "uint256",
          "name": "timeStamp",
          "type": "uint256"
        }
      ],
      "name": "contractDeployed",
      "type": "event"
    },
    {
      "anonymous": false,
      "inputs": [],
      "name": "newBetOffered",
      "type": "event"
    },
    {
      "anonymous": false,
      "inputs": [],
      "name": "shithappened",
      "type": "event"
    },
    {
      "anonymous": false,
      "inputs": [],
      "name": "underReview",
      "type": "event"
    },
    {
      "anonymous": false,
      "inputs": [
        {
          "indexed": true,
          "internalType": "address",
          "name": "sender",
          "type": "address"
        },
        {
          "indexed": false,
          "internalType": "uint256",
          "name": "betPlacedValue",
          "type": "uint256"
        }
      ],
      "name": "userPlacedBet",
      "type": "event"
    },
    {
      "anonymous": false,
      "inputs": [
        {
          "indexed": true,
          "internalType": "address",
          "name": "sender",
          "type": "address"
        },
        {
          "indexed": false,
          "internalType": "uint256",
          "name": "betReduced",
          "type": "uint256"
        }
      ],
      "name": "userReducedBet",
      "type": "event"
    },
    {
      "anonymous": false,
      "inputs": [
        {
          "indexed": false,
          "internalType": "string",
          "name": "reason",
          "type": "string"
        }
      ],
      "name": "userVoted",
      "type": "event"
    },
    {
      "anonymous": false,
      "inputs": [
        {
          "indexed": true,
          "internalType": "address",
          "name": "sender",
          "type": "address"
        },
        {
          "indexed": false,
          "internalType": "string",
          "name": "betAorB",
          "type": "string"
        }
      ],
      "name": "userWithdrewBet",
      "type": "event"
    },
    {
      "anonymous": false,
      "inputs": [
        {
          "indexed": false,
          "internalType": "uint8",
          "name": "winnerIs",
          "type": "uint8"
        },
        {
          "indexed": false,
          "internalType": "uint256",
          "name": "endedAtTime",
          "type": "uint256"
        }
      ],
      "name": "winnerDeclaredVoting",
      "type": "event"
    },
    {
      "anonymous": false,
      "inputs": [
        {
          "indexed": false,
          "internalType": "uint8",
          "name": "winnerIs",
          "type": "uint8"
        }
      ],
      "name": "winnerDeclaredVotingStaff",
      "type": "event"
    },
    {
      "anonymous": false,
      "inputs": [
        {
          "indexed": false,
          "internalType": "uint8",
          "name": "winnerIs",
          "type": "uint8"
        }
      ],
      "name": "winnerFinalized",
      "type": "event"
    },
    {
      "inputs": [],
      "name": "allBets_Balance",
      "outputs": [
        {
          "components": [
            {
              "internalType": "address",
              "name": "deployer",
              "type": "address"
            },
            {
              "internalType": "uint256",
              "name": "amountDeployerLocked",
              "type": "uint256"
            },
            {
              "internalType": "address",
              "name": "owner",
              "type": "address"
            },
            {
              "internalType": "uint256",
              "name": "amountBuyerLocked",
              "type": "uint256"
            },
            {
              "internalType": "uint256",
              "name": "amountToBuyFor",
              "type": "uint256"
            },
            {
              "internalType": "uint8",
              "name": "conditionForBuyerToWin",
              "type": "uint8"
            },
            {
              "internalType": "bool",
              "name": "selling",
              "type": "bool"
            },
            {
              "internalType": "uint256",
              "name": "positionInArray",
              "type": "uint256"
            }
          ],
          "internalType": "struct predMarket2.bet[]",
          "name": "",
          "type": "tuple[]"
        },
        {
          "internalType": "uint256",
          "name": "",
          "type": "uint256"
        },
        {
          "internalType": "uint8",
          "name": "",
          "type": "uint8"
        },
        {
          "internalType": "enum predMarket2.RaffleState",
          "name": "",
          "type": "uint8"
        },
        {
          "internalType": "uint256",
          "name": "",
          "type": "uint256"
        },
        {
          "internalType": "uint256",
          "name": "",
          "type": "uint256"
        }
      ],
      "stateMutability": "view",
      "type": "function"
    },
    {
      "inputs": [
        {
          "internalType": "uint256",
          "name": "",
          "type": "uint256"
        }
      ],
      "name": "arrayOfBets",
      "outputs": [
        {
          "internalType": "address",
          "name": "deployer",
          "type": "address"
        },
        {
          "internalType": "uint256",
          "name": "amountDeployerLocked",
          "type": "uint256"
        },
        {
          "internalType": "address",
          "name": "owner",
          "type": "address"
        },
        {
          "internalType": "uint256",
          "name": "amountBuyerLocked",
          "type": "uint256"
        },
        {
          "internalType": "uint256",
          "name": "amountToBuyFor",
          "type": "uint256"
        },
        {
          "internalType": "uint8",
          "name": "conditionForBuyerToWin",
          "type": "uint8"
        },
        {
          "internalType": "bool",
          "name": "selling",
          "type": "bool"
        },
        {
          "internalType": "uint256",
          "name": "positionInArray",
          "type": "uint256"
        }
      ],
      "stateMutability": "view",
      "type": "function"
    },
    {
      "inputs": [
        {
          "internalType": "address",
          "name": "",
          "type": "address"
        },
        {
          "internalType": "uint256",
          "name": "",
          "type": "uint256"
        }
      ],
      "name": "betsByUser",
      "outputs": [
        {
          "internalType": "uint256",
          "name": "",
          "type": "uint256"
        }
      ],
      "stateMutability": "view",
      "type": "function"
    },
    {
      "inputs": [
        {
          "internalType": "uint256",
          "name": "positionOfArray",
          "type": "uint256"
        }
      ],
      "name": "buyABet",
      "outputs": [],
      "stateMutability": "payable",
      "type": "function"
    },
    {
      "inputs": [],
      "name": "creatorLocked",
      "outputs": [
        {
          "internalType": "uint256",
          "name": "",
          "type": "uint256"
        }
      ],
      "stateMutability": "view",
      "type": "function"
    },
    {
      "inputs": [
        {
          "internalType": "uint8",
          "name": "_winner",
          "type": "uint8"
        },
        {
          "internalType": "uint8",
          "name": "_disagreeCorrect",
          "type": "uint8"
        }
      ],
      "name": "declareWinner",
      "outputs": [],
      "stateMutability": "nonpayable",
      "type": "function"
    },
    {
      "inputs": [],
      "name": "disagreeCorrect",
      "outputs": [
        {
          "internalType": "uint8",
          "name": "",
          "type": "uint8"
        }
      ],
      "stateMutability": "view",
      "type": "function"
    },
    {
      "inputs": [
        {
          "internalType": "string",
          "name": "reason",
          "type": "string"
        }
      ],
      "name": "disagreeWithOwner",
      "outputs": [],
      "stateMutability": "payable",
      "type": "function"
    },
    {
      "inputs": [],
      "name": "disagreedUser",
      "outputs": [
        {
          "internalType": "address",
          "name": "",
          "type": "address"
        }
      ],
      "stateMutability": "view",
      "type": "function"
    },
    {
      "inputs": [],
      "name": "endOfVoting",
      "outputs": [
        {
          "internalType": "uint256",
          "name": "",
          "type": "uint256"
        }
      ],
      "stateMutability": "view",
      "type": "function"
    },
    {
      "inputs": [],
      "name": "isOwner",
      "outputs": [
        {
          "internalType": "bool",
          "name": "",
          "type": "bool"
        }
      ],
      "stateMutability": "view",
      "type": "function"
    },
    {
      "inputs": [],
      "name": "owner",
      "outputs": [
        {
          "internalType": "address",
          "name": "",
          "type": "address"
        }
      ],
      "stateMutability": "view",
      "type": "function"
    },
    {
      "inputs": [
        {
          "internalType": "uint256",
          "name": "amountToBuy",
          "type": "uint256"
        },
        {
          "internalType": "uint8",
          "name": "conditionToWIn",
          "type": "uint8"
        }
      ],
      "name": "sellANewBet",
      "outputs": [],
      "stateMutability": "payable",
      "type": "function"
    },
    {
      "inputs": [
        {
          "internalType": "uint256",
          "name": "positionOfArray",
          "type": "uint256"
        },
        {
          "internalType": "uint256",
          "name": "newAskingPrice",
          "type": "uint256"
        }
      ],
      "name": "sellAnExistingBet",
      "outputs": [],
      "stateMutability": "nonpayable",
      "type": "function"
    },
    {
      "inputs": [],
      "name": "transferOwnerAmount",
      "outputs": [],
      "stateMutability": "nonpayable",
      "type": "function"
    },
    {
      "inputs": [
        {
          "internalType": "uint256[]",
          "name": "positionsOfArray",
          "type": "uint256[]"
        }
      ],
      "name": "unlistBets",
      "outputs": [],
      "stateMutability": "nonpayable",
      "type": "function"
    },
    {
      "inputs": [],
      "name": "winner",
      "outputs": [
        {
          "internalType": "uint8",
          "name": "",
          "type": "uint8"
        }
      ],
      "stateMutability": "view",
      "type": "function"
    },
    {
      "inputs": [],
      "name": "withdraw",
      "outputs": [],
      "stateMutability": "nonpayable",
      "type": "function"
    }
  ],
  "bytecode": "0x60c060405273f39fd6e51aad88f6f4ce6ab8827279cfffb9226673ffffffffffffffffffffffffffffffffffffffff1660a09073ffffffffffffffffffffffffffffffffffffffff168152506040516200321b3803806200321b83398181016040528101906200007091906200012f565b6001600081905550346003819055503373ffffffffffffffffffffffffffffffffffffffff1660808173ffffffffffffffffffffffffffffffffffffffff1681525050806002819055506000600460166101000a81548160ff02191690836003811115620000e357620000e262000161565b5b02179055505062000190565b600080fd5b6000819050919050565b6200010981620000f4565b81146200011557600080fd5b50565b6000815190506200012981620000fe565b92915050565b600060208284031215620001485762000147620000ef565b5b6000620001588482850162000118565b91505092915050565b7f4e487b7100000000000000000000000000000000000000000000000000000000600052602160045260246000fd5b60805160a051613034620001e7600039600081816104660152818161150c01526119d30152600081816104110152818161051c01528181611491015281816114b70152818161197e0152611b0a01526130346000f3fe6080604052600436106101095760003560e01c80638f32d59b11610095578063c16c344b11610064578063c16c344b14610332578063ccba221c1461035d578063d38399ec14610379578063dfbf53ae146103a2578063ee9891f1146103cd57610109565b80638f32d59b146102ab5780639651b183146102d6578063a6c69ffe146102f2578063b4a36fd71461031b57610109565b80633ccfd60b116100dc5780633ccfd60b146101d15780636afedac5146101e85780637c54bafe146102185780637e887332146102555780638da5cb5b1461028057610109565b80631d4aa3c61461010e57806322e5d0b71461013957806330dda1c2146101625780633658957e1461018d575b600080fd5b34801561011a57600080fd5b506101236103e9565b6040516101309190612310565b60405180910390f35b34801561014557600080fd5b50610160600480360381019061015b9190612378565b61040f565b005b34801561016e57600080fd5b506101776107a7565b60405161018491906123d1565b60405180910390f35b34801561019957600080fd5b506101b460048036038101906101af9190612418565b6107ad565b6040516101c898979695949392919061246f565b60405180910390f35b3480156101dd57600080fd5b506101e661085f565b005b3480156101f457600080fd5b506101fd610e2f565b60405161020f969594939291906126f2565b60405180910390f35b34801561022457600080fd5b5061023f600480360381019061023a9190612786565b611458565b60405161024c91906123d1565b60405180910390f35b34801561026157600080fd5b5061026a611489565b60405161027791906123d1565b60405180910390f35b34801561028c57600080fd5b5061029561148f565b6040516102a29190612310565b60405180910390f35b3480156102b757600080fd5b506102c06114b3565b6040516102cd91906127c6565b60405180910390f35b6102f060048036038101906102eb91906127e1565b611570565b005b3480156102fe57600080fd5b5061031960048036038101906103149190612821565b611817565b005b34801561032757600080fd5b5061033061197c565b005b34801561033e57600080fd5b50610347611b7b565b6040516103549190612861565b60405180910390f35b610377600480360381019061037291906129c2565b611b8e565b005b34801561038557600080fd5b506103a0600480360381019061039b9190612ad3565b611d39565b005b3480156103ae57600080fd5b506103b7611f22565b6040516103c49190612861565b60405180910390f35b6103e760048036038101906103e29190612418565b611f35565b005b600460029054906101000a900473ffffffffffffffffffffffffffffffffffffffff1681565b7f000000000000000000000000000000000000000000000000000000000000000073ffffffffffffffffffffffffffffffffffffffff163373ffffffffffffffffffffffffffffffffffffffff1614806104b457507f000000000000000000000000000000000000000000000000000000000000000073ffffffffffffffffffffffffffffffffffffffff163373ffffffffffffffffffffffffffffffffffffffff16145b6104f3576040517f08c379a00000000000000000000000000000000000000000000000000000000081526004016104ea90612b9f565b60405180910390fd5b6104fb61227f565b60008260ff16118015610511575060048260ff16105b61051a57600080fd5b7f000000000000000000000000000000000000000000000000000000000000000073ffffffffffffffffffffffffffffffffffffffff163373ffffffffffffffffffffffffffffffffffffffff160361064b57600060038111156105815761058061267b565b5b600460169054906101000a900460ff1660038111156105a3576105a261267b565b5b146105ad57600080fd5b6000429050611c20816105c09190612bee565b6001819055506001600460166101000a81548160ff021916908360038111156105ec576105eb61267b565b5b021790555082600460006101000a81548160ff021916908360ff1602179055507f929490df01efaa939914f3c800fca2faec5518e6da20283d3f9909fd8cc39c16838260405161063d929190612c22565b60405180910390a15061079b565b6002600381111561065f5761065e61267b565b5b600460169054906101000a900460ff1660038111156106815761068061267b565b5b1461068b57600080fd5b80600460016101000a81548160ff021916908360ff16021790555060018160ff160361071d57600460029054906101000a900473ffffffffffffffffffffffffffffffffffffffff1673ffffffffffffffffffffffffffffffffffffffff166108fc6003549081150290604051600060405180830381858888f1935050505015801561071b573d6000803e3d6000fd5b505b81600460006101000a81548160ff021916908360ff1602179055507fb3f87315f0123ecf2fdec13e9ddeab075e99c82552eef4d8ee0da5b801d85282826040516107679190612861565b60405180910390a16003600460166101000a81548160ff021916908360038111156107955761079461267b565b5b02179055505b6107a36122c5565b5050565b60035481565b600681815481106107bd57600080fd5b90600052602060002090600702016000915090508060000160009054906101000a900473ffffffffffffffffffffffffffffffffffffffff16908060010154908060020160009054906101000a900473ffffffffffffffffffffffffffffffffffffffff16908060030154908060040154908060050160009054906101000a900460ff16908060050160019054906101000a900460ff16908060060154905088565b61086761227f565b60038081111561087a5761087961267b565b5b600460169054906101000a900460ff16600381111561089c5761089b61267b565b5b14806108e85750600160038111156108b7576108b661267b565b5b600460169054906101000a900460ff1660038111156108d9576108d861267b565b5b1480156108e7575060015442115b5b6108f157600080fd5b6000600560003373ffffffffffffffffffffffffffffffffffffffff1673ffffffffffffffffffffffffffffffffffffffff1681526020019081526020016000209050600081805490501161094557600080fd5b60008060006003600460009054906101000a900460ff1660ff16148061097d57506001600460019054906101000a900460ff1660ff16145b8061099a57506003600460019054906101000a900460ff1660ff16145b905060005b8480549050811015610d3d5760008582815481106109c0576109bf612c4b565b5b906000526020600020015490506000600682815481106109e3576109e2612c4b565b5b906000526020600020906007020190508315610ae6573373ffffffffffffffffffffffffffffffffffffffff168160020160009054906101000a900473ffffffffffffffffffffffffffffffffffffffff1673ffffffffffffffffffffffffffffffffffffffff1603610a6d57806003015486610a609190612bee565b9550600081600301819055505b3373ffffffffffffffffffffffffffffffffffffffff168160000160009054906101000a900473ffffffffffffffffffffffffffffffffffffffff1673ffffffffffffffffffffffffffffffffffffffff1603610ae157806001015486610ad49190612bee565b9550600081600101819055505b610d28565b3373ffffffffffffffffffffffffffffffffffffffff168160020160009054906101000a900473ffffffffffffffffffffffffffffffffffffffff1673ffffffffffffffffffffffffffffffffffffffff16148015610b6a5750600460009054906101000a900460ff1660ff168160050160009054906101000a900460ff1660ff16145b80610bf657503373ffffffffffffffffffffffffffffffffffffffff168160000160009054906101000a900473ffffffffffffffffffffffffffffffffffffffff1673ffffffffffffffffffffffffffffffffffffffff16148015610bf55750600460009054906101000a900460ff1660ff168160050160009054906101000a900460ff1660ff1614155b5b15610c565780600101548160030154610c0f9190612bee565b86610c1a9190612bee565b955080600101548160030154610c309190612bee565b85610c3b9190612bee565b94506000816003018190555060008160010181905550610d27565b3373ffffffffffffffffffffffffffffffffffffffff168160000160009054906101000a900473ffffffffffffffffffffffffffffffffffffffff1673ffffffffffffffffffffffffffffffffffffffff16148015610d0457503373ffffffffffffffffffffffffffffffffffffffff168160020160009054906101000a900473ffffffffffffffffffffffffffffffffffffffff1673ffffffffffffffffffffffffffffffffffffffff16145b15610d2657806001015486610d199190612bee565b9550600081600101819055505b5b5b50508080610d3590612c7a565b91505061099f565b5080158015610d4c5750600082115b15610d975760006064600384610d629190612cc2565b610d6c9190612d33565b90508060036000828254610d809190612bee565b925050819055508084610d939190612d64565b9350505b82471015610dda576040517f08c379a0000000000000000000000000000000000000000000000000000000008152600401610dd190612e0a565b60405180910390fd5b3373ffffffffffffffffffffffffffffffffffffffff166108fc849081150290604051600060405180830381858888f19350505050158015610e20573d6000803e3d6000fd5b5050505050610e2d6122c5565b565b6060600080600080600080600090506000806000600560003373ffffffffffffffffffffffffffffffffffffffff1673ffffffffffffffffffffffffffffffffffffffff16815260200190815260200160002090506000600460009054906101000a900460ff1660ff1611156112b1576003600460009054906101000a900460ff1660ff1603610fff5760005b8180549050811015610ff9576000828281548110610edd57610edc612c4b565b5b90600052602060002001549050600060068281548110610f0057610eff612c4b565b5b906000526020600020906007020190503373ffffffffffffffffffffffffffffffffffffffff168160020160009054906101000a900473ffffffffffffffffffffffffffffffffffffffff1673ffffffffffffffffffffffffffffffffffffffff1603610f7a57806003015487610f779190612bee565b96505b3373ffffffffffffffffffffffffffffffffffffffff168160000160009054906101000a900473ffffffffffffffffffffffffffffffffffffffff1673ffffffffffffffffffffffffffffffffffffffff1603610fe457806001015487610fe19190612bee565b96505b50508080610ff190612c7a565b915050610ebc565b506112b0565b60005b818054905081101561128957600082828154811061102357611022612c4b565b5b9060005260206000200154905060006006828154811061104657611045612c4b565b5b906000526020600020906007020190503373ffffffffffffffffffffffffffffffffffffffff168160020160009054906101000a900473ffffffffffffffffffffffffffffffffffffffff1673ffffffffffffffffffffffffffffffffffffffff161480156110da5750600460009054906101000a900460ff1660ff168160050160009054906101000a900460ff1660ff16145b1561112657806001015481600301546110f39190612bee565b876110fe9190612bee565b9650806001015481600301546111149190612bee565b8661111f9190612bee565b9550611274565b3373ffffffffffffffffffffffffffffffffffffffff168160000160009054906101000a900473ffffffffffffffffffffffffffffffffffffffff1673ffffffffffffffffffffffffffffffffffffffff161480156111ab5750600460009054906101000a900460ff1660ff168160050160009054906101000a900460ff1660ff1614155b156111f757806001015481600301546111c49190612bee565b876111cf9190612bee565b9650806001015481600301546111e59190612bee565b866111f09190612bee565b9550611273565b3373ffffffffffffffffffffffffffffffffffffffff168160000160009054906101000a900473ffffffffffffffffffffffffffffffffffffffff1673ffffffffffffffffffffffffffffffffffffffff1614801561125a575060008160040154145b156112725780600101548761126f9190612bee565b96505b5b5b5050808061128190612c7a565b915050611002565b5060008311156112af5760646003846112a29190612cc2565b6112ac9190612d33565b91505b5b5b6006600254600460009054906101000a900460ff16600460169054906101000a900460ff166001548885805480602002602001604051908101604052809291908181526020016000905b8282101561143a5783829060005260206000209060070201604051806101000160405290816000820160009054906101000a900473ffffffffffffffffffffffffffffffffffffffff1673ffffffffffffffffffffffffffffffffffffffff1673ffffffffffffffffffffffffffffffffffffffff168152602001600182015481526020016002820160009054906101000a900473ffffffffffffffffffffffffffffffffffffffff1673ffffffffffffffffffffffffffffffffffffffff1673ffffffffffffffffffffffffffffffffffffffff16815260200160038201548152602001600482015481526020016005820160009054906101000a900460ff1660ff1660ff1681526020016005820160019054906101000a900460ff16151515158152602001600682015481525050815260200190600101906112fb565b50505050955099509950995099509950995050505050909192939495565b6005602052816000526040600020818154811061147457600080fd5b90600052602060002001600091509150505481565b60015481565b7f000000000000000000000000000000000000000000000000000000000000000081565b60007f000000000000000000000000000000000000000000000000000000000000000073ffffffffffffffffffffffffffffffffffffffff163373ffffffffffffffffffffffffffffffffffffffff16148061155a57507f000000000000000000000000000000000000000000000000000000000000000073ffffffffffffffffffffffffffffffffffffffff163373ffffffffffffffffffffffffffffffffffffffff16145b15611568576001905061156d565b600090505b90565b61157861227f565b60008160ff1611801561158f575060028160ff1611155b61159857600080fd5b600060038111156115ac576115ab61267b565b5b600460169054906101000a900460ff1660038111156115ce576115cd61267b565b5b146115d857600080fd5b60006040518061010001604052803373ffffffffffffffffffffffffffffffffffffffff1681526020013481526020013373ffffffffffffffffffffffffffffffffffffffff168152602001600081526020018481526020018360ff1681526020016001151581526020016006805490508152509050600560003373ffffffffffffffffffffffffffffffffffffffff1673ffffffffffffffffffffffffffffffffffffffff1681526020019081526020016000206006805490509080600181540180825580915050600190039060005260206000200160009091909190915055600681908060018154018082558091505060019003906000526020600020906007020160009091909190915060008201518160000160006101000a81548173ffffffffffffffffffffffffffffffffffffffff021916908373ffffffffffffffffffffffffffffffffffffffff1602179055506020820151816001015560408201518160020160006101000a81548173ffffffffffffffffffffffffffffffffffffffff021916908373ffffffffffffffffffffffffffffffffffffffff160217905550606082015181600301556080820151816004015560a08201518160050160006101000a81548160ff021916908360ff16021790555060c08201518160050160016101000a81548160ff02191690831515021790555060e0820151816006015550507f20c3f797b9c7476a4beb5a93f1743a0a793b6c4b04e8f035a97bb644668d534a60405160405180910390a1506118136122c5565b5050565b61181f61227f565b600060038111156118335761183261267b565b5b600460169054906101000a900460ff1660038111156118555761185461267b565b5b1461185f57600080fd5b3373ffffffffffffffffffffffffffffffffffffffff166006838154811061188a57611889612c4b565b5b906000526020600020906007020160020160009054906101000a900473ffffffffffffffffffffffffffffffffffffffff1673ffffffffffffffffffffffffffffffffffffffff16146118dc57600080fd5b80600683815481106118f1576118f0612c4b565b5b90600052602060002090600702016004018190555060016006838154811061191c5761191b612c4b565b5b906000526020600020906007020160050160016101000a81548160ff0219169083151502179055507f20c3f797b9c7476a4beb5a93f1743a0a793b6c4b04e8f035a97bb644668d534a60405160405180910390a16119786122c5565b5050565b7f000000000000000000000000000000000000000000000000000000000000000073ffffffffffffffffffffffffffffffffffffffff163373ffffffffffffffffffffffffffffffffffffffff161480611a2157507f000000000000000000000000000000000000000000000000000000000000000073ffffffffffffffffffffffffffffffffffffffff163373ffffffffffffffffffffffffffffffffffffffff16145b611a60576040517f08c379a0000000000000000000000000000000000000000000000000000000008152600401611a5790612b9f565b60405180910390fd5b611a6861227f565b60016003811115611a7c57611a7b61267b565b5b600460169054906101000a900460ff166003811115611a9e57611a9d61267b565b5b148015611aac575060015442115b80611ac957506002600460019054906101000a900460ff1660ff16145b611b08576040517f08c379a0000000000000000000000000000000000000000000000000000000008152600401611aff90612e76565b60405180910390fd5b7f000000000000000000000000000000000000000000000000000000000000000073ffffffffffffffffffffffffffffffffffffffff166108fc6003549081150290604051600060405180830381858888f19350505050158015611b70573d6000803e3d6000fd5b50611b796122c5565b565b600460019054906101000a900460ff1681565b611b9661227f565b60016003811115611baa57611ba961267b565b5b600460169054906101000a900460ff166003811115611bcc57611bcb61267b565b5b148015611bda575060015442105b80611c25575060006003811115611bf457611bf361267b565b5b600460169054906101000a900460ff166003811115611c1657611c1561267b565b5b148015611c24575060025442115b5b611c64576040517f08c379a0000000000000000000000000000000000000000000000000000000008152600401611c5b90612e76565b60405180910390fd5b6003543414611c7257600080fd5b33600460026101000a81548173ffffffffffffffffffffffffffffffffffffffff021916908373ffffffffffffffffffffffffffffffffffffffff1602179055506002600460166101000a81548160ff02191690836003811115611cd957611cd861267b565b5b02179055503460036000828254611cf09190612bee565b925050819055507f7b57780f7fad89248d91e3323d114523ecafa89e40fdaeba4fc021d7b9c6e8bf81604051611d269190612f04565b60405180910390a1611d366122c5565b50565b611d4161227f565b60005b8151811015611eea576000828281518110611d6257611d61612c4b565b5b602002602001015190503373ffffffffffffffffffffffffffffffffffffffff1660068281548110611d9757611d96612c4b565b5b906000526020600020906007020160020160009054906101000a900473ffffffffffffffffffffffffffffffffffffffff1673ffffffffffffffffffffffffffffffffffffffff1614611e1f576040517f08c379a0000000000000000000000000000000000000000000000000000000008152600401611e1690612f72565b60405180910390fd5b6001151560068281548110611e3757611e36612c4b565b5b906000526020600020906007020160050160019054906101000a900460ff16151514611e98576040517f08c379a0000000000000000000000000000000000000000000000000000000008152600401611e8f90612fde565b60405180910390fd5b600060068281548110611eae57611ead612c4b565b5b906000526020600020906007020160050160016101000a81548160ff021916908315150217905550508080611ee290612c7a565b915050611d44565b507f20c3f797b9c7476a4beb5a93f1743a0a793b6c4b04e8f035a97bb644668d534a60405160405180910390a1611f1f6122c5565b50565b600460009054906101000a900460ff1681565b611f3d61227f565b60006003811115611f5157611f5061267b565b5b600460169054906101000a900460ff166003811115611f7357611f7261267b565b5b14611f7d57600080fd5b60068181548110611f9157611f90612c4b565b5b9060005260206000209060070201600401543414611fae57600080fd5b6001151560068281548110611fc657611fc5612c4b565b5b906000526020600020906007020160050160019054906101000a900460ff16151514611ff157600080fd5b60006006828154811061200757612006612c4b565b5b9060005260206000209060070201600301540361204d57346006828154811061203357612032612c4b565b5b9060005260206000209060070201600301819055506120da565b6006818154811061206157612060612c4b565b5b906000526020600020906007020160020160009054906101000a900473ffffffffffffffffffffffffffffffffffffffff1673ffffffffffffffffffffffffffffffffffffffff166108fc349081150290604051600060405180830381858888f193505050501580156120d8573d6000803e3d6000fd5b505b600560003373ffffffffffffffffffffffffffffffffffffffff1673ffffffffffffffffffffffffffffffffffffffff168152602001908152602001600020819080600181540180825580915050600190039060005260206000200160009091909190915055336006828154811061215557612154612c4b565b5b906000526020600020906007020160020160006101000a81548173ffffffffffffffffffffffffffffffffffffffff021916908373ffffffffffffffffffffffffffffffffffffffff1602179055506000600682815481106121ba576121b9612c4b565b5b906000526020600020906007020160050160016101000a81548160ff021916908315150217905550600560003373ffffffffffffffffffffffffffffffffffffffff1673ffffffffffffffffffffffffffffffffffffffff1681526020019081526020016000208190806001815401808255809150506001900390600052602060002001600090919091909150557f20c3f797b9c7476a4beb5a93f1743a0a793b6c4b04e8f035a97bb644668d534a60405160405180910390a161227c6122c5565b50565b6002600054036122bb576040517f3ee5aeb500000000000000000000000000000000000000000000000000000000815260040160405180910390fd5b6002600081905550565b6001600081905550565b600073ffffffffffffffffffffffffffffffffffffffff82169050919050565b60006122fa826122cf565b9050919050565b61230a816122ef565b82525050565b60006020820190506123256000830184612301565b92915050565b6000604051905090565b600080fd5b600080fd5b600060ff82169050919050565b6123558161233f565b811461236057600080fd5b50565b6000813590506123728161234c565b92915050565b6000806040838503121561238f5761238e612335565b5b600061239d85828601612363565b92505060206123ae85828601612363565b9150509250929050565b6000819050919050565b6123cb816123b8565b82525050565b60006020820190506123e660008301846123c2565b92915050565b6123f5816123b8565b811461240057600080fd5b50565b600081359050612412816123ec565b92915050565b60006020828403121561242e5761242d612335565b5b600061243c84828501612403565b91505092915050565b61244e8161233f565b82525050565b60008115159050919050565b61246981612454565b82525050565b600061010082019050612485600083018b612301565b612492602083018a6123c2565b61249f6040830189612301565b6124ac60608301886123c2565b6124b960808301876123c2565b6124c660a0830186612445565b6124d360c0830185612460565b6124e060e08301846123c2565b9998505050505050505050565b600081519050919050565b600082825260208201905092915050565b6000819050602082019050919050565b612522816122ef565b82525050565b612531816123b8565b82525050565b6125408161233f565b82525050565b61254f81612454565b82525050565b6101008201600082015161256c6000850182612519565b50602082015161257f6020850182612528565b5060408201516125926040850182612519565b5060608201516125a56060850182612528565b5060808201516125b86080850182612528565b5060a08201516125cb60a0850182612537565b5060c08201516125de60c0850182612546565b5060e08201516125f160e0850182612528565b50505050565b60006126038383612555565b6101008301905092915050565b6000602082019050919050565b6000612628826124ed565b61263281856124f8565b935061263d83612509565b8060005b8381101561266e57815161265588826125f7565b975061266083612610565b925050600181019050612641565b5085935050505092915050565b7f4e487b7100000000000000000000000000000000000000000000000000000000600052602160045260246000fd5b600481106126bb576126ba61267b565b5b50565b60008190506126cc826126aa565b919050565b60006126dc826126be565b9050919050565b6126ec816126d1565b82525050565b600060c082019050818103600083015261270c818961261d565b905061271b60208301886123c2565b6127286040830187612445565b61273560608301866126e3565b61274260808301856123c2565b61274f60a08301846123c2565b979650505050505050565b612763816122ef565b811461276e57600080fd5b50565b6000813590506127808161275a565b92915050565b6000806040838503121561279d5761279c612335565b5b60006127ab85828601612771565b92505060206127bc85828601612403565b9150509250929050565b60006020820190506127db6000830184612460565b92915050565b600080604083850312156127f8576127f7612335565b5b600061280685828601612403565b925050602061281785828601612363565b9150509250929050565b6000806040838503121561283857612837612335565b5b600061284685828601612403565b925050602061285785828601612403565b9150509250929050565b60006020820190506128766000830184612445565b92915050565b600080fd5b600080fd5b6000601f19601f8301169050919050565b7f4e487b7100000000000000000000000000000000000000000000000000000000600052604160045260246000fd5b6128cf82612886565b810181811067ffffffffffffffff821117156128ee576128ed612897565b5b80604052505050565b600061290161232b565b905061290d82826128c6565b919050565b600067ffffffffffffffff82111561292d5761292c612897565b5b61293682612886565b9050602081019050919050565b82818337600083830152505050565b600061296561296084612912565b6128f7565b90508281526020810184848401111561298157612980612881565b5b61298c848285612943565b509392505050565b600082601f8301126129a9576129a861287c565b5b81356129b9848260208601612952565b91505092915050565b6000602082840312156129d8576129d7612335565b5b600082013567ffffffffffffffff8111156129f6576129f561233a565b5b612a0284828501612994565b91505092915050565b600067ffffffffffffffff821115612a2657612a25612897565b5b602082029050602081019050919050565b600080fd5b6000612a4f612a4a84612a0b565b6128f7565b90508083825260208201905060208402830185811115612a7257612a71612a37565b5b835b81811015612a9b5780612a878882612403565b845260208401935050602081019050612a74565b5050509392505050565b600082601f830112612aba57612ab961287c565b5b8135612aca848260208601612a3c565b91505092915050565b600060208284031215612ae957612ae8612335565b5b600082013567ffffffffffffffff811115612b0757612b0661233a565b5b612b1384828501612aa5565b91505092915050565b600082825260208201905092915050565b7f4f6e6c7920746865206f776e65722063616e2063616c6c20746869732066756e60008201527f6374696f6e2e0000000000000000000000000000000000000000000000000000602082015250565b6000612b89602683612b1c565b9150612b9482612b2d565b604082019050919050565b60006020820190508181036000830152612bb881612b7c565b9050919050565b7f4e487b7100000000000000000000000000000000000000000000000000000000600052601160045260246000fd5b6000612bf9826123b8565b9150612c04836123b8565b9250828201905080821115612c1c57612c1b612bbf565b5b92915050565b6000604082019050612c376000830185612445565b612c4460208301846123c2565b9392505050565b7f4e487b7100000000000000000000000000000000000000000000000000000000600052603260045260246000fd5b6000612c85826123b8565b91507fffffffffffffffffffffffffffffffffffffffffffffffffffffffffffffffff8203612cb757612cb6612bbf565b5b600182019050919050565b6000612ccd826123b8565b9150612cd8836123b8565b9250828202612ce6816123b8565b91508282048414831517612cfd57612cfc612bbf565b5b5092915050565b7f4e487b7100000000000000000000000000000000000000000000000000000000600052601260045260246000fd5b6000612d3e826123b8565b9150612d49836123b8565b925082612d5957612d58612d04565b5b828204905092915050565b6000612d6f826123b8565b9150612d7a836123b8565b9250828203905081811115612d9257612d91612bbf565b5b92915050565b7f436f6e747261637420646f6573206e6f74206861766520656e6f75676820667560008201527f6e64730000000000000000000000000000000000000000000000000000000000602082015250565b6000612df4602383612b1c565b9150612dff82612d98565b604082019050919050565b60006020820190508181036000830152612e2381612de7565b9050919050565b7f496e76616c6964207374617465206f722074696d650000000000000000000000600082015250565b6000612e60601583612b1c565b9150612e6b82612e2a565b602082019050919050565b60006020820190508181036000830152612e8f81612e53565b9050919050565b600081519050919050565b60005b83811015612ebf578082015181840152602081019050612ea4565b60008484015250505050565b6000612ed682612e96565b612ee08185612b1c565b9350612ef0818560208601612ea1565b612ef981612886565b840191505092915050565b60006020820190508181036000830152612f1e8184612ecb565b905092915050565b7f43616c6c6572206973206e6f7420746865206f776e6572000000000000000000600082015250565b6000612f5c601783612b1c565b9150612f6782612f26565b602082019050919050565b60006020820190508181036000830152612f8b81612f4f565b9050919050565b7f426574206973206e6f7420666f722073616c6500000000000000000000000000600082015250565b6000612fc8601383612b1c565b9150612fd382612f92565b602082019050919050565b60006020820190508181036000830152612ff781612fbb565b905091905056fea2646970667358221220054e5fef928aa38545e6ad9c30b924d1063e9601fc8e2cd406b60f512c694fee64736f6c63430008140033",
  "linkReferences": {},
  "deployedLinkReferences": {}
}