{
  "_format": "hh-sol-artifact-1",
  "contractName": "predMarket2",
  "sourceName": "contracts/LockV2.sol",
  "abi": [
    {
      "inputs": [
        {
          "internalType": "uint256",
          "name": "_endTime",
          "type": "uint256"
        }
      ],
      "stateMutability": "nonpayable",
      "type": "constructor"
    },
    {
      "inputs": [],
      "name": "ReentrancyGuardReentrantCall",
      "type": "error"
    },
    {
      "anonymous": false,
      "inputs": [],
      "name": "BetCancelled",
      "type": "event"
    },
    {
      "anonymous": false,
      "inputs": [],
      "name": "BetEdited",
      "type": "event"
    },
    {
      "anonymous": false,
      "inputs": [],
      "name": "BetUnlisted",
      "type": "event"
    },
    {
      "anonymous": false,
      "inputs": [
        {
          "indexed": true,
          "internalType": "address",
          "name": "beneficiary",
          "type": "address"
        },
        {
          "indexed": false,
          "internalType": "uint256",
          "name": "amount",
          "type": "uint256"
        }
      ],
      "name": "FundsRedistributed",
      "type": "event"
    },
    {
      "anonymous": false,
      "inputs": [],
      "name": "PayoutProcessed",
      "type": "event"
    },
    {
      "anonymous": false,
      "inputs": [
        {
          "indexed": false,
          "internalType": "uint32",
          "name": "position",
          "type": "uint32"
        },
        {
          "indexed": false,
          "internalType": "address",
          "name": "buyer",
          "type": "address"
        },
        {
          "indexed": false,
          "internalType": "uint96",
          "name": "amount",
          "type": "uint96"
        }
      ],
      "name": "userBoughtBet",
      "type": "event"
    },
    {
      "anonymous": false,
      "inputs": [
        {
          "indexed": false,
          "internalType": "uint32",
          "name": "positionInArray",
          "type": "uint32"
        }
      ],
      "name": "userCreatedABet",
      "type": "event"
    },
    {
      "anonymous": false,
      "inputs": [],
      "name": "userReListedBet",
      "type": "event"
    },
    {
      "anonymous": false,
      "inputs": [],
      "name": "userVoted",
      "type": "event"
    },
    {
      "anonymous": false,
      "inputs": [
        {
          "indexed": false,
          "internalType": "address",
          "name": "user",
          "type": "address"
        },
        {
          "indexed": false,
          "internalType": "uint96",
          "name": "amount",
          "type": "uint96"
        }
      ],
      "name": "userWithdrew",
      "type": "event"
    },
    {
      "anonymous": false,
      "inputs": [],
      "name": "winnerDeclaredVoting",
      "type": "event"
    },
    {
      "inputs": [],
      "name": "allBets_Balance",
      "outputs": [
        {
          "components": [
            {
              "internalType": "address",
              "name": "deployer",
              "type": "address"
            },
            {
              "internalType": "address",
              "name": "owner",
              "type": "address"
            },
            {
              "internalType": "uint96",
              "name": "amountDeployerLocked",
              "type": "uint96"
            },
            {
              "internalType": "uint96",
              "name": "amountBuyerLocked",
              "type": "uint96"
            },
            {
              "internalType": "uint96",
              "name": "amountToBuyFor",
              "type": "uint96"
            },
            {
              "internalType": "uint8",
              "name": "conditionForBuyerToWin",
              "type": "uint8"
            },
            {
              "internalType": "bool",
              "name": "selling",
              "type": "bool"
            },
            {
              "internalType": "bool",
              "name": "isActive",
              "type": "bool"
            },
            {
              "internalType": "uint32",
              "name": "positionInArray",
              "type": "uint32"
            }
          ],
          "internalType": "struct predMarket2.bet[]",
          "name": "activeBets",
          "type": "tuple[]"
        },
        {
          "internalType": "uint256",
          "name": "endTimeValue",
          "type": "uint256"
        },
        {
          "internalType": "uint8",
          "name": "winnerValue",
          "type": "uint8"
        },
        {
          "internalType": "enum predMarket2.RaffleState",
          "name": "state",
          "type": "uint8"
        },
        {
          "internalType": "uint256",
          "name": "votingEnd",
          "type": "uint256"
        },
        {
          "internalType": "uint96",
          "name": "balance",
          "type": "uint96"
        }
      ],
      "stateMutability": "view",
      "type": "function"
    },
    {
      "inputs": [
        {
          "internalType": "address",
          "name": "",
          "type": "address"
        }
      ],
      "name": "amountMadeFromSoldBets",
      "outputs": [
        {
          "internalType": "uint96",
          "name": "",
          "type": "uint96"
        }
      ],
      "stateMutability": "view",
      "type": "function"
    },
    {
      "inputs": [
        {
          "internalType": "uint256",
          "name": "",
          "type": "uint256"
        }
      ],
      "name": "arrayOfBets",
      "outputs": [
        {
          "internalType": "address",
          "name": "deployer",
          "type": "address"
        },
        {
          "internalType": "address",
          "name": "owner",
          "type": "address"
        },
        {
          "internalType": "uint96",
          "name": "amountDeployerLocked",
          "type": "uint96"
        },
        {
          "internalType": "uint96",
          "name": "amountBuyerLocked",
          "type": "uint96"
        },
        {
          "internalType": "uint96",
          "name": "amountToBuyFor",
          "type": "uint96"
        },
        {
          "internalType": "uint8",
          "name": "conditionForBuyerToWin",
          "type": "uint8"
        },
        {
          "internalType": "bool",
          "name": "selling",
          "type": "bool"
        },
        {
          "internalType": "bool",
          "name": "isActive",
          "type": "bool"
        },
        {
          "internalType": "uint32",
          "name": "positionInArray",
          "type": "uint32"
        }
      ],
      "stateMutability": "view",
      "type": "function"
    },
    {
      "inputs": [
        {
          "internalType": "address",
          "name": "",
          "type": "address"
        },
        {
          "internalType": "uint256",
          "name": "",
          "type": "uint256"
        }
      ],
      "name": "betsByUser",
      "outputs": [
        {
          "internalType": "uint32",
          "name": "",
          "type": "uint32"
        }
      ],
      "stateMutability": "view",
      "type": "function"
    },
    {
      "inputs": [
        {
          "internalType": "uint32",
          "name": "positionOfArray",
          "type": "uint32"
        }
      ],
      "name": "buyABet",
      "outputs": [],
      "stateMutability": "payable",
      "type": "function"
    },
    {
      "inputs": [
        {
          "internalType": "uint32",
          "name": "positionOfArray",
          "type": "uint32"
        }
      ],
      "name": "cancelOwnedBet",
      "outputs": [],
      "stateMutability": "nonpayable",
      "type": "function"
    },
    {
      "inputs": [
        {
          "internalType": "uint8",
          "name": "state",
          "type": "uint8"
        }
      ],
      "name": "changeState",
      "outputs": [],
      "stateMutability": "nonpayable",
      "type": "function"
    },
    {
      "inputs": [],
      "name": "creatorLocked",
      "outputs": [
        {
          "internalType": "uint96",
          "name": "",
          "type": "uint96"
        }
      ],
      "stateMutability": "view",
      "type": "function"
    },
    {
      "inputs": [
        {
          "internalType": "uint8",
          "name": "_winner",
          "type": "uint8"
        }
      ],
      "name": "declareWinner",
      "outputs": [],
      "stateMutability": "nonpayable",
      "type": "function"
    },
    {
      "inputs": [],
      "name": "disagreeWithOwner",
      "outputs": [],
      "stateMutability": "nonpayable",
      "type": "function"
    },
    {
      "inputs": [
        {
          "internalType": "uint32",
          "name": "positionOfArray",
          "type": "uint32"
        },
        {
          "internalType": "uint96",
          "name": "newDeployPrice",
          "type": "uint96"
        },
        {
          "internalType": "uint96",
          "name": "newAskingPrice",
          "type": "uint96"
        }
      ],
      "name": "editADeployedBet",
      "outputs": [],
      "stateMutability": "payable",
      "type": "function"
    },
    {
      "inputs": [],
      "name": "endOfVoting",
      "outputs": [
        {
          "internalType": "uint256",
          "name": "",
          "type": "uint256"
        }
      ],
      "stateMutability": "view",
      "type": "function"
    },
    {
      "inputs": [],
      "name": "owner",
      "outputs": [
        {
          "internalType": "address",
          "name": "",
          "type": "address"
        }
      ],
      "stateMutability": "view",
      "type": "function"
    },
    {
      "inputs": [],
      "name": "s_raffleState",
      "outputs": [
        {
          "internalType": "enum predMarket2.RaffleState",
          "name": "",
          "type": "uint8"
        }
      ],
      "stateMutability": "view",
      "type": "function"
    },
    {
      "inputs": [
        {
          "internalType": "uint96",
          "name": "amountToBuy",
          "type": "uint96"
        },
        {
          "internalType": "uint8",
          "name": "conditionToWIn",
          "type": "uint8"
        }
      ],
      "name": "sellANewBet",
      "outputs": [],
      "stateMutability": "payable",
      "type": "function"
    },
    {
      "inputs": [
        {
          "internalType": "uint32",
          "name": "positionOfArray",
          "type": "uint32"
        },
        {
          "internalType": "uint96",
          "name": "newAskingPrice",
          "type": "uint96"
        }
      ],
      "name": "sellAnExistingBet",
      "outputs": [],
      "stateMutability": "nonpayable",
      "type": "function"
    },
    {
      "inputs": [
        {
          "internalType": "uint32",
          "name": "",
          "type": "uint32"
        },
        {
          "internalType": "uint256",
          "name": "",
          "type": "uint256"
        }
      ],
      "name": "soldBetHistory",
      "outputs": [
        {
          "internalType": "address",
          "name": "buyer",
          "type": "address"
        },
        {
          "internalType": "address",
          "name": "previousOwner",
          "type": "address"
        },
        {
          "internalType": "uint96",
          "name": "amountPaid",
          "type": "uint96"
        }
      ],
      "stateMutability": "view",
      "type": "function"
    },
    {
      "inputs": [],
      "name": "staffPay",
      "outputs": [
        {
          "internalType": "uint96",
          "name": "",
          "type": "uint96"
        }
      ],
      "stateMutability": "view",
      "type": "function"
    },
    {
      "inputs": [],
      "name": "transferOwnerAmount",
      "outputs": [],
      "stateMutability": "nonpayable",
      "type": "function"
    },
    {
      "inputs": [],
      "name": "transferStaffAmount",
      "outputs": [],
      "stateMutability": "nonpayable",
      "type": "function"
    },
    {
      "inputs": [
        {
          "internalType": "uint32[]",
          "name": "positionsOfArray",
          "type": "uint32[]"
        }
      ],
      "name": "unlistBets",
      "outputs": [],
      "stateMutability": "nonpayable",
      "type": "function"
    },
    {
      "inputs": [],
      "name": "winner",
      "outputs": [
        {
          "internalType": "uint8",
          "name": "",
          "type": "uint8"
        }
      ],
      "stateMutability": "view",
      "type": "function"
    },
    {
      "inputs": [],
      "name": "withdraw",
      "outputs": [],
      "stateMutability": "nonpayable",
      "type": "function"
    }
  ],
  "bytecode": "0x60a0604052604051806020016040528073f39fd6e51aad88f6f4ce6ab8827279cfffb9226673ffffffffffffffffffffffffffffffffffffffff1673ffffffffffffffffffffffffffffffffffffffff16815250600190600162000065929190620001c8565b503480156200007357600080fd5b5060405162005c6938038062005c698339818101604052810190620000999190620002b6565b6001600081905550600073ffffffffffffffffffffffffffffffffffffffff163373ffffffffffffffffffffffffffffffffffffffff160362000113576040517f08c379a00000000000000000000000000000000000000000000000000000000081526004016200010a9062000349565b60405180910390fd5b42811162000158576040517f08c379a00000000000000000000000000000000000000000000000000000000081526004016200014f90620003bb565b60405180910390fd5b3373ffffffffffffffffffffffffffffffffffffffff1660808173ffffffffffffffffffffffffffffffffffffffff1681525050806005819055506000600660016101000a81548160ff02191690836003811115620001bc57620001bb620003dd565b5b0217905550506200040c565b82805482825590600052602060002090810192821562000244579160200282015b82811115620002435782518260006101000a81548173ffffffffffffffffffffffffffffffffffffffff021916908373ffffffffffffffffffffffffffffffffffffffff16021790555091602001919060010190620001e9565b5b50905062000253919062000257565b5090565b5b808211156200027257600081600090555060010162000258565b5090565b600080fd5b6000819050919050565b62000290816200027b565b81146200029c57600080fd5b50565b600081519050620002b08162000285565b92915050565b600060208284031215620002cf57620002ce62000276565b5b6000620002df848285016200029f565b91505092915050565b600082825260208201905092915050565b7f496e76616c6964206f776e657220616464726573730000000000000000000000600082015250565b600062000331601583620002e8565b91506200033e82620002f9565b602082019050919050565b60006020820190508181036000830152620003648162000322565b9050919050565b7f496e76616c696420656e642074696d6500000000000000000000000000000000600082015250565b6000620003a3601083620002e8565b9150620003b0826200036b565b602082019050919050565b60006020820190508181036000830152620003d68162000394565b9050919050565b7f4e487b7100000000000000000000000000000000000000000000000000000000600052602160045260246000fd5b608051615833620004366000396000818161221701528181612af80152612ca801526158336000f3fe6080604052600436106101405760003560e01c80637c54bafe116100b6578063a69fabbe1161006f578063a69fabbe1461040a578063b4a36fd714610433578063cc45483f1461044a578063dad2245e14610475578063dfbf53ae1461049e578063e694b1f9146104c957610140565b80637c54bafe146102df5780637e8873321461031c578063865f80c4146103475780638da5cb5b146103865780639e1bffe9146103b15780639f4e2b95146103ee57610140565b80633ccfd60b116101085780633ccfd60b146102235780634e33024a1461023a5780635d92614814610256578063607c9cea1461026d5780636afedac5146102985780637672ef7b146102c857610140565b806308abb88f146101455780631798b2ae14610161578063268f11531461018a57806330dda1c2146101b35780633658957e146101de575b600080fd5b61015f600480360381019061015a91906146e5565b6104f2565b005b34801561016d57600080fd5b5061018860048036038101906101839190614725565b6109d1565b005b34801561019657600080fd5b506101b160048036038101906101ac9190614725565b610d2a565b005b3480156101bf57600080fd5b506101c8610ea7565b6040516101d59190614761565b60405180910390f35b3480156101ea57600080fd5b50610205600480360381019061020091906147b2565b610ec5565b60405161021a99989796959493929190614869565b60405180910390f35b34801561022f57600080fd5b50610238610fe2565b005b610254600480360381019061024f9190614922565b6116af565b005b34801561026257600080fd5b5061026b611bdd565b005b34801561027957600080fd5b50610282611e9b565b60405161028f9190614761565b60405180910390f35b3480156102a457600080fd5b506102ad611eb9565b6040516102bf96959493929190614b87565b60405180910390f35b3480156102d457600080fd5b506102dd612026565b005b3480156102eb57600080fd5b5061030660048036038101906103019190614c1b565b612127565b6040516103139190614c5b565b60405180910390f35b34801561032857600080fd5b50610331612170565b60405161033e9190614c76565b60405180910390f35b34801561035357600080fd5b5061036e60048036038101906103699190614c91565b612176565b60405161037d93929190614cd1565b60405180910390f35b34801561039257600080fd5b5061039b612215565b6040516103a89190614d08565b60405180910390f35b3480156103bd57600080fd5b506103d860048036038101906103d39190614d23565b612239565b6040516103e59190614761565b60405180910390f35b61040860048036038101906104039190614d50565b612264565b005b34801561041657600080fd5b50610431600480360381019061042c9190614922565b6126dc565b005b34801561043f57600080fd5b50610448612a57565b005b34801561045657600080fd5b5061045f612d8b565b60405161046c9190614da3565b60405180910390f35b34801561048157600080fd5b5061049c60048036038101906104979190614dbe565b612d9e565b005b3480156104aa57600080fd5b506104b3612f11565b6040516104c09190614dfe565b60405180910390f35b3480156104d557600080fd5b506104f060048036038101906104eb9190614f72565b612f24565b005b6104fa61320e565b60008160ff16118015610511575060028160ff1611155b801561055057506000600381111561052c5761052b614b10565b5b600660019054906101000a900460ff16600381111561054e5761054d614b10565b5b145b8015610562575061012c600c80549050105b80156105b057506032600760003373ffffffffffffffffffffffffffffffffffffffff1673ffffffffffffffffffffffffffffffffffffffff16815260200190815260200160002080549050105b6105b957600080fd5b6bffffffffffffffffffffffff801634111561060a576040517f08c379a000000000000000000000000000000000000000000000000000000000815260040161060190615018565b60405180910390fd5b6bffffffffffffffffffffffff8016826bffffffffffffffffffffffff161115610669576040517f08c379a000000000000000000000000000000000000000000000000000000000815260040161066090615084565b60405180910390fd5b6000600c805490509050600760003373ffffffffffffffffffffffffffffffffffffffff1673ffffffffffffffffffffffffffffffffffffffff1681526020019081526020016000208190806001815401808255809150506001900390600052602060002090600891828204019190066004029091909190916101000a81548163ffffffff021916908363ffffffff160217905550600c6040518061012001604052803373ffffffffffffffffffffffffffffffffffffffff1681526020013373ffffffffffffffffffffffffffffffffffffffff168152602001346bffffffffffffffffffffffff16815260200160006bffffffffffffffffffffffff168152602001856bffffffffffffffffffffffff1681526020018460ff1681526020016001151581526020016001151581526020018363ffffffff16815250908060018154018082558091505060019003906000526020600020906003020160009091909190915060008201518160000160006101000a81548173ffffffffffffffffffffffffffffffffffffffff021916908373ffffffffffffffffffffffffffffffffffffffff16021790555060208201518160010160006101000a81548173ffffffffffffffffffffffffffffffffffffffff021916908373ffffffffffffffffffffffffffffffffffffffff16021790555060408201518160010160146101000a8154816bffffffffffffffffffffffff02191690836bffffffffffffffffffffffff16021790555060608201518160020160006101000a8154816bffffffffffffffffffffffff02191690836bffffffffffffffffffffffff160217905550608082015181600201600c6101000a8154816bffffffffffffffffffffffff02191690836bffffffffffffffffffffffff16021790555060a08201518160020160186101000a81548160ff021916908360ff16021790555060c08201518160020160196101000a81548160ff02191690831515021790555060e082015181600201601a6101000a81548160ff02191690831515021790555061010082015181600201601b6101000a81548163ffffffff021916908363ffffffff16021790555050507f0b4b5e3131d1a6216d8e3e183f564765b644accafead7bd164772dfca51172d7816040516109bc9190614c5b565b60405180910390a1506109cd613254565b5050565b6000805b600180549050811015610a6f573373ffffffffffffffffffffffffffffffffffffffff1660018281548110610a0d57610a0c6150a4565b5b9060005260206000200160009054906101000a900473ffffffffffffffffffffffffffffffffffffffff1673ffffffffffffffffffffffffffffffffffffffff1603610a5c5760019150610a6f565b8080610a6790615102565b9150506109d5565b5080610ab0576040517f08c379a0000000000000000000000000000000000000000000000000000000008152600401610aa790615196565b60405180910390fd5b610ab861320e565b60008260ff16118015610ace575060048260ff16105b610ad757600080fd5b60038260ff1603610b6257610aea61325e565b6003600660016101000a81548160ff02191690836003811115610b1057610b0f614b10565b5b02179055506003600660006101000a81548160ff021916908360ff1602179055507fbbfddbd2a33e1c8d143e1f8b564451965d01678a70438b79b4900cd033c12a2760405160405180910390a1610d1e565b60006003811115610b7657610b75614b10565b5b600660019054906101000a900460ff166003811115610b9857610b97614b10565b5b03610c1f5761012c42016003819055506001600660016101000a81548160ff02191690836003811115610bce57610bcd614b10565b5b021790555081600660006101000a81548160ff021916908360ff1602179055507fbbfddbd2a33e1c8d143e1f8b564451965d01678a70438b79b4900cd033c12a2760405160405180910390a1610d1d565b60016003811115610c3357610c32614b10565b5b600660019054906101000a900460ff166003811115610c5557610c54614b10565b5b148015610c63575060035442115b80610ca1575060026003811115610c7d57610c7c614b10565b5b600660019054906101000a900460ff166003811115610c9f57610c9e614b10565b5b145b610caa57600080fd5b81600660006101000a81548160ff021916908360ff1602179055506003600660016101000a81548160ff02191690836003811115610ceb57610cea614b10565b5b02179055507fbbfddbd2a33e1c8d143e1f8b564451965d01678a70438b79b4900cd033c12a2760405160405180910390a15b5b610d26613254565b5050565b6000805b600180549050811015610dc8573373ffffffffffffffffffffffffffffffffffffffff1660018281548110610d6657610d656150a4565b5b9060005260206000200160009054906101000a900473ffffffffffffffffffffffffffffffffffffffff1673ffffffffffffffffffffffffffffffffffffffff1603610db55760019150610dc8565b8080610dc090615102565b915050610d2e565b5080610e09576040517f08c379a0000000000000000000000000000000000000000000000000000000008152600401610e0090615196565b60405180910390fd5b600380811115610e1c57610e1b614b10565b5b60ff168260ff161115610e64576040517f08c379a0000000000000000000000000000000000000000000000000000000008152600401610e5b90615202565b60405180910390fd5b8160ff166003811115610e7a57610e79614b10565b5b600660016101000a81548160ff02191690836003811115610e9e57610e9d614b10565b5b02179055505050565b600460009054906101000a90046bffffffffffffffffffffffff1681565b600c8181548110610ed557600080fd5b90600052602060002090600302016000915090508060000160009054906101000a900473ffffffffffffffffffffffffffffffffffffffff16908060010160009054906101000a900473ffffffffffffffffffffffffffffffffffffffff16908060010160149054906101000a90046bffffffffffffffffffffffff16908060020160009054906101000a90046bffffffffffffffffffffffff169080600201600c9054906101000a90046bffffffffffffffffffffffff16908060020160189054906101000a900460ff16908060020160199054906101000a900460ff169080600201601a9054906101000a900460ff169080600201601b9054906101000a900463ffffffff16905089565b610fea61320e565b600380811115610ffd57610ffc614b10565b5b600660019054906101000a900460ff16600381111561101f5761101e614b10565b5b148061106b57506001600381111561103a57611039614b10565b5b600660019054906101000a900460ff16600381111561105c5761105b614b10565b5b14801561106a575060035442115b5b61107457600080fd5b6000600760003373ffffffffffffffffffffffffffffffffffffffff1673ffffffffffffffffffffffffffffffffffffffff168152602001908152602001600020905060008180549050116110c857600080fd5b60008060006003600660009054906101000a900460ff1660ff1614905060008480549050905060005b8163ffffffff168163ffffffff1610156112fd576000600c878363ffffffff1681548110611122576111216150a4565b5b90600052602060002090600891828204019190066004029054906101000a900463ffffffff1663ffffffff168154811061115f5761115e6150a4565b5b9060005260206000209060030201905083156112d4573373ffffffffffffffffffffffffffffffffffffffff168160010160009054906101000a900473ffffffffffffffffffffffffffffffffffffffff1673ffffffffffffffffffffffffffffffffffffffff1603611222578060020160009054906101000a90046bffffffffffffffffffffffff168601955060008160020160006101000a8154816bffffffffffffffffffffffff02191690836bffffffffffffffffffffffff1602179055505b3373ffffffffffffffffffffffffffffffffffffffff168160000160009054906101000a900473ffffffffffffffffffffffffffffffffffffffff1673ffffffffffffffffffffffffffffffffffffffff16036112cf578060010160149054906101000a90046bffffffffffffffffffffffff168601955060008160010160146101000a8154816bffffffffffffffffffffffff02191690836bffffffffffffffffffffffff1602179055505b6112f1565b6000806112e0836137a8565b915091508188019750808701965050505b816001019150506110f1565b508115801561131a57506000836bffffffffffffffffffffffff16115b1561148e5760006127106101f485026bffffffffffffffffffffffff168161134557611344615222565b5b049050806bffffffffffffffffffffffff16856bffffffffffffffffffffffff1610156113a7576040517f08c379a000000000000000000000000000000000000000000000000000000000815260040161139e9061529d565b60405180910390fd5b80850394506005600382026bffffffffffffffffffffffff16816113ce576113cd615222565b5b04600260008282829054906101000a90046bffffffffffffffffffffffff160192506101000a8154816bffffffffffffffffffffffff02191690836bffffffffffffffffffffffff1602179055506005600282026bffffffffffffffffffffffff168161143e5761143d615222565b5b04600460008282829054906101000a90046bffffffffffffffffffffffff160192506101000a8154816bffffffffffffffffffffffff02191690836bffffffffffffffffffffffff160217905550505b6000600860003373ffffffffffffffffffffffffffffffffffffffff1673ffffffffffffffffffffffffffffffffffffffff16815260200190815260200160002060009054906101000a90046bffffffffffffffffffffffff1690506000816bffffffffffffffffffffffff1611156115765780850194506000600860003373ffffffffffffffffffffffffffffffffffffffff1673ffffffffffffffffffffffffffffffffffffffff16815260200190815260200160002060006101000a8154816bffffffffffffffffffffffff02191690836bffffffffffffffffffffffff1602179055505b6000856bffffffffffffffffffffffff161180156115a25750846bffffffffffffffffffffffff164710155b6115ab57600080fd5b60003373ffffffffffffffffffffffffffffffffffffffff16866bffffffffffffffffffffffff166040516115df906152ee565b60006040518083038185875af1925050503d806000811461161c576040519150601f19603f3d011682016040523d82523d6000602084013e611621565b606091505b5050905080611665576040517f08c379a000000000000000000000000000000000000000000000000000000000815260040161165c9061534f565b60405180910390fd5b7f7c56f75f0792323f7b3e088b27db18b54add5b49e6a66c8471fa0ad872ba45ec338760405161169692919061536f565b60405180910390a1505050505050506116ad613254565b565b6116b761320e565b600060038111156116cb576116ca614b10565b5b600660019054906101000a900460ff1660038111156116ed576116ec614b10565b5b146116f757600080fd5b6000600c8263ffffffff1681548110611713576117126150a4565b5b9060005260206000209060030201905080600201601a9054906101000a900460ff168015611778575080600201600c9054906101000a90046bffffffffffffffffffffffff166bffffffffffffffffffffffff16346bffffffffffffffffffffffff16145b801561179257506bffffffffffffffffffffffff80163411155b80156117ac57508060020160199054906101000a900460ff165b801561180857503373ffffffffffffffffffffffffffffffffffffffff168160010160009054906101000a900473ffffffffffffffffffffffffffffffffffffffff1673ffffffffffffffffffffffffffffffffffffffff1614155b801561181e5750600c805490508263ffffffff16105b61182757600080fd5b60008160010160009054906101000a900473ffffffffffffffffffffffffffffffffffffffff16905060008260020160009054906101000a90046bffffffffffffffffffffffff166bffffffffffffffffffffffff16036118ba57348260020160006101000a8154816bffffffffffffffffffffffff02191690836bffffffffffffffffffffffff160217905550611aaa565b34600860008373ffffffffffffffffffffffffffffffffffffffff1673ffffffffffffffffffffffffffffffffffffffff16815260200190815260200160002060008282829054906101000a90046bffffffffffffffffffffffff160192506101000a8154816bffffffffffffffffffffffff02191690836bffffffffffffffffffffffff160217905550600960008463ffffffff1663ffffffff16815260200190815260200160002060405180606001604052803373ffffffffffffffffffffffffffffffffffffffff1681526020018373ffffffffffffffffffffffffffffffffffffffff168152602001346bffffffffffffffffffffffff16815250908060018154018082558091505060019003906000526020600020906002020160009091909190915060008201518160000160006101000a81548173ffffffffffffffffffffffffffffffffffffffff021916908373ffffffffffffffffffffffffffffffffffffffff16021790555060208201518160010160006101000a81548173ffffffffffffffffffffffffffffffffffffffff021916908373ffffffffffffffffffffffffffffffffffffffff16021790555060408201518160010160146101000a8154816bffffffffffffffffffffffff02191690836bffffffffffffffffffffffff16021790555050505b600760003373ffffffffffffffffffffffffffffffffffffffff1673ffffffffffffffffffffffffffffffffffffffff1681526020019081526020016000208390806001815401808255809150506001900390600052602060002090600891828204019190066004029091909190916101000a81548163ffffffff021916908363ffffffff160217905550338260010160006101000a81548173ffffffffffffffffffffffffffffffffffffffff021916908373ffffffffffffffffffffffffffffffffffffffff16021790555060008260020160196101000a81548160ff0219169083151502179055507fec6e7aa0c7c1fc30924d4ee935d53e6ea3d6eae81deea67a8f25021b0c8d15f1833334604051611bc893929190615398565b60405180910390a15050611bda613254565b50565b6000805b600180549050811015611c7b573373ffffffffffffffffffffffffffffffffffffffff1660018281548110611c1957611c186150a4565b5b9060005260206000200160009054906101000a900473ffffffffffffffffffffffffffffffffffffffff1673ffffffffffffffffffffffffffffffffffffffff1603611c685760019150611c7b565b8080611c7390615102565b915050611be1565b5080611cbc576040517f08c379a0000000000000000000000000000000000000000000000000000000008152600401611cb390615196565b60405180910390fd5b611cc461320e565b60016003811115611cd857611cd7614b10565b5b600660019054906101000a900460ff166003811115611cfa57611cf9614b10565b5b148015611d08575060035442115b80611d455750600380811115611d2157611d20614b10565b5b600660019054906101000a900460ff166003811115611d4357611d42614b10565b5b145b611d4e57600080fd5b6000600260009054906101000a90046bffffffffffffffffffffffff166bffffffffffffffffffffffff1611611d8357600080fd5b6000600260009054906101000a90046bffffffffffffffffffffffff1690506000600260006101000a8154816bffffffffffffffffffffffff02191690836bffffffffffffffffffffffff16021790555060003373ffffffffffffffffffffffffffffffffffffffff16826bffffffffffffffffffffffff16604051611e08906152ee565b60006040518083038185875af1925050503d8060008114611e45576040519150601f19603f3d011682016040523d82523d6000602084013e611e4a565b606091505b5050905080611e8e576040517f08c379a0000000000000000000000000000000000000000000000000000000008152600401611e859061534f565b60405180910390fd5b5050611e98613254565b50565b600260009054906101000a90046bffffffffffffffffffffffff1681565b6060600080600080600080600760003373ffffffffffffffffffffffffffffffffffffffff1673ffffffffffffffffffffffffffffffffffffffff1681526020019081526020016000209050600081805490509050600080611f1b8484613b74565b915091506003600660009054906101000a900460ff1660ff1614158015611f5057506000816bffffffffffffffffffffffff16115b15611fdc5760006064600583026bffffffffffffffffffffffff1681611f7957611f78615222565b5b049050600860003373ffffffffffffffffffffffffffffffffffffffff1673ffffffffffffffffffffffffffffffffffffffff16815260200190815260200160002060009054906101000a90046bffffffffffffffffffffffff16818403019250505b611fe4613cdb565b995089600554600660009054906101000a900460ff16600660019054906101000a900460ff166003548699509950995099509950995050505050909192939495565b61202e61320e565b6001600381111561204257612041614b10565b5b600660019054906101000a900460ff16600381111561206457612063614b10565b5b148015612072575060035442105b806120bd57506000600381111561208c5761208b614b10565b5b600660019054906101000a900460ff1660038111156120ae576120ad614b10565b5b1480156120bc575060055442115b5b6120c657600080fd5b6002600660016101000a81548160ff021916908360038111156120ec576120eb614b10565b5b02179055507f325941a5b65623f14f777a10c4ee68b69cec6214a44a48c1bb1c4991314755c060405160405180910390a1612125613254565b565b6007602052816000526040600020818154811061214357600080fd5b9060005260206000209060089182820401919006600402915091509054906101000a900463ffffffff1681565b60035481565b6009602052816000526040600020818154811061219257600080fd5b9060005260206000209060020201600091509150508060000160009054906101000a900473ffffffffffffffffffffffffffffffffffffffff16908060010160009054906101000a900473ffffffffffffffffffffffffffffffffffffffff16908060010160149054906101000a90046bffffffffffffffffffffffff16905083565b7f000000000000000000000000000000000000000000000000000000000000000081565b60086020528060005260406000206000915054906101000a90046bffffffffffffffffffffffff1681565b61226c61320e565b600c805490508363ffffffff16106122b9576040517f08c379a00000000000000000000000000000000000000000000000000000000081526004016122b09061541b565b60405180910390fd5b6000600c8463ffffffff16815481106122d5576122d46150a4565b5b906000526020600020906003020190503373ffffffffffffffffffffffffffffffffffffffff168160010160009054906101000a900473ffffffffffffffffffffffffffffffffffffffff1673ffffffffffffffffffffffffffffffffffffffff1614801561239357503373ffffffffffffffffffffffffffffffffffffffff168160000160009054906101000a900473ffffffffffffffffffffffffffffffffffffffff1673ffffffffffffffffffffffffffffffffffffffff16145b80156123ae57506000836bffffffffffffffffffffffff1610155b80156123c957506000826bffffffffffffffffffffffff1610155b80156123e3575080600201601a9054906101000a900460ff165b80156124225750600060038111156123fe576123fd614b10565b5b600660019054906101000a900460ff1660038111156124205761241f614b10565b5b145b612461576040517f08c379a000000000000000000000000000000000000000000000000000000000815260040161245890615487565b60405180910390fd5b60008160010160149054906101000a90046bffffffffffffffffffffffff169050806bffffffffffffffffffffffff16846bffffffffffffffffffffffff161461265157806bffffffffffffffffffffffff16846bffffffffffffffffffffffff1610156125c45760008482039050848360010160146101000a8154816bffffffffffffffffffffffff02191690836bffffffffffffffffffffffff16021790555060003373ffffffffffffffffffffffffffffffffffffffff16826bffffffffffffffffffffffff16604051612537906152ee565b60006040518083038185875af1925050503d8060008114612574576040519150601f19603f3d011682016040523d82523d6000602084013e612579565b606091505b50509050806125bd576040517f08c379a00000000000000000000000000000000000000000000000000000000081526004016125b4906154f3565b60405180910390fd5b5050612650565b60008185039050806bffffffffffffffffffffffff16341461261b576040517f08c379a00000000000000000000000000000000000000000000000000000000081526004016126129061555f565b60405180910390fd5b848360010160146101000a8154816bffffffffffffffffffffffff02191690836bffffffffffffffffffffffff160217905550505b5b8282600201600c6101000a8154816bffffffffffffffffffffffff02191690836bffffffffffffffffffffffff16021790555060018260020160196101000a81548160ff0219169083151502179055507ff75e56f787976a19558bde97657a643e88c61a76b39e41f3a06a120defa30d6160405160405180910390a150506126d7613254565b505050565b6126e461320e565b6000600c8263ffffffff1681548110612700576126ff6150a4565b5b906000526020600020906003020190503373ffffffffffffffffffffffffffffffffffffffff168160010160009054906101000a900473ffffffffffffffffffffffffffffffffffffffff1673ffffffffffffffffffffffffffffffffffffffff161480156127be57503373ffffffffffffffffffffffffffffffffffffffff168160000160009054906101000a900473ffffffffffffffffffffffffffffffffffffffff1673ffffffffffffffffffffffffffffffffffffffff16145b80156127d8575080600201601a9054906101000a900460ff165b612817576040517f08c379a000000000000000000000000000000000000000000000000000000000815260040161280e90615487565b60405180910390fd5b60008160010160149054906101000a90046bffffffffffffffffffffffff168260020160009054906101000a90046bffffffffffffffffffffffff1601905060008260010160006101000a81548173ffffffffffffffffffffffffffffffffffffffff021916908373ffffffffffffffffffffffffffffffffffffffff16021790555060008260000160006101000a81548173ffffffffffffffffffffffffffffffffffffffff021916908373ffffffffffffffffffffffffffffffffffffffff16021790555060008260020160006101000a8154816bffffffffffffffffffffffff02191690836bffffffffffffffffffffffff16021790555060008260010160146101000a8154816bffffffffffffffffffffffff02191690836bffffffffffffffffffffffff160217905550600082600201601a6101000a81548160ff02191690831515021790555060003373ffffffffffffffffffffffffffffffffffffffff16826bffffffffffffffffffffffff16604051612997906152ee565b60006040518083038185875af1925050503d80600081146129d4576040519150601f19603f3d011682016040523d82523d6000602084013e6129d9565b606091505b5050905080612a1d576040517f08c379a0000000000000000000000000000000000000000000000000000000008152600401612a149061534f565b60405180910390fd5b7fa9c660d43fdb14d4f7f7226623a556967689f58ee0e7c1a3397257bb909454c960405160405180910390a1505050612a54613254565b50565b6000805b600180549050811015612af5573373ffffffffffffffffffffffffffffffffffffffff1660018281548110612a9357612a926150a4565b5b9060005260206000200160009054906101000a900473ffffffffffffffffffffffffffffffffffffffff1673ffffffffffffffffffffffffffffffffffffffff1603612ae25760019150612af5565b8080612aed90615102565b915050612a5b565b507f000000000000000000000000000000000000000000000000000000000000000073ffffffffffffffffffffffffffffffffffffffff163373ffffffffffffffffffffffffffffffffffffffff161480612b4d5750805b612b8c576040517f08c379a0000000000000000000000000000000000000000000000000000000008152600401612b83906155f1565b60405180910390fd5b612b9461320e565b60016003811115612ba857612ba7614b10565b5b600660019054906101000a900460ff166003811115612bca57612bc9614b10565b5b148015612bd8575060035442115b80612c155750600380811115612bf157612bf0614b10565b5b600660019054906101000a900460ff166003811115612c1357612c12614b10565b5b145b612c1e57600080fd5b6000600460009054906101000a90046bffffffffffffffffffffffff166bffffffffffffffffffffffff1611612c5357600080fd5b6000600460009054906101000a90046bffffffffffffffffffffffff1690506000600460006101000a8154816bffffffffffffffffffffffff02191690836bffffffffffffffffffffffff16021790555060007f000000000000000000000000000000000000000000000000000000000000000073ffffffffffffffffffffffffffffffffffffffff16826bffffffffffffffffffffffff16604051612cf8906152ee565b60006040518083038185875af1925050503d8060008114612d35576040519150601f19603f3d011682016040523d82523d6000602084013e612d3a565b606091505b5050905080612d7e576040517f08c379a0000000000000000000000000000000000000000000000000000000008152600401612d759061534f565b60405180910390fd5b5050612d88613254565b50565b600660019054906101000a900460ff1681565b612da661320e565b60006003811115612dba57612db9614b10565b5b600660019054906101000a900460ff166003811115612ddc57612ddb614b10565b5b14612de657600080fd5b6000600c8363ffffffff1681548110612e0257612e016150a4565b5b906000526020600020906003020190503373ffffffffffffffffffffffffffffffffffffffff168160010160009054906101000a900473ffffffffffffffffffffffffffffffffffffffff1673ffffffffffffffffffffffffffffffffffffffff16148015612e7f575080600201601a9054906101000a900460ff165b612e8857600080fd5b8181600201600c6101000a8154816bffffffffffffffffffffffff02191690836bffffffffffffffffffffffff16021790555060018160020160196101000a81548160ff0219169083151502179055507f50c7c110b9cabc516cf0aef475d15558b239d0490f0389129f4e6b4c378dfa3d60405160405180910390a150612f0d613254565b5050565b600660009054906101000a900460ff1681565b612f2c61320e565b6005600760003373ffffffffffffffffffffffffffffffffffffffff1673ffffffffffffffffffffffffffffffffffffffff16815260200190815260200160002080549050612f7b9190615611565b81511115612f8857600080fd5b60005b81518163ffffffff1610156131d6576000828263ffffffff1681518110612fb557612fb46150a4565b5b602002602001015190503373ffffffffffffffffffffffffffffffffffffffff16600c8263ffffffff1681548110612ff057612fef6150a4565b5b906000526020600020906003020160010160009054906101000a900473ffffffffffffffffffffffffffffffffffffffff1673ffffffffffffffffffffffffffffffffffffffff1614613078576040517f08c379a000000000000000000000000000000000000000000000000000000000815260040161306f90615691565b60405180910390fd5b60011515600c8263ffffffff1681548110613096576130956150a4565b5b906000526020600020906003020160020160199054906101000a900460ff161515146130f7576040517f08c379a00000000000000000000000000000000000000000000000000000000081526004016130ee906156fd565b60405180910390fd5b600c8163ffffffff1681548110613111576131106150a4565b5b9060005260206000209060030201600201601a9054906101000a900460ff1661313957600080fd5b600c805490508163ffffffff1610613186576040517f08c379a000000000000000000000000000000000000000000000000000000000815260040161317d90615769565b60405180910390fd5b6000600c8263ffffffff16815481106131a2576131a16150a4565b5b906000526020600020906003020160020160196101000a81548160ff02191690831515021790555081600101915050612f8b565b507f1e5a109a2c5190a6567f1b2386d95213f70c40047a7d1f2fb64e5974c9a0043a60405160405180910390a161320b613254565b50565b60026000540361324a576040517f3ee5aeb500000000000000000000000000000000000000000000000000000000815260040160405180910390fd5b6002600081905550565b6001600081905550565b600b600061326c9190614567565b6000600c80549050905060005b8163ffffffff168163ffffffff16101561359f576000600960008363ffffffff1663ffffffff168152602001908152602001600020905060008180549050905060008111156135925760005b818110156135905760008382815481106132e2576132e16150a4565b5b906000526020600020906002020160000160009054906101000a900473ffffffffffffffffffffffffffffffffffffffff169050838281548110613329576133286150a4565b5b906000526020600020906002020160010160149054906101000a90046bffffffffffffffffffffffff16600a60008373ffffffffffffffffffffffffffffffffffffffff1673ffffffffffffffffffffffffffffffffffffffff16815260200190815260200160002060008282829054906101000a90046bffffffffffffffffffffffff160192506101000a8154816bffffffffffffffffffffffff02191690836bffffffffffffffffffffffff1602179055506000600a60008373ffffffffffffffffffffffffffffffffffffffff1673ffffffffffffffffffffffffffffffffffffffff16815260200190815260200160002060009054906101000a90046bffffffffffffffffffffffff166bffffffffffffffffffffffff16118015613458575061345681614073565b155b156134c157600b819080600181540180825580915050600190039060005260206000200160009091909190916101000a81548173ffffffffffffffffffffffffffffffffffffffff021916908373ffffffffffffffffffffffffffffffffffffffff1602179055505b6001836134ce9190615789565b820361358457836000815481106134e8576134e76150a4565b5b906000526020600020906002020160010160009054906101000a900473ffffffffffffffffffffffffffffffffffffffff16600c8663ffffffff1681548110613534576135336150a4565b5b906000526020600020906003020160010160006101000a81548173ffffffffffffffffffffffffffffffffffffffff021916908373ffffffffffffffffffffffffffffffffffffffff1602179055505b816001019150506132c5565b505b8260010192505050613279565b506000600b80549050905060005b818110156137a3576000600b82815481106135cb576135ca6150a4565b5b9060005260206000200160009054906101000a900473ffffffffffffffffffffffffffffffffffffffff1690506000600a60008373ffffffffffffffffffffffffffffffffffffffff1673ffffffffffffffffffffffffffffffffffffffff16815260200190815260200160002060009054906101000a90046bffffffffffffffffffffffff1690506000816bffffffffffffffffffffffff161115613796576000600a60008473ffffffffffffffffffffffffffffffffffffffff1673ffffffffffffffffffffffffffffffffffffffff16815260200190815260200160002060006101000a8154816bffffffffffffffffffffffff02191690836bffffffffffffffffffffffff16021790555060008273ffffffffffffffffffffffffffffffffffffffff16826bffffffffffffffffffffffff1660405161370e906152ee565b60006040518083038185875af1925050503d806000811461374b576040519150601f19603f3d011682016040523d82523d6000602084013e613750565b606091505b5050905080613794576040517f08c379a000000000000000000000000000000000000000000000000000000000815260040161378b906154f3565b60405180910390fd5b505b82600101925050506135ad565b505050565b6000803373ffffffffffffffffffffffffffffffffffffffff168360000160009054906101000a900473ffffffffffffffffffffffffffffffffffffffff1673ffffffffffffffffffffffffffffffffffffffff1614801561385957503373ffffffffffffffffffffffffffffffffffffffff168360010160009054906101000a900473ffffffffffffffffffffffffffffffffffffffff1673ffffffffffffffffffffffffffffffffffffffff16145b15613911578260020160009054906101000a90046bffffffffffffffffffffffff168360010160149054906101000a90046bffffffffffffffffffffffff166138a291906157bd565b915060008360010160146101000a8154816bffffffffffffffffffffffff02191690836bffffffffffffffffffffffff16021790555060008360020160006101000a8154816bffffffffffffffffffffffff02191690836bffffffffffffffffffffffff160217905550613b6f565b3373ffffffffffffffffffffffffffffffffffffffff168360010160009054906101000a900473ffffffffffffffffffffffffffffffffffffffff1673ffffffffffffffffffffffffffffffffffffffff161480156139955750600660009054906101000a900460ff1660ff168360020160189054906101000a900460ff1660ff16145b80613a2157503373ffffffffffffffffffffffffffffffffffffffff168360000160009054906101000a900473ffffffffffffffffffffffffffffffffffffffff1673ffffffffffffffffffffffffffffffffffffffff16148015613a205750600660009054906101000a900460ff1660ff168360020160189054906101000a900460ff1660ff1614155b5b15613b6e578260010160149054906101000a90046bffffffffffffffffffffffff168360020160009054906101000a90046bffffffffffffffffffffffff16613a6a91906157bd565b91503373ffffffffffffffffffffffffffffffffffffffff168360010160009054906101000a900473ffffffffffffffffffffffffffffffffffffffff1673ffffffffffffffffffffffffffffffffffffffff1614613ae5578260020160009054906101000a90046bffffffffffffffffffffffff16613b03565b8260010160149054906101000a90046bffffffffffffffffffffffff165b905060008360020160006101000a8154816bffffffffffffffffffffffff02191690836bffffffffffffffffffffffff16021790555060008360010160146101000a8154816bffffffffffffffffffffffff02191690836bffffffffffffffffffffffff1602179055505b5b915091565b60008060008367ffffffffffffffff811115613b9357613b92614e2f565b5b604051908082528060200260200182016040528015613bc15781602001602082028036833780820191505090505b5090506000805b85811015613cd1576000878281548110613be557613be46150a4565b5b90600052602060002090600891828204019190066004029054906101000a900463ffffffff1663ffffffff1690506000805b84811015613c545782868281518110613c3357613c326150a4565b5b602002602001015103613c495760019150613c54565b806001019050613c17565b5080613cc45781858581518110613c6e57613c6d6150a4565b5b6020026020010181815250508360010193506000600c8381548110613c9657613c956150a4565b5b90600052602060002090600302019050600080613cb28361411c565b91509150818a01995080890198505050505b8260010192505050613bc8565b5050509250929050565b60606000600c8054905090506000808267ffffffffffffffff811115613d0457613d03614e2f565b5b604051908082528060200260200182016040528015613d3d57816020015b613d2a614588565b815260200190600190039081613d225790505b50905060005b83811015613fc057600c8181548110613d5f57613d5e6150a4565b5b9060005260206000209060030201600201601a9054906101000a900460ff1615613fb557600c8181548110613d9757613d966150a4565b5b9060005260206000209060030201604051806101200160405290816000820160009054906101000a900473ffffffffffffffffffffffffffffffffffffffff1673ffffffffffffffffffffffffffffffffffffffff1673ffffffffffffffffffffffffffffffffffffffff1681526020016001820160009054906101000a900473ffffffffffffffffffffffffffffffffffffffff1673ffffffffffffffffffffffffffffffffffffffff1673ffffffffffffffffffffffffffffffffffffffff1681526020016001820160149054906101000a90046bffffffffffffffffffffffff166bffffffffffffffffffffffff166bffffffffffffffffffffffff1681526020016002820160009054906101000a90046bffffffffffffffffffffffff166bffffffffffffffffffffffff166bffffffffffffffffffffffff16815260200160028201600c9054906101000a90046bffffffffffffffffffffffff166bffffffffffffffffffffffff166bffffffffffffffffffffffff1681526020016002820160189054906101000a900460ff1660ff1660ff1681526020016002820160199054906101000a900460ff1615151515815260200160028201601a9054906101000a900460ff1615151515815260200160028201601b9054906101000a900463ffffffff1663ffffffff1663ffffffff1681525050828481518110613fa357613fa26150a4565b5b60200260200101819052508260010192505b806001019050613d43565b5060008267ffffffffffffffff811115613fdd57613fdc614e2f565b5b60405190808252806020026020018201604052801561401657816020015b614003614588565b815260200190600190039081613ffb5790505b50905060005b8381101561406857828181518110614037576140366150a4565b5b6020026020010151828281518110614052576140516150a4565b5b602002602001018190525080600101905061401c565b508094505050505090565b600080600b80549050905060005b81811015614110578373ffffffffffffffffffffffffffffffffffffffff16600b82815481106140b4576140b36150a4565b5b9060005260206000200160009054906101000a900473ffffffffffffffffffffffffffffffffffffffff1673ffffffffffffffffffffffffffffffffffffffff160361410557600192505050614117565b806001019050614081565b5060009150505b919050565b6000806000600660009054906101000a900460ff1660ff16036141455760008091509150614562565b6003600660009054906101000a900460ff1660ff1603614264573373ffffffffffffffffffffffffffffffffffffffff168360010160009054906101000a900473ffffffffffffffffffffffffffffffffffffffff1673ffffffffffffffffffffffffffffffffffffffff16036141d6578260020160009054906101000a90046bffffffffffffffffffffffff1691505b3373ffffffffffffffffffffffffffffffffffffffff168360000160009054906101000a900473ffffffffffffffffffffffffffffffffffffffff1673ffffffffffffffffffffffffffffffffffffffff1603614258578260010160149054906101000a90046bffffffffffffffffffffffff168261425591906157bd565b91505b81600091509150614562565b3373ffffffffffffffffffffffffffffffffffffffff168360000160009054906101000a900473ffffffffffffffffffffffffffffffffffffffff1673ffffffffffffffffffffffffffffffffffffffff1614801561431257503373ffffffffffffffffffffffffffffffffffffffff168360010160009054906101000a900473ffffffffffffffffffffffffffffffffffffffff1673ffffffffffffffffffffffffffffffffffffffff16145b15614366578260020160009054906101000a90046bffffffffffffffffffffffff168360010160149054906101000a90046bffffffffffffffffffffffff1661435b91906157bd565b600091509150614562565b60003373ffffffffffffffffffffffffffffffffffffffff168460010160009054906101000a900473ffffffffffffffffffffffffffffffffffffffff1673ffffffffffffffffffffffffffffffffffffffff161480156143ec5750600660009054906101000a900460ff1660ff168460020160189054906101000a900460ff1660ff16145b8061447857503373ffffffffffffffffffffffffffffffffffffffff168460000160009054906101000a900473ffffffffffffffffffffffffffffffffffffffff1673ffffffffffffffffffffffffffffffffffffffff161480156144775750600660009054906101000a900460ff1660ff168460020160189054906101000a900460ff1660ff1614155b5b90508015614560578360010160149054906101000a90046bffffffffffffffffffffffff168460020160009054906101000a90046bffffffffffffffffffffffff166144c491906157bd565b92503373ffffffffffffffffffffffffffffffffffffffff168460010160009054906101000a900473ffffffffffffffffffffffffffffffffffffffff1673ffffffffffffffffffffffffffffffffffffffff161461453f578360020160009054906101000a90046bffffffffffffffffffffffff1661455d565b8360010160149054906101000a90046bffffffffffffffffffffffff165b91505b505b915091565b50805460008255906000526020600020908101906145859190614637565b50565b604051806101200160405280600073ffffffffffffffffffffffffffffffffffffffff168152602001600073ffffffffffffffffffffffffffffffffffffffff16815260200160006bffffffffffffffffffffffff16815260200160006bffffffffffffffffffffffff16815260200160006bffffffffffffffffffffffff168152602001600060ff168152602001600015158152602001600015158152602001600063ffffffff1681525090565b5b80821115614650576000816000905550600101614638565b5090565b6000604051905090565b600080fd5b600080fd5b60006bffffffffffffffffffffffff82169050919050565b61468981614668565b811461469457600080fd5b50565b6000813590506146a681614680565b92915050565b600060ff82169050919050565b6146c2816146ac565b81146146cd57600080fd5b50565b6000813590506146df816146b9565b92915050565b600080604083850312156146fc576146fb61465e565b5b600061470a85828601614697565b925050602061471b858286016146d0565b9150509250929050565b60006020828403121561473b5761473a61465e565b5b6000614749848285016146d0565b91505092915050565b61475b81614668565b82525050565b60006020820190506147766000830184614752565b92915050565b6000819050919050565b61478f8161477c565b811461479a57600080fd5b50565b6000813590506147ac81614786565b92915050565b6000602082840312156147c8576147c761465e565b5b60006147d68482850161479d565b91505092915050565b600073ffffffffffffffffffffffffffffffffffffffff82169050919050565b600061480a826147df565b9050919050565b61481a816147ff565b82525050565b614829816146ac565b82525050565b60008115159050919050565b6148448161482f565b82525050565b600063ffffffff82169050919050565b6148638161484a565b82525050565b60006101208201905061487f600083018c614811565b61488c602083018b614811565b614899604083018a614752565b6148a66060830189614752565b6148b36080830188614752565b6148c060a0830187614820565b6148cd60c083018661483b565b6148da60e083018561483b565b6148e861010083018461485a565b9a9950505050505050505050565b6148ff8161484a565b811461490a57600080fd5b50565b60008135905061491c816148f6565b92915050565b6000602082840312156149385761493761465e565b5b60006149468482850161490d565b91505092915050565b600081519050919050565b600082825260208201905092915050565b6000819050602082019050919050565b614984816147ff565b82525050565b61499381614668565b82525050565b6149a2816146ac565b82525050565b6149b18161482f565b82525050565b6149c08161484a565b82525050565b610120820160008201516149dd600085018261497b565b5060208201516149f0602085018261497b565b506040820151614a03604085018261498a565b506060820151614a16606085018261498a565b506080820151614a29608085018261498a565b5060a0820151614a3c60a0850182614999565b5060c0820151614a4f60c08501826149a8565b5060e0820151614a6260e08501826149a8565b50610100820151614a776101008501826149b7565b50505050565b6000614a8983836149c6565b6101208301905092915050565b6000602082019050919050565b6000614aae8261494f565b614ab8818561495a565b9350614ac38361496b565b8060005b83811015614af4578151614adb8882614a7d565b9750614ae683614a96565b925050600181019050614ac7565b5085935050505092915050565b614b0a8161477c565b82525050565b7f4e487b7100000000000000000000000000000000000000000000000000000000600052602160045260246000fd5b60048110614b5057614b4f614b10565b5b50565b6000819050614b6182614b3f565b919050565b6000614b7182614b53565b9050919050565b614b8181614b66565b82525050565b600060c0820190508181036000830152614ba18189614aa3565b9050614bb06020830188614b01565b614bbd6040830187614820565b614bca6060830186614b78565b614bd76080830185614b01565b614be460a0830184614752565b979650505050505050565b614bf8816147ff565b8114614c0357600080fd5b50565b600081359050614c1581614bef565b92915050565b60008060408385031215614c3257614c3161465e565b5b6000614c4085828601614c06565b9250506020614c518582860161479d565b9150509250929050565b6000602082019050614c70600083018461485a565b92915050565b6000602082019050614c8b6000830184614b01565b92915050565b60008060408385031215614ca857614ca761465e565b5b6000614cb68582860161490d565b9250506020614cc78582860161479d565b9150509250929050565b6000606082019050614ce66000830186614811565b614cf36020830185614811565b614d006040830184614752565b949350505050565b6000602082019050614d1d6000830184614811565b92915050565b600060208284031215614d3957614d3861465e565b5b6000614d4784828501614c06565b91505092915050565b600080600060608486031215614d6957614d6861465e565b5b6000614d778682870161490d565b9350506020614d8886828701614697565b9250506040614d9986828701614697565b9150509250925092565b6000602082019050614db86000830184614b78565b92915050565b60008060408385031215614dd557614dd461465e565b5b6000614de38582860161490d565b9250506020614df485828601614697565b9150509250929050565b6000602082019050614e136000830184614820565b92915050565b600080fd5b6000601f19601f8301169050919050565b7f4e487b7100000000000000000000000000000000000000000000000000000000600052604160045260246000fd5b614e6782614e1e565b810181811067ffffffffffffffff82111715614e8657614e85614e2f565b5b80604052505050565b6000614e99614654565b9050614ea58282614e5e565b919050565b600067ffffffffffffffff821115614ec557614ec4614e2f565b5b602082029050602081019050919050565b600080fd5b6000614eee614ee984614eaa565b614e8f565b90508083825260208201905060208402830185811115614f1157614f10614ed6565b5b835b81811015614f3a5780614f26888261490d565b845260208401935050602081019050614f13565b5050509392505050565b600082601f830112614f5957614f58614e19565b5b8135614f69848260208601614edb565b91505092915050565b600060208284031215614f8857614f8761465e565b5b600082013567ffffffffffffffff811115614fa657614fa5614663565b5b614fb284828501614f44565b91505092915050565b600082825260208201905092915050565b7f416d6f756e7420746f6f206c6172676500000000000000000000000000000000600082015250565b6000615002601083614fbb565b915061500d82614fcc565b602082019050919050565b6000602082019050818103600083015261503181614ff5565b9050919050565b7f42757920616d6f756e7420746f6f206c61726765000000000000000000000000600082015250565b600061506e601483614fbb565b915061507982615038565b602082019050919050565b6000602082019050818103600083015261509d81615061565b9050919050565b7f4e487b7100000000000000000000000000000000000000000000000000000000600052603260045260246000fd5b7f4e487b7100000000000000000000000000000000000000000000000000000000600052601160045260246000fd5b600061510d8261477c565b91507fffffffffffffffffffffffffffffffffffffffffffffffffffffffffffffffff820361513f5761513e6150d3565b5b600182019050919050565b7f43616c6c6572206973206e6f742061207374616666206d656d62657200000000600082015250565b6000615180601c83614fbb565b915061518b8261514a565b602082019050919050565b600060208201905081810360008301526151af81615173565b9050919050565b7f496e76616c69642073746174652076616c756500000000000000000000000000600082015250565b60006151ec601383614fbb565b91506151f7826151b6565b602082019050919050565b6000602082019050818103600083015261521b816151df565b9050919050565b7f4e487b7100000000000000000000000000000000000000000000000000000000600052601260045260246000fd5b7f496e73756666696369656e742062616c616e636520666f722066656573000000600082015250565b6000615287601d83614fbb565b915061529282615251565b602082019050919050565b600060208201905081810360008301526152b68161527a565b9050919050565b600081905092915050565b50565b60006152d86000836152bd565b91506152e3826152c8565b600082019050919050565b60006152f9826152cb565b9150819050919050565b7f5472616e73666572206661696c65640000000000000000000000000000000000600082015250565b6000615339600f83614fbb565b915061534482615303565b602082019050919050565b600060208201905081810360008301526153688161532c565b9050919050565b60006040820190506153846000830185614811565b6153916020830184614752565b9392505050565b60006060820190506153ad600083018661485a565b6153ba6020830185614811565b6153c76040830184614752565b949350505050565b7f496e76616c696420706f736974696f6e00000000000000000000000000000000600082015250565b6000615405601083614fbb565b9150615410826153cf565b602082019050919050565b60006020820190508181036000830152615434816153f8565b9050919050565b7f4e6f7420617574686f72697a6564206f722062657420696e6163746976650000600082015250565b6000615471601e83614fbb565b915061547c8261543b565b602082019050919050565b600060208201905081810360008301526154a081615464565b9050919050565b7f526566756e64206661696c656400000000000000000000000000000000000000600082015250565b60006154dd600d83614fbb565b91506154e8826154a7565b602082019050919050565b6000602082019050818103600083015261550c816154d0565b9050919050565b7f496e636f72726563742076616c75652073656e74000000000000000000000000600082015250565b6000615549601483614fbb565b915061555482615513565b602082019050919050565b600060208201905081810360008301526155788161553c565b9050919050565b7f43616c6c6572206973206e6f7420746865206f776e6572206f7220612073746160008201527f6666206d656d6265720000000000000000000000000000000000000000000000602082015250565b60006155db602983614fbb565b91506155e68261557f565b604082019050919050565b6000602082019050818103600083015261560a816155ce565b9050919050565b600061561c8261477c565b91506156278361477c565b925082820190508082111561563f5761563e6150d3565b5b92915050565b7f43616c6c6572206973206e6f7420746865206f776e6572000000000000000000600082015250565b600061567b601783614fbb565b915061568682615645565b602082019050919050565b600060208201905081810360008301526156aa8161566e565b9050919050565b7f426574206973206e6f7420666f722073616c6500000000000000000000000000600082015250565b60006156e7601383614fbb565b91506156f2826156b1565b602082019050919050565b60006020820190508181036000830152615716816156da565b9050919050565b7f496e76616c696420506f736974696f6e00000000000000000000000000000000600082015250565b6000615753601083614fbb565b915061575e8261571d565b602082019050919050565b6000602082019050818103600083015261578281615746565b9050919050565b60006157948261477c565b915061579f8361477c565b92508282039050818111156157b7576157b66150d3565b5b92915050565b60006157c882614668565b91506157d383614668565b925082820190506bffffffffffffffffffffffff8111156157f7576157f66150d3565b5b9291505056fea26469706673582212208d6de7b2b432bc366053d1367b40b429adde7a706a57a963ffa6cca98017b49c64736f6c63430008140033",
  "linkReferences": {},
  "deployedLinkReferences": {}
}