{
  "_format": "hh-sol-artifact-1",
  "contractName": "predMarket",
  "sourceName": "contracts/Lock.sol",
  "abi": [
    {
      "inputs": [
        {
          "internalType": "uint256",
          "name": "timeToEnd",
          "type": "uint256"
        },
        {
          "internalType": "uint256",
          "name": "_odds1",
          "type": "uint256"
        },
        {
          "internalType": "uint256",
          "name": "_odds2",
          "type": "uint256"
        }
      ],
      "stateMutability": "nonpayable",
      "type": "constructor"
    },
    {
      "inputs": [
        {
          "internalType": "string",
          "name": "betAorB",
          "type": "string"
        }
      ],
      "name": "didNotBet",
      "type": "error"
    },
    {
      "inputs": [],
      "name": "BetA",
      "outputs": [
        {
          "internalType": "uint256",
          "name": "",
          "type": "uint256"
        }
      ],
      "stateMutability": "view",
      "type": "function"
    },
    {
      "inputs": [],
      "name": "BetB",
      "outputs": [
        {
          "internalType": "uint256",
          "name": "",
          "type": "uint256"
        }
      ],
      "stateMutability": "view",
      "type": "function"
    },
    {
      "inputs": [
        {
          "internalType": "uint256",
          "name": "",
          "type": "uint256"
        }
      ],
      "name": "arrayOfBettersA",
      "outputs": [
        {
          "internalType": "address payable",
          "name": "bettor",
          "type": "address"
        },
        {
          "internalType": "uint256",
          "name": "amount",
          "type": "uint256"
        }
      ],
      "stateMutability": "view",
      "type": "function"
    },
    {
      "inputs": [
        {
          "internalType": "uint256",
          "name": "",
          "type": "uint256"
        }
      ],
      "name": "arrayOfBettersB",
      "outputs": [
        {
          "internalType": "address payable",
          "name": "bettor",
          "type": "address"
        },
        {
          "internalType": "uint256",
          "name": "amount",
          "type": "uint256"
        }
      ],
      "stateMutability": "view",
      "type": "function"
    },
    {
      "inputs": [],
      "name": "assignEveryoneAmount",
      "outputs": [],
      "stateMutability": "nonpayable",
      "type": "function"
    },
    {
      "inputs": [],
      "name": "betOnBetA",
      "outputs": [
        {
          "internalType": "uint256",
          "name": "",
          "type": "uint256"
        }
      ],
      "stateMutability": "payable",
      "type": "function"
    },
    {
      "inputs": [],
      "name": "betOnBetB",
      "outputs": [
        {
          "internalType": "uint256",
          "name": "",
          "type": "uint256"
        }
      ],
      "stateMutability": "payable",
      "type": "function"
    },
    {
      "inputs": [],
      "name": "betterInfo",
      "outputs": [
        {
          "components": [
            {
              "internalType": "address payable",
              "name": "bettor",
              "type": "address"
            },
            {
              "internalType": "uint256",
              "name": "amount",
              "type": "uint256"
            },
            {
              "internalType": "uint256[2]",
              "name": "odds",
              "type": "uint256[2]"
            }
          ],
          "internalType": "struct predMarket.better",
          "name": "",
          "type": "tuple"
        },
        {
          "components": [
            {
              "internalType": "address payable",
              "name": "bettor",
              "type": "address"
            },
            {
              "internalType": "uint256",
              "name": "amount",
              "type": "uint256"
            },
            {
              "internalType": "uint256[2]",
              "name": "odds",
              "type": "uint256[2]"
            }
          ],
          "internalType": "struct predMarket.better",
          "name": "",
          "type": "tuple"
        }
      ],
      "stateMutability": "view",
      "type": "function"
    },
    {
      "inputs": [],
      "name": "disagree",
      "outputs": [
        {
          "internalType": "uint8",
          "name": "",
          "type": "uint8"
        }
      ],
      "stateMutability": "view",
      "type": "function"
    },
    {
      "inputs": [
        {
          "internalType": "uint8",
          "name": "wlc",
          "type": "uint8"
        }
      ],
      "name": "endBet",
      "outputs": [],
      "stateMutability": "nonpayable",
      "type": "function"
    },
    {
      "inputs": [],
      "name": "endTime",
      "outputs": [
        {
          "internalType": "uint256",
          "name": "",
          "type": "uint256"
        }
      ],
      "stateMutability": "view",
      "type": "function"
    },
    {
      "inputs": [
        {
          "internalType": "uint256",
          "name": "",
          "type": "uint256"
        }
      ],
      "name": "oddsBetA",
      "outputs": [
        {
          "internalType": "uint256",
          "name": "",
          "type": "uint256"
        }
      ],
      "stateMutability": "view",
      "type": "function"
    },
    {
      "inputs": [
        {
          "internalType": "uint256",
          "name": "",
          "type": "uint256"
        }
      ],
      "name": "oddsBetB",
      "outputs": [
        {
          "internalType": "uint256",
          "name": "",
          "type": "uint256"
        }
      ],
      "stateMutability": "view",
      "type": "function"
    },
    {
      "inputs": [
        {
          "internalType": "uint256",
          "name": "reduction",
          "type": "uint256"
        }
      ],
      "name": "reduceBetA",
      "outputs": [],
      "stateMutability": "nonpayable",
      "type": "function"
    },
    {
      "inputs": [
        {
          "internalType": "uint256",
          "name": "reduction",
          "type": "uint256"
        }
      ],
      "name": "reduceBetB",
      "outputs": [],
      "stateMutability": "nonpayable",
      "type": "function"
    },
    {
      "inputs": [],
      "name": "startTime",
      "outputs": [
        {
          "internalType": "uint256",
          "name": "",
          "type": "uint256"
        }
      ],
      "stateMutability": "view",
      "type": "function"
    },
    {
      "inputs": [],
      "name": "voteDisagree",
      "outputs": [],
      "stateMutability": "nonpayable",
      "type": "function"
    },
    {
      "inputs": [],
      "name": "voteTime",
      "outputs": [
        {
          "internalType": "uint256",
          "name": "",
          "type": "uint256"
        }
      ],
      "stateMutability": "view",
      "type": "function"
    },
    {
      "inputs": [],
      "name": "winner",
      "outputs": [
        {
          "internalType": "uint8",
          "name": "",
          "type": "uint8"
        }
      ],
      "stateMutability": "view",
      "type": "function"
    },
    {
      "inputs": [],
      "name": "withdrawA",
      "outputs": [],
      "stateMutability": "nonpayable",
      "type": "function"
    },
    {
      "inputs": [],
      "name": "withdrawB",
      "outputs": [],
      "stateMutability": "nonpayable",
      "type": "function"
    }
  ],
  "bytecode": "0x60a06040523480156200001157600080fd5b50604051620028d0380380620028d0833981810160405281019062000037919062000177565b6000600260006101000a81548160ff0219169083600481111562000060576200005f620001d3565b5b021790555042600481905550826004546200007c919062000231565b6003819055503373ffffffffffffffffffffffffffffffffffffffff1660808173ffffffffffffffffffffffffffffffffffffffff1681525050816007600060028110620000cf57620000ce6200026c565b5b0181905550806007600160028110620000ed57620000ec6200026c565b5b01819055508060096000600281106200010b576200010a6200026c565b5b01819055508160096001600281106200012957620001286200026c565b5b01819055505050506200029b565b600080fd5b6000819050919050565b62000151816200013c565b81146200015d57600080fd5b50565b600081519050620001718162000146565b92915050565b60008060006060848603121562000193576200019262000137565b5b6000620001a38682870162000160565b9350506020620001b68682870162000160565b9250506040620001c98682870162000160565b9150509250925092565b7f4e487b7100000000000000000000000000000000000000000000000000000000600052602160045260246000fd5b7f4e487b7100000000000000000000000000000000000000000000000000000000600052601160045260246000fd5b60006200023e826200013c565b91506200024b836200013c565b925082820190508082111562000266576200026562000202565b5b92915050565b7f4e487b7100000000000000000000000000000000000000000000000000000000600052603260045260246000fd5b608051612612620002be60003960008181610fc2015261193001526126126000f3fe60806040526004361061012a5760003560e01c806378e97925116100ab578063bcf93dd61161006f578063bcf93dd6146103a7578063c2b46468146103d2578063cd3c6c26146103fb578063cf8fc31d14610412578063dfbf53ae1461043d578063ec7690bf146104685761012a565b806378e97925146102c157806380687017146102ec57806385b4ae4314610303578063969ef62f146103415780639c4319671461036a5761012a565b80633197cbb6116100f25780633197cbb61461020b57806368e0b9f1146102365780636d3d0a8f146102545780637549487c1461027f578063772b5f08146102965761012a565b8063073f106a1461012f5780630eaa23ae1461015b57806310282b2b146101995780631628f2ea146101b05780632b1bd36d146101ce575b600080fd5b34801561013b57600080fd5b50610144610491565b604051610152929190611fb5565b60405180910390f35b34801561016757600080fd5b50610182600480360381019061017d9190612010565b6107d9565b60405161019092919061205b565b60405180910390f35b3480156101a557600080fd5b506101ae61082d565b005b6101b86108eb565b6040516101c59190612084565b60405180910390f35b3480156101da57600080fd5b506101f560048036038101906101f09190612010565b610b38565b6040516102029190612084565b60405180910390f35b34801561021757600080fd5b50610220610b53565b60405161022d9190612084565b60405180910390f35b61023e610b59565b60405161024b9190612084565b60405180910390f35b34801561026057600080fd5b50610269610da7565b60405161027691906120bb565b60405180910390f35b34801561028b57600080fd5b50610294610dba565b005b3480156102a257600080fd5b506102ab610fb4565b6040516102b89190612084565b60405180910390f35b3480156102cd57600080fd5b506102d6610fba565b6040516102e39190612084565b60405180910390f35b3480156102f857600080fd5b50610301610fc0565b005b34801561030f57600080fd5b5061032a60048036038101906103259190612010565b611178565b60405161033892919061205b565b60405180910390f35b34801561034d57600080fd5b5061036860048036038101906103639190612010565b6111cc565b005b34801561037657600080fd5b50610391600480360381019061038c9190612010565b611463565b60405161039e9190612084565b60405180910390f35b3480156103b357600080fd5b506103bc61147e565b6040516103c99190612084565b60405180910390f35b3480156103de57600080fd5b506103f960048036038101906103f49190612010565b611484565b005b34801561040757600080fd5b5061041061171b565b005b34801561041e57600080fd5b50610427611915565b6040516104349190612084565b60405180910390f35b34801561044957600080fd5b5061045261191b565b60405161045f91906120bb565b60405180910390f35b34801561047457600080fd5b5061048f600480360381019061048a9190612102565b61192e565b005b610499611dc1565b6104a1611dc1565b6104a9611dc1565b6000806000839050600084905060005b600b8054905081101561062e57600b81815481106104da576104d961212f565b5b906000526020600020906004020160000160009054906101000a900473ffffffffffffffffffffffffffffffffffffffff1673ffffffffffffffffffffffffffffffffffffffff163373ffffffffffffffffffffffffffffffffffffffff160361061b57600b81815481106105525761055161212f565b5b90600052602060002090600402016040518060600160405290816000820160009054906101000a900473ffffffffffffffffffffffffffffffffffffffff1673ffffffffffffffffffffffffffffffffffffffff1673ffffffffffffffffffffffffffffffffffffffff1681526020016001820154815260200160028201600280602002604051908101604052809291908260028015610607576020028201915b8154815260200190600101908083116105f3575b50505050508152505092506001945061062e565b80806106269061218d565b9150506104b9565b5060005b600c805490508110156107a757600c81815481106106535761065261212f565b5b906000526020600020906004020160000160009054906101000a900473ffffffffffffffffffffffffffffffffffffffff1673ffffffffffffffffffffffffffffffffffffffff163373ffffffffffffffffffffffffffffffffffffffff160361079457600c81815481106106cb576106ca61212f565b5b90600052602060002090600402016040518060600160405290816000820160009054906101000a900473ffffffffffffffffffffffffffffffffffffffff1673ffffffffffffffffffffffffffffffffffffffff1673ffffffffffffffffffffffffffffffffffffffff1681526020016001820154815260200160028201600280602002604051908101604052809291908260028015610780576020028201915b81548152602001906001019080831161076c575b5050505050815250509150600193506107a7565b808061079f9061218d565b915050610632565b50831580156107b4575082155b156107c95784859650965050505050506107d5565b81819650965050505050505b9091565b600c81815481106107e957600080fd5b90600052602060002090600402016000915090508060000160009054906101000a900473ffffffffffffffffffffffffffffffffffffffff16908060010154905082565b60016004811115610841576108406121d5565b5b600260009054906101000a900460ff166004811115610863576108626121d5565b5b1461086d57600080fd5b6001600660018282829054906101000a900460ff1661088c9190612204565b92506101000a81548160ff021916908360ff1602179055506005600660019054906101000a900460ff1660ff16106108e95760028060006101000a81548160ff021916908360048111156108e3576108e26121d5565b5b02179055505b565b6000806004811115610900576108ff6121d5565b5b600260009054906101000a900460ff166004811115610922576109216121d5565b5b1461092c57600080fd5b60005b600b80549050811015610a0d573373ffffffffffffffffffffffffffffffffffffffff16600b82815481106109675761096661212f565b5b906000526020600020906004020160000160009054906101000a900473ffffffffffffffffffffffffffffffffffffffff1673ffffffffffffffffffffffffffffffffffffffff16036109fa5734600b82815481106109c9576109c861212f565b5b906000526020600020906004020160010160008282546109e99190612239565b925050819055506000915050610b35565b8080610a059061218d565b91505061092f565b600060405180606001604052803373ffffffffffffffffffffffffffffffffffffffff1681526020013481526020016007600280602002604051908101604052809291908260028015610a75576020028201915b815481526020019060010190808311610a61575b5050505050815250905034600080828254610a909190612239565b92505081905550600b81908060018154018082558091505060019003906000526020600020906004020160009091909190915060008201518160000160006101000a81548173ffffffffffffffffffffffffffffffffffffffff021916908373ffffffffffffffffffffffffffffffffffffffff16021790555060208201518160010155604082015181600201906002610b2b929190611dfe565b5050506000925050505b90565b60078160028110610b4857600080fd5b016000915090505481565b60035481565b6000806004811115610b6e57610b6d6121d5565b5b600260009054906101000a900460ff166004811115610b9057610b8f6121d5565b5b14610b9a57600080fd5b60005b600c80549050811015610c7b573373ffffffffffffffffffffffffffffffffffffffff16600c8281548110610bd557610bd461212f565b5b906000526020600020906004020160000160009054906101000a900473ffffffffffffffffffffffffffffffffffffffff1673ffffffffffffffffffffffffffffffffffffffff1603610c685734600c8281548110610c3757610c3661212f565b5b90600052602060002090600402016001016000828254610c579190612239565b925050819055506000915050610da4565b8080610c739061218d565b915050610b9d565b600060405180606001604052803373ffffffffffffffffffffffffffffffffffffffff1681526020013481526020016009600280602002604051908101604052809291908260028015610ce3576020028201915b815481526020019060010190808311610ccf575b505050505081525090503460016000828254610cff9190612239565b92505081905550600c81908060018154018082558091505060019003906000526020600020906004020160009091909190915060008201518160000160006101000a81548173ffffffffffffffffffffffffffffffffffffffff021916908373ffffffffffffffffffffffffffffffffffffffff16021790555060208201518160010155604082015181600201906002610d9a929190611dfe565b5050506000925050505b90565b600660019054906101000a900460ff1681565b60036004811115610dce57610dcd6121d5565b5b600260009054906101000a900460ff166004811115610df057610def6121d5565b5b14610dfa57600080fd5b60005b600b80549050811015610fb1573373ffffffffffffffffffffffffffffffffffffffff16600b8281548110610e3557610e3461212f565b5b906000526020600020906004020160000160009054906101000a900473ffffffffffffffffffffffffffffffffffffffff1673ffffffffffffffffffffffffffffffffffffffff1603610f9e576000600b8281548110610e9857610e9761212f565b5b906000526020600020906004020160000160009054906101000a900473ffffffffffffffffffffffffffffffffffffffff1673ffffffffffffffffffffffffffffffffffffffff16600b8381548110610ef457610ef361212f565b5b906000526020600020906004020160010154604051610f129061229e565b60006040518083038185875af1925050503d8060008114610f4f576040519150601f19603f3d011682016040523d82523d6000602084013e610f54565b606091505b5050905080610f98576040517f08c379a0000000000000000000000000000000000000000000000000000000008152600401610f8f90612310565b60405180910390fd5b50610fb1565b8080610fa99061218d565b915050610dfd565b50565b60015481565b60045481565b7f000000000000000000000000000000000000000000000000000000000000000073ffffffffffffffffffffffffffffffffffffffff163373ffffffffffffffffffffffffffffffffffffffff161461104e576040517f08c379a0000000000000000000000000000000000000000000000000000000008152600401611045906123a2565b60405180910390fd5b60016004811115611062576110616121d5565b5b600260009054906101000a900460ff166004811115611084576110836121d5565b5b1461108e57600080fd5b60055442101561109d57600080fd5b6000600660009054906101000a900460ff1660ff16036110f3576110c3600b600c611b26565b6003600260006101000a81548160ff021916908360048111156110e9576110e86121d5565b5b0217905550611176565b6001600660009054906101000a900460ff1660ff160361114957611119600c600b611b26565b6003600260006101000a81548160ff0219169083600481111561113f5761113e6121d5565b5b0217905550611175565b6003600260006101000a81548160ff0219169083600481111561116f5761116e6121d5565b5b02179055505b5b565b600b818154811061118857600080fd5b90600052602060002090600402016000915090508060000160009054906101000a900473ffffffffffffffffffffffffffffffffffffffff16908060010154905082565b600060048111156111e0576111df6121d5565b5b600260009054906101000a900460ff166004811115611202576112016121d5565b5b1461120c57600080fd5b60005b600b8054905081101561145f573373ffffffffffffffffffffffffffffffffffffffff16600b82815481106112475761124661212f565b5b906000526020600020906004020160000160009054906101000a900473ffffffffffffffffffffffffffffffffffffffff1673ffffffffffffffffffffffffffffffffffffffff160361144b5781600b82815481106112a9576112a861212f565b5b906000526020600020906004020160010154106113f35781600b82815481106112d5576112d461212f565b5b906000526020600020906004020160010160008282546112f591906123c2565b925050819055506000600b82815481106113125761131161212f565b5b906000526020600020906004020160000160009054906101000a900473ffffffffffffffffffffffffffffffffffffffff1673ffffffffffffffffffffffffffffffffffffffff16836040516113679061229e565b60006040518083038185875af1925050503d80600081146113a4576040519150601f19603f3d011682016040523d82523d6000602084013e6113a9565b606091505b50509050806113ed576040517f08c379a00000000000000000000000000000000000000000000000000000000081526004016113e490612310565b60405180910390fd5b5061145f565b6001600b8054905061140591906123c2565b8103611446576040517f3a0ef94800000000000000000000000000000000000000000000000000000000815260040161143d90612442565b60405180910390fd5b61145a565b80806114569061218d565b9150505b61120f565b5050565b6009816002811061147357600080fd5b016000915090505481565b60055481565b60006004811115611498576114976121d5565b5b600260009054906101000a900460ff1660048111156114ba576114b96121d5565b5b146114c457600080fd5b60005b600c80549050811015611717573373ffffffffffffffffffffffffffffffffffffffff16600c82815481106114ff576114fe61212f565b5b906000526020600020906004020160000160009054906101000a900473ffffffffffffffffffffffffffffffffffffffff1673ffffffffffffffffffffffffffffffffffffffff16036117035781600c82815481106115615761156061212f565b5b906000526020600020906004020160010154106116ab5781600c828154811061158d5761158c61212f565b5b906000526020600020906004020160010160008282546115ad91906123c2565b925050819055506000600c82815481106115ca576115c961212f565b5b906000526020600020906004020160000160009054906101000a900473ffffffffffffffffffffffffffffffffffffffff1673ffffffffffffffffffffffffffffffffffffffff168360405161161f9061229e565b60006040518083038185875af1925050503d806000811461165c576040519150601f19603f3d011682016040523d82523d6000602084013e611661565b606091505b50509050806116a5576040517f08c379a000000000000000000000000000000000000000000000000000000000815260040161169c90612310565b60405180910390fd5b50611717565b6001600c805490506116bd91906123c2565b81036116fe576040517f3a0ef9480000000000000000000000000000000000000000000000000000000081526004016116f5906124ae565b60405180910390fd5b611712565b808061170e9061218d565b9150505b6114c7565b5050565b6003600481111561172f5761172e6121d5565b5b600260009054906101000a900460ff166004811115611751576117506121d5565b5b1461175b57600080fd5b60005b600c80549050811015611912573373ffffffffffffffffffffffffffffffffffffffff16600c82815481106117965761179561212f565b5b906000526020600020906004020160000160009054906101000a900473ffffffffffffffffffffffffffffffffffffffff1673ffffffffffffffffffffffffffffffffffffffff16036118ff576000600c82815481106117f9576117f861212f565b5b906000526020600020906004020160000160009054906101000a900473ffffffffffffffffffffffffffffffffffffffff1673ffffffffffffffffffffffffffffffffffffffff16600c83815481106118555761185461212f565b5b9060005260206000209060040201600101546040516118739061229e565b60006040518083038185875af1925050503d80600081146118b0576040519150601f19603f3d011682016040523d82523d6000602084013e6118b5565b606091505b50509050806118f9576040517f08c379a00000000000000000000000000000000000000000000000000000000081526004016118f090612310565b60405180910390fd5b50611912565b808061190a9061218d565b91505061175e565b50565b60005481565b600660009054906101000a900460ff1681565b7f000000000000000000000000000000000000000000000000000000000000000073ffffffffffffffffffffffffffffffffffffffff163373ffffffffffffffffffffffffffffffffffffffff16146119bc576040517f08c379a00000000000000000000000000000000000000000000000000000000081526004016119b3906123a2565b60405180910390fd5b600060048111156119d0576119cf6121d5565b5b600260009054906101000a900460ff1660048111156119f2576119f16121d5565b5b146119fc57600080fd5b600354421015611a0b57600080fd5b60008160ff161480611a20575060018160ff16145b80611a2e575060028160ff16145b611a6d576040517f08c379a0000000000000000000000000000000000000000000000000000000008152600401611a649061251a565b60405180910390fd5b60008160ff1603611a99576000600660006101000a81548160ff021916908360ff160217905550611ae3565b60018160ff1603611ac5576001600660006101000a81548160ff021916908360ff160217905550611ae2565b6002600660006101000a81548160ff021916908360ff1602179055505b5b6001600260006101000a81548160ff02191690836004811115611b0957611b086121d5565b5b02179055506201518042611b1d9190612239565b60058190555050565b60005b8180549050811015611dbc57600080838381548110611b4b57611b4a61212f565b5b9060005260206000209060040201600201600160028110611b6f57611b6e61212f565b5b0154848481548110611b8457611b8361212f565b5b9060005260206000209060040201600201600060028110611ba857611ba761212f565b5b0154858581548110611bbd57611bbc61212f565b5b906000526020600020906004020160010154611bd9919061253a565b611be391906125ab565b90505b8480549050821015611da7576000858381548110611c0757611c0661212f565b5b90600052602060002090600402016001015411611c31578180611c299061218d565b925050611da2565b80858381548110611c4557611c4461212f565b5b9060005260206000209060040201600101541115611cd85780858381548110611c7157611c7061212f565b5b90600052602060002090600402016001016000828254611c9191906123c2565b9250508190555080848481548110611cac57611cab61212f565b5b90600052602060002090600402016001016000828254611ccc9190612239565b92505081905550611da7565b848281548110611ceb57611cea61212f565b5b90600052602060002090600402016001015481611d0891906123c2565b9050848281548110611d1d57611d1c61212f565b5b906000526020600020906004020160010154848481548110611d4257611d4161212f565b5b90600052602060002090600402016001016000828254611d629190612239565b925050819055506000858381548110611d7e57611d7d61212f565b5b9060005260206000209060040201600101819055508180611d9e9061218d565b9250505b611be6565b8280611db29061218d565b9350505050611b29565b505050565b6040518060600160405280600073ffffffffffffffffffffffffffffffffffffffff16815260200160008152602001611df8611e3e565b81525090565b8260028101928215611e2d579160200282015b82811115611e2c578251825591602001919060010190611e11565b5b509050611e3a9190611e60565b5090565b6040518060400160405280600290602082028036833780820191505090505090565b5b80821115611e79576000816000905550600101611e61565b5090565b600073ffffffffffffffffffffffffffffffffffffffff82169050919050565b6000611ea882611e7d565b9050919050565b611eb881611e9d565b82525050565b6000819050919050565b611ed181611ebe565b82525050565b600060029050919050565b600081905092915050565b6000819050919050565b6000611f038383611ec8565b60208301905092915050565b6000602082019050919050565b611f2581611ed7565b611f2f8184611ee2565b9250611f3a82611eed565b8060005b83811015611f6b578151611f528782611ef7565b9650611f5d83611f0f565b925050600181019050611f3e565b505050505050565b608082016000820151611f896000850182611eaf565b506020820151611f9c6020850182611ec8565b506040820151611faf6040850182611f1c565b50505050565b600061010082019050611fcb6000830185611f73565b611fd86080830184611f73565b9392505050565b600080fd5b611fed81611ebe565b8114611ff857600080fd5b50565b60008135905061200a81611fe4565b92915050565b60006020828403121561202657612025611fdf565b5b600061203484828501611ffb565b91505092915050565b61204681611e9d565b82525050565b61205581611ebe565b82525050565b6000604082019050612070600083018561203d565b61207d602083018461204c565b9392505050565b6000602082019050612099600083018461204c565b92915050565b600060ff82169050919050565b6120b58161209f565b82525050565b60006020820190506120d060008301846120ac565b92915050565b6120df8161209f565b81146120ea57600080fd5b50565b6000813590506120fc816120d6565b92915050565b60006020828403121561211857612117611fdf565b5b6000612126848285016120ed565b91505092915050565b7f4e487b7100000000000000000000000000000000000000000000000000000000600052603260045260246000fd5b7f4e487b7100000000000000000000000000000000000000000000000000000000600052601160045260246000fd5b600061219882611ebe565b91507fffffffffffffffffffffffffffffffffffffffffffffffffffffffffffffffff82036121ca576121c961215e565b5b600182019050919050565b7f4e487b7100000000000000000000000000000000000000000000000000000000600052602160045260246000fd5b600061220f8261209f565b915061221a8361209f565b9250828201905060ff8111156122335761223261215e565b5b92915050565b600061224482611ebe565b915061224f83611ebe565b92508282019050808211156122675761226661215e565b5b92915050565b600081905092915050565b50565b600061228860008361226d565b915061229382612278565b600082019050919050565b60006122a98261227b565b9150819050919050565b600082825260208201905092915050565b7f5472616e73666572206661696c65640000000000000000000000000000000000600082015250565b60006122fa600f836122b3565b9150612305826122c4565b602082019050919050565b60006020820190508181036000830152612329816122ed565b9050919050565b7f4f6e6c7920746865206f776e65722063616e2063616c6c20746869732066756e60008201527f6374696f6e2e0000000000000000000000000000000000000000000000000000602082015250565b600061238c6026836122b3565b915061239782612330565b604082019050919050565b600060208201905081810360008301526123bb8161237f565b9050919050565b60006123cd82611ebe565b91506123d883611ebe565b92508282039050818111156123f0576123ef61215e565b5b92915050565b7f4e6f74204f6e2042657420410000000000000000000000000000000000000000600082015250565b600061242c600c836122b3565b9150612437826123f6565b602082019050919050565b6000602082019050818103600083015261245b8161241f565b9050919050565b7f4e6f74204f6e2042657420420000000000000000000000000000000000000000600082015250565b6000612498600c836122b3565b91506124a382612462565b602082019050919050565b600060208201905081810360008301526124c78161248b565b9050919050565b7f696e76616c696420696e70757400000000000000000000000000000000000000600082015250565b6000612504600d836122b3565b915061250f826124ce565b602082019050919050565b60006020820190508181036000830152612533816124f7565b9050919050565b600061254582611ebe565b915061255083611ebe565b925082820261255e81611ebe565b915082820484148315176125755761257461215e565b5b5092915050565b7f4e487b7100000000000000000000000000000000000000000000000000000000600052601260045260246000fd5b60006125b682611ebe565b91506125c183611ebe565b9250826125d1576125d061257c565b5b82820490509291505056fea26469706673582212200362d91fa1e1319adf7a4ae0b677d8a72fb4a99d51a1a62cd6150ba04ac7515164736f6c63430008130033",
  "linkReferences": {},
  "deployedLinkReferences": {}
}