{
  "_format": "hh-sol-artifact-1",
  "contractName": "predMarket2",
  "sourceName": "contracts/LockV2.sol",
  "abi": [
    {
      "inputs": [
        {
          "internalType": "uint256",
          "name": "_endTime",
          "type": "uint256"
        }
      ],
      "stateMutability": "nonpayable",
      "type": "constructor"
    },
    {
      "inputs": [],
      "name": "ReentrancyGuardReentrantCall",
      "type": "error"
    },
    {
      "anonymous": false,
      "inputs": [],
      "name": "BetEdited",
      "type": "event"
    },
    {
      "anonymous": false,
      "inputs": [],
      "name": "BetUnlisted",
      "type": "event"
    },
    {
      "anonymous": false,
      "inputs": [
        {
          "indexed": true,
          "internalType": "address",
          "name": "beneficiary",
          "type": "address"
        },
        {
          "indexed": false,
          "internalType": "uint256",
          "name": "amount",
          "type": "uint256"
        }
      ],
      "name": "FundsRedistributed",
      "type": "event"
    },
    {
      "anonymous": false,
      "inputs": [],
      "name": "PayoutProcessed",
      "type": "event"
    },
    {
      "anonymous": false,
      "inputs": [],
      "name": "userBoughtBet",
      "type": "event"
    },
    {
      "anonymous": false,
      "inputs": [],
      "name": "userCreatedABet",
      "type": "event"
    },
    {
      "anonymous": false,
      "inputs": [],
      "name": "userReListedBet",
      "type": "event"
    },
    {
      "anonymous": false,
      "inputs": [],
      "name": "userVoted",
      "type": "event"
    },
    {
      "anonymous": false,
      "inputs": [],
      "name": "userWithdrew",
      "type": "event"
    },
    {
      "anonymous": false,
      "inputs": [],
      "name": "winnerDeclaredVoting",
      "type": "event"
    },
    {
      "inputs": [],
      "name": "allBets_Balance",
      "outputs": [
        {
          "components": [
            {
              "internalType": "address",
              "name": "deployer",
              "type": "address"
            },
            {
              "internalType": "uint256",
              "name": "amountDeployerLocked",
              "type": "uint256"
            },
            {
              "internalType": "address",
              "name": "owner",
              "type": "address"
            },
            {
              "internalType": "uint256",
              "name": "amountBuyerLocked",
              "type": "uint256"
            },
            {
              "internalType": "uint256",
              "name": "amountToBuyFor",
              "type": "uint256"
            },
            {
              "internalType": "uint8",
              "name": "conditionForBuyerToWin",
              "type": "uint8"
            },
            {
              "internalType": "bool",
              "name": "selling",
              "type": "bool"
            },
            {
              "internalType": "uint256",
              "name": "positionInArray",
              "type": "uint256"
            }
          ],
          "internalType": "struct predMarket2.bet[]",
          "name": "",
          "type": "tuple[]"
        },
        {
          "internalType": "uint256",
          "name": "",
          "type": "uint256"
        },
        {
          "internalType": "uint8",
          "name": "",
          "type": "uint8"
        },
        {
          "internalType": "enum predMarket2.RaffleState",
          "name": "",
          "type": "uint8"
        },
        {
          "internalType": "uint256",
          "name": "",
          "type": "uint256"
        },
        {
          "internalType": "uint256",
          "name": "",
          "type": "uint256"
        }
      ],
      "stateMutability": "view",
      "type": "function"
    },
    {
      "inputs": [
        {
          "internalType": "address",
          "name": "",
          "type": "address"
        }
      ],
      "name": "amountMadeFromSoldBets",
      "outputs": [
        {
          "internalType": "uint256",
          "name": "",
          "type": "uint256"
        }
      ],
      "stateMutability": "view",
      "type": "function"
    },
    {
      "inputs": [
        {
          "internalType": "uint256",
          "name": "",
          "type": "uint256"
        }
      ],
      "name": "arrayOfBets",
      "outputs": [
        {
          "internalType": "address",
          "name": "deployer",
          "type": "address"
        },
        {
          "internalType": "uint256",
          "name": "amountDeployerLocked",
          "type": "uint256"
        },
        {
          "internalType": "address",
          "name": "owner",
          "type": "address"
        },
        {
          "internalType": "uint256",
          "name": "amountBuyerLocked",
          "type": "uint256"
        },
        {
          "internalType": "uint256",
          "name": "amountToBuyFor",
          "type": "uint256"
        },
        {
          "internalType": "uint8",
          "name": "conditionForBuyerToWin",
          "type": "uint8"
        },
        {
          "internalType": "bool",
          "name": "selling",
          "type": "bool"
        },
        {
          "internalType": "uint256",
          "name": "positionInArray",
          "type": "uint256"
        }
      ],
      "stateMutability": "view",
      "type": "function"
    },
    {
      "inputs": [
        {
          "internalType": "address",
          "name": "",
          "type": "address"
        },
        {
          "internalType": "uint256",
          "name": "",
          "type": "uint256"
        }
      ],
      "name": "betsByUser",
      "outputs": [
        {
          "internalType": "uint256",
          "name": "",
          "type": "uint256"
        }
      ],
      "stateMutability": "view",
      "type": "function"
    },
    {
      "inputs": [
        {
          "internalType": "uint256",
          "name": "positionOfArray",
          "type": "uint256"
        }
      ],
      "name": "buyABet",
      "outputs": [],
      "stateMutability": "payable",
      "type": "function"
    },
    {
      "inputs": [],
      "name": "creatorLocked",
      "outputs": [
        {
          "internalType": "uint256",
          "name": "",
          "type": "uint256"
        }
      ],
      "stateMutability": "view",
      "type": "function"
    },
    {
      "inputs": [
        {
          "internalType": "uint8",
          "name": "_winner",
          "type": "uint8"
        }
      ],
      "name": "declareWinner",
      "outputs": [],
      "stateMutability": "nonpayable",
      "type": "function"
    },
    {
      "inputs": [],
      "name": "disagreeWithOwner",
      "outputs": [],
      "stateMutability": "nonpayable",
      "type": "function"
    },
    {
      "inputs": [
        {
          "internalType": "uint256",
          "name": "positionOfArray",
          "type": "uint256"
        },
        {
          "internalType": "uint256",
          "name": "newDeployPrice",
          "type": "uint256"
        },
        {
          "internalType": "uint256",
          "name": "newAskingPrice",
          "type": "uint256"
        }
      ],
      "name": "editADeployedBet",
      "outputs": [],
      "stateMutability": "payable",
      "type": "function"
    },
    {
      "inputs": [],
      "name": "endOfVoting",
      "outputs": [
        {
          "internalType": "uint256",
          "name": "",
          "type": "uint256"
        }
      ],
      "stateMutability": "view",
      "type": "function"
    },
    {
      "inputs": [],
      "name": "owner",
      "outputs": [
        {
          "internalType": "address",
          "name": "",
          "type": "address"
        }
      ],
      "stateMutability": "view",
      "type": "function"
    },
    {
      "inputs": [],
      "name": "s_raffleState",
      "outputs": [
        {
          "internalType": "enum predMarket2.RaffleState",
          "name": "",
          "type": "uint8"
        }
      ],
      "stateMutability": "view",
      "type": "function"
    },
    {
      "inputs": [
        {
          "internalType": "uint256",
          "name": "amountToBuy",
          "type": "uint256"
        },
        {
          "internalType": "uint8",
          "name": "conditionToWIn",
          "type": "uint8"
        }
      ],
      "name": "sellANewBet",
      "outputs": [],
      "stateMutability": "payable",
      "type": "function"
    },
    {
      "inputs": [
        {
          "internalType": "uint256",
          "name": "positionOfArray",
          "type": "uint256"
        },
        {
          "internalType": "uint256",
          "name": "newAskingPrice",
          "type": "uint256"
        }
      ],
      "name": "sellAnExistingBet",
      "outputs": [],
      "stateMutability": "nonpayable",
      "type": "function"
    },
    {
      "inputs": [
        {
          "internalType": "uint256",
          "name": "",
          "type": "uint256"
        },
        {
          "internalType": "uint256",
          "name": "",
          "type": "uint256"
        }
      ],
      "name": "soldBetHistory",
      "outputs": [
        {
          "internalType": "address",
          "name": "buyer",
          "type": "address"
        },
        {
          "internalType": "address",
          "name": "previousOwner",
          "type": "address"
        },
        {
          "internalType": "uint256",
          "name": "amountPaid",
          "type": "uint256"
        }
      ],
      "stateMutability": "view",
      "type": "function"
    },
    {
      "inputs": [],
      "name": "staffPay",
      "outputs": [
        {
          "internalType": "uint256",
          "name": "",
          "type": "uint256"
        }
      ],
      "stateMutability": "view",
      "type": "function"
    },
    {
      "inputs": [],
      "name": "transferOwnerAmount",
      "outputs": [],
      "stateMutability": "nonpayable",
      "type": "function"
    },
    {
      "inputs": [],
      "name": "transferStaffAmount",
      "outputs": [],
      "stateMutability": "nonpayable",
      "type": "function"
    },
    {
      "inputs": [
        {
          "internalType": "uint256[]",
          "name": "positionsOfArray",
          "type": "uint256[]"
        }
      ],
      "name": "unlistBets",
      "outputs": [],
      "stateMutability": "nonpayable",
      "type": "function"
    },
    {
      "inputs": [],
      "name": "winner",
      "outputs": [
        {
          "internalType": "uint8",
          "name": "",
          "type": "uint8"
        }
      ],
      "stateMutability": "view",
      "type": "function"
    },
    {
      "inputs": [],
      "name": "withdraw",
      "outputs": [],
      "stateMutability": "nonpayable",
      "type": "function"
    }
  ],
  "bytecode": "0x60a0604052604051806020016040528073f39fd6e51aad88f6f4ce6ab8827279cfffb9226673ffffffffffffffffffffffffffffffffffffffff1673ffffffffffffffffffffffffffffffffffffffff1681525060019060016200006592919062000111565b503480156200007357600080fd5b5060405162004545380380620045458339818101604052810190620000999190620001ff565b60016000819055503373ffffffffffffffffffffffffffffffffffffffff1660808173ffffffffffffffffffffffffffffffffffffffff1681525050806005819055506000600660016101000a81548160ff0219169083600381111562000105576200010462000231565b5b02179055505062000260565b8280548282559060005260206000209081019282156200018d579160200282015b828111156200018c5782518260006101000a81548173ffffffffffffffffffffffffffffffffffffffff021916908373ffffffffffffffffffffffffffffffffffffffff1602179055509160200191906001019062000132565b5b5090506200019c9190620001a0565b5090565b5b80821115620001bb576000816000905550600101620001a1565b5090565b600080fd5b6000819050919050565b620001d981620001c4565b8114620001e557600080fd5b50565b600081519050620001f981620001ce565b92915050565b600060208284031215620002185762000217620001bf565b5b60006200022884828501620001e8565b91505092915050565b7f4e487b7100000000000000000000000000000000000000000000000000000000600052602160045260246000fd5b6080516142bb6200028a60003960008181611aea0152818161229001526123fd01526142bb6000f3fe60806040526004361061012a5760003560e01c80638da5cb5b116100ab578063b4a36fd71161006f578063b4a36fd714610398578063cc45483f146103af578063d38399ec146103da578063dfbf53ae14610403578063ee9891f11461042e578063f0d933771461044a5761012a565b80638da5cb5b146102cf5780639651b183146102fa57806397ecf900146103165780639e1bffe914610332578063a6c69ffe1461036f5761012a565b8063607c9cea116100f2578063607c9cea146101f55780636afedac5146102205780637672ef7b146102505780637c54bafe146102675780637e887332146102a45761012a565b80631798b2ae1461012f57806330dda1c2146101585780633658957e146101835780633ccfd60b146101c75780635d926148146101de575b600080fd5b34801561013b57600080fd5b5061015660048036038101906101519190613278565b610489565b005b34801561016457600080fd5b5061016d61080b565b60405161017a91906132be565b60405180910390f35b34801561018f57600080fd5b506101aa60048036038101906101a59190613305565b610811565b6040516101be98979695949392919061339d565b60405180910390f35b3480156101d357600080fd5b506101dc6108c3565b005b3480156101ea57600080fd5b506101f36110c2565b005b34801561020157600080fd5b5061020a6112d4565b60405161021791906132be565b60405180910390f35b34801561022c57600080fd5b506102356112da565b60405161024796959493929190613620565b60405180910390f35b34801561025c57600080fd5b5061026561197a565b005b34801561027357600080fd5b5061028e600480360381019061028991906136b4565b611ab1565b60405161029b91906132be565b60405180910390f35b3480156102b057600080fd5b506102b9611ae2565b6040516102c691906132be565b60405180910390f35b3480156102db57600080fd5b506102e4611ae8565b6040516102f191906136f4565b60405180910390f35b610314600480360381019061030f919061370f565b611b0c565b005b610330600480360381019061032b919061374f565b611dc0565b005b34801561033e57600080fd5b50610359600480360381019061035491906137a2565b612072565b60405161036691906132be565b60405180910390f35b34801561037b57600080fd5b50610396600480360381019061039191906137cf565b61208a565b005b3480156103a457600080fd5b506103ad6121ef565b005b3480156103bb57600080fd5b506103c4612477565b6040516103d1919061380f565b60405180910390f35b3480156103e657600080fd5b5061040160048036038101906103fc9190613983565b61248a565b005b34801561040f57600080fd5b50610418612673565b60405161042591906139cc565b60405180910390f35b61044860048036038101906104439190613305565b612686565b005b34801561045657600080fd5b50610471600480360381019061046c91906137cf565b612b8e565b604051610480939291906139e7565b60405180910390f35b6000805b600180549050811015610527573373ffffffffffffffffffffffffffffffffffffffff16600182815481106104c5576104c4613a1e565b5b9060005260206000200160009054906101000a900473ffffffffffffffffffffffffffffffffffffffff1673ffffffffffffffffffffffffffffffffffffffff16036105145760019150610527565b808061051f90613a7c565b91505061048d565b5080610568576040517f08c379a000000000000000000000000000000000000000000000000000000000815260040161055f90613b21565b60405180910390fd5b610570612c15565b60008260ff16118015610586575060048260ff16105b61058f57600080fd5b60038260ff16036105fe576105a2612c5b565b6003600660016101000a81548160ff021916908360038111156105c8576105c76135a9565b5b02179055507fbbfddbd2a33e1c8d143e1f8b564451965d01678a70438b79b4900cd033c12a2760405160405180910390a16107ff565b60006003811115610612576106116135a9565b5b600660019054906101000a900460ff166003811115610634576106336135a9565b5b036106ca57600042905061012c8161064c9190613b41565b6003819055506001600660016101000a81548160ff02191690836003811115610678576106776135a9565b5b021790555082600660006101000a81548160ff021916908360ff1602179055507fbbfddbd2a33e1c8d143e1f8b564451965d01678a70438b79b4900cd033c12a2760405160405180910390a1506107fe565b600160038111156106de576106dd6135a9565b5b600660019054906101000a900460ff166003811115610700576106ff6135a9565b5b14801561070e575060035442115b8061074c575060026003811115610728576107276135a9565b5b600660019054906101000a900460ff16600381111561074a576107496135a9565b5b145b61078b576040517f08c379a000000000000000000000000000000000000000000000000000000000815260040161078290613c0d565b60405180910390fd5b81600660006101000a81548160ff021916908360ff1602179055507fbbfddbd2a33e1c8d143e1f8b564451965d01678a70438b79b4900cd033c12a2760405160405180910390a16003600660016101000a81548160ff021916908360038111156107f8576107f76135a9565b5b02179055505b5b6108076131e3565b5050565b60045481565b600a818154811061082157600080fd5b90600052602060002090600702016000915090508060000160009054906101000a900473ffffffffffffffffffffffffffffffffffffffff16908060010154908060020160009054906101000a900473ffffffffffffffffffffffffffffffffffffffff16908060030154908060040154908060050160009054906101000a900460ff16908060050160019054906101000a900460ff16908060060154905088565b6108cb612c15565b6003808111156108de576108dd6135a9565b5b600660019054906101000a900460ff166003811115610900576108ff6135a9565b5b148061094c57506001600381111561091b5761091a6135a9565b5b600660019054906101000a900460ff16600381111561093d5761093c6135a9565b5b14801561094b575060035442115b5b61098b576040517f08c379a000000000000000000000000000000000000000000000000000000000815260040161098290613c79565b60405180910390fd5b6000600760003373ffffffffffffffffffffffffffffffffffffffff1673ffffffffffffffffffffffffffffffffffffffff16815260200190815260200160002090506000818054905011610a15576040517f08c379a0000000000000000000000000000000000000000000000000000000008152600401610a0c90613ce5565b60405180910390fd5b60008060006003600660009054906101000a900460ff1660ff1614905060005b8480549050811015610e8a576000858281548110610a5657610a55613a1e565b5b906000526020600020015490506000600a8281548110610a7957610a78613a1e565b5b906000526020600020906007020190508315610b7c573373ffffffffffffffffffffffffffffffffffffffff168160020160009054906101000a900473ffffffffffffffffffffffffffffffffffffffff1673ffffffffffffffffffffffffffffffffffffffff1603610b0357806003015486610af69190613b41565b9550600081600301819055505b3373ffffffffffffffffffffffffffffffffffffffff168160000160009054906101000a900473ffffffffffffffffffffffffffffffffffffffff1673ffffffffffffffffffffffffffffffffffffffff1603610b7757806001015486610b6a9190613b41565b9550600081600101819055505b610e75565b60003373ffffffffffffffffffffffffffffffffffffffff168260000160009054906101000a900473ffffffffffffffffffffffffffffffffffffffff1673ffffffffffffffffffffffffffffffffffffffff16148015610c2c57503373ffffffffffffffffffffffffffffffffffffffff168260020160009054906101000a900473ffffffffffffffffffffffffffffffffffffffff1673ffffffffffffffffffffffffffffffffffffffff16145b90508015610c6e5781600301548260010154610c489190613b41565b87610c539190613b41565b96506000826001018190555060008260030181905550610e73565b3373ffffffffffffffffffffffffffffffffffffffff168260020160009054906101000a900473ffffffffffffffffffffffffffffffffffffffff1673ffffffffffffffffffffffffffffffffffffffff16148015610cf25750600660009054906101000a900460ff1660ff168260050160009054906101000a900460ff1660ff16145b80610d7e57503373ffffffffffffffffffffffffffffffffffffffff168260000160009054906101000a900473ffffffffffffffffffffffffffffffffffffffff1673ffffffffffffffffffffffffffffffffffffffff16148015610d7d5750600660009054906101000a900460ff1660ff168260050160009054906101000a900460ff1660ff1614155b5b15610e7257600082600101548360030154610d999190613b41565b90508088610da79190613b41565b97503373ffffffffffffffffffffffffffffffffffffffff168360020160009054906101000a900473ffffffffffffffffffffffffffffffffffffffff1673ffffffffffffffffffffffffffffffffffffffff16148015610e2d5750600660009054906101000a900460ff1660ff168360050160009054906101000a900460ff1660ff16145b15610e4957826001015487610e429190613b41565b9650610e5c565b826003015487610e599190613b41565b96505b6000836003018190555060008360010181905550505b5b505b50508080610e8290613a7c565b915050610a35565b5080158015610e995750600082115b15610fbb57600061271061012c84610eb19190613d05565b610ebb9190613d76565b9050600061271060c885610ecf9190613d05565b610ed99190613d76565b90508160026000828254610eed9190613b41565b925050819055508060046000828254610f069190613b41565b925050819055508181610f199190613b41565b85610f249190613da7565b9450600860003373ffffffffffffffffffffffffffffffffffffffff1673ffffffffffffffffffffffffffffffffffffffff1681526020019081526020016000205485610f719190613b41565b94506000600860003373ffffffffffffffffffffffffffffffffffffffff1673ffffffffffffffffffffffffffffffffffffffff1681526020019081526020016000208190555050505b60008311610ffe576040517f08c379a0000000000000000000000000000000000000000000000000000000008152600401610ff590613e27565b60405180910390fd5b82471015611041576040517f08c379a000000000000000000000000000000000000000000000000000000000815260040161103890613e93565b60405180910390fd5b3373ffffffffffffffffffffffffffffffffffffffff166108fc849081150290604051600060405180830381858888f19350505050158015611087573d6000803e3d6000fd5b507fc3038e585f1bbb89a9a4ed41eb9b8f65d3589d382434df15a354153177e39bbd60405160405180910390a1505050506110c06131e3565b565b6000805b600180549050811015611160573373ffffffffffffffffffffffffffffffffffffffff16600182815481106110fe576110fd613a1e565b5b9060005260206000200160009054906101000a900473ffffffffffffffffffffffffffffffffffffffff1673ffffffffffffffffffffffffffffffffffffffff160361114d5760019150611160565b808061115890613a7c565b9150506110c6565b50806111a1576040517f08c379a000000000000000000000000000000000000000000000000000000000815260040161119890613b21565b60405180910390fd5b6111a9612c15565b600160038111156111bd576111bc6135a9565b5b600660019054906101000a900460ff1660038111156111df576111de6135a9565b5b1480156111ed575060035442115b8061122a5750600380811115611206576112056135a9565b5b600660019054906101000a900460ff166003811115611228576112276135a9565b5b145b611269576040517f08c379a000000000000000000000000000000000000000000000000000000000815260040161126090613eff565b60405180910390fd5b60006002541161127857600080fd5b3373ffffffffffffffffffffffffffffffffffffffff166108fc6002549081150290604051600060405180830381858888f193505050501580156112c0573d6000803e3d6000fd5b5060006002819055506112d16131e3565b50565b60025481565b6060600080600080600080600090506000600760003373ffffffffffffffffffffffffffffffffffffffff1673ffffffffffffffffffffffffffffffffffffffff16815260200190815260200160002090506000806003600660009054906101000a900460ff1660ff16149050600080600660009054906101000a900460ff1660ff1614905060005b848054905081101561174457600085828154811061138457611383613a1e565b5b906000526020600020015490506000600a82815481106113a7576113a6613a1e565b5b906000526020600020906007020190508361172f57841561149b573373ffffffffffffffffffffffffffffffffffffffff168160020160009054906101000a900473ffffffffffffffffffffffffffffffffffffffff1673ffffffffffffffffffffffffffffffffffffffff160361142c578060030154886114299190613b41565b97505b3373ffffffffffffffffffffffffffffffffffffffff168160000160009054906101000a900473ffffffffffffffffffffffffffffffffffffffff1673ffffffffffffffffffffffffffffffffffffffff1603611496578060010154886114939190613b41565b97505b61172e565b3373ffffffffffffffffffffffffffffffffffffffff168160000160009054906101000a900473ffffffffffffffffffffffffffffffffffffffff1673ffffffffffffffffffffffffffffffffffffffff1614801561154957503373ffffffffffffffffffffffffffffffffffffffff168160020160009054906101000a900473ffffffffffffffffffffffffffffffffffffffff1673ffffffffffffffffffffffffffffffffffffffff16145b1561157457806003015481600101546115629190613b41565b8861156d9190613b41565b975061172d565b3373ffffffffffffffffffffffffffffffffffffffff168160020160009054906101000a900473ffffffffffffffffffffffffffffffffffffffff1673ffffffffffffffffffffffffffffffffffffffff161480156115f85750600660009054906101000a900460ff1660ff168160050160009054906101000a900460ff1660ff16145b8061168457503373ffffffffffffffffffffffffffffffffffffffff168160000160009054906101000a900473ffffffffffffffffffffffffffffffffffffffff1673ffffffffffffffffffffffffffffffffffffffff161480156116835750600660009054906101000a900460ff1660ff168160050160009054906101000a900460ff1660ff1614155b5b1561172c578060010154816003015461169d9190613b41565b886116a89190613b41565b97503373ffffffffffffffffffffffffffffffffffffffff168160020160009054906101000a900473ffffffffffffffffffffffffffffffffffffffff1673ffffffffffffffffffffffffffffffffffffffff1603611718578060010154866117119190613b41565b955061172b565b8060030154866117289190613b41565b95505b5b5b5b5b5050808061173c90613a7c565b915050611363565b50811580156117535750600083115b156117d257600060646005856117699190613d05565b6117739190613d76565b905080866117819190613da7565b9550600860003373ffffffffffffffffffffffffffffffffffffffff1673ffffffffffffffffffffffffffffffffffffffff16815260200190815260200160002054866117ce9190613b41565b9550505b600a600554600660009054906101000a900460ff16600660019054906101000a900460ff166003548985805480602002602001604051908101604052809291908181526020016000905b8282101561195b5783829060005260206000209060070201604051806101000160405290816000820160009054906101000a900473ffffffffffffffffffffffffffffffffffffffff1673ffffffffffffffffffffffffffffffffffffffff1673ffffffffffffffffffffffffffffffffffffffff168152602001600182015481526020016002820160009054906101000a900473ffffffffffffffffffffffffffffffffffffffff1673ffffffffffffffffffffffffffffffffffffffff1673ffffffffffffffffffffffffffffffffffffffff16815260200160038201548152602001600482015481526020016005820160009054906101000a900460ff1660ff1660ff1681526020016005820160019054906101000a900460ff161515151581526020016006820154815250508152602001906001019061181c565b5050505095509a509a509a509a509a509a505050505050909192939495565b611982612c15565b60016003811115611996576119956135a9565b5b600660019054906101000a900460ff1660038111156119b8576119b76135a9565b5b1480156119c6575060035442105b80611a115750600060038111156119e0576119df6135a9565b5b600660019054906101000a900460ff166003811115611a0257611a016135a9565b5b148015611a10575060055442115b5b611a50576040517f08c379a0000000000000000000000000000000000000000000000000000000008152600401611a4790613eff565b60405180910390fd5b6002600660016101000a81548160ff02191690836003811115611a7657611a756135a9565b5b02179055507f325941a5b65623f14f777a10c4ee68b69cec6214a44a48c1bb1c4991314755c060405160405180910390a1611aaf6131e3565b565b60076020528160005260406000208181548110611acd57600080fd5b90600052602060002001600091509150505481565b60035481565b7f000000000000000000000000000000000000000000000000000000000000000081565b611b14612c15565b60008160ff16118015611b2b575060028160ff1611155b611b3457600080fd5b60003411611b4157600080fd5b60006003811115611b5557611b546135a9565b5b600660019054906101000a900460ff166003811115611b7757611b766135a9565b5b14611b8157600080fd5b60006040518061010001604052803373ffffffffffffffffffffffffffffffffffffffff1681526020013481526020013373ffffffffffffffffffffffffffffffffffffffff168152602001600081526020018481526020018360ff168152602001600115158152602001600a805490508152509050600760003373ffffffffffffffffffffffffffffffffffffffff1673ffffffffffffffffffffffffffffffffffffffff168152602001908152602001600020600a805490509080600181540180825580915050600190039060005260206000200160009091909190915055600a81908060018154018082558091505060019003906000526020600020906007020160009091909190915060008201518160000160006101000a81548173ffffffffffffffffffffffffffffffffffffffff021916908373ffffffffffffffffffffffffffffffffffffffff1602179055506020820151816001015560408201518160020160006101000a81548173ffffffffffffffffffffffffffffffffffffffff021916908373ffffffffffffffffffffffffffffffffffffffff160217905550606082015181600301556080820151816004015560a08201518160050160006101000a81548160ff021916908360ff16021790555060c08201518160050160016101000a81548160ff02191690831515021790555060e0820151816006015550507f9f9060b2035b3d98df4f62b3bbd9de8d98a49465ddcdd11c92f63c956df0442b60405160405180910390a150611dbc6131e3565b5050565b611dc8612c15565b6000600a8481548110611dde57611ddd613a1e565b5b906000526020600020906007020190503373ffffffffffffffffffffffffffffffffffffffff168160020160009054906101000a900473ffffffffffffffffffffffffffffffffffffffff1673ffffffffffffffffffffffffffffffffffffffff16148015611e9c57503373ffffffffffffffffffffffffffffffffffffffff168160000160009054906101000a900473ffffffffffffffffffffffffffffffffffffffff1673ffffffffffffffffffffffffffffffffffffffff16145b611edb576040517f08c379a0000000000000000000000000000000000000000000000000000000008152600401611ed290613f91565b60405180910390fd5b600081600101549050808414611ffa5780841015611f9c5760008482611f019190613da7565b905080471015611f46576040517f08c379a0000000000000000000000000000000000000000000000000000000008152600401611f3d90614023565b60405180910390fd5b8483600101819055503373ffffffffffffffffffffffffffffffffffffffff166108fc829081150290604051600060405180830381858888f19350505050158015611f95573d6000803e3d6000fd5b5050611ff9565b60008185611faa9190613da7565b9050803414611fee576040517f08c379a0000000000000000000000000000000000000000000000000000000008152600401611fe59061408f565b60405180910390fd5b848360010181905550505b5b8282600401819055508160050160019054906101000a900460ff166120375760018260050160016101000a81548160ff0219169083151502179055505b7ff75e56f787976a19558bde97657a643e88c61a76b39e41f3a06a120defa30d6160405160405180910390a1505061206d6131e3565b505050565b60086020528060005260406000206000915090505481565b612092612c15565b600060038111156120a6576120a56135a9565b5b600660019054906101000a900460ff1660038111156120c8576120c76135a9565b5b146120d257600080fd5b3373ffffffffffffffffffffffffffffffffffffffff16600a83815481106120fd576120fc613a1e565b5b906000526020600020906007020160020160009054906101000a900473ffffffffffffffffffffffffffffffffffffffff1673ffffffffffffffffffffffffffffffffffffffff161461214f57600080fd5b80600a838154811061216457612163613a1e565b5b9060005260206000209060070201600401819055506001600a838154811061218f5761218e613a1e565b5b906000526020600020906007020160050160016101000a81548160ff0219169083151502179055507f50c7c110b9cabc516cf0aef475d15558b239d0490f0389129f4e6b4c378dfa3d60405160405180910390a16121eb6131e3565b5050565b6000805b60018054905081101561228d573373ffffffffffffffffffffffffffffffffffffffff166001828154811061222b5761222a613a1e565b5b9060005260206000200160009054906101000a900473ffffffffffffffffffffffffffffffffffffffff1673ffffffffffffffffffffffffffffffffffffffff160361227a576001915061228d565b808061228590613a7c565b9150506121f3565b507f000000000000000000000000000000000000000000000000000000000000000073ffffffffffffffffffffffffffffffffffffffff163373ffffffffffffffffffffffffffffffffffffffff1614806122e55750805b612324576040517f08c379a000000000000000000000000000000000000000000000000000000000815260040161231b90614121565b60405180910390fd5b61232c612c15565b600160038111156123405761233f6135a9565b5b600660019054906101000a900460ff166003811115612362576123616135a9565b5b148015612370575060035442115b806123ad5750600380811115612389576123886135a9565b5b600660019054906101000a900460ff1660038111156123ab576123aa6135a9565b5b145b6123ec576040517f08c379a00000000000000000000000000000000000000000000000000000000081526004016123e390613eff565b60405180910390fd5b6000600454116123fb57600080fd5b7f000000000000000000000000000000000000000000000000000000000000000073ffffffffffffffffffffffffffffffffffffffff166108fc6004549081150290604051600060405180830381858888f19350505050158015612463573d6000803e3d6000fd5b5060006004819055506124746131e3565b50565b600660019054906101000a900460ff1681565b612492612c15565b60005b815181101561263b5760008282815181106124b3576124b2613a1e565b5b602002602001015190503373ffffffffffffffffffffffffffffffffffffffff16600a82815481106124e8576124e7613a1e565b5b906000526020600020906007020160020160009054906101000a900473ffffffffffffffffffffffffffffffffffffffff1673ffffffffffffffffffffffffffffffffffffffff1614612570576040517f08c379a00000000000000000000000000000000000000000000000000000000081526004016125679061418d565b60405180910390fd5b60011515600a828154811061258857612587613a1e565b5b906000526020600020906007020160050160019054906101000a900460ff161515146125e9576040517f08c379a00000000000000000000000000000000000000000000000000000000081526004016125e0906141f9565b60405180910390fd5b6000600a82815481106125ff576125fe613a1e565b5b906000526020600020906007020160050160016101000a81548160ff02191690831515021790555050808061263390613a7c565b915050612495565b507f1e5a109a2c5190a6567f1b2386d95213f70c40047a7d1f2fb64e5974c9a0043a60405160405180910390a16126706131e3565b50565b600660009054906101000a900460ff1681565b61268e612c15565b600060038111156126a2576126a16135a9565b5b600660019054906101000a900460ff1660038111156126c4576126c36135a9565b5b146126ce57600080fd5b600a81815481106126e2576126e1613a1e565b5b90600052602060002090600702016004015434146126ff57600080fd5b60011515600a828154811061271757612716613a1e565b5b906000526020600020906007020160050160019054906101000a900460ff1615151461274257600080fd5b3373ffffffffffffffffffffffffffffffffffffffff16600a828154811061276d5761276c613a1e565b5b906000526020600020906007020160020160009054906101000a900473ffffffffffffffffffffffffffffffffffffffff1673ffffffffffffffffffffffffffffffffffffffff16036127f5576040517f08c379a00000000000000000000000000000000000000000000000000000000081526004016127ec90614265565b60405180910390fd5b6000600a828154811061280b5761280a613a1e565b5b906000526020600020906007020160030154036128515734600a828154811061283757612836613a1e565b5b906000526020600020906007020160030181905550612a4f565b6009600082815260200190815260200160002060405180606001604052803373ffffffffffffffffffffffffffffffffffffffff168152602001600a848154811061289f5761289e613a1e565b5b906000526020600020906007020160020160009054906101000a900473ffffffffffffffffffffffffffffffffffffffff1673ffffffffffffffffffffffffffffffffffffffff16815260200134815250908060018154018082558091505060019003906000526020600020906003020160009091909190915060008201518160000160006101000a81548173ffffffffffffffffffffffffffffffffffffffff021916908373ffffffffffffffffffffffffffffffffffffffff16021790555060208201518160010160006101000a81548173ffffffffffffffffffffffffffffffffffffffff021916908373ffffffffffffffffffffffffffffffffffffffff1602179055506040820151816002015550503460086000600a84815481106129cc576129cb613a1e565b5b906000526020600020906007020160020160009054906101000a900473ffffffffffffffffffffffffffffffffffffffff1673ffffffffffffffffffffffffffffffffffffffff1673ffffffffffffffffffffffffffffffffffffffff1681526020019081526020016000206000828254612a479190613b41565b925050819055505b600760003373ffffffffffffffffffffffffffffffffffffffff1673ffffffffffffffffffffffffffffffffffffffff16815260200190815260200160002081908060018154018082558091505060019003906000526020600020016000909190919091505533600a8281548110612aca57612ac9613a1e565b5b906000526020600020906007020160020160006101000a81548173ffffffffffffffffffffffffffffffffffffffff021916908373ffffffffffffffffffffffffffffffffffffffff1602179055506000600a8281548110612b2f57612b2e613a1e565b5b906000526020600020906007020160050160016101000a81548160ff0219169083151502179055507f34825dc172bd596324998d16543dc86015d6a6dd51a29758081d1f535c18b59d60405160405180910390a1612b8b6131e3565b50565b60096020528160005260406000208181548110612baa57600080fd5b9060005260206000209060030201600091509150508060000160009054906101000a900473ffffffffffffffffffffffffffffffffffffffff16908060010160009054906101000a900473ffffffffffffffffffffffffffffffffffffffff16908060020154905083565b600260005403612c51576040517f3ee5aeb500000000000000000000000000000000000000000000000000000000815260040160405180910390fd5b6002600081905550565b6000805b600180549050811015612cf9573373ffffffffffffffffffffffffffffffffffffffff1660018281548110612c9757612c96613a1e565b5b9060005260206000200160009054906101000a900473ffffffffffffffffffffffffffffffffffffffff1673ffffffffffffffffffffffffffffffffffffffff1603612ce65760019150612cf9565b8080612cf190613a7c565b915050612c5f565b5080612d3a576040517f08c379a0000000000000000000000000000000000000000000000000000000008152600401612d3190613b21565b60405180910390fd5b600c6000612d4891906131ed565b60005b600a8054905081101561309c576000600960008381526020019081526020016000208054905011156130895760005b6009600083815260200190815260200160002080549050811015613087576000600960008481526020019081526020016000208281548110612dbf57612dbe613a1e565b5b906000526020600020906003020160000160009054906101000a900473ffffffffffffffffffffffffffffffffffffffff1690506000600960008581526020019081526020016000208381548110612e1a57612e19613a1e565b5b90600052602060002090600302016002015490506000805b600c80549050811015612ecc578373ffffffffffffffffffffffffffffffffffffffff16600c8281548110612e6a57612e69613a1e565b5b9060005260206000200160009054906101000a900473ffffffffffffffffffffffffffffffffffffffff1673ffffffffffffffffffffffffffffffffffffffff1603612eb95760019150612ecc565b8080612ec490613a7c565b915050612e32565b5080612f3657600c839080600181540180825580915050600190039060005260206000200160009091909190916101000a81548173ffffffffffffffffffffffffffffffffffffffff021916908373ffffffffffffffffffffffffffffffffffffffff1602179055505b81600b60008573ffffffffffffffffffffffffffffffffffffffff1673ffffffffffffffffffffffffffffffffffffffff1681526020019081526020016000206000828254612f859190613b41565b9250508190555060016009600087815260200190815260200160002080549050612faf9190613da7565b84036130715760096000868152602001908152602001600020600081548110612fdb57612fda613a1e565b5b906000526020600020906003020160010160009054906101000a900473ffffffffffffffffffffffffffffffffffffffff16600a868154811061302157613020613a1e565b5b906000526020600020906007020160020160006101000a81548173ffffffffffffffffffffffffffffffffffffffff021916908373ffffffffffffffffffffffffffffffffffffffff1602179055505b505050808061307f90613a7c565b915050612d7a565b505b808061309490613a7c565b915050612d4b565b5060005b600c805490508110156131df576000600c82815481106130c3576130c2613a1e565b5b9060005260206000200160009054906101000a900473ffffffffffffffffffffffffffffffffffffffff1690506000600b60008373ffffffffffffffffffffffffffffffffffffffff1673ffffffffffffffffffffffffffffffffffffffff16815260200190815260200160002054905060008111156131ca578173ffffffffffffffffffffffffffffffffffffffff166108fc829081150290604051600060405180830381858888f19350505050158015613183573d6000803e3d6000fd5b506000600b60008473ffffffffffffffffffffffffffffffffffffffff1673ffffffffffffffffffffffffffffffffffffffff168152602001908152602001600020819055505b505080806131d790613a7c565b9150506130a0565b5050565b6001600081905550565b508054600082559060005260206000209081019061320b919061320e565b50565b5b8082111561322757600081600090555060010161320f565b5090565b6000604051905090565b600080fd5b600080fd5b600060ff82169050919050565b6132558161323f565b811461326057600080fd5b50565b6000813590506132728161324c565b92915050565b60006020828403121561328e5761328d613235565b5b600061329c84828501613263565b91505092915050565b6000819050919050565b6132b8816132a5565b82525050565b60006020820190506132d360008301846132af565b92915050565b6132e2816132a5565b81146132ed57600080fd5b50565b6000813590506132ff816132d9565b92915050565b60006020828403121561331b5761331a613235565b5b6000613329848285016132f0565b91505092915050565b600073ffffffffffffffffffffffffffffffffffffffff82169050919050565b600061335d82613332565b9050919050565b61336d81613352565b82525050565b61337c8161323f565b82525050565b60008115159050919050565b61339781613382565b82525050565b6000610100820190506133b3600083018b613364565b6133c0602083018a6132af565b6133cd6040830189613364565b6133da60608301886132af565b6133e760808301876132af565b6133f460a0830186613373565b61340160c083018561338e565b61340e60e08301846132af565b9998505050505050505050565b600081519050919050565b600082825260208201905092915050565b6000819050602082019050919050565b61345081613352565b82525050565b61345f816132a5565b82525050565b61346e8161323f565b82525050565b61347d81613382565b82525050565b6101008201600082015161349a6000850182613447565b5060208201516134ad6020850182613456565b5060408201516134c06040850182613447565b5060608201516134d36060850182613456565b5060808201516134e66080850182613456565b5060a08201516134f960a0850182613465565b5060c082015161350c60c0850182613474565b5060e082015161351f60e0850182613456565b50505050565b60006135318383613483565b6101008301905092915050565b6000602082019050919050565b60006135568261341b565b6135608185613426565b935061356b83613437565b8060005b8381101561359c5781516135838882613525565b975061358e8361353e565b92505060018101905061356f565b5085935050505092915050565b7f4e487b7100000000000000000000000000000000000000000000000000000000600052602160045260246000fd5b600481106135e9576135e86135a9565b5b50565b60008190506135fa826135d8565b919050565b600061360a826135ec565b9050919050565b61361a816135ff565b82525050565b600060c082019050818103600083015261363a818961354b565b905061364960208301886132af565b6136566040830187613373565b6136636060830186613611565b61367060808301856132af565b61367d60a08301846132af565b979650505050505050565b61369181613352565b811461369c57600080fd5b50565b6000813590506136ae81613688565b92915050565b600080604083850312156136cb576136ca613235565b5b60006136d98582860161369f565b92505060206136ea858286016132f0565b9150509250929050565b60006020820190506137096000830184613364565b92915050565b6000806040838503121561372657613725613235565b5b6000613734858286016132f0565b925050602061374585828601613263565b9150509250929050565b60008060006060848603121561376857613767613235565b5b6000613776868287016132f0565b9350506020613787868287016132f0565b9250506040613798868287016132f0565b9150509250925092565b6000602082840312156137b8576137b7613235565b5b60006137c68482850161369f565b91505092915050565b600080604083850312156137e6576137e5613235565b5b60006137f4858286016132f0565b9250506020613805858286016132f0565b9150509250929050565b60006020820190506138246000830184613611565b92915050565b600080fd5b6000601f19601f8301169050919050565b7f4e487b7100000000000000000000000000000000000000000000000000000000600052604160045260246000fd5b6138788261382f565b810181811067ffffffffffffffff8211171561389757613896613840565b5b80604052505050565b60006138aa61322b565b90506138b6828261386f565b919050565b600067ffffffffffffffff8211156138d6576138d5613840565b5b602082029050602081019050919050565b600080fd5b60006138ff6138fa846138bb565b6138a0565b90508083825260208201905060208402830185811115613922576139216138e7565b5b835b8181101561394b578061393788826132f0565b845260208401935050602081019050613924565b5050509392505050565b600082601f83011261396a5761396961382a565b5b813561397a8482602086016138ec565b91505092915050565b60006020828403121561399957613998613235565b5b600082013567ffffffffffffffff8111156139b7576139b661323a565b5b6139c384828501613955565b91505092915050565b60006020820190506139e16000830184613373565b92915050565b60006060820190506139fc6000830186613364565b613a096020830185613364565b613a1660408301846132af565b949350505050565b7f4e487b7100000000000000000000000000000000000000000000000000000000600052603260045260246000fd5b7f4e487b7100000000000000000000000000000000000000000000000000000000600052601160045260246000fd5b6000613a87826132a5565b91507fffffffffffffffffffffffffffffffffffffffffffffffffffffffffffffffff8203613ab957613ab8613a4d565b5b600182019050919050565b600082825260208201905092915050565b7f43616c6c6572206973206e6f742061207374616666206d656d62657200000000600082015250565b6000613b0b601c83613ac4565b9150613b1682613ad5565b602082019050919050565b60006020820190508181036000830152613b3a81613afe565b9050919050565b6000613b4c826132a5565b9150613b57836132a5565b9250828201905080821115613b6f57613b6e613a4d565b5b92915050565b7f526166666c65207374617465206d75737420626520696e20564f54494e47206160008201527f6e64207061737420656e64206f6620766f74696e672c206f7220696e20554e4460208201527f45525245564945572073746174652e0000000000000000000000000000000000604082015250565b6000613bf7604f83613ac4565b9150613c0282613b75565b606082019050919050565b60006020820190508181036000830152613c2681613bea565b9050919050565b7f43616e6e6f7420776974686472617720617420746869732074696d6500000000600082015250565b6000613c63601c83613ac4565b9150613c6e82613c2d565b602082019050919050565b60006020820190508181036000830152613c9281613c56565b9050919050565b7f4e6f206265747320666f756e6420666f72207573657200000000000000000000600082015250565b6000613ccf601683613ac4565b9150613cda82613c99565b602082019050919050565b60006020820190508181036000830152613cfe81613cc2565b9050919050565b6000613d10826132a5565b9150613d1b836132a5565b9250828202613d29816132a5565b91508282048414831517613d4057613d3f613a4d565b5b5092915050565b7f4e487b7100000000000000000000000000000000000000000000000000000000600052601260045260246000fd5b6000613d81826132a5565b9150613d8c836132a5565b925082613d9c57613d9b613d47565b5b828204905092915050565b6000613db2826132a5565b9150613dbd836132a5565b9250828203905081811115613dd557613dd4613a4d565b5b92915050565b7f4e6f2062616c616e636520746f20776974686472617700000000000000000000600082015250565b6000613e11601683613ac4565b9150613e1c82613ddb565b602082019050919050565b60006020820190508181036000830152613e4081613e04565b9050919050565b7f496e73756666696369656e7420636f6e74726163742062616c616e6365000000600082015250565b6000613e7d601d83613ac4565b9150613e8882613e47565b602082019050919050565b60006020820190508181036000830152613eac81613e70565b9050919050565b7f496e76616c6964207374617465206f722074696d650000000000000000000000600082015250565b6000613ee9601583613ac4565b9150613ef482613eb3565b602082019050919050565b60006020820190508181036000830152613f1881613edc565b9050919050565b7f4f6e6c7920746865206465706c6f7965722077686f20697320616c736f20746860008201527f65206f776e65722063616e206564697420746869732062657400000000000000602082015250565b6000613f7b603983613ac4565b9150613f8682613f1f565b604082019050919050565b60006020820190508181036000830152613faa81613f6e565b9050919050565b7f496e73756666696369656e7420636f6e74726163742066756e647320666f722060008201527f726566756e640000000000000000000000000000000000000000000000000000602082015250565b600061400d602683613ac4565b915061401882613fb1565b604082019050919050565b6000602082019050818103600083015261403c81614000565b9050919050565b7f496e636f7272656374206164646974696f6e616c2066756e64732073656e7400600082015250565b6000614079601f83613ac4565b915061408482614043565b602082019050919050565b600060208201905081810360008301526140a88161406c565b9050919050565b7f43616c6c6572206973206e6f7420746865206f776e6572206f7220612073746160008201527f6666206d656d6265720000000000000000000000000000000000000000000000602082015250565b600061410b602983613ac4565b9150614116826140af565b604082019050919050565b6000602082019050818103600083015261413a816140fe565b9050919050565b7f43616c6c6572206973206e6f7420746865206f776e6572000000000000000000600082015250565b6000614177601783613ac4565b915061418282614141565b602082019050919050565b600060208201905081810360008301526141a68161416a565b9050919050565b7f426574206973206e6f7420666f722073616c6500000000000000000000000000600082015250565b60006141e3601383613ac4565b91506141ee826141ad565b602082019050919050565b60006020820190508181036000830152614212816141d6565b9050919050565b7f596f7520616c7265616479206f776e2074686973206265740000000000000000600082015250565b600061424f601883613ac4565b915061425a82614219565b602082019050919050565b6000602082019050818103600083015261427e81614242565b905091905056fea26469706673582212201a94c9c99dcce54a28c9557c6f9676fd7a1c6566fa764b8ca482a48de700ce4264736f6c63430008140033",
  "linkReferences": {},
  "deployedLinkReferences": {}
}