{
  "_format": "hh-sol-artifact-1",
  "contractName": "predMarket2",
  "sourceName": "contracts/LockV2.sol",
  "abi": [
    {
      "inputs": [
        {
          "internalType": "uint256",
          "name": "_endTime",
          "type": "uint256"
        }
      ],
      "stateMutability": "nonpayable",
      "type": "constructor"
    },
    {
      "inputs": [],
      "name": "ReentrancyGuardReentrantCall",
      "type": "error"
    },
    {
      "anonymous": false,
      "inputs": [],
      "name": "BetCancelled",
      "type": "event"
    },
    {
      "anonymous": false,
      "inputs": [],
      "name": "BetEdited",
      "type": "event"
    },
    {
      "anonymous": false,
      "inputs": [],
      "name": "BetUnlisted",
      "type": "event"
    },
    {
      "anonymous": false,
      "inputs": [
        {
          "indexed": true,
          "internalType": "address",
          "name": "beneficiary",
          "type": "address"
        },
        {
          "indexed": false,
          "internalType": "uint256",
          "name": "amount",
          "type": "uint256"
        }
      ],
      "name": "FundsRedistributed",
      "type": "event"
    },
    {
      "anonymous": false,
      "inputs": [],
      "name": "PayoutProcessed",
      "type": "event"
    },
    {
      "anonymous": false,
      "inputs": [
        {
          "indexed": false,
          "internalType": "uint32",
          "name": "position",
          "type": "uint32"
        },
        {
          "indexed": false,
          "internalType": "address",
          "name": "buyer",
          "type": "address"
        },
        {
          "indexed": false,
          "internalType": "uint96",
          "name": "amount",
          "type": "uint96"
        }
      ],
      "name": "userBoughtBet",
      "type": "event"
    },
    {
      "anonymous": false,
      "inputs": [
        {
          "indexed": false,
          "internalType": "uint32",
          "name": "positionInArray",
          "type": "uint32"
        }
      ],
      "name": "userCreatedABet",
      "type": "event"
    },
    {
      "anonymous": false,
      "inputs": [],
      "name": "userReListedBet",
      "type": "event"
    },
    {
      "anonymous": false,
      "inputs": [],
      "name": "userVoted",
      "type": "event"
    },
    {
      "anonymous": false,
      "inputs": [
        {
          "indexed": false,
          "internalType": "address",
          "name": "user",
          "type": "address"
        },
        {
          "indexed": false,
          "internalType": "uint96",
          "name": "amount",
          "type": "uint96"
        }
      ],
      "name": "userWithdrew",
      "type": "event"
    },
    {
      "anonymous": false,
      "inputs": [],
      "name": "winnerDeclaredVoting",
      "type": "event"
    },
    {
      "inputs": [],
      "name": "allBets_Balance",
      "outputs": [
        {
          "components": [
            {
              "internalType": "address",
              "name": "deployer",
              "type": "address"
            },
            {
              "internalType": "address",
              "name": "owner",
              "type": "address"
            },
            {
              "internalType": "uint96",
              "name": "amountDeployerLocked",
              "type": "uint96"
            },
            {
              "internalType": "uint96",
              "name": "amountBuyerLocked",
              "type": "uint96"
            },
            {
              "internalType": "uint96",
              "name": "amountToBuyFor",
              "type": "uint96"
            },
            {
              "internalType": "uint8",
              "name": "conditionForBuyerToWin",
              "type": "uint8"
            },
            {
              "internalType": "bool",
              "name": "selling",
              "type": "bool"
            },
            {
              "internalType": "bool",
              "name": "isActive",
              "type": "bool"
            },
            {
              "internalType": "uint32",
              "name": "positionInArray",
              "type": "uint32"
            }
          ],
          "internalType": "struct predMarket2.bet[]",
          "name": "activeBets",
          "type": "tuple[]"
        },
        {
          "internalType": "uint256",
          "name": "endTimeValue",
          "type": "uint256"
        },
        {
          "internalType": "uint8",
          "name": "winnerValue",
          "type": "uint8"
        },
        {
          "internalType": "enum predMarket2.RaffleState",
          "name": "state",
          "type": "uint8"
        },
        {
          "internalType": "uint256",
          "name": "votingEnd",
          "type": "uint256"
        },
        {
          "internalType": "uint96",
          "name": "balance",
          "type": "uint96"
        }
      ],
      "stateMutability": "view",
      "type": "function"
    },
    {
      "inputs": [
        {
          "internalType": "address",
          "name": "",
          "type": "address"
        }
      ],
      "name": "amountMadeFromSoldBets",
      "outputs": [
        {
          "internalType": "uint96",
          "name": "",
          "type": "uint96"
        }
      ],
      "stateMutability": "view",
      "type": "function"
    },
    {
      "inputs": [
        {
          "internalType": "uint256",
          "name": "",
          "type": "uint256"
        }
      ],
      "name": "arrayOfBets",
      "outputs": [
        {
          "internalType": "address",
          "name": "deployer",
          "type": "address"
        },
        {
          "internalType": "address",
          "name": "owner",
          "type": "address"
        },
        {
          "internalType": "uint96",
          "name": "amountDeployerLocked",
          "type": "uint96"
        },
        {
          "internalType": "uint96",
          "name": "amountBuyerLocked",
          "type": "uint96"
        },
        {
          "internalType": "uint96",
          "name": "amountToBuyFor",
          "type": "uint96"
        },
        {
          "internalType": "uint8",
          "name": "conditionForBuyerToWin",
          "type": "uint8"
        },
        {
          "internalType": "bool",
          "name": "selling",
          "type": "bool"
        },
        {
          "internalType": "bool",
          "name": "isActive",
          "type": "bool"
        },
        {
          "internalType": "uint32",
          "name": "positionInArray",
          "type": "uint32"
        }
      ],
      "stateMutability": "view",
      "type": "function"
    },
    {
      "inputs": [
        {
          "internalType": "address",
          "name": "",
          "type": "address"
        },
        {
          "internalType": "uint256",
          "name": "",
          "type": "uint256"
        }
      ],
      "name": "betsByUser",
      "outputs": [
        {
          "internalType": "uint32",
          "name": "",
          "type": "uint32"
        }
      ],
      "stateMutability": "view",
      "type": "function"
    },
    {
      "inputs": [
        {
          "internalType": "uint32",
          "name": "positionOfArray",
          "type": "uint32"
        }
      ],
      "name": "buyABet",
      "outputs": [],
      "stateMutability": "payable",
      "type": "function"
    },
    {
      "inputs": [
        {
          "internalType": "uint32",
          "name": "positionOfArray",
          "type": "uint32"
        }
      ],
      "name": "cancelOwnedBet",
      "outputs": [],
      "stateMutability": "nonpayable",
      "type": "function"
    },
    {
      "inputs": [
        {
          "internalType": "uint8",
          "name": "state",
          "type": "uint8"
        }
      ],
      "name": "changeState",
      "outputs": [],
      "stateMutability": "nonpayable",
      "type": "function"
    },
    {
      "inputs": [],
      "name": "creatorLocked",
      "outputs": [
        {
          "internalType": "uint96",
          "name": "",
          "type": "uint96"
        }
      ],
      "stateMutability": "view",
      "type": "function"
    },
    {
      "inputs": [
        {
          "internalType": "uint8",
          "name": "_winner",
          "type": "uint8"
        }
      ],
      "name": "declareWinner",
      "outputs": [],
      "stateMutability": "nonpayable",
      "type": "function"
    },
    {
      "inputs": [],
      "name": "disagreeWithOwner",
      "outputs": [],
      "stateMutability": "nonpayable",
      "type": "function"
    },
    {
      "inputs": [
        {
          "internalType": "uint32",
          "name": "positionOfArray",
          "type": "uint32"
        },
        {
          "internalType": "uint96",
          "name": "newDeployPrice",
          "type": "uint96"
        },
        {
          "internalType": "uint96",
          "name": "newAskingPrice",
          "type": "uint96"
        }
      ],
      "name": "editADeployedBet",
      "outputs": [],
      "stateMutability": "payable",
      "type": "function"
    },
    {
      "inputs": [],
      "name": "endOfVoting",
      "outputs": [
        {
          "internalType": "uint256",
          "name": "",
          "type": "uint256"
        }
      ],
      "stateMutability": "view",
      "type": "function"
    },
    {
      "inputs": [],
      "name": "owner",
      "outputs": [
        {
          "internalType": "address",
          "name": "",
          "type": "address"
        }
      ],
      "stateMutability": "view",
      "type": "function"
    },
    {
      "inputs": [],
      "name": "s_raffleState",
      "outputs": [
        {
          "internalType": "enum predMarket2.RaffleState",
          "name": "",
          "type": "uint8"
        }
      ],
      "stateMutability": "view",
      "type": "function"
    },
    {
      "inputs": [
        {
          "internalType": "uint96",
          "name": "amountToBuy",
          "type": "uint96"
        },
        {
          "internalType": "uint8",
          "name": "conditionToWIn",
          "type": "uint8"
        }
      ],
      "name": "sellANewBet",
      "outputs": [],
      "stateMutability": "payable",
      "type": "function"
    },
    {
      "inputs": [
        {
          "internalType": "uint32",
          "name": "positionOfArray",
          "type": "uint32"
        },
        {
          "internalType": "uint96",
          "name": "newAskingPrice",
          "type": "uint96"
        }
      ],
      "name": "sellAnExistingBet",
      "outputs": [],
      "stateMutability": "nonpayable",
      "type": "function"
    },
    {
      "inputs": [
        {
          "internalType": "uint32",
          "name": "",
          "type": "uint32"
        },
        {
          "internalType": "uint256",
          "name": "",
          "type": "uint256"
        }
      ],
      "name": "soldBetHistory",
      "outputs": [
        {
          "internalType": "address",
          "name": "buyer",
          "type": "address"
        },
        {
          "internalType": "address",
          "name": "previousOwner",
          "type": "address"
        },
        {
          "internalType": "uint96",
          "name": "amountPaid",
          "type": "uint96"
        }
      ],
      "stateMutability": "view",
      "type": "function"
    },
    {
      "inputs": [],
      "name": "staffPay",
      "outputs": [
        {
          "internalType": "uint96",
          "name": "",
          "type": "uint96"
        }
      ],
      "stateMutability": "view",
      "type": "function"
    },
    {
      "inputs": [],
      "name": "transferOwnerAmount",
      "outputs": [],
      "stateMutability": "nonpayable",
      "type": "function"
    },
    {
      "inputs": [],
      "name": "transferStaffAmount",
      "outputs": [],
      "stateMutability": "nonpayable",
      "type": "function"
    },
    {
      "inputs": [
        {
          "internalType": "uint32[]",
          "name": "positionsOfArray",
          "type": "uint32[]"
        }
      ],
      "name": "unlistBets",
      "outputs": [],
      "stateMutability": "nonpayable",
      "type": "function"
    },
    {
      "inputs": [],
      "name": "winner",
      "outputs": [
        {
          "internalType": "uint8",
          "name": "",
          "type": "uint8"
        }
      ],
      "stateMutability": "view",
      "type": "function"
    },
    {
      "inputs": [],
      "name": "withdraw",
      "outputs": [],
      "stateMutability": "nonpayable",
      "type": "function"
    }
  ],
  "bytecode": "0x60a0604052604051806020016040528073f39fd6e51aad88f6f4ce6ab8827279cfffb9226673ffffffffffffffffffffffffffffffffffffffff1673ffffffffffffffffffffffffffffffffffffffff16815250600190600162000065929190620001c8565b503480156200007357600080fd5b5060405162005c8b38038062005c8b8339818101604052810190620000999190620002b6565b6001600081905550600073ffffffffffffffffffffffffffffffffffffffff163373ffffffffffffffffffffffffffffffffffffffff160362000113576040517f08c379a00000000000000000000000000000000000000000000000000000000081526004016200010a9062000349565b60405180910390fd5b42811162000158576040517f08c379a00000000000000000000000000000000000000000000000000000000081526004016200014f90620003bb565b60405180910390fd5b3373ffffffffffffffffffffffffffffffffffffffff1660808173ffffffffffffffffffffffffffffffffffffffff1681525050806005819055506000600660016101000a81548160ff02191690836003811115620001bc57620001bb620003dd565b5b0217905550506200040c565b82805482825590600052602060002090810192821562000244579160200282015b82811115620002435782518260006101000a81548173ffffffffffffffffffffffffffffffffffffffff021916908373ffffffffffffffffffffffffffffffffffffffff16021790555091602001919060010190620001e9565b5b50905062000253919062000257565b5090565b5b808211156200027257600081600090555060010162000258565b5090565b600080fd5b6000819050919050565b62000290816200027b565b81146200029c57600080fd5b50565b600081519050620002b08162000285565b92915050565b600060208284031215620002cf57620002ce62000276565b5b6000620002df848285016200029f565b91505092915050565b600082825260208201905092915050565b7f496e76616c6964206f776e657220616464726573730000000000000000000000600082015250565b600062000331601583620002e8565b91506200033e82620002f9565b602082019050919050565b60006020820190508181036000830152620003648162000322565b9050919050565b7f496e76616c696420656e642074696d6500000000000000000000000000000000600082015250565b6000620003a3601083620002e8565b9150620003b0826200036b565b602082019050919050565b60006020820190508181036000830152620003d68162000394565b9050919050565b7f4e487b7100000000000000000000000000000000000000000000000000000000600052602160045260246000fd5b608051615855620004366000396000818161221501528181612af60152612ca601526158556000f3fe6080604052600436106101405760003560e01c80637c54bafe116100b6578063a69fabbe1161006f578063a69fabbe1461040a578063b4a36fd714610433578063cc45483f1461044a578063dad2245e14610475578063dfbf53ae1461049e578063e694b1f9146104c957610140565b80637c54bafe146102df5780637e8873321461031c578063865f80c4146103475780638da5cb5b146103865780639e1bffe9146103b15780639f4e2b95146103ee57610140565b80633ccfd60b116101085780633ccfd60b146102235780634e33024a1461023a5780635d92614814610256578063607c9cea1461026d5780636afedac5146102985780637672ef7b146102c857610140565b806308abb88f146101455780631798b2ae14610161578063268f11531461018a57806330dda1c2146101b35780633658957e146101de575b600080fd5b61015f600480360381019061015a91906146cf565b6104f2565b005b34801561016d57600080fd5b506101886004803603810190610183919061470f565b6109d1565b005b34801561019657600080fd5b506101b160048036038101906101ac919061470f565b610d2a565b005b3480156101bf57600080fd5b506101c8610ea7565b6040516101d5919061474b565b60405180910390f35b3480156101ea57600080fd5b506102056004803603810190610200919061479c565b610ec5565b60405161021a99989796959493929190614853565b60405180910390f35b34801561022f57600080fd5b50610238610fe2565b005b610254600480360381019061024f919061490c565b6116c9565b005b34801561026257600080fd5b5061026b611bf7565b005b34801561027957600080fd5b50610282611eb5565b60405161028f919061474b565b60405180910390f35b3480156102a457600080fd5b506102ad611ed3565b6040516102bf96959493929190614b71565b60405180910390f35b3480156102d457600080fd5b506102dd612024565b005b3480156102eb57600080fd5b5061030660048036038101906103019190614c05565b612125565b6040516103139190614c45565b60405180910390f35b34801561032857600080fd5b5061033161216e565b60405161033e9190614c60565b60405180910390f35b34801561035357600080fd5b5061036e60048036038101906103699190614c7b565b612174565b60405161037d93929190614cbb565b60405180910390f35b34801561039257600080fd5b5061039b612213565b6040516103a89190614cf2565b60405180910390f35b3480156103bd57600080fd5b506103d860048036038101906103d39190614d0d565b612237565b6040516103e5919061474b565b60405180910390f35b61040860048036038101906104039190614d3a565b612262565b005b34801561041657600080fd5b50610431600480360381019061042c919061490c565b6126da565b005b34801561043f57600080fd5b50610448612a55565b005b34801561045657600080fd5b5061045f612d89565b60405161046c9190614d8d565b60405180910390f35b34801561048157600080fd5b5061049c60048036038101906104979190614da8565b612d9c565b005b3480156104aa57600080fd5b506104b3612f0f565b6040516104c09190614de8565b60405180910390f35b3480156104d557600080fd5b506104f060048036038101906104eb9190614f5c565b612f22565b005b6104fa61320c565b60008160ff16118015610511575060028160ff1611155b801561055057506000600381111561052c5761052b614afa565b5b600660019054906101000a900460ff16600381111561054e5761054d614afa565b5b145b8015610562575061012c600c80549050105b80156105b057506032600760003373ffffffffffffffffffffffffffffffffffffffff1673ffffffffffffffffffffffffffffffffffffffff16815260200190815260200160002080549050105b6105b957600080fd5b6bffffffffffffffffffffffff801634111561060a576040517f08c379a000000000000000000000000000000000000000000000000000000000815260040161060190615002565b60405180910390fd5b6bffffffffffffffffffffffff8016826bffffffffffffffffffffffff161115610669576040517f08c379a00000000000000000000000000000000000000000000000000000000081526004016106609061506e565b60405180910390fd5b6000600c805490509050600760003373ffffffffffffffffffffffffffffffffffffffff1673ffffffffffffffffffffffffffffffffffffffff1681526020019081526020016000208190806001815401808255809150506001900390600052602060002090600891828204019190066004029091909190916101000a81548163ffffffff021916908363ffffffff160217905550600c6040518061012001604052803373ffffffffffffffffffffffffffffffffffffffff1681526020013373ffffffffffffffffffffffffffffffffffffffff168152602001346bffffffffffffffffffffffff16815260200160006bffffffffffffffffffffffff168152602001856bffffffffffffffffffffffff1681526020018460ff1681526020016001151581526020016001151581526020018363ffffffff16815250908060018154018082558091505060019003906000526020600020906003020160009091909190915060008201518160000160006101000a81548173ffffffffffffffffffffffffffffffffffffffff021916908373ffffffffffffffffffffffffffffffffffffffff16021790555060208201518160010160006101000a81548173ffffffffffffffffffffffffffffffffffffffff021916908373ffffffffffffffffffffffffffffffffffffffff16021790555060408201518160010160146101000a8154816bffffffffffffffffffffffff02191690836bffffffffffffffffffffffff16021790555060608201518160020160006101000a8154816bffffffffffffffffffffffff02191690836bffffffffffffffffffffffff160217905550608082015181600201600c6101000a8154816bffffffffffffffffffffffff02191690836bffffffffffffffffffffffff16021790555060a08201518160020160186101000a81548160ff021916908360ff16021790555060c08201518160020160196101000a81548160ff02191690831515021790555060e082015181600201601a6101000a81548160ff02191690831515021790555061010082015181600201601b6101000a81548163ffffffff021916908363ffffffff16021790555050507f0b4b5e3131d1a6216d8e3e183f564765b644accafead7bd164772dfca51172d7816040516109bc9190614c45565b60405180910390a1506109cd613252565b5050565b6000805b600180549050811015610a6f573373ffffffffffffffffffffffffffffffffffffffff1660018281548110610a0d57610a0c61508e565b5b9060005260206000200160009054906101000a900473ffffffffffffffffffffffffffffffffffffffff1673ffffffffffffffffffffffffffffffffffffffff1603610a5c5760019150610a6f565b8080610a67906150ec565b9150506109d5565b5080610ab0576040517f08c379a0000000000000000000000000000000000000000000000000000000008152600401610aa790615180565b60405180910390fd5b610ab861320c565b60008260ff16118015610ace575060048260ff16105b610ad757600080fd5b60038260ff1603610b6257610aea61325c565b6003600660016101000a81548160ff02191690836003811115610b1057610b0f614afa565b5b02179055506003600660006101000a81548160ff021916908360ff1602179055507fbbfddbd2a33e1c8d143e1f8b564451965d01678a70438b79b4900cd033c12a2760405160405180910390a1610d1e565b60006003811115610b7657610b75614afa565b5b600660019054906101000a900460ff166003811115610b9857610b97614afa565b5b03610c1f5761012c42016003819055506001600660016101000a81548160ff02191690836003811115610bce57610bcd614afa565b5b021790555081600660006101000a81548160ff021916908360ff1602179055507fbbfddbd2a33e1c8d143e1f8b564451965d01678a70438b79b4900cd033c12a2760405160405180910390a1610d1d565b60016003811115610c3357610c32614afa565b5b600660019054906101000a900460ff166003811115610c5557610c54614afa565b5b148015610c63575060035442115b80610ca1575060026003811115610c7d57610c7c614afa565b5b600660019054906101000a900460ff166003811115610c9f57610c9e614afa565b5b145b610caa57600080fd5b81600660006101000a81548160ff021916908360ff1602179055506003600660016101000a81548160ff02191690836003811115610ceb57610cea614afa565b5b02179055507fbbfddbd2a33e1c8d143e1f8b564451965d01678a70438b79b4900cd033c12a2760405160405180910390a15b5b610d26613252565b5050565b6000805b600180549050811015610dc8573373ffffffffffffffffffffffffffffffffffffffff1660018281548110610d6657610d6561508e565b5b9060005260206000200160009054906101000a900473ffffffffffffffffffffffffffffffffffffffff1673ffffffffffffffffffffffffffffffffffffffff1603610db55760019150610dc8565b8080610dc0906150ec565b915050610d2e565b5080610e09576040517f08c379a0000000000000000000000000000000000000000000000000000000008152600401610e0090615180565b60405180910390fd5b600380811115610e1c57610e1b614afa565b5b60ff168260ff161115610e64576040517f08c379a0000000000000000000000000000000000000000000000000000000008152600401610e5b906151ec565b60405180910390fd5b8160ff166003811115610e7a57610e79614afa565b5b600660016101000a81548160ff02191690836003811115610e9e57610e9d614afa565b5b02179055505050565b600460009054906101000a90046bffffffffffffffffffffffff1681565b600c8181548110610ed557600080fd5b90600052602060002090600302016000915090508060000160009054906101000a900473ffffffffffffffffffffffffffffffffffffffff16908060010160009054906101000a900473ffffffffffffffffffffffffffffffffffffffff16908060010160149054906101000a90046bffffffffffffffffffffffff16908060020160009054906101000a90046bffffffffffffffffffffffff169080600201600c9054906101000a90046bffffffffffffffffffffffff16908060020160189054906101000a900460ff16908060020160199054906101000a900460ff169080600201601a9054906101000a900460ff169080600201601b9054906101000a900463ffffffff16905089565b610fea61320c565b600380811115610ffd57610ffc614afa565b5b600660019054906101000a900460ff16600381111561101f5761101e614afa565b5b148061106b57506001600381111561103a57611039614afa565b5b600660019054906101000a900460ff16600381111561105c5761105b614afa565b5b14801561106a575060035442115b5b61107457600080fd5b6000600760003373ffffffffffffffffffffffffffffffffffffffff1673ffffffffffffffffffffffffffffffffffffffff168152602001908152602001600020905060008180549050116110c857600080fd5b60008060006003600660009054906101000a900460ff1660ff1614905060008480549050905060005b8163ffffffff168163ffffffff1610156112fd576000600c878363ffffffff16815481106111225761112161508e565b5b90600052602060002090600891828204019190066004029054906101000a900463ffffffff1663ffffffff168154811061115f5761115e61508e565b5b9060005260206000209060030201905083156112d4573373ffffffffffffffffffffffffffffffffffffffff168160010160009054906101000a900473ffffffffffffffffffffffffffffffffffffffff1673ffffffffffffffffffffffffffffffffffffffff1603611222578060020160009054906101000a90046bffffffffffffffffffffffff168601955060008160020160006101000a8154816bffffffffffffffffffffffff02191690836bffffffffffffffffffffffff1602179055505b3373ffffffffffffffffffffffffffffffffffffffff168160000160009054906101000a900473ffffffffffffffffffffffffffffffffffffffff1673ffffffffffffffffffffffffffffffffffffffff16036112cf578060010160149054906101000a90046bffffffffffffffffffffffff168601955060008160010160146101000a8154816bffffffffffffffffffffffff02191690836bffffffffffffffffffffffff1602179055505b6112f1565b6000806112e083613792565b915091508188019750808701965050505b816001019150506110f1565b50816114725760006127106101f485026bffffffffffffffffffffffff16816113295761132861520c565b5b049050806bffffffffffffffffffffffff16856bffffffffffffffffffffffff16101561138b576040517f08c379a000000000000000000000000000000000000000000000000000000000815260040161138290615287565b60405180910390fd5b80850394506005600382026bffffffffffffffffffffffff16816113b2576113b161520c565b5b04600260008282829054906101000a90046bffffffffffffffffffffffff160192506101000a8154816bffffffffffffffffffffffff02191690836bffffffffffffffffffffffff1602179055506005600282026bffffffffffffffffffffffff16816114225761142161520c565b5b04600460008282829054906101000a90046bffffffffffffffffffffffff160192506101000a8154816bffffffffffffffffffffffff02191690836bffffffffffffffffffffffff160217905550505b6000600860003373ffffffffffffffffffffffffffffffffffffffff1673ffffffffffffffffffffffffffffffffffffffff16815260200190815260200160002060009054906101000a90046bffffffffffffffffffffffff1690506000816bffffffffffffffffffffffff16111561155a5780850194506000600860003373ffffffffffffffffffffffffffffffffffffffff1673ffffffffffffffffffffffffffffffffffffffff16815260200190815260200160002060006101000a8154816bffffffffffffffffffffffff02191690836bffffffffffffffffffffffff1602179055505b6000856bffffffffffffffffffffffff161180156115865750846bffffffffffffffffffffffff164710155b6115c5576040517f08c379a00000000000000000000000000000000000000000000000000000000081526004016115bc906152f3565b60405180910390fd5b60003373ffffffffffffffffffffffffffffffffffffffff16866bffffffffffffffffffffffff166040516115f990615344565b60006040518083038185875af1925050503d8060008114611636576040519150601f19603f3d011682016040523d82523d6000602084013e61163b565b606091505b505090508061167f576040517f08c379a0000000000000000000000000000000000000000000000000000000008152600401611676906153a5565b60405180910390fd5b7f7c56f75f0792323f7b3e088b27db18b54add5b49e6a66c8471fa0ad872ba45ec33876040516116b09291906153c5565b60405180910390a1505050505050506116c7613252565b565b6116d161320c565b600060038111156116e5576116e4614afa565b5b600660019054906101000a900460ff16600381111561170757611706614afa565b5b1461171157600080fd5b6000600c8263ffffffff168154811061172d5761172c61508e565b5b9060005260206000209060030201905080600201601a9054906101000a900460ff168015611792575080600201600c9054906101000a90046bffffffffffffffffffffffff166bffffffffffffffffffffffff16346bffffffffffffffffffffffff16145b80156117ac57506bffffffffffffffffffffffff80163411155b80156117c657508060020160199054906101000a900460ff165b801561182257503373ffffffffffffffffffffffffffffffffffffffff168160010160009054906101000a900473ffffffffffffffffffffffffffffffffffffffff1673ffffffffffffffffffffffffffffffffffffffff1614155b80156118385750600c805490508263ffffffff16105b61184157600080fd5b60008160010160009054906101000a900473ffffffffffffffffffffffffffffffffffffffff16905060008260020160009054906101000a90046bffffffffffffffffffffffff166bffffffffffffffffffffffff16036118d457348260020160006101000a8154816bffffffffffffffffffffffff02191690836bffffffffffffffffffffffff160217905550611ac4565b34600860008373ffffffffffffffffffffffffffffffffffffffff1673ffffffffffffffffffffffffffffffffffffffff16815260200190815260200160002060008282829054906101000a90046bffffffffffffffffffffffff160192506101000a8154816bffffffffffffffffffffffff02191690836bffffffffffffffffffffffff160217905550600960008463ffffffff1663ffffffff16815260200190815260200160002060405180606001604052803373ffffffffffffffffffffffffffffffffffffffff1681526020018373ffffffffffffffffffffffffffffffffffffffff168152602001346bffffffffffffffffffffffff16815250908060018154018082558091505060019003906000526020600020906002020160009091909190915060008201518160000160006101000a81548173ffffffffffffffffffffffffffffffffffffffff021916908373ffffffffffffffffffffffffffffffffffffffff16021790555060208201518160010160006101000a81548173ffffffffffffffffffffffffffffffffffffffff021916908373ffffffffffffffffffffffffffffffffffffffff16021790555060408201518160010160146101000a8154816bffffffffffffffffffffffff02191690836bffffffffffffffffffffffff16021790555050505b600760003373ffffffffffffffffffffffffffffffffffffffff1673ffffffffffffffffffffffffffffffffffffffff1681526020019081526020016000208390806001815401808255809150506001900390600052602060002090600891828204019190066004029091909190916101000a81548163ffffffff021916908363ffffffff160217905550338260010160006101000a81548173ffffffffffffffffffffffffffffffffffffffff021916908373ffffffffffffffffffffffffffffffffffffffff16021790555060008260020160196101000a81548160ff0219169083151502179055507fec6e7aa0c7c1fc30924d4ee935d53e6ea3d6eae81deea67a8f25021b0c8d15f1833334604051611be2939291906153ee565b60405180910390a15050611bf4613252565b50565b6000805b600180549050811015611c95573373ffffffffffffffffffffffffffffffffffffffff1660018281548110611c3357611c3261508e565b5b9060005260206000200160009054906101000a900473ffffffffffffffffffffffffffffffffffffffff1673ffffffffffffffffffffffffffffffffffffffff1603611c825760019150611c95565b8080611c8d906150ec565b915050611bfb565b5080611cd6576040517f08c379a0000000000000000000000000000000000000000000000000000000008152600401611ccd90615180565b60405180910390fd5b611cde61320c565b60016003811115611cf257611cf1614afa565b5b600660019054906101000a900460ff166003811115611d1457611d13614afa565b5b148015611d22575060035442115b80611d5f5750600380811115611d3b57611d3a614afa565b5b600660019054906101000a900460ff166003811115611d5d57611d5c614afa565b5b145b611d6857600080fd5b6000600260009054906101000a90046bffffffffffffffffffffffff166bffffffffffffffffffffffff1611611d9d57600080fd5b6000600260009054906101000a90046bffffffffffffffffffffffff1690506000600260006101000a8154816bffffffffffffffffffffffff02191690836bffffffffffffffffffffffff16021790555060003373ffffffffffffffffffffffffffffffffffffffff16826bffffffffffffffffffffffff16604051611e2290615344565b60006040518083038185875af1925050503d8060008114611e5f576040519150601f19603f3d011682016040523d82523d6000602084013e611e64565b606091505b5050905080611ea8576040517f08c379a0000000000000000000000000000000000000000000000000000000008152600401611e9f906153a5565b60405180910390fd5b5050611eb2613252565b50565b600260009054906101000a90046bffffffffffffffffffffffff1681565b6060600080600080600080600760003373ffffffffffffffffffffffffffffffffffffffff1673ffffffffffffffffffffffffffffffffffffffff1681526020019081526020016000209050600081805490509050600080611f358484613b5e565b915091506003600660009054906101000a900460ff1660ff1614611fda5760006064600583026bffffffffffffffffffffffff1681611f7757611f7661520c565b5b049050600860003373ffffffffffffffffffffffffffffffffffffffff1673ffffffffffffffffffffffffffffffffffffffff16815260200190815260200160002060009054906101000a90046bffffffffffffffffffffffff16818403019250505b611fe2613cc5565b995089600554600660009054906101000a900460ff16600660019054906101000a900460ff166003548699509950995099509950995050505050909192939495565b61202c61320c565b600160038111156120405761203f614afa565b5b600660019054906101000a900460ff16600381111561206257612061614afa565b5b148015612070575060035442105b806120bb57506000600381111561208a57612089614afa565b5b600660019054906101000a900460ff1660038111156120ac576120ab614afa565b5b1480156120ba575060055442115b5b6120c457600080fd5b6002600660016101000a81548160ff021916908360038111156120ea576120e9614afa565b5b02179055507f325941a5b65623f14f777a10c4ee68b69cec6214a44a48c1bb1c4991314755c060405160405180910390a1612123613252565b565b6007602052816000526040600020818154811061214157600080fd5b9060005260206000209060089182820401919006600402915091509054906101000a900463ffffffff1681565b60035481565b6009602052816000526040600020818154811061219057600080fd5b9060005260206000209060020201600091509150508060000160009054906101000a900473ffffffffffffffffffffffffffffffffffffffff16908060010160009054906101000a900473ffffffffffffffffffffffffffffffffffffffff16908060010160149054906101000a90046bffffffffffffffffffffffff16905083565b7f000000000000000000000000000000000000000000000000000000000000000081565b60086020528060005260406000206000915054906101000a90046bffffffffffffffffffffffff1681565b61226a61320c565b600c805490508363ffffffff16106122b7576040517f08c379a00000000000000000000000000000000000000000000000000000000081526004016122ae90615471565b60405180910390fd5b6000600c8463ffffffff16815481106122d3576122d261508e565b5b906000526020600020906003020190503373ffffffffffffffffffffffffffffffffffffffff168160010160009054906101000a900473ffffffffffffffffffffffffffffffffffffffff1673ffffffffffffffffffffffffffffffffffffffff1614801561239157503373ffffffffffffffffffffffffffffffffffffffff168160000160009054906101000a900473ffffffffffffffffffffffffffffffffffffffff1673ffffffffffffffffffffffffffffffffffffffff16145b80156123ac57506000836bffffffffffffffffffffffff1610155b80156123c757506000826bffffffffffffffffffffffff1610155b80156123e1575080600201601a9054906101000a900460ff165b80156124205750600060038111156123fc576123fb614afa565b5b600660019054906101000a900460ff16600381111561241e5761241d614afa565b5b145b61245f576040517f08c379a0000000000000000000000000000000000000000000000000000000008152600401612456906154dd565b60405180910390fd5b60008160010160149054906101000a90046bffffffffffffffffffffffff169050806bffffffffffffffffffffffff16846bffffffffffffffffffffffff161461264f57806bffffffffffffffffffffffff16846bffffffffffffffffffffffff1610156125c25760008482039050848360010160146101000a8154816bffffffffffffffffffffffff02191690836bffffffffffffffffffffffff16021790555060003373ffffffffffffffffffffffffffffffffffffffff16826bffffffffffffffffffffffff1660405161253590615344565b60006040518083038185875af1925050503d8060008114612572576040519150601f19603f3d011682016040523d82523d6000602084013e612577565b606091505b50509050806125bb576040517f08c379a00000000000000000000000000000000000000000000000000000000081526004016125b290615549565b60405180910390fd5b505061264e565b60008185039050806bffffffffffffffffffffffff163414612619576040517f08c379a0000000000000000000000000000000000000000000000000000000008152600401612610906155b5565b60405180910390fd5b848360010160146101000a8154816bffffffffffffffffffffffff02191690836bffffffffffffffffffffffff160217905550505b5b8282600201600c6101000a8154816bffffffffffffffffffffffff02191690836bffffffffffffffffffffffff16021790555060018260020160196101000a81548160ff0219169083151502179055507ff75e56f787976a19558bde97657a643e88c61a76b39e41f3a06a120defa30d6160405160405180910390a150506126d5613252565b505050565b6126e261320c565b6000600c8263ffffffff16815481106126fe576126fd61508e565b5b906000526020600020906003020190503373ffffffffffffffffffffffffffffffffffffffff168160010160009054906101000a900473ffffffffffffffffffffffffffffffffffffffff1673ffffffffffffffffffffffffffffffffffffffff161480156127bc57503373ffffffffffffffffffffffffffffffffffffffff168160000160009054906101000a900473ffffffffffffffffffffffffffffffffffffffff1673ffffffffffffffffffffffffffffffffffffffff16145b80156127d6575080600201601a9054906101000a900460ff165b612815576040517f08c379a000000000000000000000000000000000000000000000000000000000815260040161280c906154dd565b60405180910390fd5b60008160010160149054906101000a90046bffffffffffffffffffffffff168260020160009054906101000a90046bffffffffffffffffffffffff1601905060008260010160006101000a81548173ffffffffffffffffffffffffffffffffffffffff021916908373ffffffffffffffffffffffffffffffffffffffff16021790555060008260000160006101000a81548173ffffffffffffffffffffffffffffffffffffffff021916908373ffffffffffffffffffffffffffffffffffffffff16021790555060008260020160006101000a8154816bffffffffffffffffffffffff02191690836bffffffffffffffffffffffff16021790555060008260010160146101000a8154816bffffffffffffffffffffffff02191690836bffffffffffffffffffffffff160217905550600082600201601a6101000a81548160ff02191690831515021790555060003373ffffffffffffffffffffffffffffffffffffffff16826bffffffffffffffffffffffff1660405161299590615344565b60006040518083038185875af1925050503d80600081146129d2576040519150601f19603f3d011682016040523d82523d6000602084013e6129d7565b606091505b5050905080612a1b576040517f08c379a0000000000000000000000000000000000000000000000000000000008152600401612a12906153a5565b60405180910390fd5b7fa9c660d43fdb14d4f7f7226623a556967689f58ee0e7c1a3397257bb909454c960405160405180910390a1505050612a52613252565b50565b6000805b600180549050811015612af3573373ffffffffffffffffffffffffffffffffffffffff1660018281548110612a9157612a9061508e565b5b9060005260206000200160009054906101000a900473ffffffffffffffffffffffffffffffffffffffff1673ffffffffffffffffffffffffffffffffffffffff1603612ae05760019150612af3565b8080612aeb906150ec565b915050612a59565b507f000000000000000000000000000000000000000000000000000000000000000073ffffffffffffffffffffffffffffffffffffffff163373ffffffffffffffffffffffffffffffffffffffff161480612b4b5750805b612b8a576040517f08c379a0000000000000000000000000000000000000000000000000000000008152600401612b8190615647565b60405180910390fd5b612b9261320c565b60016003811115612ba657612ba5614afa565b5b600660019054906101000a900460ff166003811115612bc857612bc7614afa565b5b148015612bd6575060035442115b80612c135750600380811115612bef57612bee614afa565b5b600660019054906101000a900460ff166003811115612c1157612c10614afa565b5b145b612c1c57600080fd5b6000600460009054906101000a90046bffffffffffffffffffffffff166bffffffffffffffffffffffff1611612c5157600080fd5b6000600460009054906101000a90046bffffffffffffffffffffffff1690506000600460006101000a8154816bffffffffffffffffffffffff02191690836bffffffffffffffffffffffff16021790555060007f000000000000000000000000000000000000000000000000000000000000000073ffffffffffffffffffffffffffffffffffffffff16826bffffffffffffffffffffffff16604051612cf690615344565b60006040518083038185875af1925050503d8060008114612d33576040519150601f19603f3d011682016040523d82523d6000602084013e612d38565b606091505b5050905080612d7c576040517f08c379a0000000000000000000000000000000000000000000000000000000008152600401612d73906153a5565b60405180910390fd5b5050612d86613252565b50565b600660019054906101000a900460ff1681565b612da461320c565b60006003811115612db857612db7614afa565b5b600660019054906101000a900460ff166003811115612dda57612dd9614afa565b5b14612de457600080fd5b6000600c8363ffffffff1681548110612e0057612dff61508e565b5b906000526020600020906003020190503373ffffffffffffffffffffffffffffffffffffffff168160010160009054906101000a900473ffffffffffffffffffffffffffffffffffffffff1673ffffffffffffffffffffffffffffffffffffffff16148015612e7d575080600201601a9054906101000a900460ff165b612e8657600080fd5b8181600201600c6101000a8154816bffffffffffffffffffffffff02191690836bffffffffffffffffffffffff16021790555060018160020160196101000a81548160ff0219169083151502179055507f50c7c110b9cabc516cf0aef475d15558b239d0490f0389129f4e6b4c378dfa3d60405160405180910390a150612f0b613252565b5050565b600660009054906101000a900460ff1681565b612f2a61320c565b6005600760003373ffffffffffffffffffffffffffffffffffffffff1673ffffffffffffffffffffffffffffffffffffffff16815260200190815260200160002080549050612f799190615667565b81511115612f8657600080fd5b60005b81518163ffffffff1610156131d4576000828263ffffffff1681518110612fb357612fb261508e565b5b602002602001015190503373ffffffffffffffffffffffffffffffffffffffff16600c8263ffffffff1681548110612fee57612fed61508e565b5b906000526020600020906003020160010160009054906101000a900473ffffffffffffffffffffffffffffffffffffffff1673ffffffffffffffffffffffffffffffffffffffff1614613076576040517f08c379a000000000000000000000000000000000000000000000000000000000815260040161306d906156e7565b60405180910390fd5b60011515600c8263ffffffff16815481106130945761309361508e565b5b906000526020600020906003020160020160199054906101000a900460ff161515146130f5576040517f08c379a00000000000000000000000000000000000000000000000000000000081526004016130ec90615753565b60405180910390fd5b600c8163ffffffff168154811061310f5761310e61508e565b5b9060005260206000209060030201600201601a9054906101000a900460ff1661313757600080fd5b600c805490508163ffffffff1610613184576040517f08c379a000000000000000000000000000000000000000000000000000000000815260040161317b906157bf565b60405180910390fd5b6000600c8263ffffffff16815481106131a05761319f61508e565b5b906000526020600020906003020160020160196101000a81548160ff02191690831515021790555081600101915050612f89565b507f1e5a109a2c5190a6567f1b2386d95213f70c40047a7d1f2fb64e5974c9a0043a60405160405180910390a1613209613252565b50565b600260005403613248576040517f3ee5aeb500000000000000000000000000000000000000000000000000000000815260040160405180910390fd5b6002600081905550565b6001600081905550565b600b600061326a9190614551565b6000600c80549050905060005b8163ffffffff168163ffffffff161015613589576000600960008363ffffffff1663ffffffff1681526020019081526020016000209050600081805490509050600081111561357c5760005b818110156134cb5760008382815481106132e0576132df61508e565b5b906000526020600020906002020160000160009054906101000a900473ffffffffffffffffffffffffffffffffffffffff1690508382815481106133275761332661508e565b5b906000526020600020906002020160010160149054906101000a90046bffffffffffffffffffffffff16600a60008373ffffffffffffffffffffffffffffffffffffffff1673ffffffffffffffffffffffffffffffffffffffff16815260200190815260200160002060008282829054906101000a90046bffffffffffffffffffffffff160192506101000a8154816bffffffffffffffffffffffff02191690836bffffffffffffffffffffffff1602179055506000600a60008373ffffffffffffffffffffffffffffffffffffffff1673ffffffffffffffffffffffffffffffffffffffff16815260200190815260200160002060009054906101000a90046bffffffffffffffffffffffff166bffffffffffffffffffffffff1611801561345657506134548161405d565b155b156134bf57600b819080600181540180825580915050600190039060005260206000200160009091909190916101000a81548173ffffffffffffffffffffffffffffffffffffffff021916908373ffffffffffffffffffffffffffffffffffffffff1602179055505b816001019150506132c3565b50816000815481106134e0576134df61508e565b5b906000526020600020906002020160010160009054906101000a900473ffffffffffffffffffffffffffffffffffffffff16600c8463ffffffff168154811061352c5761352b61508e565b5b906000526020600020906003020160010160006101000a81548173ffffffffffffffffffffffffffffffffffffffff021916908373ffffffffffffffffffffffffffffffffffffffff1602179055505b8260010192505050613277565b506000600b80549050905060005b8181101561378d576000600b82815481106135b5576135b461508e565b5b9060005260206000200160009054906101000a900473ffffffffffffffffffffffffffffffffffffffff1690506000600a60008373ffffffffffffffffffffffffffffffffffffffff1673ffffffffffffffffffffffffffffffffffffffff16815260200190815260200160002060009054906101000a90046bffffffffffffffffffffffff1690506000816bffffffffffffffffffffffff161115613780576000600a60008473ffffffffffffffffffffffffffffffffffffffff1673ffffffffffffffffffffffffffffffffffffffff16815260200190815260200160002060006101000a8154816bffffffffffffffffffffffff02191690836bffffffffffffffffffffffff16021790555060008273ffffffffffffffffffffffffffffffffffffffff16826bffffffffffffffffffffffff166040516136f890615344565b60006040518083038185875af1925050503d8060008114613735576040519150601f19603f3d011682016040523d82523d6000602084013e61373a565b606091505b505090508061377e576040517f08c379a000000000000000000000000000000000000000000000000000000000815260040161377590615549565b60405180910390fd5b505b8260010192505050613597565b505050565b6000803373ffffffffffffffffffffffffffffffffffffffff168360000160009054906101000a900473ffffffffffffffffffffffffffffffffffffffff1673ffffffffffffffffffffffffffffffffffffffff1614801561384357503373ffffffffffffffffffffffffffffffffffffffff168360010160009054906101000a900473ffffffffffffffffffffffffffffffffffffffff1673ffffffffffffffffffffffffffffffffffffffff16145b156138fb578260020160009054906101000a90046bffffffffffffffffffffffff168360010160149054906101000a90046bffffffffffffffffffffffff1661388c91906157df565b915060008360010160146101000a8154816bffffffffffffffffffffffff02191690836bffffffffffffffffffffffff16021790555060008360020160006101000a8154816bffffffffffffffffffffffff02191690836bffffffffffffffffffffffff160217905550613b59565b3373ffffffffffffffffffffffffffffffffffffffff168360010160009054906101000a900473ffffffffffffffffffffffffffffffffffffffff1673ffffffffffffffffffffffffffffffffffffffff1614801561397f5750600660009054906101000a900460ff1660ff168360020160189054906101000a900460ff1660ff16145b80613a0b57503373ffffffffffffffffffffffffffffffffffffffff168360000160009054906101000a900473ffffffffffffffffffffffffffffffffffffffff1673ffffffffffffffffffffffffffffffffffffffff16148015613a0a5750600660009054906101000a900460ff1660ff168360020160189054906101000a900460ff1660ff1614155b5b15613b58578260010160149054906101000a90046bffffffffffffffffffffffff168360020160009054906101000a90046bffffffffffffffffffffffff16613a5491906157df565b91503373ffffffffffffffffffffffffffffffffffffffff168360010160009054906101000a900473ffffffffffffffffffffffffffffffffffffffff1673ffffffffffffffffffffffffffffffffffffffff1614613acf578260020160009054906101000a90046bffffffffffffffffffffffff16613aed565b8260010160149054906101000a90046bffffffffffffffffffffffff165b905060008360020160006101000a8154816bffffffffffffffffffffffff02191690836bffffffffffffffffffffffff16021790555060008360010160146101000a8154816bffffffffffffffffffffffff02191690836bffffffffffffffffffffffff1602179055505b5b915091565b60008060008367ffffffffffffffff811115613b7d57613b7c614e19565b5b604051908082528060200260200182016040528015613bab5781602001602082028036833780820191505090505b5090506000805b85811015613cbb576000878281548110613bcf57613bce61508e565b5b90600052602060002090600891828204019190066004029054906101000a900463ffffffff1663ffffffff1690506000805b84811015613c3e5782868281518110613c1d57613c1c61508e565b5b602002602001015103613c335760019150613c3e565b806001019050613c01565b5080613cae5781858581518110613c5857613c5761508e565b5b6020026020010181815250508360010193506000600c8381548110613c8057613c7f61508e565b5b90600052602060002090600302019050600080613c9c83614106565b91509150818a01995080890198505050505b8260010192505050613bb2565b5050509250929050565b60606000600c8054905090506000808267ffffffffffffffff811115613cee57613ced614e19565b5b604051908082528060200260200182016040528015613d2757816020015b613d14614572565b815260200190600190039081613d0c5790505b50905060005b83811015613faa57600c8181548110613d4957613d4861508e565b5b9060005260206000209060030201600201601a9054906101000a900460ff1615613f9f57600c8181548110613d8157613d8061508e565b5b9060005260206000209060030201604051806101200160405290816000820160009054906101000a900473ffffffffffffffffffffffffffffffffffffffff1673ffffffffffffffffffffffffffffffffffffffff1673ffffffffffffffffffffffffffffffffffffffff1681526020016001820160009054906101000a900473ffffffffffffffffffffffffffffffffffffffff1673ffffffffffffffffffffffffffffffffffffffff1673ffffffffffffffffffffffffffffffffffffffff1681526020016001820160149054906101000a90046bffffffffffffffffffffffff166bffffffffffffffffffffffff166bffffffffffffffffffffffff1681526020016002820160009054906101000a90046bffffffffffffffffffffffff166bffffffffffffffffffffffff166bffffffffffffffffffffffff16815260200160028201600c9054906101000a90046bffffffffffffffffffffffff166bffffffffffffffffffffffff166bffffffffffffffffffffffff1681526020016002820160189054906101000a900460ff1660ff1660ff1681526020016002820160199054906101000a900460ff1615151515815260200160028201601a9054906101000a900460ff1615151515815260200160028201601b9054906101000a900463ffffffff1663ffffffff1663ffffffff1681525050828481518110613f8d57613f8c61508e565b5b60200260200101819052508260010192505b806001019050613d2d565b5060008267ffffffffffffffff811115613fc757613fc6614e19565b5b60405190808252806020026020018201604052801561400057816020015b613fed614572565b815260200190600190039081613fe55790505b50905060005b83811015614052578281815181106140215761402061508e565b5b602002602001015182828151811061403c5761403b61508e565b5b6020026020010181905250806001019050614006565b508094505050505090565b600080600b80549050905060005b818110156140fa578373ffffffffffffffffffffffffffffffffffffffff16600b828154811061409e5761409d61508e565b5b9060005260206000200160009054906101000a900473ffffffffffffffffffffffffffffffffffffffff1673ffffffffffffffffffffffffffffffffffffffff16036140ef57600192505050614101565b80600101905061406b565b5060009150505b919050565b6000806000600660009054906101000a900460ff1660ff160361412f576000809150915061454c565b6003600660009054906101000a900460ff1660ff160361424e573373ffffffffffffffffffffffffffffffffffffffff168360010160009054906101000a900473ffffffffffffffffffffffffffffffffffffffff1673ffffffffffffffffffffffffffffffffffffffff16036141c0578260020160009054906101000a90046bffffffffffffffffffffffff1691505b3373ffffffffffffffffffffffffffffffffffffffff168360000160009054906101000a900473ffffffffffffffffffffffffffffffffffffffff1673ffffffffffffffffffffffffffffffffffffffff1603614242578260010160149054906101000a90046bffffffffffffffffffffffff168261423f91906157df565b91505b8160009150915061454c565b3373ffffffffffffffffffffffffffffffffffffffff168360000160009054906101000a900473ffffffffffffffffffffffffffffffffffffffff1673ffffffffffffffffffffffffffffffffffffffff161480156142fc57503373ffffffffffffffffffffffffffffffffffffffff168360010160009054906101000a900473ffffffffffffffffffffffffffffffffffffffff1673ffffffffffffffffffffffffffffffffffffffff16145b15614350578260020160009054906101000a90046bffffffffffffffffffffffff168360010160149054906101000a90046bffffffffffffffffffffffff1661434591906157df565b60009150915061454c565b60003373ffffffffffffffffffffffffffffffffffffffff168460010160009054906101000a900473ffffffffffffffffffffffffffffffffffffffff1673ffffffffffffffffffffffffffffffffffffffff161480156143d65750600660009054906101000a900460ff1660ff168460020160189054906101000a900460ff1660ff16145b8061446257503373ffffffffffffffffffffffffffffffffffffffff168460000160009054906101000a900473ffffffffffffffffffffffffffffffffffffffff1673ffffffffffffffffffffffffffffffffffffffff161480156144615750600660009054906101000a900460ff1660ff168460020160189054906101000a900460ff1660ff1614155b5b9050801561454a578360010160149054906101000a90046bffffffffffffffffffffffff168460020160009054906101000a90046bffffffffffffffffffffffff166144ae91906157df565b92503373ffffffffffffffffffffffffffffffffffffffff168460010160009054906101000a900473ffffffffffffffffffffffffffffffffffffffff1673ffffffffffffffffffffffffffffffffffffffff1614614529578360020160009054906101000a90046bffffffffffffffffffffffff16614547565b8360010160149054906101000a90046bffffffffffffffffffffffff165b91505b505b915091565b508054600082559060005260206000209081019061456f9190614621565b50565b604051806101200160405280600073ffffffffffffffffffffffffffffffffffffffff168152602001600073ffffffffffffffffffffffffffffffffffffffff16815260200160006bffffffffffffffffffffffff16815260200160006bffffffffffffffffffffffff16815260200160006bffffffffffffffffffffffff168152602001600060ff168152602001600015158152602001600015158152602001600063ffffffff1681525090565b5b8082111561463a576000816000905550600101614622565b5090565b6000604051905090565b600080fd5b600080fd5b60006bffffffffffffffffffffffff82169050919050565b61467381614652565b811461467e57600080fd5b50565b6000813590506146908161466a565b92915050565b600060ff82169050919050565b6146ac81614696565b81146146b757600080fd5b50565b6000813590506146c9816146a3565b92915050565b600080604083850312156146e6576146e5614648565b5b60006146f485828601614681565b9250506020614705858286016146ba565b9150509250929050565b60006020828403121561472557614724614648565b5b6000614733848285016146ba565b91505092915050565b61474581614652565b82525050565b6000602082019050614760600083018461473c565b92915050565b6000819050919050565b61477981614766565b811461478457600080fd5b50565b60008135905061479681614770565b92915050565b6000602082840312156147b2576147b1614648565b5b60006147c084828501614787565b91505092915050565b600073ffffffffffffffffffffffffffffffffffffffff82169050919050565b60006147f4826147c9565b9050919050565b614804816147e9565b82525050565b61481381614696565b82525050565b60008115159050919050565b61482e81614819565b82525050565b600063ffffffff82169050919050565b61484d81614834565b82525050565b600061012082019050614869600083018c6147fb565b614876602083018b6147fb565b614883604083018a61473c565b614890606083018961473c565b61489d608083018861473c565b6148aa60a083018761480a565b6148b760c0830186614825565b6148c460e0830185614825565b6148d2610100830184614844565b9a9950505050505050505050565b6148e981614834565b81146148f457600080fd5b50565b600081359050614906816148e0565b92915050565b60006020828403121561492257614921614648565b5b6000614930848285016148f7565b91505092915050565b600081519050919050565b600082825260208201905092915050565b6000819050602082019050919050565b61496e816147e9565b82525050565b61497d81614652565b82525050565b61498c81614696565b82525050565b61499b81614819565b82525050565b6149aa81614834565b82525050565b610120820160008201516149c76000850182614965565b5060208201516149da6020850182614965565b5060408201516149ed6040850182614974565b506060820151614a006060850182614974565b506080820151614a136080850182614974565b5060a0820151614a2660a0850182614983565b5060c0820151614a3960c0850182614992565b5060e0820151614a4c60e0850182614992565b50610100820151614a616101008501826149a1565b50505050565b6000614a7383836149b0565b6101208301905092915050565b6000602082019050919050565b6000614a9882614939565b614aa28185614944565b9350614aad83614955565b8060005b83811015614ade578151614ac58882614a67565b9750614ad083614a80565b925050600181019050614ab1565b5085935050505092915050565b614af481614766565b82525050565b7f4e487b7100000000000000000000000000000000000000000000000000000000600052602160045260246000fd5b60048110614b3a57614b39614afa565b5b50565b6000819050614b4b82614b29565b919050565b6000614b5b82614b3d565b9050919050565b614b6b81614b50565b82525050565b600060c0820190508181036000830152614b8b8189614a8d565b9050614b9a6020830188614aeb565b614ba7604083018761480a565b614bb46060830186614b62565b614bc16080830185614aeb565b614bce60a083018461473c565b979650505050505050565b614be2816147e9565b8114614bed57600080fd5b50565b600081359050614bff81614bd9565b92915050565b60008060408385031215614c1c57614c1b614648565b5b6000614c2a85828601614bf0565b9250506020614c3b85828601614787565b9150509250929050565b6000602082019050614c5a6000830184614844565b92915050565b6000602082019050614c756000830184614aeb565b92915050565b60008060408385031215614c9257614c91614648565b5b6000614ca0858286016148f7565b9250506020614cb185828601614787565b9150509250929050565b6000606082019050614cd060008301866147fb565b614cdd60208301856147fb565b614cea604083018461473c565b949350505050565b6000602082019050614d0760008301846147fb565b92915050565b600060208284031215614d2357614d22614648565b5b6000614d3184828501614bf0565b91505092915050565b600080600060608486031215614d5357614d52614648565b5b6000614d61868287016148f7565b9350506020614d7286828701614681565b9250506040614d8386828701614681565b9150509250925092565b6000602082019050614da26000830184614b62565b92915050565b60008060408385031215614dbf57614dbe614648565b5b6000614dcd858286016148f7565b9250506020614dde85828601614681565b9150509250929050565b6000602082019050614dfd600083018461480a565b92915050565b600080fd5b6000601f19601f8301169050919050565b7f4e487b7100000000000000000000000000000000000000000000000000000000600052604160045260246000fd5b614e5182614e08565b810181811067ffffffffffffffff82111715614e7057614e6f614e19565b5b80604052505050565b6000614e8361463e565b9050614e8f8282614e48565b919050565b600067ffffffffffffffff821115614eaf57614eae614e19565b5b602082029050602081019050919050565b600080fd5b6000614ed8614ed384614e94565b614e79565b90508083825260208201905060208402830185811115614efb57614efa614ec0565b5b835b81811015614f245780614f1088826148f7565b845260208401935050602081019050614efd565b5050509392505050565b600082601f830112614f4357614f42614e03565b5b8135614f53848260208601614ec5565b91505092915050565b600060208284031215614f7257614f71614648565b5b600082013567ffffffffffffffff811115614f9057614f8f61464d565b5b614f9c84828501614f2e565b91505092915050565b600082825260208201905092915050565b7f416d6f756e7420746f6f206c6172676500000000000000000000000000000000600082015250565b6000614fec601083614fa5565b9150614ff782614fb6565b602082019050919050565b6000602082019050818103600083015261501b81614fdf565b9050919050565b7f42757920616d6f756e7420746f6f206c61726765000000000000000000000000600082015250565b6000615058601483614fa5565b915061506382615022565b602082019050919050565b600060208201905081810360008301526150878161504b565b9050919050565b7f4e487b7100000000000000000000000000000000000000000000000000000000600052603260045260246000fd5b7f4e487b7100000000000000000000000000000000000000000000000000000000600052601160045260246000fd5b60006150f782614766565b91507fffffffffffffffffffffffffffffffffffffffffffffffffffffffffffffffff8203615129576151286150bd565b5b600182019050919050565b7f43616c6c6572206973206e6f742061207374616666206d656d62657200000000600082015250565b600061516a601c83614fa5565b915061517582615134565b602082019050919050565b600060208201905081810360008301526151998161515d565b9050919050565b7f496e76616c69642073746174652076616c756500000000000000000000000000600082015250565b60006151d6601383614fa5565b91506151e1826151a0565b602082019050919050565b60006020820190508181036000830152615205816151c9565b9050919050565b7f4e487b7100000000000000000000000000000000000000000000000000000000600052601260045260246000fd5b7f496e73756666696369656e742062616c616e636520666f722066656573000000600082015250565b6000615271601d83614fa5565b915061527c8261523b565b602082019050919050565b600060208201905081810360008301526152a081615264565b9050919050565b7f4e6f7420656e6f7567682053686d65636b6c657320696e20436f6e7472616374600082015250565b60006152dd602083614fa5565b91506152e8826152a7565b602082019050919050565b6000602082019050818103600083015261530c816152d0565b9050919050565b600081905092915050565b50565b600061532e600083615313565b91506153398261531e565b600082019050919050565b600061534f82615321565b9150819050919050565b7f5472616e73666572206661696c65640000000000000000000000000000000000600082015250565b600061538f600f83614fa5565b915061539a82615359565b602082019050919050565b600060208201905081810360008301526153be81615382565b9050919050565b60006040820190506153da60008301856147fb565b6153e7602083018461473c565b9392505050565b60006060820190506154036000830186614844565b61541060208301856147fb565b61541d604083018461473c565b949350505050565b7f496e76616c696420706f736974696f6e00000000000000000000000000000000600082015250565b600061545b601083614fa5565b915061546682615425565b602082019050919050565b6000602082019050818103600083015261548a8161544e565b9050919050565b7f4e6f7420617574686f72697a6564206f722062657420696e6163746976650000600082015250565b60006154c7601e83614fa5565b91506154d282615491565b602082019050919050565b600060208201905081810360008301526154f6816154ba565b9050919050565b7f526566756e64206661696c656400000000000000000000000000000000000000600082015250565b6000615533600d83614fa5565b915061553e826154fd565b602082019050919050565b6000602082019050818103600083015261556281615526565b9050919050565b7f496e636f72726563742076616c75652073656e74000000000000000000000000600082015250565b600061559f601483614fa5565b91506155aa82615569565b602082019050919050565b600060208201905081810360008301526155ce81615592565b9050919050565b7f43616c6c6572206973206e6f7420746865206f776e6572206f7220612073746160008201527f6666206d656d6265720000000000000000000000000000000000000000000000602082015250565b6000615631602983614fa5565b915061563c826155d5565b604082019050919050565b6000602082019050818103600083015261566081615624565b9050919050565b600061567282614766565b915061567d83614766565b9250828201905080821115615695576156946150bd565b5b92915050565b7f43616c6c6572206973206e6f7420746865206f776e6572000000000000000000600082015250565b60006156d1601783614fa5565b91506156dc8261569b565b602082019050919050565b60006020820190508181036000830152615700816156c4565b9050919050565b7f426574206973206e6f7420666f722073616c6500000000000000000000000000600082015250565b600061573d601383614fa5565b915061574882615707565b602082019050919050565b6000602082019050818103600083015261576c81615730565b9050919050565b7f496e76616c696420506f736974696f6e00000000000000000000000000000000600082015250565b60006157a9601083614fa5565b91506157b482615773565b602082019050919050565b600060208201905081810360008301526157d88161579c565b9050919050565b60006157ea82614652565b91506157f583614652565b925082820190506bffffffffffffffffffffffff811115615819576158186150bd565b5b9291505056fea2646970667358221220b6f331ecb32ce9930c842f4600ffe29c8258c3cb2ed2a2f8d2929c4d1086128a64736f6c63430008140033",
  "linkReferences": {},
  "deployedLinkReferences": {}
}