{
  "_format": "hh-sol-artifact-1",
  "contractName": "predMarket2",
  "sourceName": "contracts/LockV2.sol",
  "abi": [
    {
      "inputs": [
        {
          "internalType": "uint256",
          "name": "_endTime",
          "type": "uint256"
        }
      ],
      "stateMutability": "nonpayable",
      "type": "constructor"
    },
    {
      "inputs": [],
      "name": "ReentrancyGuardReentrantCall",
      "type": "error"
    },
    {
      "anonymous": false,
      "inputs": [],
      "name": "BetCancelled",
      "type": "event"
    },
    {
      "anonymous": false,
      "inputs": [],
      "name": "BetEdited",
      "type": "event"
    },
    {
      "anonymous": false,
      "inputs": [],
      "name": "BetUnlisted",
      "type": "event"
    },
    {
      "anonymous": false,
      "inputs": [
        {
          "indexed": true,
          "internalType": "address",
          "name": "beneficiary",
          "type": "address"
        },
        {
          "indexed": false,
          "internalType": "uint256",
          "name": "amount",
          "type": "uint256"
        }
      ],
      "name": "FundsRedistributed",
      "type": "event"
    },
    {
      "anonymous": false,
      "inputs": [],
      "name": "PayoutProcessed",
      "type": "event"
    },
    {
      "anonymous": false,
      "inputs": [],
      "name": "userBoughtBet",
      "type": "event"
    },
    {
      "anonymous": false,
      "inputs": [
        {
          "indexed": false,
          "internalType": "uint256",
          "name": "positionInArray",
          "type": "uint256"
        }
      ],
      "name": "userCreatedABet",
      "type": "event"
    },
    {
      "anonymous": false,
      "inputs": [],
      "name": "userReListedBet",
      "type": "event"
    },
    {
      "anonymous": false,
      "inputs": [],
      "name": "userVoted",
      "type": "event"
    },
    {
      "anonymous": false,
      "inputs": [],
      "name": "userWithdrew",
      "type": "event"
    },
    {
      "anonymous": false,
      "inputs": [],
      "name": "winnerDeclaredVoting",
      "type": "event"
    },
    {
      "inputs": [],
      "name": "allBets_Balance",
      "outputs": [
        {
          "components": [
            {
              "internalType": "address",
              "name": "deployer",
              "type": "address"
            },
            {
              "internalType": "uint256",
              "name": "amountDeployerLocked",
              "type": "uint256"
            },
            {
              "internalType": "address",
              "name": "owner",
              "type": "address"
            },
            {
              "internalType": "uint256",
              "name": "amountBuyerLocked",
              "type": "uint256"
            },
            {
              "internalType": "uint256",
              "name": "amountToBuyFor",
              "type": "uint256"
            },
            {
              "internalType": "uint8",
              "name": "conditionForBuyerToWin",
              "type": "uint8"
            },
            {
              "internalType": "bool",
              "name": "selling",
              "type": "bool"
            },
            {
              "internalType": "uint256",
              "name": "positionInArray",
              "type": "uint256"
            },
            {
              "internalType": "bool",
              "name": "isActive",
              "type": "bool"
            }
          ],
          "internalType": "struct predMarket2.bet[]",
          "name": "",
          "type": "tuple[]"
        },
        {
          "internalType": "uint256",
          "name": "",
          "type": "uint256"
        },
        {
          "internalType": "uint8",
          "name": "",
          "type": "uint8"
        },
        {
          "internalType": "enum predMarket2.RaffleState",
          "name": "",
          "type": "uint8"
        },
        {
          "internalType": "uint256",
          "name": "",
          "type": "uint256"
        },
        {
          "internalType": "uint256",
          "name": "",
          "type": "uint256"
        }
      ],
      "stateMutability": "view",
      "type": "function"
    },
    {
      "inputs": [
        {
          "internalType": "address",
          "name": "",
          "type": "address"
        }
      ],
      "name": "amountMadeFromSoldBets",
      "outputs": [
        {
          "internalType": "uint256",
          "name": "",
          "type": "uint256"
        }
      ],
      "stateMutability": "view",
      "type": "function"
    },
    {
      "inputs": [
        {
          "internalType": "uint256",
          "name": "",
          "type": "uint256"
        }
      ],
      "name": "arrayOfBets",
      "outputs": [
        {
          "internalType": "address",
          "name": "deployer",
          "type": "address"
        },
        {
          "internalType": "uint256",
          "name": "amountDeployerLocked",
          "type": "uint256"
        },
        {
          "internalType": "address",
          "name": "owner",
          "type": "address"
        },
        {
          "internalType": "uint256",
          "name": "amountBuyerLocked",
          "type": "uint256"
        },
        {
          "internalType": "uint256",
          "name": "amountToBuyFor",
          "type": "uint256"
        },
        {
          "internalType": "uint8",
          "name": "conditionForBuyerToWin",
          "type": "uint8"
        },
        {
          "internalType": "bool",
          "name": "selling",
          "type": "bool"
        },
        {
          "internalType": "uint256",
          "name": "positionInArray",
          "type": "uint256"
        },
        {
          "internalType": "bool",
          "name": "isActive",
          "type": "bool"
        }
      ],
      "stateMutability": "view",
      "type": "function"
    },
    {
      "inputs": [
        {
          "internalType": "address",
          "name": "",
          "type": "address"
        },
        {
          "internalType": "uint256",
          "name": "",
          "type": "uint256"
        }
      ],
      "name": "betsByUser",
      "outputs": [
        {
          "internalType": "uint256",
          "name": "",
          "type": "uint256"
        }
      ],
      "stateMutability": "view",
      "type": "function"
    },
    {
      "inputs": [
        {
          "internalType": "uint256",
          "name": "positionOfArray",
          "type": "uint256"
        }
      ],
      "name": "buyABet",
      "outputs": [],
      "stateMutability": "payable",
      "type": "function"
    },
    {
      "inputs": [
        {
          "internalType": "uint256",
          "name": "positionOfArray",
          "type": "uint256"
        }
      ],
      "name": "cancelOwnedBet",
      "outputs": [],
      "stateMutability": "nonpayable",
      "type": "function"
    },
    {
      "inputs": [
        {
          "internalType": "uint8",
          "name": "state",
          "type": "uint8"
        }
      ],
      "name": "changeState",
      "outputs": [],
      "stateMutability": "nonpayable",
      "type": "function"
    },
    {
      "inputs": [],
      "name": "creatorLocked",
      "outputs": [
        {
          "internalType": "uint256",
          "name": "",
          "type": "uint256"
        }
      ],
      "stateMutability": "view",
      "type": "function"
    },
    {
      "inputs": [
        {
          "internalType": "uint8",
          "name": "_winner",
          "type": "uint8"
        }
      ],
      "name": "declareWinner",
      "outputs": [],
      "stateMutability": "nonpayable",
      "type": "function"
    },
    {
      "inputs": [],
      "name": "disagreeWithOwner",
      "outputs": [],
      "stateMutability": "nonpayable",
      "type": "function"
    },
    {
      "inputs": [
        {
          "internalType": "uint256",
          "name": "positionOfArray",
          "type": "uint256"
        },
        {
          "internalType": "uint256",
          "name": "newDeployPrice",
          "type": "uint256"
        },
        {
          "internalType": "uint256",
          "name": "newAskingPrice",
          "type": "uint256"
        }
      ],
      "name": "editADeployedBet",
      "outputs": [],
      "stateMutability": "payable",
      "type": "function"
    },
    {
      "inputs": [],
      "name": "endOfVoting",
      "outputs": [
        {
          "internalType": "uint256",
          "name": "",
          "type": "uint256"
        }
      ],
      "stateMutability": "view",
      "type": "function"
    },
    {
      "inputs": [],
      "name": "owner",
      "outputs": [
        {
          "internalType": "address",
          "name": "",
          "type": "address"
        }
      ],
      "stateMutability": "view",
      "type": "function"
    },
    {
      "inputs": [],
      "name": "s_raffleState",
      "outputs": [
        {
          "internalType": "enum predMarket2.RaffleState",
          "name": "",
          "type": "uint8"
        }
      ],
      "stateMutability": "view",
      "type": "function"
    },
    {
      "inputs": [
        {
          "internalType": "uint256",
          "name": "amountToBuy",
          "type": "uint256"
        },
        {
          "internalType": "uint8",
          "name": "conditionToWIn",
          "type": "uint8"
        }
      ],
      "name": "sellANewBet",
      "outputs": [],
      "stateMutability": "payable",
      "type": "function"
    },
    {
      "inputs": [
        {
          "internalType": "uint256",
          "name": "positionOfArray",
          "type": "uint256"
        },
        {
          "internalType": "uint256",
          "name": "newAskingPrice",
          "type": "uint256"
        }
      ],
      "name": "sellAnExistingBet",
      "outputs": [],
      "stateMutability": "nonpayable",
      "type": "function"
    },
    {
      "inputs": [
        {
          "internalType": "uint256",
          "name": "",
          "type": "uint256"
        },
        {
          "internalType": "uint256",
          "name": "",
          "type": "uint256"
        }
      ],
      "name": "soldBetHistory",
      "outputs": [
        {
          "internalType": "address",
          "name": "buyer",
          "type": "address"
        },
        {
          "internalType": "address",
          "name": "previousOwner",
          "type": "address"
        },
        {
          "internalType": "uint256",
          "name": "amountPaid",
          "type": "uint256"
        }
      ],
      "stateMutability": "view",
      "type": "function"
    },
    {
      "inputs": [],
      "name": "staffPay",
      "outputs": [
        {
          "internalType": "uint256",
          "name": "",
          "type": "uint256"
        }
      ],
      "stateMutability": "view",
      "type": "function"
    },
    {
      "inputs": [],
      "name": "transferOwnerAmount",
      "outputs": [],
      "stateMutability": "nonpayable",
      "type": "function"
    },
    {
      "inputs": [],
      "name": "transferStaffAmount",
      "outputs": [],
      "stateMutability": "nonpayable",
      "type": "function"
    },
    {
      "inputs": [
        {
          "internalType": "uint256[]",
          "name": "positionsOfArray",
          "type": "uint256[]"
        }
      ],
      "name": "unlistBets",
      "outputs": [],
      "stateMutability": "nonpayable",
      "type": "function"
    },
    {
      "inputs": [],
      "name": "winner",
      "outputs": [
        {
          "internalType": "uint8",
          "name": "",
          "type": "uint8"
        }
      ],
      "stateMutability": "view",
      "type": "function"
    },
    {
      "inputs": [],
      "name": "withdraw",
      "outputs": [],
      "stateMutability": "nonpayable",
      "type": "function"
    }
  ],
  "bytecode": "0x60a0604052604051806020016040528073f39fd6e51aad88f6f4ce6ab8827279cfffb9226673ffffffffffffffffffffffffffffffffffffffff1673ffffffffffffffffffffffffffffffffffffffff1681525060019060016200006592919062000111565b503480156200007357600080fd5b5060405162004e9438038062004e948339818101604052810190620000999190620001ff565b60016000819055503373ffffffffffffffffffffffffffffffffffffffff1660808173ffffffffffffffffffffffffffffffffffffffff1681525050806005819055506000600660016101000a81548160ff0219169083600381111562000105576200010462000231565b5b02179055505062000260565b8280548282559060005260206000209081019282156200018d579160200282015b828111156200018c5782518260006101000a81548173ffffffffffffffffffffffffffffffffffffffff021916908373ffffffffffffffffffffffffffffffffffffffff1602179055509160200191906001019062000132565b5b5090506200019c9190620001a0565b5090565b5b80821115620001bb576000816000905550600101620001a1565b5090565b600080fd5b6000819050919050565b620001d981620001c4565b8114620001e557600080fd5b50565b600081519050620001f981620001ce565b92915050565b600060208284031215620002185762000217620001bf565b5b60006200022884828501620001e8565b91505092915050565b7f4e487b7100000000000000000000000000000000000000000000000000000000600052602160045260246000fd5b608051614c0a6200028a600039600081816117f4015281816122cd015261243a0152614c0a6000f3fe6080604052600436106101405760003560e01c80638da5cb5b116100b6578063b4a36fd71161006f578063b4a36fd714610401578063cc45483f14610418578063d38399ec14610443578063dfbf53ae1461046c578063ee9891f114610497578063f0d93377146104b357610140565b80638da5cb5b1461030f5780639651b1831461033a57806397ecf900146103565780639e1bffe914610372578063a6c69ffe146103af578063a773d4c0146103d857610140565b80635d926148116101085780635d9261481461021e578063607c9cea146102355780636afedac5146102605780637672ef7b146102905780637c54bafe146102a75780637e887332146102e457610140565b80631798b2ae14610145578063268f11531461016e57806330dda1c2146101975780633658957e146101c25780633ccfd60b14610207575b600080fd5b34801561015157600080fd5b5061016c60048036038101906101679190613b37565b6104f2565b005b34801561017a57600080fd5b5061019560048036038101906101909190613b37565b610890565b005b3480156101a357600080fd5b506101ac610a0d565b6040516101b99190613b7d565b60405180910390f35b3480156101ce57600080fd5b506101e960048036038101906101e49190613bc4565b610a13565b6040516101fe99989796959493929190613c5c565b60405180910390f35b34801561021357600080fd5b5061021c610ad8565b005b34801561022a57600080fd5b506102336112d3565b005b34801561024157600080fd5b5061024a6114e5565b6040516102579190613b7d565b60405180910390f35b34801561026c57600080fd5b506102756114eb565b60405161028796959493929190613f03565b60405180910390f35b34801561029c57600080fd5b506102a5611684565b005b3480156102b357600080fd5b506102ce60048036038101906102c99190613f97565b6117bb565b6040516102db9190613b7d565b60405180910390f35b3480156102f057600080fd5b506102f96117ec565b6040516103069190613b7d565b60405180910390f35b34801561031b57600080fd5b506103246117f2565b6040516103319190613fd7565b60405180910390f35b610354600480360381019061034f9190613ff2565b611816565b005b610370600480360381019061036b9190614032565b611b00565b005b34801561037e57600080fd5b5061039960048036038101906103949190614085565b611dee565b6040516103a69190613b7d565b60405180910390f35b3480156103bb57600080fd5b506103d660048036038101906103d191906140b2565b611e06565b005b3480156103e457600080fd5b506103ff60048036038101906103fa9190613bc4565b611fa7565b005b34801561040d57600080fd5b5061041661222c565b005b34801561042457600080fd5b5061042d6124b4565b60405161043a91906140f2565b60405180910390f35b34801561044f57600080fd5b5061046a60048036038101906104659190614266565b6124c7565b005b34801561047857600080fd5b506104816126ec565b60405161048e91906142af565b60405180910390f35b6104b160048036038101906104ac9190613bc4565b6126ff565b005b3480156104bf57600080fd5b506104da60048036038101906104d591906140b2565b612c04565b6040516104e9939291906142ca565b60405180910390f35b6000805b600180549050811015610590573373ffffffffffffffffffffffffffffffffffffffff166001828154811061052e5761052d614301565b5b9060005260206000200160009054906101000a900473ffffffffffffffffffffffffffffffffffffffff1673ffffffffffffffffffffffffffffffffffffffff160361057d5760019150610590565b80806105889061435f565b9150506104f6565b50806105d1576040517f08c379a00000000000000000000000000000000000000000000000000000000081526004016105c890614404565b60405180910390fd5b6105d9612c8b565b60008260ff161180156105ef575060048260ff16105b6105f857600080fd5b60038260ff16036106835761060b612cd1565b6003600660016101000a81548160ff0219169083600381111561063157610630613e8c565b5b02179055506003600660006101000a81548160ff021916908360ff1602179055507fbbfddbd2a33e1c8d143e1f8b564451965d01678a70438b79b4900cd033c12a2760405160405180910390a1610884565b6000600381111561069757610696613e8c565b5b600660019054906101000a900460ff1660038111156106b9576106b8613e8c565b5b0361074f57600042905061012c816106d19190614424565b6003819055506001600660016101000a81548160ff021916908360038111156106fd576106fc613e8c565b5b021790555082600660006101000a81548160ff021916908360ff1602179055507fbbfddbd2a33e1c8d143e1f8b564451965d01678a70438b79b4900cd033c12a2760405160405180910390a150610883565b6001600381111561076357610762613e8c565b5b600660019054906101000a900460ff16600381111561078557610784613e8c565b5b148015610793575060035442115b806107d15750600260038111156107ad576107ac613e8c565b5b600660019054906101000a900460ff1660038111156107cf576107ce613e8c565b5b145b610810576040517f08c379a0000000000000000000000000000000000000000000000000000000008152600401610807906144f0565b60405180910390fd5b81600660006101000a81548160ff021916908360ff1602179055507fbbfddbd2a33e1c8d143e1f8b564451965d01678a70438b79b4900cd033c12a2760405160405180910390a16003600660016101000a81548160ff0219169083600381111561087d5761087c613e8c565b5b02179055505b5b61088c613259565b5050565b6000805b60018054905081101561092e573373ffffffffffffffffffffffffffffffffffffffff16600182815481106108cc576108cb614301565b5b9060005260206000200160009054906101000a900473ffffffffffffffffffffffffffffffffffffffff1673ffffffffffffffffffffffffffffffffffffffff160361091b576001915061092e565b80806109269061435f565b915050610894565b508061096f576040517f08c379a000000000000000000000000000000000000000000000000000000000815260040161096690614404565b60405180910390fd5b60038081111561098257610981613e8c565b5b60ff168260ff1611156109ca576040517f08c379a00000000000000000000000000000000000000000000000000000000081526004016109c19061455c565b60405180910390fd5b8160ff1660038111156109e0576109df613e8c565b5b600660016101000a81548160ff02191690836003811115610a0457610a03613e8c565b5b02179055505050565b60045481565b600a8181548110610a2357600080fd5b90600052602060002090600802016000915090508060000160009054906101000a900473ffffffffffffffffffffffffffffffffffffffff16908060010154908060020160009054906101000a900473ffffffffffffffffffffffffffffffffffffffff16908060030154908060040154908060050160009054906101000a900460ff16908060050160019054906101000a900460ff16908060060154908060070160009054906101000a900460ff16905089565b610ae0612c8b565b600380811115610af357610af2613e8c565b5b600660019054906101000a900460ff166003811115610b1557610b14613e8c565b5b1480610b61575060016003811115610b3057610b2f613e8c565b5b600660019054906101000a900460ff166003811115610b5257610b51613e8c565b5b148015610b60575060035442115b5b610ba0576040517f08c379a0000000000000000000000000000000000000000000000000000000008152600401610b97906145c8565b60405180910390fd5b6000600760003373ffffffffffffffffffffffffffffffffffffffff1673ffffffffffffffffffffffffffffffffffffffff16815260200190815260200160002090506000818054905011610c2a576040517f08c379a0000000000000000000000000000000000000000000000000000000008152600401610c2190614634565b60405180910390fd5b60008060006003600660009054906101000a900460ff1660ff1614905060005b848054905081101561109f576000858281548110610c6b57610c6a614301565b5b906000526020600020015490506000600a8281548110610c8e57610c8d614301565b5b906000526020600020906008020190508315610d91573373ffffffffffffffffffffffffffffffffffffffff168160020160009054906101000a900473ffffffffffffffffffffffffffffffffffffffff1673ffffffffffffffffffffffffffffffffffffffff1603610d1857806003015486610d0b9190614424565b9550600081600301819055505b3373ffffffffffffffffffffffffffffffffffffffff168160000160009054906101000a900473ffffffffffffffffffffffffffffffffffffffff1673ffffffffffffffffffffffffffffffffffffffff1603610d8c57806001015486610d7f9190614424565b9550600081600101819055505b61108a565b60003373ffffffffffffffffffffffffffffffffffffffff168260000160009054906101000a900473ffffffffffffffffffffffffffffffffffffffff1673ffffffffffffffffffffffffffffffffffffffff16148015610e4157503373ffffffffffffffffffffffffffffffffffffffff168260020160009054906101000a900473ffffffffffffffffffffffffffffffffffffffff1673ffffffffffffffffffffffffffffffffffffffff16145b90508015610e835781600301548260010154610e5d9190614424565b87610e689190614424565b96506000826001018190555060008260030181905550611088565b3373ffffffffffffffffffffffffffffffffffffffff168260020160009054906101000a900473ffffffffffffffffffffffffffffffffffffffff1673ffffffffffffffffffffffffffffffffffffffff16148015610f075750600660009054906101000a900460ff1660ff168260050160009054906101000a900460ff1660ff16145b80610f9357503373ffffffffffffffffffffffffffffffffffffffff168260000160009054906101000a900473ffffffffffffffffffffffffffffffffffffffff1673ffffffffffffffffffffffffffffffffffffffff16148015610f925750600660009054906101000a900460ff1660ff168260050160009054906101000a900460ff1660ff1614155b5b1561108757600082600101548360030154610fae9190614424565b90508088610fbc9190614424565b97503373ffffffffffffffffffffffffffffffffffffffff168360020160009054906101000a900473ffffffffffffffffffffffffffffffffffffffff1673ffffffffffffffffffffffffffffffffffffffff161480156110425750600660009054906101000a900460ff1660ff168360050160009054906101000a900460ff1660ff16145b1561105e578260010154876110579190614424565b9650611071565b82600301548761106e9190614424565b96505b6000836003018190555060008360010181905550505b5b505b505080806110979061435f565b915050610c4a565b50806111cc57600082111561113957600061271061012c846110c19190614654565b6110cb91906146c5565b9050600061271060c8856110df9190614654565b6110e991906146c5565b905081600260008282546110fd9190614424565b9250508190555080600460008282546111169190614424565b9250508190555081816111299190614424565b8561113491906146f6565b945050505b600860003373ffffffffffffffffffffffffffffffffffffffff1673ffffffffffffffffffffffffffffffffffffffff16815260200190815260200160002054836111849190614424565b92506000600860003373ffffffffffffffffffffffffffffffffffffffff1673ffffffffffffffffffffffffffffffffffffffff168152602001908152602001600020819055505b6000831161120f576040517f08c379a000000000000000000000000000000000000000000000000000000000815260040161120690614776565b60405180910390fd5b82471015611252576040517f08c379a0000000000000000000000000000000000000000000000000000000008152600401611249906147e2565b60405180910390fd5b3373ffffffffffffffffffffffffffffffffffffffff166108fc849081150290604051600060405180830381858888f19350505050158015611298573d6000803e3d6000fd5b507fc3038e585f1bbb89a9a4ed41eb9b8f65d3589d382434df15a354153177e39bbd60405160405180910390a1505050506112d1613259565b565b6000805b600180549050811015611371573373ffffffffffffffffffffffffffffffffffffffff166001828154811061130f5761130e614301565b5b9060005260206000200160009054906101000a900473ffffffffffffffffffffffffffffffffffffffff1673ffffffffffffffffffffffffffffffffffffffff160361135e5760019150611371565b80806113699061435f565b9150506112d7565b50806113b2576040517f08c379a00000000000000000000000000000000000000000000000000000000081526004016113a990614404565b60405180910390fd5b6113ba612c8b565b600160038111156113ce576113cd613e8c565b5b600660019054906101000a900460ff1660038111156113f0576113ef613e8c565b5b1480156113fe575060035442115b8061143b575060038081111561141757611416613e8c565b5b600660019054906101000a900460ff16600381111561143957611438613e8c565b5b145b61147a576040517f08c379a00000000000000000000000000000000000000000000000000000000081526004016114719061484e565b60405180910390fd5b60006002541161148957600080fd5b3373ffffffffffffffffffffffffffffffffffffffff166108fc6002549081150290604051600060405180830381858888f193505050501580156114d1573d6000803e3d6000fd5b5060006002819055506114e2613259565b50565b60025481565b6060600080600080600080600090506000806003600660009054906101000a900460ff1660ff16149050600080600660009054906101000a900460ff1660ff161490506000600760003373ffffffffffffffffffffffffffffffffffffffff1673ffffffffffffffffffffffffffffffffffffffff168152602001908152602001600020905060008180549050905060006115868383613263565b90506115958186868a8a61337f565b8097508198505050846116265760008611156115d857600060646005886115bc9190614654565b6115c691906146c5565b905080886115d491906146f6565b9750505b600860003373ffffffffffffffffffffffffffffffffffffffff1673ffffffffffffffffffffffffffffffffffffffff16815260200190815260200160002054876116239190614424565b96505b6000611630613771565b9050600061163d826137ea565b905080600554600660009054906101000a900460ff16600660019054906101000a900460ff166003548d9e509e509e509e509e509e50505050505050505050909192939495565b61168c612c8b565b600160038111156116a05761169f613e8c565b5b600660019054906101000a900460ff1660038111156116c2576116c1613e8c565b5b1480156116d0575060035442105b8061171b5750600060038111156116ea576116e9613e8c565b5b600660019054906101000a900460ff16600381111561170c5761170b613e8c565b5b14801561171a575060055442115b5b61175a576040517f08c379a00000000000000000000000000000000000000000000000000000000081526004016117519061484e565b60405180910390fd5b6002600660016101000a81548160ff021916908360038111156117805761177f613e8c565b5b02179055507f325941a5b65623f14f777a10c4ee68b69cec6214a44a48c1bb1c4991314755c060405160405180910390a16117b9613259565b565b600760205281600052604060002081815481106117d757600080fd5b90600052602060002001600091509150505481565b60035481565b7f000000000000000000000000000000000000000000000000000000000000000081565b61181e612c8b565b60008160ff16118015611835575060028160ff1611155b61183e57600080fd5b6000341161184b57600080fd5b6000600381111561185f5761185e613e8c565b5b600660019054906101000a900460ff16600381111561188157611880613e8c565b5b1461188b57600080fd5b6000600a80549050905060006040518061012001604052803373ffffffffffffffffffffffffffffffffffffffff1681526020013481526020013373ffffffffffffffffffffffffffffffffffffffff168152602001600081526020018581526020018460ff168152602001600115158152602001838152602001600115158152509050600760003373ffffffffffffffffffffffffffffffffffffffff1673ffffffffffffffffffffffffffffffffffffffff168152602001908152602001600020829080600181540180825580915050600190039060005260206000200160009091909190915055600a81908060018154018082558091505060019003906000526020600020906008020160009091909190915060008201518160000160006101000a81548173ffffffffffffffffffffffffffffffffffffffff021916908373ffffffffffffffffffffffffffffffffffffffff1602179055506020820151816001015560408201518160020160006101000a81548173ffffffffffffffffffffffffffffffffffffffff021916908373ffffffffffffffffffffffffffffffffffffffff160217905550606082015181600301556080820151816004015560a08201518160050160006101000a81548160ff021916908360ff16021790555060c08201518160050160016101000a81548160ff02191690831515021790555060e082015181600601556101008201518160070160006101000a81548160ff02191690831515021790555050507f6c22380a813deedec8365cd79ff359c6da0e59cabe96339962cb1669b9d4e3bd82604051611aea9190613b7d565b60405180910390a15050611afc613259565b5050565b611b08612c8b565b6000600a8481548110611b1e57611b1d614301565b5b906000526020600020906008020190503373ffffffffffffffffffffffffffffffffffffffff168160020160009054906101000a900473ffffffffffffffffffffffffffffffffffffffff1673ffffffffffffffffffffffffffffffffffffffff16148015611bdc57503373ffffffffffffffffffffffffffffffffffffffff168160000160009054906101000a900473ffffffffffffffffffffffffffffffffffffffff1673ffffffffffffffffffffffffffffffffffffffff16145b611c1b576040517f08c379a0000000000000000000000000000000000000000000000000000000008152600401611c12906148e0565b60405180910390fd5b600a8481548110611c2f57611c2e614301565b5b906000526020600020906008020160070160009054906101000a900460ff16611c5757600080fd5b600081600101549050808414611d765780841015611d185760008482611c7d91906146f6565b905080471015611cc2576040517f08c379a0000000000000000000000000000000000000000000000000000000008152600401611cb990614972565b60405180910390fd5b8483600101819055503373ffffffffffffffffffffffffffffffffffffffff166108fc829081150290604051600060405180830381858888f19350505050158015611d11573d6000803e3d6000fd5b5050611d75565b60008185611d2691906146f6565b9050803414611d6a576040517f08c379a0000000000000000000000000000000000000000000000000000000008152600401611d61906149de565b60405180910390fd5b848360010181905550505b5b8282600401819055508160050160019054906101000a900460ff16611db35760018260050160016101000a81548160ff0219169083151502179055505b7ff75e56f787976a19558bde97657a643e88c61a76b39e41f3a06a120defa30d6160405160405180910390a15050611de9613259565b505050565b60086020528060005260406000206000915090505481565b611e0e612c8b565b60006003811115611e2257611e21613e8c565b5b600660019054906101000a900460ff166003811115611e4457611e43613e8c565b5b14611e4e57600080fd5b3373ffffffffffffffffffffffffffffffffffffffff16600a8381548110611e7957611e78614301565b5b906000526020600020906008020160020160009054906101000a900473ffffffffffffffffffffffffffffffffffffffff1673ffffffffffffffffffffffffffffffffffffffff1614611ecb57600080fd5b600a8281548110611edf57611ede614301565b5b906000526020600020906008020160070160009054906101000a900460ff16611f0757600080fd5b80600a8381548110611f1c57611f1b614301565b5b9060005260206000209060080201600401819055506001600a8381548110611f4757611f46614301565b5b906000526020600020906008020160050160016101000a81548160ff0219169083151502179055507f50c7c110b9cabc516cf0aef475d15558b239d0490f0389129f4e6b4c378dfa3d60405160405180910390a1611fa3613259565b5050565b611faf612c8b565b6000600a8281548110611fc557611fc4614301565b5b906000526020600020906008020190503373ffffffffffffffffffffffffffffffffffffffff168160020160009054906101000a900473ffffffffffffffffffffffffffffffffffffffff1673ffffffffffffffffffffffffffffffffffffffff1614801561208357503373ffffffffffffffffffffffffffffffffffffffff168160000160009054906101000a900473ffffffffffffffffffffffffffffffffffffffff1673ffffffffffffffffffffffffffffffffffffffff16145b6120c2576040517f08c379a00000000000000000000000000000000000000000000000000000000081526004016120b9906148e0565b60405180910390fd5b600080826003015411156120eb57816001015482600301546120e49190614424565b90506120f3565b816001015490505b3373ffffffffffffffffffffffffffffffffffffffff166108fc829081150290604051600060405180830381858888f19350505050158015612139573d6000803e3d6000fd5b5060008260020160006101000a81548173ffffffffffffffffffffffffffffffffffffffff021916908373ffffffffffffffffffffffffffffffffffffffff16021790555060008260000160006101000a81548173ffffffffffffffffffffffffffffffffffffffff021916908373ffffffffffffffffffffffffffffffffffffffff160217905550600082600301819055506000826001018190555060008260070160006101000a81548160ff0219169083151502179055507fa9c660d43fdb14d4f7f7226623a556967689f58ee0e7c1a3397257bb909454c960405160405180910390a15050612229613259565b50565b6000805b6001805490508110156122ca573373ffffffffffffffffffffffffffffffffffffffff166001828154811061226857612267614301565b5b9060005260206000200160009054906101000a900473ffffffffffffffffffffffffffffffffffffffff1673ffffffffffffffffffffffffffffffffffffffff16036122b757600191506122ca565b80806122c29061435f565b915050612230565b507f000000000000000000000000000000000000000000000000000000000000000073ffffffffffffffffffffffffffffffffffffffff163373ffffffffffffffffffffffffffffffffffffffff1614806123225750805b612361576040517f08c379a000000000000000000000000000000000000000000000000000000000815260040161235890614a70565b60405180910390fd5b612369612c8b565b6001600381111561237d5761237c613e8c565b5b600660019054906101000a900460ff16600381111561239f5761239e613e8c565b5b1480156123ad575060035442115b806123ea57506003808111156123c6576123c5613e8c565b5b600660019054906101000a900460ff1660038111156123e8576123e7613e8c565b5b145b612429576040517f08c379a00000000000000000000000000000000000000000000000000000000081526004016124209061484e565b60405180910390fd5b60006004541161243857600080fd5b7f000000000000000000000000000000000000000000000000000000000000000073ffffffffffffffffffffffffffffffffffffffff166108fc6004549081150290604051600060405180830381858888f193505050501580156124a0573d6000803e3d6000fd5b5060006004819055506124b1613259565b50565b600660019054906101000a900460ff1681565b6124cf612c8b565b60005b81518110156126b45760008282815181106124f0576124ef614301565b5b602002602001015190503373ffffffffffffffffffffffffffffffffffffffff16600a828154811061252557612524614301565b5b906000526020600020906008020160020160009054906101000a900473ffffffffffffffffffffffffffffffffffffffff1673ffffffffffffffffffffffffffffffffffffffff16146125ad576040517f08c379a00000000000000000000000000000000000000000000000000000000081526004016125a490614adc565b60405180910390fd5b60011515600a82815481106125c5576125c4614301565b5b906000526020600020906008020160050160019054906101000a900460ff16151514612626576040517f08c379a000000000000000000000000000000000000000000000000000000000815260040161261d90614b48565b60405180910390fd5b600a818154811061263a57612639614301565b5b906000526020600020906008020160070160009054906101000a900460ff1661266257600080fd5b6000600a828154811061267857612677614301565b5b906000526020600020906008020160050160016101000a81548160ff0219169083151502179055505080806126ac9061435f565b9150506124d2565b507f1e5a109a2c5190a6567f1b2386d95213f70c40047a7d1f2fb64e5974c9a0043a60405160405180910390a16126e9613259565b50565b600660009054906101000a900460ff1681565b612707612c8b565b6000600381111561271b5761271a613e8c565b5b600660019054906101000a900460ff16600381111561273d5761273c613e8c565b5b1461274757600080fd5b600a818154811061275b5761275a614301565b5b906000526020600020906008020160070160009054906101000a900460ff1661278357600080fd5b600a818154811061279757612796614301565b5b90600052602060002090600802016004015434146127b457600080fd5b60011515600a82815481106127cc576127cb614301565b5b906000526020600020906008020160050160019054906101000a900460ff161515146127f757600080fd5b3373ffffffffffffffffffffffffffffffffffffffff16600a828154811061282257612821614301565b5b906000526020600020906008020160020160009054906101000a900473ffffffffffffffffffffffffffffffffffffffff1673ffffffffffffffffffffffffffffffffffffffff16036128aa576040517f08c379a00000000000000000000000000000000000000000000000000000000081526004016128a190614bb4565b60405180910390fd5b6000600a82815481106128c0576128bf614301565b5b906000526020600020906008020160020160009054906101000a900473ffffffffffffffffffffffffffffffffffffffff1690506000600a838154811061290a57612909614301565b5b906000526020600020906008020160030154036129505734600a838154811061293657612935614301565b5b906000526020600020906008020160030181905550612ac4565b6009600083815260200190815260200160002060405180606001604052803373ffffffffffffffffffffffffffffffffffffffff1681526020018373ffffffffffffffffffffffffffffffffffffffff16815260200134815250908060018154018082558091505060019003906000526020600020906003020160009091909190915060008201518160000160006101000a81548173ffffffffffffffffffffffffffffffffffffffff021916908373ffffffffffffffffffffffffffffffffffffffff16021790555060208201518160010160006101000a81548173ffffffffffffffffffffffffffffffffffffffff021916908373ffffffffffffffffffffffffffffffffffffffff16021790555060408201518160020155505034600860008373ffffffffffffffffffffffffffffffffffffffff1673ffffffffffffffffffffffffffffffffffffffff1681526020019081526020016000206000828254612abc9190614424565b925050819055505b600760003373ffffffffffffffffffffffffffffffffffffffff1673ffffffffffffffffffffffffffffffffffffffff16815260200190815260200160002082908060018154018082558091505060019003906000526020600020016000909190919091505533600a8381548110612b3f57612b3e614301565b5b906000526020600020906008020160020160006101000a81548173ffffffffffffffffffffffffffffffffffffffff021916908373ffffffffffffffffffffffffffffffffffffffff1602179055506000600a8381548110612ba457612ba3614301565b5b906000526020600020906008020160050160016101000a81548160ff0219169083151502179055507f34825dc172bd596324998d16543dc86015d6a6dd51a29758081d1f535c18b59d60405160405180910390a150612c01613259565b50565b60096020528160005260406000208181548110612c2057600080fd5b9060005260206000209060030201600091509150508060000160009054906101000a900473ffffffffffffffffffffffffffffffffffffffff16908060010160009054906101000a900473ffffffffffffffffffffffffffffffffffffffff16908060020154905083565b600260005403612cc7576040517f3ee5aeb500000000000000000000000000000000000000000000000000000000815260040160405180910390fd5b6002600081905550565b6000805b600180549050811015612d6f573373ffffffffffffffffffffffffffffffffffffffff1660018281548110612d0d57612d0c614301565b5b9060005260206000200160009054906101000a900473ffffffffffffffffffffffffffffffffffffffff1673ffffffffffffffffffffffffffffffffffffffff1603612d5c5760019150612d6f565b8080612d679061435f565b915050612cd5565b5080612db0576040517f08c379a0000000000000000000000000000000000000000000000000000000008152600401612da790614404565b60405180910390fd5b600c6000612dbe9190613a2d565b60005b600a80549050811015613112576000600960008381526020019081526020016000208054905011156130ff5760005b60096000838152602001908152602001600020805490508110156130fd576000600960008481526020019081526020016000208281548110612e3557612e34614301565b5b906000526020600020906003020160000160009054906101000a900473ffffffffffffffffffffffffffffffffffffffff1690506000600960008581526020019081526020016000208381548110612e9057612e8f614301565b5b90600052602060002090600302016002015490506000805b600c80549050811015612f42578373ffffffffffffffffffffffffffffffffffffffff16600c8281548110612ee057612edf614301565b5b9060005260206000200160009054906101000a900473ffffffffffffffffffffffffffffffffffffffff1673ffffffffffffffffffffffffffffffffffffffff1603612f2f5760019150612f42565b8080612f3a9061435f565b915050612ea8565b5080612fac57600c839080600181540180825580915050600190039060005260206000200160009091909190916101000a81548173ffffffffffffffffffffffffffffffffffffffff021916908373ffffffffffffffffffffffffffffffffffffffff1602179055505b81600b60008573ffffffffffffffffffffffffffffffffffffffff1673ffffffffffffffffffffffffffffffffffffffff1681526020019081526020016000206000828254612ffb9190614424565b925050819055506001600960008781526020019081526020016000208054905061302591906146f6565b84036130e7576009600086815260200190815260200160002060008154811061305157613050614301565b5b906000526020600020906003020160010160009054906101000a900473ffffffffffffffffffffffffffffffffffffffff16600a868154811061309757613096614301565b5b906000526020600020906008020160020160006101000a81548173ffffffffffffffffffffffffffffffffffffffff021916908373ffffffffffffffffffffffffffffffffffffffff1602179055505b50505080806130f59061435f565b915050612df0565b505b808061310a9061435f565b915050612dc1565b5060005b600c80549050811015613255576000600c828154811061313957613138614301565b5b9060005260206000200160009054906101000a900473ffffffffffffffffffffffffffffffffffffffff1690506000600b60008373ffffffffffffffffffffffffffffffffffffffff1673ffffffffffffffffffffffffffffffffffffffff1681526020019081526020016000205490506000811115613240578173ffffffffffffffffffffffffffffffffffffffff166108fc829081150290604051600060405180830381858888f193505050501580156131f9573d6000803e3d6000fd5b506000600b60008473ffffffffffffffffffffffffffffffffffffffff1673ffffffffffffffffffffffffffffffffffffffff168152602001908152602001600020819055505b5050808061324d9061435f565b915050613116565b5050565b6001600081905550565b606060008267ffffffffffffffff81111561328157613280614123565b5b6040519080825280602002602001820160405280156132af5781602001602082028036833780820191505090505b5090506000805b848110156133735760008682815481106132d3576132d2614301565b5b906000526020600020015490506000805b848110156133295782868281518110613300576132ff614301565b5b6020026020010151036133165760019150613329565b80806133219061435f565b9150506132e4565b508061335e578185858151811061334357613342614301565b5b602002602001018181525050838061335a9061435f565b9450505b5050808061336b9061435f565b9150506132b6565b50819250505092915050565b60008060005b87518110156137605760008882815181106133a3576133a2614301565b5b602002602001015190506000600a82815481106133c3576133c2614301565b5b906000526020600020906008020190508761374b5788156134b7573373ffffffffffffffffffffffffffffffffffffffff168160020160009054906101000a900473ffffffffffffffffffffffffffffffffffffffff1673ffffffffffffffffffffffffffffffffffffffff1603613448578060030154876134459190614424565b96505b3373ffffffffffffffffffffffffffffffffffffffff168160000160009054906101000a900473ffffffffffffffffffffffffffffffffffffffff1673ffffffffffffffffffffffffffffffffffffffff16036134b2578060010154876134af9190614424565b96505b61374a565b3373ffffffffffffffffffffffffffffffffffffffff168160000160009054906101000a900473ffffffffffffffffffffffffffffffffffffffff1673ffffffffffffffffffffffffffffffffffffffff1614801561356557503373ffffffffffffffffffffffffffffffffffffffff168160020160009054906101000a900473ffffffffffffffffffffffffffffffffffffffff1673ffffffffffffffffffffffffffffffffffffffff16145b15613590578060030154816001015461357e9190614424565b876135899190614424565b9650613749565b3373ffffffffffffffffffffffffffffffffffffffff168160020160009054906101000a900473ffffffffffffffffffffffffffffffffffffffff1673ffffffffffffffffffffffffffffffffffffffff161480156136145750600660009054906101000a900460ff1660ff168160050160009054906101000a900460ff1660ff16145b806136a057503373ffffffffffffffffffffffffffffffffffffffff168160000160009054906101000a900473ffffffffffffffffffffffffffffffffffffffff1673ffffffffffffffffffffffffffffffffffffffff1614801561369f5750600660009054906101000a900460ff1660ff168160050160009054906101000a900460ff1660ff1614155b5b1561374857806001015481600301546136b99190614424565b876136c49190614424565b96503373ffffffffffffffffffffffffffffffffffffffff168160020160009054906101000a900473ffffffffffffffffffffffffffffffffffffffff1673ffffffffffffffffffffffffffffffffffffffff16036137345780600101548661372d9190614424565b9550613747565b8060030154866137449190614424565b95505b5b5b5b5b505080806137589061435f565b915050613385565b508383915091509550959350505050565b6000806000905060005b600a805490508110156137e257600a818154811061379c5761379b614301565b5b906000526020600020906008020160070160009054906101000a900460ff16156137cf5781806137cb9061435f565b9250505b80806137da9061435f565b91505061377b565b508091505090565b606060008267ffffffffffffffff81111561380857613807614123565b5b60405190808252806020026020018201604052801561384157816020015b61382e613a4e565b8152602001906001900390816138265790505b5090506000805b600a80549050811015613a2257600a818154811061386957613868614301565b5b906000526020600020906008020160070160009054906101000a900460ff1615613a0f57600a81815481106138a1576138a0614301565b5b9060005260206000209060080201604051806101200160405290816000820160009054906101000a900473ffffffffffffffffffffffffffffffffffffffff1673ffffffffffffffffffffffffffffffffffffffff1673ffffffffffffffffffffffffffffffffffffffff168152602001600182015481526020016002820160009054906101000a900473ffffffffffffffffffffffffffffffffffffffff1673ffffffffffffffffffffffffffffffffffffffff1673ffffffffffffffffffffffffffffffffffffffff16815260200160038201548152602001600482015481526020016005820160009054906101000a900460ff1660ff1660ff1681526020016005820160019054906101000a900460ff16151515158152602001600682015481526020016007820160009054906101000a900460ff1615151515815250508383815181106139f5576139f4614301565b5b60200260200101819052508180613a0b9061435f565b9250505b8080613a1a9061435f565b915050613848565b508192505050919050565b5080546000825590600052602060002090810190613a4b9190613acd565b50565b604051806101200160405280600073ffffffffffffffffffffffffffffffffffffffff16815260200160008152602001600073ffffffffffffffffffffffffffffffffffffffff1681526020016000815260200160008152602001600060ff168152602001600015158152602001600081526020016000151581525090565b5b80821115613ae6576000816000905550600101613ace565b5090565b6000604051905090565b600080fd5b600080fd5b600060ff82169050919050565b613b1481613afe565b8114613b1f57600080fd5b50565b600081359050613b3181613b0b565b92915050565b600060208284031215613b4d57613b4c613af4565b5b6000613b5b84828501613b22565b91505092915050565b6000819050919050565b613b7781613b64565b82525050565b6000602082019050613b926000830184613b6e565b92915050565b613ba181613b64565b8114613bac57600080fd5b50565b600081359050613bbe81613b98565b92915050565b600060208284031215613bda57613bd9613af4565b5b6000613be884828501613baf565b91505092915050565b600073ffffffffffffffffffffffffffffffffffffffff82169050919050565b6000613c1c82613bf1565b9050919050565b613c2c81613c11565b82525050565b613c3b81613afe565b82525050565b60008115159050919050565b613c5681613c41565b82525050565b600061012082019050613c72600083018c613c23565b613c7f602083018b613b6e565b613c8c604083018a613c23565b613c996060830189613b6e565b613ca66080830188613b6e565b613cb360a0830187613c32565b613cc060c0830186613c4d565b613ccd60e0830185613b6e565b613cdb610100830184613c4d565b9a9950505050505050505050565b600081519050919050565b600082825260208201905092915050565b6000819050602082019050919050565b613d1e81613c11565b82525050565b613d2d81613b64565b82525050565b613d3c81613afe565b82525050565b613d4b81613c41565b82525050565b61012082016000820151613d686000850182613d15565b506020820151613d7b6020850182613d24565b506040820151613d8e6040850182613d15565b506060820151613da16060850182613d24565b506080820151613db46080850182613d24565b5060a0820151613dc760a0850182613d33565b5060c0820151613dda60c0850182613d42565b5060e0820151613ded60e0850182613d24565b50610100820151613e02610100850182613d42565b50505050565b6000613e148383613d51565b6101208301905092915050565b6000602082019050919050565b6000613e3982613ce9565b613e438185613cf4565b9350613e4e83613d05565b8060005b83811015613e7f578151613e668882613e08565b9750613e7183613e21565b925050600181019050613e52565b5085935050505092915050565b7f4e487b7100000000000000000000000000000000000000000000000000000000600052602160045260246000fd5b60048110613ecc57613ecb613e8c565b5b50565b6000819050613edd82613ebb565b919050565b6000613eed82613ecf565b9050919050565b613efd81613ee2565b82525050565b600060c0820190508181036000830152613f1d8189613e2e565b9050613f2c6020830188613b6e565b613f396040830187613c32565b613f466060830186613ef4565b613f536080830185613b6e565b613f6060a0830184613b6e565b979650505050505050565b613f7481613c11565b8114613f7f57600080fd5b50565b600081359050613f9181613f6b565b92915050565b60008060408385031215613fae57613fad613af4565b5b6000613fbc85828601613f82565b9250506020613fcd85828601613baf565b9150509250929050565b6000602082019050613fec6000830184613c23565b92915050565b6000806040838503121561400957614008613af4565b5b600061401785828601613baf565b925050602061402885828601613b22565b9150509250929050565b60008060006060848603121561404b5761404a613af4565b5b600061405986828701613baf565b935050602061406a86828701613baf565b925050604061407b86828701613baf565b9150509250925092565b60006020828403121561409b5761409a613af4565b5b60006140a984828501613f82565b91505092915050565b600080604083850312156140c9576140c8613af4565b5b60006140d785828601613baf565b92505060206140e885828601613baf565b9150509250929050565b60006020820190506141076000830184613ef4565b92915050565b600080fd5b6000601f19601f8301169050919050565b7f4e487b7100000000000000000000000000000000000000000000000000000000600052604160045260246000fd5b61415b82614112565b810181811067ffffffffffffffff8211171561417a57614179614123565b5b80604052505050565b600061418d613aea565b90506141998282614152565b919050565b600067ffffffffffffffff8211156141b9576141b8614123565b5b602082029050602081019050919050565b600080fd5b60006141e26141dd8461419e565b614183565b90508083825260208201905060208402830185811115614205576142046141ca565b5b835b8181101561422e578061421a8882613baf565b845260208401935050602081019050614207565b5050509392505050565b600082601f83011261424d5761424c61410d565b5b813561425d8482602086016141cf565b91505092915050565b60006020828403121561427c5761427b613af4565b5b600082013567ffffffffffffffff81111561429a57614299613af9565b5b6142a684828501614238565b91505092915050565b60006020820190506142c46000830184613c32565b92915050565b60006060820190506142df6000830186613c23565b6142ec6020830185613c23565b6142f96040830184613b6e565b949350505050565b7f4e487b7100000000000000000000000000000000000000000000000000000000600052603260045260246000fd5b7f4e487b7100000000000000000000000000000000000000000000000000000000600052601160045260246000fd5b600061436a82613b64565b91507fffffffffffffffffffffffffffffffffffffffffffffffffffffffffffffffff820361439c5761439b614330565b5b600182019050919050565b600082825260208201905092915050565b7f43616c6c6572206973206e6f742061207374616666206d656d62657200000000600082015250565b60006143ee601c836143a7565b91506143f9826143b8565b602082019050919050565b6000602082019050818103600083015261441d816143e1565b9050919050565b600061442f82613b64565b915061443a83613b64565b925082820190508082111561445257614451614330565b5b92915050565b7f526166666c65207374617465206d75737420626520696e20564f54494e47206160008201527f6e64207061737420656e64206f6620766f74696e672c206f7220696e20554e4460208201527f45525245564945572073746174652e0000000000000000000000000000000000604082015250565b60006144da604f836143a7565b91506144e582614458565b606082019050919050565b60006020820190508181036000830152614509816144cd565b9050919050565b7f496e76616c69642073746174652076616c756500000000000000000000000000600082015250565b60006145466013836143a7565b915061455182614510565b602082019050919050565b6000602082019050818103600083015261457581614539565b9050919050565b7f43616e6e6f7420776974686472617720617420746869732074696d6500000000600082015250565b60006145b2601c836143a7565b91506145bd8261457c565b602082019050919050565b600060208201905081810360008301526145e1816145a5565b9050919050565b7f4e6f206265747320666f756e6420666f72207573657200000000000000000000600082015250565b600061461e6016836143a7565b9150614629826145e8565b602082019050919050565b6000602082019050818103600083015261464d81614611565b9050919050565b600061465f82613b64565b915061466a83613b64565b925082820261467881613b64565b9150828204841483151761468f5761468e614330565b5b5092915050565b7f4e487b7100000000000000000000000000000000000000000000000000000000600052601260045260246000fd5b60006146d082613b64565b91506146db83613b64565b9250826146eb576146ea614696565b5b828204905092915050565b600061470182613b64565b915061470c83613b64565b925082820390508181111561472457614723614330565b5b92915050565b7f4e6f2062616c616e636520746f20776974686472617700000000000000000000600082015250565b60006147606016836143a7565b915061476b8261472a565b602082019050919050565b6000602082019050818103600083015261478f81614753565b9050919050565b7f496e73756666696369656e7420636f6e74726163742062616c616e6365000000600082015250565b60006147cc601d836143a7565b91506147d782614796565b602082019050919050565b600060208201905081810360008301526147fb816147bf565b9050919050565b7f496e76616c6964207374617465206f722074696d650000000000000000000000600082015250565b60006148386015836143a7565b915061484382614802565b602082019050919050565b600060208201905081810360008301526148678161482b565b9050919050565b7f4f6e6c7920746865206465706c6f7965722077686f20697320616c736f20746860008201527f65206f776e65722063616e206564697420746869732062657400000000000000602082015250565b60006148ca6039836143a7565b91506148d58261486e565b604082019050919050565b600060208201905081810360008301526148f9816148bd565b9050919050565b7f496e73756666696369656e7420636f6e74726163742066756e647320666f722060008201527f726566756e640000000000000000000000000000000000000000000000000000602082015250565b600061495c6026836143a7565b915061496782614900565b604082019050919050565b6000602082019050818103600083015261498b8161494f565b9050919050565b7f496e636f7272656374206164646974696f6e616c2066756e64732073656e7400600082015250565b60006149c8601f836143a7565b91506149d382614992565b602082019050919050565b600060208201905081810360008301526149f7816149bb565b9050919050565b7f43616c6c6572206973206e6f7420746865206f776e6572206f7220612073746160008201527f6666206d656d6265720000000000000000000000000000000000000000000000602082015250565b6000614a5a6029836143a7565b9150614a65826149fe565b604082019050919050565b60006020820190508181036000830152614a8981614a4d565b9050919050565b7f43616c6c6572206973206e6f7420746865206f776e6572000000000000000000600082015250565b6000614ac66017836143a7565b9150614ad182614a90565b602082019050919050565b60006020820190508181036000830152614af581614ab9565b9050919050565b7f426574206973206e6f7420666f722073616c6500000000000000000000000000600082015250565b6000614b326013836143a7565b9150614b3d82614afc565b602082019050919050565b60006020820190508181036000830152614b6181614b25565b9050919050565b7f596f7520616c7265616479206f776e2074686973206265740000000000000000600082015250565b6000614b9e6018836143a7565b9150614ba982614b68565b602082019050919050565b60006020820190508181036000830152614bcd81614b91565b905091905056fea26469706673582212205b9f0ce878043e0436502709edd7567d98e1f8c2c3343b50e307ac9d84f04cb364736f6c63430008140033",
  "linkReferences": {},
  "deployedLinkReferences": {}
}