{
  "_format": "hh-sol-artifact-1",
  "contractName": "predMarket2",
  "sourceName": "contracts/LockV2.sol",
  "abi": [
    {
      "inputs": [
        {
          "internalType": "uint256",
          "name": "_endTime",
          "type": "uint256"
        }
      ],
      "stateMutability": "nonpayable",
      "type": "constructor"
    },
    {
      "inputs": [],
      "name": "ReentrancyGuardReentrantCall",
      "type": "error"
    },
    {
      "anonymous": false,
      "inputs": [],
      "name": "BetEdited",
      "type": "event"
    },
    {
      "anonymous": false,
      "inputs": [],
      "name": "BetUnlisted",
      "type": "event"
    },
    {
      "anonymous": false,
      "inputs": [
        {
          "indexed": true,
          "internalType": "address",
          "name": "beneficiary",
          "type": "address"
        },
        {
          "indexed": false,
          "internalType": "uint256",
          "name": "amount",
          "type": "uint256"
        }
      ],
      "name": "FundsRedistributed",
      "type": "event"
    },
    {
      "anonymous": false,
      "inputs": [],
      "name": "PayoutProcessed",
      "type": "event"
    },
    {
      "anonymous": false,
      "inputs": [],
      "name": "userBoughtBet",
      "type": "event"
    },
    {
      "anonymous": false,
      "inputs": [],
      "name": "userCreatedABet",
      "type": "event"
    },
    {
      "anonymous": false,
      "inputs": [],
      "name": "userReListedBet",
      "type": "event"
    },
    {
      "anonymous": false,
      "inputs": [],
      "name": "userVoted",
      "type": "event"
    },
    {
      "anonymous": false,
      "inputs": [],
      "name": "userWithdrew",
      "type": "event"
    },
    {
      "anonymous": false,
      "inputs": [],
      "name": "winnerDeclaredVoting",
      "type": "event"
    },
    {
      "inputs": [],
      "name": "allBets_Balance",
      "outputs": [
        {
          "components": [
            {
              "internalType": "address",
              "name": "deployer",
              "type": "address"
            },
            {
              "internalType": "uint256",
              "name": "amountDeployerLocked",
              "type": "uint256"
            },
            {
              "internalType": "address",
              "name": "owner",
              "type": "address"
            },
            {
              "internalType": "uint256",
              "name": "amountBuyerLocked",
              "type": "uint256"
            },
            {
              "internalType": "uint256",
              "name": "amountToBuyFor",
              "type": "uint256"
            },
            {
              "internalType": "uint8",
              "name": "conditionForBuyerToWin",
              "type": "uint8"
            },
            {
              "internalType": "bool",
              "name": "selling",
              "type": "bool"
            },
            {
              "internalType": "uint256",
              "name": "positionInArray",
              "type": "uint256"
            }
          ],
          "internalType": "struct predMarket2.bet[]",
          "name": "",
          "type": "tuple[]"
        },
        {
          "internalType": "uint256",
          "name": "",
          "type": "uint256"
        },
        {
          "internalType": "uint8",
          "name": "",
          "type": "uint8"
        },
        {
          "internalType": "enum predMarket2.RaffleState",
          "name": "",
          "type": "uint8"
        },
        {
          "internalType": "uint256",
          "name": "",
          "type": "uint256"
        },
        {
          "internalType": "uint256",
          "name": "",
          "type": "uint256"
        }
      ],
      "stateMutability": "view",
      "type": "function"
    },
    {
      "inputs": [
        {
          "internalType": "address",
          "name": "",
          "type": "address"
        }
      ],
      "name": "amountMadeFromSoldBets",
      "outputs": [
        {
          "internalType": "uint256",
          "name": "",
          "type": "uint256"
        }
      ],
      "stateMutability": "view",
      "type": "function"
    },
    {
      "inputs": [
        {
          "internalType": "uint256",
          "name": "",
          "type": "uint256"
        }
      ],
      "name": "arrayOfBets",
      "outputs": [
        {
          "internalType": "address",
          "name": "deployer",
          "type": "address"
        },
        {
          "internalType": "uint256",
          "name": "amountDeployerLocked",
          "type": "uint256"
        },
        {
          "internalType": "address",
          "name": "owner",
          "type": "address"
        },
        {
          "internalType": "uint256",
          "name": "amountBuyerLocked",
          "type": "uint256"
        },
        {
          "internalType": "uint256",
          "name": "amountToBuyFor",
          "type": "uint256"
        },
        {
          "internalType": "uint8",
          "name": "conditionForBuyerToWin",
          "type": "uint8"
        },
        {
          "internalType": "bool",
          "name": "selling",
          "type": "bool"
        },
        {
          "internalType": "uint256",
          "name": "positionInArray",
          "type": "uint256"
        }
      ],
      "stateMutability": "view",
      "type": "function"
    },
    {
      "inputs": [
        {
          "internalType": "address",
          "name": "",
          "type": "address"
        },
        {
          "internalType": "uint256",
          "name": "",
          "type": "uint256"
        }
      ],
      "name": "betsByUser",
      "outputs": [
        {
          "internalType": "uint256",
          "name": "",
          "type": "uint256"
        }
      ],
      "stateMutability": "view",
      "type": "function"
    },
    {
      "inputs": [
        {
          "internalType": "uint256",
          "name": "positionOfArray",
          "type": "uint256"
        }
      ],
      "name": "buyABet",
      "outputs": [],
      "stateMutability": "payable",
      "type": "function"
    },
    {
      "inputs": [],
      "name": "creatorLocked",
      "outputs": [
        {
          "internalType": "uint256",
          "name": "",
          "type": "uint256"
        }
      ],
      "stateMutability": "view",
      "type": "function"
    },
    {
      "inputs": [
        {
          "internalType": "uint8",
          "name": "_winner",
          "type": "uint8"
        }
      ],
      "name": "declareWinner",
      "outputs": [],
      "stateMutability": "nonpayable",
      "type": "function"
    },
    {
      "inputs": [],
      "name": "disagreeWithOwner",
      "outputs": [],
      "stateMutability": "nonpayable",
      "type": "function"
    },
    {
      "inputs": [
        {
          "internalType": "uint256",
          "name": "positionOfArray",
          "type": "uint256"
        },
        {
          "internalType": "uint256",
          "name": "newDeployPrice",
          "type": "uint256"
        },
        {
          "internalType": "uint256",
          "name": "newAskingPrice",
          "type": "uint256"
        }
      ],
      "name": "editADeployedBet",
      "outputs": [],
      "stateMutability": "payable",
      "type": "function"
    },
    {
      "inputs": [],
      "name": "endOfVoting",
      "outputs": [
        {
          "internalType": "uint256",
          "name": "",
          "type": "uint256"
        }
      ],
      "stateMutability": "view",
      "type": "function"
    },
    {
      "inputs": [],
      "name": "owner",
      "outputs": [
        {
          "internalType": "address",
          "name": "",
          "type": "address"
        }
      ],
      "stateMutability": "view",
      "type": "function"
    },
    {
      "inputs": [],
      "name": "s_raffleState",
      "outputs": [
        {
          "internalType": "enum predMarket2.RaffleState",
          "name": "",
          "type": "uint8"
        }
      ],
      "stateMutability": "view",
      "type": "function"
    },
    {
      "inputs": [
        {
          "internalType": "uint256",
          "name": "amountToBuy",
          "type": "uint256"
        },
        {
          "internalType": "uint8",
          "name": "conditionToWIn",
          "type": "uint8"
        }
      ],
      "name": "sellANewBet",
      "outputs": [],
      "stateMutability": "payable",
      "type": "function"
    },
    {
      "inputs": [
        {
          "internalType": "uint256",
          "name": "positionOfArray",
          "type": "uint256"
        },
        {
          "internalType": "uint256",
          "name": "newAskingPrice",
          "type": "uint256"
        }
      ],
      "name": "sellAnExistingBet",
      "outputs": [],
      "stateMutability": "nonpayable",
      "type": "function"
    },
    {
      "inputs": [
        {
          "internalType": "uint256",
          "name": "",
          "type": "uint256"
        },
        {
          "internalType": "uint256",
          "name": "",
          "type": "uint256"
        }
      ],
      "name": "soldBetHistory",
      "outputs": [
        {
          "internalType": "address",
          "name": "buyer",
          "type": "address"
        },
        {
          "internalType": "address",
          "name": "previousOwner",
          "type": "address"
        },
        {
          "internalType": "uint256",
          "name": "amountPaid",
          "type": "uint256"
        }
      ],
      "stateMutability": "view",
      "type": "function"
    },
    {
      "inputs": [],
      "name": "staffPay",
      "outputs": [
        {
          "internalType": "uint256",
          "name": "",
          "type": "uint256"
        }
      ],
      "stateMutability": "view",
      "type": "function"
    },
    {
      "inputs": [],
      "name": "transferOwnerAmount",
      "outputs": [],
      "stateMutability": "nonpayable",
      "type": "function"
    },
    {
      "inputs": [],
      "name": "transferStaffAmount",
      "outputs": [],
      "stateMutability": "nonpayable",
      "type": "function"
    },
    {
      "inputs": [
        {
          "internalType": "uint256[]",
          "name": "positionsOfArray",
          "type": "uint256[]"
        }
      ],
      "name": "unlistBets",
      "outputs": [],
      "stateMutability": "nonpayable",
      "type": "function"
    },
    {
      "inputs": [],
      "name": "winner",
      "outputs": [
        {
          "internalType": "uint8",
          "name": "",
          "type": "uint8"
        }
      ],
      "stateMutability": "view",
      "type": "function"
    },
    {
      "inputs": [],
      "name": "withdraw",
      "outputs": [],
      "stateMutability": "nonpayable",
      "type": "function"
    }
  ],
  "bytecode": "0x60a0604052604051806020016040528073f39fd6e51aad88f6f4ce6ab8827279cfffb9226673ffffffffffffffffffffffffffffffffffffffff1673ffffffffffffffffffffffffffffffffffffffff1681525060019060016200006592919062000111565b503480156200007357600080fd5b506040516200462e3803806200462e8339818101604052810190620000999190620001ff565b60016000819055503373ffffffffffffffffffffffffffffffffffffffff1660808173ffffffffffffffffffffffffffffffffffffffff1681525050806005819055506000600660016101000a81548160ff0219169083600381111562000105576200010462000231565b5b02179055505062000260565b8280548282559060005260206000209081019282156200018d579160200282015b828111156200018c5782518260006101000a81548173ffffffffffffffffffffffffffffffffffffffff021916908373ffffffffffffffffffffffffffffffffffffffff1602179055509160200191906001019062000132565b5b5090506200019c9190620001a0565b5090565b5b80821115620001bb576000816000905550600101620001a1565b5090565b600080fd5b6000819050919050565b620001d981620001c4565b8114620001e557600080fd5b50565b600081519050620001f981620001ce565b92915050565b600060208284031215620002185762000217620001bf565b5b60006200022884828501620001e8565b91505092915050565b7f4e487b7100000000000000000000000000000000000000000000000000000000600052602160045260246000fd5b6080516143a46200028a60003960008181611c12015281816123b8015261252501526143a46000f3fe60806040526004361061012a5760003560e01c80638da5cb5b116100ab578063b4a36fd71161006f578063b4a36fd714610398578063cc45483f146103af578063d38399ec146103da578063dfbf53ae14610403578063ee9891f11461042e578063f0d933771461044a5761012a565b80638da5cb5b146102cf5780639651b183146102fa57806397ecf900146103165780639e1bffe914610332578063a6c69ffe1461036f5761012a565b8063607c9cea116100f2578063607c9cea146101f55780636afedac5146102205780637672ef7b146102505780637c54bafe146102675780637e887332146102a45761012a565b80631798b2ae1461012f57806330dda1c2146101585780633658957e146101835780633ccfd60b146101c75780635d926148146101de575b600080fd5b34801561013b57600080fd5b5061015660048036038101906101519190613361565b610489565b005b34801561016457600080fd5b5061016d610827565b60405161017a91906133a7565b60405180910390f35b34801561018f57600080fd5b506101aa60048036038101906101a591906133ee565b61082d565b6040516101be989796959493929190613486565b60405180910390f35b3480156101d357600080fd5b506101dc6108df565b005b3480156101ea57600080fd5b506101f36110da565b005b34801561020157600080fd5b5061020a6112ec565b60405161021791906133a7565b60405180910390f35b34801561022c57600080fd5b506102356112f2565b60405161024796959493929190613709565b60405180910390f35b34801561025c57600080fd5b50610265611aa2565b005b34801561027357600080fd5b5061028e6004803603810190610289919061379d565b611bd9565b60405161029b91906133a7565b60405180910390f35b3480156102b057600080fd5b506102b9611c0a565b6040516102c691906133a7565b60405180910390f35b3480156102db57600080fd5b506102e4611c10565b6040516102f191906137dd565b60405180910390f35b610314600480360381019061030f91906137f8565b611c34565b005b610330600480360381019061032b9190613838565b611ee8565b005b34801561033e57600080fd5b506103596004803603810190610354919061388b565b61219a565b60405161036691906133a7565b60405180910390f35b34801561037b57600080fd5b50610396600480360381019061039191906138b8565b6121b2565b005b3480156103a457600080fd5b506103ad612317565b005b3480156103bb57600080fd5b506103c461259f565b6040516103d191906138f8565b60405180910390f35b3480156103e657600080fd5b5061040160048036038101906103fc9190613a6c565b6125b2565b005b34801561040f57600080fd5b5061041861279b565b6040516104259190613ab5565b60405180910390f35b610448600480360381019061044391906133ee565b6127ae565b005b34801561045657600080fd5b50610471600480360381019061046c91906138b8565b612c77565b60405161048093929190613ad0565b60405180910390f35b6000805b600180549050811015610527573373ffffffffffffffffffffffffffffffffffffffff16600182815481106104c5576104c4613b07565b5b9060005260206000200160009054906101000a900473ffffffffffffffffffffffffffffffffffffffff1673ffffffffffffffffffffffffffffffffffffffff16036105145760019150610527565b808061051f90613b65565b91505061048d565b5080610568576040517f08c379a000000000000000000000000000000000000000000000000000000000815260040161055f90613c0a565b60405180910390fd5b610570612cfe565b60008260ff16118015610586575060048260ff16105b61058f57600080fd5b60038260ff160361061a576105a2612d44565b6003600660016101000a81548160ff021916908360038111156105c8576105c7613692565b5b02179055506003600660006101000a81548160ff021916908360ff1602179055507fbbfddbd2a33e1c8d143e1f8b564451965d01678a70438b79b4900cd033c12a2760405160405180910390a161081b565b6000600381111561062e5761062d613692565b5b600660019054906101000a900460ff1660038111156106505761064f613692565b5b036106e657600042905061012c816106689190613c2a565b6003819055506001600660016101000a81548160ff0219169083600381111561069457610693613692565b5b021790555082600660006101000a81548160ff021916908360ff1602179055507fbbfddbd2a33e1c8d143e1f8b564451965d01678a70438b79b4900cd033c12a2760405160405180910390a15061081a565b600160038111156106fa576106f9613692565b5b600660019054906101000a900460ff16600381111561071c5761071b613692565b5b14801561072a575060035442115b8061076857506002600381111561074457610743613692565b5b600660019054906101000a900460ff16600381111561076657610765613692565b5b145b6107a7576040517f08c379a000000000000000000000000000000000000000000000000000000000815260040161079e90613cf6565b60405180910390fd5b81600660006101000a81548160ff021916908360ff1602179055507fbbfddbd2a33e1c8d143e1f8b564451965d01678a70438b79b4900cd033c12a2760405160405180910390a16003600660016101000a81548160ff0219169083600381111561081457610813613692565b5b02179055505b5b6108236132cc565b5050565b60045481565b600a818154811061083d57600080fd5b90600052602060002090600702016000915090508060000160009054906101000a900473ffffffffffffffffffffffffffffffffffffffff16908060010154908060020160009054906101000a900473ffffffffffffffffffffffffffffffffffffffff16908060030154908060040154908060050160009054906101000a900460ff16908060050160019054906101000a900460ff16908060060154905088565b6108e7612cfe565b6003808111156108fa576108f9613692565b5b600660019054906101000a900460ff16600381111561091c5761091b613692565b5b148061096857506001600381111561093757610936613692565b5b600660019054906101000a900460ff16600381111561095957610958613692565b5b148015610967575060035442115b5b6109a7576040517f08c379a000000000000000000000000000000000000000000000000000000000815260040161099e90613d62565b60405180910390fd5b6000600760003373ffffffffffffffffffffffffffffffffffffffff1673ffffffffffffffffffffffffffffffffffffffff16815260200190815260200160002090506000818054905011610a31576040517f08c379a0000000000000000000000000000000000000000000000000000000008152600401610a2890613dce565b60405180910390fd5b60008060006003600660009054906101000a900460ff1660ff1614905060005b8480549050811015610ea6576000858281548110610a7257610a71613b07565b5b906000526020600020015490506000600a8281548110610a9557610a94613b07565b5b906000526020600020906007020190508315610b98573373ffffffffffffffffffffffffffffffffffffffff168160020160009054906101000a900473ffffffffffffffffffffffffffffffffffffffff1673ffffffffffffffffffffffffffffffffffffffff1603610b1f57806003015486610b129190613c2a565b9550600081600301819055505b3373ffffffffffffffffffffffffffffffffffffffff168160000160009054906101000a900473ffffffffffffffffffffffffffffffffffffffff1673ffffffffffffffffffffffffffffffffffffffff1603610b9357806001015486610b869190613c2a565b9550600081600101819055505b610e91565b60003373ffffffffffffffffffffffffffffffffffffffff168260000160009054906101000a900473ffffffffffffffffffffffffffffffffffffffff1673ffffffffffffffffffffffffffffffffffffffff16148015610c4857503373ffffffffffffffffffffffffffffffffffffffff168260020160009054906101000a900473ffffffffffffffffffffffffffffffffffffffff1673ffffffffffffffffffffffffffffffffffffffff16145b90508015610c8a5781600301548260010154610c649190613c2a565b87610c6f9190613c2a565b96506000826001018190555060008260030181905550610e8f565b3373ffffffffffffffffffffffffffffffffffffffff168260020160009054906101000a900473ffffffffffffffffffffffffffffffffffffffff1673ffffffffffffffffffffffffffffffffffffffff16148015610d0e5750600660009054906101000a900460ff1660ff168260050160009054906101000a900460ff1660ff16145b80610d9a57503373ffffffffffffffffffffffffffffffffffffffff168260000160009054906101000a900473ffffffffffffffffffffffffffffffffffffffff1673ffffffffffffffffffffffffffffffffffffffff16148015610d995750600660009054906101000a900460ff1660ff168260050160009054906101000a900460ff1660ff1614155b5b15610e8e57600082600101548360030154610db59190613c2a565b90508088610dc39190613c2a565b97503373ffffffffffffffffffffffffffffffffffffffff168360020160009054906101000a900473ffffffffffffffffffffffffffffffffffffffff1673ffffffffffffffffffffffffffffffffffffffff16148015610e495750600660009054906101000a900460ff1660ff168360050160009054906101000a900460ff1660ff16145b15610e6557826001015487610e5e9190613c2a565b9650610e78565b826003015487610e759190613c2a565b96505b6000836003018190555060008360010181905550505b5b505b50508080610e9e90613b65565b915050610a51565b5080610fd3576000821115610f4057600061271061012c84610ec89190613dee565b610ed29190613e5f565b9050600061271060c885610ee69190613dee565b610ef09190613e5f565b90508160026000828254610f049190613c2a565b925050819055508060046000828254610f1d9190613c2a565b925050819055508181610f309190613c2a565b85610f3b9190613e90565b945050505b600860003373ffffffffffffffffffffffffffffffffffffffff1673ffffffffffffffffffffffffffffffffffffffff1681526020019081526020016000205483610f8b9190613c2a565b92506000600860003373ffffffffffffffffffffffffffffffffffffffff1673ffffffffffffffffffffffffffffffffffffffff168152602001908152602001600020819055505b60008311611016576040517f08c379a000000000000000000000000000000000000000000000000000000000815260040161100d90613f10565b60405180910390fd5b82471015611059576040517f08c379a000000000000000000000000000000000000000000000000000000000815260040161105090613f7c565b60405180910390fd5b3373ffffffffffffffffffffffffffffffffffffffff166108fc849081150290604051600060405180830381858888f1935050505015801561109f573d6000803e3d6000fd5b507fc3038e585f1bbb89a9a4ed41eb9b8f65d3589d382434df15a354153177e39bbd60405160405180910390a1505050506110d86132cc565b565b6000805b600180549050811015611178573373ffffffffffffffffffffffffffffffffffffffff166001828154811061111657611115613b07565b5b9060005260206000200160009054906101000a900473ffffffffffffffffffffffffffffffffffffffff1673ffffffffffffffffffffffffffffffffffffffff16036111655760019150611178565b808061117090613b65565b9150506110de565b50806111b9576040517f08c379a00000000000000000000000000000000000000000000000000000000081526004016111b090613c0a565b60405180910390fd5b6111c1612cfe565b600160038111156111d5576111d4613692565b5b600660019054906101000a900460ff1660038111156111f7576111f6613692565b5b148015611205575060035442115b80611242575060038081111561121e5761121d613692565b5b600660019054906101000a900460ff1660038111156112405761123f613692565b5b145b611281576040517f08c379a000000000000000000000000000000000000000000000000000000000815260040161127890613fe8565b60405180910390fd5b60006002541161129057600080fd5b3373ffffffffffffffffffffffffffffffffffffffff166108fc6002549081150290604051600060405180830381858888f193505050501580156112d8573d6000803e3d6000fd5b5060006002819055506112e96132cc565b50565b60025481565b6060600080600080600080600090506000806003600660009054906101000a900460ff1660ff16149050600080600660009054906101000a900460ff1660ff161490506000600760003373ffffffffffffffffffffffffffffffffffffffff1673ffffffffffffffffffffffffffffffffffffffff168152602001908152602001600020905060008180549050905060008167ffffffffffffffff81111561139d5761139c613929565b5b6040519080825280602002602001820160405280156113cb5781602001602082028036833780820191505090505b5090506000805b8381101561148f5760008582815481106113ef576113ee613b07565b5b906000526020600020015490506000805b84811015611445578286828151811061141c5761141b613b07565b5b6020026020010151036114325760019150611445565b808061143d90613b65565b915050611400565b508061147a578185858151811061145f5761145e613b07565b5b602002602001018181525050838061147690613b65565b9450505b5050808061148790613b65565b9150506113d2565b5060005b8181101561186d5760008382815181106114b0576114af613b07565b5b602002602001015190506000600a82815481106114d0576114cf613b07565b5b90600052602060002090600702019050876118585788156115c4573373ffffffffffffffffffffffffffffffffffffffff168160020160009054906101000a900473ffffffffffffffffffffffffffffffffffffffff1673ffffffffffffffffffffffffffffffffffffffff16036115555780600301548b6115529190613c2a565b9a505b3373ffffffffffffffffffffffffffffffffffffffff168160000160009054906101000a900473ffffffffffffffffffffffffffffffffffffffff1673ffffffffffffffffffffffffffffffffffffffff16036115bf5780600101548b6115bc9190613c2a565b9a505b611857565b3373ffffffffffffffffffffffffffffffffffffffff168160000160009054906101000a900473ffffffffffffffffffffffffffffffffffffffff1673ffffffffffffffffffffffffffffffffffffffff1614801561167257503373ffffffffffffffffffffffffffffffffffffffff168160020160009054906101000a900473ffffffffffffffffffffffffffffffffffffffff1673ffffffffffffffffffffffffffffffffffffffff16145b1561169d578060030154816001015461168b9190613c2a565b8b6116969190613c2a565b9a50611856565b3373ffffffffffffffffffffffffffffffffffffffff168160020160009054906101000a900473ffffffffffffffffffffffffffffffffffffffff1673ffffffffffffffffffffffffffffffffffffffff161480156117215750600660009054906101000a900460ff1660ff168160050160009054906101000a900460ff1660ff16145b806117ad57503373ffffffffffffffffffffffffffffffffffffffff168160000160009054906101000a900473ffffffffffffffffffffffffffffffffffffffff1673ffffffffffffffffffffffffffffffffffffffff161480156117ac5750600660009054906101000a900460ff1660ff168160050160009054906101000a900460ff1660ff1614155b5b1561185557806001015481600301546117c69190613c2a565b8b6117d19190613c2a565b9a503373ffffffffffffffffffffffffffffffffffffffff168160020160009054906101000a900473ffffffffffffffffffffffffffffffffffffffff1673ffffffffffffffffffffffffffffffffffffffff16036118415780600101548a61183a9190613c2a565b9950611854565b80600301548a6118519190613c2a565b99505b5b5b5b5b5050808061186590613b65565b915050611493565b50856118f75760008711156118a9576000606460058961188d9190613dee565b6118979190613e5f565b905080896118a59190613e90565b9850505b600860003373ffffffffffffffffffffffffffffffffffffffff1673ffffffffffffffffffffffffffffffffffffffff16815260200190815260200160002054886118f49190613c2a565b97505b600a600554600660009054906101000a900460ff16600660019054906101000a900460ff166003548c85805480602002602001604051908101604052809291908181526020016000905b82821015611a805783829060005260206000209060070201604051806101000160405290816000820160009054906101000a900473ffffffffffffffffffffffffffffffffffffffff1673ffffffffffffffffffffffffffffffffffffffff1673ffffffffffffffffffffffffffffffffffffffff168152602001600182015481526020016002820160009054906101000a900473ffffffffffffffffffffffffffffffffffffffff1673ffffffffffffffffffffffffffffffffffffffff1673ffffffffffffffffffffffffffffffffffffffff16815260200160038201548152602001600482015481526020016005820160009054906101000a900460ff1660ff1660ff1681526020016005820160019054906101000a900460ff1615151515815260200160068201548152505081526020019060010190611941565b5050505095509d509d509d509d509d509d505050505050505050909192939495565b611aaa612cfe565b60016003811115611abe57611abd613692565b5b600660019054906101000a900460ff166003811115611ae057611adf613692565b5b148015611aee575060035442105b80611b39575060006003811115611b0857611b07613692565b5b600660019054906101000a900460ff166003811115611b2a57611b29613692565b5b148015611b38575060055442115b5b611b78576040517f08c379a0000000000000000000000000000000000000000000000000000000008152600401611b6f90613fe8565b60405180910390fd5b6002600660016101000a81548160ff02191690836003811115611b9e57611b9d613692565b5b02179055507f325941a5b65623f14f777a10c4ee68b69cec6214a44a48c1bb1c4991314755c060405160405180910390a1611bd76132cc565b565b60076020528160005260406000208181548110611bf557600080fd5b90600052602060002001600091509150505481565b60035481565b7f000000000000000000000000000000000000000000000000000000000000000081565b611c3c612cfe565b60008160ff16118015611c53575060028160ff1611155b611c5c57600080fd5b60003411611c6957600080fd5b60006003811115611c7d57611c7c613692565b5b600660019054906101000a900460ff166003811115611c9f57611c9e613692565b5b14611ca957600080fd5b60006040518061010001604052803373ffffffffffffffffffffffffffffffffffffffff1681526020013481526020013373ffffffffffffffffffffffffffffffffffffffff168152602001600081526020018481526020018360ff168152602001600115158152602001600a805490508152509050600760003373ffffffffffffffffffffffffffffffffffffffff1673ffffffffffffffffffffffffffffffffffffffff168152602001908152602001600020600a805490509080600181540180825580915050600190039060005260206000200160009091909190915055600a81908060018154018082558091505060019003906000526020600020906007020160009091909190915060008201518160000160006101000a81548173ffffffffffffffffffffffffffffffffffffffff021916908373ffffffffffffffffffffffffffffffffffffffff1602179055506020820151816001015560408201518160020160006101000a81548173ffffffffffffffffffffffffffffffffffffffff021916908373ffffffffffffffffffffffffffffffffffffffff160217905550606082015181600301556080820151816004015560a08201518160050160006101000a81548160ff021916908360ff16021790555060c08201518160050160016101000a81548160ff02191690831515021790555060e0820151816006015550507f9f9060b2035b3d98df4f62b3bbd9de8d98a49465ddcdd11c92f63c956df0442b60405160405180910390a150611ee46132cc565b5050565b611ef0612cfe565b6000600a8481548110611f0657611f05613b07565b5b906000526020600020906007020190503373ffffffffffffffffffffffffffffffffffffffff168160020160009054906101000a900473ffffffffffffffffffffffffffffffffffffffff1673ffffffffffffffffffffffffffffffffffffffff16148015611fc457503373ffffffffffffffffffffffffffffffffffffffff168160000160009054906101000a900473ffffffffffffffffffffffffffffffffffffffff1673ffffffffffffffffffffffffffffffffffffffff16145b612003576040517f08c379a0000000000000000000000000000000000000000000000000000000008152600401611ffa9061407a565b60405180910390fd5b60008160010154905080841461212257808410156120c457600084826120299190613e90565b90508047101561206e576040517f08c379a00000000000000000000000000000000000000000000000000000000081526004016120659061410c565b60405180910390fd5b8483600101819055503373ffffffffffffffffffffffffffffffffffffffff166108fc829081150290604051600060405180830381858888f193505050501580156120bd573d6000803e3d6000fd5b5050612121565b600081856120d29190613e90565b9050803414612116576040517f08c379a000000000000000000000000000000000000000000000000000000000815260040161210d90614178565b60405180910390fd5b848360010181905550505b5b8282600401819055508160050160019054906101000a900460ff1661215f5760018260050160016101000a81548160ff0219169083151502179055505b7ff75e56f787976a19558bde97657a643e88c61a76b39e41f3a06a120defa30d6160405160405180910390a150506121956132cc565b505050565b60086020528060005260406000206000915090505481565b6121ba612cfe565b600060038111156121ce576121cd613692565b5b600660019054906101000a900460ff1660038111156121f0576121ef613692565b5b146121fa57600080fd5b3373ffffffffffffffffffffffffffffffffffffffff16600a838154811061222557612224613b07565b5b906000526020600020906007020160020160009054906101000a900473ffffffffffffffffffffffffffffffffffffffff1673ffffffffffffffffffffffffffffffffffffffff161461227757600080fd5b80600a838154811061228c5761228b613b07565b5b9060005260206000209060070201600401819055506001600a83815481106122b7576122b6613b07565b5b906000526020600020906007020160050160016101000a81548160ff0219169083151502179055507f50c7c110b9cabc516cf0aef475d15558b239d0490f0389129f4e6b4c378dfa3d60405160405180910390a16123136132cc565b5050565b6000805b6001805490508110156123b5573373ffffffffffffffffffffffffffffffffffffffff166001828154811061235357612352613b07565b5b9060005260206000200160009054906101000a900473ffffffffffffffffffffffffffffffffffffffff1673ffffffffffffffffffffffffffffffffffffffff16036123a257600191506123b5565b80806123ad90613b65565b91505061231b565b507f000000000000000000000000000000000000000000000000000000000000000073ffffffffffffffffffffffffffffffffffffffff163373ffffffffffffffffffffffffffffffffffffffff16148061240d5750805b61244c576040517f08c379a00000000000000000000000000000000000000000000000000000000081526004016124439061420a565b60405180910390fd5b612454612cfe565b6001600381111561246857612467613692565b5b600660019054906101000a900460ff16600381111561248a57612489613692565b5b148015612498575060035442115b806124d557506003808111156124b1576124b0613692565b5b600660019054906101000a900460ff1660038111156124d3576124d2613692565b5b145b612514576040517f08c379a000000000000000000000000000000000000000000000000000000000815260040161250b90613fe8565b60405180910390fd5b60006004541161252357600080fd5b7f000000000000000000000000000000000000000000000000000000000000000073ffffffffffffffffffffffffffffffffffffffff166108fc6004549081150290604051600060405180830381858888f1935050505015801561258b573d6000803e3d6000fd5b50600060048190555061259c6132cc565b50565b600660019054906101000a900460ff1681565b6125ba612cfe565b60005b81518110156127635760008282815181106125db576125da613b07565b5b602002602001015190503373ffffffffffffffffffffffffffffffffffffffff16600a82815481106126105761260f613b07565b5b906000526020600020906007020160020160009054906101000a900473ffffffffffffffffffffffffffffffffffffffff1673ffffffffffffffffffffffffffffffffffffffff1614612698576040517f08c379a000000000000000000000000000000000000000000000000000000000815260040161268f90614276565b60405180910390fd5b60011515600a82815481106126b0576126af613b07565b5b906000526020600020906007020160050160019054906101000a900460ff16151514612711576040517f08c379a0000000000000000000000000000000000000000000000000000000008152600401612708906142e2565b60405180910390fd5b6000600a828154811061272757612726613b07565b5b906000526020600020906007020160050160016101000a81548160ff02191690831515021790555050808061275b90613b65565b9150506125bd565b507f1e5a109a2c5190a6567f1b2386d95213f70c40047a7d1f2fb64e5974c9a0043a60405160405180910390a16127986132cc565b50565b600660009054906101000a900460ff1681565b6127b6612cfe565b600060038111156127ca576127c9613692565b5b600660019054906101000a900460ff1660038111156127ec576127eb613692565b5b146127f657600080fd5b600a818154811061280a57612809613b07565b5b906000526020600020906007020160040154341461282757600080fd5b60011515600a828154811061283f5761283e613b07565b5b906000526020600020906007020160050160019054906101000a900460ff1615151461286a57600080fd5b3373ffffffffffffffffffffffffffffffffffffffff16600a828154811061289557612894613b07565b5b906000526020600020906007020160020160009054906101000a900473ffffffffffffffffffffffffffffffffffffffff1673ffffffffffffffffffffffffffffffffffffffff160361291d576040517f08c379a00000000000000000000000000000000000000000000000000000000081526004016129149061434e565b60405180910390fd5b6000600a828154811061293357612932613b07565b5b906000526020600020906007020160020160009054906101000a900473ffffffffffffffffffffffffffffffffffffffff1690506000600a838154811061297d5761297c613b07565b5b906000526020600020906007020160030154036129c35734600a83815481106129a9576129a8613b07565b5b906000526020600020906007020160030181905550612b37565b6009600083815260200190815260200160002060405180606001604052803373ffffffffffffffffffffffffffffffffffffffff1681526020018373ffffffffffffffffffffffffffffffffffffffff16815260200134815250908060018154018082558091505060019003906000526020600020906003020160009091909190915060008201518160000160006101000a81548173ffffffffffffffffffffffffffffffffffffffff021916908373ffffffffffffffffffffffffffffffffffffffff16021790555060208201518160010160006101000a81548173ffffffffffffffffffffffffffffffffffffffff021916908373ffffffffffffffffffffffffffffffffffffffff16021790555060408201518160020155505034600860008373ffffffffffffffffffffffffffffffffffffffff1673ffffffffffffffffffffffffffffffffffffffff1681526020019081526020016000206000828254612b2f9190613c2a565b925050819055505b600760003373ffffffffffffffffffffffffffffffffffffffff1673ffffffffffffffffffffffffffffffffffffffff16815260200190815260200160002082908060018154018082558091505060019003906000526020600020016000909190919091505533600a8381548110612bb257612bb1613b07565b5b906000526020600020906007020160020160006101000a81548173ffffffffffffffffffffffffffffffffffffffff021916908373ffffffffffffffffffffffffffffffffffffffff1602179055506000600a8381548110612c1757612c16613b07565b5b906000526020600020906007020160050160016101000a81548160ff0219169083151502179055507f34825dc172bd596324998d16543dc86015d6a6dd51a29758081d1f535c18b59d60405160405180910390a150612c746132cc565b50565b60096020528160005260406000208181548110612c9357600080fd5b9060005260206000209060030201600091509150508060000160009054906101000a900473ffffffffffffffffffffffffffffffffffffffff16908060010160009054906101000a900473ffffffffffffffffffffffffffffffffffffffff16908060020154905083565b600260005403612d3a576040517f3ee5aeb500000000000000000000000000000000000000000000000000000000815260040160405180910390fd5b6002600081905550565b6000805b600180549050811015612de2573373ffffffffffffffffffffffffffffffffffffffff1660018281548110612d8057612d7f613b07565b5b9060005260206000200160009054906101000a900473ffffffffffffffffffffffffffffffffffffffff1673ffffffffffffffffffffffffffffffffffffffff1603612dcf5760019150612de2565b8080612dda90613b65565b915050612d48565b5080612e23576040517f08c379a0000000000000000000000000000000000000000000000000000000008152600401612e1a90613c0a565b60405180910390fd5b600c6000612e3191906132d6565b60005b600a80549050811015613185576000600960008381526020019081526020016000208054905011156131725760005b6009600083815260200190815260200160002080549050811015613170576000600960008481526020019081526020016000208281548110612ea857612ea7613b07565b5b906000526020600020906003020160000160009054906101000a900473ffffffffffffffffffffffffffffffffffffffff1690506000600960008581526020019081526020016000208381548110612f0357612f02613b07565b5b90600052602060002090600302016002015490506000805b600c80549050811015612fb5578373ffffffffffffffffffffffffffffffffffffffff16600c8281548110612f5357612f52613b07565b5b9060005260206000200160009054906101000a900473ffffffffffffffffffffffffffffffffffffffff1673ffffffffffffffffffffffffffffffffffffffff1603612fa25760019150612fb5565b8080612fad90613b65565b915050612f1b565b508061301f57600c839080600181540180825580915050600190039060005260206000200160009091909190916101000a81548173ffffffffffffffffffffffffffffffffffffffff021916908373ffffffffffffffffffffffffffffffffffffffff1602179055505b81600b60008573ffffffffffffffffffffffffffffffffffffffff1673ffffffffffffffffffffffffffffffffffffffff168152602001908152602001600020600082825461306e9190613c2a565b92505081905550600160096000878152602001908152602001600020805490506130989190613e90565b840361315a57600960008681526020019081526020016000206000815481106130c4576130c3613b07565b5b906000526020600020906003020160010160009054906101000a900473ffffffffffffffffffffffffffffffffffffffff16600a868154811061310a57613109613b07565b5b906000526020600020906007020160020160006101000a81548173ffffffffffffffffffffffffffffffffffffffff021916908373ffffffffffffffffffffffffffffffffffffffff1602179055505b505050808061316890613b65565b915050612e63565b505b808061317d90613b65565b915050612e34565b5060005b600c805490508110156132c8576000600c82815481106131ac576131ab613b07565b5b9060005260206000200160009054906101000a900473ffffffffffffffffffffffffffffffffffffffff1690506000600b60008373ffffffffffffffffffffffffffffffffffffffff1673ffffffffffffffffffffffffffffffffffffffff16815260200190815260200160002054905060008111156132b3578173ffffffffffffffffffffffffffffffffffffffff166108fc829081150290604051600060405180830381858888f1935050505015801561326c573d6000803e3d6000fd5b506000600b60008473ffffffffffffffffffffffffffffffffffffffff1673ffffffffffffffffffffffffffffffffffffffff168152602001908152602001600020819055505b505080806132c090613b65565b915050613189565b5050565b6001600081905550565b50805460008255906000526020600020908101906132f491906132f7565b50565b5b808211156133105760008160009055506001016132f8565b5090565b6000604051905090565b600080fd5b600080fd5b600060ff82169050919050565b61333e81613328565b811461334957600080fd5b50565b60008135905061335b81613335565b92915050565b6000602082840312156133775761337661331e565b5b60006133858482850161334c565b91505092915050565b6000819050919050565b6133a18161338e565b82525050565b60006020820190506133bc6000830184613398565b92915050565b6133cb8161338e565b81146133d657600080fd5b50565b6000813590506133e8816133c2565b92915050565b6000602082840312156134045761340361331e565b5b6000613412848285016133d9565b91505092915050565b600073ffffffffffffffffffffffffffffffffffffffff82169050919050565b60006134468261341b565b9050919050565b6134568161343b565b82525050565b61346581613328565b82525050565b60008115159050919050565b6134808161346b565b82525050565b60006101008201905061349c600083018b61344d565b6134a9602083018a613398565b6134b6604083018961344d565b6134c36060830188613398565b6134d06080830187613398565b6134dd60a083018661345c565b6134ea60c0830185613477565b6134f760e0830184613398565b9998505050505050505050565b600081519050919050565b600082825260208201905092915050565b6000819050602082019050919050565b6135398161343b565b82525050565b6135488161338e565b82525050565b61355781613328565b82525050565b6135668161346b565b82525050565b610100820160008201516135836000850182613530565b506020820151613596602085018261353f565b5060408201516135a96040850182613530565b5060608201516135bc606085018261353f565b5060808201516135cf608085018261353f565b5060a08201516135e260a085018261354e565b5060c08201516135f560c085018261355d565b5060e082015161360860e085018261353f565b50505050565b600061361a838361356c565b6101008301905092915050565b6000602082019050919050565b600061363f82613504565b613649818561350f565b935061365483613520565b8060005b8381101561368557815161366c888261360e565b975061367783613627565b925050600181019050613658565b5085935050505092915050565b7f4e487b7100000000000000000000000000000000000000000000000000000000600052602160045260246000fd5b600481106136d2576136d1613692565b5b50565b60008190506136e3826136c1565b919050565b60006136f3826136d5565b9050919050565b613703816136e8565b82525050565b600060c08201905081810360008301526137238189613634565b90506137326020830188613398565b61373f604083018761345c565b61374c60608301866136fa565b6137596080830185613398565b61376660a0830184613398565b979650505050505050565b61377a8161343b565b811461378557600080fd5b50565b60008135905061379781613771565b92915050565b600080604083850312156137b4576137b361331e565b5b60006137c285828601613788565b92505060206137d3858286016133d9565b9150509250929050565b60006020820190506137f2600083018461344d565b92915050565b6000806040838503121561380f5761380e61331e565b5b600061381d858286016133d9565b925050602061382e8582860161334c565b9150509250929050565b6000806000606084860312156138515761385061331e565b5b600061385f868287016133d9565b9350506020613870868287016133d9565b9250506040613881868287016133d9565b9150509250925092565b6000602082840312156138a1576138a061331e565b5b60006138af84828501613788565b91505092915050565b600080604083850312156138cf576138ce61331e565b5b60006138dd858286016133d9565b92505060206138ee858286016133d9565b9150509250929050565b600060208201905061390d60008301846136fa565b92915050565b600080fd5b6000601f19601f8301169050919050565b7f4e487b7100000000000000000000000000000000000000000000000000000000600052604160045260246000fd5b61396182613918565b810181811067ffffffffffffffff821117156139805761397f613929565b5b80604052505050565b6000613993613314565b905061399f8282613958565b919050565b600067ffffffffffffffff8211156139bf576139be613929565b5b602082029050602081019050919050565b600080fd5b60006139e86139e3846139a4565b613989565b90508083825260208201905060208402830185811115613a0b57613a0a6139d0565b5b835b81811015613a345780613a2088826133d9565b845260208401935050602081019050613a0d565b5050509392505050565b600082601f830112613a5357613a52613913565b5b8135613a638482602086016139d5565b91505092915050565b600060208284031215613a8257613a8161331e565b5b600082013567ffffffffffffffff811115613aa057613a9f613323565b5b613aac84828501613a3e565b91505092915050565b6000602082019050613aca600083018461345c565b92915050565b6000606082019050613ae5600083018661344d565b613af2602083018561344d565b613aff6040830184613398565b949350505050565b7f4e487b7100000000000000000000000000000000000000000000000000000000600052603260045260246000fd5b7f4e487b7100000000000000000000000000000000000000000000000000000000600052601160045260246000fd5b6000613b708261338e565b91507fffffffffffffffffffffffffffffffffffffffffffffffffffffffffffffffff8203613ba257613ba1613b36565b5b600182019050919050565b600082825260208201905092915050565b7f43616c6c6572206973206e6f742061207374616666206d656d62657200000000600082015250565b6000613bf4601c83613bad565b9150613bff82613bbe565b602082019050919050565b60006020820190508181036000830152613c2381613be7565b9050919050565b6000613c358261338e565b9150613c408361338e565b9250828201905080821115613c5857613c57613b36565b5b92915050565b7f526166666c65207374617465206d75737420626520696e20564f54494e47206160008201527f6e64207061737420656e64206f6620766f74696e672c206f7220696e20554e4460208201527f45525245564945572073746174652e0000000000000000000000000000000000604082015250565b6000613ce0604f83613bad565b9150613ceb82613c5e565b606082019050919050565b60006020820190508181036000830152613d0f81613cd3565b9050919050565b7f43616e6e6f7420776974686472617720617420746869732074696d6500000000600082015250565b6000613d4c601c83613bad565b9150613d5782613d16565b602082019050919050565b60006020820190508181036000830152613d7b81613d3f565b9050919050565b7f4e6f206265747320666f756e6420666f72207573657200000000000000000000600082015250565b6000613db8601683613bad565b9150613dc382613d82565b602082019050919050565b60006020820190508181036000830152613de781613dab565b9050919050565b6000613df98261338e565b9150613e048361338e565b9250828202613e128161338e565b91508282048414831517613e2957613e28613b36565b5b5092915050565b7f4e487b7100000000000000000000000000000000000000000000000000000000600052601260045260246000fd5b6000613e6a8261338e565b9150613e758361338e565b925082613e8557613e84613e30565b5b828204905092915050565b6000613e9b8261338e565b9150613ea68361338e565b9250828203905081811115613ebe57613ebd613b36565b5b92915050565b7f4e6f2062616c616e636520746f20776974686472617700000000000000000000600082015250565b6000613efa601683613bad565b9150613f0582613ec4565b602082019050919050565b60006020820190508181036000830152613f2981613eed565b9050919050565b7f496e73756666696369656e7420636f6e74726163742062616c616e6365000000600082015250565b6000613f66601d83613bad565b9150613f7182613f30565b602082019050919050565b60006020820190508181036000830152613f9581613f59565b9050919050565b7f496e76616c6964207374617465206f722074696d650000000000000000000000600082015250565b6000613fd2601583613bad565b9150613fdd82613f9c565b602082019050919050565b6000602082019050818103600083015261400181613fc5565b9050919050565b7f4f6e6c7920746865206465706c6f7965722077686f20697320616c736f20746860008201527f65206f776e65722063616e206564697420746869732062657400000000000000602082015250565b6000614064603983613bad565b915061406f82614008565b604082019050919050565b6000602082019050818103600083015261409381614057565b9050919050565b7f496e73756666696369656e7420636f6e74726163742066756e647320666f722060008201527f726566756e640000000000000000000000000000000000000000000000000000602082015250565b60006140f6602683613bad565b91506141018261409a565b604082019050919050565b60006020820190508181036000830152614125816140e9565b9050919050565b7f496e636f7272656374206164646974696f6e616c2066756e64732073656e7400600082015250565b6000614162601f83613bad565b915061416d8261412c565b602082019050919050565b6000602082019050818103600083015261419181614155565b9050919050565b7f43616c6c6572206973206e6f7420746865206f776e6572206f7220612073746160008201527f6666206d656d6265720000000000000000000000000000000000000000000000602082015250565b60006141f4602983613bad565b91506141ff82614198565b604082019050919050565b60006020820190508181036000830152614223816141e7565b9050919050565b7f43616c6c6572206973206e6f7420746865206f776e6572000000000000000000600082015250565b6000614260601783613bad565b915061426b8261422a565b602082019050919050565b6000602082019050818103600083015261428f81614253565b9050919050565b7f426574206973206e6f7420666f722073616c6500000000000000000000000000600082015250565b60006142cc601383613bad565b91506142d782614296565b602082019050919050565b600060208201905081810360008301526142fb816142bf565b9050919050565b7f596f7520616c7265616479206f776e2074686973206265740000000000000000600082015250565b6000614338601883613bad565b915061434382614302565b602082019050919050565b600060208201905081810360008301526143678161432b565b905091905056fea26469706673582212204fe926f1e7609761c0d8cae96963d414548213c1f5a3c402305a8a15f54a880f64736f6c63430008140033",
  "linkReferences": {},
  "deployedLinkReferences": {}
}