{
  "_format": "hh-sol-artifact-1",
  "contractName": "predMarket2",
  "sourceName": "contracts/LockV2.sol",
  "abi": [
    {
      "inputs": [
        {
          "internalType": "uint256",
          "name": "_endTime",
          "type": "uint256"
        }
      ],
      "stateMutability": "payable",
      "type": "constructor"
    },
    {
      "inputs": [],
      "name": "ReentrancyGuardReentrantCall",
      "type": "error"
    },
    {
      "anonymous": false,
      "inputs": [
        {
          "indexed": true,
          "internalType": "uint256",
          "name": "positionOfArray",
          "type": "uint256"
        }
      ],
      "name": "BetUnlisted",
      "type": "event"
    },
    {
      "anonymous": false,
      "inputs": [
        {
          "indexed": true,
          "internalType": "address",
          "name": "beneficiary",
          "type": "address"
        },
        {
          "indexed": false,
          "internalType": "uint256",
          "name": "amount",
          "type": "uint256"
        }
      ],
      "name": "FundsRedistributed",
      "type": "event"
    },
    {
      "anonymous": false,
      "inputs": [],
      "name": "PayoutProcessed",
      "type": "event"
    },
    {
      "anonymous": false,
      "inputs": [
        {
          "indexed": false,
          "internalType": "uint256",
          "name": "timeStamp",
          "type": "uint256"
        }
      ],
      "name": "contractDeployed",
      "type": "event"
    },
    {
      "anonymous": false,
      "inputs": [],
      "name": "newBetOffered",
      "type": "event"
    },
    {
      "anonymous": false,
      "inputs": [],
      "name": "shithappened",
      "type": "event"
    },
    {
      "anonymous": false,
      "inputs": [],
      "name": "underReview",
      "type": "event"
    },
    {
      "anonymous": false,
      "inputs": [
        {
          "indexed": true,
          "internalType": "address",
          "name": "sender",
          "type": "address"
        },
        {
          "indexed": false,
          "internalType": "uint256",
          "name": "betPlacedValue",
          "type": "uint256"
        }
      ],
      "name": "userPlacedBet",
      "type": "event"
    },
    {
      "anonymous": false,
      "inputs": [
        {
          "indexed": true,
          "internalType": "address",
          "name": "sender",
          "type": "address"
        },
        {
          "indexed": false,
          "internalType": "uint256",
          "name": "betReduced",
          "type": "uint256"
        }
      ],
      "name": "userReducedBet",
      "type": "event"
    },
    {
      "anonymous": false,
      "inputs": [],
      "name": "userVoted",
      "type": "event"
    },
    {
      "anonymous": false,
      "inputs": [
        {
          "indexed": true,
          "internalType": "address",
          "name": "sender",
          "type": "address"
        },
        {
          "indexed": false,
          "internalType": "string",
          "name": "betAorB",
          "type": "string"
        }
      ],
      "name": "userWithdrewBet",
      "type": "event"
    },
    {
      "anonymous": false,
      "inputs": [
        {
          "indexed": false,
          "internalType": "uint8",
          "name": "winnerIs",
          "type": "uint8"
        },
        {
          "indexed": false,
          "internalType": "uint256",
          "name": "endedAtTime",
          "type": "uint256"
        }
      ],
      "name": "winnerDeclaredVoting",
      "type": "event"
    },
    {
      "anonymous": false,
      "inputs": [
        {
          "indexed": false,
          "internalType": "uint8",
          "name": "winnerIs",
          "type": "uint8"
        }
      ],
      "name": "winnerDeclaredVotingStaff",
      "type": "event"
    },
    {
      "anonymous": false,
      "inputs": [
        {
          "indexed": false,
          "internalType": "uint8",
          "name": "winnerIs",
          "type": "uint8"
        }
      ],
      "name": "winnerFinalized",
      "type": "event"
    },
    {
      "inputs": [],
      "name": "allBets_Balance",
      "outputs": [
        {
          "components": [
            {
              "internalType": "address",
              "name": "deployer",
              "type": "address"
            },
            {
              "internalType": "uint256",
              "name": "amountDeployerLocked",
              "type": "uint256"
            },
            {
              "internalType": "address",
              "name": "owner",
              "type": "address"
            },
            {
              "internalType": "uint256",
              "name": "amountBuyerLocked",
              "type": "uint256"
            },
            {
              "internalType": "uint256",
              "name": "amountToBuyFor",
              "type": "uint256"
            },
            {
              "internalType": "uint8",
              "name": "conditionForBuyerToWin",
              "type": "uint8"
            },
            {
              "internalType": "bool",
              "name": "selling",
              "type": "bool"
            },
            {
              "internalType": "uint256",
              "name": "positionInArray",
              "type": "uint256"
            }
          ],
          "internalType": "struct predMarket2.bet[]",
          "name": "",
          "type": "tuple[]"
        },
        {
          "internalType": "uint256",
          "name": "",
          "type": "uint256"
        },
        {
          "internalType": "uint8",
          "name": "",
          "type": "uint8"
        },
        {
          "internalType": "enum predMarket2.RaffleState",
          "name": "",
          "type": "uint8"
        },
        {
          "internalType": "uint256",
          "name": "",
          "type": "uint256"
        },
        {
          "internalType": "uint256",
          "name": "",
          "type": "uint256"
        }
      ],
      "stateMutability": "view",
      "type": "function"
    },
    {
      "inputs": [
        {
          "internalType": "uint256",
          "name": "",
          "type": "uint256"
        }
      ],
      "name": "arrayOfBets",
      "outputs": [
        {
          "internalType": "address",
          "name": "deployer",
          "type": "address"
        },
        {
          "internalType": "uint256",
          "name": "amountDeployerLocked",
          "type": "uint256"
        },
        {
          "internalType": "address",
          "name": "owner",
          "type": "address"
        },
        {
          "internalType": "uint256",
          "name": "amountBuyerLocked",
          "type": "uint256"
        },
        {
          "internalType": "uint256",
          "name": "amountToBuyFor",
          "type": "uint256"
        },
        {
          "internalType": "uint8",
          "name": "conditionForBuyerToWin",
          "type": "uint8"
        },
        {
          "internalType": "bool",
          "name": "selling",
          "type": "bool"
        },
        {
          "internalType": "uint256",
          "name": "positionInArray",
          "type": "uint256"
        }
      ],
      "stateMutability": "view",
      "type": "function"
    },
    {
      "inputs": [
        {
          "internalType": "address",
          "name": "",
          "type": "address"
        },
        {
          "internalType": "uint256",
          "name": "",
          "type": "uint256"
        }
      ],
      "name": "betsByUser",
      "outputs": [
        {
          "internalType": "uint256",
          "name": "",
          "type": "uint256"
        }
      ],
      "stateMutability": "view",
      "type": "function"
    },
    {
      "inputs": [
        {
          "internalType": "uint256",
          "name": "positionOfArray",
          "type": "uint256"
        }
      ],
      "name": "buyABet",
      "outputs": [],
      "stateMutability": "payable",
      "type": "function"
    },
    {
      "inputs": [
        {
          "internalType": "uint8",
          "name": "_winner",
          "type": "uint8"
        }
      ],
      "name": "declareWinner",
      "outputs": [],
      "stateMutability": "nonpayable",
      "type": "function"
    },
    {
      "inputs": [],
      "name": "disagreeWithOwner",
      "outputs": [],
      "stateMutability": "payable",
      "type": "function"
    },
    {
      "inputs": [],
      "name": "endOfVoting",
      "outputs": [
        {
          "internalType": "uint256",
          "name": "",
          "type": "uint256"
        }
      ],
      "stateMutability": "view",
      "type": "function"
    },
    {
      "inputs": [],
      "name": "getBalance",
      "outputs": [
        {
          "internalType": "uint256",
          "name": "",
          "type": "uint256"
        }
      ],
      "stateMutability": "view",
      "type": "function"
    },
    {
      "inputs": [],
      "name": "isOwner",
      "outputs": [
        {
          "internalType": "bool",
          "name": "",
          "type": "bool"
        }
      ],
      "stateMutability": "view",
      "type": "function"
    },
    {
      "inputs": [],
      "name": "payment",
      "outputs": [
        {
          "internalType": "uint64",
          "name": "",
          "type": "uint64"
        }
      ],
      "stateMutability": "view",
      "type": "function"
    },
    {
      "inputs": [
        {
          "internalType": "uint256",
          "name": "amountToBuy",
          "type": "uint256"
        },
        {
          "internalType": "uint8",
          "name": "conditionToWIn",
          "type": "uint8"
        }
      ],
      "name": "sellANewBet",
      "outputs": [],
      "stateMutability": "payable",
      "type": "function"
    },
    {
      "inputs": [
        {
          "internalType": "uint256",
          "name": "positionOfArray",
          "type": "uint256"
        },
        {
          "internalType": "uint256",
          "name": "newAskingPrice",
          "type": "uint256"
        }
      ],
      "name": "sellAnExistingBet",
      "outputs": [],
      "stateMutability": "nonpayable",
      "type": "function"
    },
    {
      "inputs": [
        {
          "internalType": "uint256[]",
          "name": "positionsOfArray",
          "type": "uint256[]"
        }
      ],
      "name": "unlistBets",
      "outputs": [],
      "stateMutability": "nonpayable",
      "type": "function"
    },
    {
      "inputs": [],
      "name": "winner",
      "outputs": [
        {
          "internalType": "uint8",
          "name": "",
          "type": "uint8"
        }
      ],
      "stateMutability": "view",
      "type": "function"
    },
    {
      "inputs": [],
      "name": "withdraw",
      "outputs": [],
      "stateMutability": "nonpayable",
      "type": "function"
    }
  ],
  "bytecode": "0x60c060405273f39fd6e51aad88f6f4ce6ab8827279cfffb9226673ffffffffffffffffffffffffffffffffffffffff1660a09073ffffffffffffffffffffffffffffffffffffffff1681525066b1a2bc2ec50000600360006101000a81548167ffffffffffffffff021916908367ffffffffffffffff16021790555060405162002aad38038062002aad8339818101604052810190620000a09190620001a4565b600160008190555066b1a2bc2ec500003414620000f4576040517f08c379a0000000000000000000000000000000000000000000000000000000008152600401620000eb906200025d565b60405180910390fd5b3373ffffffffffffffffffffffffffffffffffffffff1660808173ffffffffffffffffffffffffffffffffffffffff1681525050806002819055506000600360096101000a81548160ff021916908360038111156200015857620001576200027f565b5b021790555050620002ae565b600080fd5b6000819050919050565b6200017e8162000169565b81146200018a57600080fd5b50565b6000815190506200019e8162000173565b92915050565b600060208284031215620001bd57620001bc62000164565b5b6000620001cd848285016200018d565b91505092915050565b600082825260208201905092915050565b7f4465706c6f796d656e742072657175697265732065786163746c7920302e303560008201527f2045746865720000000000000000000000000000000000000000000000000000602082015250565b600062000245602683620001d6565b91506200025282620001e7565b604082019050919050565b60006020820190508181036000830152620002788162000236565b9050919050565b7f4e487b7100000000000000000000000000000000000000000000000000000000600052602160045260246000fd5b60805160a0516127c4620002e9600039600081816103a801526113010152600081816103530152818161043f01526112ac01526127c46000f3fe6080604052600436106100e85760003560e01c80637c54bafe1161008a578063a6c69ffe11610059578063a6c69ffe146102b0578063d38399ec146102d9578063dfbf53ae14610302578063ee9891f11461032d576100e8565b80637c54bafe146102015780637e8873321461023e5780638f32d59b146102695780639651b18314610294576100e8565b80633ccfd60b116100c65780633ccfd60b1461018557806342f6487a1461019c5780636afedac5146101c75780637672ef7b146101f7576100e8565b806312065fe0146100ed5780631798b2ae146101185780633658957e14610141575b600080fd5b3480156100f957600080fd5b50610102610349565b60405161010f9190611ccc565b60405180910390f35b34801561012457600080fd5b5061013f600480360381019061013a9190611d34565b610351565b005b34801561014d57600080fd5b5061016860048036038101906101639190611d8d565b610661565b60405161017c989796959493929190611e25565b60405180910390f35b34801561019157600080fd5b5061019a610713565b005b3480156101a857600080fd5b506101b1610be4565b6040516101be9190611ec6565b60405180910390f35b3480156101d357600080fd5b506101dc610bfe565b6040516101ee969594939291906120e6565b60405180910390f35b6101ff61113a565b005b34801561020d57600080fd5b506102286004803603810190610223919061217a565b611271565b6040516102359190611ccc565b60405180910390f35b34801561024a57600080fd5b506102536112a2565b6040516102609190611ccc565b60405180910390f35b34801561027557600080fd5b5061027e6112a8565b60405161028b91906121ba565b60405180910390f35b6102ae60048036038101906102a991906121d5565b611365565b005b3480156102bc57600080fd5b506102d760048036038101906102d29190612215565b61160c565b005b3480156102e557600080fd5b5061030060048036038101906102fb91906123ae565b611771565b005b34801561030e57600080fd5b5061031761195a565b60405161032491906123f7565b60405180910390f35b61034760048036038101906103429190611d8d565b61196d565b005b600047905090565b7f000000000000000000000000000000000000000000000000000000000000000073ffffffffffffffffffffffffffffffffffffffff163373ffffffffffffffffffffffffffffffffffffffff1614806103f657507f000000000000000000000000000000000000000000000000000000000000000073ffffffffffffffffffffffffffffffffffffffff163373ffffffffffffffffffffffffffffffffffffffff16145b610435576040517f08c379a000000000000000000000000000000000000000000000000000000000815260040161042c90612495565b60405180910390fd5b61043d611c63565b7f000000000000000000000000000000000000000000000000000000000000000073ffffffffffffffffffffffffffffffffffffffff163373ffffffffffffffffffffffffffffffffffffffff160361059957600060038111156104a4576104a361206f565b5b600360099054906101000a900460ff1660038111156104c6576104c561206f565b5b146104d057600080fd5b6000429050611c20816104e391906124e4565b6001819055506001600360096101000a81548160ff0219169083600381111561050f5761050e61206f565b5b021790555081600360086101000a81548160ff021916908360ff1602179055507f929490df01efaa939914f3c800fca2faec5518e6da20283d3f9909fd8cc39c168282604051610560929190612518565b60405180910390a16001600360096101000a81548160ff0219169083600381111561058e5761058d61206f565b5b021790555050610656565b600260038111156105ad576105ac61206f565b5b600360099054906101000a900460ff1660038111156105cf576105ce61206f565b5b146105d957600080fd5b80600360086101000a81548160ff021916908360ff1602179055507fb3f87315f0123ecf2fdec13e9ddeab075e99c82552eef4d8ee0da5b801d852828160405161062391906123f7565b60405180910390a160038060096101000a81548160ff021916908360038111156106505761064f61206f565b5b02179055505b61065e611ca9565b50565b6005818154811061067157600080fd5b90600052602060002090600702016000915090508060000160009054906101000a900473ffffffffffffffffffffffffffffffffffffffff16908060010154908060020160009054906101000a900473ffffffffffffffffffffffffffffffffffffffff16908060030154908060040154908060050160009054906101000a900460ff16908060050160019054906101000a900460ff16908060060154905088565b61071b611c63565b60038081111561072e5761072d61206f565b5b600360099054906101000a900460ff1660038111156107505761074f61206f565b5b148061079c57506001600381111561076b5761076a61206f565b5b600360099054906101000a900460ff16600381111561078d5761078c61206f565b5b14801561079b575060015442115b5b6107a557600080fd5b600080600460003373ffffffffffffffffffffffffffffffffffffffff1673ffffffffffffffffffffffffffffffffffffffff168152602001908152602001600020905060038060089054906101000a900460ff1660ff160361095c5760005b818054905081101561095657600082828154811061082657610825612541565b5b9060005260206000200154905060006005828154811061084957610848612541565b5b906000526020600020906007020190503373ffffffffffffffffffffffffffffffffffffffff168160020160009054906101000a900473ffffffffffffffffffffffffffffffffffffffff1673ffffffffffffffffffffffffffffffffffffffff16036108cd578060030154856108c091906124e4565b9450600081600301819055505b3373ffffffffffffffffffffffffffffffffffffffff168160000160009054906101000a900473ffffffffffffffffffffffffffffffffffffffff1673ffffffffffffffffffffffffffffffffffffffff16036109415780600101548561093491906124e4565b9450600081600101819055505b5050808061094e90612570565b915050610805565b50610b4e565b60005b8180549050811015610b4c5760008282815481106109805761097f612541565b5b906000526020600020015490506000600582815481106109a3576109a2612541565b5b906000526020600020906007020190503373ffffffffffffffffffffffffffffffffffffffff168160020160009054906101000a900473ffffffffffffffffffffffffffffffffffffffff1673ffffffffffffffffffffffffffffffffffffffff16148015610a375750600360089054906101000a900460ff1660ff168160050160009054906101000a900460ff1660ff16145b15610a765780600101548160030154610a5091906124e4565b85610a5b91906124e4565b94506000816003018190555060008160010181905550610b37565b3373ffffffffffffffffffffffffffffffffffffffff168160000160009054906101000a900473ffffffffffffffffffffffffffffffffffffffff1673ffffffffffffffffffffffffffffffffffffffff16148015610afb5750600360089054906101000a900460ff1660ff168160050160009054906101000a900460ff1660ff1614155b15610b365780600101548160030154610b1491906124e4565b85610b1f91906124e4565b945060008160030181905550600081600101819055505b5b50508080610b4490612570565b91505061095f565b505b81471015610b91576040517f08c379a0000000000000000000000000000000000000000000000000000000008152600401610b889061262a565b60405180910390fd5b3373ffffffffffffffffffffffffffffffffffffffff166108fc839081150290604051600060405180830381858888f19350505050158015610bd7573d6000803e3d6000fd5b505050610be2611ca9565b565b600360009054906101000a900467ffffffffffffffff1681565b6060600080600080600080600090506000600360089054906101000a900460ff1660ff161115610f96576000600460003373ffffffffffffffffffffffffffffffffffffffff1673ffffffffffffffffffffffffffffffffffffffff168152602001908152602001600020905060038060089054906101000a900460ff1660ff1603610dca5760005b8180549050811015610dc4576000828281548110610ca857610ca7612541565b5b90600052602060002001549050600060058281548110610ccb57610cca612541565b5b906000526020600020906007020190503373ffffffffffffffffffffffffffffffffffffffff168160020160009054906101000a900473ffffffffffffffffffffffffffffffffffffffff1673ffffffffffffffffffffffffffffffffffffffff1603610d4557806003015485610d4291906124e4565b94505b3373ffffffffffffffffffffffffffffffffffffffff168160000160009054906101000a900473ffffffffffffffffffffffffffffffffffffffff1673ffffffffffffffffffffffffffffffffffffffff1603610daf57806001015485610dac91906124e4565b94505b50508080610dbc90612570565b915050610c87565b50610f94565b60005b8180549050811015610f92576000828281548110610dee57610ded612541565b5b90600052602060002001549050600060058281548110610e1157610e10612541565b5b906000526020600020906007020190503373ffffffffffffffffffffffffffffffffffffffff168160020160009054906101000a900473ffffffffffffffffffffffffffffffffffffffff1673ffffffffffffffffffffffffffffffffffffffff16148015610ea55750600360089054906101000a900460ff1660ff168160050160009054906101000a900460ff1660ff16145b15610ed05780600101548160030154610ebe91906124e4565b85610ec991906124e4565b9450610f7d565b3373ffffffffffffffffffffffffffffffffffffffff168160000160009054906101000a900473ffffffffffffffffffffffffffffffffffffffff1673ffffffffffffffffffffffffffffffffffffffff16148015610f555750600360089054906101000a900460ff1660ff168160050160009054906101000a900460ff1660ff1614155b15610f7c5780600101548160030154610f6e91906124e4565b85610f7991906124e4565b94505b5b50508080610f8a90612570565b915050610dcd565b505b505b6005600254600360089054906101000a900460ff16600360099054906101000a900460ff166001548585805480602002602001604051908101604052809291908181526020016000905b8282101561111f5783829060005260206000209060070201604051806101000160405290816000820160009054906101000a900473ffffffffffffffffffffffffffffffffffffffff1673ffffffffffffffffffffffffffffffffffffffff1673ffffffffffffffffffffffffffffffffffffffff168152602001600182015481526020016002820160009054906101000a900473ffffffffffffffffffffffffffffffffffffffff1673ffffffffffffffffffffffffffffffffffffffff1673ffffffffffffffffffffffffffffffffffffffff16815260200160038201548152602001600482015481526020016005820160009054906101000a900460ff1660ff1660ff1681526020016005820160019054906101000a900460ff1615151515815260200160068201548152505081526020019060010190610fe0565b50505050955096509650965096509650965050909192939495565b611142611c63565b600160038111156111565761115561206f565b5b600360099054906101000a900460ff1660038111156111785761117761206f565b5b148015611186575060015442105b806111d15750600060038111156111a05761119f61206f565b5b600360099054906101000a900460ff1660038111156111c2576111c161206f565b5b1480156111d0575060025442115b5b611210576040517f08c379a000000000000000000000000000000000000000000000000000000000815260040161120790612696565b60405180910390fd5b6002600360096101000a81548160ff021916908360038111156112365761123561206f565b5b02179055507f325941a5b65623f14f777a10c4ee68b69cec6214a44a48c1bb1c4991314755c060405160405180910390a161126f611ca9565b565b6004602052816000526040600020818154811061128d57600080fd5b90600052602060002001600091509150505481565b60015481565b60007f000000000000000000000000000000000000000000000000000000000000000073ffffffffffffffffffffffffffffffffffffffff163373ffffffffffffffffffffffffffffffffffffffff16148061134f57507f000000000000000000000000000000000000000000000000000000000000000073ffffffffffffffffffffffffffffffffffffffff163373ffffffffffffffffffffffffffffffffffffffff16145b1561135d5760019050611362565b600090505b90565b61136d611c63565b60008160ff16118015611384575060028160ff1611155b61138d57600080fd5b600060038111156113a1576113a061206f565b5b600360099054906101000a900460ff1660038111156113c3576113c261206f565b5b146113cd57600080fd5b60006040518061010001604052803373ffffffffffffffffffffffffffffffffffffffff1681526020013481526020013373ffffffffffffffffffffffffffffffffffffffff168152602001600081526020018481526020018360ff1681526020016001151581526020016005805490508152509050600460003373ffffffffffffffffffffffffffffffffffffffff1673ffffffffffffffffffffffffffffffffffffffff1681526020019081526020016000206005805490509080600181540180825580915050600190039060005260206000200160009091909190915055600581908060018154018082558091505060019003906000526020600020906007020160009091909190915060008201518160000160006101000a81548173ffffffffffffffffffffffffffffffffffffffff021916908373ffffffffffffffffffffffffffffffffffffffff1602179055506020820151816001015560408201518160020160006101000a81548173ffffffffffffffffffffffffffffffffffffffff021916908373ffffffffffffffffffffffffffffffffffffffff160217905550606082015181600301556080820151816004015560a08201518160050160006101000a81548160ff021916908360ff16021790555060c08201518160050160016101000a81548160ff02191690831515021790555060e0820151816006015550507f20c3f797b9c7476a4beb5a93f1743a0a793b6c4b04e8f035a97bb644668d534a60405160405180910390a150611608611ca9565b5050565b611614611c63565b600060038111156116285761162761206f565b5b600360099054906101000a900460ff16600381111561164a5761164961206f565b5b1461165457600080fd5b3373ffffffffffffffffffffffffffffffffffffffff166005838154811061167f5761167e612541565b5b906000526020600020906007020160020160009054906101000a900473ffffffffffffffffffffffffffffffffffffffff1673ffffffffffffffffffffffffffffffffffffffff16146116d157600080fd5b80600583815481106116e6576116e5612541565b5b90600052602060002090600702016004018190555060016005838154811061171157611710612541565b5b906000526020600020906007020160050160016101000a81548160ff0219169083151502179055507f20c3f797b9c7476a4beb5a93f1743a0a793b6c4b04e8f035a97bb644668d534a60405160405180910390a161176d611ca9565b5050565b611779611c63565b60005b815181101561192257600082828151811061179a57611799612541565b5b602002602001015190503373ffffffffffffffffffffffffffffffffffffffff16600582815481106117cf576117ce612541565b5b906000526020600020906007020160020160009054906101000a900473ffffffffffffffffffffffffffffffffffffffff1673ffffffffffffffffffffffffffffffffffffffff1614611857576040517f08c379a000000000000000000000000000000000000000000000000000000000815260040161184e90612702565b60405180910390fd5b600115156005828154811061186f5761186e612541565b5b906000526020600020906007020160050160019054906101000a900460ff161515146118d0576040517f08c379a00000000000000000000000000000000000000000000000000000000081526004016118c79061276e565b60405180910390fd5b6000600582815481106118e6576118e5612541565b5b906000526020600020906007020160050160016101000a81548160ff02191690831515021790555050808061191a90612570565b91505061177c565b507f20c3f797b9c7476a4beb5a93f1743a0a793b6c4b04e8f035a97bb644668d534a60405160405180910390a1611957611ca9565b50565b600360089054906101000a900460ff1681565b611975611c63565b600060038111156119895761198861206f565b5b600360099054906101000a900460ff1660038111156119ab576119aa61206f565b5b146119b557600080fd5b600581815481106119c9576119c8612541565b5b90600052602060002090600702016004015434146119e657600080fd5b60011515600582815481106119fe576119fd612541565b5b906000526020600020906007020160050160019054906101000a900460ff16151514611a2957600080fd5b600060058281548110611a3f57611a3e612541565b5b90600052602060002090600702016003015403611a97573460058281548110611a6b57611a6a612541565b5b90600052602060002090600702016003016000828254611a8b91906124e4565b92505081905550611b24565b60058181548110611aab57611aaa612541565b5b906000526020600020906007020160020160009054906101000a900473ffffffffffffffffffffffffffffffffffffffff1673ffffffffffffffffffffffffffffffffffffffff166108fc349081150290604051600060405180830381858888f19350505050158015611b22573d6000803e3d6000fd5b505b3360058281548110611b3957611b38612541565b5b906000526020600020906007020160020160006101000a81548173ffffffffffffffffffffffffffffffffffffffff021916908373ffffffffffffffffffffffffffffffffffffffff160217905550600060058281548110611b9e57611b9d612541565b5b906000526020600020906007020160050160016101000a81548160ff021916908315150217905550600460003373ffffffffffffffffffffffffffffffffffffffff1673ffffffffffffffffffffffffffffffffffffffff1681526020019081526020016000208190806001815401808255809150506001900390600052602060002001600090919091909150557f20c3f797b9c7476a4beb5a93f1743a0a793b6c4b04e8f035a97bb644668d534a60405160405180910390a1611c60611ca9565b50565b600260005403611c9f576040517f3ee5aeb500000000000000000000000000000000000000000000000000000000815260040160405180910390fd5b6002600081905550565b6001600081905550565b6000819050919050565b611cc681611cb3565b82525050565b6000602082019050611ce16000830184611cbd565b92915050565b6000604051905090565b600080fd5b600080fd5b600060ff82169050919050565b611d1181611cfb565b8114611d1c57600080fd5b50565b600081359050611d2e81611d08565b92915050565b600060208284031215611d4a57611d49611cf1565b5b6000611d5884828501611d1f565b91505092915050565b611d6a81611cb3565b8114611d7557600080fd5b50565b600081359050611d8781611d61565b92915050565b600060208284031215611da357611da2611cf1565b5b6000611db184828501611d78565b91505092915050565b600073ffffffffffffffffffffffffffffffffffffffff82169050919050565b6000611de582611dba565b9050919050565b611df581611dda565b82525050565b611e0481611cfb565b82525050565b60008115159050919050565b611e1f81611e0a565b82525050565b600061010082019050611e3b600083018b611dec565b611e48602083018a611cbd565b611e556040830189611dec565b611e626060830188611cbd565b611e6f6080830187611cbd565b611e7c60a0830186611dfb565b611e8960c0830185611e16565b611e9660e0830184611cbd565b9998505050505050505050565b600067ffffffffffffffff82169050919050565b611ec081611ea3565b82525050565b6000602082019050611edb6000830184611eb7565b92915050565b600081519050919050565b600082825260208201905092915050565b6000819050602082019050919050565b611f1681611dda565b82525050565b611f2581611cb3565b82525050565b611f3481611cfb565b82525050565b611f4381611e0a565b82525050565b61010082016000820151611f606000850182611f0d565b506020820151611f736020850182611f1c565b506040820151611f866040850182611f0d565b506060820151611f996060850182611f1c565b506080820151611fac6080850182611f1c565b5060a0820151611fbf60a0850182611f2b565b5060c0820151611fd260c0850182611f3a565b5060e0820151611fe560e0850182611f1c565b50505050565b6000611ff78383611f49565b6101008301905092915050565b6000602082019050919050565b600061201c82611ee1565b6120268185611eec565b935061203183611efd565b8060005b838110156120625781516120498882611feb565b975061205483612004565b925050600181019050612035565b5085935050505092915050565b7f4e487b7100000000000000000000000000000000000000000000000000000000600052602160045260246000fd5b600481106120af576120ae61206f565b5b50565b60008190506120c08261209e565b919050565b60006120d0826120b2565b9050919050565b6120e0816120c5565b82525050565b600060c08201905081810360008301526121008189612011565b905061210f6020830188611cbd565b61211c6040830187611dfb565b61212960608301866120d7565b6121366080830185611cbd565b61214360a0830184611cbd565b979650505050505050565b61215781611dda565b811461216257600080fd5b50565b6000813590506121748161214e565b92915050565b6000806040838503121561219157612190611cf1565b5b600061219f85828601612165565b92505060206121b085828601611d78565b9150509250929050565b60006020820190506121cf6000830184611e16565b92915050565b600080604083850312156121ec576121eb611cf1565b5b60006121fa85828601611d78565b925050602061220b85828601611d1f565b9150509250929050565b6000806040838503121561222c5761222b611cf1565b5b600061223a85828601611d78565b925050602061224b85828601611d78565b9150509250929050565b600080fd5b6000601f19601f8301169050919050565b7f4e487b7100000000000000000000000000000000000000000000000000000000600052604160045260246000fd5b6122a38261225a565b810181811067ffffffffffffffff821117156122c2576122c161226b565b5b80604052505050565b60006122d5611ce7565b90506122e1828261229a565b919050565b600067ffffffffffffffff8211156123015761230061226b565b5b602082029050602081019050919050565b600080fd5b600061232a612325846122e6565b6122cb565b9050808382526020820190506020840283018581111561234d5761234c612312565b5b835b8181101561237657806123628882611d78565b84526020840193505060208101905061234f565b5050509392505050565b600082601f83011261239557612394612255565b5b81356123a5848260208601612317565b91505092915050565b6000602082840312156123c4576123c3611cf1565b5b600082013567ffffffffffffffff8111156123e2576123e1611cf6565b5b6123ee84828501612380565b91505092915050565b600060208201905061240c6000830184611dfb565b92915050565b600082825260208201905092915050565b7f4f6e6c7920746865206f776e65722063616e2063616c6c20746869732066756e60008201527f6374696f6e2e0000000000000000000000000000000000000000000000000000602082015250565b600061247f602683612412565b915061248a82612423565b604082019050919050565b600060208201905081810360008301526124ae81612472565b9050919050565b7f4e487b7100000000000000000000000000000000000000000000000000000000600052601160045260246000fd5b60006124ef82611cb3565b91506124fa83611cb3565b9250828201905080821115612512576125116124b5565b5b92915050565b600060408201905061252d6000830185611dfb565b61253a6020830184611cbd565b9392505050565b7f4e487b7100000000000000000000000000000000000000000000000000000000600052603260045260246000fd5b600061257b82611cb3565b91507fffffffffffffffffffffffffffffffffffffffffffffffffffffffffffffffff82036125ad576125ac6124b5565b5b600182019050919050565b7f436f6e747261637420646f6573206e6f74206861766520656e6f75676820667560008201527f6e64730000000000000000000000000000000000000000000000000000000000602082015250565b6000612614602383612412565b915061261f826125b8565b604082019050919050565b6000602082019050818103600083015261264381612607565b9050919050565b7f496e76616c6964207374617465206f722074696d650000000000000000000000600082015250565b6000612680601583612412565b915061268b8261264a565b602082019050919050565b600060208201905081810360008301526126af81612673565b9050919050565b7f43616c6c6572206973206e6f7420746865206f776e6572000000000000000000600082015250565b60006126ec601783612412565b91506126f7826126b6565b602082019050919050565b6000602082019050818103600083015261271b816126df565b9050919050565b7f426574206973206e6f7420666f722073616c6500000000000000000000000000600082015250565b6000612758601383612412565b915061276382612722565b602082019050919050565b600060208201905081810360008301526127878161274b565b905091905056fea2646970667358221220b923d092c60e236ee7f280ee79d96f715be8b0743c0350542ab1b5812d1dcb8464736f6c63430008140033",
  "linkReferences": {},
  "deployedLinkReferences": {}
}