{
  "_format": "hh-sol-artifact-1",
  "contractName": "predMarket2",
  "sourceName": "contracts/LockV2.sol",
  "abi": [
    {
      "inputs": [
        {
          "internalType": "uint256",
          "name": "_endTime",
          "type": "uint256"
        }
      ],
      "stateMutability": "payable",
      "type": "constructor"
    },
    {
      "inputs": [],
      "name": "ReentrancyGuardReentrantCall",
      "type": "error"
    },
    {
      "anonymous": false,
      "inputs": [
        {
          "indexed": true,
          "internalType": "uint256",
          "name": "positionOfArray",
          "type": "uint256"
        }
      ],
      "name": "BetUnlisted",
      "type": "event"
    },
    {
      "anonymous": false,
      "inputs": [
        {
          "indexed": true,
          "internalType": "address",
          "name": "beneficiary",
          "type": "address"
        },
        {
          "indexed": false,
          "internalType": "uint256",
          "name": "amount",
          "type": "uint256"
        }
      ],
      "name": "FundsRedistributed",
      "type": "event"
    },
    {
      "anonymous": false,
      "inputs": [],
      "name": "PayoutProcessed",
      "type": "event"
    },
    {
      "anonymous": false,
      "inputs": [
        {
          "indexed": false,
          "internalType": "uint256",
          "name": "timeStamp",
          "type": "uint256"
        }
      ],
      "name": "contractDeployed",
      "type": "event"
    },
    {
      "anonymous": false,
      "inputs": [],
      "name": "newBetOffered",
      "type": "event"
    },
    {
      "anonymous": false,
      "inputs": [],
      "name": "shithappened",
      "type": "event"
    },
    {
      "anonymous": false,
      "inputs": [],
      "name": "underReview",
      "type": "event"
    },
    {
      "anonymous": false,
      "inputs": [
        {
          "indexed": true,
          "internalType": "address",
          "name": "sender",
          "type": "address"
        },
        {
          "indexed": false,
          "internalType": "uint256",
          "name": "betPlacedValue",
          "type": "uint256"
        }
      ],
      "name": "userPlacedBet",
      "type": "event"
    },
    {
      "anonymous": false,
      "inputs": [
        {
          "indexed": true,
          "internalType": "address",
          "name": "sender",
          "type": "address"
        },
        {
          "indexed": false,
          "internalType": "uint256",
          "name": "betReduced",
          "type": "uint256"
        }
      ],
      "name": "userReducedBet",
      "type": "event"
    },
    {
      "anonymous": false,
      "inputs": [],
      "name": "userVoted",
      "type": "event"
    },
    {
      "anonymous": false,
      "inputs": [
        {
          "indexed": true,
          "internalType": "address",
          "name": "sender",
          "type": "address"
        },
        {
          "indexed": false,
          "internalType": "string",
          "name": "betAorB",
          "type": "string"
        }
      ],
      "name": "userWithdrewBet",
      "type": "event"
    },
    {
      "anonymous": false,
      "inputs": [
        {
          "indexed": false,
          "internalType": "uint8",
          "name": "winnerIs",
          "type": "uint8"
        },
        {
          "indexed": false,
          "internalType": "uint256",
          "name": "endedAtTime",
          "type": "uint256"
        }
      ],
      "name": "winnerDeclaredVoting",
      "type": "event"
    },
    {
      "anonymous": false,
      "inputs": [
        {
          "indexed": false,
          "internalType": "uint8",
          "name": "winnerIs",
          "type": "uint8"
        }
      ],
      "name": "winnerDeclaredVotingStaff",
      "type": "event"
    },
    {
      "anonymous": false,
      "inputs": [
        {
          "indexed": false,
          "internalType": "uint8",
          "name": "winnerIs",
          "type": "uint8"
        }
      ],
      "name": "winnerFinalized",
      "type": "event"
    },
    {
      "inputs": [],
      "name": "allBets_Balance",
      "outputs": [
        {
          "components": [
            {
              "internalType": "address",
              "name": "deployer",
              "type": "address"
            },
            {
              "internalType": "uint256",
              "name": "amountDeployerLocked",
              "type": "uint256"
            },
            {
              "internalType": "address",
              "name": "owner",
              "type": "address"
            },
            {
              "internalType": "uint256",
              "name": "amountBuyerLocked",
              "type": "uint256"
            },
            {
              "internalType": "uint256",
              "name": "amountToBuyFor",
              "type": "uint256"
            },
            {
              "internalType": "uint8",
              "name": "conditionForBuyerToWin",
              "type": "uint8"
            },
            {
              "internalType": "bool",
              "name": "selling",
              "type": "bool"
            },
            {
              "internalType": "uint256",
              "name": "positionInArray",
              "type": "uint256"
            }
          ],
          "internalType": "struct predMarket2.bet[]",
          "name": "",
          "type": "tuple[]"
        },
        {
          "internalType": "uint256",
          "name": "",
          "type": "uint256"
        },
        {
          "internalType": "uint8",
          "name": "",
          "type": "uint8"
        },
        {
          "internalType": "enum predMarket2.RaffleState",
          "name": "",
          "type": "uint8"
        },
        {
          "internalType": "uint256",
          "name": "",
          "type": "uint256"
        },
        {
          "internalType": "uint256",
          "name": "",
          "type": "uint256"
        }
      ],
      "stateMutability": "view",
      "type": "function"
    },
    {
      "inputs": [
        {
          "internalType": "uint256",
          "name": "",
          "type": "uint256"
        }
      ],
      "name": "arrayOfBets",
      "outputs": [
        {
          "internalType": "address",
          "name": "deployer",
          "type": "address"
        },
        {
          "internalType": "uint256",
          "name": "amountDeployerLocked",
          "type": "uint256"
        },
        {
          "internalType": "address",
          "name": "owner",
          "type": "address"
        },
        {
          "internalType": "uint256",
          "name": "amountBuyerLocked",
          "type": "uint256"
        },
        {
          "internalType": "uint256",
          "name": "amountToBuyFor",
          "type": "uint256"
        },
        {
          "internalType": "uint8",
          "name": "conditionForBuyerToWin",
          "type": "uint8"
        },
        {
          "internalType": "bool",
          "name": "selling",
          "type": "bool"
        },
        {
          "internalType": "uint256",
          "name": "positionInArray",
          "type": "uint256"
        }
      ],
      "stateMutability": "view",
      "type": "function"
    },
    {
      "inputs": [
        {
          "internalType": "address",
          "name": "",
          "type": "address"
        },
        {
          "internalType": "uint256",
          "name": "",
          "type": "uint256"
        }
      ],
      "name": "betsByUser",
      "outputs": [
        {
          "internalType": "uint256",
          "name": "",
          "type": "uint256"
        }
      ],
      "stateMutability": "view",
      "type": "function"
    },
    {
      "inputs": [
        {
          "internalType": "uint256",
          "name": "positionOfArray",
          "type": "uint256"
        }
      ],
      "name": "buyABet",
      "outputs": [],
      "stateMutability": "payable",
      "type": "function"
    },
    {
      "inputs": [],
      "name": "creatorLocked",
      "outputs": [
        {
          "internalType": "uint256",
          "name": "",
          "type": "uint256"
        }
      ],
      "stateMutability": "view",
      "type": "function"
    },
    {
      "inputs": [
        {
          "internalType": "uint8",
          "name": "_winner",
          "type": "uint8"
        },
        {
          "internalType": "uint8",
          "name": "_disagreeCorrect",
          "type": "uint8"
        }
      ],
      "name": "declareWinner",
      "outputs": [],
      "stateMutability": "nonpayable",
      "type": "function"
    },
    {
      "inputs": [],
      "name": "disagreeCorrect",
      "outputs": [
        {
          "internalType": "uint8",
          "name": "",
          "type": "uint8"
        }
      ],
      "stateMutability": "view",
      "type": "function"
    },
    {
      "inputs": [],
      "name": "disagreeWithOwner",
      "outputs": [],
      "stateMutability": "payable",
      "type": "function"
    },
    {
      "inputs": [],
      "name": "disagreedUser",
      "outputs": [
        {
          "internalType": "address",
          "name": "",
          "type": "address"
        }
      ],
      "stateMutability": "view",
      "type": "function"
    },
    {
      "inputs": [],
      "name": "endOfVoting",
      "outputs": [
        {
          "internalType": "uint256",
          "name": "",
          "type": "uint256"
        }
      ],
      "stateMutability": "view",
      "type": "function"
    },
    {
      "inputs": [],
      "name": "isOwner",
      "outputs": [
        {
          "internalType": "bool",
          "name": "",
          "type": "bool"
        }
      ],
      "stateMutability": "view",
      "type": "function"
    },
    {
      "inputs": [],
      "name": "owner",
      "outputs": [
        {
          "internalType": "address",
          "name": "",
          "type": "address"
        }
      ],
      "stateMutability": "view",
      "type": "function"
    },
    {
      "inputs": [
        {
          "internalType": "uint256",
          "name": "amountToBuy",
          "type": "uint256"
        },
        {
          "internalType": "uint8",
          "name": "conditionToWIn",
          "type": "uint8"
        }
      ],
      "name": "sellANewBet",
      "outputs": [],
      "stateMutability": "payable",
      "type": "function"
    },
    {
      "inputs": [
        {
          "internalType": "uint256",
          "name": "positionOfArray",
          "type": "uint256"
        },
        {
          "internalType": "uint256",
          "name": "newAskingPrice",
          "type": "uint256"
        }
      ],
      "name": "sellAnExistingBet",
      "outputs": [],
      "stateMutability": "nonpayable",
      "type": "function"
    },
    {
      "inputs": [],
      "name": "transferOwnerAmount",
      "outputs": [],
      "stateMutability": "nonpayable",
      "type": "function"
    },
    {
      "inputs": [
        {
          "internalType": "uint256[]",
          "name": "positionsOfArray",
          "type": "uint256[]"
        }
      ],
      "name": "unlistBets",
      "outputs": [],
      "stateMutability": "nonpayable",
      "type": "function"
    },
    {
      "inputs": [],
      "name": "winner",
      "outputs": [
        {
          "internalType": "uint8",
          "name": "",
          "type": "uint8"
        }
      ],
      "stateMutability": "view",
      "type": "function"
    },
    {
      "inputs": [],
      "name": "withdraw",
      "outputs": [],
      "stateMutability": "nonpayable",
      "type": "function"
    }
  ],
  "bytecode": "0x60c060405273f39fd6e51aad88f6f4ce6ab8827279cfffb9226673ffffffffffffffffffffffffffffffffffffffff1660a09073ffffffffffffffffffffffffffffffffffffffff168152506040516200306f3803806200306f83398181016040528101906200007091906200012f565b6001600081905550346003819055503373ffffffffffffffffffffffffffffffffffffffff1660808173ffffffffffffffffffffffffffffffffffffffff1681525050806002819055506000600460166101000a81548160ff02191690836003811115620000e357620000e262000161565b5b02179055505062000190565b600080fd5b6000819050919050565b6200010981620000f4565b81146200011557600080fd5b50565b6000815190506200012981620000fe565b92915050565b600060208284031215620001485762000147620000ef565b5b6000620001588482850162000118565b91505092915050565b7f4e487b7100000000000000000000000000000000000000000000000000000000600052602160045260246000fd5b60805160a051612e88620001e760003960008181610454015281816116990152611b600152600081816103ff0152818161050a0152818161161e0152818161164401528181611b0b0152611c970152612e886000f3fe6080604052600436106101095760003560e01c80638da5cb5b11610095578063b4a36fd711610064578063b4a36fd714610325578063c16c344b1461033c578063d38399ec14610367578063dfbf53ae14610390578063ee9891f1146103bb57610109565b80638da5cb5b1461028a5780638f32d59b146102b55780639651b183146102e0578063a6c69ffe146102fc57610109565b80633ccfd60b116100dc5780633ccfd60b146101d15780636afedac5146101e85780637672ef7b146102185780637c54bafe146102225780637e8873321461025f57610109565b80631d4aa3c61461010e57806322e5d0b71461013957806330dda1c2146101625780633658957e1461018d575b600080fd5b34801561011a57600080fd5b506101236103d7565b60405161013091906122f2565b60405180910390f35b34801561014557600080fd5b50610160600480360381019061015b919061235a565b6103fd565b005b34801561016e57600080fd5b50610177610795565b60405161018491906123b3565b60405180910390f35b34801561019957600080fd5b506101b460048036038101906101af91906123fa565b61079b565b6040516101c8989796959493929190612451565b60405180910390f35b3480156101dd57600080fd5b506101e661084d565b005b3480156101f457600080fd5b506101fd610e1d565b60405161020f969594939291906126d4565b60405180910390f35b610220611446565b005b34801561022e57600080fd5b5061024960048036038101906102449190612768565b6115e5565b60405161025691906123b3565b60405180910390f35b34801561026b57600080fd5b50610274611616565b60405161028191906123b3565b60405180910390f35b34801561029657600080fd5b5061029f61161c565b6040516102ac91906122f2565b60405180910390f35b3480156102c157600080fd5b506102ca611640565b6040516102d791906127a8565b60405180910390f35b6102fa60048036038101906102f591906127c3565b6116fd565b005b34801561030857600080fd5b50610323600480360381019061031e9190612803565b6119a4565b005b34801561033157600080fd5b5061033a611b09565b005b34801561034857600080fd5b50610351611d08565b60405161035e9190612843565b60405180910390f35b34801561037357600080fd5b5061038e600480360381019061038991906129b7565b611d1b565b005b34801561039c57600080fd5b506103a5611f04565b6040516103b29190612843565b60405180910390f35b6103d560048036038101906103d091906123fa565b611f17565b005b600460029054906101000a900473ffffffffffffffffffffffffffffffffffffffff1681565b7f000000000000000000000000000000000000000000000000000000000000000073ffffffffffffffffffffffffffffffffffffffff163373ffffffffffffffffffffffffffffffffffffffff1614806104a257507f000000000000000000000000000000000000000000000000000000000000000073ffffffffffffffffffffffffffffffffffffffff163373ffffffffffffffffffffffffffffffffffffffff16145b6104e1576040517f08c379a00000000000000000000000000000000000000000000000000000000081526004016104d890612a83565b60405180910390fd5b6104e9612261565b60008260ff161180156104ff575060048260ff16105b61050857600080fd5b7f000000000000000000000000000000000000000000000000000000000000000073ffffffffffffffffffffffffffffffffffffffff163373ffffffffffffffffffffffffffffffffffffffff1603610639576000600381111561056f5761056e61265d565b5b600460169054906101000a900460ff1660038111156105915761059061265d565b5b1461059b57600080fd5b6000429050611c20816105ae9190612ad2565b6001819055506001600460166101000a81548160ff021916908360038111156105da576105d961265d565b5b021790555082600460006101000a81548160ff021916908360ff1602179055507f929490df01efaa939914f3c800fca2faec5518e6da20283d3f9909fd8cc39c16838260405161062b929190612b06565b60405180910390a150610789565b6002600381111561064d5761064c61265d565b5b600460169054906101000a900460ff16600381111561066f5761066e61265d565b5b1461067957600080fd5b80600460016101000a81548160ff021916908360ff16021790555060018160ff160361070b57600460029054906101000a900473ffffffffffffffffffffffffffffffffffffffff1673ffffffffffffffffffffffffffffffffffffffff166108fc6003549081150290604051600060405180830381858888f19350505050158015610709573d6000803e3d6000fd5b505b81600460006101000a81548160ff021916908360ff1602179055507fb3f87315f0123ecf2fdec13e9ddeab075e99c82552eef4d8ee0da5b801d85282826040516107559190612843565b60405180910390a16003600460166101000a81548160ff021916908360038111156107835761078261265d565b5b02179055505b6107916122a7565b5050565b60035481565b600681815481106107ab57600080fd5b90600052602060002090600702016000915090508060000160009054906101000a900473ffffffffffffffffffffffffffffffffffffffff16908060010154908060020160009054906101000a900473ffffffffffffffffffffffffffffffffffffffff16908060030154908060040154908060050160009054906101000a900460ff16908060050160019054906101000a900460ff16908060060154905088565b610855612261565b6003808111156108685761086761265d565b5b600460169054906101000a900460ff16600381111561088a5761088961265d565b5b14806108d65750600160038111156108a5576108a461265d565b5b600460169054906101000a900460ff1660038111156108c7576108c661265d565b5b1480156108d5575060015442115b5b6108df57600080fd5b6000600560003373ffffffffffffffffffffffffffffffffffffffff1673ffffffffffffffffffffffffffffffffffffffff1681526020019081526020016000209050600081805490501161093357600080fd5b60008060006003600460009054906101000a900460ff1660ff16148061096b57506001600460019054906101000a900460ff1660ff16145b8061098857506003600460019054906101000a900460ff1660ff16145b905060005b8480549050811015610d2b5760008582815481106109ae576109ad612b2f565b5b906000526020600020015490506000600682815481106109d1576109d0612b2f565b5b906000526020600020906007020190508315610ad4573373ffffffffffffffffffffffffffffffffffffffff168160020160009054906101000a900473ffffffffffffffffffffffffffffffffffffffff1673ffffffffffffffffffffffffffffffffffffffff1603610a5b57806003015486610a4e9190612ad2565b9550600081600301819055505b3373ffffffffffffffffffffffffffffffffffffffff168160000160009054906101000a900473ffffffffffffffffffffffffffffffffffffffff1673ffffffffffffffffffffffffffffffffffffffff1603610acf57806001015486610ac29190612ad2565b9550600081600101819055505b610d16565b3373ffffffffffffffffffffffffffffffffffffffff168160020160009054906101000a900473ffffffffffffffffffffffffffffffffffffffff1673ffffffffffffffffffffffffffffffffffffffff16148015610b585750600460009054906101000a900460ff1660ff168160050160009054906101000a900460ff1660ff16145b80610be457503373ffffffffffffffffffffffffffffffffffffffff168160000160009054906101000a900473ffffffffffffffffffffffffffffffffffffffff1673ffffffffffffffffffffffffffffffffffffffff16148015610be35750600460009054906101000a900460ff1660ff168160050160009054906101000a900460ff1660ff1614155b5b15610c445780600101548160030154610bfd9190612ad2565b86610c089190612ad2565b955080600101548160030154610c1e9190612ad2565b85610c299190612ad2565b94506000816003018190555060008160010181905550610d15565b3373ffffffffffffffffffffffffffffffffffffffff168160000160009054906101000a900473ffffffffffffffffffffffffffffffffffffffff1673ffffffffffffffffffffffffffffffffffffffff16148015610cf257503373ffffffffffffffffffffffffffffffffffffffff168160020160009054906101000a900473ffffffffffffffffffffffffffffffffffffffff1673ffffffffffffffffffffffffffffffffffffffff16145b15610d1457806001015486610d079190612ad2565b9550600081600101819055505b5b5b50508080610d2390612b5e565b91505061098d565b5080158015610d3a5750600082115b15610d855760006064600384610d509190612ba6565b610d5a9190612c17565b90508060036000828254610d6e9190612ad2565b925050819055508084610d819190612c48565b9350505b82471015610dc8576040517f08c379a0000000000000000000000000000000000000000000000000000000008152600401610dbf90612cee565b60405180910390fd5b3373ffffffffffffffffffffffffffffffffffffffff166108fc849081150290604051600060405180830381858888f19350505050158015610e0e573d6000803e3d6000fd5b5050505050610e1b6122a7565b565b6060600080600080600080600090506000806000600560003373ffffffffffffffffffffffffffffffffffffffff1673ffffffffffffffffffffffffffffffffffffffff16815260200190815260200160002090506000600460009054906101000a900460ff1660ff16111561129f576003600460009054906101000a900460ff1660ff1603610fed5760005b8180549050811015610fe7576000828281548110610ecb57610eca612b2f565b5b90600052602060002001549050600060068281548110610eee57610eed612b2f565b5b906000526020600020906007020190503373ffffffffffffffffffffffffffffffffffffffff168160020160009054906101000a900473ffffffffffffffffffffffffffffffffffffffff1673ffffffffffffffffffffffffffffffffffffffff1603610f6857806003015487610f659190612ad2565b96505b3373ffffffffffffffffffffffffffffffffffffffff168160000160009054906101000a900473ffffffffffffffffffffffffffffffffffffffff1673ffffffffffffffffffffffffffffffffffffffff1603610fd257806001015487610fcf9190612ad2565b96505b50508080610fdf90612b5e565b915050610eaa565b5061129e565b60005b818054905081101561127757600082828154811061101157611010612b2f565b5b9060005260206000200154905060006006828154811061103457611033612b2f565b5b906000526020600020906007020190503373ffffffffffffffffffffffffffffffffffffffff168160020160009054906101000a900473ffffffffffffffffffffffffffffffffffffffff1673ffffffffffffffffffffffffffffffffffffffff161480156110c85750600460009054906101000a900460ff1660ff168160050160009054906101000a900460ff1660ff16145b1561111457806001015481600301546110e19190612ad2565b876110ec9190612ad2565b9650806001015481600301546111029190612ad2565b8661110d9190612ad2565b9550611262565b3373ffffffffffffffffffffffffffffffffffffffff168160000160009054906101000a900473ffffffffffffffffffffffffffffffffffffffff1673ffffffffffffffffffffffffffffffffffffffff161480156111995750600460009054906101000a900460ff1660ff168160050160009054906101000a900460ff1660ff1614155b156111e557806001015481600301546111b29190612ad2565b876111bd9190612ad2565b9650806001015481600301546111d39190612ad2565b866111de9190612ad2565b9550611261565b3373ffffffffffffffffffffffffffffffffffffffff168160000160009054906101000a900473ffffffffffffffffffffffffffffffffffffffff1673ffffffffffffffffffffffffffffffffffffffff16148015611248575060008160040154145b156112605780600101548761125d9190612ad2565b96505b5b5b5050808061126f90612b5e565b915050610ff0565b50600083111561129d5760646003846112909190612ba6565b61129a9190612c17565b91505b5b5b6006600254600460009054906101000a900460ff16600460169054906101000a900460ff166001548885805480602002602001604051908101604052809291908181526020016000905b828210156114285783829060005260206000209060070201604051806101000160405290816000820160009054906101000a900473ffffffffffffffffffffffffffffffffffffffff1673ffffffffffffffffffffffffffffffffffffffff1673ffffffffffffffffffffffffffffffffffffffff168152602001600182015481526020016002820160009054906101000a900473ffffffffffffffffffffffffffffffffffffffff1673ffffffffffffffffffffffffffffffffffffffff1673ffffffffffffffffffffffffffffffffffffffff16815260200160038201548152602001600482015481526020016005820160009054906101000a900460ff1660ff1660ff1681526020016005820160019054906101000a900460ff16151515158152602001600682015481525050815260200190600101906112e9565b50505050955099509950995099509950995050505050909192939495565b61144e612261565b600160038111156114625761146161265d565b5b600460169054906101000a900460ff1660038111156114845761148361265d565b5b148015611492575060015442105b806114dd5750600060038111156114ac576114ab61265d565b5b600460169054906101000a900460ff1660038111156114ce576114cd61265d565b5b1480156114dc575060025442115b5b61151c576040517f08c379a000000000000000000000000000000000000000000000000000000000815260040161151390612d5a565b60405180910390fd5b600354341461152a57600080fd5b33600460026101000a81548173ffffffffffffffffffffffffffffffffffffffff021916908373ffffffffffffffffffffffffffffffffffffffff1602179055506002600460166101000a81548160ff021916908360038111156115915761159061265d565b5b021790555034600360008282546115a89190612ad2565b925050819055507f325941a5b65623f14f777a10c4ee68b69cec6214a44a48c1bb1c4991314755c060405160405180910390a16115e36122a7565b565b6005602052816000526040600020818154811061160157600080fd5b90600052602060002001600091509150505481565b60015481565b7f000000000000000000000000000000000000000000000000000000000000000081565b60007f000000000000000000000000000000000000000000000000000000000000000073ffffffffffffffffffffffffffffffffffffffff163373ffffffffffffffffffffffffffffffffffffffff1614806116e757507f000000000000000000000000000000000000000000000000000000000000000073ffffffffffffffffffffffffffffffffffffffff163373ffffffffffffffffffffffffffffffffffffffff16145b156116f557600190506116fa565b600090505b90565b611705612261565b60008160ff1611801561171c575060028160ff1611155b61172557600080fd5b600060038111156117395761173861265d565b5b600460169054906101000a900460ff16600381111561175b5761175a61265d565b5b1461176557600080fd5b60006040518061010001604052803373ffffffffffffffffffffffffffffffffffffffff1681526020013481526020013373ffffffffffffffffffffffffffffffffffffffff168152602001600081526020018481526020018360ff1681526020016001151581526020016006805490508152509050600560003373ffffffffffffffffffffffffffffffffffffffff1673ffffffffffffffffffffffffffffffffffffffff1681526020019081526020016000206006805490509080600181540180825580915050600190039060005260206000200160009091909190915055600681908060018154018082558091505060019003906000526020600020906007020160009091909190915060008201518160000160006101000a81548173ffffffffffffffffffffffffffffffffffffffff021916908373ffffffffffffffffffffffffffffffffffffffff1602179055506020820151816001015560408201518160020160006101000a81548173ffffffffffffffffffffffffffffffffffffffff021916908373ffffffffffffffffffffffffffffffffffffffff160217905550606082015181600301556080820151816004015560a08201518160050160006101000a81548160ff021916908360ff16021790555060c08201518160050160016101000a81548160ff02191690831515021790555060e0820151816006015550507f20c3f797b9c7476a4beb5a93f1743a0a793b6c4b04e8f035a97bb644668d534a60405160405180910390a1506119a06122a7565b5050565b6119ac612261565b600060038111156119c0576119bf61265d565b5b600460169054906101000a900460ff1660038111156119e2576119e161265d565b5b146119ec57600080fd5b3373ffffffffffffffffffffffffffffffffffffffff1660068381548110611a1757611a16612b2f565b5b906000526020600020906007020160020160009054906101000a900473ffffffffffffffffffffffffffffffffffffffff1673ffffffffffffffffffffffffffffffffffffffff1614611a6957600080fd5b8060068381548110611a7e57611a7d612b2f565b5b906000526020600020906007020160040181905550600160068381548110611aa957611aa8612b2f565b5b906000526020600020906007020160050160016101000a81548160ff0219169083151502179055507f20c3f797b9c7476a4beb5a93f1743a0a793b6c4b04e8f035a97bb644668d534a60405160405180910390a1611b056122a7565b5050565b7f000000000000000000000000000000000000000000000000000000000000000073ffffffffffffffffffffffffffffffffffffffff163373ffffffffffffffffffffffffffffffffffffffff161480611bae57507f000000000000000000000000000000000000000000000000000000000000000073ffffffffffffffffffffffffffffffffffffffff163373ffffffffffffffffffffffffffffffffffffffff16145b611bed576040517f08c379a0000000000000000000000000000000000000000000000000000000008152600401611be490612a83565b60405180910390fd5b611bf5612261565b60016003811115611c0957611c0861265d565b5b600460169054906101000a900460ff166003811115611c2b57611c2a61265d565b5b148015611c39575060015442115b80611c5657506002600460019054906101000a900460ff1660ff16145b611c95576040517f08c379a0000000000000000000000000000000000000000000000000000000008152600401611c8c90612d5a565b60405180910390fd5b7f000000000000000000000000000000000000000000000000000000000000000073ffffffffffffffffffffffffffffffffffffffff166108fc6003549081150290604051600060405180830381858888f19350505050158015611cfd573d6000803e3d6000fd5b50611d066122a7565b565b600460019054906101000a900460ff1681565b611d23612261565b60005b8151811015611ecc576000828281518110611d4457611d43612b2f565b5b602002602001015190503373ffffffffffffffffffffffffffffffffffffffff1660068281548110611d7957611d78612b2f565b5b906000526020600020906007020160020160009054906101000a900473ffffffffffffffffffffffffffffffffffffffff1673ffffffffffffffffffffffffffffffffffffffff1614611e01576040517f08c379a0000000000000000000000000000000000000000000000000000000008152600401611df890612dc6565b60405180910390fd5b6001151560068281548110611e1957611e18612b2f565b5b906000526020600020906007020160050160019054906101000a900460ff16151514611e7a576040517f08c379a0000000000000000000000000000000000000000000000000000000008152600401611e7190612e32565b60405180910390fd5b600060068281548110611e9057611e8f612b2f565b5b906000526020600020906007020160050160016101000a81548160ff021916908315150217905550508080611ec490612b5e565b915050611d26565b507f20c3f797b9c7476a4beb5a93f1743a0a793b6c4b04e8f035a97bb644668d534a60405160405180910390a1611f016122a7565b50565b600460009054906101000a900460ff1681565b611f1f612261565b60006003811115611f3357611f3261265d565b5b600460169054906101000a900460ff166003811115611f5557611f5461265d565b5b14611f5f57600080fd5b60068181548110611f7357611f72612b2f565b5b9060005260206000209060070201600401543414611f9057600080fd5b6001151560068281548110611fa857611fa7612b2f565b5b906000526020600020906007020160050160019054906101000a900460ff16151514611fd357600080fd5b600060068281548110611fe957611fe8612b2f565b5b9060005260206000209060070201600301540361202f57346006828154811061201557612014612b2f565b5b9060005260206000209060070201600301819055506120bc565b6006818154811061204357612042612b2f565b5b906000526020600020906007020160020160009054906101000a900473ffffffffffffffffffffffffffffffffffffffff1673ffffffffffffffffffffffffffffffffffffffff166108fc349081150290604051600060405180830381858888f193505050501580156120ba573d6000803e3d6000fd5b505b600560003373ffffffffffffffffffffffffffffffffffffffff1673ffffffffffffffffffffffffffffffffffffffff168152602001908152602001600020819080600181540180825580915050600190039060005260206000200160009091909190915055336006828154811061213757612136612b2f565b5b906000526020600020906007020160020160006101000a81548173ffffffffffffffffffffffffffffffffffffffff021916908373ffffffffffffffffffffffffffffffffffffffff16021790555060006006828154811061219c5761219b612b2f565b5b906000526020600020906007020160050160016101000a81548160ff021916908315150217905550600560003373ffffffffffffffffffffffffffffffffffffffff1673ffffffffffffffffffffffffffffffffffffffff1681526020019081526020016000208190806001815401808255809150506001900390600052602060002001600090919091909150557f20c3f797b9c7476a4beb5a93f1743a0a793b6c4b04e8f035a97bb644668d534a60405160405180910390a161225e6122a7565b50565b60026000540361229d576040517f3ee5aeb500000000000000000000000000000000000000000000000000000000815260040160405180910390fd5b6002600081905550565b6001600081905550565b600073ffffffffffffffffffffffffffffffffffffffff82169050919050565b60006122dc826122b1565b9050919050565b6122ec816122d1565b82525050565b600060208201905061230760008301846122e3565b92915050565b6000604051905090565b600080fd5b600080fd5b600060ff82169050919050565b61233781612321565b811461234257600080fd5b50565b6000813590506123548161232e565b92915050565b6000806040838503121561237157612370612317565b5b600061237f85828601612345565b925050602061239085828601612345565b9150509250929050565b6000819050919050565b6123ad8161239a565b82525050565b60006020820190506123c860008301846123a4565b92915050565b6123d78161239a565b81146123e257600080fd5b50565b6000813590506123f4816123ce565b92915050565b6000602082840312156124105761240f612317565b5b600061241e848285016123e5565b91505092915050565b61243081612321565b82525050565b60008115159050919050565b61244b81612436565b82525050565b600061010082019050612467600083018b6122e3565b612474602083018a6123a4565b61248160408301896122e3565b61248e60608301886123a4565b61249b60808301876123a4565b6124a860a0830186612427565b6124b560c0830185612442565b6124c260e08301846123a4565b9998505050505050505050565b600081519050919050565b600082825260208201905092915050565b6000819050602082019050919050565b612504816122d1565b82525050565b6125138161239a565b82525050565b61252281612321565b82525050565b61253181612436565b82525050565b6101008201600082015161254e60008501826124fb565b506020820151612561602085018261250a565b50604082015161257460408501826124fb565b506060820151612587606085018261250a565b50608082015161259a608085018261250a565b5060a08201516125ad60a0850182612519565b5060c08201516125c060c0850182612528565b5060e08201516125d360e085018261250a565b50505050565b60006125e58383612537565b6101008301905092915050565b6000602082019050919050565b600061260a826124cf565b61261481856124da565b935061261f836124eb565b8060005b8381101561265057815161263788826125d9565b9750612642836125f2565b925050600181019050612623565b5085935050505092915050565b7f4e487b7100000000000000000000000000000000000000000000000000000000600052602160045260246000fd5b6004811061269d5761269c61265d565b5b50565b60008190506126ae8261268c565b919050565b60006126be826126a0565b9050919050565b6126ce816126b3565b82525050565b600060c08201905081810360008301526126ee81896125ff565b90506126fd60208301886123a4565b61270a6040830187612427565b61271760608301866126c5565b61272460808301856123a4565b61273160a08301846123a4565b979650505050505050565b612745816122d1565b811461275057600080fd5b50565b6000813590506127628161273c565b92915050565b6000806040838503121561277f5761277e612317565b5b600061278d85828601612753565b925050602061279e858286016123e5565b9150509250929050565b60006020820190506127bd6000830184612442565b92915050565b600080604083850312156127da576127d9612317565b5b60006127e8858286016123e5565b92505060206127f985828601612345565b9150509250929050565b6000806040838503121561281a57612819612317565b5b6000612828858286016123e5565b9250506020612839858286016123e5565b9150509250929050565b60006020820190506128586000830184612427565b92915050565b600080fd5b6000601f19601f8301169050919050565b7f4e487b7100000000000000000000000000000000000000000000000000000000600052604160045260246000fd5b6128ac82612863565b810181811067ffffffffffffffff821117156128cb576128ca612874565b5b80604052505050565b60006128de61230d565b90506128ea82826128a3565b919050565b600067ffffffffffffffff82111561290a57612909612874565b5b602082029050602081019050919050565b600080fd5b600061293361292e846128ef565b6128d4565b905080838252602082019050602084028301858111156129565761295561291b565b5b835b8181101561297f578061296b88826123e5565b845260208401935050602081019050612958565b5050509392505050565b600082601f83011261299e5761299d61285e565b5b81356129ae848260208601612920565b91505092915050565b6000602082840312156129cd576129cc612317565b5b600082013567ffffffffffffffff8111156129eb576129ea61231c565b5b6129f784828501612989565b91505092915050565b600082825260208201905092915050565b7f4f6e6c7920746865206f776e65722063616e2063616c6c20746869732066756e60008201527f6374696f6e2e0000000000000000000000000000000000000000000000000000602082015250565b6000612a6d602683612a00565b9150612a7882612a11565b604082019050919050565b60006020820190508181036000830152612a9c81612a60565b9050919050565b7f4e487b7100000000000000000000000000000000000000000000000000000000600052601160045260246000fd5b6000612add8261239a565b9150612ae88361239a565b9250828201905080821115612b0057612aff612aa3565b5b92915050565b6000604082019050612b1b6000830185612427565b612b2860208301846123a4565b9392505050565b7f4e487b7100000000000000000000000000000000000000000000000000000000600052603260045260246000fd5b6000612b698261239a565b91507fffffffffffffffffffffffffffffffffffffffffffffffffffffffffffffffff8203612b9b57612b9a612aa3565b5b600182019050919050565b6000612bb18261239a565b9150612bbc8361239a565b9250828202612bca8161239a565b91508282048414831517612be157612be0612aa3565b5b5092915050565b7f4e487b7100000000000000000000000000000000000000000000000000000000600052601260045260246000fd5b6000612c228261239a565b9150612c2d8361239a565b925082612c3d57612c3c612be8565b5b828204905092915050565b6000612c538261239a565b9150612c5e8361239a565b9250828203905081811115612c7657612c75612aa3565b5b92915050565b7f436f6e747261637420646f6573206e6f74206861766520656e6f75676820667560008201527f6e64730000000000000000000000000000000000000000000000000000000000602082015250565b6000612cd8602383612a00565b9150612ce382612c7c565b604082019050919050565b60006020820190508181036000830152612d0781612ccb565b9050919050565b7f496e76616c6964207374617465206f722074696d650000000000000000000000600082015250565b6000612d44601583612a00565b9150612d4f82612d0e565b602082019050919050565b60006020820190508181036000830152612d7381612d37565b9050919050565b7f43616c6c6572206973206e6f7420746865206f776e6572000000000000000000600082015250565b6000612db0601783612a00565b9150612dbb82612d7a565b602082019050919050565b60006020820190508181036000830152612ddf81612da3565b9050919050565b7f426574206973206e6f7420666f722073616c6500000000000000000000000000600082015250565b6000612e1c601383612a00565b9150612e2782612de6565b602082019050919050565b60006020820190508181036000830152612e4b81612e0f565b905091905056fea2646970667358221220e553f98244a63e30bb86be68e313970dc84460797d42475036d999a73e86a46664736f6c63430008140033",
  "linkReferences": {},
  "deployedLinkReferences": {}
}