{
  "_format": "hh-sol-artifact-1",
  "contractName": "predMarket2",
  "sourceName": "contracts/LockV2.sol",
  "abi": [
    {
      "inputs": [
        {
          "internalType": "uint256",
          "name": "_endTime",
          "type": "uint256"
        }
      ],
      "stateMutability": "payable",
      "type": "constructor"
    },
    {
      "inputs": [],
      "name": "ReentrancyGuardReentrantCall",
      "type": "error"
    },
    {
      "anonymous": false,
      "inputs": [],
      "name": "BetEdited",
      "type": "event"
    },
    {
      "anonymous": false,
      "inputs": [],
      "name": "BetUnlisted",
      "type": "event"
    },
    {
      "anonymous": false,
      "inputs": [
        {
          "indexed": true,
          "internalType": "address",
          "name": "beneficiary",
          "type": "address"
        },
        {
          "indexed": false,
          "internalType": "uint256",
          "name": "amount",
          "type": "uint256"
        }
      ],
      "name": "FundsRedistributed",
      "type": "event"
    },
    {
      "anonymous": false,
      "inputs": [],
      "name": "PayoutProcessed",
      "type": "event"
    },
    {
      "anonymous": false,
      "inputs": [],
      "name": "userBoughtBet",
      "type": "event"
    },
    {
      "anonymous": false,
      "inputs": [],
      "name": "userCreatedABet",
      "type": "event"
    },
    {
      "anonymous": false,
      "inputs": [],
      "name": "userReListedBet",
      "type": "event"
    },
    {
      "anonymous": false,
      "inputs": [],
      "name": "userVoted",
      "type": "event"
    },
    {
      "anonymous": false,
      "inputs": [],
      "name": "userWithdrew",
      "type": "event"
    },
    {
      "anonymous": false,
      "inputs": [],
      "name": "winnerDeclaredVoting",
      "type": "event"
    },
    {
      "inputs": [],
      "name": "allBets_Balance",
      "outputs": [
        {
          "components": [
            {
              "internalType": "address",
              "name": "deployer",
              "type": "address"
            },
            {
              "internalType": "uint256",
              "name": "amountDeployerLocked",
              "type": "uint256"
            },
            {
              "internalType": "address",
              "name": "owner",
              "type": "address"
            },
            {
              "internalType": "uint256",
              "name": "amountBuyerLocked",
              "type": "uint256"
            },
            {
              "internalType": "uint256",
              "name": "amountToBuyFor",
              "type": "uint256"
            },
            {
              "internalType": "uint8",
              "name": "conditionForBuyerToWin",
              "type": "uint8"
            },
            {
              "internalType": "bool",
              "name": "selling",
              "type": "bool"
            },
            {
              "internalType": "uint256",
              "name": "positionInArray",
              "type": "uint256"
            }
          ],
          "internalType": "struct predMarket2.bet[]",
          "name": "",
          "type": "tuple[]"
        },
        {
          "internalType": "uint256",
          "name": "",
          "type": "uint256"
        },
        {
          "internalType": "uint8",
          "name": "",
          "type": "uint8"
        },
        {
          "internalType": "enum predMarket2.RaffleState",
          "name": "",
          "type": "uint8"
        },
        {
          "internalType": "uint256",
          "name": "",
          "type": "uint256"
        },
        {
          "internalType": "uint256",
          "name": "",
          "type": "uint256"
        },
        {
          "internalType": "uint256",
          "name": "",
          "type": "uint256"
        },
        {
          "internalType": "uint256",
          "name": "",
          "type": "uint256"
        }
      ],
      "stateMutability": "view",
      "type": "function"
    },
    {
      "inputs": [
        {
          "internalType": "uint256",
          "name": "",
          "type": "uint256"
        }
      ],
      "name": "arrayOfBets",
      "outputs": [
        {
          "internalType": "address",
          "name": "deployer",
          "type": "address"
        },
        {
          "internalType": "uint256",
          "name": "amountDeployerLocked",
          "type": "uint256"
        },
        {
          "internalType": "address",
          "name": "owner",
          "type": "address"
        },
        {
          "internalType": "uint256",
          "name": "amountBuyerLocked",
          "type": "uint256"
        },
        {
          "internalType": "uint256",
          "name": "amountToBuyFor",
          "type": "uint256"
        },
        {
          "internalType": "uint8",
          "name": "conditionForBuyerToWin",
          "type": "uint8"
        },
        {
          "internalType": "bool",
          "name": "selling",
          "type": "bool"
        },
        {
          "internalType": "uint256",
          "name": "positionInArray",
          "type": "uint256"
        }
      ],
      "stateMutability": "view",
      "type": "function"
    },
    {
      "inputs": [
        {
          "internalType": "address",
          "name": "",
          "type": "address"
        },
        {
          "internalType": "uint256",
          "name": "",
          "type": "uint256"
        }
      ],
      "name": "betsByUser",
      "outputs": [
        {
          "internalType": "uint256",
          "name": "",
          "type": "uint256"
        }
      ],
      "stateMutability": "view",
      "type": "function"
    },
    {
      "inputs": [
        {
          "internalType": "uint256",
          "name": "positionOfArray",
          "type": "uint256"
        }
      ],
      "name": "buyABet",
      "outputs": [],
      "stateMutability": "payable",
      "type": "function"
    },
    {
      "inputs": [],
      "name": "creatorLocked",
      "outputs": [
        {
          "internalType": "uint256",
          "name": "",
          "type": "uint256"
        }
      ],
      "stateMutability": "view",
      "type": "function"
    },
    {
      "inputs": [
        {
          "internalType": "uint8",
          "name": "_winner",
          "type": "uint8"
        },
        {
          "internalType": "uint8",
          "name": "_disagreeCorrect",
          "type": "uint8"
        }
      ],
      "name": "declareWinner",
      "outputs": [],
      "stateMutability": "nonpayable",
      "type": "function"
    },
    {
      "inputs": [],
      "name": "disagreeCorrect",
      "outputs": [
        {
          "internalType": "uint8",
          "name": "",
          "type": "uint8"
        }
      ],
      "stateMutability": "view",
      "type": "function"
    },
    {
      "inputs": [],
      "name": "disagreeWithOwner",
      "outputs": [],
      "stateMutability": "payable",
      "type": "function"
    },
    {
      "inputs": [],
      "name": "disagreedUser",
      "outputs": [
        {
          "internalType": "address",
          "name": "",
          "type": "address"
        }
      ],
      "stateMutability": "view",
      "type": "function"
    },
    {
      "inputs": [
        {
          "internalType": "uint256",
          "name": "positionOfArray",
          "type": "uint256"
        },
        {
          "internalType": "uint256",
          "name": "newDeployPrice",
          "type": "uint256"
        },
        {
          "internalType": "uint256",
          "name": "newAskingPrice",
          "type": "uint256"
        }
      ],
      "name": "editADeployedBet",
      "outputs": [],
      "stateMutability": "payable",
      "type": "function"
    },
    {
      "inputs": [],
      "name": "endOfVoting",
      "outputs": [
        {
          "internalType": "uint256",
          "name": "",
          "type": "uint256"
        }
      ],
      "stateMutability": "view",
      "type": "function"
    },
    {
      "inputs": [],
      "name": "owner",
      "outputs": [
        {
          "internalType": "address",
          "name": "",
          "type": "address"
        }
      ],
      "stateMutability": "view",
      "type": "function"
    },
    {
      "inputs": [
        {
          "internalType": "uint256",
          "name": "amountToBuy",
          "type": "uint256"
        },
        {
          "internalType": "uint8",
          "name": "conditionToWIn",
          "type": "uint8"
        }
      ],
      "name": "sellANewBet",
      "outputs": [],
      "stateMutability": "payable",
      "type": "function"
    },
    {
      "inputs": [
        {
          "internalType": "uint256",
          "name": "positionOfArray",
          "type": "uint256"
        },
        {
          "internalType": "uint256",
          "name": "newAskingPrice",
          "type": "uint256"
        }
      ],
      "name": "sellAnExistingBet",
      "outputs": [],
      "stateMutability": "nonpayable",
      "type": "function"
    },
    {
      "inputs": [],
      "name": "staffPay",
      "outputs": [
        {
          "internalType": "uint256",
          "name": "",
          "type": "uint256"
        }
      ],
      "stateMutability": "view",
      "type": "function"
    },
    {
      "inputs": [],
      "name": "transferOwnerAmount",
      "outputs": [],
      "stateMutability": "nonpayable",
      "type": "function"
    },
    {
      "inputs": [],
      "name": "transferStaffAmount",
      "outputs": [],
      "stateMutability": "nonpayable",
      "type": "function"
    },
    {
      "inputs": [
        {
          "internalType": "uint256[]",
          "name": "positionsOfArray",
          "type": "uint256[]"
        }
      ],
      "name": "unlistBets",
      "outputs": [],
      "stateMutability": "nonpayable",
      "type": "function"
    },
    {
      "inputs": [],
      "name": "winner",
      "outputs": [
        {
          "internalType": "uint8",
          "name": "",
          "type": "uint8"
        }
      ],
      "stateMutability": "view",
      "type": "function"
    },
    {
      "inputs": [],
      "name": "withdraw",
      "outputs": [],
      "stateMutability": "nonpayable",
      "type": "function"
    }
  ],
  "bytecode": "0x60a0604052604051806020016040528073f39fd6e51aad88f6f4ce6ab8827279cfffb9226673ffffffffffffffffffffffffffffffffffffffff1673ffffffffffffffffffffffffffffffffffffffff168152506001906001620000659291906200010a565b5060405162003ab738038062003ab783398181016040528101906200008b9190620001f8565b6001600081905550346005819055503373ffffffffffffffffffffffffffffffffffffffff1660808173ffffffffffffffffffffffffffffffffffffffff1681525050806004819055506000600660166101000a81548160ff02191690836003811115620000fe57620000fd6200022a565b5b02179055505062000259565b82805482825590600052602060002090810192821562000186579160200282015b82811115620001855782518260006101000a81548173ffffffffffffffffffffffffffffffffffffffff021916908373ffffffffffffffffffffffffffffffffffffffff160217905550916020019190600101906200012b565b5b50905062000195919062000199565b5090565b5b80821115620001b45760008160009055506001016200019a565b5090565b600080fd5b6000819050919050565b620001d281620001bd565b8114620001de57600080fd5b50565b600081519050620001f281620001c7565b92915050565b600060208284031215620002115762000210620001b8565b5b60006200022184828501620001e1565b91505092915050565b7f4e487b7100000000000000000000000000000000000000000000000000000000600052602160045260246000fd5b60805161382662000291600039600081816104e9015281816105a601528181611a7e015281816121ff015261234c01526138266000f3fe60806040526004361061011f5760003560e01c80637e887332116100a0578063b4a36fd711610064578063b4a36fd714610370578063c16c344b14610387578063d38399ec146103b2578063dfbf53ae146103db578063ee9891f1146104065761011f565b80637e887332146102b95780638da5cb5b146102e45780639651b1831461030f57806397ecf9001461032b578063a6c69ffe146103475761011f565b80635d926148116100e75780635d926148146101fe578063607c9cea146102155780636afedac5146102405780637672ef7b146102725780637c54bafe1461027c5761011f565b80631d4aa3c61461012457806322e5d0b71461014f57806330dda1c2146101785780633658957e146101a35780633ccfd60b146101e7575b600080fd5b34801561013057600080fd5b50610139610422565b604051610146919061294a565b60405180910390f35b34801561015b57600080fd5b50610176600480360381019061017191906129b2565b610448565b005b34801561018457600080fd5b5061018d610806565b60405161019a9190612a0b565b60405180910390f35b3480156101af57600080fd5b506101ca60048036038101906101c59190612a52565b61080c565b6040516101de989796959493929190612aa9565b60405180910390f35b3480156101f357600080fd5b506101fc6108be565b005b34801561020a57600080fd5b5061021361102b565b005b34801561022157600080fd5b5061022a61123d565b6040516102379190612a0b565b60405180910390f35b34801561024c57600080fd5b50610255611243565b604051610269989796959493929190612d2c565b60405180910390f35b61027a6118a6565b005b34801561028857600080fd5b506102a3600480360381019061029e9190612ddd565b611a45565b6040516102b09190612a0b565b60405180910390f35b3480156102c557600080fd5b506102ce611a76565b6040516102db9190612a0b565b60405180910390f35b3480156102f057600080fd5b506102f9611a7c565b604051610306919061294a565b60405180910390f35b61032960048036038101906103249190612e1d565b611aa0565b005b61034560048036038101906103409190612e5d565b611d47565b005b34801561035357600080fd5b5061036e60048036038101906103699190612eb0565b611ff9565b005b34801561037c57600080fd5b5061038561215e565b005b34801561039357600080fd5b5061039c6123c6565b6040516103a99190612ef0565b60405180910390f35b3480156103be57600080fd5b506103d960048036038101906103d49190613064565b6123d9565b005b3480156103e757600080fd5b506103f06125c2565b6040516103fd9190612ef0565b60405180910390f35b610420600480360381019061041b9190612a52565b6125d5565b005b600660029054906101000a900473ffffffffffffffffffffffffffffffffffffffff1681565b6000805b6001805490508110156104e6573373ffffffffffffffffffffffffffffffffffffffff1660018281548110610484576104836130ad565b5b9060005260206000200160009054906101000a900473ffffffffffffffffffffffffffffffffffffffff1673ffffffffffffffffffffffffffffffffffffffff16036104d357600191506104e6565b80806104de9061310b565b91505061044c565b507f000000000000000000000000000000000000000000000000000000000000000073ffffffffffffffffffffffffffffffffffffffff163373ffffffffffffffffffffffffffffffffffffffff16148061053e5750805b61057d576040517f08c379a0000000000000000000000000000000000000000000000000000000008152600401610574906131d6565b60405180910390fd5b6105856128b9565b60008360ff1611801561059b575060048360ff16105b6105a457600080fd5b7f000000000000000000000000000000000000000000000000000000000000000073ffffffffffffffffffffffffffffffffffffffff163373ffffffffffffffffffffffffffffffffffffffff16036106c8576000600381111561060b5761060a612cb5565b5b600660169054906101000a900460ff16600381111561062d5761062c612cb5565b5b1461063757600080fd5b600042905061012c8161064a91906131f6565b6003819055506001600660166101000a81548160ff0219169083600381111561067657610675612cb5565b5b021790555083600660006101000a81548160ff021916908360ff1602179055507fbbfddbd2a33e1c8d143e1f8b564451965d01678a70438b79b4900cd033c12a2760405160405180910390a1506107f9565b81600660016101000a81548160ff021916908360ff16021790555060018260ff160361075e57600660029054906101000a900473ffffffffffffffffffffffffffffffffffffffff1673ffffffffffffffffffffffffffffffffffffffff166108fc6005549081150290604051600060405180830381858888f19350505050158015610758573d6000803e3d6000fd5b50610786565b60038260ff1603610785576005546002600082825461077d91906131f6565b925050819055505b5b82600660006101000a81548160ff021916908360ff1602179055507fbbfddbd2a33e1c8d143e1f8b564451965d01678a70438b79b4900cd033c12a2760405160405180910390a16003600660166101000a81548160ff021916908360038111156107f3576107f2612cb5565b5b02179055505b6108016128ff565b505050565b60055481565b6008818154811061081c57600080fd5b90600052602060002090600702016000915090508060000160009054906101000a900473ffffffffffffffffffffffffffffffffffffffff16908060010154908060020160009054906101000a900473ffffffffffffffffffffffffffffffffffffffff16908060030154908060040154908060050160009054906101000a900460ff16908060050160019054906101000a900460ff16908060060154905088565b6108c66128b9565b6003808111156108d9576108d8612cb5565b5b600660169054906101000a900460ff1660038111156108fb576108fa612cb5565b5b148061094757506001600381111561091657610915612cb5565b5b600660169054906101000a900460ff16600381111561093857610937612cb5565b5b148015610946575060035442115b5b610986576040517f08c379a000000000000000000000000000000000000000000000000000000000815260040161097d90613276565b60405180910390fd5b6000600760003373ffffffffffffffffffffffffffffffffffffffff1673ffffffffffffffffffffffffffffffffffffffff16815260200190815260200160002090506000818054905011610a10576040517f08c379a0000000000000000000000000000000000000000000000000000000008152600401610a07906132e2565b60405180910390fd5b60008060006003600660009054906101000a900460ff1660ff1614905060005b8480549050811015610e85576000858281548110610a5157610a506130ad565b5b90600052602060002001549050600060088281548110610a7457610a736130ad565b5b906000526020600020906007020190508315610b77573373ffffffffffffffffffffffffffffffffffffffff168160020160009054906101000a900473ffffffffffffffffffffffffffffffffffffffff1673ffffffffffffffffffffffffffffffffffffffff1603610afe57806003015486610af191906131f6565b9550600081600301819055505b3373ffffffffffffffffffffffffffffffffffffffff168160000160009054906101000a900473ffffffffffffffffffffffffffffffffffffffff1673ffffffffffffffffffffffffffffffffffffffff1603610b7257806001015486610b6591906131f6565b9550600081600101819055505b610e70565b60003373ffffffffffffffffffffffffffffffffffffffff168260000160009054906101000a900473ffffffffffffffffffffffffffffffffffffffff1673ffffffffffffffffffffffffffffffffffffffff16148015610c2757503373ffffffffffffffffffffffffffffffffffffffff168260020160009054906101000a900473ffffffffffffffffffffffffffffffffffffffff1673ffffffffffffffffffffffffffffffffffffffff16145b90508015610c695781600301548260010154610c4391906131f6565b87610c4e91906131f6565b96506000826001018190555060008260030181905550610e6e565b3373ffffffffffffffffffffffffffffffffffffffff168260020160009054906101000a900473ffffffffffffffffffffffffffffffffffffffff1673ffffffffffffffffffffffffffffffffffffffff16148015610ced5750600660009054906101000a900460ff1660ff168260050160009054906101000a900460ff1660ff16145b80610d7957503373ffffffffffffffffffffffffffffffffffffffff168260000160009054906101000a900473ffffffffffffffffffffffffffffffffffffffff1673ffffffffffffffffffffffffffffffffffffffff16148015610d785750600660009054906101000a900460ff1660ff168260050160009054906101000a900460ff1660ff1614155b5b15610e6d57600082600101548360030154610d9491906131f6565b90508088610da291906131f6565b97503373ffffffffffffffffffffffffffffffffffffffff168360020160009054906101000a900473ffffffffffffffffffffffffffffffffffffffff1673ffffffffffffffffffffffffffffffffffffffff16148015610e285750600660009054906101000a900460ff1660ff168360050160009054906101000a900460ff1660ff16145b15610e4457826001015487610e3d91906131f6565b9650610e57565b826003015487610e5491906131f6565b96505b6000836003018190555060008360010181905550505b5b505b50508080610e7d9061310b565b915050610a30565b5080158015610e945750600082115b15610f2457600061271061012c84610eac9190613302565b610eb69190613373565b9050600061271060c885610eca9190613302565b610ed49190613373565b90508060026000828254610ee891906131f6565b925050819055508160056000828254610f0191906131f6565b925050819055508082610f1491906131f6565b85610f1f91906133a4565b945050505b60008311610f67576040517f08c379a0000000000000000000000000000000000000000000000000000000008152600401610f5e90613424565b60405180910390fd5b82471015610faa576040517f08c379a0000000000000000000000000000000000000000000000000000000008152600401610fa190613490565b60405180910390fd5b3373ffffffffffffffffffffffffffffffffffffffff166108fc849081150290604051600060405180830381858888f19350505050158015610ff0573d6000803e3d6000fd5b507fc3038e585f1bbb89a9a4ed41eb9b8f65d3589d382434df15a354153177e39bbd60405160405180910390a1505050506110296128ff565b565b6000805b6001805490508110156110c9573373ffffffffffffffffffffffffffffffffffffffff1660018281548110611067576110666130ad565b5b9060005260206000200160009054906101000a900473ffffffffffffffffffffffffffffffffffffffff1673ffffffffffffffffffffffffffffffffffffffff16036110b657600191506110c9565b80806110c19061310b565b91505061102f565b508061110a576040517f08c379a0000000000000000000000000000000000000000000000000000000008152600401611101906134fc565b60405180910390fd5b6111126128b9565b6001600381111561112657611125612cb5565b5b600660169054906101000a900460ff16600381111561114857611147612cb5565b5b148015611156575060035442115b80611193575060038081111561116f5761116e612cb5565b5b600660169054906101000a900460ff16600381111561119157611190612cb5565b5b145b6111d2576040517f08c379a00000000000000000000000000000000000000000000000000000000081526004016111c990613568565b60405180910390fd5b6000600254116111e157600080fd5b3373ffffffffffffffffffffffffffffffffffffffff166108fc6002549081150290604051600060405180830381858888f19350505050158015611229573d6000803e3d6000fd5b50600060028190555061123a6128ff565b50565b60025481565b6060600080600080600080600080600090506000806000600760003373ffffffffffffffffffffffffffffffffffffffff1673ffffffffffffffffffffffffffffffffffffffff16815260200190815260200160002090506000806003600660009054906101000a900460ff1660ff16149050600080600660009054906101000a900460ff1660ff1614905060005b84805490508110156116b35760008582815481106112f3576112f26130ad565b5b90600052602060002001549050600060088281548110611316576113156130ad565b5b906000526020600020906007020190508361169e57841561140a573373ffffffffffffffffffffffffffffffffffffffff168160020160009054906101000a900473ffffffffffffffffffffffffffffffffffffffff1673ffffffffffffffffffffffffffffffffffffffff160361139b5780600301548a61139891906131f6565b99505b3373ffffffffffffffffffffffffffffffffffffffff168160000160009054906101000a900473ffffffffffffffffffffffffffffffffffffffff1673ffffffffffffffffffffffffffffffffffffffff16036114055780600101548a61140291906131f6565b99505b61169d565b3373ffffffffffffffffffffffffffffffffffffffff168160000160009054906101000a900473ffffffffffffffffffffffffffffffffffffffff1673ffffffffffffffffffffffffffffffffffffffff161480156114b857503373ffffffffffffffffffffffffffffffffffffffff168160020160009054906101000a900473ffffffffffffffffffffffffffffffffffffffff1673ffffffffffffffffffffffffffffffffffffffff16145b156114e357806003015481600101546114d191906131f6565b8a6114dc91906131f6565b995061169c565b3373ffffffffffffffffffffffffffffffffffffffff168160020160009054906101000a900473ffffffffffffffffffffffffffffffffffffffff1673ffffffffffffffffffffffffffffffffffffffff161480156115675750600660009054906101000a900460ff1660ff168160050160009054906101000a900460ff1660ff16145b806115f357503373ffffffffffffffffffffffffffffffffffffffff168160000160009054906101000a900473ffffffffffffffffffffffffffffffffffffffff1673ffffffffffffffffffffffffffffffffffffffff161480156115f25750600660009054906101000a900460ff1660ff168160050160009054906101000a900460ff1660ff1614155b5b1561169b578060010154816003015461160c91906131f6565b8a61161791906131f6565b99503373ffffffffffffffffffffffffffffffffffffffff168160020160009054906101000a900473ffffffffffffffffffffffffffffffffffffffff1673ffffffffffffffffffffffffffffffffffffffff16036116875780600101548661168091906131f6565b955061169a565b80600301548661169791906131f6565b95505b5b5b5b5b505080806116ab9061310b565b9150506112d2565b50811580156116c25750600083115b156116f457600060646005856116d89190613302565b6116e29190613373565b905080886116f091906133a4565b9750505b6008600454600660009054906101000a900460ff16600660169054906101000a900460ff166003548b8b8b87805480602002602001604051908101604052809291908181526020016000905b8282101561187f5783829060005260206000209060070201604051806101000160405290816000820160009054906101000a900473ffffffffffffffffffffffffffffffffffffffff1673ffffffffffffffffffffffffffffffffffffffff1673ffffffffffffffffffffffffffffffffffffffff168152602001600182015481526020016002820160009054906101000a900473ffffffffffffffffffffffffffffffffffffffff1673ffffffffffffffffffffffffffffffffffffffff1673ffffffffffffffffffffffffffffffffffffffff16815260200160038201548152602001600482015481526020016005820160009054906101000a900460ff1660ff1660ff1681526020016005820160019054906101000a900460ff1615151515815260200160068201548152505081526020019060010190611740565b5050505097509e509e509e509e509e509e509e509e50505050505050509091929394959697565b6118ae6128b9565b600160038111156118c2576118c1612cb5565b5b600660169054906101000a900460ff1660038111156118e4576118e3612cb5565b5b1480156118f2575060035442105b8061193d57506000600381111561190c5761190b612cb5565b5b600660169054906101000a900460ff16600381111561192e5761192d612cb5565b5b14801561193c575060045442115b5b61197c576040517f08c379a000000000000000000000000000000000000000000000000000000000815260040161197390613568565b60405180910390fd5b600554341461198a57600080fd5b33600660026101000a81548173ffffffffffffffffffffffffffffffffffffffff021916908373ffffffffffffffffffffffffffffffffffffffff1602179055506002600660166101000a81548160ff021916908360038111156119f1576119f0612cb5565b5b02179055503460056000828254611a0891906131f6565b925050819055507f325941a5b65623f14f777a10c4ee68b69cec6214a44a48c1bb1c4991314755c060405160405180910390a1611a436128ff565b565b60076020528160005260406000208181548110611a6157600080fd5b90600052602060002001600091509150505481565b60035481565b7f000000000000000000000000000000000000000000000000000000000000000081565b611aa86128b9565b60008160ff16118015611abf575060028160ff1611155b611ac857600080fd5b60006003811115611adc57611adb612cb5565b5b600660169054906101000a900460ff166003811115611afe57611afd612cb5565b5b14611b0857600080fd5b60006040518061010001604052803373ffffffffffffffffffffffffffffffffffffffff1681526020013481526020013373ffffffffffffffffffffffffffffffffffffffff168152602001600081526020018481526020018360ff1681526020016001151581526020016008805490508152509050600760003373ffffffffffffffffffffffffffffffffffffffff1673ffffffffffffffffffffffffffffffffffffffff1681526020019081526020016000206008805490509080600181540180825580915050600190039060005260206000200160009091909190915055600881908060018154018082558091505060019003906000526020600020906007020160009091909190915060008201518160000160006101000a81548173ffffffffffffffffffffffffffffffffffffffff021916908373ffffffffffffffffffffffffffffffffffffffff1602179055506020820151816001015560408201518160020160006101000a81548173ffffffffffffffffffffffffffffffffffffffff021916908373ffffffffffffffffffffffffffffffffffffffff160217905550606082015181600301556080820151816004015560a08201518160050160006101000a81548160ff021916908360ff16021790555060c08201518160050160016101000a81548160ff02191690831515021790555060e0820151816006015550507f9f9060b2035b3d98df4f62b3bbd9de8d98a49465ddcdd11c92f63c956df0442b60405160405180910390a150611d436128ff565b5050565b611d4f6128b9565b600060088481548110611d6557611d646130ad565b5b906000526020600020906007020190503373ffffffffffffffffffffffffffffffffffffffff168160020160009054906101000a900473ffffffffffffffffffffffffffffffffffffffff1673ffffffffffffffffffffffffffffffffffffffff16148015611e2357503373ffffffffffffffffffffffffffffffffffffffff168160000160009054906101000a900473ffffffffffffffffffffffffffffffffffffffff1673ffffffffffffffffffffffffffffffffffffffff16145b611e62576040517f08c379a0000000000000000000000000000000000000000000000000000000008152600401611e59906135fa565b60405180910390fd5b600081600101549050808414611f815780841015611f235760008482611e8891906133a4565b905080471015611ecd576040517f08c379a0000000000000000000000000000000000000000000000000000000008152600401611ec49061368c565b60405180910390fd5b8483600101819055503373ffffffffffffffffffffffffffffffffffffffff166108fc829081150290604051600060405180830381858888f19350505050158015611f1c573d6000803e3d6000fd5b5050611f80565b60008185611f3191906133a4565b9050803414611f75576040517f08c379a0000000000000000000000000000000000000000000000000000000008152600401611f6c906136f8565b60405180910390fd5b848360010181905550505b5b8282600401819055508160050160019054906101000a900460ff16611fbe5760018260050160016101000a81548160ff0219169083151502179055505b7ff75e56f787976a19558bde97657a643e88c61a76b39e41f3a06a120defa30d6160405160405180910390a15050611ff46128ff565b505050565b6120016128b9565b6000600381111561201557612014612cb5565b5b600660169054906101000a900460ff16600381111561203757612036612cb5565b5b1461204157600080fd5b3373ffffffffffffffffffffffffffffffffffffffff166008838154811061206c5761206b6130ad565b5b906000526020600020906007020160020160009054906101000a900473ffffffffffffffffffffffffffffffffffffffff1673ffffffffffffffffffffffffffffffffffffffff16146120be57600080fd5b80600883815481106120d3576120d26130ad565b5b9060005260206000209060070201600401819055506001600883815481106120fe576120fd6130ad565b5b906000526020600020906007020160050160016101000a81548160ff0219169083151502179055507f50c7c110b9cabc516cf0aef475d15558b239d0490f0389129f4e6b4c378dfa3d60405160405180910390a161215a6128ff565b5050565b6000805b6001805490508110156121fc573373ffffffffffffffffffffffffffffffffffffffff166001828154811061219a576121996130ad565b5b9060005260206000200160009054906101000a900473ffffffffffffffffffffffffffffffffffffffff1673ffffffffffffffffffffffffffffffffffffffff16036121e957600191506121fc565b80806121f49061310b565b915050612162565b507f000000000000000000000000000000000000000000000000000000000000000073ffffffffffffffffffffffffffffffffffffffff163373ffffffffffffffffffffffffffffffffffffffff1614806122545750805b612293576040517f08c379a000000000000000000000000000000000000000000000000000000000815260040161228a906131d6565b60405180910390fd5b61229b6128b9565b600160038111156122af576122ae612cb5565b5b600660169054906101000a900460ff1660038111156122d1576122d0612cb5565b5b1480156122df575060035442115b806122fc57506002600660019054906101000a900460ff1660ff16145b61233b576040517f08c379a000000000000000000000000000000000000000000000000000000000815260040161233290613568565b60405180910390fd5b60006005541161234a57600080fd5b7f000000000000000000000000000000000000000000000000000000000000000073ffffffffffffffffffffffffffffffffffffffff166108fc6005549081150290604051600060405180830381858888f193505050501580156123b2573d6000803e3d6000fd5b5060006005819055506123c36128ff565b50565b600660019054906101000a900460ff1681565b6123e16128b9565b60005b815181101561258a576000828281518110612402576124016130ad565b5b602002602001015190503373ffffffffffffffffffffffffffffffffffffffff1660088281548110612437576124366130ad565b5b906000526020600020906007020160020160009054906101000a900473ffffffffffffffffffffffffffffffffffffffff1673ffffffffffffffffffffffffffffffffffffffff16146124bf576040517f08c379a00000000000000000000000000000000000000000000000000000000081526004016124b690613764565b60405180910390fd5b60011515600882815481106124d7576124d66130ad565b5b906000526020600020906007020160050160019054906101000a900460ff16151514612538576040517f08c379a000000000000000000000000000000000000000000000000000000000815260040161252f906137d0565b60405180910390fd5b60006008828154811061254e5761254d6130ad565b5b906000526020600020906007020160050160016101000a81548160ff0219169083151502179055505080806125829061310b565b9150506123e4565b507f1e5a109a2c5190a6567f1b2386d95213f70c40047a7d1f2fb64e5974c9a0043a60405160405180910390a16125bf6128ff565b50565b600660009054906101000a900460ff1681565b6125dd6128b9565b600060038111156125f1576125f0612cb5565b5b600660169054906101000a900460ff16600381111561261357612612612cb5565b5b1461261d57600080fd5b60088181548110612631576126306130ad565b5b906000526020600020906007020160040154341461264e57600080fd5b6001151560088281548110612666576126656130ad565b5b906000526020600020906007020160050160019054906101000a900460ff1615151461269157600080fd5b6000600882815481106126a7576126a66130ad565b5b906000526020600020906007020160030154036126ed5734600882815481106126d3576126d26130ad565b5b90600052602060002090600702016003018190555061277a565b60088181548110612701576127006130ad565b5b906000526020600020906007020160020160009054906101000a900473ffffffffffffffffffffffffffffffffffffffff1673ffffffffffffffffffffffffffffffffffffffff166108fc349081150290604051600060405180830381858888f19350505050158015612778573d6000803e3d6000fd5b505b600760003373ffffffffffffffffffffffffffffffffffffffff1673ffffffffffffffffffffffffffffffffffffffff16815260200190815260200160002081908060018154018082558091505060019003906000526020600020016000909190919091505533600882815481106127f5576127f46130ad565b5b906000526020600020906007020160020160006101000a81548173ffffffffffffffffffffffffffffffffffffffff021916908373ffffffffffffffffffffffffffffffffffffffff16021790555060006008828154811061285a576128596130ad565b5b906000526020600020906007020160050160016101000a81548160ff0219169083151502179055507f34825dc172bd596324998d16543dc86015d6a6dd51a29758081d1f535c18b59d60405160405180910390a16128b66128ff565b50565b6002600054036128f5576040517f3ee5aeb500000000000000000000000000000000000000000000000000000000815260040160405180910390fd5b6002600081905550565b6001600081905550565b600073ffffffffffffffffffffffffffffffffffffffff82169050919050565b600061293482612909565b9050919050565b61294481612929565b82525050565b600060208201905061295f600083018461293b565b92915050565b6000604051905090565b600080fd5b600080fd5b600060ff82169050919050565b61298f81612979565b811461299a57600080fd5b50565b6000813590506129ac81612986565b92915050565b600080604083850312156129c9576129c861296f565b5b60006129d78582860161299d565b92505060206129e88582860161299d565b9150509250929050565b6000819050919050565b612a05816129f2565b82525050565b6000602082019050612a2060008301846129fc565b92915050565b612a2f816129f2565b8114612a3a57600080fd5b50565b600081359050612a4c81612a26565b92915050565b600060208284031215612a6857612a6761296f565b5b6000612a7684828501612a3d565b91505092915050565b612a8881612979565b82525050565b60008115159050919050565b612aa381612a8e565b82525050565b600061010082019050612abf600083018b61293b565b612acc602083018a6129fc565b612ad9604083018961293b565b612ae660608301886129fc565b612af360808301876129fc565b612b0060a0830186612a7f565b612b0d60c0830185612a9a565b612b1a60e08301846129fc565b9998505050505050505050565b600081519050919050565b600082825260208201905092915050565b6000819050602082019050919050565b612b5c81612929565b82525050565b612b6b816129f2565b82525050565b612b7a81612979565b82525050565b612b8981612a8e565b82525050565b61010082016000820151612ba66000850182612b53565b506020820151612bb96020850182612b62565b506040820151612bcc6040850182612b53565b506060820151612bdf6060850182612b62565b506080820151612bf26080850182612b62565b5060a0820151612c0560a0850182612b71565b5060c0820151612c1860c0850182612b80565b5060e0820151612c2b60e0850182612b62565b50505050565b6000612c3d8383612b8f565b6101008301905092915050565b6000602082019050919050565b6000612c6282612b27565b612c6c8185612b32565b9350612c7783612b43565b8060005b83811015612ca8578151612c8f8882612c31565b9750612c9a83612c4a565b925050600181019050612c7b565b5085935050505092915050565b7f4e487b7100000000000000000000000000000000000000000000000000000000600052602160045260246000fd5b60048110612cf557612cf4612cb5565b5b50565b6000819050612d0682612ce4565b919050565b6000612d1682612cf8565b9050919050565b612d2681612d0b565b82525050565b6000610100820190508181036000830152612d47818b612c57565b9050612d56602083018a6129fc565b612d636040830189612a7f565b612d706060830188612d1d565b612d7d60808301876129fc565b612d8a60a08301866129fc565b612d9760c08301856129fc565b612da460e08301846129fc565b9998505050505050505050565b612dba81612929565b8114612dc557600080fd5b50565b600081359050612dd781612db1565b92915050565b60008060408385031215612df457612df361296f565b5b6000612e0285828601612dc8565b9250506020612e1385828601612a3d565b9150509250929050565b60008060408385031215612e3457612e3361296f565b5b6000612e4285828601612a3d565b9250506020612e538582860161299d565b9150509250929050565b600080600060608486031215612e7657612e7561296f565b5b6000612e8486828701612a3d565b9350506020612e9586828701612a3d565b9250506040612ea686828701612a3d565b9150509250925092565b60008060408385031215612ec757612ec661296f565b5b6000612ed585828601612a3d565b9250506020612ee685828601612a3d565b9150509250929050565b6000602082019050612f056000830184612a7f565b92915050565b600080fd5b6000601f19601f8301169050919050565b7f4e487b7100000000000000000000000000000000000000000000000000000000600052604160045260246000fd5b612f5982612f10565b810181811067ffffffffffffffff82111715612f7857612f77612f21565b5b80604052505050565b6000612f8b612965565b9050612f978282612f50565b919050565b600067ffffffffffffffff821115612fb757612fb6612f21565b5b602082029050602081019050919050565b600080fd5b6000612fe0612fdb84612f9c565b612f81565b9050808382526020820190506020840283018581111561300357613002612fc8565b5b835b8181101561302c57806130188882612a3d565b845260208401935050602081019050613005565b5050509392505050565b600082601f83011261304b5761304a612f0b565b5b813561305b848260208601612fcd565b91505092915050565b60006020828403121561307a5761307961296f565b5b600082013567ffffffffffffffff81111561309857613097612974565b5b6130a484828501613036565b91505092915050565b7f4e487b7100000000000000000000000000000000000000000000000000000000600052603260045260246000fd5b7f4e487b7100000000000000000000000000000000000000000000000000000000600052601160045260246000fd5b6000613116826129f2565b91507fffffffffffffffffffffffffffffffffffffffffffffffffffffffffffffffff8203613148576131476130dc565b5b600182019050919050565b600082825260208201905092915050565b7f43616c6c6572206973206e6f7420746865206f776e6572206f7220612073746160008201527f6666206d656d6265720000000000000000000000000000000000000000000000602082015250565b60006131c0602983613153565b91506131cb82613164565b604082019050919050565b600060208201905081810360008301526131ef816131b3565b9050919050565b6000613201826129f2565b915061320c836129f2565b9250828201905080821115613224576132236130dc565b5b92915050565b7f43616e6e6f7420776974686472617720617420746869732074696d6500000000600082015250565b6000613260601c83613153565b915061326b8261322a565b602082019050919050565b6000602082019050818103600083015261328f81613253565b9050919050565b7f4e6f206265747320666f756e6420666f72207573657200000000000000000000600082015250565b60006132cc601683613153565b91506132d782613296565b602082019050919050565b600060208201905081810360008301526132fb816132bf565b9050919050565b600061330d826129f2565b9150613318836129f2565b9250828202613326816129f2565b9150828204841483151761333d5761333c6130dc565b5b5092915050565b7f4e487b7100000000000000000000000000000000000000000000000000000000600052601260045260246000fd5b600061337e826129f2565b9150613389836129f2565b92508261339957613398613344565b5b828204905092915050565b60006133af826129f2565b91506133ba836129f2565b92508282039050818111156133d2576133d16130dc565b5b92915050565b7f4e6f2062616c616e636520746f20776974686472617700000000000000000000600082015250565b600061340e601683613153565b9150613419826133d8565b602082019050919050565b6000602082019050818103600083015261343d81613401565b9050919050565b7f496e73756666696369656e7420636f6e74726163742062616c616e6365000000600082015250565b600061347a601d83613153565b915061348582613444565b602082019050919050565b600060208201905081810360008301526134a98161346d565b9050919050565b7f43616c6c6572206973206e6f742061207374616666206d656d62657200000000600082015250565b60006134e6601c83613153565b91506134f1826134b0565b602082019050919050565b60006020820190508181036000830152613515816134d9565b9050919050565b7f496e76616c6964207374617465206f722074696d650000000000000000000000600082015250565b6000613552601583613153565b915061355d8261351c565b602082019050919050565b6000602082019050818103600083015261358181613545565b9050919050565b7f4f6e6c7920746865206465706c6f7965722077686f20697320616c736f20746860008201527f65206f776e65722063616e206564697420746869732062657400000000000000602082015250565b60006135e4603983613153565b91506135ef82613588565b604082019050919050565b60006020820190508181036000830152613613816135d7565b9050919050565b7f496e73756666696369656e7420636f6e74726163742066756e647320666f722060008201527f726566756e640000000000000000000000000000000000000000000000000000602082015250565b6000613676602683613153565b91506136818261361a565b604082019050919050565b600060208201905081810360008301526136a581613669565b9050919050565b7f496e636f7272656374206164646974696f6e616c2066756e64732073656e7400600082015250565b60006136e2601f83613153565b91506136ed826136ac565b602082019050919050565b60006020820190508181036000830152613711816136d5565b9050919050565b7f43616c6c6572206973206e6f7420746865206f776e6572000000000000000000600082015250565b600061374e601783613153565b915061375982613718565b602082019050919050565b6000602082019050818103600083015261377d81613741565b9050919050565b7f426574206973206e6f7420666f722073616c6500000000000000000000000000600082015250565b60006137ba601383613153565b91506137c582613784565b602082019050919050565b600060208201905081810360008301526137e9816137ad565b905091905056fea2646970667358221220f37809b5a880c6066bff4080d6d43cf221300b757a5b1dc134024698fb99525464736f6c63430008140033",
  "linkReferences": {},
  "deployedLinkReferences": {}
}