{
  "_format": "hh-sol-artifact-1",
  "contractName": "predMarket2",
  "sourceName": "contracts/LockV2.sol",
  "abi": [
    {
      "inputs": [
        {
          "internalType": "uint256",
          "name": "_endTime",
          "type": "uint256"
        }
      ],
      "stateMutability": "payable",
      "type": "constructor"
    },
    {
      "inputs": [],
      "name": "ReentrancyGuardReentrantCall",
      "type": "error"
    },
    {
      "anonymous": false,
      "inputs": [
        {
          "indexed": true,
          "internalType": "uint256",
          "name": "positionOfArray",
          "type": "uint256"
        }
      ],
      "name": "BetUnlisted",
      "type": "event"
    },
    {
      "anonymous": false,
      "inputs": [
        {
          "indexed": true,
          "internalType": "address",
          "name": "beneficiary",
          "type": "address"
        },
        {
          "indexed": false,
          "internalType": "uint256",
          "name": "amount",
          "type": "uint256"
        }
      ],
      "name": "FundsRedistributed",
      "type": "event"
    },
    {
      "anonymous": false,
      "inputs": [],
      "name": "PayoutProcessed",
      "type": "event"
    },
    {
      "anonymous": false,
      "inputs": [
        {
          "indexed": false,
          "internalType": "uint256",
          "name": "timeStamp",
          "type": "uint256"
        }
      ],
      "name": "contractDeployed",
      "type": "event"
    },
    {
      "anonymous": false,
      "inputs": [],
      "name": "newBetOffered",
      "type": "event"
    },
    {
      "anonymous": false,
      "inputs": [],
      "name": "shithappened",
      "type": "event"
    },
    {
      "anonymous": false,
      "inputs": [],
      "name": "underReview",
      "type": "event"
    },
    {
      "anonymous": false,
      "inputs": [
        {
          "indexed": true,
          "internalType": "address",
          "name": "sender",
          "type": "address"
        },
        {
          "indexed": false,
          "internalType": "uint256",
          "name": "betPlacedValue",
          "type": "uint256"
        }
      ],
      "name": "userPlacedBet",
      "type": "event"
    },
    {
      "anonymous": false,
      "inputs": [
        {
          "indexed": true,
          "internalType": "address",
          "name": "sender",
          "type": "address"
        },
        {
          "indexed": false,
          "internalType": "uint256",
          "name": "betReduced",
          "type": "uint256"
        }
      ],
      "name": "userReducedBet",
      "type": "event"
    },
    {
      "anonymous": false,
      "inputs": [
        {
          "indexed": true,
          "internalType": "address",
          "name": "sender",
          "type": "address"
        },
        {
          "indexed": false,
          "internalType": "string",
          "name": "betAorB",
          "type": "string"
        }
      ],
      "name": "userWithdrewBet",
      "type": "event"
    },
    {
      "anonymous": false,
      "inputs": [
        {
          "indexed": false,
          "internalType": "uint8",
          "name": "winnerIs",
          "type": "uint8"
        }
      ],
      "name": "winnerDeclaredVoting",
      "type": "event"
    },
    {
      "anonymous": false,
      "inputs": [
        {
          "indexed": false,
          "internalType": "uint8",
          "name": "winnerIs",
          "type": "uint8"
        }
      ],
      "name": "winnerFinalized",
      "type": "event"
    },
    {
      "inputs": [],
      "name": "allBets_Balance",
      "outputs": [
        {
          "components": [
            {
              "internalType": "address",
              "name": "deployer",
              "type": "address"
            },
            {
              "internalType": "uint256",
              "name": "amountDeployerLocked",
              "type": "uint256"
            },
            {
              "internalType": "address",
              "name": "owner",
              "type": "address"
            },
            {
              "internalType": "uint256",
              "name": "amountBuyerLocked",
              "type": "uint256"
            },
            {
              "internalType": "uint256",
              "name": "amountToBuyFor",
              "type": "uint256"
            },
            {
              "internalType": "uint8",
              "name": "conditionForBuyerToWin",
              "type": "uint8"
            },
            {
              "internalType": "bool",
              "name": "selling",
              "type": "bool"
            },
            {
              "internalType": "uint256",
              "name": "positionInArray",
              "type": "uint256"
            }
          ],
          "internalType": "struct predMarket2.bet[]",
          "name": "",
          "type": "tuple[]"
        },
        {
          "internalType": "uint256",
          "name": "",
          "type": "uint256"
        },
        {
          "internalType": "uint256",
          "name": "",
          "type": "uint256"
        },
        {
          "internalType": "uint8",
          "name": "",
          "type": "uint8"
        },
        {
          "internalType": "enum predMarket2.RaffleState",
          "name": "",
          "type": "uint8"
        }
      ],
      "stateMutability": "view",
      "type": "function"
    },
    {
      "inputs": [
        {
          "internalType": "uint256",
          "name": "",
          "type": "uint256"
        }
      ],
      "name": "arrayOfBets",
      "outputs": [
        {
          "internalType": "address",
          "name": "deployer",
          "type": "address"
        },
        {
          "internalType": "uint256",
          "name": "amountDeployerLocked",
          "type": "uint256"
        },
        {
          "internalType": "address",
          "name": "owner",
          "type": "address"
        },
        {
          "internalType": "uint256",
          "name": "amountBuyerLocked",
          "type": "uint256"
        },
        {
          "internalType": "uint256",
          "name": "amountToBuyFor",
          "type": "uint256"
        },
        {
          "internalType": "uint8",
          "name": "conditionForBuyerToWin",
          "type": "uint8"
        },
        {
          "internalType": "bool",
          "name": "selling",
          "type": "bool"
        },
        {
          "internalType": "uint256",
          "name": "positionInArray",
          "type": "uint256"
        }
      ],
      "stateMutability": "view",
      "type": "function"
    },
    {
      "inputs": [
        {
          "internalType": "address",
          "name": "",
          "type": "address"
        }
      ],
      "name": "betterBalance",
      "outputs": [
        {
          "internalType": "uint256",
          "name": "",
          "type": "uint256"
        }
      ],
      "stateMutability": "view",
      "type": "function"
    },
    {
      "inputs": [
        {
          "internalType": "uint256",
          "name": "positionOfArray",
          "type": "uint256"
        }
      ],
      "name": "buyABet",
      "outputs": [],
      "stateMutability": "payable",
      "type": "function"
    },
    {
      "inputs": [
        {
          "internalType": "uint8",
          "name": "_winner",
          "type": "uint8"
        }
      ],
      "name": "declareWinner",
      "outputs": [],
      "stateMutability": "nonpayable",
      "type": "function"
    },
    {
      "inputs": [],
      "name": "disagreeWithOwner",
      "outputs": [],
      "stateMutability": "payable",
      "type": "function"
    },
    {
      "inputs": [],
      "name": "endOfVoting",
      "outputs": [
        {
          "internalType": "uint256",
          "name": "",
          "type": "uint256"
        }
      ],
      "stateMutability": "view",
      "type": "function"
    },
    {
      "inputs": [],
      "name": "getBalance",
      "outputs": [
        {
          "internalType": "uint256",
          "name": "",
          "type": "uint256"
        }
      ],
      "stateMutability": "view",
      "type": "function"
    },
    {
      "inputs": [],
      "name": "isOwner",
      "outputs": [
        {
          "internalType": "bool",
          "name": "",
          "type": "bool"
        }
      ],
      "stateMutability": "view",
      "type": "function"
    },
    {
      "inputs": [],
      "name": "redeemBets",
      "outputs": [],
      "stateMutability": "nonpayable",
      "type": "function"
    },
    {
      "inputs": [
        {
          "internalType": "uint256",
          "name": "amountToBuy",
          "type": "uint256"
        },
        {
          "internalType": "uint8",
          "name": "conditionToWIn",
          "type": "uint8"
        }
      ],
      "name": "sellANewBet",
      "outputs": [],
      "stateMutability": "payable",
      "type": "function"
    },
    {
      "inputs": [
        {
          "internalType": "uint256",
          "name": "positionOfArray",
          "type": "uint256"
        },
        {
          "internalType": "uint256",
          "name": "newAskingPrice",
          "type": "uint256"
        }
      ],
      "name": "sellAnExistingBet",
      "outputs": [],
      "stateMutability": "nonpayable",
      "type": "function"
    },
    {
      "inputs": [
        {
          "internalType": "uint256[]",
          "name": "positionsOfArray",
          "type": "uint256[]"
        }
      ],
      "name": "unlistBets",
      "outputs": [],
      "stateMutability": "nonpayable",
      "type": "function"
    },
    {
      "inputs": [],
      "name": "winner",
      "outputs": [
        {
          "internalType": "uint8",
          "name": "",
          "type": "uint8"
        }
      ],
      "stateMutability": "view",
      "type": "function"
    },
    {
      "inputs": [],
      "name": "withdraw",
      "outputs": [],
      "stateMutability": "nonpayable",
      "type": "function"
    }
  ],
  "bytecode": "0x60c060405273f39fd6e51aad88f6f4ce6ab8827279cfffb9226673ffffffffffffffffffffffffffffffffffffffff1660a09073ffffffffffffffffffffffffffffffffffffffff168152506040516200268938038062002689833981810160405281019062000070919062000174565b600160008190555066b1a2bc2ec500003414620000c4576040517f08c379a0000000000000000000000000000000000000000000000000000000008152600401620000bb906200022d565b60405180910390fd5b3373ffffffffffffffffffffffffffffffffffffffff1660808173ffffffffffffffffffffffffffffffffffffffff1681525050806003819055506000600260016101000a81548160ff021916908360048111156200012857620001276200024f565b5b0217905550506200027e565b600080fd5b6000819050919050565b6200014e8162000139565b81146200015a57600080fd5b50565b6000815190506200016e8162000143565b92915050565b6000602082840312156200018d576200018c62000134565b5b60006200019d848285016200015d565b91505092915050565b600082825260208201905092915050565b7f4465706c6f796d656e742072657175697265732065786163746c7920302e303560008201527f2045746865720000000000000000000000000000000000000000000000000000602082015250565b600062000215602683620001a6565b91506200022282620001b7565b604082019050919050565b60006020820190508181036000830152620002488162000206565b9050919050565b7f4e487b7100000000000000000000000000000000000000000000000000000000600052602160045260246000fd5b60805160a0516123d7620002b260003960006108ec01526000818161033e015281816108970152610cd301526123d76000f3fe6080604052600436106100e85760003560e01c8063860273221161008a578063b8cd837411610059578063b8cd8374146102ad578063d38399ec146102c4578063dfbf53ae146102ed578063ee9891f114610318576100e8565b806386027322146102005780638f32d59b1461023d5780639651b18314610268578063a6c69ffe14610284576100e8565b80633ccfd60b116100c65780633ccfd60b146101855780636afedac51461019c5780637672ef7b146101cb5780637e887332146101d5576100e8565b806312065fe0146100ed5780631798b2ae146101185780633658957e14610141575b600080fd5b3480156100f957600080fd5b50610102610334565b60405161010f919061199e565b60405180910390f35b34801561012457600080fd5b5061013f600480360381019061013a9190611a06565b61033c565b005b34801561014d57600080fd5b5061016860048036038101906101639190611a5f565b6104c9565b60405161017c989796959493929190611af7565b60405180910390f35b34801561019157600080fd5b5061019a61057b565b005b3480156101a857600080fd5b506101b1610613565b6040516101c2959493929190611d7a565b60405180910390f35b6101d36107fd565b005b3480156101e157600080fd5b506101ea610875565b6040516101f7919061199e565b60405180910390f35b34801561020c57600080fd5b5061022760048036038101906102229190611e00565b61087b565b604051610234919061199e565b60405180910390f35b34801561024957600080fd5b50610252610893565b60405161025f9190611e2d565b60405180910390f35b610282600480360381019061027d9190611e48565b610950565b005b34801561029057600080fd5b506102ab60048036038101906102a69190611e88565b610b7c565b005b3480156102b957600080fd5b506102c2610cd1565b005b3480156102d057600080fd5b506102eb60048036038101906102e69190612021565b6114ba565b005b3480156102f957600080fd5b50610302611693565b60405161030f919061206a565b60405180910390f35b610332600480360381019061032d9190611a5f565b6116a6565b005b600047905090565b7f000000000000000000000000000000000000000000000000000000000000000073ffffffffffffffffffffffffffffffffffffffff163373ffffffffffffffffffffffffffffffffffffffff16146103ca576040517f08c379a00000000000000000000000000000000000000000000000000000000081526004016103c190612108565b60405180910390fd5b600060048111156103de576103dd611d03565b5b600260019054906101000a900460ff166004811115610400576103ff611d03565b5b1461040a57600080fd5b611c20426104189190612157565b6001819055506001600260016101000a81548160ff0219169083600481111561044457610443611d03565b5b021790555080600260006101000a81548160ff021916908360ff1602179055507fce0878c42651e9fd4550445f75987947d74715fdcef08b0dffcb757965ab4a1f81604051610493919061206a565b60405180910390a16001600260016101000a81548160ff021916908360048111156104c1576104c0611d03565b5b021790555050565b600581815481106104d957600080fd5b90600052602060002090600702016000915090508060000160009054906101000a900473ffffffffffffffffffffffffffffffffffffffff16908060010154908060020160009054906101000a900473ffffffffffffffffffffffffffffffffffffffff16908060030154908060040154908060050160009054906101000a900460ff16908060050160019054906101000a900460ff16908060060154905088565b610583611935565b3373ffffffffffffffffffffffffffffffffffffffff166108fc600460003373ffffffffffffffffffffffffffffffffffffffff1673ffffffffffffffffffffffffffffffffffffffff168152602001908152602001600020549081150290604051600060405180830381858888f19350505050158015610608573d6000803e3d6000fd5b5061061161197b565b565b60606000806000806000600460003373ffffffffffffffffffffffffffffffffffffffff1673ffffffffffffffffffffffffffffffffffffffff168152602001908152602001600020549050600581600354600260009054906101000a900460ff16600260019054906101000a900460ff1684805480602002602001604051908101604052809291908181526020016000905b828210156107e55783829060005260206000209060070201604051806101000160405290816000820160009054906101000a900473ffffffffffffffffffffffffffffffffffffffff1673ffffffffffffffffffffffffffffffffffffffff1673ffffffffffffffffffffffffffffffffffffffff168152602001600182015481526020016002820160009054906101000a900473ffffffffffffffffffffffffffffffffffffffff1673ffffffffffffffffffffffffffffffffffffffff1673ffffffffffffffffffffffffffffffffffffffff16815260200160038201548152602001600482015481526020016005820160009054906101000a900460ff1660ff1660ff1681526020016005820160019054906101000a900460ff16151515158152602001600682015481525050815260200190600101906106a6565b50505050945095509550955095509550509091929394565b6001600481111561081157610810611d03565b5b600260019054906101000a900460ff16600481111561083357610832611d03565b5b1480610840575060035442115b61084957600080fd5b60028060016101000a81548160ff0219169083600481111561086e5761086d611d03565b5b0217905550565b60015481565b60046020528060005260406000206000915090505481565b60007f000000000000000000000000000000000000000000000000000000000000000073ffffffffffffffffffffffffffffffffffffffff163373ffffffffffffffffffffffffffffffffffffffff16148061093a57507f000000000000000000000000000000000000000000000000000000000000000073ffffffffffffffffffffffffffffffffffffffff163373ffffffffffffffffffffffffffffffffffffffff16145b15610948576001905061094d565b600090505b90565b60008160ff16118015610967575060028160ff1611155b61097057600080fd5b6000600481111561098457610983611d03565b5b600260019054906101000a900460ff1660048111156109a6576109a5611d03565b5b146109b057600080fd5b60006040518061010001604052803373ffffffffffffffffffffffffffffffffffffffff1681526020013481526020013373ffffffffffffffffffffffffffffffffffffffff168152602001600081526020018481526020018360ff1681526020016001151581526020016005805490508152509050600581908060018154018082558091505060019003906000526020600020906007020160009091909190915060008201518160000160006101000a81548173ffffffffffffffffffffffffffffffffffffffff021916908373ffffffffffffffffffffffffffffffffffffffff1602179055506020820151816001015560408201518160020160006101000a81548173ffffffffffffffffffffffffffffffffffffffff021916908373ffffffffffffffffffffffffffffffffffffffff160217905550606082015181600301556080820151816004015560a08201518160050160006101000a81548160ff021916908360ff16021790555060c08201518160050160016101000a81548160ff02191690831515021790555060e0820151816006015550507f20c3f797b9c7476a4beb5a93f1743a0a793b6c4b04e8f035a97bb644668d534a60405160405180910390a1505050565b60006004811115610b9057610b8f611d03565b5b600260019054906101000a900460ff166004811115610bb257610bb1611d03565b5b14610bbc57600080fd5b3373ffffffffffffffffffffffffffffffffffffffff1660058381548110610be757610be661218b565b5b906000526020600020906007020160020160009054906101000a900473ffffffffffffffffffffffffffffffffffffffff1673ffffffffffffffffffffffffffffffffffffffff1614610c3957600080fd5b8060058381548110610c4e57610c4d61218b565b5b906000526020600020906007020160040181905550600160058381548110610c7957610c7861218b565b5b906000526020600020906007020160050160016101000a81548160ff0219169083151502179055507f20c3f797b9c7476a4beb5a93f1743a0a793b6c4b04e8f035a97bb644668d534a60405160405180910390a15050565b7f000000000000000000000000000000000000000000000000000000000000000073ffffffffffffffffffffffffffffffffffffffff163373ffffffffffffffffffffffffffffffffffffffff1614610d5f576040517f08c379a0000000000000000000000000000000000000000000000000000000008152600401610d5690612108565b60405180910390fd5b60016004811115610d7357610d72611d03565b5b600260019054906101000a900460ff166004811115610d9557610d94611d03565b5b148015610da3575060015442115b610de2576040517f08c379a0000000000000000000000000000000000000000000000000000000008152600401610dd99061222c565b60405180910390fd5b60005b60058054905081101561146057600060058281548110610e0857610e0761218b565b5b90600052602060002090600702016003015460058381548110610e2e57610e2d61218b565b5b906000526020600020906007020160010154610e4a9190612157565b9050600260009054906101000a900460ff1660ff1660058381548110610e7357610e7261218b565b5b906000526020600020906007020160050160009054906101000a900460ff1660ff1603610fcd57806004600060058581548110610eb357610eb261218b565b5b906000526020600020906007020160020160009054906101000a900473ffffffffffffffffffffffffffffffffffffffff1673ffffffffffffffffffffffffffffffffffffffff1673ffffffffffffffffffffffffffffffffffffffff1681526020019081526020016000206000828254610f2e9190612157565b9250508190555060058281548110610f4957610f4861218b565b5b906000526020600020906007020160020160009054906101000a900473ffffffffffffffffffffffffffffffffffffffff1673ffffffffffffffffffffffffffffffffffffffff167f67b3d24295657563da706484ee33c9099bc2aaff80d6a7fe5af32709f4bcea0582604051610fc0919061199e565b60405180910390a261144c565b6001600260009054906101000a900460ff16610fe9919061224c565b60ff166005838154811061100057610fff61218b565b5b906000526020600020906007020160050160009054906101000a900460ff1660ff160361115a578060046000600585815481106110405761103f61218b565b5b906000526020600020906007020160000160009054906101000a900473ffffffffffffffffffffffffffffffffffffffff1673ffffffffffffffffffffffffffffffffffffffff1673ffffffffffffffffffffffffffffffffffffffff16815260200190815260200160002060008282546110bb9190612157565b92505081905550600582815481106110d6576110d561218b565b5b906000526020600020906007020160000160009054906101000a900473ffffffffffffffffffffffffffffffffffffffff1673ffffffffffffffffffffffffffffffffffffffff167f67b3d24295657563da706484ee33c9099bc2aaff80d6a7fe5af32709f4bcea058260405161114d919061199e565b60405180910390a261144b565b6005828154811061116e5761116d61218b565b5b90600052602060002090600702016001015460046000600585815481106111985761119761218b565b5b906000526020600020906007020160000160009054906101000a900473ffffffffffffffffffffffffffffffffffffffff1673ffffffffffffffffffffffffffffffffffffffff1673ffffffffffffffffffffffffffffffffffffffff16815260200190815260200160002060008282546112139190612157565b925050819055506005828154811061122e5761122d61218b565b5b90600052602060002090600702016003015460046000600585815481106112585761125761218b565b5b906000526020600020906007020160020160009054906101000a900473ffffffffffffffffffffffffffffffffffffffff1673ffffffffffffffffffffffffffffffffffffffff1673ffffffffffffffffffffffffffffffffffffffff16815260200190815260200160002060008282546112d39190612157565b92505081905550600582815481106112ee576112ed61218b565b5b906000526020600020906007020160000160009054906101000a900473ffffffffffffffffffffffffffffffffffffffff1673ffffffffffffffffffffffffffffffffffffffff167f67b3d24295657563da706484ee33c9099bc2aaff80d6a7fe5af32709f4bcea056005848154811061136b5761136a61218b565b5b90600052602060002090600702016001015460405161138a919061199e565b60405180910390a2600582815481106113a6576113a561218b565b5b906000526020600020906007020160020160009054906101000a900473ffffffffffffffffffffffffffffffffffffffff1673ffffffffffffffffffffffffffffffffffffffff167f67b3d24295657563da706484ee33c9099bc2aaff80d6a7fe5af32709f4bcea05600584815481106114235761142261218b565b5b906000526020600020906007020160030154604051611442919061199e565b60405180910390a25b5b50808061145890612281565b915050610de5565b506004600260016101000a81548160ff0219169083600481111561148757611486611d03565b5b02179055507f977cc9372b76a1e9fafbf8d4c4e67963bcd3d54b80c7356f7b950c4312a1f81160405160405180910390a1565b60005b81518110156116635760008282815181106114db576114da61218b565b5b602002602001015190503373ffffffffffffffffffffffffffffffffffffffff16600582815481106115105761150f61218b565b5b906000526020600020906007020160020160009054906101000a900473ffffffffffffffffffffffffffffffffffffffff1673ffffffffffffffffffffffffffffffffffffffff1614611598576040517f08c379a000000000000000000000000000000000000000000000000000000000815260040161158f90612315565b60405180910390fd5b60011515600582815481106115b0576115af61218b565b5b906000526020600020906007020160050160019054906101000a900460ff16151514611611576040517f08c379a000000000000000000000000000000000000000000000000000000000815260040161160890612381565b60405180910390fd5b6000600582815481106116275761162661218b565b5b906000526020600020906007020160050160016101000a81548160ff02191690831515021790555050808061165b90612281565b9150506114bd565b507f20c3f797b9c7476a4beb5a93f1743a0a793b6c4b04e8f035a97bb644668d534a60405160405180910390a150565b600260009054906101000a900460ff1681565b600060048111156116ba576116b9611d03565b5b600260019054906101000a900460ff1660048111156116dc576116db611d03565b5b146116e657600080fd5b600581815481106116fa576116f961218b565b5b906000526020600020906007020160040154341461171757600080fd5b600115156005828154811061172f5761172e61218b565b5b906000526020600020906007020160050160019054906101000a900460ff1615151461175a57600080fd5b6000600582815481106117705761176f61218b565b5b906000526020600020906007020160030154036117c857346005828154811061179c5761179b61218b565b5b906000526020600020906007020160030160008282546117bc9190612157565b92505081905550611864565b3460046000600584815481106117e1576117e061218b565b5b906000526020600020906007020160020160009054906101000a900473ffffffffffffffffffffffffffffffffffffffff1673ffffffffffffffffffffffffffffffffffffffff1673ffffffffffffffffffffffffffffffffffffffff168152602001908152602001600020600082825461185c9190612157565b925050819055505b33600582815481106118795761187861218b565b5b906000526020600020906007020160020160006101000a81548173ffffffffffffffffffffffffffffffffffffffff021916908373ffffffffffffffffffffffffffffffffffffffff1602179055506000600582815481106118de576118dd61218b565b5b906000526020600020906007020160050160016101000a81548160ff0219169083151502179055507f20c3f797b9c7476a4beb5a93f1743a0a793b6c4b04e8f035a97bb644668d534a60405160405180910390a150565b600260005403611971576040517f3ee5aeb500000000000000000000000000000000000000000000000000000000815260040160405180910390fd5b6002600081905550565b6001600081905550565b6000819050919050565b61199881611985565b82525050565b60006020820190506119b3600083018461198f565b92915050565b6000604051905090565b600080fd5b600080fd5b600060ff82169050919050565b6119e3816119cd565b81146119ee57600080fd5b50565b600081359050611a00816119da565b92915050565b600060208284031215611a1c57611a1b6119c3565b5b6000611a2a848285016119f1565b91505092915050565b611a3c81611985565b8114611a4757600080fd5b50565b600081359050611a5981611a33565b92915050565b600060208284031215611a7557611a746119c3565b5b6000611a8384828501611a4a565b91505092915050565b600073ffffffffffffffffffffffffffffffffffffffff82169050919050565b6000611ab782611a8c565b9050919050565b611ac781611aac565b82525050565b611ad6816119cd565b82525050565b60008115159050919050565b611af181611adc565b82525050565b600061010082019050611b0d600083018b611abe565b611b1a602083018a61198f565b611b276040830189611abe565b611b34606083018861198f565b611b41608083018761198f565b611b4e60a0830186611acd565b611b5b60c0830185611ae8565b611b6860e083018461198f565b9998505050505050505050565b600081519050919050565b600082825260208201905092915050565b6000819050602082019050919050565b611baa81611aac565b82525050565b611bb981611985565b82525050565b611bc8816119cd565b82525050565b611bd781611adc565b82525050565b61010082016000820151611bf46000850182611ba1565b506020820151611c076020850182611bb0565b506040820151611c1a6040850182611ba1565b506060820151611c2d6060850182611bb0565b506080820151611c406080850182611bb0565b5060a0820151611c5360a0850182611bbf565b5060c0820151611c6660c0850182611bce565b5060e0820151611c7960e0850182611bb0565b50505050565b6000611c8b8383611bdd565b6101008301905092915050565b6000602082019050919050565b6000611cb082611b75565b611cba8185611b80565b9350611cc583611b91565b8060005b83811015611cf6578151611cdd8882611c7f565b9750611ce883611c98565b925050600181019050611cc9565b5085935050505092915050565b7f4e487b7100000000000000000000000000000000000000000000000000000000600052602160045260246000fd5b60058110611d4357611d42611d03565b5b50565b6000819050611d5482611d32565b919050565b6000611d6482611d46565b9050919050565b611d7481611d59565b82525050565b600060a0820190508181036000830152611d948188611ca5565b9050611da3602083018761198f565b611db0604083018661198f565b611dbd6060830185611acd565b611dca6080830184611d6b565b9695505050505050565b611ddd81611aac565b8114611de857600080fd5b50565b600081359050611dfa81611dd4565b92915050565b600060208284031215611e1657611e156119c3565b5b6000611e2484828501611deb565b91505092915050565b6000602082019050611e426000830184611ae8565b92915050565b60008060408385031215611e5f57611e5e6119c3565b5b6000611e6d85828601611a4a565b9250506020611e7e858286016119f1565b9150509250929050565b60008060408385031215611e9f57611e9e6119c3565b5b6000611ead85828601611a4a565b9250506020611ebe85828601611a4a565b9150509250929050565b600080fd5b6000601f19601f8301169050919050565b7f4e487b7100000000000000000000000000000000000000000000000000000000600052604160045260246000fd5b611f1682611ecd565b810181811067ffffffffffffffff82111715611f3557611f34611ede565b5b80604052505050565b6000611f486119b9565b9050611f548282611f0d565b919050565b600067ffffffffffffffff821115611f7457611f73611ede565b5b602082029050602081019050919050565b600080fd5b6000611f9d611f9884611f59565b611f3e565b90508083825260208201905060208402830185811115611fc057611fbf611f85565b5b835b81811015611fe95780611fd58882611a4a565b845260208401935050602081019050611fc2565b5050509392505050565b600082601f83011261200857612007611ec8565b5b8135612018848260208601611f8a565b91505092915050565b600060208284031215612037576120366119c3565b5b600082013567ffffffffffffffff811115612055576120546119c8565b5b61206184828501611ff3565b91505092915050565b600060208201905061207f6000830184611acd565b92915050565b600082825260208201905092915050565b7f4f6e6c7920746865206f776e65722063616e2063616c6c20746869732066756e60008201527f6374696f6e2e0000000000000000000000000000000000000000000000000000602082015250565b60006120f2602683612085565b91506120fd82612096565b604082019050919050565b60006020820190508181036000830152612121816120e5565b9050919050565b7f4e487b7100000000000000000000000000000000000000000000000000000000600052601160045260246000fd5b600061216282611985565b915061216d83611985565b925082820190508082111561218557612184612128565b5b92915050565b7f4e487b7100000000000000000000000000000000000000000000000000000000600052603260045260246000fd5b7f526564656d7074696f6e206973206e6f7420616c6c6f7765642061742074686960008201527f732074696d652e00000000000000000000000000000000000000000000000000602082015250565b6000612216602783612085565b9150612221826121ba565b604082019050919050565b6000602082019050818103600083015261224581612209565b9050919050565b6000612257826119cd565b9150612262836119cd565b9250828201905060ff81111561227b5761227a612128565b5b92915050565b600061228c82611985565b91507fffffffffffffffffffffffffffffffffffffffffffffffffffffffffffffffff82036122be576122bd612128565b5b600182019050919050565b7f43616c6c6572206973206e6f7420746865206f776e6572000000000000000000600082015250565b60006122ff601783612085565b915061230a826122c9565b602082019050919050565b6000602082019050818103600083015261232e816122f2565b9050919050565b7f426574206973206e6f7420666f722073616c6500000000000000000000000000600082015250565b600061236b601383612085565b915061237682612335565b602082019050919050565b6000602082019050818103600083015261239a8161235e565b905091905056fea2646970667358221220e727fb1b819eab02368223e00a2a3d4b5e8da1b0e7a590d65609f762e5684b3464736f6c63430008140033",
  "linkReferences": {},
  "deployedLinkReferences": {}
}