{
  "_format": "hh-sol-artifact-1",
  "contractName": "predMarket2",
  "sourceName": "contracts/LockV2.sol",
  "abi": [
    {
      "inputs": [
        {
          "internalType": "uint256",
          "name": "timeToEnd",
          "type": "uint256"
        }
      ],
      "stateMutability": "payable",
      "type": "constructor"
    },
    {
      "inputs": [],
      "name": "ReentrancyGuardReentrantCall",
      "type": "error"
    },
    {
      "anonymous": false,
      "inputs": [
        {
          "indexed": false,
          "internalType": "uint256",
          "name": "timeStamp",
          "type": "uint256"
        }
      ],
      "name": "contractDeployed",
      "type": "event"
    },
    {
      "anonymous": false,
      "inputs": [],
      "name": "newBetOffered",
      "type": "event"
    },
    {
      "anonymous": false,
      "inputs": [],
      "name": "shithappened",
      "type": "event"
    },
    {
      "anonymous": false,
      "inputs": [],
      "name": "underReview",
      "type": "event"
    },
    {
      "anonymous": false,
      "inputs": [
        {
          "indexed": true,
          "internalType": "address",
          "name": "sender",
          "type": "address"
        },
        {
          "indexed": false,
          "internalType": "uint256",
          "name": "betPlacedValue",
          "type": "uint256"
        }
      ],
      "name": "userPlacedBet",
      "type": "event"
    },
    {
      "anonymous": false,
      "inputs": [
        {
          "indexed": true,
          "internalType": "address",
          "name": "sender",
          "type": "address"
        },
        {
          "indexed": false,
          "internalType": "uint256",
          "name": "betReduced",
          "type": "uint256"
        }
      ],
      "name": "userReducedBet",
      "type": "event"
    },
    {
      "anonymous": false,
      "inputs": [
        {
          "indexed": true,
          "internalType": "address",
          "name": "sender",
          "type": "address"
        },
        {
          "indexed": false,
          "internalType": "string",
          "name": "betAorB",
          "type": "string"
        }
      ],
      "name": "userWithdrewBet",
      "type": "event"
    },
    {
      "anonymous": false,
      "inputs": [
        {
          "indexed": false,
          "internalType": "uint8",
          "name": "winnerIs",
          "type": "uint8"
        },
        {
          "indexed": false,
          "internalType": "uint256",
          "name": "votingTime",
          "type": "uint256"
        }
      ],
      "name": "winnerDeclaredVoting",
      "type": "event"
    },
    {
      "anonymous": false,
      "inputs": [
        {
          "indexed": false,
          "internalType": "uint8",
          "name": "winnerIs",
          "type": "uint8"
        }
      ],
      "name": "winnerFinalized",
      "type": "event"
    },
    {
      "inputs": [],
      "name": "allBets_Balance",
      "outputs": [
        {
          "components": [
            {
              "internalType": "address",
              "name": "deployer",
              "type": "address"
            },
            {
              "internalType": "uint256",
              "name": "amountDeployerLocked",
              "type": "uint256"
            },
            {
              "internalType": "address",
              "name": "owner",
              "type": "address"
            },
            {
              "internalType": "uint256",
              "name": "amountToBuyFor",
              "type": "uint256"
            },
            {
              "internalType": "uint8",
              "name": "conditionForBuyerToWin",
              "type": "uint8"
            },
            {
              "internalType": "bool",
              "name": "selling",
              "type": "bool"
            },
            {
              "internalType": "uint256",
              "name": "positionInArray",
              "type": "uint256"
            }
          ],
          "internalType": "struct predMarket2.bet[]",
          "name": "",
          "type": "tuple[]"
        },
        {
          "internalType": "uint256",
          "name": "",
          "type": "uint256"
        }
      ],
      "stateMutability": "view",
      "type": "function"
    },
    {
      "inputs": [
        {
          "internalType": "uint256",
          "name": "",
          "type": "uint256"
        }
      ],
      "name": "arrayOfBets",
      "outputs": [
        {
          "internalType": "address",
          "name": "deployer",
          "type": "address"
        },
        {
          "internalType": "uint256",
          "name": "amountDeployerLocked",
          "type": "uint256"
        },
        {
          "internalType": "address",
          "name": "owner",
          "type": "address"
        },
        {
          "internalType": "uint256",
          "name": "amountToBuyFor",
          "type": "uint256"
        },
        {
          "internalType": "uint8",
          "name": "conditionForBuyerToWin",
          "type": "uint8"
        },
        {
          "internalType": "bool",
          "name": "selling",
          "type": "bool"
        },
        {
          "internalType": "uint256",
          "name": "positionInArray",
          "type": "uint256"
        }
      ],
      "stateMutability": "view",
      "type": "function"
    },
    {
      "inputs": [
        {
          "internalType": "address",
          "name": "",
          "type": "address"
        }
      ],
      "name": "betterBalance",
      "outputs": [
        {
          "internalType": "uint256",
          "name": "",
          "type": "uint256"
        }
      ],
      "stateMutability": "view",
      "type": "function"
    },
    {
      "inputs": [
        {
          "internalType": "uint256",
          "name": "positionOfArray",
          "type": "uint256"
        }
      ],
      "name": "buyABet",
      "outputs": [],
      "stateMutability": "payable",
      "type": "function"
    },
    {
      "inputs": [],
      "name": "endTime",
      "outputs": [
        {
          "internalType": "uint256",
          "name": "",
          "type": "uint256"
        }
      ],
      "stateMutability": "view",
      "type": "function"
    },
    {
      "inputs": [],
      "name": "getBalance",
      "outputs": [
        {
          "internalType": "uint256",
          "name": "",
          "type": "uint256"
        }
      ],
      "stateMutability": "view",
      "type": "function"
    },
    {
      "inputs": [],
      "name": "isOwner",
      "outputs": [
        {
          "internalType": "bool",
          "name": "",
          "type": "bool"
        }
      ],
      "stateMutability": "view",
      "type": "function"
    },
    {
      "inputs": [
        {
          "internalType": "uint256",
          "name": "positionOfArray",
          "type": "uint256"
        }
      ],
      "name": "listBet",
      "outputs": [],
      "stateMutability": "nonpayable",
      "type": "function"
    },
    {
      "inputs": [],
      "name": "redeemBets",
      "outputs": [],
      "stateMutability": "nonpayable",
      "type": "function"
    },
    {
      "inputs": [
        {
          "internalType": "uint256",
          "name": "amountToBuy",
          "type": "uint256"
        },
        {
          "internalType": "uint8",
          "name": "conditionToWIn",
          "type": "uint8"
        }
      ],
      "name": "sellANewBet",
      "outputs": [],
      "stateMutability": "payable",
      "type": "function"
    },
    {
      "inputs": [
        {
          "internalType": "uint256",
          "name": "positionOfArray",
          "type": "uint256"
        },
        {
          "internalType": "uint256",
          "name": "newAskingPrice",
          "type": "uint256"
        }
      ],
      "name": "sellAnExistingBet",
      "outputs": [],
      "stateMutability": "nonpayable",
      "type": "function"
    },
    {
      "inputs": [],
      "name": "startTime",
      "outputs": [
        {
          "internalType": "uint256",
          "name": "",
          "type": "uint256"
        }
      ],
      "stateMutability": "view",
      "type": "function"
    },
    {
      "inputs": [
        {
          "internalType": "uint256",
          "name": "positionOfArray",
          "type": "uint256"
        }
      ],
      "name": "unlistABet",
      "outputs": [],
      "stateMutability": "nonpayable",
      "type": "function"
    },
    {
      "inputs": [],
      "name": "view_AllBets_YourBalance_YourBets",
      "outputs": [
        {
          "components": [
            {
              "internalType": "address",
              "name": "deployer",
              "type": "address"
            },
            {
              "internalType": "uint256",
              "name": "amountDeployerLocked",
              "type": "uint256"
            },
            {
              "internalType": "address",
              "name": "owner",
              "type": "address"
            },
            {
              "internalType": "uint256",
              "name": "amountToBuyFor",
              "type": "uint256"
            },
            {
              "internalType": "uint8",
              "name": "conditionForBuyerToWin",
              "type": "uint8"
            },
            {
              "internalType": "bool",
              "name": "selling",
              "type": "bool"
            },
            {
              "internalType": "uint256",
              "name": "positionInArray",
              "type": "uint256"
            }
          ],
          "internalType": "struct predMarket2.bet[]",
          "name": "allBets",
          "type": "tuple[]"
        },
        {
          "internalType": "uint256",
          "name": "myBalance",
          "type": "uint256"
        },
        {
          "components": [
            {
              "internalType": "address",
              "name": "deployer",
              "type": "address"
            },
            {
              "internalType": "uint256",
              "name": "amountDeployerLocked",
              "type": "uint256"
            },
            {
              "internalType": "address",
              "name": "owner",
              "type": "address"
            },
            {
              "internalType": "uint256",
              "name": "amountToBuyFor",
              "type": "uint256"
            },
            {
              "internalType": "uint8",
              "name": "conditionForBuyerToWin",
              "type": "uint8"
            },
            {
              "internalType": "bool",
              "name": "selling",
              "type": "bool"
            },
            {
              "internalType": "uint256",
              "name": "positionInArray",
              "type": "uint256"
            }
          ],
          "internalType": "struct predMarket2.bet[]",
          "name": "deployerBets",
          "type": "tuple[]"
        },
        {
          "components": [
            {
              "internalType": "address",
              "name": "deployer",
              "type": "address"
            },
            {
              "internalType": "uint256",
              "name": "amountDeployerLocked",
              "type": "uint256"
            },
            {
              "internalType": "address",
              "name": "owner",
              "type": "address"
            },
            {
              "internalType": "uint256",
              "name": "amountToBuyFor",
              "type": "uint256"
            },
            {
              "internalType": "uint8",
              "name": "conditionForBuyerToWin",
              "type": "uint8"
            },
            {
              "internalType": "bool",
              "name": "selling",
              "type": "bool"
            },
            {
              "internalType": "uint256",
              "name": "positionInArray",
              "type": "uint256"
            }
          ],
          "internalType": "struct predMarket2.bet[]",
          "name": "betterBets",
          "type": "tuple[]"
        },
        {
          "internalType": "uint256",
          "name": "totalLockedInDeployed",
          "type": "uint256"
        },
        {
          "internalType": "uint256",
          "name": "totalToWin",
          "type": "uint256"
        }
      ],
      "stateMutability": "view",
      "type": "function"
    },
    {
      "inputs": [],
      "name": "voteTime",
      "outputs": [
        {
          "internalType": "uint256",
          "name": "",
          "type": "uint256"
        }
      ],
      "stateMutability": "view",
      "type": "function"
    },
    {
      "inputs": [],
      "name": "winner",
      "outputs": [
        {
          "internalType": "uint8",
          "name": "",
          "type": "uint8"
        }
      ],
      "stateMutability": "view",
      "type": "function"
    },
    {
      "inputs": [],
      "name": "withdraw",
      "outputs": [],
      "stateMutability": "nonpayable",
      "type": "function"
    }
  ],
  "bytecode": "0x60c060405273f39fd6e51aad88f6f4ce6ab8827279cfffb9226673ffffffffffffffffffffffffffffffffffffffff1660a09073ffffffffffffffffffffffffffffffffffffffff16815250604051620023463803806200234683398181016040528101906200007091906200014b565b600160008190555042600281905550806002546200008f9190620001ac565b6001819055503373ffffffffffffffffffffffffffffffffffffffff1660808173ffffffffffffffffffffffffffffffffffffffff16815250507f195c74847a887a9120567c59793a2b7de69ebd684fab50652dba98471128b085600254604051620000fc9190620001f8565b60405180910390a15062000215565b600080fd5b6000819050919050565b620001258162000110565b81146200013157600080fd5b50565b60008151905062000145816200011a565b92915050565b6000602082840312156200016457620001636200010b565b5b6000620001748482850162000134565b91505092915050565b7f4e487b7100000000000000000000000000000000000000000000000000000000600052601160045260246000fd5b6000620001b98262000110565b9150620001c68362000110565b9250828201905080821115620001e157620001e06200017d565b5b92915050565b620001f28162000110565b82525050565b60006020820190506200020f6000830184620001e7565b92915050565b60805160a051612104620002426000396000610f28015260008181610ed301526113ab01526121046000f3fe6080604052600436106100fe5760003560e01c80638f32d59b11610095578063b8cd837411610064578063b8cd837414610310578063bcf93dd614610327578063d5a3a40b14610352578063dfbf53ae1461037b578063ee9891f1146103a6576100fe565b80638f32d59b14610277578063935c5101146102a25780639651b183146102cb578063a6c69ffe146102e7576100fe565b80633ccfd60b116100d15780633ccfd60b146101cc5780636afedac5146101e357806378e979251461020f578063860273221461023a576100fe565b806304a480ed1461010357806312065fe0146101335780633197cbb61461015e5780633658957e14610189575b600080fd5b34801561010f57600080fd5b506101186103c2565b60405161012a96959493929190611c2c565b60405180910390f35b34801561013f57600080fd5b50610148610bb1565b6040516101559190611ca2565b60405180910390f35b34801561016a57600080fd5b50610173610bb9565b6040516101809190611ca2565b60405180910390f35b34801561019557600080fd5b506101b060048036038101906101ab9190611cee565b610bbf565b6040516101c39796959493929190611d48565b60405180910390f35b3480156101d857600080fd5b506101e1610c6b565b005b3480156101ef57600080fd5b506101f8610d03565b604051610206929190611db7565b60405180910390f35b34801561021b57600080fd5b50610224610eb1565b6040516102319190611ca2565b60405180910390f35b34801561024657600080fd5b50610261600480360381019061025c9190611e13565b610eb7565b60405161026e9190611ca2565b60405180910390f35b34801561028357600080fd5b5061028c610ecf565b6040516102999190611e40565b60405180910390f35b3480156102ae57600080fd5b506102c960048036038101906102c49190611cee565b610f8c565b005b6102e560048036038101906102e09190611e87565b6110b9565b005b3480156102f357600080fd5b5061030e60048036038101906103099190611ec7565b611294565b005b34801561031c57600080fd5b506103256113a9565b005b34801561033357600080fd5b5061033c61166b565b6040516103499190611ca2565b60405180910390f35b34801561035e57600080fd5b5061037960048036038101906103749190611cee565b611671565b005b34801561038757600080fd5b5061039061179e565b60405161039d9190611f07565b60405180910390f35b6103c060048036038101906103bb9190611cee565b6117b1565b005b6060600060608060008060008060005b600680549050811015610505573373ffffffffffffffffffffffffffffffffffffffff166006828154811061040a57610409611f22565b5b906000526020600020906006020160000160009054906101000a900473ffffffffffffffffffffffffffffffffffffffff1673ffffffffffffffffffffffffffffffffffffffff160361046a57828061046290611f80565b9350506104f2565b3373ffffffffffffffffffffffffffffffffffffffff166006828154811061049557610494611f22565b5b906000526020600020906006020160020160009054906101000a900473ffffffffffffffffffffffffffffffffffffffff1673ffffffffffffffffffffffffffffffffffffffff16036104f15781806104ed90611f80565b9250505b5b80806104fd90611f80565b9150506103d2565b5060008267ffffffffffffffff81111561052257610521611fc8565b5b60405190808252806020026020018201604052801561055b57816020015b6105486119e1565b8152602001906001900390816105405790505b50905060008267ffffffffffffffff81111561057a57610579611fc8565b5b6040519080825280602002602001820160405280156105b357816020015b6105a06119e1565b8152602001906001900390816105985790505b50905060008060005b6006805490508110156109ef573373ffffffffffffffffffffffffffffffffffffffff16600682815481106105f4576105f3611f22565b5b906000526020600020906006020160000160009054906101000a900473ffffffffffffffffffffffffffffffffffffffff1673ffffffffffffffffffffffffffffffffffffffff16036107d4576006818154811061065557610654611f22565b5b90600052602060002090600602016040518060e00160405290816000820160009054906101000a900473ffffffffffffffffffffffffffffffffffffffff1673ffffffffffffffffffffffffffffffffffffffff1673ffffffffffffffffffffffffffffffffffffffff168152602001600182015481526020016002820160009054906101000a900473ffffffffffffffffffffffffffffffffffffffff1673ffffffffffffffffffffffffffffffffffffffff1673ffffffffffffffffffffffffffffffffffffffff168152602001600382015481526020016004820160009054906101000a900460ff1660ff1660ff1681526020016004820160019054906101000a900460ff1615151515815260200160058201548152505085848151811061078357610782611f22565b5b6020026020010181905250600681815481106107a2576107a1611f22565b5b906000526020600020906006020160010154896107bf9190611ff7565b985082806107cc90611f80565b9350506109dc565b3373ffffffffffffffffffffffffffffffffffffffff16600682815481106107ff576107fe611f22565b5b906000526020600020906006020160020160009054906101000a900473ffffffffffffffffffffffffffffffffffffffff1673ffffffffffffffffffffffffffffffffffffffff16036109db57600681815481106108605761085f611f22565b5b90600052602060002090600602016040518060e00160405290816000820160009054906101000a900473ffffffffffffffffffffffffffffffffffffffff1673ffffffffffffffffffffffffffffffffffffffff1673ffffffffffffffffffffffffffffffffffffffff168152602001600182015481526020016002820160009054906101000a900473ffffffffffffffffffffffffffffffffffffffff1673ffffffffffffffffffffffffffffffffffffffff1673ffffffffffffffffffffffffffffffffffffffff168152602001600382015481526020016004820160009054906101000a900460ff1660ff1660ff1681526020016004820160019054906101000a900460ff1615151515815260200160058201548152505084838151811061098e5761098d611f22565b5b6020026020010181905250600681815481106109ad576109ac611f22565b5b906000526020600020906006020160010154886109ca9190611ff7565b975081806109d790611f80565b9250505b5b80806109e790611f80565b9150506105bc565b506000600560003373ffffffffffffffffffffffffffffffffffffffff1673ffffffffffffffffffffffffffffffffffffffff16815260200190815260200160002054905060068186868c8c85805480602002602001604051908101604052809291908181526020016000905b82821015610b9057838290600052602060002090600602016040518060e00160405290816000820160009054906101000a900473ffffffffffffffffffffffffffffffffffffffff1673ffffffffffffffffffffffffffffffffffffffff1673ffffffffffffffffffffffffffffffffffffffff168152602001600182015481526020016002820160009054906101000a900473ffffffffffffffffffffffffffffffffffffffff1673ffffffffffffffffffffffffffffffffffffffff1673ffffffffffffffffffffffffffffffffffffffff168152602001600382015481526020016004820160009054906101000a900460ff1660ff1660ff1681526020016004820160019054906101000a900460ff1615151515815260200160058201548152505081526020019060010190610a5c565b5050505095509c509c509c509c509c509c5050505050505050909192939495565b600047905090565b60015481565b60068181548110610bcf57600080fd5b90600052602060002090600602016000915090508060000160009054906101000a900473ffffffffffffffffffffffffffffffffffffffff16908060010154908060020160009054906101000a900473ffffffffffffffffffffffffffffffffffffffff16908060030154908060040160009054906101000a900460ff16908060040160019054906101000a900460ff16908060050154905087565b610c73611991565b3373ffffffffffffffffffffffffffffffffffffffff166108fc600560003373ffffffffffffffffffffffffffffffffffffffff1673ffffffffffffffffffffffffffffffffffffffff168152602001908152602001600020549081150290604051600060405180830381858888f19350505050158015610cf8573d6000803e3d6000fd5b50610d016119d7565b565b6060600080600560003373ffffffffffffffffffffffffffffffffffffffff1673ffffffffffffffffffffffffffffffffffffffff16815260200190815260200160002054905060068181805480602002602001604051908101604052809291908181526020016000905b82821015610ea257838290600052602060002090600602016040518060e00160405290816000820160009054906101000a900473ffffffffffffffffffffffffffffffffffffffff1673ffffffffffffffffffffffffffffffffffffffff1673ffffffffffffffffffffffffffffffffffffffff168152602001600182015481526020016002820160009054906101000a900473ffffffffffffffffffffffffffffffffffffffff1673ffffffffffffffffffffffffffffffffffffffff1673ffffffffffffffffffffffffffffffffffffffff168152602001600382015481526020016004820160009054906101000a900460ff1660ff1660ff1681526020016004820160019054906101000a900460ff1615151515815260200160058201548152505081526020019060010190610d6e565b50505050915092509250509091565b60025481565b60056020528060005260406000206000915090505481565b60007f000000000000000000000000000000000000000000000000000000000000000073ffffffffffffffffffffffffffffffffffffffff163373ffffffffffffffffffffffffffffffffffffffff161480610f7657507f000000000000000000000000000000000000000000000000000000000000000073ffffffffffffffffffffffffffffffffffffffff163373ffffffffffffffffffffffffffffffffffffffff16145b15610f845760019050610f89565b600090505b90565b3373ffffffffffffffffffffffffffffffffffffffff1660068281548110610fb757610fb6611f22565b5b906000526020600020906006020160020160009054906101000a900473ffffffffffffffffffffffffffffffffffffffff1673ffffffffffffffffffffffffffffffffffffffff161461100957600080fd5b600015156006828154811061102157611020611f22565b5b906000526020600020906006020160040160019054906101000a900460ff1615151461104c57600080fd5b60016006828154811061106257611061611f22565b5b906000526020600020906006020160040160016101000a81548160ff0219169083151502179055507f20c3f797b9c7476a4beb5a93f1743a0a793b6c4b04e8f035a97bb644668d534a60405160405180910390a150565b60008160ff16101580156110d1575060028160ff1611155b6110da57600080fd5b60006040518060e001604052803373ffffffffffffffffffffffffffffffffffffffff1681526020013481526020013373ffffffffffffffffffffffffffffffffffffffff1681526020018481526020018360ff1681526020016001151581526020016006805490508152509050600681908060018154018082558091505060019003906000526020600020906006020160009091909190915060008201518160000160006101000a81548173ffffffffffffffffffffffffffffffffffffffff021916908373ffffffffffffffffffffffffffffffffffffffff1602179055506020820151816001015560408201518160020160006101000a81548173ffffffffffffffffffffffffffffffffffffffff021916908373ffffffffffffffffffffffffffffffffffffffff1602179055506060820151816003015560808201518160040160006101000a81548160ff021916908360ff16021790555060a08201518160040160016101000a81548160ff02191690831515021790555060c0820151816005015550507f20c3f797b9c7476a4beb5a93f1743a0a793b6c4b04e8f035a97bb644668d534a60405160405180910390a1505050565b3373ffffffffffffffffffffffffffffffffffffffff16600683815481106112bf576112be611f22565b5b906000526020600020906006020160020160009054906101000a900473ffffffffffffffffffffffffffffffffffffffff1673ffffffffffffffffffffffffffffffffffffffff161461131157600080fd5b806006838154811061132657611325611f22565b5b90600052602060002090600602016003018190555060016006838154811061135157611350611f22565b5b906000526020600020906006020160040160016101000a81548160ff0219169083151502179055507f20c3f797b9c7476a4beb5a93f1743a0a793b6c4b04e8f035a97bb644668d534a60405160405180910390a15050565b7f000000000000000000000000000000000000000000000000000000000000000073ffffffffffffffffffffffffffffffffffffffff163373ffffffffffffffffffffffffffffffffffffffff1614611437576040517f08c379a000000000000000000000000000000000000000000000000000000000815260040161142e906120ae565b60405180910390fd5b60005b60068054905081101561163c57600460009054906101000a900460ff1660ff166006828154811061146e5761146d611f22565b5b906000526020600020906006020160040160009054906101000a900460ff1660ff160361156857600681815481106114a9576114a8611f22565b5b90600052602060002090600602016001015460056000600684815481106114d3576114d2611f22565b5b906000526020600020906006020160020160009054906101000a900473ffffffffffffffffffffffffffffffffffffffff1673ffffffffffffffffffffffffffffffffffffffff1673ffffffffffffffffffffffffffffffffffffffff168152602001908152602001600020600082825461154e9190611ff7565b92505081905550808061156090611f80565b915050611637565b6006818154811061157c5761157b611f22565b5b90600052602060002090600602016001015460056000600684815481106115a6576115a5611f22565b5b906000526020600020906006020160000160009054906101000a900473ffffffffffffffffffffffffffffffffffffffff1673ffffffffffffffffffffffffffffffffffffffff1673ffffffffffffffffffffffffffffffffffffffff16815260200190815260200160002060008282546116219190611ff7565b92505081905550808061163390611f80565b9150505b61143a565b7f20c3f797b9c7476a4beb5a93f1743a0a793b6c4b04e8f035a97bb644668d534a60405160405180910390a150565b60035481565b3373ffffffffffffffffffffffffffffffffffffffff166006828154811061169c5761169b611f22565b5b906000526020600020906006020160020160009054906101000a900473ffffffffffffffffffffffffffffffffffffffff1673ffffffffffffffffffffffffffffffffffffffff16146116ee57600080fd5b600115156006828154811061170657611705611f22565b5b906000526020600020906006020160040160019054906101000a900460ff1615151461173157600080fd5b60006006828154811061174757611746611f22565b5b906000526020600020906006020160040160016101000a81548160ff0219169083151502179055507f20c3f797b9c7476a4beb5a93f1743a0a793b6c4b04e8f035a97bb644668d534a60405160405180910390a150565b600460009054906101000a900460ff1681565b600681815481106117c5576117c4611f22565b5b90600052602060002090600602016003015434146117e257600080fd5b60011515600682815481106117fa576117f9611f22565b5b906000526020600020906006020160040160019054906101000a900460ff1615151461182557600080fd5b34600560006006848154811061183e5761183d611f22565b5b906000526020600020906006020160020160009054906101000a900473ffffffffffffffffffffffffffffffffffffffff1673ffffffffffffffffffffffffffffffffffffffff1673ffffffffffffffffffffffffffffffffffffffff16815260200190815260200160002060008282546118b99190611ff7565b9250508190555033600682815481106118d5576118d4611f22565b5b906000526020600020906006020160020160006101000a81548173ffffffffffffffffffffffffffffffffffffffff021916908373ffffffffffffffffffffffffffffffffffffffff16021790555060006006828154811061193a57611939611f22565b5b906000526020600020906006020160040160016101000a81548160ff0219169083151502179055507f20c3f797b9c7476a4beb5a93f1743a0a793b6c4b04e8f035a97bb644668d534a60405160405180910390a150565b6002600054036119cd576040517f3ee5aeb500000000000000000000000000000000000000000000000000000000815260040160405180910390fd5b6002600081905550565b6001600081905550565b6040518060e00160405280600073ffffffffffffffffffffffffffffffffffffffff16815260200160008152602001600073ffffffffffffffffffffffffffffffffffffffff16815260200160008152602001600060ff168152602001600015158152602001600081525090565b600081519050919050565b600082825260208201905092915050565b6000819050602082019050919050565b600073ffffffffffffffffffffffffffffffffffffffff82169050919050565b6000611aa682611a7b565b9050919050565b611ab681611a9b565b82525050565b6000819050919050565b611acf81611abc565b82525050565b600060ff82169050919050565b611aeb81611ad5565b82525050565b60008115159050919050565b611b0681611af1565b82525050565b60e082016000820151611b226000850182611aad565b506020820151611b356020850182611ac6565b506040820151611b486040850182611aad565b506060820151611b5b6060850182611ac6565b506080820151611b6e6080850182611ae2565b5060a0820151611b8160a0850182611afd565b5060c0820151611b9460c0850182611ac6565b50505050565b6000611ba68383611b0c565b60e08301905092915050565b6000602082019050919050565b6000611bca82611a4f565b611bd48185611a5a565b9350611bdf83611a6b565b8060005b83811015611c10578151611bf78882611b9a565b9750611c0283611bb2565b925050600181019050611be3565b5085935050505092915050565b611c2681611abc565b82525050565b600060c0820190508181036000830152611c468189611bbf565b9050611c556020830188611c1d565b8181036040830152611c678187611bbf565b90508181036060830152611c7b8186611bbf565b9050611c8a6080830185611c1d565b611c9760a0830184611c1d565b979650505050505050565b6000602082019050611cb76000830184611c1d565b92915050565b600080fd5b611ccb81611abc565b8114611cd657600080fd5b50565b600081359050611ce881611cc2565b92915050565b600060208284031215611d0457611d03611cbd565b5b6000611d1284828501611cd9565b91505092915050565b611d2481611a9b565b82525050565b611d3381611ad5565b82525050565b611d4281611af1565b82525050565b600060e082019050611d5d600083018a611d1b565b611d6a6020830189611c1d565b611d776040830188611d1b565b611d846060830187611c1d565b611d916080830186611d2a565b611d9e60a0830185611d39565b611dab60c0830184611c1d565b98975050505050505050565b60006040820190508181036000830152611dd18185611bbf565b9050611de06020830184611c1d565b9392505050565b611df081611a9b565b8114611dfb57600080fd5b50565b600081359050611e0d81611de7565b92915050565b600060208284031215611e2957611e28611cbd565b5b6000611e3784828501611dfe565b91505092915050565b6000602082019050611e556000830184611d39565b92915050565b611e6481611ad5565b8114611e6f57600080fd5b50565b600081359050611e8181611e5b565b92915050565b60008060408385031215611e9e57611e9d611cbd565b5b6000611eac85828601611cd9565b9250506020611ebd85828601611e72565b9150509250929050565b60008060408385031215611ede57611edd611cbd565b5b6000611eec85828601611cd9565b9250506020611efd85828601611cd9565b9150509250929050565b6000602082019050611f1c6000830184611d2a565b92915050565b7f4e487b7100000000000000000000000000000000000000000000000000000000600052603260045260246000fd5b7f4e487b7100000000000000000000000000000000000000000000000000000000600052601160045260246000fd5b6000611f8b82611abc565b91507fffffffffffffffffffffffffffffffffffffffffffffffffffffffffffffffff8203611fbd57611fbc611f51565b5b600182019050919050565b7f4e487b7100000000000000000000000000000000000000000000000000000000600052604160045260246000fd5b600061200282611abc565b915061200d83611abc565b925082820190508082111561202557612024611f51565b5b92915050565b600082825260208201905092915050565b7f4f6e6c7920746865206f776e65722063616e2063616c6c20746869732066756e60008201527f6374696f6e2e0000000000000000000000000000000000000000000000000000602082015250565b600061209860268361202b565b91506120a38261203c565b604082019050919050565b600060208201905081810360008301526120c78161208b565b905091905056fea2646970667358221220956c57a7fcdd34ac3a4d8defe9c8c866833cf470d40f129ca61cbb655075cd6364736f6c63430008140033",
  "linkReferences": {},
  "deployedLinkReferences": {}
}