{
  "_format": "hh-sol-artifact-1",
  "contractName": "predMarket2",
  "sourceName": "contracts/LockV2.sol",
  "abi": [
    {
      "inputs": [
        {
          "internalType": "uint256",
          "name": "_endTime",
          "type": "uint256"
        }
      ],
      "stateMutability": "nonpayable",
      "type": "constructor"
    },
    {
      "inputs": [],
      "name": "ReentrancyGuardReentrantCall",
      "type": "error"
    },
    {
      "anonymous": false,
      "inputs": [],
      "name": "BetCancelled",
      "type": "event"
    },
    {
      "anonymous": false,
      "inputs": [],
      "name": "BetEdited",
      "type": "event"
    },
    {
      "anonymous": false,
      "inputs": [],
      "name": "BetUnlisted",
      "type": "event"
    },
    {
      "anonymous": false,
      "inputs": [
        {
          "indexed": true,
          "internalType": "address",
          "name": "beneficiary",
          "type": "address"
        },
        {
          "indexed": false,
          "internalType": "uint256",
          "name": "amount",
          "type": "uint256"
        }
      ],
      "name": "FundsRedistributed",
      "type": "event"
    },
    {
      "anonymous": false,
      "inputs": [],
      "name": "PayoutProcessed",
      "type": "event"
    },
    {
      "anonymous": false,
      "inputs": [
        {
          "indexed": false,
          "internalType": "uint32",
          "name": "position",
          "type": "uint32"
        },
        {
          "indexed": false,
          "internalType": "address",
          "name": "buyer",
          "type": "address"
        },
        {
          "indexed": false,
          "internalType": "uint96",
          "name": "amount",
          "type": "uint96"
        }
      ],
      "name": "userBoughtBet",
      "type": "event"
    },
    {
      "anonymous": false,
      "inputs": [
        {
          "indexed": false,
          "internalType": "uint32",
          "name": "positionInArray",
          "type": "uint32"
        }
      ],
      "name": "userCreatedABet",
      "type": "event"
    },
    {
      "anonymous": false,
      "inputs": [],
      "name": "userReListedBet",
      "type": "event"
    },
    {
      "anonymous": false,
      "inputs": [],
      "name": "userVoted",
      "type": "event"
    },
    {
      "anonymous": false,
      "inputs": [
        {
          "indexed": false,
          "internalType": "address",
          "name": "user",
          "type": "address"
        },
        {
          "indexed": false,
          "internalType": "uint96",
          "name": "amount",
          "type": "uint96"
        }
      ],
      "name": "userWithdrew",
      "type": "event"
    },
    {
      "anonymous": false,
      "inputs": [],
      "name": "winnerDeclaredVoting",
      "type": "event"
    },
    {
      "stateMutability": "payable",
      "type": "fallback"
    },
    {
      "inputs": [],
      "name": "allBets_Balance",
      "outputs": [
        {
          "components": [
            {
              "internalType": "address",
              "name": "deployer",
              "type": "address"
            },
            {
              "internalType": "address",
              "name": "owner",
              "type": "address"
            },
            {
              "internalType": "uint96",
              "name": "amountDeployerLocked",
              "type": "uint96"
            },
            {
              "internalType": "uint96",
              "name": "amountBuyerLocked",
              "type": "uint96"
            },
            {
              "internalType": "uint96",
              "name": "amountToBuyFor",
              "type": "uint96"
            },
            {
              "internalType": "uint8",
              "name": "conditionForBuyerToWin",
              "type": "uint8"
            },
            {
              "internalType": "bool",
              "name": "selling",
              "type": "bool"
            },
            {
              "internalType": "bool",
              "name": "isActive",
              "type": "bool"
            },
            {
              "internalType": "uint32",
              "name": "positionInArray",
              "type": "uint32"
            }
          ],
          "internalType": "struct predMarket2.bet[]",
          "name": "activeBets",
          "type": "tuple[]"
        },
        {
          "internalType": "uint256",
          "name": "endTimeValue",
          "type": "uint256"
        },
        {
          "internalType": "uint8",
          "name": "winnerValue",
          "type": "uint8"
        },
        {
          "internalType": "enum predMarket2.RaffleState",
          "name": "state",
          "type": "uint8"
        },
        {
          "internalType": "uint256",
          "name": "votingEnd",
          "type": "uint256"
        },
        {
          "internalType": "uint96",
          "name": "balance",
          "type": "uint96"
        }
      ],
      "stateMutability": "view",
      "type": "function"
    },
    {
      "inputs": [
        {
          "internalType": "address",
          "name": "",
          "type": "address"
        }
      ],
      "name": "amountMadeFromSoldBets",
      "outputs": [
        {
          "internalType": "uint96",
          "name": "",
          "type": "uint96"
        }
      ],
      "stateMutability": "view",
      "type": "function"
    },
    {
      "inputs": [
        {
          "internalType": "uint256",
          "name": "",
          "type": "uint256"
        }
      ],
      "name": "arrayOfBets",
      "outputs": [
        {
          "internalType": "address",
          "name": "deployer",
          "type": "address"
        },
        {
          "internalType": "address",
          "name": "owner",
          "type": "address"
        },
        {
          "internalType": "uint96",
          "name": "amountDeployerLocked",
          "type": "uint96"
        },
        {
          "internalType": "uint96",
          "name": "amountBuyerLocked",
          "type": "uint96"
        },
        {
          "internalType": "uint96",
          "name": "amountToBuyFor",
          "type": "uint96"
        },
        {
          "internalType": "uint8",
          "name": "conditionForBuyerToWin",
          "type": "uint8"
        },
        {
          "internalType": "bool",
          "name": "selling",
          "type": "bool"
        },
        {
          "internalType": "bool",
          "name": "isActive",
          "type": "bool"
        },
        {
          "internalType": "uint32",
          "name": "positionInArray",
          "type": "uint32"
        }
      ],
      "stateMutability": "view",
      "type": "function"
    },
    {
      "inputs": [
        {
          "internalType": "address",
          "name": "",
          "type": "address"
        },
        {
          "internalType": "uint256",
          "name": "",
          "type": "uint256"
        }
      ],
      "name": "betsByUser",
      "outputs": [
        {
          "internalType": "uint32",
          "name": "",
          "type": "uint32"
        }
      ],
      "stateMutability": "view",
      "type": "function"
    },
    {
      "inputs": [
        {
          "internalType": "uint32",
          "name": "positionOfArray",
          "type": "uint32"
        }
      ],
      "name": "buyABet",
      "outputs": [],
      "stateMutability": "payable",
      "type": "function"
    },
    {
      "inputs": [
        {
          "internalType": "uint32",
          "name": "positionOfArray",
          "type": "uint32"
        }
      ],
      "name": "cancelOwnedBet",
      "outputs": [],
      "stateMutability": "nonpayable",
      "type": "function"
    },
    {
      "inputs": [
        {
          "internalType": "uint8",
          "name": "state",
          "type": "uint8"
        }
      ],
      "name": "changeState",
      "outputs": [],
      "stateMutability": "nonpayable",
      "type": "function"
    },
    {
      "inputs": [],
      "name": "creatorLocked",
      "outputs": [
        {
          "internalType": "uint96",
          "name": "",
          "type": "uint96"
        }
      ],
      "stateMutability": "view",
      "type": "function"
    },
    {
      "inputs": [
        {
          "internalType": "uint8",
          "name": "_winner",
          "type": "uint8"
        }
      ],
      "name": "declareWinner",
      "outputs": [],
      "stateMutability": "nonpayable",
      "type": "function"
    },
    {
      "inputs": [],
      "name": "disagreeWithOwner",
      "outputs": [],
      "stateMutability": "nonpayable",
      "type": "function"
    },
    {
      "inputs": [
        {
          "internalType": "uint32",
          "name": "positionOfArray",
          "type": "uint32"
        },
        {
          "internalType": "uint96",
          "name": "newDeployPrice",
          "type": "uint96"
        },
        {
          "internalType": "uint96",
          "name": "newAskingPrice",
          "type": "uint96"
        }
      ],
      "name": "editADeployedBet",
      "outputs": [],
      "stateMutability": "payable",
      "type": "function"
    },
    {
      "inputs": [],
      "name": "endOfVoting",
      "outputs": [
        {
          "internalType": "uint256",
          "name": "",
          "type": "uint256"
        }
      ],
      "stateMutability": "view",
      "type": "function"
    },
    {
      "inputs": [],
      "name": "owner",
      "outputs": [
        {
          "internalType": "address",
          "name": "",
          "type": "address"
        }
      ],
      "stateMutability": "view",
      "type": "function"
    },
    {
      "inputs": [],
      "name": "s_raffleState",
      "outputs": [
        {
          "internalType": "enum predMarket2.RaffleState",
          "name": "",
          "type": "uint8"
        }
      ],
      "stateMutability": "view",
      "type": "function"
    },
    {
      "inputs": [
        {
          "internalType": "uint96",
          "name": "amountToBuy",
          "type": "uint96"
        },
        {
          "internalType": "uint8",
          "name": "conditionToWIn",
          "type": "uint8"
        }
      ],
      "name": "sellANewBet",
      "outputs": [],
      "stateMutability": "payable",
      "type": "function"
    },
    {
      "inputs": [
        {
          "internalType": "uint32",
          "name": "positionOfArray",
          "type": "uint32"
        },
        {
          "internalType": "uint96",
          "name": "newAskingPrice",
          "type": "uint96"
        }
      ],
      "name": "sellAnExistingBet",
      "outputs": [],
      "stateMutability": "nonpayable",
      "type": "function"
    },
    {
      "inputs": [
        {
          "internalType": "uint32",
          "name": "",
          "type": "uint32"
        },
        {
          "internalType": "uint256",
          "name": "",
          "type": "uint256"
        }
      ],
      "name": "soldBetHistory",
      "outputs": [
        {
          "internalType": "address",
          "name": "buyer",
          "type": "address"
        },
        {
          "internalType": "address",
          "name": "previousOwner",
          "type": "address"
        },
        {
          "internalType": "uint96",
          "name": "amountPaid",
          "type": "uint96"
        }
      ],
      "stateMutability": "view",
      "type": "function"
    },
    {
      "inputs": [],
      "name": "staffPay",
      "outputs": [
        {
          "internalType": "uint96",
          "name": "",
          "type": "uint96"
        }
      ],
      "stateMutability": "view",
      "type": "function"
    },
    {
      "inputs": [
        {
          "internalType": "address",
          "name": "",
          "type": "address"
        }
      ],
      "name": "staffWalletMap",
      "outputs": [
        {
          "internalType": "bool",
          "name": "",
          "type": "bool"
        }
      ],
      "stateMutability": "view",
      "type": "function"
    },
    {
      "inputs": [],
      "name": "transferOwnerAmount",
      "outputs": [],
      "stateMutability": "nonpayable",
      "type": "function"
    },
    {
      "inputs": [],
      "name": "transferStaffAmount",
      "outputs": [],
      "stateMutability": "nonpayable",
      "type": "function"
    },
    {
      "inputs": [
        {
          "internalType": "uint32[]",
          "name": "positionsOfArray",
          "type": "uint32[]"
        }
      ],
      "name": "unlistBets",
      "outputs": [],
      "stateMutability": "nonpayable",
      "type": "function"
    },
    {
      "inputs": [],
      "name": "winner",
      "outputs": [
        {
          "internalType": "uint8",
          "name": "",
          "type": "uint8"
        }
      ],
      "stateMutability": "view",
      "type": "function"
    },
    {
      "inputs": [],
      "name": "withdraw",
      "outputs": [],
      "stateMutability": "nonpayable",
      "type": "function"
    },
    {
      "stateMutability": "payable",
      "type": "receive"
    }
  ],
  "bytecode": "0x60a06040523480156200001157600080fd5b50604051620033ee380380620033ee833981016040819052620000349162000131565b6001600055336200008c5760405162461bcd60e51b815260206004820152601560248201527f496e76616c6964206f776e65722061646472657373000000000000000000000060448201526064015b60405180910390fd5b428111620000d05760405162461bcd60e51b815260206004820152601060248201526f496e76616c696420656e642074696d6560801b604482015260640162000083565b73f39fd6e51aad88f6f4ce6ab8827279cfffb9226660005260026020527fbc40fbf4394cd00f78fae9763b0c2c71b21ea442c42fdadc5b720537240ebac1805460ff19166001179055336080526005556006805461ff00191690556200014b565b6000602082840312156200014457600080fd5b5051919050565b608051613279620001756000396000818161040e01528181611c840152611de801526132796000f3fe60806040526004361061014f5760003560e01c80637c54bafe116100b6578063a69fabbe1161006f578063a69fabbe14610491578063b4a36fd7146104b1578063cc45483f146104c6578063dad2245e146104f2578063dfbf53ae14610512578063e694b1f91461053e57600080fd5b80637c54bafe146103545780637e88733214610389578063865f80c4146103ad5780638da5cb5b146103fc5780639e1bffe9146104485780639f4e2b951461047e57600080fd5b80633ccfd60b116101085780633ccfd60b146102b65780634e33024a146102cb5780635d926148146102de578063607c9cea146102f35780636afedac5146103185780637672ef7b1461033f57600080fd5b806308abb88f1461015b57806316ad4d37146101705780631798b2ae146101b5578063268f1153146101d557806330dda1c2146101f55780633658957e1461022d57600080fd5b3661015657005b600080fd5b61016e610169366004612da6565b61055e565b005b34801561017c57600080fd5b506101a061018b366004612df0565b60026020526000908152604090205460ff1681565b60405190151581526020015b60405180910390f35b3480156101c157600080fd5b5061016e6101d0366004612e12565b6109a1565b3480156101e157600080fd5b5061016e6101f0366004612e12565b610b5e565b34801561020157600080fd5b50600454610215906001600160601b031681565b6040516001600160601b0390911681526020016101ac565b34801561023957600080fd5b5061024d610248366004612e2d565b610c12565b604080516001600160a01b039a8b1681529990981660208a01526001600160601b0396871697890197909752938516606088015293909116608086015260ff1660a085015290151560c0840152151560e083015263ffffffff16610100820152610120016101ac565b3480156102c257600080fd5b5061016e610ca0565b61016e6102d9366004612e5a565b6110fb565b3480156102ea57600080fd5b5061016e6113dc565b3480156102ff57600080fd5b506001546102159061010090046001600160601b031681565b34801561032457600080fd5b5061032d611529565b6040516101ac96959493929190612ead565b34801561034b57600080fd5b5061016e6115d0565b34801561036057600080fd5b5061037461036f366004612fb2565b6116b3565b60405163ffffffff90911681526020016101ac565b34801561039557600080fd5b5061039f60035481565b6040519081526020016101ac565b3480156103b957600080fd5b506103cd6103c8366004612fdc565b6116fc565b604080516001600160a01b0394851681529390921660208401526001600160601b0316908201526060016101ac565b34801561040857600080fd5b506104307f000000000000000000000000000000000000000000000000000000000000000081565b6040516001600160a01b0390911681526020016101ac565b34801561045457600080fd5b50610215610463366004612df0565b6008602052600090815260409020546001600160601b031681565b61016e61048c366004612ff8565b611755565b34801561049d57600080fd5b5061016e6104ac366004612e5a565b611aad565b3480156104bd57600080fd5b5061016e611c79565b3480156104d257600080fd5b506006546104e590610100900460ff1681565b6040516101ac919061303b565b3480156104fe57600080fd5b5061016e61050d36600461304f565b611e82565b34801561051e57600080fd5b5060065461052c9060ff1681565b60405160ff90911681526020016101ac565b34801561054a57600080fd5b5061016e61055936600461308f565b611fda565b610566612293565b60015460ff16156105925760405162461bcd60e51b815260040161058990613154565b60405180910390fd5b6001805460ff19168117905560ff8116158015906105b4575060028160ff1611155b80156105db57506000600654610100900460ff1660038111156105d9576105d9612e75565b145b80156105ea5750600c5461012c115b80156105ff57506000826001600160601b0316115b801561061a5750336000908152600760205260409020546032115b61062357600080fd5b6001600160601b0334111561066d5760405162461bcd60e51b815260206004820152601060248201526f416d6f756e7420746f6f206c6172676560801b6044820152606401610589565b6001600160601b0382811611156106bd5760405162461bcd60e51b815260206004820152601460248201527342757920616d6f756e7420746f6f206c6172676560601b6044820152606401610589565b6000600c80549050905060076000336001600160a01b03166001600160a01b031681526020019081526020016000208190806001815401808255809150506001900390600052602060002090600891828204019190066004029091909190916101000a81548163ffffffff021916908363ffffffff160217905550600c604051806101200160405280336001600160a01b03168152602001336001600160a01b03168152602001346001600160601b0316815260200160006001600160601b03168152602001856001600160601b031681526020018460ff1681526020016001151581526020016001151581526020018363ffffffff16815250908060018154018082558091505060019003906000526020600020906003020160009091909190915060008201518160000160006101000a8154816001600160a01b0302191690836001600160a01b0316021790555060208201518160010160006101000a8154816001600160a01b0302191690836001600160a01b0316021790555060408201518160010160146101000a8154816001600160601b0302191690836001600160601b0316021790555060608201518160020160006101000a8154816001600160601b0302191690836001600160601b03160217905550608082015181600201600c6101000a8154816001600160601b0302191690836001600160601b0316021790555060a08201518160020160186101000a81548160ff021916908360ff16021790555060c08201518160020160196101000a81548160ff02191690831515021790555060e082015181600201601a6101000a81548160ff02191690831515021790555061010082015181600201601b6101000a81548163ffffffff021916908363ffffffff16021790555050507f0b4b5e3131d1a6216d8e3e183f564765b644accafead7bd164772dfca51172d781604051610987919063ffffffff91909116815260200190565b60405180910390a1506001805460ff191681556000555050565b3360009081526002602052604090205460ff166109d05760405162461bcd60e51b81526004016105899061317d565b6109d8612293565b60008160ff161180156109ee575060048160ff16105b6109f757600080fd5b8060ff16600303610a4757610a0a6122c4565b6006805461ffff19166103031790556040517fbbfddbd2a33e1c8d143e1f8b564451965d01678a70438b79b4900cd033c12a2790600090a1610b51565b6000600654610100900460ff166003811115610a6557610a65612e75565b03610ab6574261012c016003556006805460ff831661ffff19909116176101001790556040517fbbfddbd2a33e1c8d143e1f8b564451965d01678a70438b79b4900cd033c12a2790600090a1610b51565b6001600654610100900460ff166003811115610ad457610ad4612e75565b148015610ae2575060035442115b80610b0857506002600654610100900460ff166003811115610b0657610b06612e75565b145b610b1157600080fd5b6006805461030061ffff1990911660ff8416171790556040517fbbfddbd2a33e1c8d143e1f8b564451965d01678a70438b79b4900cd033c12a2790600090a15b610b5b6001600055565b50565b3360009081526002602052604090205460ff16610b8d5760405162461bcd60e51b81526004016105899061317d565b600360ff82161115610bd75760405162461bcd60e51b8152602060048201526013602482015272496e76616c69642073746174652076616c756560681b6044820152606401610589565b8060ff166003811115610bec57610bec612e75565b6006805461ff001916610100836003811115610c0a57610c0a612e75565b021790555050565b600c8181548110610c2257600080fd5b60009182526020909120600390910201805460018201546002909201546001600160a01b039182169350908216916001600160601b03600160a01b90910481169180821691600160601b8204169060ff600160c01b8204811691600160c81b8104821691600160d01b8204169063ffffffff600160d81b9091041689565b610ca8612293565b60015460ff1615610ccb5760405162461bcd60e51b815260040161058990613154565b6001805460ff1916811790556003600654610100900460ff166003811115610cf557610cf5612e75565b1480610d2857506001600654610100900460ff166003811115610d1a57610d1a612e75565b148015610d28575060035442115b610d3157600080fd5b3360009081526007602052604090208054610d4b57600080fd5b6006548154600091829160ff90911660031490825b8163ffffffff168163ffffffff161015610e7c576000600c878363ffffffff1681548110610d9057610d906131b4565b90600052602060002090600891828204019190066004029054906101000a900463ffffffff1663ffffffff1681548110610dcc57610dcc6131b4565b906000526020600020906003020190508315610e5c576001810154336001600160a01b0390911603610e1b576002810180546001600160601b031981169091556001600160601b031695909501945b8054336001600160a01b0390911603610e57576001810180546001600160a01b038116909155600160a01b90046001600160601b031695909501945b610e73565b600080610e68836125cd565b980197969096019550505b50600101610d60565b5081610f675760006127106001600160601b036101f4860216049050806001600160601b0316856001600160601b03161015610efa5760405162461bcd60e51b815260206004820152601d60248201527f496e73756666696369656e742062616c616e636520666f7220666565730000006044820152606401610589565b600180546101008082046001600160601b0390811660056003870283168190049190910182169092026cffffffffffffffffffffffff001990931692909217909255600480546001600160601b031981166002860284169490940490831601909116919091179055909303925b336000908152600860205260409020546001600160601b031615801590610f8c575081155b15610fbf5733600090815260086020526040902080546001600160601b031981169091556001600160601b031693909301925b6000846001600160601b0316118015610fe15750836001600160601b03164710155b61102d5760405162461bcd60e51b815260206004820181905260248201527f4e6f7420656e6f7567682053686d65636b6c657320696e20436f6e74726163746044820152606401610589565b60405160009033906001600160601b038716908381818185875af1925050503d8060008114611078576040519150601f19603f3d011682016040523d82523d6000602084013e61107d565b606091505b505090508061109e5760405162461bcd60e51b8152600401610589906131ca565b604080513381526001600160601b03871660208201527f7c56f75f0792323f7b3e088b27db18b54add5b49e6a66c8471fa0ad872ba45ec910160405180910390a150506001805460ff19169055506110f992506122bd915050565b565b611103612293565b60015460ff16156111265760405162461bcd60e51b815260040161058990613154565b6001805460ff1916811790556000600654610100900460ff16600381111561115057611150612e75565b1461115a57600080fd5b6000600c8263ffffffff1681548110611175576111756131b4565b9060005260206000209060030201905080600201601a9054906101000a900460ff1680156111ba57506002810154346001600160601b03908116600160601b90920416145b80156111cd57506001600160601b033411155b80156111e457506002810154600160c81b900460ff165b80156111fd575060018101546001600160a01b03163314155b80156112105750600c5463ffffffff8316105b61121957600080fd5b600181015460028201546001600160a01b03909116906001600160601b0316600003611261576002820180546001600160601b031916346001600160601b0316179055611315565b6001600160a01b03808216600081815260086020908152604080832080546001600160601b038082163490810182166001600160601b03199093169290921790925563ffffffff8a16855260098452828520835160608101855233815280860197885291831693820193845280546001818101835591875294909520905160029094020180549387166001600160a01b031990941693909317835593519051909316600160a01b0292909316919091179101555b336000818152600760208181526040808420805460018082018355918652948390206008860401805463ffffffff8b8116600498909716979097026101000a868102970219169590951790945592860180546001600160a01b0319168517905560028601805460ff60c81b191690558251918252810192909252346001600160601b0316908201527fec6e7aa0c7c1fc30924d4ee935d53e6ea3d6eae81deea67a8f25021b0c8d15f19060600160405180910390a150506001805460ff1916815560005550565b3360009081526002602052604090205460ff1661140b5760405162461bcd60e51b81526004016105899061317d565b611413612293565b6001600654610100900460ff16600381111561143157611431612e75565b14801561143f575060035442115b8061146557506003600654610100900460ff16600381111561146357611463612e75565b145b61146e57600080fd5b60015461010090046001600160601b031661148857600080fd5b600180546cffffffffffffffffffffffff001981169091556040516101009091046001600160601b0316906000903390839060006040518083038185875af1925050503d80600081146114f7576040519150601f19603f3d011682016040523d82523d6000602084013e6114fc565b606091505b505090508061151d5760405162461bcd60e51b8152600401610589906131ca565b50506110f96001600055565b33600090815260076020526040812080546060929182918291829182919082806115538484612746565b600654919350915060ff1660031461159c57600060646001600160601b036005840216336000908152600860205260409020546001600160601b03169190049093039290920191505b6115a461288c565b600554600654600354929d919c5060ff8082169c50610100909104169950909750919550909350505050565b6115d8612293565b60015460ff16156115fb5760405162461bcd60e51b815260040161058990613154565b6001805460ff191681178155600654610100900460ff16600381111561162357611623612e75565b148015611631575060035442105b8061166357506000600654610100900460ff16600381111561165557611655612e75565b148015611663575060055442115b61166c57600080fd5b6006805461ff0019166102001790556040517f325941a5b65623f14f777a10c4ee68b69cec6214a44a48c1bb1c4991314755c090600090a16001805460ff19168155600055565b600760205281600052604060002081815481106116cf57600080fd5b9060005260206000209060089182820401919006600402915091509054906101000a900463ffffffff1681565b6009602052816000526040600020818154811061171857600080fd5b6000918252602090912060029091020180546001909101546001600160a01b0391821693509081169150600160a01b90046001600160601b031683565b61175d612293565b60015460ff16156117805760405162461bcd60e51b815260040161058990613154565b6001805460ff191681179055600c5463ffffffff8416106117d65760405162461bcd60e51b815260206004820152601060248201526f24b73b30b634b2103837b9b4ba34b7b760811b6044820152606401610589565b6000600c8463ffffffff16815481106117f1576117f16131b4565b600091825260209091206001600390920201908101549091506001600160a01b03163314801561182a575080546001600160a01b031633145b8015611834575060015b801561183e575060015b801561185557506002810154600160d01b900460ff165b801561187c57506000600654610100900460ff16600381111561187a5761187a612e75565b145b6118c85760405162461bcd60e51b815260206004820152601e60248201527f4e6f7420617574686f72697a6564206f722062657420696e61637469766500006044820152606401610589565b60018101546001600160601b03600160a01b90910481169084168114611a3557806001600160601b0316846001600160601b031610156119bf576001820180546001600160601b03868116600160a01b026001600160a01b03909216919091179091556040518583039160009133918416908381818185875af1925050503d8060008114611972576040519150601f19603f3d011682016040523d82523d6000602084013e611977565b606091505b50509050806119b85760405162461bcd60e51b815260206004820152600d60248201526c1499599d5b990819985a5b1959609a1b6044820152606401610589565b5050611a35565b808403346001600160601b03821614611a115760405162461bcd60e51b8152602060048201526014602482015273125b98dbdc9c9958dd081d985b1d59481cd95b9d60621b6044820152606401610589565b506001820180546001600160a01b0316600160a01b6001600160601b038716021790555b60028201805460ff60c81b196001600160601b038616600160601b0216600160601b61ff0160c01b031990911617600160c81b1790556040517ff75e56f787976a19558bde97657a643e88c61a76b39e41f3a06a120defa30d6190600090a150506001805460ff19168155600055505050565b505050565b611ab5612293565b600c5463ffffffff821610611ac957600080fd5b6000600c8263ffffffff1681548110611ae457611ae46131b4565b600091825260209091206001600390920201908101549091506001600160a01b031633148015611b1d575080546001600160a01b031633145b8015611b3457506002810154600160d01b900460ff165b611b805760405162461bcd60e51b815260206004820152601e60248201527f4e6f7420617574686f72697a6564206f722062657420696e61637469766500006044820152606401610589565b60018101805460028301805484546001600160a01b03191685556000938490557aff0000000000000000000000000000ffffffffffffffffffffffff1981169091556040516001600160601b03918216600160a01b909304821692909201929133918416908381818185875af1925050503d8060008114611c1d576040519150601f19603f3d011682016040523d82523d6000602084013e611c22565b606091505b5050905080611c435760405162461bcd60e51b8152600401610589906131ca565b6040517fa9c660d43fdb14d4f7f7226623a556967689f58ee0e7c1a3397257bb909454c990600090a1505050610b5b6001600055565b336001600160a01b037f0000000000000000000000000000000000000000000000000000000000000000161480611cbf57503360009081526002602052604090205460ff165b611d1d5760405162461bcd60e51b815260206004820152602960248201527f43616c6c6572206973206e6f7420746865206f776e6572206f7220612073746160448201526833331036b2b6b132b960b91b6064820152608401610589565b611d25612293565b60015460ff1615611d485760405162461bcd60e51b815260040161058990613154565b6001805460ff191681178155600654610100900460ff166003811115611d7057611d70612e75565b148015611d7e575060035442115b80611da457506003600654610100900460ff166003811115611da257611da2612e75565b145b611dad57600080fd5b6004546001600160601b0316611dc257600080fd5b600480546001600160601b031981169091556040516001600160601b03909116906000907f00000000000000000000000000000000000000000000000000000000000000006001600160a01b03169083908381818185875af1925050503d8060008114611e4b576040519150601f19603f3d011682016040523d82523d6000602084013e611e50565b606091505b5050905080611e715760405162461bcd60e51b8152600401610589906131ca565b50506001805460ff19168155600055565b611e8a612293565b60015460ff1615611ead5760405162461bcd60e51b815260040161058990613154565b6001805460ff1916811790556000600654610100900460ff166003811115611ed757611ed7612e75565b14611ee157600080fd5b600c5463ffffffff831610611ef557600080fd5b6000600c8363ffffffff1681548110611f1057611f106131b4565b600091825260209091206001600390920201908101549091506001600160a01b031633148015611f4b57506002810154600160d01b900460ff165b8015611f6057506000826001600160601b0316115b611f6957600080fd5b60028101805460ff60c81b196001600160601b038516600160601b0216600160601b61ff0160c01b031990911617600160c81b1790556040517f50c7c110b9cabc516cf0aef475d15558b239d0490f0389129f4e6b4c378dfa3d90600090a1506001805460ff191681556000555050565b611fe2612293565b60015460ff16156120055760405162461bcd60e51b815260040161058990613154565b6001805460ff1916811790553360009081526007602052604090205461202c906005613209565b8151111561203957600080fd5b60005b81518163ffffffff161015612259576000828263ffffffff1681518110612065576120656131b4565b60200260200101519050336001600160a01b0316600c8263ffffffff1681548110612092576120926131b4565b60009182526020909120600160039092020101546001600160a01b0316146120fc5760405162461bcd60e51b815260206004820152601760248201527f43616c6c6572206973206e6f7420746865206f776e65720000000000000000006044820152606401610589565b600c8163ffffffff1681548110612115576121156131b4565b906000526020600020906003020160020160199054906101000a900460ff161515600115151461217d5760405162461bcd60e51b8152602060048201526013602482015272426574206973206e6f7420666f722073616c6560681b6044820152606401610589565b600c8163ffffffff1681548110612196576121966131b4565b9060005260206000209060030201600201601a9054906101000a900460ff166121be57600080fd5b600c5463ffffffff8216106122085760405162461bcd60e51b815260206004820152601060248201526f24b73b30b634b2102837b9b4ba34b7b760811b6044820152606401610589565b6000600c8263ffffffff1681548110612223576122236131b4565b600091825260209091206002600390920201018054911515600160c81b0260ff60c81b199092169190911790555060010161203c565b506040517f1e5a109a2c5190a6567f1b2386d95213f70c40047a7d1f2fb64e5974c9a0043a90600090a16001805460ff1916815560005550565b6002600054036122b657604051633ee5aeb560e01b815260040160405180910390fd5b6002600055565b6001600055565b6122d0600b6000612cf6565b600c5460005b8163ffffffff168163ffffffff1610156124b25763ffffffff81166000908152600960205260409020805480156124a85760005b81811015612420576000838281548110612326576123266131b4565b600091825260209091206002909102015484546001600160a01b039091169150849083908110612358576123586131b4565b60009182526020808320600292909202909101600101546001600160a01b0384168352600a909152604090912080546001600160601b03198116600160a01b9093046001600160601b0390811691811691909101169182179055158015906123c657506123c481612ace565b155b1561241757600b80546001810182556000919091527f0175b7a638427703f0dbe7bb9bbf987a2551717b34e79f33b5b1008d1fa01db90180546001600160a01b0319166001600160a01b0383161790555b5060010161230a565b5081600081548110612434576124346131b4565b906000526020600020906002020160010160009054906101000a90046001600160a01b0316600c8463ffffffff1681548110612472576124726131b4565b906000526020600020906003020160010160006101000a8154816001600160a01b0302191690836001600160a01b031602179055505b50506001016122d6565b50600b5460005b81811015611aa8576000600b82815481106124d6576124d66131b4565b60009182526020808320909101546001600160a01b0316808352600a9091526040909120549091506001600160601b031680156125c3576001600160a01b0382166000818152600a602052604080822080546001600160601b0319169055519091906001600160601b038416908381818185875af1925050503d806000811461257b576040519150601f19603f3d011682016040523d82523d6000602084013e612580565b606091505b50509050806125c15760405162461bcd60e51b815260206004820152600d60248201526c1499599d5b990819985a5b1959609a1b6044820152606401610589565b505b50506001016124b9565b805460009081906001600160a01b0316331480156125f7575060018301546001600160a01b031633145b1561264d5760028301546001840154612623916001600160601b0390811691600160a01b90041661321c565b6001840180546001600160a01b031690556002840180546001600160601b03191690559150915091565b60018301546001600160a01b03163314801561267c57506006546002840154600160c01b900460ff9081169116145b806126af575082546001600160a01b0316331480156126af57506006546002840154600160c01b900460ff908116911614155b1561274157600183015460028401546126db916001600160601b03600160a01b9091048116911661321c565b60018401549092506001600160a01b031633146127055760028301546001600160601b031661271b565b6001830154600160a01b90046001600160601b03165b6002840180546001600160601b03191690556001840180546001600160a01b0316905590505b915091565b60008060008367ffffffffffffffff81111561276457612764613079565b60405190808252806020026020018201604052801561278d578160200160208202803683370190505b5090506000805b858110156128825760008782815481106127b0576127b06131b4565b60009182526020822060088204015460079091166004026101000a900463ffffffff169150805b8481101561281057828682815181106127f2576127f26131b4565b6020026020010151036128085760019150612810565b6001016127d7565b50806128785781858581518110612829576128296131b4565b6020026020010181815250508360010193506000600c8381548110612850576128506131b4565b9060005260206000209060030201905060008061286c83612b31565b9a019998909801975050505b5050600101612794565b5050509250929050565b600c546060906000808267ffffffffffffffff8111156128ae576128ae613079565b6040519080825280602002602001820160405280156128e757816020015b6128d4612d14565b8152602001906001900390816128cc5790505b50905060005b83811015612a2357600c8181548110612908576129086131b4565b9060005260206000209060030201600201601a9054906101000a900460ff1615612a1b57600c818154811061293f5761293f6131b4565b60009182526020918290206040805161012081018252600390930290910180546001600160a01b0390811684526001820154908116948401949094526001600160601b03600160a01b909404841691830191909152600201548083166060830152600160601b8104909216608082015260ff600160c01b8304811660a0830152600160c81b83048116151560c0830152600160d01b830416151560e082015263ffffffff600160d81b909204919091166101008201528251839085908110612a0957612a096131b4565b60200260200101819052508260010192505b6001016128ed565b5060008267ffffffffffffffff811115612a3f57612a3f613079565b604051908082528060200260200182016040528015612a7857816020015b612a65612d14565b815260200190600190039081612a5d5790505b50905060005b83811015612ac557828181518110612a9857612a986131b4565b6020026020010151828281518110612ab257612ab26131b4565b6020908102919091010152600101612a7e565b50949350505050565b600b54600090815b81811015612b2757836001600160a01b0316600b8281548110612afb57612afb6131b4565b6000918252602090912001546001600160a01b031603612b1f575060019392505050565b600101612ad6565b5060009392505050565b600654600090819060ff168103612b4d57506000928392509050565b60065460ff16600303612bbe576001830154336001600160a01b0390911603612b815760028301546001600160601b031691505b8254336001600160a01b0390911603612bb6576001830154612bb390600160a01b90046001600160601b03168361321c565b91505b509160009150565b82546001600160a01b031633148015612be3575060018301546001600160a01b031633145b15612c195760028301546001840154612c0f916001600160601b0390811691600160a01b90041661321c565b9360009350915050565b60018301546000906001600160a01b031633148015612c4b57506006546002850154600160c01b900460ff9081169116145b80612c7e575083546001600160a01b031633148015612c7e57506006546002850154600160c01b900460ff908116911614155b90508015612cf05760018401546002850154612cad916001600160601b03600160a01b9091048116911661321c565b60018501549093506001600160a01b03163314612cd75760028401546001600160601b0316612ced565b6001840154600160a01b90046001600160601b03165b91505b50915091565b5080546000825590600052602060002090810190610b5b9190612d60565b6040805161012081018252600080825260208201819052918101829052606081018290526080810182905260a0810182905260c0810182905260e0810182905261010081019190915290565b5b80821115612d755760008155600101612d61565b5090565b80356001600160601b0381168114612d9057600080fd5b919050565b803560ff81168114612d9057600080fd5b60008060408385031215612db957600080fd5b612dc283612d79565b9150612dd060208401612d95565b90509250929050565b80356001600160a01b0381168114612d9057600080fd5b600060208284031215612e0257600080fd5b612e0b82612dd9565b9392505050565b600060208284031215612e2457600080fd5b612e0b82612d95565b600060208284031215612e3f57600080fd5b5035919050565b803563ffffffff81168114612d9057600080fd5b600060208284031215612e6c57600080fd5b612e0b82612e46565b634e487b7160e01b600052602160045260246000fd5b60048110612ea957634e487b7160e01b600052602160045260246000fd5b9052565b60c080825287518282018190526000919060e090818501906020808d01865b83811015612f6457815180516001600160a01b0390811687528482015116848701526040808201516001600160601b03908116918801919091526060808301518216908801526080808301519091169087015260a08082015160ff169087015287810151151588870152868101511515878701526101009081015163ffffffff16908601526101209094019390820190600101612ecc565b505086018b90525060ff891660408601529250612f7f915050565b612f8c6060830186612e8b565b836080830152612fa760a08301846001600160601b03169052565b979650505050505050565b60008060408385031215612fc557600080fd5b612fce83612dd9565b946020939093013593505050565b60008060408385031215612fef57600080fd5b612fce83612e46565b60008060006060848603121561300d57600080fd5b61301684612e46565b925061302460208501612d79565b915061303260408501612d79565b90509250925092565b602081016130498284612e8b565b92915050565b6000806040838503121561306257600080fd5b61306b83612e46565b9150612dd060208401612d79565b634e487b7160e01b600052604160045260246000fd5b600060208083850312156130a257600080fd5b823567ffffffffffffffff808211156130ba57600080fd5b818501915085601f8301126130ce57600080fd5b8135818111156130e0576130e0613079565b8060051b604051601f19603f8301168101818110858211171561310557613105613079565b60405291825284820192508381018501918883111561312357600080fd5b938501935b828510156131485761313985612e46565b84529385019392850192613128565b98975050505050505050565b6020808252600f908201526e4e6f206e65737465642063616c6c7360881b604082015260600190565b6020808252601c908201527f43616c6c6572206973206e6f742061207374616666206d656d62657200000000604082015260600190565b634e487b7160e01b600052603260045260246000fd5b6020808252600f908201526e151c985b9cd9995c8819985a5b1959608a1b604082015260600190565b634e487b7160e01b600052601160045260246000fd5b80820180821115613049576130496131f3565b6001600160601b0381811683821601908082111561323c5761323c6131f3565b509291505056fea2646970667358221220cb14a39233b0a740e4fd2e2bbb6897aca52d3e06e0bc4958070e47377f1f388c64736f6c63430008140033",
  "linkReferences": {},
  "deployedLinkReferences": {}
}